{
	"ETH-Remix/freeCodeCamp.org/Lesson 4/FundMe.sol": {
		"FundMe": {
			"abi": [
				{
					"inputs": [],
					"name": "fund",
					"outputs": [],
					"stateMutability": "payable",
					"type": "function"
				},
				{
					"inputs": [
						{
							"internalType": "uint256",
							"name": "",
							"type": "uint256"
						}
					],
					"name": "funders",
					"outputs": [
						{
							"internalType": "address",
							"name": "",
							"type": "address"
						}
					],
					"stateMutability": "view",
					"type": "function"
				},
				{
					"inputs": [
						{
							"internalType": "uint256",
							"name": "ethAmount",
							"type": "uint256"
						}
					],
					"name": "getConversionRate",
					"outputs": [
						{
							"internalType": "uint256",
							"name": "",
							"type": "uint256"
						}
					],
					"stateMutability": "view",
					"type": "function"
				},
				{
					"inputs": [],
					"name": "getPrice",
					"outputs": [
						{
							"internalType": "uint256",
							"name": "",
							"type": "uint256"
						}
					],
					"stateMutability": "view",
					"type": "function"
				},
				{
					"inputs": [],
					"name": "minimumUsd",
					"outputs": [
						{
							"internalType": "uint256",
							"name": "",
							"type": "uint256"
						}
					],
					"stateMutability": "view",
					"type": "function"
				}
			],
			"devdoc": {
				"kind": "dev",
				"methods": {},
				"version": 1
			},
			"evm": {
				"assembly": "    /* \"ETH-Remix/freeCodeCamp.org/Lesson 4/FundMe.sol\":147:1287  contract FundMe {... */\n  mstore(0x40, 0x80)\n    /* \"ETH-Remix/freeCodeCamp.org/Lesson 4/FundMe.sol\":200:202  50 */\n  0x32\n    /* \"ETH-Remix/freeCodeCamp.org/Lesson 4/FundMe.sol\":172:202  uint256 public minimumUsd = 50 */\n  0x00\n  sstore\n    /* \"ETH-Remix/freeCodeCamp.org/Lesson 4/FundMe.sol\":147:1287  contract FundMe {... */\n  callvalue\n  dup1\n  iszero\n  tag_1\n  jumpi\n  0x00\n  dup1\n  revert\ntag_1:\n  pop\n  dataSize(sub_0)\n  dup1\n  dataOffset(sub_0)\n  0x00\n  codecopy\n  0x00\n  return\nstop\n\nsub_0: assembly {\n        /* \"ETH-Remix/freeCodeCamp.org/Lesson 4/FundMe.sol\":147:1287  contract FundMe {... */\n      mstore(0x40, 0x80)\n      jumpi(tag_1, lt(calldatasize, 0x04))\n      shr(0xe0, calldataload(0x00))\n      dup1\n      0x098de820\n      eq\n      tag_2\n      jumpi\n      dup1\n      0x6e5b6b28\n      eq\n      tag_3\n      jumpi\n      dup1\n      0x98d5fdca\n      eq\n      tag_4\n      jumpi\n      dup1\n      0xb60d4288\n      eq\n      tag_5\n      jumpi\n      dup1\n      0xdc0d3dff\n      eq\n      tag_6\n      jumpi\n    tag_1:\n      0x00\n      dup1\n      revert\n        /* \"ETH-Remix/freeCodeCamp.org/Lesson 4/FundMe.sol\":172:202  uint256 public minimumUsd = 50 */\n    tag_2:\n      callvalue\n      dup1\n      iszero\n      tag_7\n      jumpi\n      0x00\n      dup1\n      revert\n    tag_7:\n      pop\n      tag_8\n      tag_9\n      jump\t// in\n    tag_8:\n      mload(0x40)\n      tag_10\n      swap2\n      swap1\n      tag_11\n      jump\t// in\n    tag_10:\n      mload(0x40)\n      dup1\n      swap2\n      sub\n      swap1\n      return\n        /* \"ETH-Remix/freeCodeCamp.org/Lesson 4/FundMe.sol\":1060:1282  function getConversionRate(uint256 ethAmount) public view returns (uint256) {... */\n    tag_3:\n      callvalue\n      dup1\n      iszero\n      tag_12\n      jumpi\n      0x00\n      dup1\n      revert\n    tag_12:\n      pop\n      tag_13\n      0x04\n      dup1\n      calldatasize\n      sub\n      dup2\n      add\n      swap1\n      tag_14\n      swap2\n      swap1\n      tag_15\n      jump\t// in\n    tag_14:\n      tag_16\n      jump\t// in\n    tag_13:\n      mload(0x40)\n      tag_17\n      swap2\n      swap1\n      tag_11\n      jump\t// in\n    tag_17:\n      mload(0x40)\n      dup1\n      swap2\n      sub\n      swap1\n      return\n        /* \"ETH-Remix/freeCodeCamp.org/Lesson 4/FundMe.sol\":608:1052  function getPrice() public view returns(uint256) {... */\n    tag_4:\n      callvalue\n      dup1\n      iszero\n      tag_18\n      jumpi\n      0x00\n      dup1\n      revert\n    tag_18:\n      pop\n      tag_19\n      tag_20\n      jump\t// in\n    tag_19:\n      mload(0x40)\n      tag_21\n      swap2\n      swap1\n      tag_11\n      jump\t// in\n    tag_21:\n      mload(0x40)\n      dup1\n      swap2\n      sub\n      swap1\n      return\n        /* \"ETH-Remix/freeCodeCamp.org/Lesson 4/FundMe.sol\":244:600  function fund() public payable{... */\n    tag_5:\n      tag_22\n      tag_23\n      jump\t// in\n    tag_22:\n      stop\n        /* \"ETH-Remix/freeCodeCamp.org/Lesson 4/FundMe.sol\":211:235  address[] public funders */\n    tag_6:\n      callvalue\n      dup1\n      iszero\n      tag_24\n      jumpi\n      0x00\n      dup1\n      revert\n    tag_24:\n      pop\n      tag_25\n      0x04\n      dup1\n      calldatasize\n      sub\n      dup2\n      add\n      swap1\n      tag_26\n      swap2\n      swap1\n      tag_15\n      jump\t// in\n    tag_26:\n      tag_27\n      jump\t// in\n    tag_25:\n      mload(0x40)\n      tag_28\n      swap2\n      swap1\n      tag_29\n      jump\t// in\n    tag_28:\n      mload(0x40)\n      dup1\n      swap2\n      sub\n      swap1\n      return\n        /* \"ETH-Remix/freeCodeCamp.org/Lesson 4/FundMe.sol\":172:202  uint256 public minimumUsd = 50 */\n    tag_9:\n      sload(0x00)\n      dup2\n      jump\t// out\n        /* \"ETH-Remix/freeCodeCamp.org/Lesson 4/FundMe.sol\":1060:1282  function getConversionRate(uint256 ethAmount) public view returns (uint256) {... */\n    tag_16:\n        /* \"ETH-Remix/freeCodeCamp.org/Lesson 4/FundMe.sol\":1127:1134  uint256 */\n      0x00\n        /* \"ETH-Remix/freeCodeCamp.org/Lesson 4/FundMe.sol\":1147:1163  uint256 ethPrice */\n      dup1\n        /* \"ETH-Remix/freeCodeCamp.org/Lesson 4/FundMe.sol\":1166:1176  getPrice() */\n      tag_31\n        /* \"ETH-Remix/freeCodeCamp.org/Lesson 4/FundMe.sol\":1166:1174  getPrice */\n      tag_20\n        /* \"ETH-Remix/freeCodeCamp.org/Lesson 4/FundMe.sol\":1166:1176  getPrice() */\n      jump\t// in\n    tag_31:\n        /* \"ETH-Remix/freeCodeCamp.org/Lesson 4/FundMe.sol\":1147:1176  uint256 ethPrice = getPrice() */\n      swap1\n      pop\n        /* \"ETH-Remix/freeCodeCamp.org/Lesson 4/FundMe.sol\":1187:1209  uint256 ethAmountInUsd */\n      0x00\n        /* \"ETH-Remix/freeCodeCamp.org/Lesson 4/FundMe.sol\":1236:1240  1e18 */\n      0x0de0b6b3a7640000\n        /* \"ETH-Remix/freeCodeCamp.org/Lesson 4/FundMe.sol\":1224:1233  ethAmount */\n      dup5\n        /* \"ETH-Remix/freeCodeCamp.org/Lesson 4/FundMe.sol\":1213:1221  ethPrice */\n      dup4\n        /* \"ETH-Remix/freeCodeCamp.org/Lesson 4/FundMe.sol\":1213:1233  ethPrice * ethAmount */\n      tag_32\n      swap2\n      swap1\n      tag_33\n      jump\t// in\n    tag_32:\n        /* \"ETH-Remix/freeCodeCamp.org/Lesson 4/FundMe.sol\":1212:1240  (ethPrice * ethAmount) /1e18 */\n      tag_34\n      swap2\n      swap1\n      tag_35\n      jump\t// in\n    tag_34:\n        /* \"ETH-Remix/freeCodeCamp.org/Lesson 4/FundMe.sol\":1187:1240  uint256 ethAmountInUsd = (ethPrice * ethAmount) /1e18 */\n      swap1\n      pop\n        /* \"ETH-Remix/freeCodeCamp.org/Lesson 4/FundMe.sol\":1258:1272  ethAmountInUsd */\n      dup1\n        /* \"ETH-Remix/freeCodeCamp.org/Lesson 4/FundMe.sol\":1251:1272  return ethAmountInUsd */\n      swap3\n      pop\n      pop\n      pop\n        /* \"ETH-Remix/freeCodeCamp.org/Lesson 4/FundMe.sol\":1060:1282  function getConversionRate(uint256 ethAmount) public view returns (uint256) {... */\n      swap2\n      swap1\n      pop\n      jump\t// out\n        /* \"ETH-Remix/freeCodeCamp.org/Lesson 4/FundMe.sol\":608:1052  function getPrice() public view returns(uint256) {... */\n    tag_20:\n        /* \"ETH-Remix/freeCodeCamp.org/Lesson 4/FundMe.sol\":648:655  uint256 */\n      0x00\n        /* \"ETH-Remix/freeCodeCamp.org/Lesson 4/FundMe.sol\":762:793  AggregatorV3Interface priceFeed */\n      dup1\n        /* \"ETH-Remix/freeCodeCamp.org/Lesson 4/FundMe.sol\":818:860  0xD4a33860578De61DBAbDc8BFdb98FD742fA7028e */\n      0xd4a33860578de61dbabdc8bfdb98fd742fa7028e\n        /* \"ETH-Remix/freeCodeCamp.org/Lesson 4/FundMe.sol\":762:861  AggregatorV3Interface priceFeed = AggregatorV3Interface(0xD4a33860578De61DBAbDc8BFdb98FD742fA7028e) */\n      swap1\n      pop\n        /* \"ETH-Remix/freeCodeCamp.org/Lesson 4/FundMe.sol\":874:886  int256 price */\n      0x00\n        /* \"ETH-Remix/freeCodeCamp.org/Lesson 4/FundMe.sol\":893:902  priceFeed */\n      dup2\n        /* \"ETH-Remix/freeCodeCamp.org/Lesson 4/FundMe.sol\":893:918  priceFeed.latestRoundData */\n      0xffffffffffffffffffffffffffffffffffffffff\n      and\n      0xfeaf968c\n        /* \"ETH-Remix/freeCodeCamp.org/Lesson 4/FundMe.sol\":893:920  priceFeed.latestRoundData() */\n      mload(0x40)\n      dup2\n      0xffffffff\n      and\n      0xe0\n      shl\n      dup2\n      mstore\n      0x04\n      add\n      0xa0\n      mload(0x40)\n      dup1\n      dup4\n      sub\n      dup2\n      dup7\n      dup1\n      extcodesize\n      iszero\n      dup1\n      iszero\n      tag_37\n      jumpi\n      0x00\n      dup1\n      revert\n    tag_37:\n      pop\n      gas\n      staticcall\n      iszero\n      dup1\n      iszero\n      tag_39\n      jumpi\n      returndatasize\n      0x00\n      dup1\n      returndatacopy\n      revert(0x00, returndatasize)\n    tag_39:\n      pop\n      pop\n      pop\n      pop\n      mload(0x40)\n      returndatasize\n      not(0x1f)\n      0x1f\n      dup3\n      add\n      and\n      dup3\n      add\n      dup1\n      0x40\n      mstore\n      pop\n      dup2\n      add\n      swap1\n      tag_40\n      swap2\n      swap1\n      tag_41\n      jump\t// in\n    tag_40:\n        /* \"ETH-Remix/freeCodeCamp.org/Lesson 4/FundMe.sol\":872:920  (,int256 price,,,) = priceFeed.latestRoundData() */\n      pop\n      pop\n      pop\n      swap2\n      pop\n      pop\n        /* \"ETH-Remix/freeCodeCamp.org/Lesson 4/FundMe.sol\":1013:1017  1e10 */\n      0x02540be400\n        /* \"ETH-Remix/freeCodeCamp.org/Lesson 4/FundMe.sol\":1005:1010  price */\n      dup2\n        /* \"ETH-Remix/freeCodeCamp.org/Lesson 4/FundMe.sol\":1005:1017  price * 1e10 */\n      tag_42\n      swap2\n      swap1\n      tag_43\n      jump\t// in\n    tag_42:\n        /* \"ETH-Remix/freeCodeCamp.org/Lesson 4/FundMe.sol\":989:1018  return uint256 (price * 1e10) */\n      swap3\n      pop\n      pop\n      pop\n        /* \"ETH-Remix/freeCodeCamp.org/Lesson 4/FundMe.sol\":608:1052  function getPrice() public view returns(uint256) {... */\n      swap1\n      jump\t// out\n        /* \"ETH-Remix/freeCodeCamp.org/Lesson 4/FundMe.sol\":244:600  function fund() public payable{... */\n    tag_23:\n        /* \"ETH-Remix/freeCodeCamp.org/Lesson 4/FundMe.sol\":422:432  minimumUsd */\n      sload(0x00)\n        /* \"ETH-Remix/freeCodeCamp.org/Lesson 4/FundMe.sol\":409:418  msg.value */\n      callvalue\n        /* \"ETH-Remix/freeCodeCamp.org/Lesson 4/FundMe.sol\":409:432  msg.value >= minimumUsd */\n      lt\n      iszero\n        /* \"ETH-Remix/freeCodeCamp.org/Lesson 4/FundMe.sol\":401:457  require(msg.value >= minimumUsd, \"Didn't send enought!\") */\n      tag_45\n      jumpi\n      mload(0x40)\n      0x08c379a000000000000000000000000000000000000000000000000000000000\n      dup2\n      mstore\n      0x04\n      add\n      tag_46\n      swap1\n      tag_47\n      jump\t// in\n    tag_46:\n      mload(0x40)\n      dup1\n      swap2\n      sub\n      swap1\n      revert\n    tag_45:\n        /* \"ETH-Remix/freeCodeCamp.org/Lesson 4/FundMe.sol\":244:600  function fund() public payable{... */\n      jump\t// out\n        /* \"ETH-Remix/freeCodeCamp.org/Lesson 4/FundMe.sol\":211:235  address[] public funders */\n    tag_27:\n      0x01\n      dup2\n      dup2\n      sload\n      dup2\n      lt\n      tag_48\n      jumpi\n      0x00\n      dup1\n      revert\n    tag_48:\n      swap1\n      0x00\n      mstore\n      keccak256(0x00, 0x20)\n      add\n      0x00\n      swap2\n      pop\n      sload\n      swap1\n      0x0100\n      exp\n      swap1\n      div\n      0xffffffffffffffffffffffffffffffffffffffff\n      and\n      dup2\n      jump\t// out\n        /* \"#utility.yul\":7:84   */\n    tag_50:\n        /* \"#utility.yul\":44:51   */\n      0x00\n        /* \"#utility.yul\":73:78   */\n      dup2\n        /* \"#utility.yul\":62:78   */\n      swap1\n      pop\n        /* \"#utility.yul\":7:84   */\n      swap2\n      swap1\n      pop\n      jump\t// out\n        /* \"#utility.yul\":90:208   */\n    tag_51:\n        /* \"#utility.yul\":177:201   */\n      tag_75\n        /* \"#utility.yul\":195:200   */\n      dup2\n        /* \"#utility.yul\":177:201   */\n      tag_50\n      jump\t// in\n    tag_75:\n        /* \"#utility.yul\":172:175   */\n      dup3\n        /* \"#utility.yul\":165:202   */\n      mstore\n        /* \"#utility.yul\":90:208   */\n      pop\n      pop\n      jump\t// out\n        /* \"#utility.yul\":214:436   */\n    tag_11:\n        /* \"#utility.yul\":307:311   */\n      0x00\n        /* \"#utility.yul\":345:347   */\n      0x20\n        /* \"#utility.yul\":334:343   */\n      dup3\n        /* \"#utility.yul\":330:348   */\n      add\n        /* \"#utility.yul\":322:348   */\n      swap1\n      pop\n        /* \"#utility.yul\":358:429   */\n      tag_77\n        /* \"#utility.yul\":426:427   */\n      0x00\n        /* \"#utility.yul\":415:424   */\n      dup4\n        /* \"#utility.yul\":411:428   */\n      add\n        /* \"#utility.yul\":402:408   */\n      dup5\n        /* \"#utility.yul\":358:429   */\n      tag_51\n      jump\t// in\n    tag_77:\n        /* \"#utility.yul\":214:436   */\n      swap3\n      swap2\n      pop\n      pop\n      jump\t// out\n        /* \"#utility.yul\":523:640   */\n    tag_53:\n        /* \"#utility.yul\":632:633   */\n      0x00\n        /* \"#utility.yul\":629:630   */\n      dup1\n        /* \"#utility.yul\":622:634   */\n      revert\n        /* \"#utility.yul\":769:891   */\n    tag_55:\n        /* \"#utility.yul\":842:866   */\n      tag_82\n        /* \"#utility.yul\":860:865   */\n      dup2\n        /* \"#utility.yul\":842:866   */\n      tag_50\n      jump\t// in\n    tag_82:\n        /* \"#utility.yul\":835:840   */\n      dup2\n        /* \"#utility.yul\":832:867   */\n      eq\n        /* \"#utility.yul\":822:885   */\n      tag_83\n      jumpi\n        /* \"#utility.yul\":881:882   */\n      0x00\n        /* \"#utility.yul\":878:879   */\n      dup1\n        /* \"#utility.yul\":871:883   */\n      revert\n        /* \"#utility.yul\":822:885   */\n    tag_83:\n        /* \"#utility.yul\":769:891   */\n      pop\n      jump\t// out\n        /* \"#utility.yul\":897:1036   */\n    tag_56:\n        /* \"#utility.yul\":943:948   */\n      0x00\n        /* \"#utility.yul\":981:987   */\n      dup2\n        /* \"#utility.yul\":968:988   */\n      calldataload\n        /* \"#utility.yul\":959:988   */\n      swap1\n      pop\n        /* \"#utility.yul\":997:1030   */\n      tag_85\n        /* \"#utility.yul\":1024:1029   */\n      dup2\n        /* \"#utility.yul\":997:1030   */\n      tag_55\n      jump\t// in\n    tag_85:\n        /* \"#utility.yul\":897:1036   */\n      swap3\n      swap2\n      pop\n      pop\n      jump\t// out\n        /* \"#utility.yul\":1042:1371   */\n    tag_15:\n        /* \"#utility.yul\":1101:1107   */\n      0x00\n        /* \"#utility.yul\":1150:1152   */\n      0x20\n        /* \"#utility.yul\":1138:1147   */\n      dup3\n        /* \"#utility.yul\":1129:1136   */\n      dup5\n        /* \"#utility.yul\":1125:1148   */\n      sub\n        /* \"#utility.yul\":1121:1153   */\n      slt\n        /* \"#utility.yul\":1118:1237   */\n      iszero\n      tag_87\n      jumpi\n        /* \"#utility.yul\":1156:1235   */\n      tag_88\n      tag_53\n      jump\t// in\n    tag_88:\n        /* \"#utility.yul\":1118:1237   */\n    tag_87:\n        /* \"#utility.yul\":1276:1277   */\n      0x00\n        /* \"#utility.yul\":1301:1354   */\n      tag_89\n        /* \"#utility.yul\":1346:1353   */\n      dup5\n        /* \"#utility.yul\":1337:1343   */\n      dup3\n        /* \"#utility.yul\":1326:1335   */\n      dup6\n        /* \"#utility.yul\":1322:1344   */\n      add\n        /* \"#utility.yul\":1301:1354   */\n      tag_56\n      jump\t// in\n    tag_89:\n        /* \"#utility.yul\":1291:1354   */\n      swap2\n      pop\n        /* \"#utility.yul\":1247:1364   */\n      pop\n        /* \"#utility.yul\":1042:1371   */\n      swap3\n      swap2\n      pop\n      pop\n      jump\t// out\n        /* \"#utility.yul\":1377:1503   */\n    tag_57:\n        /* \"#utility.yul\":1414:1421   */\n      0x00\n        /* \"#utility.yul\":1454:1496   */\n      0xffffffffffffffffffffffffffffffffffffffff\n        /* \"#utility.yul\":1447:1452   */\n      dup3\n        /* \"#utility.yul\":1443:1497   */\n      and\n        /* \"#utility.yul\":1432:1497   */\n      swap1\n      pop\n        /* \"#utility.yul\":1377:1503   */\n      swap2\n      swap1\n      pop\n      jump\t// out\n        /* \"#utility.yul\":1509:1605   */\n    tag_58:\n        /* \"#utility.yul\":1546:1553   */\n      0x00\n        /* \"#utility.yul\":1575:1599   */\n      tag_92\n        /* \"#utility.yul\":1593:1598   */\n      dup3\n        /* \"#utility.yul\":1575:1599   */\n      tag_57\n      jump\t// in\n    tag_92:\n        /* \"#utility.yul\":1564:1599   */\n      swap1\n      pop\n        /* \"#utility.yul\":1509:1605   */\n      swap2\n      swap1\n      pop\n      jump\t// out\n        /* \"#utility.yul\":1611:1729   */\n    tag_59:\n        /* \"#utility.yul\":1698:1722   */\n      tag_94\n        /* \"#utility.yul\":1716:1721   */\n      dup2\n        /* \"#utility.yul\":1698:1722   */\n      tag_58\n      jump\t// in\n    tag_94:\n        /* \"#utility.yul\":1693:1696   */\n      dup3\n        /* \"#utility.yul\":1686:1723   */\n      mstore\n        /* \"#utility.yul\":1611:1729   */\n      pop\n      pop\n      jump\t// out\n        /* \"#utility.yul\":1735:1957   */\n    tag_29:\n        /* \"#utility.yul\":1828:1832   */\n      0x00\n        /* \"#utility.yul\":1866:1868   */\n      0x20\n        /* \"#utility.yul\":1855:1864   */\n      dup3\n        /* \"#utility.yul\":1851:1869   */\n      add\n        /* \"#utility.yul\":1843:1869   */\n      swap1\n      pop\n        /* \"#utility.yul\":1879:1950   */\n      tag_96\n        /* \"#utility.yul\":1947:1948   */\n      0x00\n        /* \"#utility.yul\":1936:1945   */\n      dup4\n        /* \"#utility.yul\":1932:1949   */\n      add\n        /* \"#utility.yul\":1923:1929   */\n      dup5\n        /* \"#utility.yul\":1879:1950   */\n      tag_59\n      jump\t// in\n    tag_96:\n        /* \"#utility.yul\":1735:1957   */\n      swap3\n      swap2\n      pop\n      pop\n      jump\t// out\n        /* \"#utility.yul\":1963:2143   */\n    tag_60:\n        /* \"#utility.yul\":2011:2088   */\n      0x4e487b7100000000000000000000000000000000000000000000000000000000\n        /* \"#utility.yul\":2008:2009   */\n      0x00\n        /* \"#utility.yul\":2001:2089   */\n      mstore\n        /* \"#utility.yul\":2108:2112   */\n      0x11\n        /* \"#utility.yul\":2105:2106   */\n      0x04\n        /* \"#utility.yul\":2098:2113   */\n      mstore\n        /* \"#utility.yul\":2132:2136   */\n      0x24\n        /* \"#utility.yul\":2129:2130   */\n      0x00\n        /* \"#utility.yul\":2122:2137   */\n      revert\n        /* \"#utility.yul\":2149:2497   */\n    tag_33:\n        /* \"#utility.yul\":2189:2196   */\n      0x00\n        /* \"#utility.yul\":2212:2232   */\n      tag_99\n        /* \"#utility.yul\":2230:2231   */\n      dup3\n        /* \"#utility.yul\":2212:2232   */\n      tag_50\n      jump\t// in\n    tag_99:\n        /* \"#utility.yul\":2207:2232   */\n      swap2\n      pop\n        /* \"#utility.yul\":2246:2266   */\n      tag_100\n        /* \"#utility.yul\":2264:2265   */\n      dup4\n        /* \"#utility.yul\":2246:2266   */\n      tag_50\n      jump\t// in\n    tag_100:\n        /* \"#utility.yul\":2241:2266   */\n      swap3\n      pop\n        /* \"#utility.yul\":2434:2435   */\n      dup2\n        /* \"#utility.yul\":2366:2432   */\n      0xffffffffffffffffffffffffffffffffffffffffffffffffffffffffffffffff\n        /* \"#utility.yul\":2362:2436   */\n      div\n        /* \"#utility.yul\":2359:2360   */\n      dup4\n        /* \"#utility.yul\":2356:2437   */\n      gt\n        /* \"#utility.yul\":2351:2352   */\n      dup3\n        /* \"#utility.yul\":2344:2353   */\n      iszero\n        /* \"#utility.yul\":2337:2354   */\n      iszero\n        /* \"#utility.yul\":2333:2438   */\n      and\n        /* \"#utility.yul\":2330:2461   */\n      iszero\n      tag_101\n      jumpi\n        /* \"#utility.yul\":2441:2459   */\n      tag_102\n      tag_60\n      jump\t// in\n    tag_102:\n        /* \"#utility.yul\":2330:2461   */\n    tag_101:\n        /* \"#utility.yul\":2489:2490   */\n      dup3\n        /* \"#utility.yul\":2486:2487   */\n      dup3\n        /* \"#utility.yul\":2482:2491   */\n      mul\n        /* \"#utility.yul\":2471:2491   */\n      swap1\n      pop\n        /* \"#utility.yul\":2149:2497   */\n      swap3\n      swap2\n      pop\n      pop\n      jump\t// out\n        /* \"#utility.yul\":2503:2683   */\n    tag_61:\n        /* \"#utility.yul\":2551:2628   */\n      0x4e487b7100000000000000000000000000000000000000000000000000000000\n        /* \"#utility.yul\":2548:2549   */\n      0x00\n        /* \"#utility.yul\":2541:2629   */\n      mstore\n        /* \"#utility.yul\":2648:2652   */\n      0x12\n        /* \"#utility.yul\":2645:2646   */\n      0x04\n        /* \"#utility.yul\":2638:2653   */\n      mstore\n        /* \"#utility.yul\":2672:2676   */\n      0x24\n        /* \"#utility.yul\":2669:2670   */\n      0x00\n        /* \"#utility.yul\":2662:2677   */\n      revert\n        /* \"#utility.yul\":2689:2874   */\n    tag_35:\n        /* \"#utility.yul\":2729:2730   */\n      0x00\n        /* \"#utility.yul\":2746:2766   */\n      tag_105\n        /* \"#utility.yul\":2764:2765   */\n      dup3\n        /* \"#utility.yul\":2746:2766   */\n      tag_50\n      jump\t// in\n    tag_105:\n        /* \"#utility.yul\":2741:2766   */\n      swap2\n      pop\n        /* \"#utility.yul\":2780:2800   */\n      tag_106\n        /* \"#utility.yul\":2798:2799   */\n      dup4\n        /* \"#utility.yul\":2780:2800   */\n      tag_50\n      jump\t// in\n    tag_106:\n        /* \"#utility.yul\":2775:2800   */\n      swap3\n      pop\n        /* \"#utility.yul\":2819:2820   */\n      dup3\n        /* \"#utility.yul\":2809:2844   */\n      tag_107\n      jumpi\n        /* \"#utility.yul\":2824:2842   */\n      tag_108\n      tag_61\n      jump\t// in\n    tag_108:\n        /* \"#utility.yul\":2809:2844   */\n    tag_107:\n        /* \"#utility.yul\":2866:2867   */\n      dup3\n        /* \"#utility.yul\":2863:2864   */\n      dup3\n        /* \"#utility.yul\":2859:2868   */\n      div\n        /* \"#utility.yul\":2854:2868   */\n      swap1\n      pop\n        /* \"#utility.yul\":2689:2874   */\n      swap3\n      swap2\n      pop\n      pop\n      jump\t// out\n        /* \"#utility.yul\":2880:2985   */\n    tag_62:\n        /* \"#utility.yul\":2916:2923   */\n      0x00\n        /* \"#utility.yul\":2956:2978   */\n      0xffffffffffffffffffff\n        /* \"#utility.yul\":2949:2954   */\n      dup3\n        /* \"#utility.yul\":2945:2979   */\n      and\n        /* \"#utility.yul\":2934:2979   */\n      swap1\n      pop\n        /* \"#utility.yul\":2880:2985   */\n      swap2\n      swap1\n      pop\n      jump\t// out\n        /* \"#utility.yul\":2991:3111   */\n    tag_63:\n        /* \"#utility.yul\":3063:3086   */\n      tag_111\n        /* \"#utility.yul\":3080:3085   */\n      dup2\n        /* \"#utility.yul\":3063:3086   */\n      tag_62\n      jump\t// in\n    tag_111:\n        /* \"#utility.yul\":3056:3061   */\n      dup2\n        /* \"#utility.yul\":3053:3087   */\n      eq\n        /* \"#utility.yul\":3043:3105   */\n      tag_112\n      jumpi\n        /* \"#utility.yul\":3101:3102   */\n      0x00\n        /* \"#utility.yul\":3098:3099   */\n      dup1\n        /* \"#utility.yul\":3091:3103   */\n      revert\n        /* \"#utility.yul\":3043:3105   */\n    tag_112:\n        /* \"#utility.yul\":2991:3111   */\n      pop\n      jump\t// out\n        /* \"#utility.yul\":3117:3258   */\n    tag_64:\n        /* \"#utility.yul\":3173:3178   */\n      0x00\n        /* \"#utility.yul\":3204:3210   */\n      dup2\n        /* \"#utility.yul\":3198:3211   */\n      mload\n        /* \"#utility.yul\":3189:3211   */\n      swap1\n      pop\n        /* \"#utility.yul\":3220:3252   */\n      tag_114\n        /* \"#utility.yul\":3246:3251   */\n      dup2\n        /* \"#utility.yul\":3220:3252   */\n      tag_63\n      jump\t// in\n    tag_114:\n        /* \"#utility.yul\":3117:3258   */\n      swap3\n      swap2\n      pop\n      pop\n      jump\t// out\n        /* \"#utility.yul\":3264:3340   */\n    tag_65:\n        /* \"#utility.yul\":3300:3307   */\n      0x00\n        /* \"#utility.yul\":3329:3334   */\n      dup2\n        /* \"#utility.yul\":3318:3334   */\n      swap1\n      pop\n        /* \"#utility.yul\":3264:3340   */\n      swap2\n      swap1\n      pop\n      jump\t// out\n        /* \"#utility.yul\":3346:3466   */\n    tag_66:\n        /* \"#utility.yul\":3418:3441   */\n      tag_117\n        /* \"#utility.yul\":3435:3440   */\n      dup2\n        /* \"#utility.yul\":3418:3441   */\n      tag_65\n      jump\t// in\n    tag_117:\n        /* \"#utility.yul\":3411:3416   */\n      dup2\n        /* \"#utility.yul\":3408:3442   */\n      eq\n        /* \"#utility.yul\":3398:3460   */\n      tag_118\n      jumpi\n        /* \"#utility.yul\":3456:3457   */\n      0x00\n        /* \"#utility.yul\":3453:3454   */\n      dup1\n        /* \"#utility.yul\":3446:3458   */\n      revert\n        /* \"#utility.yul\":3398:3460   */\n    tag_118:\n        /* \"#utility.yul\":3346:3466   */\n      pop\n      jump\t// out\n        /* \"#utility.yul\":3472:3613   */\n    tag_67:\n        /* \"#utility.yul\":3528:3533   */\n      0x00\n        /* \"#utility.yul\":3559:3565   */\n      dup2\n        /* \"#utility.yul\":3553:3566   */\n      mload\n        /* \"#utility.yul\":3544:3566   */\n      swap1\n      pop\n        /* \"#utility.yul\":3575:3607   */\n      tag_120\n        /* \"#utility.yul\":3601:3606   */\n      dup2\n        /* \"#utility.yul\":3575:3607   */\n      tag_66\n      jump\t// in\n    tag_120:\n        /* \"#utility.yul\":3472:3613   */\n      swap3\n      swap2\n      pop\n      pop\n      jump\t// out\n        /* \"#utility.yul\":3619:3762   */\n    tag_68:\n        /* \"#utility.yul\":3676:3681   */\n      0x00\n        /* \"#utility.yul\":3707:3713   */\n      dup2\n        /* \"#utility.yul\":3701:3714   */\n      mload\n        /* \"#utility.yul\":3692:3714   */\n      swap1\n      pop\n        /* \"#utility.yul\":3723:3756   */\n      tag_122\n        /* \"#utility.yul\":3750:3755   */\n      dup2\n        /* \"#utility.yul\":3723:3756   */\n      tag_55\n      jump\t// in\n    tag_122:\n        /* \"#utility.yul\":3619:3762   */\n      swap3\n      swap2\n      pop\n      pop\n      jump\t// out\n        /* \"#utility.yul\":3768:4739   */\n    tag_41:\n        /* \"#utility.yul\":3871:3877   */\n      0x00\n        /* \"#utility.yul\":3879:3885   */\n      dup1\n        /* \"#utility.yul\":3887:3893   */\n      0x00\n        /* \"#utility.yul\":3895:3901   */\n      dup1\n        /* \"#utility.yul\":3903:3909   */\n      0x00\n        /* \"#utility.yul\":3952:3955   */\n      0xa0\n        /* \"#utility.yul\":3940:3949   */\n      dup7\n        /* \"#utility.yul\":3931:3938   */\n      dup9\n        /* \"#utility.yul\":3927:3950   */\n      sub\n        /* \"#utility.yul\":3923:3956   */\n      slt\n        /* \"#utility.yul\":3920:4040   */\n      iszero\n      tag_124\n      jumpi\n        /* \"#utility.yul\":3959:4038   */\n      tag_125\n      tag_53\n      jump\t// in\n    tag_125:\n        /* \"#utility.yul\":3920:4040   */\n    tag_124:\n        /* \"#utility.yul\":4079:4080   */\n      0x00\n        /* \"#utility.yul\":4104:4167   */\n      tag_126\n        /* \"#utility.yul\":4159:4166   */\n      dup9\n        /* \"#utility.yul\":4150:4156   */\n      dup3\n        /* \"#utility.yul\":4139:4148   */\n      dup10\n        /* \"#utility.yul\":4135:4157   */\n      add\n        /* \"#utility.yul\":4104:4167   */\n      tag_64\n      jump\t// in\n    tag_126:\n        /* \"#utility.yul\":4094:4167   */\n      swap6\n      pop\n        /* \"#utility.yul\":4050:4177   */\n      pop\n        /* \"#utility.yul\":4216:4218   */\n      0x20\n        /* \"#utility.yul\":4242:4305   */\n      tag_127\n        /* \"#utility.yul\":4297:4304   */\n      dup9\n        /* \"#utility.yul\":4288:4294   */\n      dup3\n        /* \"#utility.yul\":4277:4286   */\n      dup10\n        /* \"#utility.yul\":4273:4295   */\n      add\n        /* \"#utility.yul\":4242:4305   */\n      tag_67\n      jump\t// in\n    tag_127:\n        /* \"#utility.yul\":4232:4305   */\n      swap5\n      pop\n        /* \"#utility.yul\":4187:4315   */\n      pop\n        /* \"#utility.yul\":4354:4356   */\n      0x40\n        /* \"#utility.yul\":4380:4444   */\n      tag_128\n        /* \"#utility.yul\":4436:4443   */\n      dup9\n        /* \"#utility.yul\":4427:4433   */\n      dup3\n        /* \"#utility.yul\":4416:4425   */\n      dup10\n        /* \"#utility.yul\":4412:4434   */\n      add\n        /* \"#utility.yul\":4380:4444   */\n      tag_68\n      jump\t// in\n    tag_128:\n        /* \"#utility.yul\":4370:4444   */\n      swap4\n      pop\n        /* \"#utility.yul\":4325:4454   */\n      pop\n        /* \"#utility.yul\":4493:4495   */\n      0x60\n        /* \"#utility.yul\":4519:4583   */\n      tag_129\n        /* \"#utility.yul\":4575:4582   */\n      dup9\n        /* \"#utility.yul\":4566:4572   */\n      dup3\n        /* \"#utility.yul\":4555:4564   */\n      dup10\n        /* \"#utility.yul\":4551:4573   */\n      add\n        /* \"#utility.yul\":4519:4583   */\n      tag_68\n      jump\t// in\n    tag_129:\n        /* \"#utility.yul\":4509:4583   */\n      swap3\n      pop\n        /* \"#utility.yul\":4464:4593   */\n      pop\n        /* \"#utility.yul\":4632:4635   */\n      0x80\n        /* \"#utility.yul\":4659:4722   */\n      tag_130\n        /* \"#utility.yul\":4714:4721   */\n      dup9\n        /* \"#utility.yul\":4705:4711   */\n      dup3\n        /* \"#utility.yul\":4694:4703   */\n      dup10\n        /* \"#utility.yul\":4690:4712   */\n      add\n        /* \"#utility.yul\":4659:4722   */\n      tag_64\n      jump\t// in\n    tag_130:\n        /* \"#utility.yul\":4649:4722   */\n      swap2\n      pop\n        /* \"#utility.yul\":4603:4732   */\n      pop\n        /* \"#utility.yul\":3768:4739   */\n      swap3\n      swap6\n      pop\n      swap3\n      swap6\n      swap1\n      swap4\n      pop\n      jump\t// out\n        /* \"#utility.yul\":4745:5736   */\n    tag_43:\n        /* \"#utility.yul\":4784:4791   */\n      0x00\n        /* \"#utility.yul\":4807:4826   */\n      tag_132\n        /* \"#utility.yul\":4824:4825   */\n      dup3\n        /* \"#utility.yul\":4807:4826   */\n      tag_65\n      jump\t// in\n    tag_132:\n        /* \"#utility.yul\":4802:4826   */\n      swap2\n      pop\n        /* \"#utility.yul\":4840:4859   */\n      tag_133\n        /* \"#utility.yul\":4857:4858   */\n      dup4\n        /* \"#utility.yul\":4840:4859   */\n      tag_65\n      jump\t// in\n    tag_133:\n        /* \"#utility.yul\":4835:4859   */\n      swap3\n      pop\n        /* \"#utility.yul\":5041:5042   */\n      dup3\n        /* \"#utility.yul\":4973:5039   */\n      0x7fffffffffffffffffffffffffffffffffffffffffffffffffffffffffffffff\n        /* \"#utility.yul\":4969:5043   */\n      div\n        /* \"#utility.yul\":4966:4967   */\n      dup3\n        /* \"#utility.yul\":4963:5044   */\n      gt\n        /* \"#utility.yul\":4958:4959   */\n      0x00\n        /* \"#utility.yul\":4955:4956   */\n      dup5\n        /* \"#utility.yul\":4951:4960   */\n      sgt\n        /* \"#utility.yul\":4947:4948   */\n      0x00\n        /* \"#utility.yul\":4944:4945   */\n      dup5\n        /* \"#utility.yul\":4940:4949   */\n      sgt\n        /* \"#utility.yul\":4936:4961   */\n      and\n        /* \"#utility.yul\":4932:5045   */\n      and\n        /* \"#utility.yul\":4929:5068   */\n      iszero\n      tag_134\n      jumpi\n        /* \"#utility.yul\":5048:5066   */\n      tag_135\n      tag_60\n      jump\t// in\n    tag_135:\n        /* \"#utility.yul\":4929:5068   */\n    tag_134:\n        /* \"#utility.yul\":5252:5253   */\n      dup2\n        /* \"#utility.yul\":5184:5250   */\n      0x8000000000000000000000000000000000000000000000000000000000000000\n        /* \"#utility.yul\":5179:5254   */\n      sdiv\n        /* \"#utility.yul\":5176:5177   */\n      dup4\n        /* \"#utility.yul\":5172:5255   */\n      slt\n        /* \"#utility.yul\":5167:5168   */\n      0x00\n        /* \"#utility.yul\":5164:5165   */\n      dup5\n        /* \"#utility.yul\":5160:5169   */\n      slt\n        /* \"#utility.yul\":5156:5157   */\n      0x00\n        /* \"#utility.yul\":5153:5154   */\n      dup5\n        /* \"#utility.yul\":5149:5158   */\n      sgt\n        /* \"#utility.yul\":5145:5170   */\n      and\n        /* \"#utility.yul\":5141:5256   */\n      and\n        /* \"#utility.yul\":5138:5279   */\n      iszero\n      tag_136\n      jumpi\n        /* \"#utility.yul\":5259:5277   */\n      tag_137\n      tag_60\n      jump\t// in\n    tag_137:\n        /* \"#utility.yul\":5138:5279   */\n    tag_136:\n        /* \"#utility.yul\":5463:5464   */\n      dup3\n        /* \"#utility.yul\":5395:5461   */\n      0x8000000000000000000000000000000000000000000000000000000000000000\n        /* \"#utility.yul\":5390:5465   */\n      sdiv\n        /* \"#utility.yul\":5387:5388   */\n      dup3\n        /* \"#utility.yul\":5383:5466   */\n      slt\n        /* \"#utility.yul\":5378:5379   */\n      0x00\n        /* \"#utility.yul\":5375:5376   */\n      dup5\n        /* \"#utility.yul\":5371:5380   */\n      sgt\n        /* \"#utility.yul\":5367:5368   */\n      0x00\n        /* \"#utility.yul\":5364:5365   */\n      dup5\n        /* \"#utility.yul\":5360:5369   */\n      slt\n        /* \"#utility.yul\":5356:5381   */\n      and\n        /* \"#utility.yul\":5352:5467   */\n      and\n        /* \"#utility.yul\":5349:5490   */\n      iszero\n      tag_138\n      jumpi\n        /* \"#utility.yul\":5470:5488   */\n      tag_139\n      tag_60\n      jump\t// in\n    tag_139:\n        /* \"#utility.yul\":5349:5490   */\n    tag_138:\n        /* \"#utility.yul\":5673:5674   */\n      dup3\n        /* \"#utility.yul\":5605:5671   */\n      0x7fffffffffffffffffffffffffffffffffffffffffffffffffffffffffffffff\n        /* \"#utility.yul\":5600:5675   */\n      sdiv\n        /* \"#utility.yul\":5597:5598   */\n      dup3\n        /* \"#utility.yul\":5593:5676   */\n      slt\n        /* \"#utility.yul\":5588:5589   */\n      0x00\n        /* \"#utility.yul\":5585:5586   */\n      dup5\n        /* \"#utility.yul\":5581:5590   */\n      slt\n        /* \"#utility.yul\":5577:5578   */\n      0x00\n        /* \"#utility.yul\":5574:5575   */\n      dup5\n        /* \"#utility.yul\":5570:5579   */\n      slt\n        /* \"#utility.yul\":5566:5591   */\n      and\n        /* \"#utility.yul\":5562:5677   */\n      and\n        /* \"#utility.yul\":5559:5700   */\n      iszero\n      tag_140\n      jumpi\n        /* \"#utility.yul\":5680:5698   */\n      tag_141\n      tag_60\n      jump\t// in\n    tag_141:\n        /* \"#utility.yul\":5559:5700   */\n    tag_140:\n        /* \"#utility.yul\":5728:5729   */\n      dup3\n        /* \"#utility.yul\":5725:5726   */\n      dup3\n        /* \"#utility.yul\":5721:5730   */\n      mul\n        /* \"#utility.yul\":5710:5730   */\n      swap1\n      pop\n        /* \"#utility.yul\":4745:5736   */\n      swap3\n      swap2\n      pop\n      pop\n      jump\t// out\n        /* \"#utility.yul\":5742:5911   */\n    tag_69:\n        /* \"#utility.yul\":5826:5837   */\n      0x00\n        /* \"#utility.yul\":5860:5866   */\n      dup3\n        /* \"#utility.yul\":5855:5858   */\n      dup3\n        /* \"#utility.yul\":5848:5867   */\n      mstore\n        /* \"#utility.yul\":5900:5904   */\n      0x20\n        /* \"#utility.yul\":5895:5898   */\n      dup3\n        /* \"#utility.yul\":5891:5905   */\n      add\n        /* \"#utility.yul\":5876:5905   */\n      swap1\n      pop\n        /* \"#utility.yul\":5742:5911   */\n      swap3\n      swap2\n      pop\n      pop\n      jump\t// out\n        /* \"#utility.yul\":5917:6087   */\n    tag_70:\n        /* \"#utility.yul\":6057:6079   */\n      0x4469646e27742073656e6420656e6f7567687421000000000000000000000000\n        /* \"#utility.yul\":6053:6054   */\n      0x00\n        /* \"#utility.yul\":6045:6051   */\n      dup3\n        /* \"#utility.yul\":6041:6055   */\n      add\n        /* \"#utility.yul\":6034:6080   */\n      mstore\n        /* \"#utility.yul\":5917:6087   */\n      pop\n      jump\t// out\n        /* \"#utility.yul\":6093:6459   */\n    tag_71:\n        /* \"#utility.yul\":6235:6238   */\n      0x00\n        /* \"#utility.yul\":6256:6323   */\n      tag_145\n        /* \"#utility.yul\":6320:6322   */\n      0x14\n        /* \"#utility.yul\":6315:6318   */\n      dup4\n        /* \"#utility.yul\":6256:6323   */\n      tag_69\n      jump\t// in\n    tag_145:\n        /* \"#utility.yul\":6249:6323   */\n      swap2\n      pop\n        /* \"#utility.yul\":6332:6425   */\n      tag_146\n        /* \"#utility.yul\":6421:6424   */\n      dup3\n        /* \"#utility.yul\":6332:6425   */\n      tag_70\n      jump\t// in\n    tag_146:\n        /* \"#utility.yul\":6450:6452   */\n      0x20\n        /* \"#utility.yul\":6445:6448   */\n      dup3\n        /* \"#utility.yul\":6441:6453   */\n      add\n        /* \"#utility.yul\":6434:6453   */\n      swap1\n      pop\n        /* \"#utility.yul\":6093:6459   */\n      swap2\n      swap1\n      pop\n      jump\t// out\n        /* \"#utility.yul\":6465:6884   */\n    tag_47:\n        /* \"#utility.yul\":6631:6635   */\n      0x00\n        /* \"#utility.yul\":6669:6671   */\n      0x20\n        /* \"#utility.yul\":6658:6667   */\n      dup3\n        /* \"#utility.yul\":6654:6672   */\n      add\n        /* \"#utility.yul\":6646:6672   */\n      swap1\n      pop\n        /* \"#utility.yul\":6718:6727   */\n      dup2\n        /* \"#utility.yul\":6712:6716   */\n      dup2\n        /* \"#utility.yul\":6708:6728   */\n      sub\n        /* \"#utility.yul\":6704:6705   */\n      0x00\n        /* \"#utility.yul\":6693:6702   */\n      dup4\n        /* \"#utility.yul\":6689:6706   */\n      add\n        /* \"#utility.yul\":6682:6729   */\n      mstore\n        /* \"#utility.yul\":6746:6877   */\n      tag_148\n        /* \"#utility.yul\":6872:6876   */\n      dup2\n        /* \"#utility.yul\":6746:6877   */\n      tag_71\n      jump\t// in\n    tag_148:\n        /* \"#utility.yul\":6738:6877   */\n      swap1\n      pop\n        /* \"#utility.yul\":6465:6884   */\n      swap2\n      swap1\n      pop\n      jump\t// out\n\n    auxdata: 0xa26469706673582212200d479c6ee7305f19f2bebcc220e561641e26af77a827b3b1a9556a7f53516f5564736f6c63430008080033\n}\n",
				"bytecode": {
					"linkReferences": {},
					"object": "6080604052603260005534801561001557600080fd5b50610750806100256000396000f3fe60806040526004361061004a5760003560e01c8063098de8201461004f5780636e5b6b281461007a57806398d5fdca146100b7578063b60d4288146100e2578063dc0d3dff146100ec575b600080fd5b34801561005b57600080fd5b50610064610129565b60405161007191906102c0565b60405180910390f35b34801561008657600080fd5b506100a1600480360381019061009c919061030c565b61012f565b6040516100ae91906102c0565b60405180910390f35b3480156100c357600080fd5b506100cc610169565b6040516100d991906102c0565b60405180910390f35b6100ea610221565b005b3480156100f857600080fd5b50610113600480360381019061010e919061030c565b610268565b604051610120919061037a565b60405180910390f35b60005481565b60008061013a610169565b90506000670de0b6b3a7640000848361015391906103c4565b61015d919061044d565b90508092505050919050565b60008073d4a33860578de61dbabdc8bfdb98fd742fa7028e905060008173ffffffffffffffffffffffffffffffffffffffff1663feaf968c6040518163ffffffff1660e01b815260040160a06040518083038186803b1580156101cb57600080fd5b505afa1580156101df573d6000803e3d6000fd5b505050506040513d601f19601f82011682018060405250810190610203919061050b565b5050509150506402540be4008161021a9190610586565b9250505090565b600054341015610266576040517f08c379a000000000000000000000000000000000000000000000000000000000815260040161025d906106fa565b60405180910390fd5b565b6001818154811061027857600080fd5b906000526020600020016000915054906101000a900473ffffffffffffffffffffffffffffffffffffffff1681565b6000819050919050565b6102ba816102a7565b82525050565b60006020820190506102d560008301846102b1565b92915050565b600080fd5b6102e9816102a7565b81146102f457600080fd5b50565b600081359050610306816102e0565b92915050565b600060208284031215610322576103216102db565b5b6000610330848285016102f7565b91505092915050565b600073ffffffffffffffffffffffffffffffffffffffff82169050919050565b600061036482610339565b9050919050565b61037481610359565b82525050565b600060208201905061038f600083018461036b565b92915050565b7f4e487b7100000000000000000000000000000000000000000000000000000000600052601160045260246000fd5b60006103cf826102a7565b91506103da836102a7565b9250817fffffffffffffffffffffffffffffffffffffffffffffffffffffffffffffffff048311821515161561041357610412610395565b5b828202905092915050565b7f4e487b7100000000000000000000000000000000000000000000000000000000600052601260045260246000fd5b6000610458826102a7565b9150610463836102a7565b9250826104735761047261041e565b5b828204905092915050565b600069ffffffffffffffffffff82169050919050565b61049d8161047e565b81146104a857600080fd5b50565b6000815190506104ba81610494565b92915050565b6000819050919050565b6104d3816104c0565b81146104de57600080fd5b50565b6000815190506104f0816104ca565b92915050565b600081519050610505816102e0565b92915050565b600080600080600060a08688031215610527576105266102db565b5b6000610535888289016104ab565b9550506020610546888289016104e1565b9450506040610557888289016104f6565b9350506060610568888289016104f6565b9250506080610579888289016104ab565b9150509295509295909350565b6000610591826104c0565b915061059c836104c0565b9250827f7fffffffffffffffffffffffffffffffffffffffffffffffffffffffffffffff04821160008413600084131616156105db576105da610395565b5b817f8000000000000000000000000000000000000000000000000000000000000000058312600084126000841316161561061857610617610395565b5b827f8000000000000000000000000000000000000000000000000000000000000000058212600084136000841216161561065557610654610395565b5b827f7fffffffffffffffffffffffffffffffffffffffffffffffffffffffffffffff058212600084126000841216161561069257610691610395565b5b828202905092915050565b600082825260208201905092915050565b7f4469646e27742073656e6420656e6f7567687421000000000000000000000000600082015250565b60006106e460148361069d565b91506106ef826106ae565b602082019050919050565b60006020820190508181036000830152610713816106d7565b905091905056fea26469706673582212200d479c6ee7305f19f2bebcc220e561641e26af77a827b3b1a9556a7f53516f5564736f6c63430008080033",
					"opcodes": "PUSH1 0x80 PUSH1 0x40 MSTORE PUSH1 0x32 PUSH1 0x0 SSTORE CALLVALUE DUP1 ISZERO PUSH2 0x15 JUMPI PUSH1 0x0 DUP1 REVERT JUMPDEST POP PUSH2 0x750 DUP1 PUSH2 0x25 PUSH1 0x0 CODECOPY PUSH1 0x0 RETURN INVALID PUSH1 0x80 PUSH1 0x40 MSTORE PUSH1 0x4 CALLDATASIZE LT PUSH2 0x4A JUMPI PUSH1 0x0 CALLDATALOAD PUSH1 0xE0 SHR DUP1 PUSH4 0x98DE820 EQ PUSH2 0x4F JUMPI DUP1 PUSH4 0x6E5B6B28 EQ PUSH2 0x7A JUMPI DUP1 PUSH4 0x98D5FDCA EQ PUSH2 0xB7 JUMPI DUP1 PUSH4 0xB60D4288 EQ PUSH2 0xE2 JUMPI DUP1 PUSH4 0xDC0D3DFF EQ PUSH2 0xEC JUMPI JUMPDEST PUSH1 0x0 DUP1 REVERT JUMPDEST CALLVALUE DUP1 ISZERO PUSH2 0x5B JUMPI PUSH1 0x0 DUP1 REVERT JUMPDEST POP PUSH2 0x64 PUSH2 0x129 JUMP JUMPDEST PUSH1 0x40 MLOAD PUSH2 0x71 SWAP2 SWAP1 PUSH2 0x2C0 JUMP JUMPDEST PUSH1 0x40 MLOAD DUP1 SWAP2 SUB SWAP1 RETURN JUMPDEST CALLVALUE DUP1 ISZERO PUSH2 0x86 JUMPI PUSH1 0x0 DUP1 REVERT JUMPDEST POP PUSH2 0xA1 PUSH1 0x4 DUP1 CALLDATASIZE SUB DUP2 ADD SWAP1 PUSH2 0x9C SWAP2 SWAP1 PUSH2 0x30C JUMP JUMPDEST PUSH2 0x12F JUMP JUMPDEST PUSH1 0x40 MLOAD PUSH2 0xAE SWAP2 SWAP1 PUSH2 0x2C0 JUMP JUMPDEST PUSH1 0x40 MLOAD DUP1 SWAP2 SUB SWAP1 RETURN JUMPDEST CALLVALUE DUP1 ISZERO PUSH2 0xC3 JUMPI PUSH1 0x0 DUP1 REVERT JUMPDEST POP PUSH2 0xCC PUSH2 0x169 JUMP JUMPDEST PUSH1 0x40 MLOAD PUSH2 0xD9 SWAP2 SWAP1 PUSH2 0x2C0 JUMP JUMPDEST PUSH1 0x40 MLOAD DUP1 SWAP2 SUB SWAP1 RETURN JUMPDEST PUSH2 0xEA PUSH2 0x221 JUMP JUMPDEST STOP JUMPDEST CALLVALUE DUP1 ISZERO PUSH2 0xF8 JUMPI PUSH1 0x0 DUP1 REVERT JUMPDEST POP PUSH2 0x113 PUSH1 0x4 DUP1 CALLDATASIZE SUB DUP2 ADD SWAP1 PUSH2 0x10E SWAP2 SWAP1 PUSH2 0x30C JUMP JUMPDEST PUSH2 0x268 JUMP JUMPDEST PUSH1 0x40 MLOAD PUSH2 0x120 SWAP2 SWAP1 PUSH2 0x37A JUMP JUMPDEST PUSH1 0x40 MLOAD DUP1 SWAP2 SUB SWAP1 RETURN JUMPDEST PUSH1 0x0 SLOAD DUP2 JUMP JUMPDEST PUSH1 0x0 DUP1 PUSH2 0x13A PUSH2 0x169 JUMP JUMPDEST SWAP1 POP PUSH1 0x0 PUSH8 0xDE0B6B3A7640000 DUP5 DUP4 PUSH2 0x153 SWAP2 SWAP1 PUSH2 0x3C4 JUMP JUMPDEST PUSH2 0x15D SWAP2 SWAP1 PUSH2 0x44D JUMP JUMPDEST SWAP1 POP DUP1 SWAP3 POP POP POP SWAP2 SWAP1 POP JUMP JUMPDEST PUSH1 0x0 DUP1 PUSH20 0xD4A33860578DE61DBABDC8BFDB98FD742FA7028E SWAP1 POP PUSH1 0x0 DUP2 PUSH20 0xFFFFFFFFFFFFFFFFFFFFFFFFFFFFFFFFFFFFFFFF AND PUSH4 0xFEAF968C PUSH1 0x40 MLOAD DUP2 PUSH4 0xFFFFFFFF AND PUSH1 0xE0 SHL DUP2 MSTORE PUSH1 0x4 ADD PUSH1 0xA0 PUSH1 0x40 MLOAD DUP1 DUP4 SUB DUP2 DUP7 DUP1 EXTCODESIZE ISZERO DUP1 ISZERO PUSH2 0x1CB JUMPI PUSH1 0x0 DUP1 REVERT JUMPDEST POP GAS STATICCALL ISZERO DUP1 ISZERO PUSH2 0x1DF JUMPI RETURNDATASIZE PUSH1 0x0 DUP1 RETURNDATACOPY RETURNDATASIZE PUSH1 0x0 REVERT JUMPDEST POP POP POP POP PUSH1 0x40 MLOAD RETURNDATASIZE PUSH1 0x1F NOT PUSH1 0x1F DUP3 ADD AND DUP3 ADD DUP1 PUSH1 0x40 MSTORE POP DUP2 ADD SWAP1 PUSH2 0x203 SWAP2 SWAP1 PUSH2 0x50B JUMP JUMPDEST POP POP POP SWAP2 POP POP PUSH5 0x2540BE400 DUP2 PUSH2 0x21A SWAP2 SWAP1 PUSH2 0x586 JUMP JUMPDEST SWAP3 POP POP POP SWAP1 JUMP JUMPDEST PUSH1 0x0 SLOAD CALLVALUE LT ISZERO PUSH2 0x266 JUMPI PUSH1 0x40 MLOAD PUSH32 0x8C379A000000000000000000000000000000000000000000000000000000000 DUP2 MSTORE PUSH1 0x4 ADD PUSH2 0x25D SWAP1 PUSH2 0x6FA JUMP JUMPDEST PUSH1 0x40 MLOAD DUP1 SWAP2 SUB SWAP1 REVERT JUMPDEST JUMP JUMPDEST PUSH1 0x1 DUP2 DUP2 SLOAD DUP2 LT PUSH2 0x278 JUMPI PUSH1 0x0 DUP1 REVERT JUMPDEST SWAP1 PUSH1 0x0 MSTORE PUSH1 0x20 PUSH1 0x0 KECCAK256 ADD PUSH1 0x0 SWAP2 POP SLOAD SWAP1 PUSH2 0x100 EXP SWAP1 DIV PUSH20 0xFFFFFFFFFFFFFFFFFFFFFFFFFFFFFFFFFFFFFFFF AND DUP2 JUMP JUMPDEST PUSH1 0x0 DUP2 SWAP1 POP SWAP2 SWAP1 POP JUMP JUMPDEST PUSH2 0x2BA DUP2 PUSH2 0x2A7 JUMP JUMPDEST DUP3 MSTORE POP POP JUMP JUMPDEST PUSH1 0x0 PUSH1 0x20 DUP3 ADD SWAP1 POP PUSH2 0x2D5 PUSH1 0x0 DUP4 ADD DUP5 PUSH2 0x2B1 JUMP JUMPDEST SWAP3 SWAP2 POP POP JUMP JUMPDEST PUSH1 0x0 DUP1 REVERT JUMPDEST PUSH2 0x2E9 DUP2 PUSH2 0x2A7 JUMP JUMPDEST DUP2 EQ PUSH2 0x2F4 JUMPI PUSH1 0x0 DUP1 REVERT JUMPDEST POP JUMP JUMPDEST PUSH1 0x0 DUP2 CALLDATALOAD SWAP1 POP PUSH2 0x306 DUP2 PUSH2 0x2E0 JUMP JUMPDEST SWAP3 SWAP2 POP POP JUMP JUMPDEST PUSH1 0x0 PUSH1 0x20 DUP3 DUP5 SUB SLT ISZERO PUSH2 0x322 JUMPI PUSH2 0x321 PUSH2 0x2DB JUMP JUMPDEST JUMPDEST PUSH1 0x0 PUSH2 0x330 DUP5 DUP3 DUP6 ADD PUSH2 0x2F7 JUMP JUMPDEST SWAP2 POP POP SWAP3 SWAP2 POP POP JUMP JUMPDEST PUSH1 0x0 PUSH20 0xFFFFFFFFFFFFFFFFFFFFFFFFFFFFFFFFFFFFFFFF DUP3 AND SWAP1 POP SWAP2 SWAP1 POP JUMP JUMPDEST PUSH1 0x0 PUSH2 0x364 DUP3 PUSH2 0x339 JUMP JUMPDEST SWAP1 POP SWAP2 SWAP1 POP JUMP JUMPDEST PUSH2 0x374 DUP2 PUSH2 0x359 JUMP JUMPDEST DUP3 MSTORE POP POP JUMP JUMPDEST PUSH1 0x0 PUSH1 0x20 DUP3 ADD SWAP1 POP PUSH2 0x38F PUSH1 0x0 DUP4 ADD DUP5 PUSH2 0x36B JUMP JUMPDEST SWAP3 SWAP2 POP POP JUMP JUMPDEST PUSH32 0x4E487B7100000000000000000000000000000000000000000000000000000000 PUSH1 0x0 MSTORE PUSH1 0x11 PUSH1 0x4 MSTORE PUSH1 0x24 PUSH1 0x0 REVERT JUMPDEST PUSH1 0x0 PUSH2 0x3CF DUP3 PUSH2 0x2A7 JUMP JUMPDEST SWAP2 POP PUSH2 0x3DA DUP4 PUSH2 0x2A7 JUMP JUMPDEST SWAP3 POP DUP2 PUSH32 0xFFFFFFFFFFFFFFFFFFFFFFFFFFFFFFFFFFFFFFFFFFFFFFFFFFFFFFFFFFFFFFFF DIV DUP4 GT DUP3 ISZERO ISZERO AND ISZERO PUSH2 0x413 JUMPI PUSH2 0x412 PUSH2 0x395 JUMP JUMPDEST JUMPDEST DUP3 DUP3 MUL SWAP1 POP SWAP3 SWAP2 POP POP JUMP JUMPDEST PUSH32 0x4E487B7100000000000000000000000000000000000000000000000000000000 PUSH1 0x0 MSTORE PUSH1 0x12 PUSH1 0x4 MSTORE PUSH1 0x24 PUSH1 0x0 REVERT JUMPDEST PUSH1 0x0 PUSH2 0x458 DUP3 PUSH2 0x2A7 JUMP JUMPDEST SWAP2 POP PUSH2 0x463 DUP4 PUSH2 0x2A7 JUMP JUMPDEST SWAP3 POP DUP3 PUSH2 0x473 JUMPI PUSH2 0x472 PUSH2 0x41E JUMP JUMPDEST JUMPDEST DUP3 DUP3 DIV SWAP1 POP SWAP3 SWAP2 POP POP JUMP JUMPDEST PUSH1 0x0 PUSH10 0xFFFFFFFFFFFFFFFFFFFF DUP3 AND SWAP1 POP SWAP2 SWAP1 POP JUMP JUMPDEST PUSH2 0x49D DUP2 PUSH2 0x47E JUMP JUMPDEST DUP2 EQ PUSH2 0x4A8 JUMPI PUSH1 0x0 DUP1 REVERT JUMPDEST POP JUMP JUMPDEST PUSH1 0x0 DUP2 MLOAD SWAP1 POP PUSH2 0x4BA DUP2 PUSH2 0x494 JUMP JUMPDEST SWAP3 SWAP2 POP POP JUMP JUMPDEST PUSH1 0x0 DUP2 SWAP1 POP SWAP2 SWAP1 POP JUMP JUMPDEST PUSH2 0x4D3 DUP2 PUSH2 0x4C0 JUMP JUMPDEST DUP2 EQ PUSH2 0x4DE JUMPI PUSH1 0x0 DUP1 REVERT JUMPDEST POP JUMP JUMPDEST PUSH1 0x0 DUP2 MLOAD SWAP1 POP PUSH2 0x4F0 DUP2 PUSH2 0x4CA JUMP JUMPDEST SWAP3 SWAP2 POP POP JUMP JUMPDEST PUSH1 0x0 DUP2 MLOAD SWAP1 POP PUSH2 0x505 DUP2 PUSH2 0x2E0 JUMP JUMPDEST SWAP3 SWAP2 POP POP JUMP JUMPDEST PUSH1 0x0 DUP1 PUSH1 0x0 DUP1 PUSH1 0x0 PUSH1 0xA0 DUP7 DUP9 SUB SLT ISZERO PUSH2 0x527 JUMPI PUSH2 0x526 PUSH2 0x2DB JUMP JUMPDEST JUMPDEST PUSH1 0x0 PUSH2 0x535 DUP9 DUP3 DUP10 ADD PUSH2 0x4AB JUMP JUMPDEST SWAP6 POP POP PUSH1 0x20 PUSH2 0x546 DUP9 DUP3 DUP10 ADD PUSH2 0x4E1 JUMP JUMPDEST SWAP5 POP POP PUSH1 0x40 PUSH2 0x557 DUP9 DUP3 DUP10 ADD PUSH2 0x4F6 JUMP JUMPDEST SWAP4 POP POP PUSH1 0x60 PUSH2 0x568 DUP9 DUP3 DUP10 ADD PUSH2 0x4F6 JUMP JUMPDEST SWAP3 POP POP PUSH1 0x80 PUSH2 0x579 DUP9 DUP3 DUP10 ADD PUSH2 0x4AB JUMP JUMPDEST SWAP2 POP POP SWAP3 SWAP6 POP SWAP3 SWAP6 SWAP1 SWAP4 POP JUMP JUMPDEST PUSH1 0x0 PUSH2 0x591 DUP3 PUSH2 0x4C0 JUMP JUMPDEST SWAP2 POP PUSH2 0x59C DUP4 PUSH2 0x4C0 JUMP JUMPDEST SWAP3 POP DUP3 PUSH32 0x7FFFFFFFFFFFFFFFFFFFFFFFFFFFFFFFFFFFFFFFFFFFFFFFFFFFFFFFFFFFFFFF DIV DUP3 GT PUSH1 0x0 DUP5 SGT PUSH1 0x0 DUP5 SGT AND AND ISZERO PUSH2 0x5DB JUMPI PUSH2 0x5DA PUSH2 0x395 JUMP JUMPDEST JUMPDEST DUP2 PUSH32 0x8000000000000000000000000000000000000000000000000000000000000000 SDIV DUP4 SLT PUSH1 0x0 DUP5 SLT PUSH1 0x0 DUP5 SGT AND AND ISZERO PUSH2 0x618 JUMPI PUSH2 0x617 PUSH2 0x395 JUMP JUMPDEST JUMPDEST DUP3 PUSH32 0x8000000000000000000000000000000000000000000000000000000000000000 SDIV DUP3 SLT PUSH1 0x0 DUP5 SGT PUSH1 0x0 DUP5 SLT AND AND ISZERO PUSH2 0x655 JUMPI PUSH2 0x654 PUSH2 0x395 JUMP JUMPDEST JUMPDEST DUP3 PUSH32 0x7FFFFFFFFFFFFFFFFFFFFFFFFFFFFFFFFFFFFFFFFFFFFFFFFFFFFFFFFFFFFFFF SDIV DUP3 SLT PUSH1 0x0 DUP5 SLT PUSH1 0x0 DUP5 SLT AND AND ISZERO PUSH2 0x692 JUMPI PUSH2 0x691 PUSH2 0x395 JUMP JUMPDEST JUMPDEST DUP3 DUP3 MUL SWAP1 POP SWAP3 SWAP2 POP POP JUMP JUMPDEST PUSH1 0x0 DUP3 DUP3 MSTORE PUSH1 0x20 DUP3 ADD SWAP1 POP SWAP3 SWAP2 POP POP JUMP JUMPDEST PUSH32 0x4469646E27742073656E6420656E6F7567687421000000000000000000000000 PUSH1 0x0 DUP3 ADD MSTORE POP JUMP JUMPDEST PUSH1 0x0 PUSH2 0x6E4 PUSH1 0x14 DUP4 PUSH2 0x69D JUMP JUMPDEST SWAP2 POP PUSH2 0x6EF DUP3 PUSH2 0x6AE JUMP JUMPDEST PUSH1 0x20 DUP3 ADD SWAP1 POP SWAP2 SWAP1 POP JUMP JUMPDEST PUSH1 0x0 PUSH1 0x20 DUP3 ADD SWAP1 POP DUP2 DUP2 SUB PUSH1 0x0 DUP4 ADD MSTORE PUSH2 0x713 DUP2 PUSH2 0x6D7 JUMP JUMPDEST SWAP1 POP SWAP2 SWAP1 POP JUMP INVALID LOG2 PUSH5 0x6970667358 0x22 SLT KECCAK256 0xD SELFBALANCE SWAP13 PUSH15 0xE7305F19F2BEBCC220E561641E26AF PUSH24 0xA827B3B1A9556A7F53516F5564736F6C6343000808003300 "
				},
				"gasEstimates": {
					"creation": {
						"codeDepositCost": "374400",
						"executionCost": "22517",
						"totalCost": "396917"
					},
					"external": {
						"fund()": "2578",
						"funders(uint256)": "5022",
						"getConversionRate(uint256)": "infinite",
						"getPrice()": "infinite",
						"minimumUsd()": "2407"
					}
				},
				"methodIdentifiers": {
					"fund()": "b60d4288",
					"funders(uint256)": "dc0d3dff",
					"getConversionRate(uint256)": "6e5b6b28",
					"getPrice()": "98d5fdca",
					"minimumUsd()": "098de820"
				}
			},
			"storageLayout": {
				"storage": [
					{
						"astId": 51,
						"contract": "ETH-Remix/freeCodeCamp.org/Lesson 4/FundMe.sol:FundMe",
						"label": "minimumUsd",
						"offset": 0,
						"slot": "0",
						"type": "t_uint256"
					},
					{
						"astId": 54,
						"contract": "ETH-Remix/freeCodeCamp.org/Lesson 4/FundMe.sol:FundMe",
						"label": "funders",
						"offset": 0,
						"slot": "1",
						"type": "t_array(t_address)dyn_storage"
					}
				],
				"types": {
					"t_address": {
						"encoding": "inplace",
						"label": "address",
						"numberOfBytes": "20"
					},
					"t_array(t_address)dyn_storage": {
						"base": "t_address",
						"encoding": "dynamic_array",
						"label": "address[]",
						"numberOfBytes": "32"
					},
					"t_uint256": {
						"encoding": "inplace",
						"label": "uint256",
						"numberOfBytes": "32"
					}
				}
			},
			"userdoc": {
				"kind": "user",
				"methods": {},
				"version": 1
			}
		}
	}
}