{
	"ETH-Remix/memorytask.sol": {
		"MemoryAndStorage": {
			"abi": [
				{
					"inputs": [
						{
							"internalType": "uint256",
							"name": "id",
							"type": "uint256"
						},
						{
							"internalType": "uint256",
							"name": "balance",
							"type": "uint256"
						}
					],
					"name": "addUser",
					"outputs": [],
					"stateMutability": "nonpayable",
					"type": "function"
				},
				{
					"inputs": [
						{
							"internalType": "uint256",
							"name": "id",
							"type": "uint256"
						}
					],
					"name": "getBalance",
					"outputs": [
						{
							"internalType": "uint256",
							"name": "",
							"type": "uint256"
						}
					],
					"stateMutability": "view",
					"type": "function"
				},
				{
					"inputs": [
						{
							"internalType": "uint256",
							"name": "id",
							"type": "uint256"
						},
						{
							"internalType": "uint256",
							"name": "balance",
							"type": "uint256"
						}
					],
					"name": "updateBalance",
					"outputs": [],
					"stateMutability": "nonpayable",
					"type": "function"
				}
			],
			"devdoc": {
				"kind": "dev",
				"methods": {},
				"version": 1
			},
			"evm": {
				"assembly": "    /* \"ETH-Remix/memorytask.sol\":65:528  contract MemoryAndStorage {\r... */\n  mstore(0x40, 0x80)\n  callvalue\n  dup1\n  iszero\n  tag_1\n  jumpi\n  0x00\n  dup1\n  revert\ntag_1:\n  pop\n  dataSize(sub_0)\n  dup1\n  dataOffset(sub_0)\n  0x00\n  codecopy\n  0x00\n  return\nstop\n\nsub_0: assembly {\n        /* \"ETH-Remix/memorytask.sol\":65:528  contract MemoryAndStorage {\r... */\n      mstore(0x40, 0x80)\n      callvalue\n      dup1\n      iszero\n      tag_1\n      jumpi\n      0x00\n      dup1\n      revert\n    tag_1:\n      pop\n      jumpi(tag_2, lt(calldatasize, 0x04))\n      shr(0xe0, calldataload(0x00))\n      dup1\n      0x1e010439\n      eq\n      tag_3\n      jumpi\n      dup1\n      0x58453fef\n      eq\n      tag_4\n      jumpi\n      dup1\n      0xe00c04ac\n      eq\n      tag_5\n      jumpi\n    tag_2:\n      0x00\n      dup1\n      revert\n        /* \"ETH-Remix/memorytask.sol\":424:523  function getBalance(uint id) view public returns (uint) {\r... */\n    tag_3:\n      tag_6\n      0x04\n      dup1\n      calldatasize\n      sub\n      0x20\n      dup2\n      lt\n      iszero\n      tag_7\n      jumpi\n      0x00\n      dup1\n      revert\n    tag_7:\n      dup2\n      add\n      swap1\n      dup1\n      dup1\n      calldataload\n      swap1\n      0x20\n      add\n      swap1\n      swap3\n      swap2\n      swap1\n      pop\n      pop\n      pop\n      tag_8\n      jump\t// in\n    tag_6:\n      mload(0x40)\n      dup1\n      dup3\n      dup2\n      mstore\n      0x20\n      add\n      swap2\n      pop\n      pop\n      mload(0x40)\n      dup1\n      swap2\n      sub\n      swap1\n      return\n        /* \"ETH-Remix/memorytask.sol\":307:416  function updateBalance(uint id, uint balance) public {\r... */\n    tag_4:\n      tag_9\n      0x04\n      dup1\n      calldatasize\n      sub\n      0x40\n      dup2\n      lt\n      iszero\n      tag_10\n      jumpi\n      0x00\n      dup1\n      revert\n    tag_10:\n      dup2\n      add\n      swap1\n      dup1\n      dup1\n      calldataload\n      swap1\n      0x20\n      add\n      swap1\n      swap3\n      swap2\n      swap1\n      dup1\n      calldataload\n      swap1\n      0x20\n      add\n      swap1\n      swap3\n      swap2\n      swap1\n      pop\n      pop\n      pop\n      tag_11\n      jump\t// in\n    tag_9:\n      stop\n        /* \"ETH-Remix/memorytask.sol\":204:299  function addUser(uint id, uint balance) public {\r... */\n    tag_5:\n      tag_12\n      0x04\n      dup1\n      calldatasize\n      sub\n      0x40\n      dup2\n      lt\n      iszero\n      tag_13\n      jumpi\n      0x00\n      dup1\n      revert\n    tag_13:\n      dup2\n      add\n      swap1\n      dup1\n      dup1\n      calldataload\n      swap1\n      0x20\n      add\n      swap1\n      swap3\n      swap2\n      swap1\n      dup1\n      calldataload\n      swap1\n      0x20\n      add\n      swap1\n      swap3\n      swap2\n      swap1\n      pop\n      pop\n      pop\n      tag_14\n      jump\t// in\n    tag_12:\n      stop\n        /* \"ETH-Remix/memorytask.sol\":424:523  function getBalance(uint id) view public returns (uint) {\r... */\n    tag_8:\n        /* \"ETH-Remix/memorytask.sol\":474:478  uint */\n      0x00\n        /* \"ETH-Remix/memorytask.sol\":498:503  users */\n      dup1\n        /* \"ETH-Remix/memorytask.sol\":498:507  users[id] */\n      0x00\n        /* \"ETH-Remix/memorytask.sol\":504:506  id */\n      dup4\n        /* \"ETH-Remix/memorytask.sol\":498:507  users[id] */\n      dup2\n      mstore\n      0x20\n      add\n      swap1\n      dup2\n      mstore\n      0x20\n      add\n      0x00\n      keccak256\n        /* \"ETH-Remix/memorytask.sol\":498:515  users[id].balance */\n      0x01\n      add\n      sload\n        /* \"ETH-Remix/memorytask.sol\":491:515  return users[id].balance */\n      swap1\n      pop\n        /* \"ETH-Remix/memorytask.sol\":424:523  function getBalance(uint id) view public returns (uint) {\r... */\n      swap2\n      swap1\n      pop\n      jump\t// out\n        /* \"ETH-Remix/memorytask.sol\":307:416  function updateBalance(uint id, uint balance) public {\r... */\n    tag_11:\n        /* \"ETH-Remix/memorytask.sol\":401:408  balance */\n      dup1\n        /* \"ETH-Remix/memorytask.sol\":381:386  users */\n      0x00\n        /* \"ETH-Remix/memorytask.sol\":381:390  users[id] */\n      dup1\n        /* \"ETH-Remix/memorytask.sol\":387:389  id */\n      dup5\n        /* \"ETH-Remix/memorytask.sol\":381:390  users[id] */\n      dup2\n      mstore\n      0x20\n      add\n      swap1\n      dup2\n      mstore\n      0x20\n      add\n      0x00\n      keccak256\n        /* \"ETH-Remix/memorytask.sol\":381:398  users[id].balance */\n      0x01\n      add\n        /* \"ETH-Remix/memorytask.sol\":381:408  users[id].balance = balance */\n      dup2\n      swap1\n      sstore\n      pop\n        /* \"ETH-Remix/memorytask.sol\":307:416  function updateBalance(uint id, uint balance) public {\r... */\n      pop\n      pop\n      jump\t// out\n        /* \"ETH-Remix/memorytask.sol\":204:299  function addUser(uint id, uint balance) public {\r... */\n    tag_14:\n        /* \"ETH-Remix/memorytask.sol\":274:291  User(id, balance) */\n      mload(0x40)\n      dup1\n      0x40\n      add\n      0x40\n      mstore\n      dup1\n        /* \"ETH-Remix/memorytask.sol\":279:281  id */\n      dup4\n        /* \"ETH-Remix/memorytask.sol\":274:291  User(id, balance) */\n      dup2\n      mstore\n      0x20\n      add\n        /* \"ETH-Remix/memorytask.sol\":283:290  balance */\n      dup3\n        /* \"ETH-Remix/memorytask.sol\":274:291  User(id, balance) */\n      dup2\n      mstore\n      pop\n        /* \"ETH-Remix/memorytask.sol\":262:267  users */\n      0x00\n        /* \"ETH-Remix/memorytask.sol\":262:271  users[id] */\n      dup1\n        /* \"ETH-Remix/memorytask.sol\":268:270  id */\n      dup5\n        /* \"ETH-Remix/memorytask.sol\":262:271  users[id] */\n      dup2\n      mstore\n      0x20\n      add\n      swap1\n      dup2\n      mstore\n      0x20\n      add\n      0x00\n      keccak256\n        /* \"ETH-Remix/memorytask.sol\":262:291  users[id] = User(id, balance) */\n      0x00\n      dup3\n      add\n      mload\n      dup2\n      0x00\n      add\n      sstore\n      0x20\n      dup3\n      add\n      mload\n      dup2\n      0x01\n      add\n      sstore\n      swap1\n      pop\n      pop\n        /* \"ETH-Remix/memorytask.sol\":204:299  function addUser(uint id, uint balance) public {\r... */\n      pop\n      pop\n      jump\t// out\n\n    auxdata: 0xa26469706673582212208df2ff51376669c3ae3fbf9ff0284aad94888dfe46e8100b14dbe7e6ddd0540364736f6c63430007050033\n}\n",
				"bytecode": {
					"linkReferences": {},
					"object": "608060405234801561001057600080fd5b506101ad806100206000396000f3fe608060405234801561001057600080fd5b50600436106100415760003560e01c80631e0104391461004657806358453fef14610088578063e00c04ac146100c0575b600080fd5b6100726004803603602081101561005c57600080fd5b81019080803590602001909291905050506100f8565b6040518082815260200191505060405180910390f35b6100be6004803603604081101561009e57600080fd5b810190808035906020019092919080359060200190929190505050610117565b005b6100f6600480360360408110156100d657600080fd5b810190808035906020019092919080359060200190929190505050610135565b005b6000806000838152602001908152602001600020600101549050919050565b80600080848152602001908152602001600020600101819055505050565b6040518060400160405280838152602001828152506000808481526020019081526020016000206000820151816000015560208201518160010155905050505056fea26469706673582212208df2ff51376669c3ae3fbf9ff0284aad94888dfe46e8100b14dbe7e6ddd0540364736f6c63430007050033",
					"opcodes": "PUSH1 0x80 PUSH1 0x40 MSTORE CALLVALUE DUP1 ISZERO PUSH2 0x10 JUMPI PUSH1 0x0 DUP1 REVERT JUMPDEST POP PUSH2 0x1AD DUP1 PUSH2 0x20 PUSH1 0x0 CODECOPY PUSH1 0x0 RETURN INVALID PUSH1 0x80 PUSH1 0x40 MSTORE CALLVALUE DUP1 ISZERO PUSH2 0x10 JUMPI PUSH1 0x0 DUP1 REVERT JUMPDEST POP PUSH1 0x4 CALLDATASIZE LT PUSH2 0x41 JUMPI PUSH1 0x0 CALLDATALOAD PUSH1 0xE0 SHR DUP1 PUSH4 0x1E010439 EQ PUSH2 0x46 JUMPI DUP1 PUSH4 0x58453FEF EQ PUSH2 0x88 JUMPI DUP1 PUSH4 0xE00C04AC EQ PUSH2 0xC0 JUMPI JUMPDEST PUSH1 0x0 DUP1 REVERT JUMPDEST PUSH2 0x72 PUSH1 0x4 DUP1 CALLDATASIZE SUB PUSH1 0x20 DUP2 LT ISZERO PUSH2 0x5C JUMPI PUSH1 0x0 DUP1 REVERT JUMPDEST DUP2 ADD SWAP1 DUP1 DUP1 CALLDATALOAD SWAP1 PUSH1 0x20 ADD SWAP1 SWAP3 SWAP2 SWAP1 POP POP POP PUSH2 0xF8 JUMP JUMPDEST PUSH1 0x40 MLOAD DUP1 DUP3 DUP2 MSTORE PUSH1 0x20 ADD SWAP2 POP POP PUSH1 0x40 MLOAD DUP1 SWAP2 SUB SWAP1 RETURN JUMPDEST PUSH2 0xBE PUSH1 0x4 DUP1 CALLDATASIZE SUB PUSH1 0x40 DUP2 LT ISZERO PUSH2 0x9E JUMPI PUSH1 0x0 DUP1 REVERT JUMPDEST DUP2 ADD SWAP1 DUP1 DUP1 CALLDATALOAD SWAP1 PUSH1 0x20 ADD SWAP1 SWAP3 SWAP2 SWAP1 DUP1 CALLDATALOAD SWAP1 PUSH1 0x20 ADD SWAP1 SWAP3 SWAP2 SWAP1 POP POP POP PUSH2 0x117 JUMP JUMPDEST STOP JUMPDEST PUSH2 0xF6 PUSH1 0x4 DUP1 CALLDATASIZE SUB PUSH1 0x40 DUP2 LT ISZERO PUSH2 0xD6 JUMPI PUSH1 0x0 DUP1 REVERT JUMPDEST DUP2 ADD SWAP1 DUP1 DUP1 CALLDATALOAD SWAP1 PUSH1 0x20 ADD SWAP1 SWAP3 SWAP2 SWAP1 DUP1 CALLDATALOAD SWAP1 PUSH1 0x20 ADD SWAP1 SWAP3 SWAP2 SWAP1 POP POP POP PUSH2 0x135 JUMP JUMPDEST STOP JUMPDEST PUSH1 0x0 DUP1 PUSH1 0x0 DUP4 DUP2 MSTORE PUSH1 0x20 ADD SWAP1 DUP2 MSTORE PUSH1 0x20 ADD PUSH1 0x0 KECCAK256 PUSH1 0x1 ADD SLOAD SWAP1 POP SWAP2 SWAP1 POP JUMP JUMPDEST DUP1 PUSH1 0x0 DUP1 DUP5 DUP2 MSTORE PUSH1 0x20 ADD SWAP1 DUP2 MSTORE PUSH1 0x20 ADD PUSH1 0x0 KECCAK256 PUSH1 0x1 ADD DUP2 SWAP1 SSTORE POP POP POP JUMP JUMPDEST PUSH1 0x40 MLOAD DUP1 PUSH1 0x40 ADD PUSH1 0x40 MSTORE DUP1 DUP4 DUP2 MSTORE PUSH1 0x20 ADD DUP3 DUP2 MSTORE POP PUSH1 0x0 DUP1 DUP5 DUP2 MSTORE PUSH1 0x20 ADD SWAP1 DUP2 MSTORE PUSH1 0x20 ADD PUSH1 0x0 KECCAK256 PUSH1 0x0 DUP3 ADD MLOAD DUP2 PUSH1 0x0 ADD SSTORE PUSH1 0x20 DUP3 ADD MLOAD DUP2 PUSH1 0x1 ADD SSTORE SWAP1 POP POP POP POP JUMP INVALID LOG2 PUSH5 0x6970667358 0x22 SLT KECCAK256 DUP14 CALLCODE SELFDESTRUCT MLOAD CALLDATACOPY PUSH7 0x69C3AE3FBF9FF0 0x28 0x4A 0xAD SWAP5 DUP9 DUP14 INVALID CHAINID 0xE8 LT SIGNEXTEND EQ 0xDB 0xE7 0xE6 0xDD 0xD0 SLOAD SUB PUSH5 0x736F6C6343 STOP SMOD SDIV STOP CALLER "
				},
				"gasEstimates": {
					"creation": {
						"codeDepositCost": "85800",
						"executionCost": "135",
						"totalCost": "85935"
					},
					"external": {
						"addUser(uint256,uint256)": "40468",
						"getBalance(uint256)": "1162",
						"updateBalance(uint256,uint256)": "20355"
					}
				},
				"methodIdentifiers": {
					"addUser(uint256,uint256)": "e00c04ac",
					"getBalance(uint256)": "1e010439",
					"updateBalance(uint256,uint256)": "58453fef"
				}
			},
			"userdoc": {
				"kind": "user",
				"methods": {},
				"version": 1
			}
		}
	}
}