{
	"ETH-Remix/Practice/multisigexcercise.sol": {
		"Wallet": {
			"abi": [
				{
					"inputs": [
						{
							"internalType": "address[]",
							"name": "_owners",
							"type": "address[]"
						},
						{
							"internalType": "uint256",
							"name": "_limit",
							"type": "uint256"
						}
					],
					"stateMutability": "nonpayable",
					"type": "constructor"
				},
				{
					"anonymous": false,
					"inputs": [
						{
							"indexed": false,
							"internalType": "uint256",
							"name": "_id",
							"type": "uint256"
						},
						{
							"indexed": false,
							"internalType": "uint256",
							"name": "_approvals",
							"type": "uint256"
						},
						{
							"indexed": false,
							"internalType": "address",
							"name": "_approver",
							"type": "address"
						}
					],
					"name": "ApprovalReceived",
					"type": "event"
				},
				{
					"anonymous": false,
					"inputs": [
						{
							"indexed": false,
							"internalType": "uint256",
							"name": "_id",
							"type": "uint256"
						}
					],
					"name": "TransferApproved",
					"type": "event"
				},
				{
					"anonymous": false,
					"inputs": [
						{
							"indexed": false,
							"internalType": "uint256",
							"name": "_id",
							"type": "uint256"
						},
						{
							"indexed": false,
							"internalType": "uint256",
							"name": "_amount",
							"type": "uint256"
						},
						{
							"indexed": false,
							"internalType": "address",
							"name": "_initiator",
							"type": "address"
						},
						{
							"indexed": false,
							"internalType": "address",
							"name": "_receiver",
							"type": "address"
						}
					],
					"name": "TransferRequestCreated",
					"type": "event"
				},
				{
					"inputs": [
						{
							"internalType": "uint256",
							"name": "_id",
							"type": "uint256"
						}
					],
					"name": "approve",
					"outputs": [],
					"stateMutability": "nonpayable",
					"type": "function"
				},
				{
					"inputs": [
						{
							"internalType": "uint256",
							"name": "_amount",
							"type": "uint256"
						},
						{
							"internalType": "address payable",
							"name": "_receiver",
							"type": "address"
						}
					],
					"name": "createTransfer",
					"outputs": [],
					"stateMutability": "nonpayable",
					"type": "function"
				},
				{
					"inputs": [],
					"name": "deposit",
					"outputs": [],
					"stateMutability": "payable",
					"type": "function"
				},
				{
					"inputs": [],
					"name": "getTransferRequests",
					"outputs": [
						{
							"components": [
								{
									"internalType": "uint256",
									"name": "amount",
									"type": "uint256"
								},
								{
									"internalType": "address payable",
									"name": "receiver",
									"type": "address"
								},
								{
									"internalType": "uint256",
									"name": "approvals",
									"type": "uint256"
								},
								{
									"internalType": "bool",
									"name": "hasBeenSent",
									"type": "bool"
								},
								{
									"internalType": "uint256",
									"name": "id",
									"type": "uint256"
								}
							],
							"internalType": "struct Wallet.Transfer[]",
							"name": "",
							"type": "tuple[]"
						}
					],
					"stateMutability": "view",
					"type": "function"
				},
				{
					"inputs": [
						{
							"internalType": "uint256",
							"name": "",
							"type": "uint256"
						}
					],
					"name": "owners",
					"outputs": [
						{
							"internalType": "address",
							"name": "",
							"type": "address"
						}
					],
					"stateMutability": "view",
					"type": "function"
				}
			],
			"devdoc": {
				"kind": "dev",
				"methods": {},
				"version": 1
			},
			"evm": {
				"assembly": "    /* \"ETH-Remix/Practice/multisigexcercise.sol\":47:2852  contract Wallet {\r... */\n  mstore(0x40, 0x80)\n    /* \"ETH-Remix/Practice/multisigexcercise.sol\":990:1101  constructor(address[] memory _owners, uint _limit) {\r... */\n  callvalue\n  dup1\n  iszero\n  tag_1\n  jumpi\n  0x00\n  dup1\n  revert\ntag_1:\n  pop\n  mload(0x40)\n  sub(codesize, bytecodeSize)\n  dup1\n  bytecodeSize\n  dup4\n  codecopy\n  dup2\n  dup2\n  add\n  0x40\n  mstore\n  dup2\n  add\n  swap1\n  tag_2\n  swap2\n  swap1\n  tag_3\n  jump\t// in\ntag_2:\n    /* \"ETH-Remix/Practice/multisigexcercise.sol\":1061:1068  _owners */\n  dup2\n    /* \"ETH-Remix/Practice/multisigexcercise.sol\":1052:1058  owners */\n  0x00\n    /* \"ETH-Remix/Practice/multisigexcercise.sol\":1052:1068  owners = _owners */\n  swap1\n  dup1\n  mload\n  swap1\n  0x20\n  add\n  swap1\n  tag_6\n  swap3\n  swap2\n  swap1\n  tag_7\n  jump\t// in\ntag_6:\n  pop\n    /* \"ETH-Remix/Practice/multisigexcercise.sol\":1087:1093  _limit */\n  dup1\n    /* \"ETH-Remix/Practice/multisigexcercise.sol\":1079:1084  limit */\n  0x01\n    /* \"ETH-Remix/Practice/multisigexcercise.sol\":1079:1093  limit = _limit */\n  dup2\n  swap1\n  sstore\n  pop\n    /* \"ETH-Remix/Practice/multisigexcercise.sol\":990:1101  constructor(address[] memory _owners, uint _limit) {\r... */\n  pop\n  pop\n    /* \"ETH-Remix/Practice/multisigexcercise.sol\":47:2852  contract Wallet {\r... */\n  jump(tag_8)\ntag_7:\n  dup3\n  dup1\n  sload\n  dup3\n  dup3\n  sstore\n  swap1\n  0x00\n  mstore\n  keccak256(0x00, 0x20)\n  swap1\n  dup2\n  add\n  swap3\n  dup3\n  iszero\n  tag_9\n  jumpi\n  swap2\n  0x20\n  mul\n  dup3\n  add\ntag_10:\n  dup3\n  dup2\n  gt\n  iszero\n  tag_11\n  jumpi\n  dup3\n  mload\n  dup3\n  exp(0x0100, 0x00)\n  dup2\n  sload\n  dup2\n  0xffffffffffffffffffffffffffffffffffffffff\n  mul\n  not\n  and\n  swap1\n  dup4\n  0xffffffffffffffffffffffffffffffffffffffff\n  and\n  mul\n  or\n  swap1\n  sstore\n  pop\n  swap2\n  0x20\n  add\n  swap2\n  swap1\n  0x01\n  add\n  swap1\n  jump(tag_10)\ntag_11:\ntag_9:\n  pop\n  swap1\n  pop\n  tag_12\n  swap2\n  swap1\n  tag_13\n  jump\t// in\ntag_12:\n  pop\n  swap1\n  jump\t// out\ntag_13:\ntag_14:\n  dup1\n  dup3\n  gt\n  iszero\n  tag_15\n  jumpi\n  0x00\n  dup2\n  0x00\n  swap1\n  sstore\n  pop\n  0x01\n  add\n  jump(tag_14)\ntag_15:\n  pop\n  swap1\n  jump\t// out\n    /* \"#utility.yul\":7:150   */\ntag_17:\n  0x00\n    /* \"#utility.yul\":95:101   */\n  dup2\n    /* \"#utility.yul\":89:102   */\n  mload\n    /* \"#utility.yul\":80:102   */\n  swap1\n  pop\n    /* \"#utility.yul\":111:144   */\n  tag_19\n    /* \"#utility.yul\":138:143   */\n  dup2\n    /* \"#utility.yul\":111:144   */\n  tag_20\n  jump\t// in\ntag_19:\n    /* \"#utility.yul\":70:150   */\n  swap3\n  swap2\n  pop\n  pop\n  jump\t// out\n    /* \"#utility.yul\":173:949   */\ntag_21:\n  0x00\n    /* \"#utility.yul\":304:307   */\n  dup3\n    /* \"#utility.yul\":297:301   */\n  0x1f\n    /* \"#utility.yul\":289:295   */\n  dup4\n    /* \"#utility.yul\":285:302   */\n  add\n    /* \"#utility.yul\":281:308   */\n  slt\n    /* \"#utility.yul\":271:273   */\n  tag_23\n  jumpi\n    /* \"#utility.yul\":322:323   */\n  0x00\n    /* \"#utility.yul\":319:320   */\n  dup1\n    /* \"#utility.yul\":312:324   */\n  revert\n    /* \"#utility.yul\":271:273   */\ntag_23:\n    /* \"#utility.yul\":355:361   */\n  dup2\n    /* \"#utility.yul\":349:362   */\n  mload\n    /* \"#utility.yul\":380:460   */\n  tag_24\n    /* \"#utility.yul\":395:459   */\n  tag_25\n    /* \"#utility.yul\":452:458   */\n  dup3\n    /* \"#utility.yul\":395:459   */\n  tag_26\n  jump\t// in\ntag_25:\n    /* \"#utility.yul\":380:460   */\n  tag_27\n  jump\t// in\ntag_24:\n    /* \"#utility.yul\":371:460   */\n  swap2\n  pop\n    /* \"#utility.yul\":480:485   */\n  dup2\n    /* \"#utility.yul\":508:514   */\n  dup2\n    /* \"#utility.yul\":501:506   */\n  dup4\n    /* \"#utility.yul\":494:515   */\n  mstore\n    /* \"#utility.yul\":538:542   */\n  0x20\n    /* \"#utility.yul\":530:536   */\n  dup5\n    /* \"#utility.yul\":526:543   */\n  add\n    /* \"#utility.yul\":516:543   */\n  swap4\n  pop\n    /* \"#utility.yul\":560:564   */\n  0x20\n    /* \"#utility.yul\":555:558   */\n  dup2\n    /* \"#utility.yul\":551:565   */\n  add\n    /* \"#utility.yul\":544:565   */\n  swap1\n  pop\n    /* \"#utility.yul\":616:622   */\n  dup4\n    /* \"#utility.yul\":666:669   */\n  dup6\n    /* \"#utility.yul\":658:662   */\n  0x20\n    /* \"#utility.yul\":650:656   */\n  dup5\n    /* \"#utility.yul\":646:663   */\n  mul\n    /* \"#utility.yul\":641:644   */\n  dup3\n    /* \"#utility.yul\":637:664   */\n  add\n    /* \"#utility.yul\":634:670   */\n  gt\n    /* \"#utility.yul\":631:633   */\n  iszero\n  tag_28\n  jumpi\n    /* \"#utility.yul\":683:684   */\n  0x00\n    /* \"#utility.yul\":680:681   */\n  dup1\n    /* \"#utility.yul\":673:685   */\n  revert\n    /* \"#utility.yul\":631:633   */\ntag_28:\n    /* \"#utility.yul\":711:712   */\n  0x00\n    /* \"#utility.yul\":696:943   */\ntag_29:\n    /* \"#utility.yul\":721:727   */\n  dup4\n    /* \"#utility.yul\":718:719   */\n  dup2\n    /* \"#utility.yul\":715:728   */\n  lt\n    /* \"#utility.yul\":696:943   */\n  iszero\n  tag_31\n  jumpi\n    /* \"#utility.yul\":788:791   */\n  dup2\n    /* \"#utility.yul\":816:864   */\n  tag_32\n    /* \"#utility.yul\":860:863   */\n  dup9\n    /* \"#utility.yul\":848:858   */\n  dup3\n    /* \"#utility.yul\":816:864   */\n  tag_17\n  jump\t// in\ntag_32:\n    /* \"#utility.yul\":811:814   */\n  dup5\n    /* \"#utility.yul\":804:865   */\n  mstore\n    /* \"#utility.yul\":894:898   */\n  0x20\n    /* \"#utility.yul\":889:892   */\n  dup5\n    /* \"#utility.yul\":885:899   */\n  add\n    /* \"#utility.yul\":878:899   */\n  swap4\n  pop\n    /* \"#utility.yul\":928:932   */\n  0x20\n    /* \"#utility.yul\":923:926   */\n  dup4\n    /* \"#utility.yul\":919:933   */\n  add\n    /* \"#utility.yul\":912:933   */\n  swap3\n  pop\n    /* \"#utility.yul\":756:943   */\n  pop\n    /* \"#utility.yul\":743:744   */\n  0x01\n    /* \"#utility.yul\":740:741   */\n  dup2\n    /* \"#utility.yul\":736:745   */\n  add\n    /* \"#utility.yul\":731:745   */\n  swap1\n  pop\n    /* \"#utility.yul\":696:943   */\n  jump(tag_29)\ntag_31:\n    /* \"#utility.yul\":700:714   */\n  pop\n    /* \"#utility.yul\":261:949   */\n  pop\n  pop\n  pop\n  swap3\n  swap2\n  pop\n  pop\n  jump\t// out\n    /* \"#utility.yul\":955:1098   */\ntag_33:\n  0x00\n    /* \"#utility.yul\":1043:1049   */\n  dup2\n    /* \"#utility.yul\":1037:1050   */\n  mload\n    /* \"#utility.yul\":1028:1050   */\n  swap1\n  pop\n    /* \"#utility.yul\":1059:1092   */\n  tag_35\n    /* \"#utility.yul\":1086:1091   */\n  dup2\n    /* \"#utility.yul\":1059:1092   */\n  tag_36\n  jump\t// in\ntag_35:\n    /* \"#utility.yul\":1018:1098   */\n  swap3\n  swap2\n  pop\n  pop\n  jump\t// out\n    /* \"#utility.yul\":1104:1676   */\ntag_3:\n  0x00\n  dup1\n    /* \"#utility.yul\":1265:1267   */\n  0x40\n    /* \"#utility.yul\":1253:1262   */\n  dup4\n    /* \"#utility.yul\":1244:1251   */\n  dup6\n    /* \"#utility.yul\":1240:1263   */\n  sub\n    /* \"#utility.yul\":1236:1268   */\n  slt\n    /* \"#utility.yul\":1233:1235   */\n  iszero\n  tag_38\n  jumpi\n    /* \"#utility.yul\":1281:1282   */\n  0x00\n    /* \"#utility.yul\":1278:1279   */\n  dup1\n    /* \"#utility.yul\":1271:1283   */\n  revert\n    /* \"#utility.yul\":1233:1235   */\ntag_38:\n    /* \"#utility.yul\":1344:1345   */\n  0x00\n    /* \"#utility.yul\":1333:1342   */\n  dup4\n    /* \"#utility.yul\":1329:1346   */\n  add\n    /* \"#utility.yul\":1323:1347   */\n  mload\n    /* \"#utility.yul\":1374:1392   */\n  0xffffffffffffffff\n    /* \"#utility.yul\":1366:1372   */\n  dup2\n    /* \"#utility.yul\":1363:1393   */\n  gt\n    /* \"#utility.yul\":1360:1362   */\n  iszero\n  tag_39\n  jumpi\n    /* \"#utility.yul\":1406:1407   */\n  0x00\n    /* \"#utility.yul\":1403:1404   */\n  dup1\n    /* \"#utility.yul\":1396:1408   */\n  revert\n    /* \"#utility.yul\":1360:1362   */\ntag_39:\n    /* \"#utility.yul\":1433:1522   */\n  tag_40\n    /* \"#utility.yul\":1514:1521   */\n  dup6\n    /* \"#utility.yul\":1505:1511   */\n  dup3\n    /* \"#utility.yul\":1494:1503   */\n  dup7\n    /* \"#utility.yul\":1490:1512   */\n  add\n    /* \"#utility.yul\":1433:1522   */\n  tag_21\n  jump\t// in\ntag_40:\n    /* \"#utility.yul\":1423:1522   */\n  swap3\n  pop\n    /* \"#utility.yul\":1295:1532   */\n  pop\n    /* \"#utility.yul\":1570:1572   */\n  0x20\n    /* \"#utility.yul\":1595:1659   */\n  tag_41\n    /* \"#utility.yul\":1651:1658   */\n  dup6\n    /* \"#utility.yul\":1642:1648   */\n  dup3\n    /* \"#utility.yul\":1631:1640   */\n  dup7\n    /* \"#utility.yul\":1627:1649   */\n  add\n    /* \"#utility.yul\":1595:1659   */\n  tag_33\n  jump\t// in\ntag_41:\n    /* \"#utility.yul\":1585:1659   */\n  swap2\n  pop\n    /* \"#utility.yul\":1542:1669   */\n  pop\n    /* \"#utility.yul\":1223:1676   */\n  swap3\n  pop\n  swap3\n  swap1\n  pop\n  jump\t// out\n    /* \"#utility.yul\":1682:1960   */\ntag_27:\n  0x00\n    /* \"#utility.yul\":1748:1750   */\n  0x40\n    /* \"#utility.yul\":1742:1751   */\n  mload\n    /* \"#utility.yul\":1732:1751   */\n  swap1\n  pop\n    /* \"#utility.yul\":1790:1794   */\n  dup2\n    /* \"#utility.yul\":1782:1788   */\n  dup2\n    /* \"#utility.yul\":1778:1795   */\n  add\n    /* \"#utility.yul\":1897:1903   */\n  dup2\n    /* \"#utility.yul\":1885:1895   */\n  dup2\n    /* \"#utility.yul\":1882:1904   */\n  lt\n    /* \"#utility.yul\":1861:1879   */\n  0xffffffffffffffff\n    /* \"#utility.yul\":1849:1859   */\n  dup3\n    /* \"#utility.yul\":1846:1880   */\n  gt\n    /* \"#utility.yul\":1843:1905   */\n  or\n    /* \"#utility.yul\":1840:1842   */\n  iszero\n  tag_43\n  jumpi\n    /* \"#utility.yul\":1908:1921   */\n  tag_44\n  tag_45\n  jump\t// in\ntag_44:\n    /* \"#utility.yul\":1840:1842   */\ntag_43:\n    /* \"#utility.yul\":1943:1953   */\n  dup1\n    /* \"#utility.yul\":1939:1941   */\n  0x40\n    /* \"#utility.yul\":1932:1954   */\n  mstore\n    /* \"#utility.yul\":1722:1960   */\n  pop\n  swap2\n  swap1\n  pop\n  jump\t// out\n    /* \"#utility.yul\":1966:2272   */\ntag_26:\n  0x00\n    /* \"#utility.yul\":2133:2151   */\n  0xffffffffffffffff\n    /* \"#utility.yul\":2125:2131   */\n  dup3\n    /* \"#utility.yul\":2122:2152   */\n  gt\n    /* \"#utility.yul\":2119:2121   */\n  iszero\n  tag_47\n  jumpi\n    /* \"#utility.yul\":2155:2168   */\n  tag_48\n  tag_45\n  jump\t// in\ntag_48:\n    /* \"#utility.yul\":2119:2121   */\ntag_47:\n    /* \"#utility.yul\":2200:2204   */\n  0x20\n    /* \"#utility.yul\":2192:2198   */\n  dup3\n    /* \"#utility.yul\":2188:2205   */\n  mul\n    /* \"#utility.yul\":2180:2205   */\n  swap1\n  pop\n    /* \"#utility.yul\":2260:2264   */\n  0x20\n    /* \"#utility.yul\":2254:2258   */\n  dup2\n    /* \"#utility.yul\":2250:2265   */\n  add\n    /* \"#utility.yul\":2242:2265   */\n  swap1\n  pop\n    /* \"#utility.yul\":2048:2272   */\n  swap2\n  swap1\n  pop\n  jump\t// out\n    /* \"#utility.yul\":2278:2374   */\ntag_49:\n  0x00\n    /* \"#utility.yul\":2344:2368   */\n  tag_51\n    /* \"#utility.yul\":2362:2367   */\n  dup3\n    /* \"#utility.yul\":2344:2368   */\n  tag_52\n  jump\t// in\ntag_51:\n    /* \"#utility.yul\":2333:2368   */\n  swap1\n  pop\n    /* \"#utility.yul\":2323:2374   */\n  swap2\n  swap1\n  pop\n  jump\t// out\n    /* \"#utility.yul\":2380:2506   */\ntag_52:\n  0x00\n    /* \"#utility.yul\":2457:2499   */\n  0xffffffffffffffffffffffffffffffffffffffff\n    /* \"#utility.yul\":2450:2455   */\n  dup3\n    /* \"#utility.yul\":2446:2500   */\n  and\n    /* \"#utility.yul\":2435:2500   */\n  swap1\n  pop\n    /* \"#utility.yul\":2425:2506   */\n  swap2\n  swap1\n  pop\n  jump\t// out\n    /* \"#utility.yul\":2512:2589   */\ntag_54:\n  0x00\n    /* \"#utility.yul\":2578:2583   */\n  dup2\n    /* \"#utility.yul\":2567:2583   */\n  swap1\n  pop\n    /* \"#utility.yul\":2557:2589   */\n  swap2\n  swap1\n  pop\n  jump\t// out\n    /* \"#utility.yul\":2595:2643   */\ntag_45:\n    /* \"#utility.yul\":2628:2637   */\n  invalid\n    /* \"#utility.yul\":2649:2771   */\ntag_20:\n    /* \"#utility.yul\":2722:2746   */\n  tag_58\n    /* \"#utility.yul\":2740:2745   */\n  dup2\n    /* \"#utility.yul\":2722:2746   */\n  tag_49\n  jump\t// in\ntag_58:\n    /* \"#utility.yul\":2715:2720   */\n  dup2\n    /* \"#utility.yul\":2712:2747   */\n  eq\n    /* \"#utility.yul\":2702:2704   */\n  tag_59\n  jumpi\n    /* \"#utility.yul\":2761:2762   */\n  0x00\n    /* \"#utility.yul\":2758:2759   */\n  dup1\n    /* \"#utility.yul\":2751:2763   */\n  revert\n    /* \"#utility.yul\":2702:2704   */\ntag_59:\n    /* \"#utility.yul\":2692:2771   */\n  pop\n  jump\t// out\n    /* \"#utility.yul\":2777:2899   */\ntag_36:\n    /* \"#utility.yul\":2850:2874   */\n  tag_61\n    /* \"#utility.yul\":2868:2873   */\n  dup2\n    /* \"#utility.yul\":2850:2874   */\n  tag_54\n  jump\t// in\ntag_61:\n    /* \"#utility.yul\":2843:2848   */\n  dup2\n    /* \"#utility.yul\":2840:2875   */\n  eq\n    /* \"#utility.yul\":2830:2832   */\n  tag_62\n  jumpi\n    /* \"#utility.yul\":2889:2890   */\n  0x00\n    /* \"#utility.yul\":2886:2887   */\n  dup1\n    /* \"#utility.yul\":2879:2891   */\n  revert\n    /* \"#utility.yul\":2830:2832   */\ntag_62:\n    /* \"#utility.yul\":2820:2899   */\n  pop\n  jump\t// out\n    /* \"ETH-Remix/Practice/multisigexcercise.sol\":47:2852  contract Wallet {\r... */\ntag_8:\n  dataSize(sub_0)\n  dup1\n  dataOffset(sub_0)\n  0x00\n  codecopy\n  0x00\n  return\nstop\n\nsub_0: assembly {\n        /* \"ETH-Remix/Practice/multisigexcercise.sol\":47:2852  contract Wallet {\r... */\n      mstore(0x40, 0x80)\n      jumpi(tag_1, lt(calldatasize, 0x04))\n      shr(0xe0, calldataload(0x00))\n      dup1\n      0x025e7c27\n      eq\n      tag_2\n      jumpi\n      dup1\n      0x4c12fa47\n      eq\n      tag_3\n      jumpi\n      dup1\n      0xa04ef145\n      eq\n      tag_4\n      jumpi\n      dup1\n      0xb759f954\n      eq\n      tag_5\n      jumpi\n      dup1\n      0xd0e30db0\n      eq\n      tag_6\n      jumpi\n    tag_1:\n      0x00\n      dup1\n      revert\n        /* \"ETH-Remix/Practice/multisigexcercise.sol\":70:93  address[] public owners */\n    tag_2:\n      callvalue\n      dup1\n      iszero\n      tag_7\n      jumpi\n      0x00\n      dup1\n      revert\n    tag_7:\n      pop\n      tag_8\n      0x04\n      dup1\n      calldatasize\n      sub\n      dup2\n      add\n      swap1\n      tag_9\n      swap2\n      swap1\n      tag_10\n      jump\t// in\n    tag_9:\n      tag_11\n      jump\t// in\n    tag_8:\n      mload(0x40)\n      tag_12\n      swap2\n      swap1\n      tag_13\n      jump\t// in\n    tag_12:\n      mload(0x40)\n      dup1\n      swap2\n      sub\n      swap1\n      return\n        /* \"ETH-Remix/Practice/multisigexcercise.sol\":1273:1590  function createTransfer(uint _amount, address payable _receiver) public onlyOwners {\r... */\n    tag_3:\n      callvalue\n      dup1\n      iszero\n      tag_14\n      jumpi\n      0x00\n      dup1\n      revert\n    tag_14:\n      pop\n      tag_15\n      0x04\n      dup1\n      calldatasize\n      sub\n      dup2\n      add\n      swap1\n      tag_16\n      swap2\n      swap1\n      tag_17\n      jump\t// in\n    tag_16:\n      tag_18\n      jump\t// in\n    tag_15:\n      stop\n        /* \"ETH-Remix/Practice/multisigexcercise.sol\":2725:2837  function getTransferRequests() public view returns (Transfer[] memory){\r... */\n    tag_4:\n      callvalue\n      dup1\n      iszero\n      tag_19\n      jumpi\n      0x00\n      dup1\n      revert\n    tag_19:\n      pop\n      tag_20\n      tag_21\n      jump\t// in\n    tag_20:\n      mload(0x40)\n      tag_22\n      swap2\n      swap1\n      tag_23\n      jump\t// in\n    tag_22:\n      mload(0x40)\n      dup1\n      swap2\n      sub\n      swap1\n      return\n        /* \"ETH-Remix/Practice/multisigexcercise.sol\":2054:2670  function approve(uint _id) public onlyOwners {\r... */\n    tag_5:\n      callvalue\n      dup1\n      iszero\n      tag_24\n      jumpi\n      0x00\n      dup1\n      revert\n    tag_24:\n      pop\n      tag_25\n      0x04\n      dup1\n      calldatasize\n      sub\n      dup2\n      add\n      swap1\n      tag_26\n      swap2\n      swap1\n      tag_10\n      jump\t// in\n    tag_26:\n      tag_27\n      jump\t// in\n    tag_25:\n      stop\n        /* \"ETH-Remix/Practice/multisigexcercise.sol\":1135:1171  function deposit() public payable {} */\n    tag_6:\n      tag_28\n      tag_29\n      jump\t// in\n    tag_28:\n      stop\n        /* \"ETH-Remix/Practice/multisigexcercise.sol\":70:93  address[] public owners */\n    tag_11:\n      0x00\n      dup2\n      dup2\n      sload\n      dup2\n      lt\n      tag_30\n      jumpi\n      0x00\n      dup1\n      revert\n    tag_30:\n      swap1\n      0x00\n      mstore\n      keccak256(0x00, 0x20)\n      add\n      0x00\n      swap2\n      pop\n      sload\n      swap1\n      0x0100\n      exp\n      swap1\n      div\n      0xffffffffffffffffffffffffffffffffffffffff\n      and\n      dup2\n      jump\t// out\n        /* \"ETH-Remix/Practice/multisigexcercise.sol\":1273:1590  function createTransfer(uint _amount, address payable _receiver) public onlyOwners {\r... */\n    tag_18:\n        /* \"ETH-Remix/Practice/multisigexcercise.sol\":713:723  bool owner */\n      0x00\n        /* \"ETH-Remix/Practice/multisigexcercise.sol\":746:752  uint i */\n      dup1\n        /* \"ETH-Remix/Practice/multisigexcercise.sol\":742:876  for(uint i=0; i<owners.length;i++){\r... */\n    tag_33:\n        /* \"ETH-Remix/Practice/multisigexcercise.sol\":758:764  owners */\n      0x00\n        /* \"ETH-Remix/Practice/multisigexcercise.sol\":758:771  owners.length */\n      dup1\n      sload\n      swap1\n      pop\n        /* \"ETH-Remix/Practice/multisigexcercise.sol\":756:757  i */\n      dup2\n        /* \"ETH-Remix/Practice/multisigexcercise.sol\":756:771  i<owners.length */\n      lt\n        /* \"ETH-Remix/Practice/multisigexcercise.sol\":742:876  for(uint i=0; i<owners.length;i++){\r... */\n      iszero\n      tag_34\n      jumpi\n        /* \"ETH-Remix/Practice/multisigexcercise.sol\":807:817  msg.sender */\n      caller\n        /* \"ETH-Remix/Practice/multisigexcercise.sol\":794:817  owners[i] == msg.sender */\n      0xffffffffffffffffffffffffffffffffffffffff\n      and\n        /* \"ETH-Remix/Practice/multisigexcercise.sol\":794:800  owners */\n      0x00\n        /* \"ETH-Remix/Practice/multisigexcercise.sol\":801:802  i */\n      dup3\n        /* \"ETH-Remix/Practice/multisigexcercise.sol\":794:803  owners[i] */\n      dup2\n      sload\n      dup2\n      lt\n      tag_36\n      jumpi\n      invalid\n    tag_36:\n      swap1\n      0x00\n      mstore\n      keccak256(0x00, 0x20)\n      add\n      0x00\n      swap1\n      sload\n      swap1\n      0x0100\n      exp\n      swap1\n      div\n      0xffffffffffffffffffffffffffffffffffffffff\n      and\n        /* \"ETH-Remix/Practice/multisigexcercise.sol\":794:817  owners[i] == msg.sender */\n      0xffffffffffffffffffffffffffffffffffffffff\n      and\n      eq\n        /* \"ETH-Remix/Practice/multisigexcercise.sol\":791:865  if(owners[i] == msg.sender){\r... */\n      iszero\n      tag_38\n      jumpi\n        /* \"ETH-Remix/Practice/multisigexcercise.sol\":845:849  true */\n      0x01\n        /* \"ETH-Remix/Practice/multisigexcercise.sol\":837:849  owner = true */\n      swap2\n      pop\n        /* \"ETH-Remix/Practice/multisigexcercise.sol\":791:865  if(owners[i] == msg.sender){\r... */\n    tag_38:\n        /* \"ETH-Remix/Practice/multisigexcercise.sol\":772:775  i++ */\n      dup1\n      dup1\n      0x01\n      add\n      swap2\n      pop\n      pop\n        /* \"ETH-Remix/Practice/multisigexcercise.sol\":742:876  for(uint i=0; i<owners.length;i++){\r... */\n      jump(tag_33)\n    tag_34:\n      pop\n        /* \"ETH-Remix/Practice/multisigexcercise.sol\":903:907  true */\n      0x01\n        /* \"ETH-Remix/Practice/multisigexcercise.sol\":894:907  owner == true */\n      iszero\n      iszero\n        /* \"ETH-Remix/Practice/multisigexcercise.sol\":894:899  owner */\n      dup2\n        /* \"ETH-Remix/Practice/multisigexcercise.sol\":894:907  owner == true */\n      iszero\n      iszero\n      eq\n        /* \"ETH-Remix/Practice/multisigexcercise.sol\":886:908  require(owner == true) */\n      tag_39\n      jumpi\n      0x00\n      dup1\n      revert\n    tag_39:\n        /* \"ETH-Remix/Practice/multisigexcercise.sol\":1372:1451  TransferRequestCreated(transferRequests.length, _amount, msg.sender, _receiver) */\n      0x099c4ec4ecfc26f7c8b27aeee5443f92120fa2c4e91ba6020369ae71a4d44278\n        /* \"ETH-Remix/Practice/multisigexcercise.sol\":1395:1411  transferRequests */\n      0x02\n        /* \"ETH-Remix/Practice/multisigexcercise.sol\":1395:1418  transferRequests.length */\n      dup1\n      sload\n      swap1\n      pop\n        /* \"ETH-Remix/Practice/multisigexcercise.sol\":1420:1427  _amount */\n      dup5\n        /* \"ETH-Remix/Practice/multisigexcercise.sol\":1429:1439  msg.sender */\n      caller\n        /* \"ETH-Remix/Practice/multisigexcercise.sol\":1441:1450  _receiver */\n      dup6\n        /* \"ETH-Remix/Practice/multisigexcercise.sol\":1372:1451  TransferRequestCreated(transferRequests.length, _amount, msg.sender, _receiver) */\n      mload(0x40)\n      tag_41\n      swap5\n      swap4\n      swap3\n      swap2\n      swap1\n      tag_42\n      jump\t// in\n    tag_41:\n      mload(0x40)\n      dup1\n      swap2\n      sub\n      swap1\n      log1\n        /* \"ETH-Remix/Practice/multisigexcercise.sol\":1462:1478  transferRequests */\n      0x02\n        /* \"ETH-Remix/Practice/multisigexcercise.sol\":1498:1561  Transfer(_amount, _receiver, 0, false, transferRequests.length) */\n      mload(0x40)\n      dup1\n      0xa0\n      add\n      0x40\n      mstore\n      dup1\n        /* \"ETH-Remix/Practice/multisigexcercise.sol\":1507:1514  _amount */\n      dup6\n        /* \"ETH-Remix/Practice/multisigexcercise.sol\":1498:1561  Transfer(_amount, _receiver, 0, false, transferRequests.length) */\n      dup2\n      mstore\n      0x20\n      add\n        /* \"ETH-Remix/Practice/multisigexcercise.sol\":1516:1525  _receiver */\n      dup5\n        /* \"ETH-Remix/Practice/multisigexcercise.sol\":1498:1561  Transfer(_amount, _receiver, 0, false, transferRequests.length) */\n      0xffffffffffffffffffffffffffffffffffffffff\n      and\n      dup2\n      mstore\n      0x20\n      add\n        /* \"ETH-Remix/Practice/multisigexcercise.sol\":1527:1528  0 */\n      0x00\n        /* \"ETH-Remix/Practice/multisigexcercise.sol\":1498:1561  Transfer(_amount, _receiver, 0, false, transferRequests.length) */\n      dup2\n      mstore\n      0x20\n      add\n        /* \"ETH-Remix/Practice/multisigexcercise.sol\":1530:1535  false */\n      0x00\n        /* \"ETH-Remix/Practice/multisigexcercise.sol\":1498:1561  Transfer(_amount, _receiver, 0, false, transferRequests.length) */\n      iszero\n      iszero\n      dup2\n      mstore\n      0x20\n      add\n        /* \"ETH-Remix/Practice/multisigexcercise.sol\":1537:1553  transferRequests */\n      0x02\n        /* \"ETH-Remix/Practice/multisigexcercise.sol\":1537:1560  transferRequests.length */\n      dup1\n      sload\n      swap1\n      pop\n        /* \"ETH-Remix/Practice/multisigexcercise.sol\":1498:1561  Transfer(_amount, _receiver, 0, false, transferRequests.length) */\n      dup2\n      mstore\n      pop\n        /* \"ETH-Remix/Practice/multisigexcercise.sol\":1462:1572  transferRequests.push(\r... */\n      swap1\n      dup1\n      0x01\n      dup2\n      sload\n      add\n      dup1\n      dup3\n      sstore\n      dup1\n      swap2\n      pop\n      pop\n      0x01\n      swap1\n      sub\n      swap1\n      0x00\n      mstore\n      keccak256(0x00, 0x20)\n      swap1\n      0x05\n      mul\n      add\n      0x00\n      swap1\n      swap2\n      swap1\n      swap2\n      swap1\n      swap2\n      pop\n      0x00\n      dup3\n      add\n      mload\n      dup2\n      0x00\n      add\n      sstore\n      0x20\n      dup3\n      add\n      mload\n      dup2\n      0x01\n      add\n      exp(0x0100, 0x00)\n      dup2\n      sload\n      dup2\n      0xffffffffffffffffffffffffffffffffffffffff\n      mul\n      not\n      and\n      swap1\n      dup4\n      0xffffffffffffffffffffffffffffffffffffffff\n      and\n      mul\n      or\n      swap1\n      sstore\n      pop\n      0x40\n      dup3\n      add\n      mload\n      dup2\n      0x02\n      add\n      sstore\n      0x60\n      dup3\n      add\n      mload\n      dup2\n      0x03\n      add\n      exp(0x0100, 0x00)\n      dup2\n      sload\n      dup2\n      0xff\n      mul\n      not\n      and\n      swap1\n      dup4\n      iszero\n      iszero\n      mul\n      or\n      swap1\n      sstore\n      pop\n      0x80\n      dup3\n      add\n      mload\n      dup2\n      0x04\n      add\n      sstore\n      pop\n      pop\n        /* \"ETH-Remix/Practice/multisigexcercise.sol\":1273:1590  function createTransfer(uint _amount, address payable _receiver) public onlyOwners {\r... */\n      pop\n      pop\n      pop\n      jump\t// out\n        /* \"ETH-Remix/Practice/multisigexcercise.sol\":2725:2837  function getTransferRequests() public view returns (Transfer[] memory){\r... */\n    tag_21:\n        /* \"ETH-Remix/Practice/multisigexcercise.sol\":2777:2794  Transfer[] memory */\n      0x60\n        /* \"ETH-Remix/Practice/multisigexcercise.sol\":2813:2829  transferRequests */\n      0x02\n        /* \"ETH-Remix/Practice/multisigexcercise.sol\":2806:2829  return transferRequests */\n      dup1\n      sload\n      dup1\n      0x20\n      mul\n      0x20\n      add\n      mload(0x40)\n      swap1\n      dup2\n      add\n      0x40\n      mstore\n      dup1\n      swap3\n      swap2\n      swap1\n      dup2\n      dup2\n      mstore\n      0x20\n      add\n      0x00\n      swap1\n    tag_45:\n      dup3\n      dup3\n      lt\n      iszero\n      tag_46\n      jumpi\n      dup4\n      dup3\n      swap1\n      0x00\n      mstore\n      keccak256(0x00, 0x20)\n      swap1\n      0x05\n      mul\n      add\n      mload(0x40)\n      dup1\n      0xa0\n      add\n      0x40\n      mstore\n      swap1\n      dup2\n      0x00\n      dup3\n      add\n      sload\n      dup2\n      mstore\n      0x20\n      add\n      0x01\n      dup3\n      add\n      0x00\n      swap1\n      sload\n      swap1\n      0x0100\n      exp\n      swap1\n      div\n      0xffffffffffffffffffffffffffffffffffffffff\n      and\n      0xffffffffffffffffffffffffffffffffffffffff\n      and\n      0xffffffffffffffffffffffffffffffffffffffff\n      and\n      dup2\n      mstore\n      0x20\n      add\n      0x02\n      dup3\n      add\n      sload\n      dup2\n      mstore\n      0x20\n      add\n      0x03\n      dup3\n      add\n      0x00\n      swap1\n      sload\n      swap1\n      0x0100\n      exp\n      swap1\n      div\n      0xff\n      and\n      iszero\n      iszero\n      iszero\n      iszero\n      dup2\n      mstore\n      0x20\n      add\n      0x04\n      dup3\n      add\n      sload\n      dup2\n      mstore\n      pop\n      pop\n      dup2\n      mstore\n      0x20\n      add\n      swap1\n      0x01\n      add\n      swap1\n      jump(tag_45)\n    tag_46:\n      pop\n      pop\n      pop\n      pop\n      swap1\n      pop\n        /* \"ETH-Remix/Practice/multisigexcercise.sol\":2725:2837  function getTransferRequests() public view returns (Transfer[] memory){\r... */\n      swap1\n      jump\t// out\n        /* \"ETH-Remix/Practice/multisigexcercise.sol\":2054:2670  function approve(uint _id) public onlyOwners {\r... */\n    tag_27:\n        /* \"ETH-Remix/Practice/multisigexcercise.sol\":713:723  bool owner */\n      0x00\n        /* \"ETH-Remix/Practice/multisigexcercise.sol\":746:752  uint i */\n      dup1\n        /* \"ETH-Remix/Practice/multisigexcercise.sol\":742:876  for(uint i=0; i<owners.length;i++){\r... */\n    tag_49:\n        /* \"ETH-Remix/Practice/multisigexcercise.sol\":758:764  owners */\n      0x00\n        /* \"ETH-Remix/Practice/multisigexcercise.sol\":758:771  owners.length */\n      dup1\n      sload\n      swap1\n      pop\n        /* \"ETH-Remix/Practice/multisigexcercise.sol\":756:757  i */\n      dup2\n        /* \"ETH-Remix/Practice/multisigexcercise.sol\":756:771  i<owners.length */\n      lt\n        /* \"ETH-Remix/Practice/multisigexcercise.sol\":742:876  for(uint i=0; i<owners.length;i++){\r... */\n      iszero\n      tag_50\n      jumpi\n        /* \"ETH-Remix/Practice/multisigexcercise.sol\":807:817  msg.sender */\n      caller\n        /* \"ETH-Remix/Practice/multisigexcercise.sol\":794:817  owners[i] == msg.sender */\n      0xffffffffffffffffffffffffffffffffffffffff\n      and\n        /* \"ETH-Remix/Practice/multisigexcercise.sol\":794:800  owners */\n      0x00\n        /* \"ETH-Remix/Practice/multisigexcercise.sol\":801:802  i */\n      dup3\n        /* \"ETH-Remix/Practice/multisigexcercise.sol\":794:803  owners[i] */\n      dup2\n      sload\n      dup2\n      lt\n      tag_52\n      jumpi\n      invalid\n    tag_52:\n      swap1\n      0x00\n      mstore\n      keccak256(0x00, 0x20)\n      add\n      0x00\n      swap1\n      sload\n      swap1\n      0x0100\n      exp\n      swap1\n      div\n      0xffffffffffffffffffffffffffffffffffffffff\n      and\n        /* \"ETH-Remix/Practice/multisigexcercise.sol\":794:817  owners[i] == msg.sender */\n      0xffffffffffffffffffffffffffffffffffffffff\n      and\n      eq\n        /* \"ETH-Remix/Practice/multisigexcercise.sol\":791:865  if(owners[i] == msg.sender){\r... */\n      iszero\n      tag_54\n      jumpi\n        /* \"ETH-Remix/Practice/multisigexcercise.sol\":845:849  true */\n      0x01\n        /* \"ETH-Remix/Practice/multisigexcercise.sol\":837:849  owner = true */\n      swap2\n      pop\n        /* \"ETH-Remix/Practice/multisigexcercise.sol\":791:865  if(owners[i] == msg.sender){\r... */\n    tag_54:\n        /* \"ETH-Remix/Practice/multisigexcercise.sol\":772:775  i++ */\n      dup1\n      dup1\n      0x01\n      add\n      swap2\n      pop\n      pop\n        /* \"ETH-Remix/Practice/multisigexcercise.sol\":742:876  for(uint i=0; i<owners.length;i++){\r... */\n      jump(tag_49)\n    tag_50:\n      pop\n        /* \"ETH-Remix/Practice/multisigexcercise.sol\":903:907  true */\n      0x01\n        /* \"ETH-Remix/Practice/multisigexcercise.sol\":894:907  owner == true */\n      iszero\n      iszero\n        /* \"ETH-Remix/Practice/multisigexcercise.sol\":894:899  owner */\n      dup2\n        /* \"ETH-Remix/Practice/multisigexcercise.sol\":894:907  owner == true */\n      iszero\n      iszero\n      eq\n        /* \"ETH-Remix/Practice/multisigexcercise.sol\":886:908  require(owner == true) */\n      tag_55\n      jumpi\n      0x00\n      dup1\n      revert\n    tag_55:\n        /* \"ETH-Remix/Practice/multisigexcercise.sol\":2148:2153  false */\n      0x00\n        /* \"ETH-Remix/Practice/multisigexcercise.sol\":2118:2153  approvals[msg.sender][_id] == false */\n      iszero\n      iszero\n        /* \"ETH-Remix/Practice/multisigexcercise.sol\":2118:2127  approvals */\n      0x03\n        /* \"ETH-Remix/Practice/multisigexcercise.sol\":2118:2139  approvals[msg.sender] */\n      0x00\n        /* \"ETH-Remix/Practice/multisigexcercise.sol\":2128:2138  msg.sender */\n      caller\n        /* \"ETH-Remix/Practice/multisigexcercise.sol\":2118:2139  approvals[msg.sender] */\n      0xffffffffffffffffffffffffffffffffffffffff\n      and\n      0xffffffffffffffffffffffffffffffffffffffff\n      and\n      dup2\n      mstore\n      0x20\n      add\n      swap1\n      dup2\n      mstore\n      0x20\n      add\n      0x00\n      keccak256\n        /* \"ETH-Remix/Practice/multisigexcercise.sol\":2118:2144  approvals[msg.sender][_id] */\n      0x00\n        /* \"ETH-Remix/Practice/multisigexcercise.sol\":2140:2143  _id */\n      dup5\n        /* \"ETH-Remix/Practice/multisigexcercise.sol\":2118:2144  approvals[msg.sender][_id] */\n      dup2\n      mstore\n      0x20\n      add\n      swap1\n      dup2\n      mstore\n      0x20\n      add\n      0x00\n      keccak256\n      0x00\n      swap1\n      sload\n      swap1\n      0x0100\n      exp\n      swap1\n      div\n      0xff\n      and\n        /* \"ETH-Remix/Practice/multisigexcercise.sol\":2118:2153  approvals[msg.sender][_id] == false */\n      iszero\n      iszero\n      eq\n        /* \"ETH-Remix/Practice/multisigexcercise.sol\":2110:2154  require(approvals[msg.sender][_id] == false) */\n      tag_57\n      jumpi\n      0x00\n      dup1\n      revert\n    tag_57:\n        /* \"ETH-Remix/Practice/multisigexcercise.sol\":2210:2215  false */\n      0x00\n        /* \"ETH-Remix/Practice/multisigexcercise.sol\":2173:2215  transferRequests[_id].hasBeenSent == false */\n      iszero\n      iszero\n        /* \"ETH-Remix/Practice/multisigexcercise.sol\":2173:2189  transferRequests */\n      0x02\n        /* \"ETH-Remix/Practice/multisigexcercise.sol\":2190:2193  _id */\n      dup4\n        /* \"ETH-Remix/Practice/multisigexcercise.sol\":2173:2194  transferRequests[_id] */\n      dup2\n      sload\n      dup2\n      lt\n      tag_58\n      jumpi\n      invalid\n    tag_58:\n      swap1\n      0x00\n      mstore\n      keccak256(0x00, 0x20)\n      swap1\n      0x05\n      mul\n      add\n        /* \"ETH-Remix/Practice/multisigexcercise.sol\":2173:2206  transferRequests[_id].hasBeenSent */\n      0x03\n      add\n      0x00\n      swap1\n      sload\n      swap1\n      0x0100\n      exp\n      swap1\n      div\n      0xff\n      and\n        /* \"ETH-Remix/Practice/multisigexcercise.sol\":2173:2215  transferRequests[_id].hasBeenSent == false */\n      iszero\n      iszero\n      eq\n        /* \"ETH-Remix/Practice/multisigexcercise.sol\":2165:2216  require(transferRequests[_id].hasBeenSent == false) */\n      tag_60\n      jumpi\n      0x00\n      dup1\n      revert\n    tag_60:\n        /* \"ETH-Remix/Practice/multisigexcercise.sol\":2266:2270  true */\n      0x01\n        /* \"ETH-Remix/Practice/multisigexcercise.sol\":2237:2246  approvals */\n      0x03\n        /* \"ETH-Remix/Practice/multisigexcercise.sol\":2237:2258  approvals[msg.sender] */\n      0x00\n        /* \"ETH-Remix/Practice/multisigexcercise.sol\":2247:2257  msg.sender */\n      caller\n        /* \"ETH-Remix/Practice/multisigexcercise.sol\":2237:2258  approvals[msg.sender] */\n      0xffffffffffffffffffffffffffffffffffffffff\n      and\n      0xffffffffffffffffffffffffffffffffffffffff\n      and\n      dup2\n      mstore\n      0x20\n      add\n      swap1\n      dup2\n      mstore\n      0x20\n      add\n      0x00\n      keccak256\n        /* \"ETH-Remix/Practice/multisigexcercise.sol\":2237:2263  approvals[msg.sender][_id] */\n      0x00\n        /* \"ETH-Remix/Practice/multisigexcercise.sol\":2259:2262  _id */\n      dup5\n        /* \"ETH-Remix/Practice/multisigexcercise.sol\":2237:2263  approvals[msg.sender][_id] */\n      dup2\n      mstore\n      0x20\n      add\n      swap1\n      dup2\n      mstore\n      0x20\n      add\n      0x00\n      keccak256\n      0x00\n        /* \"ETH-Remix/Practice/multisigexcercise.sol\":2237:2270  approvals[msg.sender][_id] = true */\n      0x0100\n      exp\n      dup2\n      sload\n      dup2\n      0xff\n      mul\n      not\n      and\n      swap1\n      dup4\n      iszero\n      iszero\n      mul\n      or\n      swap1\n      sstore\n      pop\n        /* \"ETH-Remix/Practice/multisigexcercise.sol\":2281:2297  transferRequests */\n      0x02\n        /* \"ETH-Remix/Practice/multisigexcercise.sol\":2298:2301  _id */\n      dup3\n        /* \"ETH-Remix/Practice/multisigexcercise.sol\":2281:2302  transferRequests[_id] */\n      dup2\n      sload\n      dup2\n      lt\n      tag_61\n      jumpi\n      invalid\n    tag_61:\n      swap1\n      0x00\n      mstore\n      keccak256(0x00, 0x20)\n      swap1\n      0x05\n      mul\n      add\n        /* \"ETH-Remix/Practice/multisigexcercise.sol\":2281:2312  transferRequests[_id].approvals */\n      0x02\n      add\n      0x00\n        /* \"ETH-Remix/Practice/multisigexcercise.sol\":2281:2314  transferRequests[_id].approvals++ */\n      dup2\n      sload\n      dup1\n      swap3\n      swap2\n      swap1\n      0x01\n      add\n      swap2\n      swap1\n      pop\n      sstore\n      pop\n        /* \"ETH-Remix/Practice/multisigexcercise.sol\":2340:2406  ApprovalReceived(_id, transferRequests[_id].approvals, msg.sender) */\n      0xfec9d12d15ee8c8b836a58347cb0d4980db38411bcd0b83662cee48fb20b6dee\n        /* \"ETH-Remix/Practice/multisigexcercise.sol\":2357:2360  _id */\n      dup3\n        /* \"ETH-Remix/Practice/multisigexcercise.sol\":2362:2378  transferRequests */\n      0x02\n        /* \"ETH-Remix/Practice/multisigexcercise.sol\":2379:2382  _id */\n      dup5\n        /* \"ETH-Remix/Practice/multisigexcercise.sol\":2362:2383  transferRequests[_id] */\n      dup2\n      sload\n      dup2\n      lt\n      tag_63\n      jumpi\n      invalid\n    tag_63:\n      swap1\n      0x00\n      mstore\n      keccak256(0x00, 0x20)\n      swap1\n      0x05\n      mul\n      add\n        /* \"ETH-Remix/Practice/multisigexcercise.sol\":2362:2393  transferRequests[_id].approvals */\n      0x02\n      add\n      sload\n        /* \"ETH-Remix/Practice/multisigexcercise.sol\":2395:2405  msg.sender */\n      caller\n        /* \"ETH-Remix/Practice/multisigexcercise.sol\":2340:2406  ApprovalReceived(_id, transferRequests[_id].approvals, msg.sender) */\n      mload(0x40)\n      tag_65\n      swap4\n      swap3\n      swap2\n      swap1\n      tag_66\n      jump\t// in\n    tag_65:\n      mload(0x40)\n      dup1\n      swap2\n      sub\n      swap1\n      log1\n        /* \"ETH-Remix/Practice/multisigexcercise.sol\":2465:2470  limit */\n      sload(0x01)\n        /* \"ETH-Remix/Practice/multisigexcercise.sol\":2430:2446  transferRequests */\n      0x02\n        /* \"ETH-Remix/Practice/multisigexcercise.sol\":2447:2450  _id */\n      dup4\n        /* \"ETH-Remix/Practice/multisigexcercise.sol\":2430:2451  transferRequests[_id] */\n      dup2\n      sload\n      dup2\n      lt\n      tag_67\n      jumpi\n      invalid\n    tag_67:\n      swap1\n      0x00\n      mstore\n      keccak256(0x00, 0x20)\n      swap1\n      0x05\n      mul\n      add\n        /* \"ETH-Remix/Practice/multisigexcercise.sol\":2430:2461  transferRequests[_id].approvals */\n      0x02\n      add\n      sload\n        /* \"ETH-Remix/Practice/multisigexcercise.sol\":2430:2470  transferRequests[_id].approvals >= limit */\n      lt\n        /* \"ETH-Remix/Practice/multisigexcercise.sol\":2427:2663  if(transferRequests[_id].approvals >= limit){\r... */\n      tag_69\n      jumpi\n        /* \"ETH-Remix/Practice/multisigexcercise.sol\":2522:2526  true */\n      0x01\n        /* \"ETH-Remix/Practice/multisigexcercise.sol\":2486:2502  transferRequests */\n      0x02\n        /* \"ETH-Remix/Practice/multisigexcercise.sol\":2503:2506  _id */\n      dup4\n        /* \"ETH-Remix/Practice/multisigexcercise.sol\":2486:2507  transferRequests[_id] */\n      dup2\n      sload\n      dup2\n      lt\n      tag_70\n      jumpi\n      invalid\n    tag_70:\n      swap1\n      0x00\n      mstore\n      keccak256(0x00, 0x20)\n      swap1\n      0x05\n      mul\n      add\n        /* \"ETH-Remix/Practice/multisigexcercise.sol\":2486:2519  transferRequests[_id].hasBeenSent */\n      0x03\n      add\n      0x00\n        /* \"ETH-Remix/Practice/multisigexcercise.sol\":2486:2526  transferRequests[_id].hasBeenSent = true */\n      0x0100\n      exp\n      dup2\n      sload\n      dup2\n      0xff\n      mul\n      not\n      and\n      swap1\n      dup4\n      iszero\n      iszero\n      mul\n      or\n      swap1\n      sstore\n      pop\n        /* \"ETH-Remix/Practice/multisigexcercise.sol\":2541:2557  transferRequests */\n      0x02\n        /* \"ETH-Remix/Practice/multisigexcercise.sol\":2558:2561  _id */\n      dup3\n        /* \"ETH-Remix/Practice/multisigexcercise.sol\":2541:2562  transferRequests[_id] */\n      dup2\n      sload\n      dup2\n      lt\n      tag_72\n      jumpi\n      invalid\n    tag_72:\n      swap1\n      0x00\n      mstore\n      keccak256(0x00, 0x20)\n      swap1\n      0x05\n      mul\n      add\n        /* \"ETH-Remix/Practice/multisigexcercise.sol\":2541:2571  transferRequests[_id].receiver */\n      0x01\n      add\n      0x00\n      swap1\n      sload\n      swap1\n      0x0100\n      exp\n      swap1\n      div\n      0xffffffffffffffffffffffffffffffffffffffff\n      and\n        /* \"ETH-Remix/Practice/multisigexcercise.sol\":2541:2580  transferRequests[_id].receiver.transfer */\n      0xffffffffffffffffffffffffffffffffffffffff\n      and\n        /* \"ETH-Remix/Practice/multisigexcercise.sol\":2541:2610  transferRequests[_id].receiver.transfer(transferRequests[_id].amount) */\n      0x08fc\n        /* \"ETH-Remix/Practice/multisigexcercise.sol\":2581:2597  transferRequests */\n      0x02\n        /* \"ETH-Remix/Practice/multisigexcercise.sol\":2598:2601  _id */\n      dup5\n        /* \"ETH-Remix/Practice/multisigexcercise.sol\":2581:2602  transferRequests[_id] */\n      dup2\n      sload\n      dup2\n      lt\n      tag_74\n      jumpi\n      invalid\n    tag_74:\n      swap1\n      0x00\n      mstore\n      keccak256(0x00, 0x20)\n      swap1\n      0x05\n      mul\n      add\n        /* \"ETH-Remix/Practice/multisigexcercise.sol\":2581:2609  transferRequests[_id].amount */\n      0x00\n      add\n      sload\n        /* \"ETH-Remix/Practice/multisigexcercise.sol\":2541:2610  transferRequests[_id].receiver.transfer(transferRequests[_id].amount) */\n      swap1\n      dup2\n      iszero\n      mul\n      swap1\n      mload(0x40)\n      0x00\n      mload(0x40)\n      dup1\n      dup4\n      sub\n      dup2\n      dup6\n      dup9\n      dup9\n      call\n      swap4\n      pop\n      pop\n      pop\n      pop\n      iszero\n      dup1\n      iszero\n      tag_77\n      jumpi\n      returndatasize\n      0x00\n      dup1\n      returndatacopy\n      revert(0x00, returndatasize)\n    tag_77:\n      pop\n        /* \"ETH-Remix/Practice/multisigexcercise.sol\":2630:2651  TransferApproved(_id) */\n      0xd9bbf1d8bef570b7e92ef1ba025425fc15915ae01f3d3be144cdc8be05442eb5\n        /* \"ETH-Remix/Practice/multisigexcercise.sol\":2647:2650  _id */\n      dup3\n        /* \"ETH-Remix/Practice/multisigexcercise.sol\":2630:2651  TransferApproved(_id) */\n      mload(0x40)\n      tag_78\n      swap2\n      swap1\n      tag_79\n      jump\t// in\n    tag_78:\n      mload(0x40)\n      dup1\n      swap2\n      sub\n      swap1\n      log1\n        /* \"ETH-Remix/Practice/multisigexcercise.sol\":2427:2663  if(transferRequests[_id].approvals >= limit){\r... */\n    tag_69:\n        /* \"ETH-Remix/Practice/multisigexcercise.sol\":2054:2670  function approve(uint _id) public onlyOwners {\r... */\n      pop\n      pop\n      jump\t// out\n        /* \"ETH-Remix/Practice/multisigexcercise.sol\":1135:1171  function deposit() public payable {} */\n    tag_29:\n      jump\t// out\n        /* \"#utility.yul\":7:162   */\n    tag_82:\n      0x00\n        /* \"#utility.yul\":99:105   */\n      dup2\n        /* \"#utility.yul\":86:106   */\n      calldataload\n        /* \"#utility.yul\":77:106   */\n      swap1\n      pop\n        /* \"#utility.yul\":115:156   */\n      tag_84\n        /* \"#utility.yul\":150:155   */\n      dup2\n        /* \"#utility.yul\":115:156   */\n      tag_85\n      jump\t// in\n    tag_84:\n        /* \"#utility.yul\":67:162   */\n      swap3\n      swap2\n      pop\n      pop\n      jump\t// out\n        /* \"#utility.yul\":168:307   */\n    tag_86:\n      0x00\n        /* \"#utility.yul\":252:258   */\n      dup2\n        /* \"#utility.yul\":239:259   */\n      calldataload\n        /* \"#utility.yul\":230:259   */\n      swap1\n      pop\n        /* \"#utility.yul\":268:301   */\n      tag_88\n        /* \"#utility.yul\":295:300   */\n      dup2\n        /* \"#utility.yul\":268:301   */\n      tag_89\n      jump\t// in\n    tag_88:\n        /* \"#utility.yul\":220:307   */\n      swap3\n      swap2\n      pop\n      pop\n      jump\t// out\n        /* \"#utility.yul\":313:573   */\n    tag_10:\n      0x00\n        /* \"#utility.yul\":421:423   */\n      0x20\n        /* \"#utility.yul\":409:418   */\n      dup3\n        /* \"#utility.yul\":400:407   */\n      dup5\n        /* \"#utility.yul\":396:419   */\n      sub\n        /* \"#utility.yul\":392:424   */\n      slt\n        /* \"#utility.yul\":389:391   */\n      iszero\n      tag_91\n      jumpi\n        /* \"#utility.yul\":437:438   */\n      0x00\n        /* \"#utility.yul\":434:435   */\n      dup1\n        /* \"#utility.yul\":427:439   */\n      revert\n        /* \"#utility.yul\":389:391   */\n    tag_91:\n        /* \"#utility.yul\":479:480   */\n      0x00\n        /* \"#utility.yul\":503:556   */\n      tag_92\n        /* \"#utility.yul\":548:555   */\n      dup5\n        /* \"#utility.yul\":539:545   */\n      dup3\n        /* \"#utility.yul\":528:537   */\n      dup6\n        /* \"#utility.yul\":524:546   */\n      add\n        /* \"#utility.yul\":503:556   */\n      tag_86\n      jump\t// in\n    tag_92:\n        /* \"#utility.yul\":493:556   */\n      swap2\n      pop\n        /* \"#utility.yul\":451:566   */\n      pop\n        /* \"#utility.yul\":379:573   */\n      swap3\n      swap2\n      pop\n      pop\n      jump\t// out\n        /* \"#utility.yul\":579:998   */\n    tag_17:\n      0x00\n      dup1\n        /* \"#utility.yul\":712:714   */\n      0x40\n        /* \"#utility.yul\":700:709   */\n      dup4\n        /* \"#utility.yul\":691:698   */\n      dup6\n        /* \"#utility.yul\":687:710   */\n      sub\n        /* \"#utility.yul\":683:715   */\n      slt\n        /* \"#utility.yul\":680:682   */\n      iszero\n      tag_94\n      jumpi\n        /* \"#utility.yul\":728:729   */\n      0x00\n        /* \"#utility.yul\":725:726   */\n      dup1\n        /* \"#utility.yul\":718:730   */\n      revert\n        /* \"#utility.yul\":680:682   */\n    tag_94:\n        /* \"#utility.yul\":770:771   */\n      0x00\n        /* \"#utility.yul\":794:847   */\n      tag_95\n        /* \"#utility.yul\":839:846   */\n      dup6\n        /* \"#utility.yul\":830:836   */\n      dup3\n        /* \"#utility.yul\":819:828   */\n      dup7\n        /* \"#utility.yul\":815:837   */\n      add\n        /* \"#utility.yul\":794:847   */\n      tag_86\n      jump\t// in\n    tag_95:\n        /* \"#utility.yul\":784:847   */\n      swap3\n      pop\n        /* \"#utility.yul\":742:857   */\n      pop\n        /* \"#utility.yul\":895:897   */\n      0x20\n        /* \"#utility.yul\":920:981   */\n      tag_96\n        /* \"#utility.yul\":973:980   */\n      dup6\n        /* \"#utility.yul\":964:970   */\n      dup3\n        /* \"#utility.yul\":953:962   */\n      dup7\n        /* \"#utility.yul\":949:971   */\n      add\n        /* \"#utility.yul\":920:981   */\n      tag_82\n      jump\t// in\n    tag_96:\n        /* \"#utility.yul\":910:981   */\n      swap2\n      pop\n        /* \"#utility.yul\":867:991   */\n      pop\n        /* \"#utility.yul\":670:998   */\n      swap3\n      pop\n      swap3\n      swap1\n      pop\n      jump\t// out\n        /* \"#utility.yul\":1004:1279   */\n    tag_97:\n      0x00\n        /* \"#utility.yul\":1142:1236   */\n      tag_99\n        /* \"#utility.yul\":1232:1235   */\n      dup4\n        /* \"#utility.yul\":1224:1230   */\n      dup4\n        /* \"#utility.yul\":1142:1236   */\n      tag_100\n      jump\t// in\n    tag_99:\n        /* \"#utility.yul\":1268:1272   */\n      0xa0\n        /* \"#utility.yul\":1263:1266   */\n      dup4\n        /* \"#utility.yul\":1259:1273   */\n      add\n        /* \"#utility.yul\":1245:1273   */\n      swap1\n      pop\n        /* \"#utility.yul\":1132:1279   */\n      swap3\n      swap2\n      pop\n      pop\n      jump\t// out\n        /* \"#utility.yul\":1285:1432   */\n    tag_101:\n        /* \"#utility.yul\":1380:1425   */\n      tag_103\n        /* \"#utility.yul\":1419:1424   */\n      dup2\n        /* \"#utility.yul\":1380:1425   */\n      tag_104\n      jump\t// in\n    tag_103:\n        /* \"#utility.yul\":1375:1378   */\n      dup3\n        /* \"#utility.yul\":1368:1426   */\n      mstore\n        /* \"#utility.yul\":1358:1432   */\n      pop\n      pop\n      jump\t// out\n        /* \"#utility.yul\":1438:1570   */\n    tag_105:\n        /* \"#utility.yul\":1531:1563   */\n      tag_107\n        /* \"#utility.yul\":1557:1562   */\n      dup2\n        /* \"#utility.yul\":1531:1563   */\n      tag_108\n      jump\t// in\n    tag_107:\n        /* \"#utility.yul\":1526:1529   */\n      dup3\n        /* \"#utility.yul\":1519:1564   */\n      mstore\n        /* \"#utility.yul\":1509:1570   */\n      pop\n      pop\n      jump\t// out\n        /* \"#utility.yul\":1576:1694   */\n    tag_109:\n        /* \"#utility.yul\":1663:1687   */\n      tag_111\n        /* \"#utility.yul\":1681:1686   */\n      dup2\n        /* \"#utility.yul\":1663:1687   */\n      tag_112\n      jump\t// in\n    tag_111:\n        /* \"#utility.yul\":1658:1661   */\n      dup3\n        /* \"#utility.yul\":1651:1688   */\n      mstore\n        /* \"#utility.yul\":1641:1694   */\n      pop\n      pop\n      jump\t// out\n        /* \"#utility.yul\":1760:2684   */\n    tag_113:\n      0x00\n        /* \"#utility.yul\":1956:2034   */\n      tag_115\n        /* \"#utility.yul\":2028:2033   */\n      dup3\n        /* \"#utility.yul\":1956:2034   */\n      tag_116\n      jump\t// in\n    tag_115:\n        /* \"#utility.yul\":2050:2160   */\n      tag_117\n        /* \"#utility.yul\":2153:2159   */\n      dup2\n        /* \"#utility.yul\":2148:2151   */\n      dup6\n        /* \"#utility.yul\":2050:2160   */\n      tag_118\n      jump\t// in\n    tag_117:\n        /* \"#utility.yul\":2043:2160   */\n      swap4\n      pop\n        /* \"#utility.yul\":2184:2264   */\n      tag_119\n        /* \"#utility.yul\":2258:2263   */\n      dup4\n        /* \"#utility.yul\":2184:2264   */\n      tag_120\n      jump\t// in\n    tag_119:\n        /* \"#utility.yul\":2287:2294   */\n      dup1\n        /* \"#utility.yul\":2318:2319   */\n      0x00\n        /* \"#utility.yul\":2303:2659   */\n    tag_121:\n        /* \"#utility.yul\":2328:2334   */\n      dup4\n        /* \"#utility.yul\":2325:2326   */\n      dup2\n        /* \"#utility.yul\":2322:2335   */\n      lt\n        /* \"#utility.yul\":2303:2659   */\n      iszero\n      tag_123\n      jumpi\n        /* \"#utility.yul\":2404:2410   */\n      dup2\n        /* \"#utility.yul\":2398:2411   */\n      mload\n        /* \"#utility.yul\":2431:2542   */\n      tag_124\n        /* \"#utility.yul\":2538:2541   */\n      dup9\n        /* \"#utility.yul\":2523:2536   */\n      dup3\n        /* \"#utility.yul\":2431:2542   */\n      tag_97\n      jump\t// in\n    tag_124:\n        /* \"#utility.yul\":2424:2542   */\n      swap8\n      pop\n        /* \"#utility.yul\":2565:2649   */\n      tag_125\n        /* \"#utility.yul\":2642:2648   */\n      dup4\n        /* \"#utility.yul\":2565:2649   */\n      tag_126\n      jump\t// in\n    tag_125:\n        /* \"#utility.yul\":2555:2649   */\n      swap3\n      pop\n        /* \"#utility.yul\":2363:2659   */\n      pop\n        /* \"#utility.yul\":2350:2351   */\n      0x01\n        /* \"#utility.yul\":2347:2348   */\n      dup2\n        /* \"#utility.yul\":2343:2352   */\n      add\n        /* \"#utility.yul\":2338:2352   */\n      swap1\n      pop\n        /* \"#utility.yul\":2303:2659   */\n      jump(tag_121)\n    tag_123:\n        /* \"#utility.yul\":2307:2321   */\n      pop\n        /* \"#utility.yul\":2675:2678   */\n      dup6\n        /* \"#utility.yul\":2668:2678   */\n      swap4\n      pop\n        /* \"#utility.yul\":1932:2684   */\n      pop\n      pop\n      pop\n      swap3\n      swap2\n      pop\n      pop\n      jump\t// out\n        /* \"#utility.yul\":2690:2789   */\n    tag_127:\n        /* \"#utility.yul\":2761:2782   */\n      tag_129\n        /* \"#utility.yul\":2776:2781   */\n      dup2\n        /* \"#utility.yul\":2761:2782   */\n      tag_130\n      jump\t// in\n    tag_129:\n        /* \"#utility.yul\":2756:2759   */\n      dup3\n        /* \"#utility.yul\":2749:2783   */\n      mstore\n        /* \"#utility.yul\":2739:2789   */\n      pop\n      pop\n      jump\t// out\n        /* \"#utility.yul\":2851:3894   */\n    tag_100:\n        /* \"#utility.yul\":2986:2990   */\n      0xa0\n        /* \"#utility.yul\":2981:2984   */\n      dup3\n        /* \"#utility.yul\":2977:2991   */\n      add\n        /* \"#utility.yul\":3075:3079   */\n      0x00\n        /* \"#utility.yul\":3068:3073   */\n      dup3\n        /* \"#utility.yul\":3064:3080   */\n      add\n        /* \"#utility.yul\":3058:3081   */\n      mload\n        /* \"#utility.yul\":3094:3157   */\n      tag_132\n        /* \"#utility.yul\":3151:3155   */\n      0x00\n        /* \"#utility.yul\":3146:3149   */\n      dup6\n        /* \"#utility.yul\":3142:3156   */\n      add\n        /* \"#utility.yul\":3128:3140   */\n      dup3\n        /* \"#utility.yul\":3094:3157   */\n      tag_133\n      jump\t// in\n    tag_132:\n        /* \"#utility.yul\":3001:3167   */\n      pop\n        /* \"#utility.yul\":3253:3257   */\n      0x20\n        /* \"#utility.yul\":3246:3251   */\n      dup3\n        /* \"#utility.yul\":3242:3258   */\n      add\n        /* \"#utility.yul\":3236:3259   */\n      mload\n        /* \"#utility.yul\":3272:3351   */\n      tag_134\n        /* \"#utility.yul\":3345:3349   */\n      0x20\n        /* \"#utility.yul\":3340:3343   */\n      dup6\n        /* \"#utility.yul\":3336:3350   */\n      add\n        /* \"#utility.yul\":3322:3334   */\n      dup3\n        /* \"#utility.yul\":3272:3351   */\n      tag_105\n      jump\t// in\n    tag_134:\n        /* \"#utility.yul\":3177:3361   */\n      pop\n        /* \"#utility.yul\":3448:3452   */\n      0x40\n        /* \"#utility.yul\":3441:3446   */\n      dup3\n        /* \"#utility.yul\":3437:3453   */\n      add\n        /* \"#utility.yul\":3431:3454   */\n      mload\n        /* \"#utility.yul\":3467:3530   */\n      tag_135\n        /* \"#utility.yul\":3524:3528   */\n      0x40\n        /* \"#utility.yul\":3519:3522   */\n      dup6\n        /* \"#utility.yul\":3515:3529   */\n      add\n        /* \"#utility.yul\":3501:3513   */\n      dup3\n        /* \"#utility.yul\":3467:3530   */\n      tag_133\n      jump\t// in\n    tag_135:\n        /* \"#utility.yul\":3371:3540   */\n      pop\n        /* \"#utility.yul\":3629:3633   */\n      0x60\n        /* \"#utility.yul\":3622:3627   */\n      dup3\n        /* \"#utility.yul\":3618:3634   */\n      add\n        /* \"#utility.yul\":3612:3635   */\n      mload\n        /* \"#utility.yul\":3648:3705   */\n      tag_136\n        /* \"#utility.yul\":3699:3703   */\n      0x60\n        /* \"#utility.yul\":3694:3697   */\n      dup6\n        /* \"#utility.yul\":3690:3704   */\n      add\n        /* \"#utility.yul\":3676:3688   */\n      dup3\n        /* \"#utility.yul\":3648:3705   */\n      tag_127\n      jump\t// in\n    tag_136:\n        /* \"#utility.yul\":3550:3715   */\n      pop\n        /* \"#utility.yul\":3795:3799   */\n      0x80\n        /* \"#utility.yul\":3788:3793   */\n      dup3\n        /* \"#utility.yul\":3784:3800   */\n      add\n        /* \"#utility.yul\":3778:3801   */\n      mload\n        /* \"#utility.yul\":3814:3877   */\n      tag_137\n        /* \"#utility.yul\":3871:3875   */\n      0x80\n        /* \"#utility.yul\":3866:3869   */\n      dup6\n        /* \"#utility.yul\":3862:3876   */\n      add\n        /* \"#utility.yul\":3848:3860   */\n      dup3\n        /* \"#utility.yul\":3814:3877   */\n      tag_133\n      jump\t// in\n    tag_137:\n        /* \"#utility.yul\":3725:3887   */\n      pop\n        /* \"#utility.yul\":2955:3894   */\n      pop\n      pop\n      pop\n      jump\t// out\n        /* \"#utility.yul\":3900:4008   */\n    tag_133:\n        /* \"#utility.yul\":3977:4001   */\n      tag_139\n        /* \"#utility.yul\":3995:4000   */\n      dup2\n        /* \"#utility.yul\":3977:4001   */\n      tag_140\n      jump\t// in\n    tag_139:\n        /* \"#utility.yul\":3972:3975   */\n      dup3\n        /* \"#utility.yul\":3965:4002   */\n      mstore\n        /* \"#utility.yul\":3955:4008   */\n      pop\n      pop\n      jump\t// out\n        /* \"#utility.yul\":4014:4132   */\n    tag_141:\n        /* \"#utility.yul\":4101:4125   */\n      tag_143\n        /* \"#utility.yul\":4119:4124   */\n      dup2\n        /* \"#utility.yul\":4101:4125   */\n      tag_140\n      jump\t// in\n    tag_143:\n        /* \"#utility.yul\":4096:4099   */\n      dup3\n        /* \"#utility.yul\":4089:4126   */\n      mstore\n        /* \"#utility.yul\":4079:4132   */\n      pop\n      pop\n      jump\t// out\n        /* \"#utility.yul\":4138:4360   */\n    tag_13:\n      0x00\n        /* \"#utility.yul\":4269:4271   */\n      0x20\n        /* \"#utility.yul\":4258:4267   */\n      dup3\n        /* \"#utility.yul\":4254:4272   */\n      add\n        /* \"#utility.yul\":4246:4272   */\n      swap1\n      pop\n        /* \"#utility.yul\":4282:4353   */\n      tag_145\n        /* \"#utility.yul\":4350:4351   */\n      0x00\n        /* \"#utility.yul\":4339:4348   */\n      dup4\n        /* \"#utility.yul\":4335:4352   */\n      add\n        /* \"#utility.yul\":4326:4332   */\n      dup5\n        /* \"#utility.yul\":4282:4353   */\n      tag_109\n      jump\t// in\n    tag_145:\n        /* \"#utility.yul\":4236:4360   */\n      swap3\n      swap2\n      pop\n      pop\n      jump\t// out\n        /* \"#utility.yul\":4366:4835   */\n    tag_23:\n      0x00\n        /* \"#utility.yul\":4595:4597   */\n      0x20\n        /* \"#utility.yul\":4584:4593   */\n      dup3\n        /* \"#utility.yul\":4580:4598   */\n      add\n        /* \"#utility.yul\":4572:4598   */\n      swap1\n      pop\n        /* \"#utility.yul\":4644:4653   */\n      dup2\n        /* \"#utility.yul\":4638:4642   */\n      dup2\n        /* \"#utility.yul\":4634:4654   */\n      sub\n        /* \"#utility.yul\":4630:4631   */\n      0x00\n        /* \"#utility.yul\":4619:4628   */\n      dup4\n        /* \"#utility.yul\":4615:4632   */\n      add\n        /* \"#utility.yul\":4608:4655   */\n      mstore\n        /* \"#utility.yul\":4672:4828   */\n      tag_147\n        /* \"#utility.yul\":4823:4827   */\n      dup2\n        /* \"#utility.yul\":4814:4820   */\n      dup5\n        /* \"#utility.yul\":4672:4828   */\n      tag_113\n      jump\t// in\n    tag_147:\n        /* \"#utility.yul\":4664:4828   */\n      swap1\n      pop\n        /* \"#utility.yul\":4562:4835   */\n      swap3\n      swap2\n      pop\n      pop\n      jump\t// out\n        /* \"#utility.yul\":4841:5063   */\n    tag_79:\n      0x00\n        /* \"#utility.yul\":4972:4974   */\n      0x20\n        /* \"#utility.yul\":4961:4970   */\n      dup3\n        /* \"#utility.yul\":4957:4975   */\n      add\n        /* \"#utility.yul\":4949:4975   */\n      swap1\n      pop\n        /* \"#utility.yul\":4985:5056   */\n      tag_149\n        /* \"#utility.yul\":5053:5054   */\n      0x00\n        /* \"#utility.yul\":5042:5051   */\n      dup4\n        /* \"#utility.yul\":5038:5055   */\n      add\n        /* \"#utility.yul\":5029:5035   */\n      dup5\n        /* \"#utility.yul\":4985:5056   */\n      tag_141\n      jump\t// in\n    tag_149:\n        /* \"#utility.yul\":4939:5063   */\n      swap3\n      swap2\n      pop\n      pop\n      jump\t// out\n        /* \"#utility.yul\":5069:5527   */\n    tag_66:\n      0x00\n        /* \"#utility.yul\":5264:5266   */\n      0x60\n        /* \"#utility.yul\":5253:5262   */\n      dup3\n        /* \"#utility.yul\":5249:5267   */\n      add\n        /* \"#utility.yul\":5241:5267   */\n      swap1\n      pop\n        /* \"#utility.yul\":5277:5348   */\n      tag_151\n        /* \"#utility.yul\":5345:5346   */\n      0x00\n        /* \"#utility.yul\":5334:5343   */\n      dup4\n        /* \"#utility.yul\":5330:5347   */\n      add\n        /* \"#utility.yul\":5321:5327   */\n      dup7\n        /* \"#utility.yul\":5277:5348   */\n      tag_141\n      jump\t// in\n    tag_151:\n        /* \"#utility.yul\":5358:5430   */\n      tag_152\n        /* \"#utility.yul\":5426:5428   */\n      0x20\n        /* \"#utility.yul\":5415:5424   */\n      dup4\n        /* \"#utility.yul\":5411:5429   */\n      add\n        /* \"#utility.yul\":5402:5408   */\n      dup6\n        /* \"#utility.yul\":5358:5430   */\n      tag_141\n      jump\t// in\n    tag_152:\n        /* \"#utility.yul\":5440:5520   */\n      tag_153\n        /* \"#utility.yul\":5516:5518   */\n      0x40\n        /* \"#utility.yul\":5505:5514   */\n      dup4\n        /* \"#utility.yul\":5501:5519   */\n      add\n        /* \"#utility.yul\":5492:5498   */\n      dup5\n        /* \"#utility.yul\":5440:5520   */\n      tag_101\n      jump\t// in\n    tag_153:\n        /* \"#utility.yul\":5231:5527   */\n      swap5\n      swap4\n      pop\n      pop\n      pop\n      pop\n      jump\t// out\n        /* \"#utility.yul\":5533:6118   */\n    tag_42:\n      0x00\n        /* \"#utility.yul\":5764:5767   */\n      0x80\n        /* \"#utility.yul\":5753:5762   */\n      dup3\n        /* \"#utility.yul\":5749:5768   */\n      add\n        /* \"#utility.yul\":5741:5768   */\n      swap1\n      pop\n        /* \"#utility.yul\":5778:5849   */\n      tag_155\n        /* \"#utility.yul\":5846:5847   */\n      0x00\n        /* \"#utility.yul\":5835:5844   */\n      dup4\n        /* \"#utility.yul\":5831:5848   */\n      add\n        /* \"#utility.yul\":5822:5828   */\n      dup8\n        /* \"#utility.yul\":5778:5849   */\n      tag_141\n      jump\t// in\n    tag_155:\n        /* \"#utility.yul\":5859:5931   */\n      tag_156\n        /* \"#utility.yul\":5927:5929   */\n      0x20\n        /* \"#utility.yul\":5916:5925   */\n      dup4\n        /* \"#utility.yul\":5912:5930   */\n      add\n        /* \"#utility.yul\":5903:5909   */\n      dup7\n        /* \"#utility.yul\":5859:5931   */\n      tag_141\n      jump\t// in\n    tag_156:\n        /* \"#utility.yul\":5941:6021   */\n      tag_157\n        /* \"#utility.yul\":6017:6019   */\n      0x40\n        /* \"#utility.yul\":6006:6015   */\n      dup4\n        /* \"#utility.yul\":6002:6020   */\n      add\n        /* \"#utility.yul\":5993:5999   */\n      dup6\n        /* \"#utility.yul\":5941:6021   */\n      tag_101\n      jump\t// in\n    tag_157:\n        /* \"#utility.yul\":6031:6111   */\n      tag_158\n        /* \"#utility.yul\":6107:6109   */\n      0x60\n        /* \"#utility.yul\":6096:6105   */\n      dup4\n        /* \"#utility.yul\":6092:6110   */\n      add\n        /* \"#utility.yul\":6083:6089   */\n      dup5\n        /* \"#utility.yul\":6031:6111   */\n      tag_101\n      jump\t// in\n    tag_158:\n        /* \"#utility.yul\":5731:6118   */\n      swap6\n      swap5\n      pop\n      pop\n      pop\n      pop\n      pop\n      jump\t// out\n        /* \"#utility.yul\":6124:6280   */\n    tag_120:\n      0x00\n        /* \"#utility.yul\":6238:6241   */\n      dup2\n        /* \"#utility.yul\":6230:6241   */\n      swap1\n      pop\n        /* \"#utility.yul\":6268:6272   */\n      0x20\n        /* \"#utility.yul\":6263:6266   */\n      dup3\n        /* \"#utility.yul\":6259:6273   */\n      add\n        /* \"#utility.yul\":6251:6273   */\n      swap1\n      pop\n        /* \"#utility.yul\":6220:6280   */\n      swap2\n      swap1\n      pop\n      jump\t// out\n        /* \"#utility.yul\":6286:6424   */\n    tag_116:\n      0x00\n        /* \"#utility.yul\":6411:6416   */\n      dup2\n        /* \"#utility.yul\":6405:6417   */\n      mload\n        /* \"#utility.yul\":6395:6417   */\n      swap1\n      pop\n        /* \"#utility.yul\":6384:6424   */\n      swap2\n      swap1\n      pop\n      jump\t// out\n        /* \"#utility.yul\":6430:6567   */\n    tag_126:\n      0x00\n        /* \"#utility.yul\":6556:6560   */\n      0x20\n        /* \"#utility.yul\":6551:6554   */\n      dup3\n        /* \"#utility.yul\":6547:6561   */\n      add\n        /* \"#utility.yul\":6539:6561   */\n      swap1\n      pop\n        /* \"#utility.yul\":6529:6567   */\n      swap2\n      swap1\n      pop\n      jump\t// out\n        /* \"#utility.yul\":6573:6781   */\n    tag_118:\n      0x00\n        /* \"#utility.yul\":6730:6736   */\n      dup3\n        /* \"#utility.yul\":6725:6728   */\n      dup3\n        /* \"#utility.yul\":6718:6737   */\n      mstore\n        /* \"#utility.yul\":6770:6774   */\n      0x20\n        /* \"#utility.yul\":6765:6768   */\n      dup3\n        /* \"#utility.yul\":6761:6775   */\n      add\n        /* \"#utility.yul\":6746:6775   */\n      swap1\n      pop\n        /* \"#utility.yul\":6708:6781   */\n      swap3\n      swap2\n      pop\n      pop\n      jump\t// out\n        /* \"#utility.yul\":6787:6883   */\n    tag_112:\n      0x00\n        /* \"#utility.yul\":6853:6877   */\n      tag_164\n        /* \"#utility.yul\":6871:6876   */\n      dup3\n        /* \"#utility.yul\":6853:6877   */\n      tag_165\n      jump\t// in\n    tag_164:\n        /* \"#utility.yul\":6842:6877   */\n      swap1\n      pop\n        /* \"#utility.yul\":6832:6883   */\n      swap2\n      swap1\n      pop\n      jump\t// out\n        /* \"#utility.yul\":6889:6993   */\n    tag_108:\n      0x00\n        /* \"#utility.yul\":6963:6987   */\n      tag_167\n        /* \"#utility.yul\":6981:6986   */\n      dup3\n        /* \"#utility.yul\":6963:6987   */\n      tag_165\n      jump\t// in\n    tag_167:\n        /* \"#utility.yul\":6952:6987   */\n      swap1\n      pop\n        /* \"#utility.yul\":6942:6993   */\n      swap2\n      swap1\n      pop\n      jump\t// out\n        /* \"#utility.yul\":6999:7089   */\n    tag_130:\n      0x00\n        /* \"#utility.yul\":7076:7081   */\n      dup2\n        /* \"#utility.yul\":7069:7082   */\n      iszero\n        /* \"#utility.yul\":7062:7083   */\n      iszero\n        /* \"#utility.yul\":7051:7083   */\n      swap1\n      pop\n        /* \"#utility.yul\":7041:7089   */\n      swap2\n      swap1\n      pop\n      jump\t// out\n        /* \"#utility.yul\":7095:7221   */\n    tag_165:\n      0x00\n        /* \"#utility.yul\":7172:7214   */\n      0xffffffffffffffffffffffffffffffffffffffff\n        /* \"#utility.yul\":7165:7170   */\n      dup3\n        /* \"#utility.yul\":7161:7215   */\n      and\n        /* \"#utility.yul\":7150:7215   */\n      swap1\n      pop\n        /* \"#utility.yul\":7140:7221   */\n      swap2\n      swap1\n      pop\n      jump\t// out\n        /* \"#utility.yul\":7227:7304   */\n    tag_140:\n      0x00\n        /* \"#utility.yul\":7293:7298   */\n      dup2\n        /* \"#utility.yul\":7282:7298   */\n      swap1\n      pop\n        /* \"#utility.yul\":7272:7304   */\n      swap2\n      swap1\n      pop\n      jump\t// out\n        /* \"#utility.yul\":7310:7444   */\n    tag_104:\n      0x00\n        /* \"#utility.yul\":7401:7438   */\n      tag_172\n        /* \"#utility.yul\":7432:7437   */\n      dup3\n        /* \"#utility.yul\":7401:7438   */\n      tag_173\n      jump\t// in\n    tag_172:\n        /* \"#utility.yul\":7388:7438   */\n      swap1\n      pop\n        /* \"#utility.yul\":7378:7444   */\n      swap2\n      swap1\n      pop\n      jump\t// out\n        /* \"#utility.yul\":7450:7576   */\n    tag_173:\n      0x00\n        /* \"#utility.yul\":7533:7570   */\n      tag_175\n        /* \"#utility.yul\":7564:7569   */\n      dup3\n        /* \"#utility.yul\":7533:7570   */\n      tag_176\n      jump\t// in\n    tag_175:\n        /* \"#utility.yul\":7520:7570   */\n      swap1\n      pop\n        /* \"#utility.yul\":7510:7576   */\n      swap2\n      swap1\n      pop\n      jump\t// out\n        /* \"#utility.yul\":7582:7695   */\n    tag_176:\n      0x00\n        /* \"#utility.yul\":7665:7689   */\n      tag_178\n        /* \"#utility.yul\":7683:7688   */\n      dup3\n        /* \"#utility.yul\":7665:7689   */\n      tag_165\n      jump\t// in\n    tag_178:\n        /* \"#utility.yul\":7652:7689   */\n      swap1\n      pop\n        /* \"#utility.yul\":7642:7695   */\n      swap2\n      swap1\n      pop\n      jump\t// out\n        /* \"#utility.yul\":7701:7839   */\n    tag_85:\n        /* \"#utility.yul\":7782:7814   */\n      tag_180\n        /* \"#utility.yul\":7808:7813   */\n      dup2\n        /* \"#utility.yul\":7782:7814   */\n      tag_108\n      jump\t// in\n    tag_180:\n        /* \"#utility.yul\":7775:7780   */\n      dup2\n        /* \"#utility.yul\":7772:7815   */\n      eq\n        /* \"#utility.yul\":7762:7764   */\n      tag_181\n      jumpi\n        /* \"#utility.yul\":7829:7830   */\n      0x00\n        /* \"#utility.yul\":7826:7827   */\n      dup1\n        /* \"#utility.yul\":7819:7831   */\n      revert\n        /* \"#utility.yul\":7762:7764   */\n    tag_181:\n        /* \"#utility.yul\":7752:7839   */\n      pop\n      jump\t// out\n        /* \"#utility.yul\":7845:7967   */\n    tag_89:\n        /* \"#utility.yul\":7918:7942   */\n      tag_183\n        /* \"#utility.yul\":7936:7941   */\n      dup2\n        /* \"#utility.yul\":7918:7942   */\n      tag_140\n      jump\t// in\n    tag_183:\n        /* \"#utility.yul\":7911:7916   */\n      dup2\n        /* \"#utility.yul\":7908:7943   */\n      eq\n        /* \"#utility.yul\":7898:7900   */\n      tag_184\n      jumpi\n        /* \"#utility.yul\":7957:7958   */\n      0x00\n        /* \"#utility.yul\":7954:7955   */\n      dup1\n        /* \"#utility.yul\":7947:7959   */\n      revert\n        /* \"#utility.yul\":7898:7900   */\n    tag_184:\n        /* \"#utility.yul\":7888:7967   */\n      pop\n      jump\t// out\n\n    auxdata: 0xa2646970667358221220485fb6643871054f37568c5a1a7b92a2e22e1b0b096d299a9dae9276b000efc564736f6c63430007050033\n}\n",
				"bytecode": {
					"linkReferences": {},
					"object": "60806040523480156200001157600080fd5b5060405162000e6938038062000e698339818101604052810190620000379190620001c8565b81600090805190602001906200004f9291906200005f565b50806001819055505050620002f9565b828054828255906000526020600020908101928215620000db579160200282015b82811115620000da5782518260006101000a81548173ffffffffffffffffffffffffffffffffffffffff021916908373ffffffffffffffffffffffffffffffffffffffff1602179055509160200191906001019062000080565b5b509050620000ea9190620000ee565b5090565b5b8082111562000109576000816000905550600101620000ef565b5090565b6000815190506200011e81620002c5565b92915050565b600082601f8301126200013657600080fd5b81516200014d620001478262000256565b62000222565b915081818352602084019350602081019050838560208402820111156200017357600080fd5b60005b83811015620001a757816200018c88826200010d565b84526020840193506020830192505060018101905062000176565b5050505092915050565b600081519050620001c281620002df565b92915050565b60008060408385031215620001dc57600080fd5b600083015167ffffffffffffffff811115620001f757600080fd5b620002058582860162000124565b92505060206200021885828601620001b1565b9150509250929050565b6000604051905081810181811067ffffffffffffffff821117156200024c576200024b620002c3565b5b8060405250919050565b600067ffffffffffffffff821115620002745762000273620002c3565b5b602082029050602081019050919050565b6000620002928262000299565b9050919050565b600073ffffffffffffffffffffffffffffffffffffffff82169050919050565b6000819050919050565bfe5b620002d08162000285565b8114620002dc57600080fd5b50565b620002ea81620002b9565b8114620002f657600080fd5b50565b610b6080620003096000396000f3fe60806040526004361061004a5760003560e01c8063025e7c271461004f5780634c12fa471461008c578063a04ef145146100b5578063b759f954146100e0578063d0e30db014610109575b600080fd5b34801561005b57600080fd5b50610076600480360381019061007191906107c2565b610113565b604051610083919061095f565b60405180910390f35b34801561009857600080fd5b506100b360048036038101906100ae91906107eb565b610152565b005b3480156100c157600080fd5b506100ca610331565b6040516100d7919061097a565b60405180910390f35b3480156100ec57600080fd5b50610107600480360381019061010291906107c2565b61041f565b005b610111610796565b005b6000818154811061012357600080fd5b906000526020600020016000915054906101000a900473ffffffffffffffffffffffffffffffffffffffff1681565b6000805b6000805490508110156101e0573373ffffffffffffffffffffffffffffffffffffffff166000828154811061018757fe5b9060005260206000200160009054906101000a900473ffffffffffffffffffffffffffffffffffffffff1673ffffffffffffffffffffffffffffffffffffffff1614156101d357600191505b8080600101915050610156565b5060011515811515146101f257600080fd5b7f099c4ec4ecfc26f7c8b27aeee5443f92120fa2c4e91ba6020369ae71a4d4427860028054905084338560405161022c94939291906109ee565b60405180910390a160026040518060a001604052808581526020018473ffffffffffffffffffffffffffffffffffffffff1681526020016000815260200160001515815260200160028054905081525090806001815401808255809150506001900390600052602060002090600502016000909190919091506000820151816000015560208201518160010160006101000a81548173ffffffffffffffffffffffffffffffffffffffff021916908373ffffffffffffffffffffffffffffffffffffffff1602179055506040820151816002015560608201518160030160006101000a81548160ff021916908315150217905550608082015181600401555050505050565b60606002805480602002602001604051908101604052809291908181526020016000905b8282101561041657838290600052602060002090600502016040518060a0016040529081600082015481526020016001820160009054906101000a900473ffffffffffffffffffffffffffffffffffffffff1673ffffffffffffffffffffffffffffffffffffffff1673ffffffffffffffffffffffffffffffffffffffff168152602001600282015481526020016003820160009054906101000a900460ff1615151515815260200160048201548152505081526020019060010190610355565b50505050905090565b6000805b6000805490508110156104ad573373ffffffffffffffffffffffffffffffffffffffff166000828154811061045457fe5b9060005260206000200160009054906101000a900473ffffffffffffffffffffffffffffffffffffffff1673ffffffffffffffffffffffffffffffffffffffff1614156104a057600191505b8080600101915050610423565b5060011515811515146104bf57600080fd5b60001515600360003373ffffffffffffffffffffffffffffffffffffffff1673ffffffffffffffffffffffffffffffffffffffff168152602001908152602001600020600084815260200190815260200160002060009054906101000a900460ff1615151461052d57600080fd5b600015156002838154811061053e57fe5b906000526020600020906005020160030160009054906101000a900460ff1615151461056957600080fd5b6001600360003373ffffffffffffffffffffffffffffffffffffffff1673ffffffffffffffffffffffffffffffffffffffff168152602001908152602001600020600084815260200190815260200160002060006101000a81548160ff021916908315150217905550600282815481106105df57fe5b9060005260206000209060050201600201600081548092919060010191905055507ffec9d12d15ee8c8b836a58347cb0d4980db38411bcd0b83662cee48fb20b6dee826002848154811061062f57fe5b90600052602060002090600502016002015433604051610651939291906109b7565b60405180910390a16001546002838154811061066957fe5b906000526020600020906005020160020154106107925760016002838154811061068f57fe5b906000526020600020906005020160030160006101000a81548160ff021916908315150217905550600282815481106106c457fe5b906000526020600020906005020160010160009054906101000a900473ffffffffffffffffffffffffffffffffffffffff1673ffffffffffffffffffffffffffffffffffffffff166108fc6002848154811061071c57fe5b9060005260206000209060050201600001549081150290604051600060405180830381858888f19350505050158015610759573d6000803e3d6000fd5b507fd9bbf1d8bef570b7e92ef1ba025425fc15915ae01f3d3be144cdc8be05442eb582604051610789919061099c565b60405180910390a15b5050565b565b6000813590506107a781610afc565b92915050565b6000813590506107bc81610b13565b92915050565b6000602082840312156107d457600080fd5b60006107e2848285016107ad565b91505092915050565b600080604083850312156107fe57600080fd5b600061080c858286016107ad565b925050602061081d85828601610798565b9150509250929050565b600061083383836108d9565b60a08301905092915050565b61084881610ac6565b82525050565b61085781610a7e565b82525050565b61086681610a6c565b82525050565b600061087782610a43565b6108818185610a5b565b935061088c83610a33565b8060005b838110156108bd5781516108a48882610827565b97506108af83610a4e565b925050600181019050610890565b5085935050505092915050565b6108d381610a90565b82525050565b60a0820160008201516108ef6000850182610941565b506020820151610902602085018261084e565b5060408201516109156040850182610941565b50606082015161092860608501826108ca565b50608082015161093b6080850182610941565b50505050565b61094a81610abc565b82525050565b61095981610abc565b82525050565b6000602082019050610974600083018461085d565b92915050565b60006020820190508181036000830152610994818461086c565b905092915050565b60006020820190506109b16000830184610950565b92915050565b60006060820190506109cc6000830186610950565b6109d96020830185610950565b6109e6604083018461083f565b949350505050565b6000608082019050610a036000830187610950565b610a106020830186610950565b610a1d604083018561083f565b610a2a606083018461083f565b95945050505050565b6000819050602082019050919050565b600081519050919050565b6000602082019050919050565b600082825260208201905092915050565b6000610a7782610a9c565b9050919050565b6000610a8982610a9c565b9050919050565b60008115159050919050565b600073ffffffffffffffffffffffffffffffffffffffff82169050919050565b6000819050919050565b6000610ad182610ad8565b9050919050565b6000610ae382610aea565b9050919050565b6000610af582610a9c565b9050919050565b610b0581610a7e565b8114610b1057600080fd5b50565b610b1c81610abc565b8114610b2757600080fd5b5056fea2646970667358221220485fb6643871054f37568c5a1a7b92a2e22e1b0b096d299a9dae9276b000efc564736f6c63430007050033",
					"opcodes": "PUSH1 0x80 PUSH1 0x40 MSTORE CALLVALUE DUP1 ISZERO PUSH3 0x11 JUMPI PUSH1 0x0 DUP1 REVERT JUMPDEST POP PUSH1 0x40 MLOAD PUSH3 0xE69 CODESIZE SUB DUP1 PUSH3 0xE69 DUP4 CODECOPY DUP2 DUP2 ADD PUSH1 0x40 MSTORE DUP2 ADD SWAP1 PUSH3 0x37 SWAP2 SWAP1 PUSH3 0x1C8 JUMP JUMPDEST DUP2 PUSH1 0x0 SWAP1 DUP1 MLOAD SWAP1 PUSH1 0x20 ADD SWAP1 PUSH3 0x4F SWAP3 SWAP2 SWAP1 PUSH3 0x5F JUMP JUMPDEST POP DUP1 PUSH1 0x1 DUP2 SWAP1 SSTORE POP POP POP PUSH3 0x2F9 JUMP JUMPDEST DUP3 DUP1 SLOAD DUP3 DUP3 SSTORE SWAP1 PUSH1 0x0 MSTORE PUSH1 0x20 PUSH1 0x0 KECCAK256 SWAP1 DUP2 ADD SWAP3 DUP3 ISZERO PUSH3 0xDB JUMPI SWAP2 PUSH1 0x20 MUL DUP3 ADD JUMPDEST DUP3 DUP2 GT ISZERO PUSH3 0xDA JUMPI DUP3 MLOAD DUP3 PUSH1 0x0 PUSH2 0x100 EXP DUP2 SLOAD DUP2 PUSH20 0xFFFFFFFFFFFFFFFFFFFFFFFFFFFFFFFFFFFFFFFF MUL NOT AND SWAP1 DUP4 PUSH20 0xFFFFFFFFFFFFFFFFFFFFFFFFFFFFFFFFFFFFFFFF AND MUL OR SWAP1 SSTORE POP SWAP2 PUSH1 0x20 ADD SWAP2 SWAP1 PUSH1 0x1 ADD SWAP1 PUSH3 0x80 JUMP JUMPDEST JUMPDEST POP SWAP1 POP PUSH3 0xEA SWAP2 SWAP1 PUSH3 0xEE JUMP JUMPDEST POP SWAP1 JUMP JUMPDEST JUMPDEST DUP1 DUP3 GT ISZERO PUSH3 0x109 JUMPI PUSH1 0x0 DUP2 PUSH1 0x0 SWAP1 SSTORE POP PUSH1 0x1 ADD PUSH3 0xEF JUMP JUMPDEST POP SWAP1 JUMP JUMPDEST PUSH1 0x0 DUP2 MLOAD SWAP1 POP PUSH3 0x11E DUP2 PUSH3 0x2C5 JUMP JUMPDEST SWAP3 SWAP2 POP POP JUMP JUMPDEST PUSH1 0x0 DUP3 PUSH1 0x1F DUP4 ADD SLT PUSH3 0x136 JUMPI PUSH1 0x0 DUP1 REVERT JUMPDEST DUP2 MLOAD PUSH3 0x14D PUSH3 0x147 DUP3 PUSH3 0x256 JUMP JUMPDEST PUSH3 0x222 JUMP JUMPDEST SWAP2 POP DUP2 DUP2 DUP4 MSTORE PUSH1 0x20 DUP5 ADD SWAP4 POP PUSH1 0x20 DUP2 ADD SWAP1 POP DUP4 DUP6 PUSH1 0x20 DUP5 MUL DUP3 ADD GT ISZERO PUSH3 0x173 JUMPI PUSH1 0x0 DUP1 REVERT JUMPDEST PUSH1 0x0 JUMPDEST DUP4 DUP2 LT ISZERO PUSH3 0x1A7 JUMPI DUP2 PUSH3 0x18C DUP9 DUP3 PUSH3 0x10D JUMP JUMPDEST DUP5 MSTORE PUSH1 0x20 DUP5 ADD SWAP4 POP PUSH1 0x20 DUP4 ADD SWAP3 POP POP PUSH1 0x1 DUP2 ADD SWAP1 POP PUSH3 0x176 JUMP JUMPDEST POP POP POP POP SWAP3 SWAP2 POP POP JUMP JUMPDEST PUSH1 0x0 DUP2 MLOAD SWAP1 POP PUSH3 0x1C2 DUP2 PUSH3 0x2DF JUMP JUMPDEST SWAP3 SWAP2 POP POP JUMP JUMPDEST PUSH1 0x0 DUP1 PUSH1 0x40 DUP4 DUP6 SUB SLT ISZERO PUSH3 0x1DC JUMPI PUSH1 0x0 DUP1 REVERT JUMPDEST PUSH1 0x0 DUP4 ADD MLOAD PUSH8 0xFFFFFFFFFFFFFFFF DUP2 GT ISZERO PUSH3 0x1F7 JUMPI PUSH1 0x0 DUP1 REVERT JUMPDEST PUSH3 0x205 DUP6 DUP3 DUP7 ADD PUSH3 0x124 JUMP JUMPDEST SWAP3 POP POP PUSH1 0x20 PUSH3 0x218 DUP6 DUP3 DUP7 ADD PUSH3 0x1B1 JUMP JUMPDEST SWAP2 POP POP SWAP3 POP SWAP3 SWAP1 POP JUMP JUMPDEST PUSH1 0x0 PUSH1 0x40 MLOAD SWAP1 POP DUP2 DUP2 ADD DUP2 DUP2 LT PUSH8 0xFFFFFFFFFFFFFFFF DUP3 GT OR ISZERO PUSH3 0x24C JUMPI PUSH3 0x24B PUSH3 0x2C3 JUMP JUMPDEST JUMPDEST DUP1 PUSH1 0x40 MSTORE POP SWAP2 SWAP1 POP JUMP JUMPDEST PUSH1 0x0 PUSH8 0xFFFFFFFFFFFFFFFF DUP3 GT ISZERO PUSH3 0x274 JUMPI PUSH3 0x273 PUSH3 0x2C3 JUMP JUMPDEST JUMPDEST PUSH1 0x20 DUP3 MUL SWAP1 POP PUSH1 0x20 DUP2 ADD SWAP1 POP SWAP2 SWAP1 POP JUMP JUMPDEST PUSH1 0x0 PUSH3 0x292 DUP3 PUSH3 0x299 JUMP JUMPDEST SWAP1 POP SWAP2 SWAP1 POP JUMP JUMPDEST PUSH1 0x0 PUSH20 0xFFFFFFFFFFFFFFFFFFFFFFFFFFFFFFFFFFFFFFFF DUP3 AND SWAP1 POP SWAP2 SWAP1 POP JUMP JUMPDEST PUSH1 0x0 DUP2 SWAP1 POP SWAP2 SWAP1 POP JUMP JUMPDEST INVALID JUMPDEST PUSH3 0x2D0 DUP2 PUSH3 0x285 JUMP JUMPDEST DUP2 EQ PUSH3 0x2DC JUMPI PUSH1 0x0 DUP1 REVERT JUMPDEST POP JUMP JUMPDEST PUSH3 0x2EA DUP2 PUSH3 0x2B9 JUMP JUMPDEST DUP2 EQ PUSH3 0x2F6 JUMPI PUSH1 0x0 DUP1 REVERT JUMPDEST POP JUMP JUMPDEST PUSH2 0xB60 DUP1 PUSH3 0x309 PUSH1 0x0 CODECOPY PUSH1 0x0 RETURN INVALID PUSH1 0x80 PUSH1 0x40 MSTORE PUSH1 0x4 CALLDATASIZE LT PUSH2 0x4A JUMPI PUSH1 0x0 CALLDATALOAD PUSH1 0xE0 SHR DUP1 PUSH4 0x25E7C27 EQ PUSH2 0x4F JUMPI DUP1 PUSH4 0x4C12FA47 EQ PUSH2 0x8C JUMPI DUP1 PUSH4 0xA04EF145 EQ PUSH2 0xB5 JUMPI DUP1 PUSH4 0xB759F954 EQ PUSH2 0xE0 JUMPI DUP1 PUSH4 0xD0E30DB0 EQ PUSH2 0x109 JUMPI JUMPDEST PUSH1 0x0 DUP1 REVERT JUMPDEST CALLVALUE DUP1 ISZERO PUSH2 0x5B JUMPI PUSH1 0x0 DUP1 REVERT JUMPDEST POP PUSH2 0x76 PUSH1 0x4 DUP1 CALLDATASIZE SUB DUP2 ADD SWAP1 PUSH2 0x71 SWAP2 SWAP1 PUSH2 0x7C2 JUMP JUMPDEST PUSH2 0x113 JUMP JUMPDEST PUSH1 0x40 MLOAD PUSH2 0x83 SWAP2 SWAP1 PUSH2 0x95F JUMP JUMPDEST PUSH1 0x40 MLOAD DUP1 SWAP2 SUB SWAP1 RETURN JUMPDEST CALLVALUE DUP1 ISZERO PUSH2 0x98 JUMPI PUSH1 0x0 DUP1 REVERT JUMPDEST POP PUSH2 0xB3 PUSH1 0x4 DUP1 CALLDATASIZE SUB DUP2 ADD SWAP1 PUSH2 0xAE SWAP2 SWAP1 PUSH2 0x7EB JUMP JUMPDEST PUSH2 0x152 JUMP JUMPDEST STOP JUMPDEST CALLVALUE DUP1 ISZERO PUSH2 0xC1 JUMPI PUSH1 0x0 DUP1 REVERT JUMPDEST POP PUSH2 0xCA PUSH2 0x331 JUMP JUMPDEST PUSH1 0x40 MLOAD PUSH2 0xD7 SWAP2 SWAP1 PUSH2 0x97A JUMP JUMPDEST PUSH1 0x40 MLOAD DUP1 SWAP2 SUB SWAP1 RETURN JUMPDEST CALLVALUE DUP1 ISZERO PUSH2 0xEC JUMPI PUSH1 0x0 DUP1 REVERT JUMPDEST POP PUSH2 0x107 PUSH1 0x4 DUP1 CALLDATASIZE SUB DUP2 ADD SWAP1 PUSH2 0x102 SWAP2 SWAP1 PUSH2 0x7C2 JUMP JUMPDEST PUSH2 0x41F JUMP JUMPDEST STOP JUMPDEST PUSH2 0x111 PUSH2 0x796 JUMP JUMPDEST STOP JUMPDEST PUSH1 0x0 DUP2 DUP2 SLOAD DUP2 LT PUSH2 0x123 JUMPI PUSH1 0x0 DUP1 REVERT JUMPDEST SWAP1 PUSH1 0x0 MSTORE PUSH1 0x20 PUSH1 0x0 KECCAK256 ADD PUSH1 0x0 SWAP2 POP SLOAD SWAP1 PUSH2 0x100 EXP SWAP1 DIV PUSH20 0xFFFFFFFFFFFFFFFFFFFFFFFFFFFFFFFFFFFFFFFF AND DUP2 JUMP JUMPDEST PUSH1 0x0 DUP1 JUMPDEST PUSH1 0x0 DUP1 SLOAD SWAP1 POP DUP2 LT ISZERO PUSH2 0x1E0 JUMPI CALLER PUSH20 0xFFFFFFFFFFFFFFFFFFFFFFFFFFFFFFFFFFFFFFFF AND PUSH1 0x0 DUP3 DUP2 SLOAD DUP2 LT PUSH2 0x187 JUMPI INVALID JUMPDEST SWAP1 PUSH1 0x0 MSTORE PUSH1 0x20 PUSH1 0x0 KECCAK256 ADD PUSH1 0x0 SWAP1 SLOAD SWAP1 PUSH2 0x100 EXP SWAP1 DIV PUSH20 0xFFFFFFFFFFFFFFFFFFFFFFFFFFFFFFFFFFFFFFFF AND PUSH20 0xFFFFFFFFFFFFFFFFFFFFFFFFFFFFFFFFFFFFFFFF AND EQ ISZERO PUSH2 0x1D3 JUMPI PUSH1 0x1 SWAP2 POP JUMPDEST DUP1 DUP1 PUSH1 0x1 ADD SWAP2 POP POP PUSH2 0x156 JUMP JUMPDEST POP PUSH1 0x1 ISZERO ISZERO DUP2 ISZERO ISZERO EQ PUSH2 0x1F2 JUMPI PUSH1 0x0 DUP1 REVERT JUMPDEST PUSH32 0x99C4EC4ECFC26F7C8B27AEEE5443F92120FA2C4E91BA6020369AE71A4D44278 PUSH1 0x2 DUP1 SLOAD SWAP1 POP DUP5 CALLER DUP6 PUSH1 0x40 MLOAD PUSH2 0x22C SWAP5 SWAP4 SWAP3 SWAP2 SWAP1 PUSH2 0x9EE JUMP JUMPDEST PUSH1 0x40 MLOAD DUP1 SWAP2 SUB SWAP1 LOG1 PUSH1 0x2 PUSH1 0x40 MLOAD DUP1 PUSH1 0xA0 ADD PUSH1 0x40 MSTORE DUP1 DUP6 DUP2 MSTORE PUSH1 0x20 ADD DUP5 PUSH20 0xFFFFFFFFFFFFFFFFFFFFFFFFFFFFFFFFFFFFFFFF AND DUP2 MSTORE PUSH1 0x20 ADD PUSH1 0x0 DUP2 MSTORE PUSH1 0x20 ADD PUSH1 0x0 ISZERO ISZERO DUP2 MSTORE PUSH1 0x20 ADD PUSH1 0x2 DUP1 SLOAD SWAP1 POP DUP2 MSTORE POP SWAP1 DUP1 PUSH1 0x1 DUP2 SLOAD ADD DUP1 DUP3 SSTORE DUP1 SWAP2 POP POP PUSH1 0x1 SWAP1 SUB SWAP1 PUSH1 0x0 MSTORE PUSH1 0x20 PUSH1 0x0 KECCAK256 SWAP1 PUSH1 0x5 MUL ADD PUSH1 0x0 SWAP1 SWAP2 SWAP1 SWAP2 SWAP1 SWAP2 POP PUSH1 0x0 DUP3 ADD MLOAD DUP2 PUSH1 0x0 ADD SSTORE PUSH1 0x20 DUP3 ADD MLOAD DUP2 PUSH1 0x1 ADD PUSH1 0x0 PUSH2 0x100 EXP DUP2 SLOAD DUP2 PUSH20 0xFFFFFFFFFFFFFFFFFFFFFFFFFFFFFFFFFFFFFFFF MUL NOT AND SWAP1 DUP4 PUSH20 0xFFFFFFFFFFFFFFFFFFFFFFFFFFFFFFFFFFFFFFFF AND MUL OR SWAP1 SSTORE POP PUSH1 0x40 DUP3 ADD MLOAD DUP2 PUSH1 0x2 ADD SSTORE PUSH1 0x60 DUP3 ADD MLOAD DUP2 PUSH1 0x3 ADD PUSH1 0x0 PUSH2 0x100 EXP DUP2 SLOAD DUP2 PUSH1 0xFF MUL NOT AND SWAP1 DUP4 ISZERO ISZERO MUL OR SWAP1 SSTORE POP PUSH1 0x80 DUP3 ADD MLOAD DUP2 PUSH1 0x4 ADD SSTORE POP POP POP POP POP JUMP JUMPDEST PUSH1 0x60 PUSH1 0x2 DUP1 SLOAD DUP1 PUSH1 0x20 MUL PUSH1 0x20 ADD PUSH1 0x40 MLOAD SWAP1 DUP2 ADD PUSH1 0x40 MSTORE DUP1 SWAP3 SWAP2 SWAP1 DUP2 DUP2 MSTORE PUSH1 0x20 ADD PUSH1 0x0 SWAP1 JUMPDEST DUP3 DUP3 LT ISZERO PUSH2 0x416 JUMPI DUP4 DUP3 SWAP1 PUSH1 0x0 MSTORE PUSH1 0x20 PUSH1 0x0 KECCAK256 SWAP1 PUSH1 0x5 MUL ADD PUSH1 0x40 MLOAD DUP1 PUSH1 0xA0 ADD PUSH1 0x40 MSTORE SWAP1 DUP2 PUSH1 0x0 DUP3 ADD SLOAD DUP2 MSTORE PUSH1 0x20 ADD PUSH1 0x1 DUP3 ADD PUSH1 0x0 SWAP1 SLOAD SWAP1 PUSH2 0x100 EXP SWAP1 DIV PUSH20 0xFFFFFFFFFFFFFFFFFFFFFFFFFFFFFFFFFFFFFFFF AND PUSH20 0xFFFFFFFFFFFFFFFFFFFFFFFFFFFFFFFFFFFFFFFF AND PUSH20 0xFFFFFFFFFFFFFFFFFFFFFFFFFFFFFFFFFFFFFFFF AND DUP2 MSTORE PUSH1 0x20 ADD PUSH1 0x2 DUP3 ADD SLOAD DUP2 MSTORE PUSH1 0x20 ADD PUSH1 0x3 DUP3 ADD PUSH1 0x0 SWAP1 SLOAD SWAP1 PUSH2 0x100 EXP SWAP1 DIV PUSH1 0xFF AND ISZERO ISZERO ISZERO ISZERO DUP2 MSTORE PUSH1 0x20 ADD PUSH1 0x4 DUP3 ADD SLOAD DUP2 MSTORE POP POP DUP2 MSTORE PUSH1 0x20 ADD SWAP1 PUSH1 0x1 ADD SWAP1 PUSH2 0x355 JUMP JUMPDEST POP POP POP POP SWAP1 POP SWAP1 JUMP JUMPDEST PUSH1 0x0 DUP1 JUMPDEST PUSH1 0x0 DUP1 SLOAD SWAP1 POP DUP2 LT ISZERO PUSH2 0x4AD JUMPI CALLER PUSH20 0xFFFFFFFFFFFFFFFFFFFFFFFFFFFFFFFFFFFFFFFF AND PUSH1 0x0 DUP3 DUP2 SLOAD DUP2 LT PUSH2 0x454 JUMPI INVALID JUMPDEST SWAP1 PUSH1 0x0 MSTORE PUSH1 0x20 PUSH1 0x0 KECCAK256 ADD PUSH1 0x0 SWAP1 SLOAD SWAP1 PUSH2 0x100 EXP SWAP1 DIV PUSH20 0xFFFFFFFFFFFFFFFFFFFFFFFFFFFFFFFFFFFFFFFF AND PUSH20 0xFFFFFFFFFFFFFFFFFFFFFFFFFFFFFFFFFFFFFFFF AND EQ ISZERO PUSH2 0x4A0 JUMPI PUSH1 0x1 SWAP2 POP JUMPDEST DUP1 DUP1 PUSH1 0x1 ADD SWAP2 POP POP PUSH2 0x423 JUMP JUMPDEST POP PUSH1 0x1 ISZERO ISZERO DUP2 ISZERO ISZERO EQ PUSH2 0x4BF JUMPI PUSH1 0x0 DUP1 REVERT JUMPDEST PUSH1 0x0 ISZERO ISZERO PUSH1 0x3 PUSH1 0x0 CALLER PUSH20 0xFFFFFFFFFFFFFFFFFFFFFFFFFFFFFFFFFFFFFFFF AND PUSH20 0xFFFFFFFFFFFFFFFFFFFFFFFFFFFFFFFFFFFFFFFF AND DUP2 MSTORE PUSH1 0x20 ADD SWAP1 DUP2 MSTORE PUSH1 0x20 ADD PUSH1 0x0 KECCAK256 PUSH1 0x0 DUP5 DUP2 MSTORE PUSH1 0x20 ADD SWAP1 DUP2 MSTORE PUSH1 0x20 ADD PUSH1 0x0 KECCAK256 PUSH1 0x0 SWAP1 SLOAD SWAP1 PUSH2 0x100 EXP SWAP1 DIV PUSH1 0xFF AND ISZERO ISZERO EQ PUSH2 0x52D JUMPI PUSH1 0x0 DUP1 REVERT JUMPDEST PUSH1 0x0 ISZERO ISZERO PUSH1 0x2 DUP4 DUP2 SLOAD DUP2 LT PUSH2 0x53E JUMPI INVALID JUMPDEST SWAP1 PUSH1 0x0 MSTORE PUSH1 0x20 PUSH1 0x0 KECCAK256 SWAP1 PUSH1 0x5 MUL ADD PUSH1 0x3 ADD PUSH1 0x0 SWAP1 SLOAD SWAP1 PUSH2 0x100 EXP SWAP1 DIV PUSH1 0xFF AND ISZERO ISZERO EQ PUSH2 0x569 JUMPI PUSH1 0x0 DUP1 REVERT JUMPDEST PUSH1 0x1 PUSH1 0x3 PUSH1 0x0 CALLER PUSH20 0xFFFFFFFFFFFFFFFFFFFFFFFFFFFFFFFFFFFFFFFF AND PUSH20 0xFFFFFFFFFFFFFFFFFFFFFFFFFFFFFFFFFFFFFFFF AND DUP2 MSTORE PUSH1 0x20 ADD SWAP1 DUP2 MSTORE PUSH1 0x20 ADD PUSH1 0x0 KECCAK256 PUSH1 0x0 DUP5 DUP2 MSTORE PUSH1 0x20 ADD SWAP1 DUP2 MSTORE PUSH1 0x20 ADD PUSH1 0x0 KECCAK256 PUSH1 0x0 PUSH2 0x100 EXP DUP2 SLOAD DUP2 PUSH1 0xFF MUL NOT AND SWAP1 DUP4 ISZERO ISZERO MUL OR SWAP1 SSTORE POP PUSH1 0x2 DUP3 DUP2 SLOAD DUP2 LT PUSH2 0x5DF JUMPI INVALID JUMPDEST SWAP1 PUSH1 0x0 MSTORE PUSH1 0x20 PUSH1 0x0 KECCAK256 SWAP1 PUSH1 0x5 MUL ADD PUSH1 0x2 ADD PUSH1 0x0 DUP2 SLOAD DUP1 SWAP3 SWAP2 SWAP1 PUSH1 0x1 ADD SWAP2 SWAP1 POP SSTORE POP PUSH32 0xFEC9D12D15EE8C8B836A58347CB0D4980DB38411BCD0B83662CEE48FB20B6DEE DUP3 PUSH1 0x2 DUP5 DUP2 SLOAD DUP2 LT PUSH2 0x62F JUMPI INVALID JUMPDEST SWAP1 PUSH1 0x0 MSTORE PUSH1 0x20 PUSH1 0x0 KECCAK256 SWAP1 PUSH1 0x5 MUL ADD PUSH1 0x2 ADD SLOAD CALLER PUSH1 0x40 MLOAD PUSH2 0x651 SWAP4 SWAP3 SWAP2 SWAP1 PUSH2 0x9B7 JUMP JUMPDEST PUSH1 0x40 MLOAD DUP1 SWAP2 SUB SWAP1 LOG1 PUSH1 0x1 SLOAD PUSH1 0x2 DUP4 DUP2 SLOAD DUP2 LT PUSH2 0x669 JUMPI INVALID JUMPDEST SWAP1 PUSH1 0x0 MSTORE PUSH1 0x20 PUSH1 0x0 KECCAK256 SWAP1 PUSH1 0x5 MUL ADD PUSH1 0x2 ADD SLOAD LT PUSH2 0x792 JUMPI PUSH1 0x1 PUSH1 0x2 DUP4 DUP2 SLOAD DUP2 LT PUSH2 0x68F JUMPI INVALID JUMPDEST SWAP1 PUSH1 0x0 MSTORE PUSH1 0x20 PUSH1 0x0 KECCAK256 SWAP1 PUSH1 0x5 MUL ADD PUSH1 0x3 ADD PUSH1 0x0 PUSH2 0x100 EXP DUP2 SLOAD DUP2 PUSH1 0xFF MUL NOT AND SWAP1 DUP4 ISZERO ISZERO MUL OR SWAP1 SSTORE POP PUSH1 0x2 DUP3 DUP2 SLOAD DUP2 LT PUSH2 0x6C4 JUMPI INVALID JUMPDEST SWAP1 PUSH1 0x0 MSTORE PUSH1 0x20 PUSH1 0x0 KECCAK256 SWAP1 PUSH1 0x5 MUL ADD PUSH1 0x1 ADD PUSH1 0x0 SWAP1 SLOAD SWAP1 PUSH2 0x100 EXP SWAP1 DIV PUSH20 0xFFFFFFFFFFFFFFFFFFFFFFFFFFFFFFFFFFFFFFFF AND PUSH20 0xFFFFFFFFFFFFFFFFFFFFFFFFFFFFFFFFFFFFFFFF AND PUSH2 0x8FC PUSH1 0x2 DUP5 DUP2 SLOAD DUP2 LT PUSH2 0x71C JUMPI INVALID JUMPDEST SWAP1 PUSH1 0x0 MSTORE PUSH1 0x20 PUSH1 0x0 KECCAK256 SWAP1 PUSH1 0x5 MUL ADD PUSH1 0x0 ADD SLOAD SWAP1 DUP2 ISZERO MUL SWAP1 PUSH1 0x40 MLOAD PUSH1 0x0 PUSH1 0x40 MLOAD DUP1 DUP4 SUB DUP2 DUP6 DUP9 DUP9 CALL SWAP4 POP POP POP POP ISZERO DUP1 ISZERO PUSH2 0x759 JUMPI RETURNDATASIZE PUSH1 0x0 DUP1 RETURNDATACOPY RETURNDATASIZE PUSH1 0x0 REVERT JUMPDEST POP PUSH32 0xD9BBF1D8BEF570B7E92EF1BA025425FC15915AE01F3D3BE144CDC8BE05442EB5 DUP3 PUSH1 0x40 MLOAD PUSH2 0x789 SWAP2 SWAP1 PUSH2 0x99C JUMP JUMPDEST PUSH1 0x40 MLOAD DUP1 SWAP2 SUB SWAP1 LOG1 JUMPDEST POP POP JUMP JUMPDEST JUMP JUMPDEST PUSH1 0x0 DUP2 CALLDATALOAD SWAP1 POP PUSH2 0x7A7 DUP2 PUSH2 0xAFC JUMP JUMPDEST SWAP3 SWAP2 POP POP JUMP JUMPDEST PUSH1 0x0 DUP2 CALLDATALOAD SWAP1 POP PUSH2 0x7BC DUP2 PUSH2 0xB13 JUMP JUMPDEST SWAP3 SWAP2 POP POP JUMP JUMPDEST PUSH1 0x0 PUSH1 0x20 DUP3 DUP5 SUB SLT ISZERO PUSH2 0x7D4 JUMPI PUSH1 0x0 DUP1 REVERT JUMPDEST PUSH1 0x0 PUSH2 0x7E2 DUP5 DUP3 DUP6 ADD PUSH2 0x7AD JUMP JUMPDEST SWAP2 POP POP SWAP3 SWAP2 POP POP JUMP JUMPDEST PUSH1 0x0 DUP1 PUSH1 0x40 DUP4 DUP6 SUB SLT ISZERO PUSH2 0x7FE JUMPI PUSH1 0x0 DUP1 REVERT JUMPDEST PUSH1 0x0 PUSH2 0x80C DUP6 DUP3 DUP7 ADD PUSH2 0x7AD JUMP JUMPDEST SWAP3 POP POP PUSH1 0x20 PUSH2 0x81D DUP6 DUP3 DUP7 ADD PUSH2 0x798 JUMP JUMPDEST SWAP2 POP POP SWAP3 POP SWAP3 SWAP1 POP JUMP JUMPDEST PUSH1 0x0 PUSH2 0x833 DUP4 DUP4 PUSH2 0x8D9 JUMP JUMPDEST PUSH1 0xA0 DUP4 ADD SWAP1 POP SWAP3 SWAP2 POP POP JUMP JUMPDEST PUSH2 0x848 DUP2 PUSH2 0xAC6 JUMP JUMPDEST DUP3 MSTORE POP POP JUMP JUMPDEST PUSH2 0x857 DUP2 PUSH2 0xA7E JUMP JUMPDEST DUP3 MSTORE POP POP JUMP JUMPDEST PUSH2 0x866 DUP2 PUSH2 0xA6C JUMP JUMPDEST DUP3 MSTORE POP POP JUMP JUMPDEST PUSH1 0x0 PUSH2 0x877 DUP3 PUSH2 0xA43 JUMP JUMPDEST PUSH2 0x881 DUP2 DUP6 PUSH2 0xA5B JUMP JUMPDEST SWAP4 POP PUSH2 0x88C DUP4 PUSH2 0xA33 JUMP JUMPDEST DUP1 PUSH1 0x0 JUMPDEST DUP4 DUP2 LT ISZERO PUSH2 0x8BD JUMPI DUP2 MLOAD PUSH2 0x8A4 DUP9 DUP3 PUSH2 0x827 JUMP JUMPDEST SWAP8 POP PUSH2 0x8AF DUP4 PUSH2 0xA4E JUMP JUMPDEST SWAP3 POP POP PUSH1 0x1 DUP2 ADD SWAP1 POP PUSH2 0x890 JUMP JUMPDEST POP DUP6 SWAP4 POP POP POP POP SWAP3 SWAP2 POP POP JUMP JUMPDEST PUSH2 0x8D3 DUP2 PUSH2 0xA90 JUMP JUMPDEST DUP3 MSTORE POP POP JUMP JUMPDEST PUSH1 0xA0 DUP3 ADD PUSH1 0x0 DUP3 ADD MLOAD PUSH2 0x8EF PUSH1 0x0 DUP6 ADD DUP3 PUSH2 0x941 JUMP JUMPDEST POP PUSH1 0x20 DUP3 ADD MLOAD PUSH2 0x902 PUSH1 0x20 DUP6 ADD DUP3 PUSH2 0x84E JUMP JUMPDEST POP PUSH1 0x40 DUP3 ADD MLOAD PUSH2 0x915 PUSH1 0x40 DUP6 ADD DUP3 PUSH2 0x941 JUMP JUMPDEST POP PUSH1 0x60 DUP3 ADD MLOAD PUSH2 0x928 PUSH1 0x60 DUP6 ADD DUP3 PUSH2 0x8CA JUMP JUMPDEST POP PUSH1 0x80 DUP3 ADD MLOAD PUSH2 0x93B PUSH1 0x80 DUP6 ADD DUP3 PUSH2 0x941 JUMP JUMPDEST POP POP POP POP JUMP JUMPDEST PUSH2 0x94A DUP2 PUSH2 0xABC JUMP JUMPDEST DUP3 MSTORE POP POP JUMP JUMPDEST PUSH2 0x959 DUP2 PUSH2 0xABC JUMP JUMPDEST DUP3 MSTORE POP POP JUMP JUMPDEST PUSH1 0x0 PUSH1 0x20 DUP3 ADD SWAP1 POP PUSH2 0x974 PUSH1 0x0 DUP4 ADD DUP5 PUSH2 0x85D JUMP JUMPDEST SWAP3 SWAP2 POP POP JUMP JUMPDEST PUSH1 0x0 PUSH1 0x20 DUP3 ADD SWAP1 POP DUP2 DUP2 SUB PUSH1 0x0 DUP4 ADD MSTORE PUSH2 0x994 DUP2 DUP5 PUSH2 0x86C JUMP JUMPDEST SWAP1 POP SWAP3 SWAP2 POP POP JUMP JUMPDEST PUSH1 0x0 PUSH1 0x20 DUP3 ADD SWAP1 POP PUSH2 0x9B1 PUSH1 0x0 DUP4 ADD DUP5 PUSH2 0x950 JUMP JUMPDEST SWAP3 SWAP2 POP POP JUMP JUMPDEST PUSH1 0x0 PUSH1 0x60 DUP3 ADD SWAP1 POP PUSH2 0x9CC PUSH1 0x0 DUP4 ADD DUP7 PUSH2 0x950 JUMP JUMPDEST PUSH2 0x9D9 PUSH1 0x20 DUP4 ADD DUP6 PUSH2 0x950 JUMP JUMPDEST PUSH2 0x9E6 PUSH1 0x40 DUP4 ADD DUP5 PUSH2 0x83F JUMP JUMPDEST SWAP5 SWAP4 POP POP POP POP JUMP JUMPDEST PUSH1 0x0 PUSH1 0x80 DUP3 ADD SWAP1 POP PUSH2 0xA03 PUSH1 0x0 DUP4 ADD DUP8 PUSH2 0x950 JUMP JUMPDEST PUSH2 0xA10 PUSH1 0x20 DUP4 ADD DUP7 PUSH2 0x950 JUMP JUMPDEST PUSH2 0xA1D PUSH1 0x40 DUP4 ADD DUP6 PUSH2 0x83F JUMP JUMPDEST PUSH2 0xA2A PUSH1 0x60 DUP4 ADD DUP5 PUSH2 0x83F JUMP JUMPDEST SWAP6 SWAP5 POP POP POP POP POP JUMP JUMPDEST PUSH1 0x0 DUP2 SWAP1 POP PUSH1 0x20 DUP3 ADD SWAP1 POP SWAP2 SWAP1 POP JUMP JUMPDEST PUSH1 0x0 DUP2 MLOAD SWAP1 POP SWAP2 SWAP1 POP JUMP JUMPDEST PUSH1 0x0 PUSH1 0x20 DUP3 ADD SWAP1 POP SWAP2 SWAP1 POP JUMP JUMPDEST PUSH1 0x0 DUP3 DUP3 MSTORE PUSH1 0x20 DUP3 ADD SWAP1 POP SWAP3 SWAP2 POP POP JUMP JUMPDEST PUSH1 0x0 PUSH2 0xA77 DUP3 PUSH2 0xA9C JUMP JUMPDEST SWAP1 POP SWAP2 SWAP1 POP JUMP JUMPDEST PUSH1 0x0 PUSH2 0xA89 DUP3 PUSH2 0xA9C JUMP JUMPDEST SWAP1 POP SWAP2 SWAP1 POP JUMP JUMPDEST PUSH1 0x0 DUP2 ISZERO ISZERO SWAP1 POP SWAP2 SWAP1 POP JUMP JUMPDEST PUSH1 0x0 PUSH20 0xFFFFFFFFFFFFFFFFFFFFFFFFFFFFFFFFFFFFFFFF DUP3 AND SWAP1 POP SWAP2 SWAP1 POP JUMP JUMPDEST PUSH1 0x0 DUP2 SWAP1 POP SWAP2 SWAP1 POP JUMP JUMPDEST PUSH1 0x0 PUSH2 0xAD1 DUP3 PUSH2 0xAD8 JUMP JUMPDEST SWAP1 POP SWAP2 SWAP1 POP JUMP JUMPDEST PUSH1 0x0 PUSH2 0xAE3 DUP3 PUSH2 0xAEA JUMP JUMPDEST SWAP1 POP SWAP2 SWAP1 POP JUMP JUMPDEST PUSH1 0x0 PUSH2 0xAF5 DUP3 PUSH2 0xA9C JUMP JUMPDEST SWAP1 POP SWAP2 SWAP1 POP JUMP JUMPDEST PUSH2 0xB05 DUP2 PUSH2 0xA7E JUMP JUMPDEST DUP2 EQ PUSH2 0xB10 JUMPI PUSH1 0x0 DUP1 REVERT JUMPDEST POP JUMP JUMPDEST PUSH2 0xB1C DUP2 PUSH2 0xABC JUMP JUMPDEST DUP2 EQ PUSH2 0xB27 JUMPI PUSH1 0x0 DUP1 REVERT JUMPDEST POP JUMP INVALID LOG2 PUSH5 0x6970667358 0x22 SLT KECCAK256 0x48 0x5F 0xB6 PUSH5 0x3871054F37 JUMP DUP13 GAS BYTE PUSH28 0x92A2E22E1B0B096D299A9DAE9276B000EFC564736F6C634300070500 CALLER "
				},
				"gasEstimates": {
					"creation": {
						"codeDepositCost": "582400",
						"executionCost": "infinite",
						"totalCost": "infinite"
					},
					"external": {
						"approve(uint256)": "infinite",
						"createTransfer(uint256,address)": "infinite",
						"deposit()": "186",
						"getTransferRequests()": "infinite",
						"owners(uint256)": "2334"
					}
				},
				"methodIdentifiers": {
					"approve(uint256)": "b759f954",
					"createTransfer(uint256,address)": "4c12fa47",
					"deposit()": "d0e30db0",
					"getTransferRequests()": "a04ef145",
					"owners(uint256)": "025e7c27"
				}
			},
			"userdoc": {
				"kind": "user",
				"methods": {},
				"version": 1
			}
		}
	}
}