{
	"ETH-Remix/HungerGames/HungerGames.sol": {
		"HungerGames": {
			"abi": [
				{
					"inputs": [
						{
							"internalType": "uint256",
							"name": "_id",
							"type": "uint256"
						},
						{
							"internalType": "uint256",
							"name": "_age",
							"type": "uint256"
						},
						{
							"internalType": "string",
							"name": "_name",
							"type": "string"
						},
						{
							"internalType": "uint256",
							"name": "_weight",
							"type": "uint256"
						},
						{
							"internalType": "uint256",
							"name": "_month",
							"type": "uint256"
						},
						{
							"internalType": "uint256",
							"name": "_investedmoney",
							"type": "uint256"
						}
					],
					"name": "addPerson",
					"outputs": [],
					"stateMutability": "nonpayable",
					"type": "function"
				},
				{
					"inputs": [
						{
							"internalType": "uint256",
							"name": "_index",
							"type": "uint256"
						}
					],
					"name": "getPerson",
					"outputs": [
						{
							"internalType": "uint256",
							"name": "",
							"type": "uint256"
						},
						{
							"internalType": "uint256",
							"name": "",
							"type": "uint256"
						},
						{
							"internalType": "string",
							"name": "",
							"type": "string"
						},
						{
							"internalType": "uint256",
							"name": "",
							"type": "uint256"
						},
						{
							"internalType": "uint256",
							"name": "",
							"type": "uint256"
						},
						{
							"internalType": "uint256",
							"name": "",
							"type": "uint256"
						}
					],
					"stateMutability": "view",
					"type": "function"
				},
				{
					"inputs": [],
					"name": "owner",
					"outputs": [
						{
							"internalType": "address",
							"name": "",
							"type": "address"
						}
					],
					"stateMutability": "view",
					"type": "function"
				},
				{
					"inputs": [
						{
							"internalType": "uint256",
							"name": "",
							"type": "uint256"
						}
					],
					"name": "people",
					"outputs": [
						{
							"internalType": "uint256",
							"name": "_id",
							"type": "uint256"
						},
						{
							"internalType": "uint256",
							"name": "_age",
							"type": "uint256"
						},
						{
							"internalType": "string",
							"name": "_name",
							"type": "string"
						},
						{
							"internalType": "uint256",
							"name": "_weight",
							"type": "uint256"
						},
						{
							"internalType": "uint256",
							"name": "_month",
							"type": "uint256"
						},
						{
							"internalType": "uint256",
							"name": "_investedmoney",
							"type": "uint256"
						}
					],
					"stateMutability": "view",
					"type": "function"
				},
				{
					"inputs": [],
					"name": "peopleCount",
					"outputs": [
						{
							"internalType": "uint256",
							"name": "",
							"type": "uint256"
						}
					],
					"stateMutability": "view",
					"type": "function"
				}
			],
			"devdoc": {
				"kind": "dev",
				"methods": {},
				"version": 1
			},
			"evm": {
				"assembly": "    /* \"ETH-Remix/HungerGames/HungerGames.sol\":421:1606  contract HungerGames is Ownable {... */\n  mstore(0x40, 0x80)\n    /* \"ETH-Remix/HungerGames/HungerGames.sol\":514:515  0 */\n  0x00\n    /* \"ETH-Remix/HungerGames/HungerGames.sol\":485:515  uint256 public peopleCount = 0 */\n  0x01\n  sstore\n    /* \"ETH-Remix/HungerGames/HungerGames.sol\":421:1606  contract HungerGames is Ownable {... */\n  callvalue\n  dup1\n  iszero\n  tag_1\n  jumpi\n  0x00\n  dup1\n  revert\ntag_1:\n  pop\n    /* \"ETH-Remix/HungerGames/Ownable.sol\":262:272  msg.sender */\n  caller\n    /* \"ETH-Remix/HungerGames/Ownable.sol\":254:259  owner */\n  0x00\n  dup1\n    /* \"ETH-Remix/HungerGames/Ownable.sol\":254:272  owner = msg.sender */\n  0x0100\n  exp\n  dup2\n  sload\n  dup2\n  0xffffffffffffffffffffffffffffffffffffffff\n  mul\n  not\n  and\n  swap1\n  dup4\n  0xffffffffffffffffffffffffffffffffffffffff\n  and\n  mul\n  or\n  swap1\n  sstore\n  pop\n    /* \"ETH-Remix/HungerGames/HungerGames.sol\":421:1606  contract HungerGames is Ownable {... */\n  dataSize(sub_0)\n  dup1\n  dataOffset(sub_0)\n  0x00\n  codecopy\n  0x00\n  return\nstop\n\nsub_0: assembly {\n        /* \"ETH-Remix/HungerGames/HungerGames.sol\":421:1606  contract HungerGames is Ownable {... */\n      mstore(0x40, 0x80)\n      callvalue\n      dup1\n      iszero\n      tag_1\n      jumpi\n      0x00\n      dup1\n      revert\n    tag_1:\n      pop\n      jumpi(tag_2, lt(calldatasize, 0x04))\n      shr(0xe0, calldataload(0x00))\n      dup1\n      0x246982c4\n      eq\n      tag_3\n      jumpi\n      dup1\n      0x267c68e0\n      eq\n      tag_4\n      jumpi\n      dup1\n      0x2d74e28a\n      eq\n      tag_5\n      jumpi\n      dup1\n      0x8da5cb5b\n      eq\n      tag_6\n      jumpi\n      dup1\n      0x9e7a13ad\n      eq\n      tag_7\n      jumpi\n    tag_2:\n      0x00\n      dup1\n      revert\n        /* \"ETH-Remix/HungerGames/HungerGames.sol\":1258:1599  function getPerson(uint _index) public view returns (uint, uint, string memory, uint, uint, uint) {... */\n    tag_3:\n      tag_8\n      0x04\n      dup1\n      calldatasize\n      sub\n      dup2\n      add\n      swap1\n      tag_9\n      swap2\n      swap1\n      tag_10\n      jump\t// in\n    tag_9:\n      tag_11\n      jump\t// in\n    tag_8:\n      mload(0x40)\n      tag_12\n      swap7\n      swap6\n      swap5\n      swap4\n      swap3\n      swap2\n      swap1\n      tag_13\n      jump\t// in\n    tag_12:\n      mload(0x40)\n      dup1\n      swap2\n      sub\n      swap1\n      return\n        /* \"ETH-Remix/HungerGames/HungerGames.sol\":485:515  uint256 public peopleCount = 0 */\n    tag_4:\n      tag_14\n      tag_15\n      jump\t// in\n    tag_14:\n      mload(0x40)\n      tag_16\n      swap2\n      swap1\n      tag_17\n      jump\t// in\n    tag_16:\n      mload(0x40)\n      dup1\n      swap2\n      sub\n      swap1\n      return\n        /* \"ETH-Remix/HungerGames/HungerGames.sol\":914:1172  function addPerson(uint _id, uint _age, string memory _name, uint _weight, uint _month, uint _investedmoney)... */\n    tag_5:\n      tag_18\n      0x04\n      dup1\n      calldatasize\n      sub\n      dup2\n      add\n      swap1\n      tag_19\n      swap2\n      swap1\n      tag_20\n      jump\t// in\n    tag_19:\n      tag_21\n      jump\t// in\n    tag_18:\n      stop\n        /* \"ETH-Remix/HungerGames/Ownable.sol\":92:112  address public owner */\n    tag_6:\n      tag_22\n      tag_23\n      jump\t// in\n    tag_22:\n      mload(0x40)\n      tag_24\n      swap2\n      swap1\n      tag_25\n      jump\t// in\n    tag_24:\n      mload(0x40)\n      dup1\n      swap2\n      sub\n      swap1\n      return\n        /* \"ETH-Remix/HungerGames/HungerGames.sol\":524:561  mapping(uint => Person) public people */\n    tag_7:\n      tag_26\n      0x04\n      dup1\n      calldatasize\n      sub\n      dup2\n      add\n      swap1\n      tag_27\n      swap2\n      swap1\n      tag_10\n      jump\t// in\n    tag_27:\n      tag_28\n      jump\t// in\n    tag_26:\n      mload(0x40)\n      tag_29\n      swap7\n      swap6\n      swap5\n      swap4\n      swap3\n      swap2\n      swap1\n      tag_13\n      jump\t// in\n    tag_29:\n      mload(0x40)\n      dup1\n      swap2\n      sub\n      swap1\n      return\n        /* \"ETH-Remix/HungerGames/HungerGames.sol\":1258:1599  function getPerson(uint _index) public view returns (uint, uint, string memory, uint, uint, uint) {... */\n    tag_11:\n        /* \"ETH-Remix/HungerGames/HungerGames.sol\":1311:1315  uint */\n      0x00\n        /* \"ETH-Remix/HungerGames/HungerGames.sol\":1317:1321  uint */\n      dup1\n        /* \"ETH-Remix/HungerGames/HungerGames.sol\":1323:1336  string memory */\n      0x60\n        /* \"ETH-Remix/HungerGames/HungerGames.sol\":1338:1342  uint */\n      0x00\n        /* \"ETH-Remix/HungerGames/HungerGames.sol\":1344:1348  uint */\n      dup1\n        /* \"ETH-Remix/HungerGames/HungerGames.sol\":1350:1354  uint */\n      0x00\n        /* \"ETH-Remix/HungerGames/HungerGames.sol\":1367:1395  Person memory personToReturn */\n      dup1\n        /* \"ETH-Remix/HungerGames/HungerGames.sol\":1398:1404  people */\n      0x02\n        /* \"ETH-Remix/HungerGames/HungerGames.sol\":1398:1412  people[_index] */\n      0x00\n        /* \"ETH-Remix/HungerGames/HungerGames.sol\":1405:1411  _index */\n      dup10\n        /* \"ETH-Remix/HungerGames/HungerGames.sol\":1398:1412  people[_index] */\n      dup2\n      mstore\n      0x20\n      add\n      swap1\n      dup2\n      mstore\n      0x20\n      add\n      0x00\n      keccak256\n        /* \"ETH-Remix/HungerGames/HungerGames.sol\":1367:1412  Person memory personToReturn = people[_index] */\n      mload(0x40)\n      dup1\n      0xc0\n      add\n      0x40\n      mstore\n      swap1\n      dup2\n      0x00\n      dup3\n      add\n      sload\n      dup2\n      mstore\n      0x20\n      add\n      0x01\n      dup3\n      add\n      sload\n      dup2\n      mstore\n      0x20\n      add\n      0x02\n      dup3\n      add\n      dup1\n      sload\n      tag_31\n      swap1\n      tag_32\n      jump\t// in\n    tag_31:\n      dup1\n      0x1f\n      add\n      0x20\n      dup1\n      swap2\n      div\n      mul\n      0x20\n      add\n      mload(0x40)\n      swap1\n      dup2\n      add\n      0x40\n      mstore\n      dup1\n      swap3\n      swap2\n      swap1\n      dup2\n      dup2\n      mstore\n      0x20\n      add\n      dup3\n      dup1\n      sload\n      tag_33\n      swap1\n      tag_32\n      jump\t// in\n    tag_33:\n      dup1\n      iszero\n      tag_34\n      jumpi\n      dup1\n      0x1f\n      lt\n      tag_35\n      jumpi\n      0x0100\n      dup1\n      dup4\n      sload\n      div\n      mul\n      dup4\n      mstore\n      swap2\n      0x20\n      add\n      swap2\n      jump(tag_34)\n    tag_35:\n      dup3\n      add\n      swap2\n      swap1\n      0x00\n      mstore\n      keccak256(0x00, 0x20)\n      swap1\n    tag_36:\n      dup2\n      sload\n      dup2\n      mstore\n      swap1\n      0x01\n      add\n      swap1\n      0x20\n      add\n      dup1\n      dup4\n      gt\n      tag_36\n      jumpi\n      dup3\n      swap1\n      sub\n      0x1f\n      and\n      dup3\n      add\n      swap2\n    tag_34:\n      pop\n      pop\n      pop\n      pop\n      pop\n      dup2\n      mstore\n      0x20\n      add\n      0x03\n      dup3\n      add\n      sload\n      dup2\n      mstore\n      0x20\n      add\n      0x04\n      dup3\n      add\n      sload\n      dup2\n      mstore\n      0x20\n      add\n      0x05\n      dup3\n      add\n      sload\n      dup2\n      mstore\n      pop\n      pop\n      swap1\n      pop\n        /* \"ETH-Remix/HungerGames/HungerGames.sol\":1431:1445  personToReturn */\n      dup1\n        /* \"ETH-Remix/HungerGames/HungerGames.sol\":1431:1449  personToReturn._id */\n      0x00\n      add\n      mload\n        /* \"ETH-Remix/HungerGames/HungerGames.sol\":1451:1465  personToReturn */\n      dup2\n        /* \"ETH-Remix/HungerGames/HungerGames.sol\":1451:1470  personToReturn._age */\n      0x20\n      add\n      mload\n        /* \"ETH-Remix/HungerGames/HungerGames.sol\":1472:1486  personToReturn */\n      dup3\n        /* \"ETH-Remix/HungerGames/HungerGames.sol\":1472:1492  personToReturn._name */\n      0x40\n      add\n      mload\n        /* \"ETH-Remix/HungerGames/HungerGames.sol\":1494:1508  personToReturn */\n      dup4\n        /* \"ETH-Remix/HungerGames/HungerGames.sol\":1494:1516  personToReturn._weight */\n      0x60\n      add\n      mload\n        /* \"ETH-Remix/HungerGames/HungerGames.sol\":1528:1542  personToReturn */\n      dup5\n        /* \"ETH-Remix/HungerGames/HungerGames.sol\":1528:1549  personToReturn._month */\n      0x80\n      add\n      mload\n        /* \"ETH-Remix/HungerGames/HungerGames.sol\":1551:1565  personToReturn */\n      dup6\n        /* \"ETH-Remix/HungerGames/HungerGames.sol\":1551:1580  personToReturn._investedmoney */\n      0xa0\n      add\n      mload\n        /* \"ETH-Remix/HungerGames/HungerGames.sol\":1423:1581  return (personToReturn._id, personToReturn._age, personToReturn._name, personToReturn._weight, ... */\n      swap7\n      pop\n      swap7\n      pop\n      swap7\n      pop\n      swap7\n      pop\n      swap7\n      pop\n      swap7\n      pop\n      pop\n        /* \"ETH-Remix/HungerGames/HungerGames.sol\":1258:1599  function getPerson(uint _index) public view returns (uint, uint, string memory, uint, uint, uint) {... */\n      swap2\n      swap4\n      swap6\n      pop\n      swap2\n      swap4\n      swap6\n      jump\t// out\n        /* \"ETH-Remix/HungerGames/HungerGames.sol\":485:515  uint256 public peopleCount = 0 */\n    tag_15:\n      sload(0x01)\n      dup2\n      jump\t// out\n        /* \"ETH-Remix/HungerGames/HungerGames.sol\":914:1172  function addPerson(uint _id, uint _age, string memory _name, uint _weight, uint _month, uint _investedmoney)... */\n    tag_21:\n        /* \"ETH-Remix/HungerGames/Ownable.sol\":173:178  owner */\n      0x00\n      dup1\n      sload\n      swap1\n      0x0100\n      exp\n      swap1\n      div\n      0xffffffffffffffffffffffffffffffffffffffff\n      and\n        /* \"ETH-Remix/HungerGames/Ownable.sol\":159:178  msg.sender == owner */\n      0xffffffffffffffffffffffffffffffffffffffff\n      and\n        /* \"ETH-Remix/HungerGames/Ownable.sol\":159:169  msg.sender */\n      caller\n        /* \"ETH-Remix/HungerGames/Ownable.sol\":159:178  msg.sender == owner */\n      0xffffffffffffffffffffffffffffffffffffffff\n      and\n      eq\n        /* \"ETH-Remix/HungerGames/Ownable.sol\":151:179  require(msg.sender == owner) */\n      tag_38\n      jumpi\n      0x00\n      dup1\n      revert\n    tag_38:\n        /* \"ETH-Remix/HungerGames/HungerGames.sol\":1057:1073  incrementCount() */\n      tag_40\n        /* \"ETH-Remix/HungerGames/HungerGames.sol\":1057:1071  incrementCount */\n      tag_41\n        /* \"ETH-Remix/HungerGames/HungerGames.sol\":1057:1073  incrementCount() */\n      jump\t// in\n    tag_40:\n        /* \"ETH-Remix/HungerGames/HungerGames.sol\":1106:1164  Person(_id , _age, _name, _weight, _month, _investedmoney) */\n      mload(0x40)\n      dup1\n      0xc0\n      add\n      0x40\n      mstore\n      dup1\n        /* \"ETH-Remix/HungerGames/HungerGames.sol\":1113:1116  _id */\n      dup8\n        /* \"ETH-Remix/HungerGames/HungerGames.sol\":1106:1164  Person(_id , _age, _name, _weight, _month, _investedmoney) */\n      dup2\n      mstore\n      0x20\n      add\n        /* \"ETH-Remix/HungerGames/HungerGames.sol\":1119:1123  _age */\n      dup7\n        /* \"ETH-Remix/HungerGames/HungerGames.sol\":1106:1164  Person(_id , _age, _name, _weight, _month, _investedmoney) */\n      dup2\n      mstore\n      0x20\n      add\n        /* \"ETH-Remix/HungerGames/HungerGames.sol\":1125:1130  _name */\n      dup6\n        /* \"ETH-Remix/HungerGames/HungerGames.sol\":1106:1164  Person(_id , _age, _name, _weight, _month, _investedmoney) */\n      dup2\n      mstore\n      0x20\n      add\n        /* \"ETH-Remix/HungerGames/HungerGames.sol\":1132:1139  _weight */\n      dup5\n        /* \"ETH-Remix/HungerGames/HungerGames.sol\":1106:1164  Person(_id , _age, _name, _weight, _month, _investedmoney) */\n      dup2\n      mstore\n      0x20\n      add\n        /* \"ETH-Remix/HungerGames/HungerGames.sol\":1141:1147  _month */\n      dup4\n        /* \"ETH-Remix/HungerGames/HungerGames.sol\":1106:1164  Person(_id , _age, _name, _weight, _month, _investedmoney) */\n      dup2\n      mstore\n      0x20\n      add\n        /* \"ETH-Remix/HungerGames/HungerGames.sol\":1149:1163  _investedmoney */\n      dup3\n        /* \"ETH-Remix/HungerGames/HungerGames.sol\":1106:1164  Person(_id , _age, _name, _weight, _month, _investedmoney) */\n      dup2\n      mstore\n      pop\n        /* \"ETH-Remix/HungerGames/HungerGames.sol\":1084:1090  people */\n      0x02\n        /* \"ETH-Remix/HungerGames/HungerGames.sol\":1084:1103  people[peopleCount] */\n      0x00\n        /* \"ETH-Remix/HungerGames/HungerGames.sol\":1091:1102  peopleCount */\n      sload(0x01)\n        /* \"ETH-Remix/HungerGames/HungerGames.sol\":1084:1103  people[peopleCount] */\n      dup2\n      mstore\n      0x20\n      add\n      swap1\n      dup2\n      mstore\n      0x20\n      add\n      0x00\n      keccak256\n        /* \"ETH-Remix/HungerGames/HungerGames.sol\":1084:1164  people[peopleCount] = Person(_id , _age, _name, _weight, _month, _investedmoney) */\n      0x00\n      dup3\n      add\n      mload\n      dup2\n      0x00\n      add\n      sstore\n      0x20\n      dup3\n      add\n      mload\n      dup2\n      0x01\n      add\n      sstore\n      0x40\n      dup3\n      add\n      mload\n      dup2\n      0x02\n      add\n      swap1\n      dup1\n      mload\n      swap1\n      0x20\n      add\n      swap1\n      tag_42\n      swap3\n      swap2\n      swap1\n      tag_43\n      jump\t// in\n    tag_42:\n      pop\n      0x60\n      dup3\n      add\n      mload\n      dup2\n      0x03\n      add\n      sstore\n      0x80\n      dup3\n      add\n      mload\n      dup2\n      0x04\n      add\n      sstore\n      0xa0\n      dup3\n      add\n      mload\n      dup2\n      0x05\n      add\n      sstore\n      swap1\n      pop\n      pop\n        /* \"ETH-Remix/HungerGames/HungerGames.sol\":914:1172  function addPerson(uint _id, uint _age, string memory _name, uint _weight, uint _month, uint _investedmoney)... */\n      pop\n      pop\n      pop\n      pop\n      pop\n      pop\n      jump\t// out\n        /* \"ETH-Remix/HungerGames/Ownable.sol\":92:112  address public owner */\n    tag_23:\n      0x00\n      dup1\n      sload\n      swap1\n      0x0100\n      exp\n      swap1\n      div\n      0xffffffffffffffffffffffffffffffffffffffff\n      and\n      dup2\n      jump\t// out\n        /* \"ETH-Remix/HungerGames/HungerGames.sol\":524:561  mapping(uint => Person) public people */\n    tag_28:\n      mstore(0x20, 0x02)\n      dup1\n      0x00\n      mstore\n      keccak256(0x00, 0x40)\n      0x00\n      swap2\n      pop\n      swap1\n      pop\n      dup1\n      0x00\n      add\n      sload\n      swap1\n      dup1\n      0x01\n      add\n      sload\n      swap1\n      dup1\n      0x02\n      add\n      dup1\n      sload\n      tag_44\n      swap1\n      tag_32\n      jump\t// in\n    tag_44:\n      dup1\n      0x1f\n      add\n      0x20\n      dup1\n      swap2\n      div\n      mul\n      0x20\n      add\n      mload(0x40)\n      swap1\n      dup2\n      add\n      0x40\n      mstore\n      dup1\n      swap3\n      swap2\n      swap1\n      dup2\n      dup2\n      mstore\n      0x20\n      add\n      dup3\n      dup1\n      sload\n      tag_45\n      swap1\n      tag_32\n      jump\t// in\n    tag_45:\n      dup1\n      iszero\n      tag_46\n      jumpi\n      dup1\n      0x1f\n      lt\n      tag_47\n      jumpi\n      0x0100\n      dup1\n      dup4\n      sload\n      div\n      mul\n      dup4\n      mstore\n      swap2\n      0x20\n      add\n      swap2\n      jump(tag_46)\n    tag_47:\n      dup3\n      add\n      swap2\n      swap1\n      0x00\n      mstore\n      keccak256(0x00, 0x20)\n      swap1\n    tag_48:\n      dup2\n      sload\n      dup2\n      mstore\n      swap1\n      0x01\n      add\n      swap1\n      0x20\n      add\n      dup1\n      dup4\n      gt\n      tag_48\n      jumpi\n      dup3\n      swap1\n      sub\n      0x1f\n      and\n      dup3\n      add\n      swap2\n    tag_46:\n      pop\n      pop\n      pop\n      pop\n      pop\n      swap1\n      dup1\n      0x03\n      add\n      sload\n      swap1\n      dup1\n      0x04\n      add\n      sload\n      swap1\n      dup1\n      0x05\n      add\n      sload\n      swap1\n      pop\n      dup7\n      jump\t// out\n        /* \"ETH-Remix/HungerGames/HungerGames.sol\":1180:1250  function incrementCount() internal {... */\n    tag_41:\n        /* \"ETH-Remix/HungerGames/HungerGames.sol\":1241:1242  1 */\n      0x01\n        /* \"ETH-Remix/HungerGames/HungerGames.sol\":1226:1237  peopleCount */\n      dup1\n      0x00\n        /* \"ETH-Remix/HungerGames/HungerGames.sol\":1226:1242  peopleCount += 1 */\n      dup3\n      dup3\n      sload\n      tag_50\n      swap2\n      swap1\n      tag_51\n      jump\t// in\n    tag_50:\n      swap3\n      pop\n      pop\n      dup2\n      swap1\n      sstore\n      pop\n        /* \"ETH-Remix/HungerGames/HungerGames.sol\":1180:1250  function incrementCount() internal {... */\n      jump\t// out\n    tag_43:\n      dup3\n      dup1\n      sload\n      tag_52\n      swap1\n      tag_32\n      jump\t// in\n    tag_52:\n      swap1\n      0x00\n      mstore\n      keccak256(0x00, 0x20)\n      swap1\n      0x1f\n      add\n      0x20\n      swap1\n      div\n      dup2\n      add\n      swap3\n      dup3\n      tag_54\n      jumpi\n      0x00\n      dup6\n      sstore\n      jump(tag_53)\n    tag_54:\n      dup3\n      0x1f\n      lt\n      tag_55\n      jumpi\n      dup1\n      mload\n      not(0xff)\n      and\n      dup4\n      dup1\n      add\n      or\n      dup6\n      sstore\n      jump(tag_53)\n    tag_55:\n      dup3\n      dup1\n      add\n      0x01\n      add\n      dup6\n      sstore\n      dup3\n      iszero\n      tag_53\n      jumpi\n      swap2\n      dup3\n      add\n    tag_56:\n      dup3\n      dup2\n      gt\n      iszero\n      tag_57\n      jumpi\n      dup3\n      mload\n      dup3\n      sstore\n      swap2\n      0x20\n      add\n      swap2\n      swap1\n      0x01\n      add\n      swap1\n      jump(tag_56)\n    tag_57:\n    tag_53:\n      pop\n      swap1\n      pop\n      tag_58\n      swap2\n      swap1\n      tag_59\n      jump\t// in\n    tag_58:\n      pop\n      swap1\n      jump\t// out\n    tag_59:\n    tag_60:\n      dup1\n      dup3\n      gt\n      iszero\n      tag_61\n      jumpi\n      0x00\n      dup2\n      0x00\n      swap1\n      sstore\n      pop\n      0x01\n      add\n      jump(tag_60)\n    tag_61:\n      pop\n      swap1\n      jump\t// out\n        /* \"#utility.yul\":7:82   */\n    tag_62:\n        /* \"#utility.yul\":40:46   */\n      0x00\n        /* \"#utility.yul\":73:75   */\n      0x40\n        /* \"#utility.yul\":67:76   */\n      mload\n        /* \"#utility.yul\":57:76   */\n      swap1\n      pop\n        /* \"#utility.yul\":7:82   */\n      swap1\n      jump\t// out\n        /* \"#utility.yul\":88:205   */\n    tag_63:\n        /* \"#utility.yul\":197:198   */\n      0x00\n        /* \"#utility.yul\":194:195   */\n      dup1\n        /* \"#utility.yul\":187:199   */\n      revert\n        /* \"#utility.yul\":211:328   */\n    tag_64:\n        /* \"#utility.yul\":320:321   */\n      0x00\n        /* \"#utility.yul\":317:318   */\n      dup1\n        /* \"#utility.yul\":310:322   */\n      revert\n        /* \"#utility.yul\":334:411   */\n    tag_65:\n        /* \"#utility.yul\":371:378   */\n      0x00\n        /* \"#utility.yul\":400:405   */\n      dup2\n        /* \"#utility.yul\":389:405   */\n      swap1\n      pop\n        /* \"#utility.yul\":334:411   */\n      swap2\n      swap1\n      pop\n      jump\t// out\n        /* \"#utility.yul\":417:539   */\n    tag_66:\n        /* \"#utility.yul\":490:514   */\n      tag_94\n        /* \"#utility.yul\":508:513   */\n      dup2\n        /* \"#utility.yul\":490:514   */\n      tag_65\n      jump\t// in\n    tag_94:\n        /* \"#utility.yul\":483:488   */\n      dup2\n        /* \"#utility.yul\":480:515   */\n      eq\n        /* \"#utility.yul\":470:533   */\n      tag_95\n      jumpi\n        /* \"#utility.yul\":529:530   */\n      0x00\n        /* \"#utility.yul\":526:527   */\n      dup1\n        /* \"#utility.yul\":519:531   */\n      revert\n        /* \"#utility.yul\":470:533   */\n    tag_95:\n        /* \"#utility.yul\":417:539   */\n      pop\n      jump\t// out\n        /* \"#utility.yul\":545:684   */\n    tag_67:\n        /* \"#utility.yul\":591:596   */\n      0x00\n        /* \"#utility.yul\":629:635   */\n      dup2\n        /* \"#utility.yul\":616:636   */\n      calldataload\n        /* \"#utility.yul\":607:636   */\n      swap1\n      pop\n        /* \"#utility.yul\":645:678   */\n      tag_97\n        /* \"#utility.yul\":672:677   */\n      dup2\n        /* \"#utility.yul\":645:678   */\n      tag_66\n      jump\t// in\n    tag_97:\n        /* \"#utility.yul\":545:684   */\n      swap3\n      swap2\n      pop\n      pop\n      jump\t// out\n        /* \"#utility.yul\":690:1019   */\n    tag_10:\n        /* \"#utility.yul\":749:755   */\n      0x00\n        /* \"#utility.yul\":798:800   */\n      0x20\n        /* \"#utility.yul\":786:795   */\n      dup3\n        /* \"#utility.yul\":777:784   */\n      dup5\n        /* \"#utility.yul\":773:796   */\n      sub\n        /* \"#utility.yul\":769:801   */\n      slt\n        /* \"#utility.yul\":766:885   */\n      iszero\n      tag_99\n      jumpi\n        /* \"#utility.yul\":804:883   */\n      tag_100\n      tag_63\n      jump\t// in\n    tag_100:\n        /* \"#utility.yul\":766:885   */\n    tag_99:\n        /* \"#utility.yul\":924:925   */\n      0x00\n        /* \"#utility.yul\":949:1002   */\n      tag_101\n        /* \"#utility.yul\":994:1001   */\n      dup5\n        /* \"#utility.yul\":985:991   */\n      dup3\n        /* \"#utility.yul\":974:983   */\n      dup6\n        /* \"#utility.yul\":970:992   */\n      add\n        /* \"#utility.yul\":949:1002   */\n      tag_67\n      jump\t// in\n    tag_101:\n        /* \"#utility.yul\":939:1002   */\n      swap2\n      pop\n        /* \"#utility.yul\":895:1012   */\n      pop\n        /* \"#utility.yul\":690:1019   */\n      swap3\n      swap2\n      pop\n      pop\n      jump\t// out\n        /* \"#utility.yul\":1025:1143   */\n    tag_68:\n        /* \"#utility.yul\":1112:1136   */\n      tag_103\n        /* \"#utility.yul\":1130:1135   */\n      dup2\n        /* \"#utility.yul\":1112:1136   */\n      tag_65\n      jump\t// in\n    tag_103:\n        /* \"#utility.yul\":1107:1110   */\n      dup3\n        /* \"#utility.yul\":1100:1137   */\n      mstore\n        /* \"#utility.yul\":1025:1143   */\n      pop\n      pop\n      jump\t// out\n        /* \"#utility.yul\":1149:1248   */\n    tag_69:\n        /* \"#utility.yul\":1201:1207   */\n      0x00\n        /* \"#utility.yul\":1235:1240   */\n      dup2\n        /* \"#utility.yul\":1229:1241   */\n      mload\n        /* \"#utility.yul\":1219:1241   */\n      swap1\n      pop\n        /* \"#utility.yul\":1149:1248   */\n      swap2\n      swap1\n      pop\n      jump\t// out\n        /* \"#utility.yul\":1254:1423   */\n    tag_70:\n        /* \"#utility.yul\":1338:1349   */\n      0x00\n        /* \"#utility.yul\":1372:1378   */\n      dup3\n        /* \"#utility.yul\":1367:1370   */\n      dup3\n        /* \"#utility.yul\":1360:1379   */\n      mstore\n        /* \"#utility.yul\":1412:1416   */\n      0x20\n        /* \"#utility.yul\":1407:1410   */\n      dup3\n        /* \"#utility.yul\":1403:1417   */\n      add\n        /* \"#utility.yul\":1388:1417   */\n      swap1\n      pop\n        /* \"#utility.yul\":1254:1423   */\n      swap3\n      swap2\n      pop\n      pop\n      jump\t// out\n        /* \"#utility.yul\":1429:1736   */\n    tag_71:\n        /* \"#utility.yul\":1497:1498   */\n      0x00\n        /* \"#utility.yul\":1507:1620   */\n    tag_107:\n        /* \"#utility.yul\":1521:1527   */\n      dup4\n        /* \"#utility.yul\":1518:1519   */\n      dup2\n        /* \"#utility.yul\":1515:1528   */\n      lt\n        /* \"#utility.yul\":1507:1620   */\n      iszero\n      tag_109\n      jumpi\n        /* \"#utility.yul\":1606:1607   */\n      dup1\n        /* \"#utility.yul\":1601:1604   */\n      dup3\n        /* \"#utility.yul\":1597:1608   */\n      add\n        /* \"#utility.yul\":1591:1609   */\n      mload\n        /* \"#utility.yul\":1587:1588   */\n      dup2\n        /* \"#utility.yul\":1582:1585   */\n      dup5\n        /* \"#utility.yul\":1578:1589   */\n      add\n        /* \"#utility.yul\":1571:1610   */\n      mstore\n        /* \"#utility.yul\":1543:1545   */\n      0x20\n        /* \"#utility.yul\":1540:1541   */\n      dup2\n        /* \"#utility.yul\":1536:1546   */\n      add\n        /* \"#utility.yul\":1531:1546   */\n      swap1\n      pop\n        /* \"#utility.yul\":1507:1620   */\n      jump(tag_107)\n    tag_109:\n        /* \"#utility.yul\":1638:1644   */\n      dup4\n        /* \"#utility.yul\":1635:1636   */\n      dup2\n        /* \"#utility.yul\":1632:1645   */\n      gt\n        /* \"#utility.yul\":1629:1730   */\n      iszero\n      tag_110\n      jumpi\n        /* \"#utility.yul\":1718:1719   */\n      0x00\n        /* \"#utility.yul\":1709:1715   */\n      dup5\n        /* \"#utility.yul\":1704:1707   */\n      dup5\n        /* \"#utility.yul\":1700:1716   */\n      add\n        /* \"#utility.yul\":1693:1720   */\n      mstore\n        /* \"#utility.yul\":1629:1730   */\n    tag_110:\n        /* \"#utility.yul\":1478:1736   */\n      pop\n        /* \"#utility.yul\":1429:1736   */\n      pop\n      pop\n      pop\n      jump\t// out\n        /* \"#utility.yul\":1742:1844   */\n    tag_72:\n        /* \"#utility.yul\":1783:1789   */\n      0x00\n        /* \"#utility.yul\":1834:1836   */\n      0x1f\n        /* \"#utility.yul\":1830:1837   */\n      not\n        /* \"#utility.yul\":1825:1827   */\n      0x1f\n        /* \"#utility.yul\":1818:1823   */\n      dup4\n        /* \"#utility.yul\":1814:1828   */\n      add\n        /* \"#utility.yul\":1810:1838   */\n      and\n        /* \"#utility.yul\":1800:1838   */\n      swap1\n      pop\n        /* \"#utility.yul\":1742:1844   */\n      swap2\n      swap1\n      pop\n      jump\t// out\n        /* \"#utility.yul\":1850:2214   */\n    tag_73:\n        /* \"#utility.yul\":1938:1941   */\n      0x00\n        /* \"#utility.yul\":1966:2005   */\n      tag_113\n        /* \"#utility.yul\":1999:2004   */\n      dup3\n        /* \"#utility.yul\":1966:2005   */\n      tag_69\n      jump\t// in\n    tag_113:\n        /* \"#utility.yul\":2021:2092   */\n      tag_114\n        /* \"#utility.yul\":2085:2091   */\n      dup2\n        /* \"#utility.yul\":2080:2083   */\n      dup6\n        /* \"#utility.yul\":2021:2092   */\n      tag_70\n      jump\t// in\n    tag_114:\n        /* \"#utility.yul\":2014:2092   */\n      swap4\n      pop\n        /* \"#utility.yul\":2101:2153   */\n      tag_115\n        /* \"#utility.yul\":2146:2152   */\n      dup2\n        /* \"#utility.yul\":2141:2144   */\n      dup6\n        /* \"#utility.yul\":2134:2138   */\n      0x20\n        /* \"#utility.yul\":2127:2132   */\n      dup7\n        /* \"#utility.yul\":2123:2139   */\n      add\n        /* \"#utility.yul\":2101:2153   */\n      tag_71\n      jump\t// in\n    tag_115:\n        /* \"#utility.yul\":2178:2207   */\n      tag_116\n        /* \"#utility.yul\":2200:2206   */\n      dup2\n        /* \"#utility.yul\":2178:2207   */\n      tag_72\n      jump\t// in\n    tag_116:\n        /* \"#utility.yul\":2173:2176   */\n      dup5\n        /* \"#utility.yul\":2169:2208   */\n      add\n        /* \"#utility.yul\":2162:2208   */\n      swap2\n      pop\n        /* \"#utility.yul\":1942:2214   */\n      pop\n        /* \"#utility.yul\":1850:2214   */\n      swap3\n      swap2\n      pop\n      pop\n      jump\t// out\n        /* \"#utility.yul\":2220:3086   */\n    tag_13:\n        /* \"#utility.yul\":2473:2477   */\n      0x00\n        /* \"#utility.yul\":2511:2514   */\n      0xc0\n        /* \"#utility.yul\":2500:2509   */\n      dup3\n        /* \"#utility.yul\":2496:2515   */\n      add\n        /* \"#utility.yul\":2488:2515   */\n      swap1\n      pop\n        /* \"#utility.yul\":2525:2596   */\n      tag_118\n        /* \"#utility.yul\":2593:2594   */\n      0x00\n        /* \"#utility.yul\":2582:2591   */\n      dup4\n        /* \"#utility.yul\":2578:2595   */\n      add\n        /* \"#utility.yul\":2569:2575   */\n      dup10\n        /* \"#utility.yul\":2525:2596   */\n      tag_68\n      jump\t// in\n    tag_118:\n        /* \"#utility.yul\":2606:2678   */\n      tag_119\n        /* \"#utility.yul\":2674:2676   */\n      0x20\n        /* \"#utility.yul\":2663:2672   */\n      dup4\n        /* \"#utility.yul\":2659:2677   */\n      add\n        /* \"#utility.yul\":2650:2656   */\n      dup9\n        /* \"#utility.yul\":2606:2678   */\n      tag_68\n      jump\t// in\n    tag_119:\n        /* \"#utility.yul\":2725:2734   */\n      dup2\n        /* \"#utility.yul\":2719:2723   */\n      dup2\n        /* \"#utility.yul\":2715:2735   */\n      sub\n        /* \"#utility.yul\":2710:2712   */\n      0x40\n        /* \"#utility.yul\":2699:2708   */\n      dup4\n        /* \"#utility.yul\":2695:2713   */\n      add\n        /* \"#utility.yul\":2688:2736   */\n      mstore\n        /* \"#utility.yul\":2753:2831   */\n      tag_120\n        /* \"#utility.yul\":2826:2830   */\n      dup2\n        /* \"#utility.yul\":2817:2823   */\n      dup8\n        /* \"#utility.yul\":2753:2831   */\n      tag_73\n      jump\t// in\n    tag_120:\n        /* \"#utility.yul\":2745:2831   */\n      swap1\n      pop\n        /* \"#utility.yul\":2841:2913   */\n      tag_121\n        /* \"#utility.yul\":2909:2911   */\n      0x60\n        /* \"#utility.yul\":2898:2907   */\n      dup4\n        /* \"#utility.yul\":2894:2912   */\n      add\n        /* \"#utility.yul\":2885:2891   */\n      dup7\n        /* \"#utility.yul\":2841:2913   */\n      tag_68\n      jump\t// in\n    tag_121:\n        /* \"#utility.yul\":2923:2996   */\n      tag_122\n        /* \"#utility.yul\":2991:2994   */\n      0x80\n        /* \"#utility.yul\":2980:2989   */\n      dup4\n        /* \"#utility.yul\":2976:2995   */\n      add\n        /* \"#utility.yul\":2967:2973   */\n      dup6\n        /* \"#utility.yul\":2923:2996   */\n      tag_68\n      jump\t// in\n    tag_122:\n        /* \"#utility.yul\":3006:3079   */\n      tag_123\n        /* \"#utility.yul\":3074:3077   */\n      0xa0\n        /* \"#utility.yul\":3063:3072   */\n      dup4\n        /* \"#utility.yul\":3059:3078   */\n      add\n        /* \"#utility.yul\":3050:3056   */\n      dup5\n        /* \"#utility.yul\":3006:3079   */\n      tag_68\n      jump\t// in\n    tag_123:\n        /* \"#utility.yul\":2220:3086   */\n      swap8\n      swap7\n      pop\n      pop\n      pop\n      pop\n      pop\n      pop\n      pop\n      jump\t// out\n        /* \"#utility.yul\":3092:3314   */\n    tag_17:\n        /* \"#utility.yul\":3185:3189   */\n      0x00\n        /* \"#utility.yul\":3223:3225   */\n      0x20\n        /* \"#utility.yul\":3212:3221   */\n      dup3\n        /* \"#utility.yul\":3208:3226   */\n      add\n        /* \"#utility.yul\":3200:3226   */\n      swap1\n      pop\n        /* \"#utility.yul\":3236:3307   */\n      tag_125\n        /* \"#utility.yul\":3304:3305   */\n      0x00\n        /* \"#utility.yul\":3293:3302   */\n      dup4\n        /* \"#utility.yul\":3289:3306   */\n      add\n        /* \"#utility.yul\":3280:3286   */\n      dup5\n        /* \"#utility.yul\":3236:3307   */\n      tag_68\n      jump\t// in\n    tag_125:\n        /* \"#utility.yul\":3092:3314   */\n      swap3\n      swap2\n      pop\n      pop\n      jump\t// out\n        /* \"#utility.yul\":3320:3437   */\n    tag_74:\n        /* \"#utility.yul\":3429:3430   */\n      0x00\n        /* \"#utility.yul\":3426:3427   */\n      dup1\n        /* \"#utility.yul\":3419:3431   */\n      revert\n        /* \"#utility.yul\":3443:3560   */\n    tag_75:\n        /* \"#utility.yul\":3552:3553   */\n      0x00\n        /* \"#utility.yul\":3549:3550   */\n      dup1\n        /* \"#utility.yul\":3542:3554   */\n      revert\n        /* \"#utility.yul\":3566:3746   */\n    tag_76:\n        /* \"#utility.yul\":3614:3691   */\n      0x4e487b7100000000000000000000000000000000000000000000000000000000\n        /* \"#utility.yul\":3611:3612   */\n      0x00\n        /* \"#utility.yul\":3604:3692   */\n      mstore\n        /* \"#utility.yul\":3711:3715   */\n      0x41\n        /* \"#utility.yul\":3708:3709   */\n      0x04\n        /* \"#utility.yul\":3701:3716   */\n      mstore\n        /* \"#utility.yul\":3735:3739   */\n      0x24\n        /* \"#utility.yul\":3732:3733   */\n      0x00\n        /* \"#utility.yul\":3725:3740   */\n      revert\n        /* \"#utility.yul\":3752:4033   */\n    tag_77:\n        /* \"#utility.yul\":3835:3862   */\n      tag_130\n        /* \"#utility.yul\":3857:3861   */\n      dup3\n        /* \"#utility.yul\":3835:3862   */\n      tag_72\n      jump\t// in\n    tag_130:\n        /* \"#utility.yul\":3827:3833   */\n      dup2\n        /* \"#utility.yul\":3823:3863   */\n      add\n        /* \"#utility.yul\":3965:3971   */\n      dup2\n        /* \"#utility.yul\":3953:3963   */\n      dup2\n        /* \"#utility.yul\":3950:3972   */\n      lt\n        /* \"#utility.yul\":3929:3947   */\n      0xffffffffffffffff\n        /* \"#utility.yul\":3917:3927   */\n      dup3\n        /* \"#utility.yul\":3914:3948   */\n      gt\n        /* \"#utility.yul\":3911:3973   */\n      or\n        /* \"#utility.yul\":3908:3996   */\n      iszero\n      tag_131\n      jumpi\n        /* \"#utility.yul\":3976:3994   */\n      tag_132\n      tag_76\n      jump\t// in\n    tag_132:\n        /* \"#utility.yul\":3908:3996   */\n    tag_131:\n        /* \"#utility.yul\":4016:4026   */\n      dup1\n        /* \"#utility.yul\":4012:4014   */\n      0x40\n        /* \"#utility.yul\":4005:4027   */\n      mstore\n        /* \"#utility.yul\":3795:4033   */\n      pop\n        /* \"#utility.yul\":3752:4033   */\n      pop\n      pop\n      jump\t// out\n        /* \"#utility.yul\":4039:4168   */\n    tag_78:\n        /* \"#utility.yul\":4073:4079   */\n      0x00\n        /* \"#utility.yul\":4100:4120   */\n      tag_134\n      tag_62\n      jump\t// in\n    tag_134:\n        /* \"#utility.yul\":4090:4120   */\n      swap1\n      pop\n        /* \"#utility.yul\":4129:4162   */\n      tag_135\n        /* \"#utility.yul\":4157:4161   */\n      dup3\n        /* \"#utility.yul\":4149:4155   */\n      dup3\n        /* \"#utility.yul\":4129:4162   */\n      tag_77\n      jump\t// in\n    tag_135:\n        /* \"#utility.yul\":4039:4168   */\n      swap2\n      swap1\n      pop\n      jump\t// out\n        /* \"#utility.yul\":4174:4482   */\n    tag_79:\n        /* \"#utility.yul\":4236:4240   */\n      0x00\n        /* \"#utility.yul\":4326:4344   */\n      0xffffffffffffffff\n        /* \"#utility.yul\":4318:4324   */\n      dup3\n        /* \"#utility.yul\":4315:4345   */\n      gt\n        /* \"#utility.yul\":4312:4368   */\n      iszero\n      tag_137\n      jumpi\n        /* \"#utility.yul\":4348:4366   */\n      tag_138\n      tag_76\n      jump\t// in\n    tag_138:\n        /* \"#utility.yul\":4312:4368   */\n    tag_137:\n        /* \"#utility.yul\":4386:4415   */\n      tag_139\n        /* \"#utility.yul\":4408:4414   */\n      dup3\n        /* \"#utility.yul\":4386:4415   */\n      tag_72\n      jump\t// in\n    tag_139:\n        /* \"#utility.yul\":4378:4415   */\n      swap1\n      pop\n        /* \"#utility.yul\":4470:4474   */\n      0x20\n        /* \"#utility.yul\":4464:4468   */\n      dup2\n        /* \"#utility.yul\":4460:4475   */\n      add\n        /* \"#utility.yul\":4452:4475   */\n      swap1\n      pop\n        /* \"#utility.yul\":4174:4482   */\n      swap2\n      swap1\n      pop\n      jump\t// out\n        /* \"#utility.yul\":4488:4642   */\n    tag_80:\n        /* \"#utility.yul\":4572:4578   */\n      dup3\n        /* \"#utility.yul\":4567:4570   */\n      dup2\n        /* \"#utility.yul\":4562:4565   */\n      dup4\n        /* \"#utility.yul\":4549:4579   */\n      calldatacopy\n        /* \"#utility.yul\":4634:4635   */\n      0x00\n        /* \"#utility.yul\":4625:4631   */\n      dup4\n        /* \"#utility.yul\":4620:4623   */\n      dup4\n        /* \"#utility.yul\":4616:4632   */\n      add\n        /* \"#utility.yul\":4609:4636   */\n      mstore\n        /* \"#utility.yul\":4488:4642   */\n      pop\n      pop\n      pop\n      jump\t// out\n        /* \"#utility.yul\":4648:5060   */\n    tag_81:\n        /* \"#utility.yul\":4726:4731   */\n      0x00\n        /* \"#utility.yul\":4751:4817   */\n      tag_142\n        /* \"#utility.yul\":4767:4816   */\n      tag_143\n        /* \"#utility.yul\":4809:4815   */\n      dup5\n        /* \"#utility.yul\":4767:4816   */\n      tag_79\n      jump\t// in\n    tag_143:\n        /* \"#utility.yul\":4751:4817   */\n      tag_78\n      jump\t// in\n    tag_142:\n        /* \"#utility.yul\":4742:4817   */\n      swap1\n      pop\n        /* \"#utility.yul\":4840:4846   */\n      dup3\n        /* \"#utility.yul\":4833:4838   */\n      dup2\n        /* \"#utility.yul\":4826:4847   */\n      mstore\n        /* \"#utility.yul\":4878:4882   */\n      0x20\n        /* \"#utility.yul\":4871:4876   */\n      dup2\n        /* \"#utility.yul\":4867:4883   */\n      add\n        /* \"#utility.yul\":4916:4919   */\n      dup5\n        /* \"#utility.yul\":4907:4913   */\n      dup5\n        /* \"#utility.yul\":4902:4905   */\n      dup5\n        /* \"#utility.yul\":4898:4914   */\n      add\n        /* \"#utility.yul\":4895:4920   */\n      gt\n        /* \"#utility.yul\":4892:5004   */\n      iszero\n      tag_144\n      jumpi\n        /* \"#utility.yul\":4923:5002   */\n      tag_145\n      tag_75\n      jump\t// in\n    tag_145:\n        /* \"#utility.yul\":4892:5004   */\n    tag_144:\n        /* \"#utility.yul\":5013:5054   */\n      tag_146\n        /* \"#utility.yul\":5047:5053   */\n      dup5\n        /* \"#utility.yul\":5042:5045   */\n      dup3\n        /* \"#utility.yul\":5037:5040   */\n      dup6\n        /* \"#utility.yul\":5013:5054   */\n      tag_80\n      jump\t// in\n    tag_146:\n        /* \"#utility.yul\":4732:5060   */\n      pop\n        /* \"#utility.yul\":4648:5060   */\n      swap4\n      swap3\n      pop\n      pop\n      pop\n      jump\t// out\n        /* \"#utility.yul\":5080:5420   */\n    tag_82:\n        /* \"#utility.yul\":5136:5141   */\n      0x00\n        /* \"#utility.yul\":5185:5188   */\n      dup3\n        /* \"#utility.yul\":5178:5182   */\n      0x1f\n        /* \"#utility.yul\":5170:5176   */\n      dup4\n        /* \"#utility.yul\":5166:5183   */\n      add\n        /* \"#utility.yul\":5162:5189   */\n      slt\n        /* \"#utility.yul\":5152:5274   */\n      tag_148\n      jumpi\n        /* \"#utility.yul\":5193:5272   */\n      tag_149\n      tag_74\n      jump\t// in\n    tag_149:\n        /* \"#utility.yul\":5152:5274   */\n    tag_148:\n        /* \"#utility.yul\":5310:5316   */\n      dup2\n        /* \"#utility.yul\":5297:5317   */\n      calldataload\n        /* \"#utility.yul\":5335:5414   */\n      tag_150\n        /* \"#utility.yul\":5410:5413   */\n      dup5\n        /* \"#utility.yul\":5402:5408   */\n      dup3\n        /* \"#utility.yul\":5395:5399   */\n      0x20\n        /* \"#utility.yul\":5387:5393   */\n      dup7\n        /* \"#utility.yul\":5383:5400   */\n      add\n        /* \"#utility.yul\":5335:5414   */\n      tag_81\n      jump\t// in\n    tag_150:\n        /* \"#utility.yul\":5326:5414   */\n      swap2\n      pop\n        /* \"#utility.yul\":5142:5420   */\n      pop\n        /* \"#utility.yul\":5080:5420   */\n      swap3\n      swap2\n      pop\n      pop\n      jump\t// out\n        /* \"#utility.yul\":5426:6663   */\n    tag_20:\n        /* \"#utility.yul\":5540:5546   */\n      0x00\n        /* \"#utility.yul\":5548:5554   */\n      dup1\n        /* \"#utility.yul\":5556:5562   */\n      0x00\n        /* \"#utility.yul\":5564:5570   */\n      dup1\n        /* \"#utility.yul\":5572:5578   */\n      0x00\n        /* \"#utility.yul\":5580:5586   */\n      dup1\n        /* \"#utility.yul\":5629:5632   */\n      0xc0\n        /* \"#utility.yul\":5617:5626   */\n      dup8\n        /* \"#utility.yul\":5608:5615   */\n      dup10\n        /* \"#utility.yul\":5604:5627   */\n      sub\n        /* \"#utility.yul\":5600:5633   */\n      slt\n        /* \"#utility.yul\":5597:5717   */\n      iszero\n      tag_152\n      jumpi\n        /* \"#utility.yul\":5636:5715   */\n      tag_153\n      tag_63\n      jump\t// in\n    tag_153:\n        /* \"#utility.yul\":5597:5717   */\n    tag_152:\n        /* \"#utility.yul\":5756:5757   */\n      0x00\n        /* \"#utility.yul\":5781:5834   */\n      tag_154\n        /* \"#utility.yul\":5826:5833   */\n      dup10\n        /* \"#utility.yul\":5817:5823   */\n      dup3\n        /* \"#utility.yul\":5806:5815   */\n      dup11\n        /* \"#utility.yul\":5802:5824   */\n      add\n        /* \"#utility.yul\":5781:5834   */\n      tag_67\n      jump\t// in\n    tag_154:\n        /* \"#utility.yul\":5771:5834   */\n      swap7\n      pop\n        /* \"#utility.yul\":5727:5844   */\n      pop\n        /* \"#utility.yul\":5883:5885   */\n      0x20\n        /* \"#utility.yul\":5909:5962   */\n      tag_155\n        /* \"#utility.yul\":5954:5961   */\n      dup10\n        /* \"#utility.yul\":5945:5951   */\n      dup3\n        /* \"#utility.yul\":5934:5943   */\n      dup11\n        /* \"#utility.yul\":5930:5952   */\n      add\n        /* \"#utility.yul\":5909:5962   */\n      tag_67\n      jump\t// in\n    tag_155:\n        /* \"#utility.yul\":5899:5962   */\n      swap6\n      pop\n        /* \"#utility.yul\":5854:5972   */\n      pop\n        /* \"#utility.yul\":6039:6041   */\n      0x40\n        /* \"#utility.yul\":6028:6037   */\n      dup8\n        /* \"#utility.yul\":6024:6042   */\n      add\n        /* \"#utility.yul\":6011:6043   */\n      calldataload\n        /* \"#utility.yul\":6070:6088   */\n      0xffffffffffffffff\n        /* \"#utility.yul\":6062:6068   */\n      dup2\n        /* \"#utility.yul\":6059:6089   */\n      gt\n        /* \"#utility.yul\":6056:6173   */\n      iszero\n      tag_156\n      jumpi\n        /* \"#utility.yul\":6092:6171   */\n      tag_157\n      tag_64\n      jump\t// in\n    tag_157:\n        /* \"#utility.yul\":6056:6173   */\n    tag_156:\n        /* \"#utility.yul\":6197:6260   */\n      tag_158\n        /* \"#utility.yul\":6252:6259   */\n      dup10\n        /* \"#utility.yul\":6243:6249   */\n      dup3\n        /* \"#utility.yul\":6232:6241   */\n      dup11\n        /* \"#utility.yul\":6228:6250   */\n      add\n        /* \"#utility.yul\":6197:6260   */\n      tag_82\n      jump\t// in\n    tag_158:\n        /* \"#utility.yul\":6187:6260   */\n      swap5\n      pop\n        /* \"#utility.yul\":5982:6270   */\n      pop\n        /* \"#utility.yul\":6309:6311   */\n      0x60\n        /* \"#utility.yul\":6335:6388   */\n      tag_159\n        /* \"#utility.yul\":6380:6387   */\n      dup10\n        /* \"#utility.yul\":6371:6377   */\n      dup3\n        /* \"#utility.yul\":6360:6369   */\n      dup11\n        /* \"#utility.yul\":6356:6378   */\n      add\n        /* \"#utility.yul\":6335:6388   */\n      tag_67\n      jump\t// in\n    tag_159:\n        /* \"#utility.yul\":6325:6388   */\n      swap4\n      pop\n        /* \"#utility.yul\":6280:6398   */\n      pop\n        /* \"#utility.yul\":6437:6440   */\n      0x80\n        /* \"#utility.yul\":6464:6517   */\n      tag_160\n        /* \"#utility.yul\":6509:6516   */\n      dup10\n        /* \"#utility.yul\":6500:6506   */\n      dup3\n        /* \"#utility.yul\":6489:6498   */\n      dup11\n        /* \"#utility.yul\":6485:6507   */\n      add\n        /* \"#utility.yul\":6464:6517   */\n      tag_67\n      jump\t// in\n    tag_160:\n        /* \"#utility.yul\":6454:6517   */\n      swap3\n      pop\n        /* \"#utility.yul\":6408:6527   */\n      pop\n        /* \"#utility.yul\":6566:6569   */\n      0xa0\n        /* \"#utility.yul\":6593:6646   */\n      tag_161\n        /* \"#utility.yul\":6638:6645   */\n      dup10\n        /* \"#utility.yul\":6629:6635   */\n      dup3\n        /* \"#utility.yul\":6618:6627   */\n      dup11\n        /* \"#utility.yul\":6614:6636   */\n      add\n        /* \"#utility.yul\":6593:6646   */\n      tag_67\n      jump\t// in\n    tag_161:\n        /* \"#utility.yul\":6583:6646   */\n      swap2\n      pop\n        /* \"#utility.yul\":6537:6656   */\n      pop\n        /* \"#utility.yul\":5426:6663   */\n      swap3\n      swap6\n      pop\n      swap3\n      swap6\n      pop\n      swap3\n      swap6\n      jump\t// out\n        /* \"#utility.yul\":6669:6795   */\n    tag_83:\n        /* \"#utility.yul\":6706:6713   */\n      0x00\n        /* \"#utility.yul\":6746:6788   */\n      0xffffffffffffffffffffffffffffffffffffffff\n        /* \"#utility.yul\":6739:6744   */\n      dup3\n        /* \"#utility.yul\":6735:6789   */\n      and\n        /* \"#utility.yul\":6724:6789   */\n      swap1\n      pop\n        /* \"#utility.yul\":6669:6795   */\n      swap2\n      swap1\n      pop\n      jump\t// out\n        /* \"#utility.yul\":6801:6897   */\n    tag_84:\n        /* \"#utility.yul\":6838:6845   */\n      0x00\n        /* \"#utility.yul\":6867:6891   */\n      tag_164\n        /* \"#utility.yul\":6885:6890   */\n      dup3\n        /* \"#utility.yul\":6867:6891   */\n      tag_83\n      jump\t// in\n    tag_164:\n        /* \"#utility.yul\":6856:6891   */\n      swap1\n      pop\n        /* \"#utility.yul\":6801:6897   */\n      swap2\n      swap1\n      pop\n      jump\t// out\n        /* \"#utility.yul\":6903:7021   */\n    tag_85:\n        /* \"#utility.yul\":6990:7014   */\n      tag_166\n        /* \"#utility.yul\":7008:7013   */\n      dup2\n        /* \"#utility.yul\":6990:7014   */\n      tag_84\n      jump\t// in\n    tag_166:\n        /* \"#utility.yul\":6985:6988   */\n      dup3\n        /* \"#utility.yul\":6978:7015   */\n      mstore\n        /* \"#utility.yul\":6903:7021   */\n      pop\n      pop\n      jump\t// out\n        /* \"#utility.yul\":7027:7249   */\n    tag_25:\n        /* \"#utility.yul\":7120:7124   */\n      0x00\n        /* \"#utility.yul\":7158:7160   */\n      0x20\n        /* \"#utility.yul\":7147:7156   */\n      dup3\n        /* \"#utility.yul\":7143:7161   */\n      add\n        /* \"#utility.yul\":7135:7161   */\n      swap1\n      pop\n        /* \"#utility.yul\":7171:7242   */\n      tag_168\n        /* \"#utility.yul\":7239:7240   */\n      0x00\n        /* \"#utility.yul\":7228:7237   */\n      dup4\n        /* \"#utility.yul\":7224:7241   */\n      add\n        /* \"#utility.yul\":7215:7221   */\n      dup5\n        /* \"#utility.yul\":7171:7242   */\n      tag_85\n      jump\t// in\n    tag_168:\n        /* \"#utility.yul\":7027:7249   */\n      swap3\n      swap2\n      pop\n      pop\n      jump\t// out\n        /* \"#utility.yul\":7255:7435   */\n    tag_86:\n        /* \"#utility.yul\":7303:7380   */\n      0x4e487b7100000000000000000000000000000000000000000000000000000000\n        /* \"#utility.yul\":7300:7301   */\n      0x00\n        /* \"#utility.yul\":7293:7381   */\n      mstore\n        /* \"#utility.yul\":7400:7404   */\n      0x22\n        /* \"#utility.yul\":7397:7398   */\n      0x04\n        /* \"#utility.yul\":7390:7405   */\n      mstore\n        /* \"#utility.yul\":7424:7428   */\n      0x24\n        /* \"#utility.yul\":7421:7422   */\n      0x00\n        /* \"#utility.yul\":7414:7429   */\n      revert\n        /* \"#utility.yul\":7441:7761   */\n    tag_32:\n        /* \"#utility.yul\":7485:7491   */\n      0x00\n        /* \"#utility.yul\":7522:7523   */\n      0x02\n        /* \"#utility.yul\":7516:7520   */\n      dup3\n        /* \"#utility.yul\":7512:7524   */\n      div\n        /* \"#utility.yul\":7502:7524   */\n      swap1\n      pop\n        /* \"#utility.yul\":7569:7570   */\n      0x01\n        /* \"#utility.yul\":7563:7567   */\n      dup3\n        /* \"#utility.yul\":7559:7571   */\n      and\n        /* \"#utility.yul\":7590:7608   */\n      dup1\n        /* \"#utility.yul\":7580:7661   */\n      tag_171\n      jumpi\n        /* \"#utility.yul\":7646:7650   */\n      0x7f\n        /* \"#utility.yul\":7638:7644   */\n      dup3\n        /* \"#utility.yul\":7634:7651   */\n      and\n        /* \"#utility.yul\":7624:7651   */\n      swap2\n      pop\n        /* \"#utility.yul\":7580:7661   */\n    tag_171:\n        /* \"#utility.yul\":7708:7710   */\n      0x20\n        /* \"#utility.yul\":7700:7706   */\n      dup3\n        /* \"#utility.yul\":7697:7711   */\n      lt\n        /* \"#utility.yul\":7677:7695   */\n      dup2\n        /* \"#utility.yul\":7674:7712   */\n      sub\n        /* \"#utility.yul\":7671:7755   */\n      tag_172\n      jumpi\n        /* \"#utility.yul\":7727:7745   */\n      tag_173\n      tag_86\n      jump\t// in\n    tag_173:\n        /* \"#utility.yul\":7671:7755   */\n    tag_172:\n        /* \"#utility.yul\":7492:7761   */\n      pop\n        /* \"#utility.yul\":7441:7761   */\n      swap2\n      swap1\n      pop\n      jump\t// out\n        /* \"#utility.yul\":7767:7947   */\n    tag_87:\n        /* \"#utility.yul\":7815:7892   */\n      0x4e487b7100000000000000000000000000000000000000000000000000000000\n        /* \"#utility.yul\":7812:7813   */\n      0x00\n        /* \"#utility.yul\":7805:7893   */\n      mstore\n        /* \"#utility.yul\":7912:7916   */\n      0x11\n        /* \"#utility.yul\":7909:7910   */\n      0x04\n        /* \"#utility.yul\":7902:7917   */\n      mstore\n        /* \"#utility.yul\":7936:7940   */\n      0x24\n        /* \"#utility.yul\":7933:7934   */\n      0x00\n        /* \"#utility.yul\":7926:7941   */\n      revert\n        /* \"#utility.yul\":7953:8258   */\n    tag_51:\n        /* \"#utility.yul\":7993:7996   */\n      0x00\n        /* \"#utility.yul\":8012:8032   */\n      tag_176\n        /* \"#utility.yul\":8030:8031   */\n      dup3\n        /* \"#utility.yul\":8012:8032   */\n      tag_65\n      jump\t// in\n    tag_176:\n        /* \"#utility.yul\":8007:8032   */\n      swap2\n      pop\n        /* \"#utility.yul\":8046:8066   */\n      tag_177\n        /* \"#utility.yul\":8064:8065   */\n      dup4\n        /* \"#utility.yul\":8046:8066   */\n      tag_65\n      jump\t// in\n    tag_177:\n        /* \"#utility.yul\":8041:8066   */\n      swap3\n      pop\n        /* \"#utility.yul\":8200:8201   */\n      dup3\n        /* \"#utility.yul\":8132:8198   */\n      0xffffffffffffffffffffffffffffffffffffffffffffffffffffffffffffffff\n        /* \"#utility.yul\":8128:8202   */\n      sub\n        /* \"#utility.yul\":8125:8126   */\n      dup3\n        /* \"#utility.yul\":8122:8203   */\n      gt\n        /* \"#utility.yul\":8119:8226   */\n      iszero\n      tag_178\n      jumpi\n        /* \"#utility.yul\":8206:8224   */\n      tag_179\n      tag_87\n      jump\t// in\n    tag_179:\n        /* \"#utility.yul\":8119:8226   */\n    tag_178:\n        /* \"#utility.yul\":8250:8251   */\n      dup3\n        /* \"#utility.yul\":8247:8248   */\n      dup3\n        /* \"#utility.yul\":8243:8252   */\n      add\n        /* \"#utility.yul\":8236:8252   */\n      swap1\n      pop\n        /* \"#utility.yul\":7953:8258   */\n      swap3\n      swap2\n      pop\n      pop\n      jump\t// out\n\n    auxdata: 0xa2646970667358221220906208a97eb8afe5c7ad376b5f82c4e328fa8fd88064d3434ffde499adb7e59c64736f6c634300080d0033\n}\n",
				"bytecode": {
					"linkReferences": {},
					"object": "6080604052600060015534801561001557600080fd5b50336000806101000a81548173ffffffffffffffffffffffffffffffffffffffff021916908373ffffffffffffffffffffffffffffffffffffffff1602179055506109e0806100656000396000f3fe608060405234801561001057600080fd5b50600436106100575760003560e01c8063246982c41461005c578063267c68e0146100915780632d74e28a146100af5780638da5cb5b146100cb5780639e7a13ad146100e9575b600080fd5b61007660048036038101906100719190610533565b61011e565b60405161008896959493929190610608565b60405180910390f35b610099610241565b6040516100a69190610670565b60405180910390f35b6100c960048036038101906100c491906107c0565b610247565b005b6100d3610343565b6040516100e091906108aa565b60405180910390f35b61010360048036038101906100fe9190610533565b610367565b60405161011596959493929190610608565b60405180910390f35b6000806060600080600080600260008981526020019081526020016000206040518060c0016040529081600082015481526020016001820154815260200160028201805461016b906108f4565b80601f0160208091040260200160405190810160405280929190818152602001828054610197906108f4565b80156101e45780601f106101b9576101008083540402835291602001916101e4565b820191906000526020600020905b8154815290600101906020018083116101c757829003601f168201915b5050505050815260200160038201548152602001600482015481526020016005820154815250509050806000015181602001518260400151836060015184608001518560a001519650965096509650965096505091939550919395565b60015481565b60008054906101000a900473ffffffffffffffffffffffffffffffffffffffff1673ffffffffffffffffffffffffffffffffffffffff163373ffffffffffffffffffffffffffffffffffffffff161461029f57600080fd5b6102a761042b565b6040518060c001604052808781526020018681526020018581526020018481526020018381526020018281525060026000600154815260200190815260200160002060008201518160000155602082015181600101556040820151816002019080519060200190610319929190610446565b50606082015181600301556080820151816004015560a08201518160050155905050505050505050565b60008054906101000a900473ffffffffffffffffffffffffffffffffffffffff1681565b6002602052806000526040600020600091509050806000015490806001015490806002018054610396906108f4565b80601f01602080910402602001604051908101604052809291908181526020018280546103c2906108f4565b801561040f5780601f106103e45761010080835404028352916020019161040f565b820191906000526020600020905b8154815290600101906020018083116103f257829003601f168201915b5050505050908060030154908060040154908060050154905086565b600180600082825461043d9190610954565b92505081905550565b828054610452906108f4565b90600052602060002090601f01602090048101928261047457600085556104bb565b82601f1061048d57805160ff19168380011785556104bb565b828001600101855582156104bb579182015b828111156104ba57825182559160200191906001019061049f565b5b5090506104c891906104cc565b5090565b5b808211156104e55760008160009055506001016104cd565b5090565b6000604051905090565b600080fd5b600080fd5b6000819050919050565b610510816104fd565b811461051b57600080fd5b50565b60008135905061052d81610507565b92915050565b600060208284031215610549576105486104f3565b5b60006105578482850161051e565b91505092915050565b610569816104fd565b82525050565b600081519050919050565b600082825260208201905092915050565b60005b838110156105a957808201518184015260208101905061058e565b838111156105b8576000848401525b50505050565b6000601f19601f8301169050919050565b60006105da8261056f565b6105e4818561057a565b93506105f481856020860161058b565b6105fd816105be565b840191505092915050565b600060c08201905061061d6000830189610560565b61062a6020830188610560565b818103604083015261063c81876105cf565b905061064b6060830186610560565b6106586080830185610560565b61066560a0830184610560565b979650505050505050565b60006020820190506106856000830184610560565b92915050565b600080fd5b600080fd5b7f4e487b7100000000000000000000000000000000000000000000000000000000600052604160045260246000fd5b6106cd826105be565b810181811067ffffffffffffffff821117156106ec576106eb610695565b5b80604052505050565b60006106ff6104e9565b905061070b82826106c4565b919050565b600067ffffffffffffffff82111561072b5761072a610695565b5b610734826105be565b9050602081019050919050565b82818337600083830152505050565b600061076361075e84610710565b6106f5565b90508281526020810184848401111561077f5761077e610690565b5b61078a848285610741565b509392505050565b600082601f8301126107a7576107a661068b565b5b81356107b7848260208601610750565b91505092915050565b60008060008060008060c087890312156107dd576107dc6104f3565b5b60006107eb89828a0161051e565b96505060206107fc89828a0161051e565b955050604087013567ffffffffffffffff81111561081d5761081c6104f8565b5b61082989828a01610792565b945050606061083a89828a0161051e565b935050608061084b89828a0161051e565b92505060a061085c89828a0161051e565b9150509295509295509295565b600073ffffffffffffffffffffffffffffffffffffffff82169050919050565b600061089482610869565b9050919050565b6108a481610889565b82525050565b60006020820190506108bf600083018461089b565b92915050565b7f4e487b7100000000000000000000000000000000000000000000000000000000600052602260045260246000fd5b6000600282049050600182168061090c57607f821691505b60208210810361091f5761091e6108c5565b5b50919050565b7f4e487b7100000000000000000000000000000000000000000000000000000000600052601160045260246000fd5b600061095f826104fd565b915061096a836104fd565b9250827fffffffffffffffffffffffffffffffffffffffffffffffffffffffffffffffff0382111561099f5761099e610925565b5b82820190509291505056fea2646970667358221220906208a97eb8afe5c7ad376b5f82c4e328fa8fd88064d3434ffde499adb7e59c64736f6c634300080d0033",
					"opcodes": "PUSH1 0x80 PUSH1 0x40 MSTORE PUSH1 0x0 PUSH1 0x1 SSTORE CALLVALUE DUP1 ISZERO PUSH2 0x15 JUMPI PUSH1 0x0 DUP1 REVERT JUMPDEST POP CALLER PUSH1 0x0 DUP1 PUSH2 0x100 EXP DUP2 SLOAD DUP2 PUSH20 0xFFFFFFFFFFFFFFFFFFFFFFFFFFFFFFFFFFFFFFFF MUL NOT AND SWAP1 DUP4 PUSH20 0xFFFFFFFFFFFFFFFFFFFFFFFFFFFFFFFFFFFFFFFF AND MUL OR SWAP1 SSTORE POP PUSH2 0x9E0 DUP1 PUSH2 0x65 PUSH1 0x0 CODECOPY PUSH1 0x0 RETURN INVALID PUSH1 0x80 PUSH1 0x40 MSTORE CALLVALUE DUP1 ISZERO PUSH2 0x10 JUMPI PUSH1 0x0 DUP1 REVERT JUMPDEST POP PUSH1 0x4 CALLDATASIZE LT PUSH2 0x57 JUMPI PUSH1 0x0 CALLDATALOAD PUSH1 0xE0 SHR DUP1 PUSH4 0x246982C4 EQ PUSH2 0x5C JUMPI DUP1 PUSH4 0x267C68E0 EQ PUSH2 0x91 JUMPI DUP1 PUSH4 0x2D74E28A EQ PUSH2 0xAF JUMPI DUP1 PUSH4 0x8DA5CB5B EQ PUSH2 0xCB JUMPI DUP1 PUSH4 0x9E7A13AD EQ PUSH2 0xE9 JUMPI JUMPDEST PUSH1 0x0 DUP1 REVERT JUMPDEST PUSH2 0x76 PUSH1 0x4 DUP1 CALLDATASIZE SUB DUP2 ADD SWAP1 PUSH2 0x71 SWAP2 SWAP1 PUSH2 0x533 JUMP JUMPDEST PUSH2 0x11E JUMP JUMPDEST PUSH1 0x40 MLOAD PUSH2 0x88 SWAP7 SWAP6 SWAP5 SWAP4 SWAP3 SWAP2 SWAP1 PUSH2 0x608 JUMP JUMPDEST PUSH1 0x40 MLOAD DUP1 SWAP2 SUB SWAP1 RETURN JUMPDEST PUSH2 0x99 PUSH2 0x241 JUMP JUMPDEST PUSH1 0x40 MLOAD PUSH2 0xA6 SWAP2 SWAP1 PUSH2 0x670 JUMP JUMPDEST PUSH1 0x40 MLOAD DUP1 SWAP2 SUB SWAP1 RETURN JUMPDEST PUSH2 0xC9 PUSH1 0x4 DUP1 CALLDATASIZE SUB DUP2 ADD SWAP1 PUSH2 0xC4 SWAP2 SWAP1 PUSH2 0x7C0 JUMP JUMPDEST PUSH2 0x247 JUMP JUMPDEST STOP JUMPDEST PUSH2 0xD3 PUSH2 0x343 JUMP JUMPDEST PUSH1 0x40 MLOAD PUSH2 0xE0 SWAP2 SWAP1 PUSH2 0x8AA JUMP JUMPDEST PUSH1 0x40 MLOAD DUP1 SWAP2 SUB SWAP1 RETURN JUMPDEST PUSH2 0x103 PUSH1 0x4 DUP1 CALLDATASIZE SUB DUP2 ADD SWAP1 PUSH2 0xFE SWAP2 SWAP1 PUSH2 0x533 JUMP JUMPDEST PUSH2 0x367 JUMP JUMPDEST PUSH1 0x40 MLOAD PUSH2 0x115 SWAP7 SWAP6 SWAP5 SWAP4 SWAP3 SWAP2 SWAP1 PUSH2 0x608 JUMP JUMPDEST PUSH1 0x40 MLOAD DUP1 SWAP2 SUB SWAP1 RETURN JUMPDEST PUSH1 0x0 DUP1 PUSH1 0x60 PUSH1 0x0 DUP1 PUSH1 0x0 DUP1 PUSH1 0x2 PUSH1 0x0 DUP10 DUP2 MSTORE PUSH1 0x20 ADD SWAP1 DUP2 MSTORE PUSH1 0x20 ADD PUSH1 0x0 KECCAK256 PUSH1 0x40 MLOAD DUP1 PUSH1 0xC0 ADD PUSH1 0x40 MSTORE SWAP1 DUP2 PUSH1 0x0 DUP3 ADD SLOAD DUP2 MSTORE PUSH1 0x20 ADD PUSH1 0x1 DUP3 ADD SLOAD DUP2 MSTORE PUSH1 0x20 ADD PUSH1 0x2 DUP3 ADD DUP1 SLOAD PUSH2 0x16B SWAP1 PUSH2 0x8F4 JUMP JUMPDEST DUP1 PUSH1 0x1F ADD PUSH1 0x20 DUP1 SWAP2 DIV MUL PUSH1 0x20 ADD PUSH1 0x40 MLOAD SWAP1 DUP2 ADD PUSH1 0x40 MSTORE DUP1 SWAP3 SWAP2 SWAP1 DUP2 DUP2 MSTORE PUSH1 0x20 ADD DUP3 DUP1 SLOAD PUSH2 0x197 SWAP1 PUSH2 0x8F4 JUMP JUMPDEST DUP1 ISZERO PUSH2 0x1E4 JUMPI DUP1 PUSH1 0x1F LT PUSH2 0x1B9 JUMPI PUSH2 0x100 DUP1 DUP4 SLOAD DIV MUL DUP4 MSTORE SWAP2 PUSH1 0x20 ADD SWAP2 PUSH2 0x1E4 JUMP JUMPDEST DUP3 ADD SWAP2 SWAP1 PUSH1 0x0 MSTORE PUSH1 0x20 PUSH1 0x0 KECCAK256 SWAP1 JUMPDEST DUP2 SLOAD DUP2 MSTORE SWAP1 PUSH1 0x1 ADD SWAP1 PUSH1 0x20 ADD DUP1 DUP4 GT PUSH2 0x1C7 JUMPI DUP3 SWAP1 SUB PUSH1 0x1F AND DUP3 ADD SWAP2 JUMPDEST POP POP POP POP POP DUP2 MSTORE PUSH1 0x20 ADD PUSH1 0x3 DUP3 ADD SLOAD DUP2 MSTORE PUSH1 0x20 ADD PUSH1 0x4 DUP3 ADD SLOAD DUP2 MSTORE PUSH1 0x20 ADD PUSH1 0x5 DUP3 ADD SLOAD DUP2 MSTORE POP POP SWAP1 POP DUP1 PUSH1 0x0 ADD MLOAD DUP2 PUSH1 0x20 ADD MLOAD DUP3 PUSH1 0x40 ADD MLOAD DUP4 PUSH1 0x60 ADD MLOAD DUP5 PUSH1 0x80 ADD MLOAD DUP6 PUSH1 0xA0 ADD MLOAD SWAP7 POP SWAP7 POP SWAP7 POP SWAP7 POP SWAP7 POP SWAP7 POP POP SWAP2 SWAP4 SWAP6 POP SWAP2 SWAP4 SWAP6 JUMP JUMPDEST PUSH1 0x1 SLOAD DUP2 JUMP JUMPDEST PUSH1 0x0 DUP1 SLOAD SWAP1 PUSH2 0x100 EXP SWAP1 DIV PUSH20 0xFFFFFFFFFFFFFFFFFFFFFFFFFFFFFFFFFFFFFFFF AND PUSH20 0xFFFFFFFFFFFFFFFFFFFFFFFFFFFFFFFFFFFFFFFF AND CALLER PUSH20 0xFFFFFFFFFFFFFFFFFFFFFFFFFFFFFFFFFFFFFFFF AND EQ PUSH2 0x29F JUMPI PUSH1 0x0 DUP1 REVERT JUMPDEST PUSH2 0x2A7 PUSH2 0x42B JUMP JUMPDEST PUSH1 0x40 MLOAD DUP1 PUSH1 0xC0 ADD PUSH1 0x40 MSTORE DUP1 DUP8 DUP2 MSTORE PUSH1 0x20 ADD DUP7 DUP2 MSTORE PUSH1 0x20 ADD DUP6 DUP2 MSTORE PUSH1 0x20 ADD DUP5 DUP2 MSTORE PUSH1 0x20 ADD DUP4 DUP2 MSTORE PUSH1 0x20 ADD DUP3 DUP2 MSTORE POP PUSH1 0x2 PUSH1 0x0 PUSH1 0x1 SLOAD DUP2 MSTORE PUSH1 0x20 ADD SWAP1 DUP2 MSTORE PUSH1 0x20 ADD PUSH1 0x0 KECCAK256 PUSH1 0x0 DUP3 ADD MLOAD DUP2 PUSH1 0x0 ADD SSTORE PUSH1 0x20 DUP3 ADD MLOAD DUP2 PUSH1 0x1 ADD SSTORE PUSH1 0x40 DUP3 ADD MLOAD DUP2 PUSH1 0x2 ADD SWAP1 DUP1 MLOAD SWAP1 PUSH1 0x20 ADD SWAP1 PUSH2 0x319 SWAP3 SWAP2 SWAP1 PUSH2 0x446 JUMP JUMPDEST POP PUSH1 0x60 DUP3 ADD MLOAD DUP2 PUSH1 0x3 ADD SSTORE PUSH1 0x80 DUP3 ADD MLOAD DUP2 PUSH1 0x4 ADD SSTORE PUSH1 0xA0 DUP3 ADD MLOAD DUP2 PUSH1 0x5 ADD SSTORE SWAP1 POP POP POP POP POP POP POP POP JUMP JUMPDEST PUSH1 0x0 DUP1 SLOAD SWAP1 PUSH2 0x100 EXP SWAP1 DIV PUSH20 0xFFFFFFFFFFFFFFFFFFFFFFFFFFFFFFFFFFFFFFFF AND DUP2 JUMP JUMPDEST PUSH1 0x2 PUSH1 0x20 MSTORE DUP1 PUSH1 0x0 MSTORE PUSH1 0x40 PUSH1 0x0 KECCAK256 PUSH1 0x0 SWAP2 POP SWAP1 POP DUP1 PUSH1 0x0 ADD SLOAD SWAP1 DUP1 PUSH1 0x1 ADD SLOAD SWAP1 DUP1 PUSH1 0x2 ADD DUP1 SLOAD PUSH2 0x396 SWAP1 PUSH2 0x8F4 JUMP JUMPDEST DUP1 PUSH1 0x1F ADD PUSH1 0x20 DUP1 SWAP2 DIV MUL PUSH1 0x20 ADD PUSH1 0x40 MLOAD SWAP1 DUP2 ADD PUSH1 0x40 MSTORE DUP1 SWAP3 SWAP2 SWAP1 DUP2 DUP2 MSTORE PUSH1 0x20 ADD DUP3 DUP1 SLOAD PUSH2 0x3C2 SWAP1 PUSH2 0x8F4 JUMP JUMPDEST DUP1 ISZERO PUSH2 0x40F JUMPI DUP1 PUSH1 0x1F LT PUSH2 0x3E4 JUMPI PUSH2 0x100 DUP1 DUP4 SLOAD DIV MUL DUP4 MSTORE SWAP2 PUSH1 0x20 ADD SWAP2 PUSH2 0x40F JUMP JUMPDEST DUP3 ADD SWAP2 SWAP1 PUSH1 0x0 MSTORE PUSH1 0x20 PUSH1 0x0 KECCAK256 SWAP1 JUMPDEST DUP2 SLOAD DUP2 MSTORE SWAP1 PUSH1 0x1 ADD SWAP1 PUSH1 0x20 ADD DUP1 DUP4 GT PUSH2 0x3F2 JUMPI DUP3 SWAP1 SUB PUSH1 0x1F AND DUP3 ADD SWAP2 JUMPDEST POP POP POP POP POP SWAP1 DUP1 PUSH1 0x3 ADD SLOAD SWAP1 DUP1 PUSH1 0x4 ADD SLOAD SWAP1 DUP1 PUSH1 0x5 ADD SLOAD SWAP1 POP DUP7 JUMP JUMPDEST PUSH1 0x1 DUP1 PUSH1 0x0 DUP3 DUP3 SLOAD PUSH2 0x43D SWAP2 SWAP1 PUSH2 0x954 JUMP JUMPDEST SWAP3 POP POP DUP2 SWAP1 SSTORE POP JUMP JUMPDEST DUP3 DUP1 SLOAD PUSH2 0x452 SWAP1 PUSH2 0x8F4 JUMP JUMPDEST SWAP1 PUSH1 0x0 MSTORE PUSH1 0x20 PUSH1 0x0 KECCAK256 SWAP1 PUSH1 0x1F ADD PUSH1 0x20 SWAP1 DIV DUP2 ADD SWAP3 DUP3 PUSH2 0x474 JUMPI PUSH1 0x0 DUP6 SSTORE PUSH2 0x4BB JUMP JUMPDEST DUP3 PUSH1 0x1F LT PUSH2 0x48D JUMPI DUP1 MLOAD PUSH1 0xFF NOT AND DUP4 DUP1 ADD OR DUP6 SSTORE PUSH2 0x4BB JUMP JUMPDEST DUP3 DUP1 ADD PUSH1 0x1 ADD DUP6 SSTORE DUP3 ISZERO PUSH2 0x4BB JUMPI SWAP2 DUP3 ADD JUMPDEST DUP3 DUP2 GT ISZERO PUSH2 0x4BA JUMPI DUP3 MLOAD DUP3 SSTORE SWAP2 PUSH1 0x20 ADD SWAP2 SWAP1 PUSH1 0x1 ADD SWAP1 PUSH2 0x49F JUMP JUMPDEST JUMPDEST POP SWAP1 POP PUSH2 0x4C8 SWAP2 SWAP1 PUSH2 0x4CC JUMP JUMPDEST POP SWAP1 JUMP JUMPDEST JUMPDEST DUP1 DUP3 GT ISZERO PUSH2 0x4E5 JUMPI PUSH1 0x0 DUP2 PUSH1 0x0 SWAP1 SSTORE POP PUSH1 0x1 ADD PUSH2 0x4CD JUMP JUMPDEST POP SWAP1 JUMP JUMPDEST PUSH1 0x0 PUSH1 0x40 MLOAD SWAP1 POP SWAP1 JUMP JUMPDEST PUSH1 0x0 DUP1 REVERT JUMPDEST PUSH1 0x0 DUP1 REVERT JUMPDEST PUSH1 0x0 DUP2 SWAP1 POP SWAP2 SWAP1 POP JUMP JUMPDEST PUSH2 0x510 DUP2 PUSH2 0x4FD JUMP JUMPDEST DUP2 EQ PUSH2 0x51B JUMPI PUSH1 0x0 DUP1 REVERT JUMPDEST POP JUMP JUMPDEST PUSH1 0x0 DUP2 CALLDATALOAD SWAP1 POP PUSH2 0x52D DUP2 PUSH2 0x507 JUMP JUMPDEST SWAP3 SWAP2 POP POP JUMP JUMPDEST PUSH1 0x0 PUSH1 0x20 DUP3 DUP5 SUB SLT ISZERO PUSH2 0x549 JUMPI PUSH2 0x548 PUSH2 0x4F3 JUMP JUMPDEST JUMPDEST PUSH1 0x0 PUSH2 0x557 DUP5 DUP3 DUP6 ADD PUSH2 0x51E JUMP JUMPDEST SWAP2 POP POP SWAP3 SWAP2 POP POP JUMP JUMPDEST PUSH2 0x569 DUP2 PUSH2 0x4FD JUMP JUMPDEST DUP3 MSTORE POP POP JUMP JUMPDEST PUSH1 0x0 DUP2 MLOAD SWAP1 POP SWAP2 SWAP1 POP JUMP JUMPDEST PUSH1 0x0 DUP3 DUP3 MSTORE PUSH1 0x20 DUP3 ADD SWAP1 POP SWAP3 SWAP2 POP POP JUMP JUMPDEST PUSH1 0x0 JUMPDEST DUP4 DUP2 LT ISZERO PUSH2 0x5A9 JUMPI DUP1 DUP3 ADD MLOAD DUP2 DUP5 ADD MSTORE PUSH1 0x20 DUP2 ADD SWAP1 POP PUSH2 0x58E JUMP JUMPDEST DUP4 DUP2 GT ISZERO PUSH2 0x5B8 JUMPI PUSH1 0x0 DUP5 DUP5 ADD MSTORE JUMPDEST POP POP POP POP JUMP JUMPDEST PUSH1 0x0 PUSH1 0x1F NOT PUSH1 0x1F DUP4 ADD AND SWAP1 POP SWAP2 SWAP1 POP JUMP JUMPDEST PUSH1 0x0 PUSH2 0x5DA DUP3 PUSH2 0x56F JUMP JUMPDEST PUSH2 0x5E4 DUP2 DUP6 PUSH2 0x57A JUMP JUMPDEST SWAP4 POP PUSH2 0x5F4 DUP2 DUP6 PUSH1 0x20 DUP7 ADD PUSH2 0x58B JUMP JUMPDEST PUSH2 0x5FD DUP2 PUSH2 0x5BE JUMP JUMPDEST DUP5 ADD SWAP2 POP POP SWAP3 SWAP2 POP POP JUMP JUMPDEST PUSH1 0x0 PUSH1 0xC0 DUP3 ADD SWAP1 POP PUSH2 0x61D PUSH1 0x0 DUP4 ADD DUP10 PUSH2 0x560 JUMP JUMPDEST PUSH2 0x62A PUSH1 0x20 DUP4 ADD DUP9 PUSH2 0x560 JUMP JUMPDEST DUP2 DUP2 SUB PUSH1 0x40 DUP4 ADD MSTORE PUSH2 0x63C DUP2 DUP8 PUSH2 0x5CF JUMP JUMPDEST SWAP1 POP PUSH2 0x64B PUSH1 0x60 DUP4 ADD DUP7 PUSH2 0x560 JUMP JUMPDEST PUSH2 0x658 PUSH1 0x80 DUP4 ADD DUP6 PUSH2 0x560 JUMP JUMPDEST PUSH2 0x665 PUSH1 0xA0 DUP4 ADD DUP5 PUSH2 0x560 JUMP JUMPDEST SWAP8 SWAP7 POP POP POP POP POP POP POP JUMP JUMPDEST PUSH1 0x0 PUSH1 0x20 DUP3 ADD SWAP1 POP PUSH2 0x685 PUSH1 0x0 DUP4 ADD DUP5 PUSH2 0x560 JUMP JUMPDEST SWAP3 SWAP2 POP POP JUMP JUMPDEST PUSH1 0x0 DUP1 REVERT JUMPDEST PUSH1 0x0 DUP1 REVERT JUMPDEST PUSH32 0x4E487B7100000000000000000000000000000000000000000000000000000000 PUSH1 0x0 MSTORE PUSH1 0x41 PUSH1 0x4 MSTORE PUSH1 0x24 PUSH1 0x0 REVERT JUMPDEST PUSH2 0x6CD DUP3 PUSH2 0x5BE JUMP JUMPDEST DUP2 ADD DUP2 DUP2 LT PUSH8 0xFFFFFFFFFFFFFFFF DUP3 GT OR ISZERO PUSH2 0x6EC JUMPI PUSH2 0x6EB PUSH2 0x695 JUMP JUMPDEST JUMPDEST DUP1 PUSH1 0x40 MSTORE POP POP POP JUMP JUMPDEST PUSH1 0x0 PUSH2 0x6FF PUSH2 0x4E9 JUMP JUMPDEST SWAP1 POP PUSH2 0x70B DUP3 DUP3 PUSH2 0x6C4 JUMP JUMPDEST SWAP2 SWAP1 POP JUMP JUMPDEST PUSH1 0x0 PUSH8 0xFFFFFFFFFFFFFFFF DUP3 GT ISZERO PUSH2 0x72B JUMPI PUSH2 0x72A PUSH2 0x695 JUMP JUMPDEST JUMPDEST PUSH2 0x734 DUP3 PUSH2 0x5BE JUMP JUMPDEST SWAP1 POP PUSH1 0x20 DUP2 ADD SWAP1 POP SWAP2 SWAP1 POP JUMP JUMPDEST DUP3 DUP2 DUP4 CALLDATACOPY PUSH1 0x0 DUP4 DUP4 ADD MSTORE POP POP POP JUMP JUMPDEST PUSH1 0x0 PUSH2 0x763 PUSH2 0x75E DUP5 PUSH2 0x710 JUMP JUMPDEST PUSH2 0x6F5 JUMP JUMPDEST SWAP1 POP DUP3 DUP2 MSTORE PUSH1 0x20 DUP2 ADD DUP5 DUP5 DUP5 ADD GT ISZERO PUSH2 0x77F JUMPI PUSH2 0x77E PUSH2 0x690 JUMP JUMPDEST JUMPDEST PUSH2 0x78A DUP5 DUP3 DUP6 PUSH2 0x741 JUMP JUMPDEST POP SWAP4 SWAP3 POP POP POP JUMP JUMPDEST PUSH1 0x0 DUP3 PUSH1 0x1F DUP4 ADD SLT PUSH2 0x7A7 JUMPI PUSH2 0x7A6 PUSH2 0x68B JUMP JUMPDEST JUMPDEST DUP2 CALLDATALOAD PUSH2 0x7B7 DUP5 DUP3 PUSH1 0x20 DUP7 ADD PUSH2 0x750 JUMP JUMPDEST SWAP2 POP POP SWAP3 SWAP2 POP POP JUMP JUMPDEST PUSH1 0x0 DUP1 PUSH1 0x0 DUP1 PUSH1 0x0 DUP1 PUSH1 0xC0 DUP8 DUP10 SUB SLT ISZERO PUSH2 0x7DD JUMPI PUSH2 0x7DC PUSH2 0x4F3 JUMP JUMPDEST JUMPDEST PUSH1 0x0 PUSH2 0x7EB DUP10 DUP3 DUP11 ADD PUSH2 0x51E JUMP JUMPDEST SWAP7 POP POP PUSH1 0x20 PUSH2 0x7FC DUP10 DUP3 DUP11 ADD PUSH2 0x51E JUMP JUMPDEST SWAP6 POP POP PUSH1 0x40 DUP8 ADD CALLDATALOAD PUSH8 0xFFFFFFFFFFFFFFFF DUP2 GT ISZERO PUSH2 0x81D JUMPI PUSH2 0x81C PUSH2 0x4F8 JUMP JUMPDEST JUMPDEST PUSH2 0x829 DUP10 DUP3 DUP11 ADD PUSH2 0x792 JUMP JUMPDEST SWAP5 POP POP PUSH1 0x60 PUSH2 0x83A DUP10 DUP3 DUP11 ADD PUSH2 0x51E JUMP JUMPDEST SWAP4 POP POP PUSH1 0x80 PUSH2 0x84B DUP10 DUP3 DUP11 ADD PUSH2 0x51E JUMP JUMPDEST SWAP3 POP POP PUSH1 0xA0 PUSH2 0x85C DUP10 DUP3 DUP11 ADD PUSH2 0x51E JUMP JUMPDEST SWAP2 POP POP SWAP3 SWAP6 POP SWAP3 SWAP6 POP SWAP3 SWAP6 JUMP JUMPDEST PUSH1 0x0 PUSH20 0xFFFFFFFFFFFFFFFFFFFFFFFFFFFFFFFFFFFFFFFF DUP3 AND SWAP1 POP SWAP2 SWAP1 POP JUMP JUMPDEST PUSH1 0x0 PUSH2 0x894 DUP3 PUSH2 0x869 JUMP JUMPDEST SWAP1 POP SWAP2 SWAP1 POP JUMP JUMPDEST PUSH2 0x8A4 DUP2 PUSH2 0x889 JUMP JUMPDEST DUP3 MSTORE POP POP JUMP JUMPDEST PUSH1 0x0 PUSH1 0x20 DUP3 ADD SWAP1 POP PUSH2 0x8BF PUSH1 0x0 DUP4 ADD DUP5 PUSH2 0x89B JUMP JUMPDEST SWAP3 SWAP2 POP POP JUMP JUMPDEST PUSH32 0x4E487B7100000000000000000000000000000000000000000000000000000000 PUSH1 0x0 MSTORE PUSH1 0x22 PUSH1 0x4 MSTORE PUSH1 0x24 PUSH1 0x0 REVERT JUMPDEST PUSH1 0x0 PUSH1 0x2 DUP3 DIV SWAP1 POP PUSH1 0x1 DUP3 AND DUP1 PUSH2 0x90C JUMPI PUSH1 0x7F DUP3 AND SWAP2 POP JUMPDEST PUSH1 0x20 DUP3 LT DUP2 SUB PUSH2 0x91F JUMPI PUSH2 0x91E PUSH2 0x8C5 JUMP JUMPDEST JUMPDEST POP SWAP2 SWAP1 POP JUMP JUMPDEST PUSH32 0x4E487B7100000000000000000000000000000000000000000000000000000000 PUSH1 0x0 MSTORE PUSH1 0x11 PUSH1 0x4 MSTORE PUSH1 0x24 PUSH1 0x0 REVERT JUMPDEST PUSH1 0x0 PUSH2 0x95F DUP3 PUSH2 0x4FD JUMP JUMPDEST SWAP2 POP PUSH2 0x96A DUP4 PUSH2 0x4FD JUMP JUMPDEST SWAP3 POP DUP3 PUSH32 0xFFFFFFFFFFFFFFFFFFFFFFFFFFFFFFFFFFFFFFFFFFFFFFFFFFFFFFFFFFFFFFFF SUB DUP3 GT ISZERO PUSH2 0x99F JUMPI PUSH2 0x99E PUSH2 0x925 JUMP JUMPDEST JUMPDEST DUP3 DUP3 ADD SWAP1 POP SWAP3 SWAP2 POP POP JUMP INVALID LOG2 PUSH5 0x6970667358 0x22 SLT KECCAK256 SWAP1 PUSH3 0x8A97E 0xB8 0xAF 0xE5 0xC7 0xAD CALLDATACOPY PUSH12 0x5F82C4E328FA8FD88064D343 0x4F REVERT 0xE4 SWAP10 0xAD 0xB7 0xE5 SWAP13 PUSH5 0x736F6C6343 STOP ADDMOD 0xD STOP CALLER "
				},
				"gasEstimates": {
					"creation": {
						"codeDepositCost": "505600",
						"executionCost": "29809",
						"totalCost": "535409"
					},
					"external": {
						"addPerson(uint256,uint256,string,uint256,uint256,uint256)": "infinite",
						"getPerson(uint256)": "infinite",
						"owner()": "2555",
						"people(uint256)": "infinite",
						"peopleCount()": "2429"
					},
					"internal": {
						"incrementCount()": "infinite"
					}
				},
				"methodIdentifiers": {
					"addPerson(uint256,uint256,string,uint256,uint256,uint256)": "2d74e28a",
					"getPerson(uint256)": "246982c4",
					"owner()": "8da5cb5b",
					"people(uint256)": "9e7a13ad",
					"peopleCount()": "267c68e0"
				}
			},
			"userdoc": {
				"kind": "user",
				"methods": {},
				"version": 1
			}
		}
	}
}