{
	"ETH-Remix/HungerGames/HungerGames.sol": {
		"HungerGames": {
			"abi": [
				{
					"inputs": [
						{
							"internalType": "uint256",
							"name": "_id",
							"type": "uint256"
						},
						{
							"internalType": "string",
							"name": "_name",
							"type": "string"
						},
						{
							"internalType": "uint256",
							"name": "_weight",
							"type": "uint256"
						},
						{
							"internalType": "uint256",
							"name": "_bet",
							"type": "uint256"
						},
						{
							"internalType": "address payable",
							"name": "_receiver",
							"type": "address"
						}
					],
					"name": "addPerson",
					"outputs": [],
					"stateMutability": "nonpayable",
					"type": "function"
				},
				{
					"inputs": [
						{
							"internalType": "uint256",
							"name": "_index",
							"type": "uint256"
						}
					],
					"name": "getPerson",
					"outputs": [
						{
							"internalType": "uint256",
							"name": "",
							"type": "uint256"
						},
						{
							"internalType": "string",
							"name": "",
							"type": "string"
						},
						{
							"internalType": "uint256",
							"name": "",
							"type": "uint256"
						},
						{
							"internalType": "uint256",
							"name": "",
							"type": "uint256"
						}
					],
					"stateMutability": "view",
					"type": "function"
				},
				{
					"inputs": [],
					"name": "owner",
					"outputs": [
						{
							"internalType": "address",
							"name": "",
							"type": "address"
						}
					],
					"stateMutability": "view",
					"type": "function"
				},
				{
					"inputs": [
						{
							"internalType": "uint256",
							"name": "",
							"type": "uint256"
						}
					],
					"name": "people",
					"outputs": [
						{
							"internalType": "uint256",
							"name": "_id",
							"type": "uint256"
						},
						{
							"internalType": "string",
							"name": "_name",
							"type": "string"
						},
						{
							"internalType": "uint256",
							"name": "_weight",
							"type": "uint256"
						},
						{
							"internalType": "uint256",
							"name": "_bet",
							"type": "uint256"
						},
						{
							"internalType": "address payable",
							"name": "_receiver",
							"type": "address"
						}
					],
					"stateMutability": "view",
					"type": "function"
				},
				{
					"inputs": [],
					"name": "peopleCount",
					"outputs": [
						{
							"internalType": "uint256",
							"name": "",
							"type": "uint256"
						}
					],
					"stateMutability": "view",
					"type": "function"
				}
			],
			"devdoc": {
				"kind": "dev",
				"methods": {},
				"version": 1
			},
			"evm": {
				"assembly": "    /* \"ETH-Remix/HungerGames/HungerGames.sol\":479:1571  contract HungerGames is Ownable, Timeable {... */\n  mstore(0x40, 0x80)\n    /* \"ETH-Remix/HungerGames/TimeoftheGames.sol\":114:124  1648436401 */\n  0x624124b1\n    /* \"ETH-Remix/HungerGames/TimeoftheGames.sol\":95:124  uint openingTime = 1648436401 */\n  0x01\n  sstore\n    /* \"ETH-Remix/HungerGames/HungerGames.sol\":582:583  0 */\n  0x00\n    /* \"ETH-Remix/HungerGames/HungerGames.sol\":553:583  uint256 public peopleCount = 0 */\n  0x02\n  sstore\n    /* \"ETH-Remix/HungerGames/HungerGames.sol\":479:1571  contract HungerGames is Ownable, Timeable {... */\n  callvalue\n  dup1\n  iszero\n  tag_1\n  jumpi\n  0x00\n  dup1\n  revert\ntag_1:\n  pop\n    /* \"ETH-Remix/HungerGames/Ownable.sol\":262:272  msg.sender */\n  caller\n    /* \"ETH-Remix/HungerGames/Ownable.sol\":254:259  owner */\n  0x00\n  dup1\n    /* \"ETH-Remix/HungerGames/Ownable.sol\":254:272  owner = msg.sender */\n  0x0100\n  exp\n  dup2\n  sload\n  dup2\n  0xffffffffffffffffffffffffffffffffffffffff\n  mul\n  not\n  and\n  swap1\n  dup4\n  0xffffffffffffffffffffffffffffffffffffffff\n  and\n  mul\n  or\n  swap1\n  sstore\n  pop\n    /* \"ETH-Remix/HungerGames/HungerGames.sol\":479:1571  contract HungerGames is Ownable, Timeable {... */\n  dataSize(sub_0)\n  dup1\n  dataOffset(sub_0)\n  0x00\n  codecopy\n  0x00\n  return\nstop\n\nsub_0: assembly {\n        /* \"ETH-Remix/HungerGames/HungerGames.sol\":479:1571  contract HungerGames is Ownable, Timeable {... */\n      mstore(0x40, 0x80)\n      callvalue\n      dup1\n      iszero\n      tag_1\n      jumpi\n      0x00\n      dup1\n      revert\n    tag_1:\n      pop\n      jumpi(tag_2, lt(calldatasize, 0x04))\n      shr(0xe0, calldataload(0x00))\n      dup1\n      0x18d875df\n      eq\n      tag_3\n      jumpi\n      dup1\n      0x246982c4\n      eq\n      tag_4\n      jumpi\n      dup1\n      0x267c68e0\n      eq\n      tag_5\n      jumpi\n      dup1\n      0x8da5cb5b\n      eq\n      tag_6\n      jumpi\n      dup1\n      0x9e7a13ad\n      eq\n      tag_7\n      jumpi\n    tag_2:\n      0x00\n      dup1\n      revert\n        /* \"ETH-Remix/HungerGames/HungerGames.sol\":968:1220  function addPerson(uint _id, string memory _name, uint _weight, uint _bet, address payable _receiver)... */\n    tag_3:\n      tag_8\n      0x04\n      dup1\n      calldatasize\n      sub\n      dup2\n      add\n      swap1\n      tag_9\n      swap2\n      swap1\n      tag_10\n      jump\t// in\n    tag_9:\n      tag_11\n      jump\t// in\n    tag_8:\n      stop\n        /* \"ETH-Remix/HungerGames/HungerGames.sol\":1306:1564  function getPerson(uint _index) public view returns (uint, string memory, uint, uint) {... */\n    tag_4:\n      tag_12\n      0x04\n      dup1\n      calldatasize\n      sub\n      dup2\n      add\n      swap1\n      tag_13\n      swap2\n      swap1\n      tag_14\n      jump\t// in\n    tag_13:\n      tag_15\n      jump\t// in\n    tag_12:\n      mload(0x40)\n      tag_16\n      swap5\n      swap4\n      swap3\n      swap2\n      swap1\n      tag_17\n      jump\t// in\n    tag_16:\n      mload(0x40)\n      dup1\n      swap2\n      sub\n      swap1\n      return\n        /* \"ETH-Remix/HungerGames/HungerGames.sol\":553:583  uint256 public peopleCount = 0 */\n    tag_5:\n      tag_18\n      tag_19\n      jump\t// in\n    tag_18:\n      mload(0x40)\n      tag_20\n      swap2\n      swap1\n      tag_21\n      jump\t// in\n    tag_20:\n      mload(0x40)\n      dup1\n      swap2\n      sub\n      swap1\n      return\n        /* \"ETH-Remix/HungerGames/Ownable.sol\":92:112  address public owner */\n    tag_6:\n      tag_22\n      tag_23\n      jump\t// in\n    tag_22:\n      mload(0x40)\n      tag_24\n      swap2\n      swap1\n      tag_25\n      jump\t// in\n    tag_24:\n      mload(0x40)\n      dup1\n      swap2\n      sub\n      swap1\n      return\n        /* \"ETH-Remix/HungerGames/HungerGames.sol\":592:629  mapping(uint => Person) public people */\n    tag_7:\n      tag_26\n      0x04\n      dup1\n      calldatasize\n      sub\n      dup2\n      add\n      swap1\n      tag_27\n      swap2\n      swap1\n      tag_14\n      jump\t// in\n    tag_27:\n      tag_28\n      jump\t// in\n    tag_26:\n      mload(0x40)\n      tag_29\n      swap6\n      swap5\n      swap4\n      swap3\n      swap2\n      swap1\n      tag_30\n      jump\t// in\n    tag_29:\n      mload(0x40)\n      dup1\n      swap2\n      sub\n      swap1\n      return\n        /* \"ETH-Remix/HungerGames/HungerGames.sol\":968:1220  function addPerson(uint _id, string memory _name, uint _weight, uint _bet, address payable _receiver)... */\n    tag_11:\n        /* \"ETH-Remix/HungerGames/Ownable.sol\":173:178  owner */\n      0x00\n      dup1\n      sload\n      swap1\n      0x0100\n      exp\n      swap1\n      div\n      0xffffffffffffffffffffffffffffffffffffffff\n      and\n        /* \"ETH-Remix/HungerGames/Ownable.sol\":159:178  msg.sender == owner */\n      0xffffffffffffffffffffffffffffffffffffffff\n      and\n        /* \"ETH-Remix/HungerGames/Ownable.sol\":159:169  msg.sender */\n      caller\n        /* \"ETH-Remix/HungerGames/Ownable.sol\":159:178  msg.sender == owner */\n      0xffffffffffffffffffffffffffffffffffffffff\n      and\n      eq\n        /* \"ETH-Remix/HungerGames/Ownable.sol\":151:179  require(msg.sender == owner) */\n      tag_32\n      jumpi\n      0x00\n      dup1\n      revert\n    tag_32:\n        /* \"ETH-Remix/HungerGames/TimeoftheGames.sol\":194:205  openingTime */\n      sload(0x01)\n        /* \"ETH-Remix/HungerGames/TimeoftheGames.sol\":175:190  block.timestamp */\n      timestamp\n        /* \"ETH-Remix/HungerGames/TimeoftheGames.sol\":175:205  block.timestamp >= openingTime */\n      lt\n      iszero\n        /* \"ETH-Remix/HungerGames/TimeoftheGames.sol\":167:206  require(block.timestamp >= openingTime) */\n      tag_34\n      jumpi\n      0x00\n      dup1\n      revert\n    tag_34:\n        /* \"ETH-Remix/HungerGames/HungerGames.sol\":1118:1134  incrementCount() */\n      tag_36\n        /* \"ETH-Remix/HungerGames/HungerGames.sol\":1118:1132  incrementCount */\n      tag_37\n        /* \"ETH-Remix/HungerGames/HungerGames.sol\":1118:1134  incrementCount() */\n      jump\t// in\n    tag_36:\n        /* \"ETH-Remix/HungerGames/HungerGames.sol\":1167:1212  Person(_id , _name, _weight, _bet, _receiver) */\n      mload(0x40)\n      dup1\n      0xa0\n      add\n      0x40\n      mstore\n      dup1\n        /* \"ETH-Remix/HungerGames/HungerGames.sol\":1174:1177  _id */\n      dup7\n        /* \"ETH-Remix/HungerGames/HungerGames.sol\":1167:1212  Person(_id , _name, _weight, _bet, _receiver) */\n      dup2\n      mstore\n      0x20\n      add\n        /* \"ETH-Remix/HungerGames/HungerGames.sol\":1180:1185  _name */\n      dup6\n        /* \"ETH-Remix/HungerGames/HungerGames.sol\":1167:1212  Person(_id , _name, _weight, _bet, _receiver) */\n      dup2\n      mstore\n      0x20\n      add\n        /* \"ETH-Remix/HungerGames/HungerGames.sol\":1187:1194  _weight */\n      dup5\n        /* \"ETH-Remix/HungerGames/HungerGames.sol\":1167:1212  Person(_id , _name, _weight, _bet, _receiver) */\n      dup2\n      mstore\n      0x20\n      add\n        /* \"ETH-Remix/HungerGames/HungerGames.sol\":1196:1200  _bet */\n      dup4\n        /* \"ETH-Remix/HungerGames/HungerGames.sol\":1167:1212  Person(_id , _name, _weight, _bet, _receiver) */\n      dup2\n      mstore\n      0x20\n      add\n        /* \"ETH-Remix/HungerGames/HungerGames.sol\":1202:1211  _receiver */\n      dup3\n        /* \"ETH-Remix/HungerGames/HungerGames.sol\":1167:1212  Person(_id , _name, _weight, _bet, _receiver) */\n      0xffffffffffffffffffffffffffffffffffffffff\n      and\n      dup2\n      mstore\n      pop\n        /* \"ETH-Remix/HungerGames/HungerGames.sol\":1145:1151  people */\n      0x03\n        /* \"ETH-Remix/HungerGames/HungerGames.sol\":1145:1164  people[peopleCount] */\n      0x00\n        /* \"ETH-Remix/HungerGames/HungerGames.sol\":1152:1163  peopleCount */\n      sload(0x02)\n        /* \"ETH-Remix/HungerGames/HungerGames.sol\":1145:1164  people[peopleCount] */\n      dup2\n      mstore\n      0x20\n      add\n      swap1\n      dup2\n      mstore\n      0x20\n      add\n      0x00\n      keccak256\n        /* \"ETH-Remix/HungerGames/HungerGames.sol\":1145:1212  people[peopleCount] = Person(_id , _name, _weight, _bet, _receiver) */\n      0x00\n      dup3\n      add\n      mload\n      dup2\n      0x00\n      add\n      sstore\n      0x20\n      dup3\n      add\n      mload\n      dup2\n      0x01\n      add\n      swap1\n      dup1\n      mload\n      swap1\n      0x20\n      add\n      swap1\n      tag_38\n      swap3\n      swap2\n      swap1\n      tag_39\n      jump\t// in\n    tag_38:\n      pop\n      0x40\n      dup3\n      add\n      mload\n      dup2\n      0x02\n      add\n      sstore\n      0x60\n      dup3\n      add\n      mload\n      dup2\n      0x03\n      add\n      sstore\n      0x80\n      dup3\n      add\n      mload\n      dup2\n      0x04\n      add\n      exp(0x0100, 0x00)\n      dup2\n      sload\n      dup2\n      0xffffffffffffffffffffffffffffffffffffffff\n      mul\n      not\n      and\n      swap1\n      dup4\n      0xffffffffffffffffffffffffffffffffffffffff\n      and\n      mul\n      or\n      swap1\n      sstore\n      pop\n      swap1\n      pop\n      pop\n        /* \"ETH-Remix/HungerGames/HungerGames.sol\":968:1220  function addPerson(uint _id, string memory _name, uint _weight, uint _bet, address payable _receiver)... */\n      pop\n      pop\n      pop\n      pop\n      pop\n      jump\t// out\n        /* \"ETH-Remix/HungerGames/HungerGames.sol\":1306:1564  function getPerson(uint _index) public view returns (uint, string memory, uint, uint) {... */\n    tag_15:\n        /* \"ETH-Remix/HungerGames/HungerGames.sol\":1359:1363  uint */\n      0x00\n        /* \"ETH-Remix/HungerGames/HungerGames.sol\":1365:1378  string memory */\n      0x60\n        /* \"ETH-Remix/HungerGames/HungerGames.sol\":1380:1384  uint */\n      0x00\n        /* \"ETH-Remix/HungerGames/HungerGames.sol\":1386:1390  uint */\n      dup1\n        /* \"ETH-Remix/HungerGames/HungerGames.sol\":1403:1431  Person memory personToReturn */\n      0x00\n        /* \"ETH-Remix/HungerGames/HungerGames.sol\":1434:1440  people */\n      0x03\n        /* \"ETH-Remix/HungerGames/HungerGames.sol\":1434:1448  people[_index] */\n      0x00\n        /* \"ETH-Remix/HungerGames/HungerGames.sol\":1441:1447  _index */\n      dup8\n        /* \"ETH-Remix/HungerGames/HungerGames.sol\":1434:1448  people[_index] */\n      dup2\n      mstore\n      0x20\n      add\n      swap1\n      dup2\n      mstore\n      0x20\n      add\n      0x00\n      keccak256\n        /* \"ETH-Remix/HungerGames/HungerGames.sol\":1403:1448  Person memory personToReturn = people[_index] */\n      mload(0x40)\n      dup1\n      0xa0\n      add\n      0x40\n      mstore\n      swap1\n      dup2\n      0x00\n      dup3\n      add\n      sload\n      dup2\n      mstore\n      0x20\n      add\n      0x01\n      dup3\n      add\n      dup1\n      sload\n      tag_41\n      swap1\n      tag_42\n      jump\t// in\n    tag_41:\n      dup1\n      0x1f\n      add\n      0x20\n      dup1\n      swap2\n      div\n      mul\n      0x20\n      add\n      mload(0x40)\n      swap1\n      dup2\n      add\n      0x40\n      mstore\n      dup1\n      swap3\n      swap2\n      swap1\n      dup2\n      dup2\n      mstore\n      0x20\n      add\n      dup3\n      dup1\n      sload\n      tag_43\n      swap1\n      tag_42\n      jump\t// in\n    tag_43:\n      dup1\n      iszero\n      tag_44\n      jumpi\n      dup1\n      0x1f\n      lt\n      tag_45\n      jumpi\n      0x0100\n      dup1\n      dup4\n      sload\n      div\n      mul\n      dup4\n      mstore\n      swap2\n      0x20\n      add\n      swap2\n      jump(tag_44)\n    tag_45:\n      dup3\n      add\n      swap2\n      swap1\n      0x00\n      mstore\n      keccak256(0x00, 0x20)\n      swap1\n    tag_46:\n      dup2\n      sload\n      dup2\n      mstore\n      swap1\n      0x01\n      add\n      swap1\n      0x20\n      add\n      dup1\n      dup4\n      gt\n      tag_46\n      jumpi\n      dup3\n      swap1\n      sub\n      0x1f\n      and\n      dup3\n      add\n      swap2\n    tag_44:\n      pop\n      pop\n      pop\n      pop\n      pop\n      dup2\n      mstore\n      0x20\n      add\n      0x02\n      dup3\n      add\n      sload\n      dup2\n      mstore\n      0x20\n      add\n      0x03\n      dup3\n      add\n      sload\n      dup2\n      mstore\n      0x20\n      add\n      0x04\n      dup3\n      add\n      0x00\n      swap1\n      sload\n      swap1\n      0x0100\n      exp\n      swap1\n      div\n      0xffffffffffffffffffffffffffffffffffffffff\n      and\n      0xffffffffffffffffffffffffffffffffffffffff\n      and\n      0xffffffffffffffffffffffffffffffffffffffff\n      and\n      dup2\n      mstore\n      pop\n      pop\n      swap1\n      pop\n        /* \"ETH-Remix/HungerGames/HungerGames.sol\":1467:1481  personToReturn */\n      dup1\n        /* \"ETH-Remix/HungerGames/HungerGames.sol\":1467:1485  personToReturn._id */\n      0x00\n      add\n      mload\n        /* \"ETH-Remix/HungerGames/HungerGames.sol\":1487:1501  personToReturn */\n      dup2\n        /* \"ETH-Remix/HungerGames/HungerGames.sol\":1487:1507  personToReturn._name */\n      0x20\n      add\n      mload\n        /* \"ETH-Remix/HungerGames/HungerGames.sol\":1509:1523  personToReturn */\n      dup3\n        /* \"ETH-Remix/HungerGames/HungerGames.sol\":1509:1531  personToReturn._weight */\n      0x40\n      add\n      mload\n        /* \"ETH-Remix/HungerGames/HungerGames.sol\":1533:1547  personToReturn */\n      dup4\n        /* \"ETH-Remix/HungerGames/HungerGames.sol\":1533:1552  personToReturn._bet */\n      0x60\n      add\n      mload\n        /* \"ETH-Remix/HungerGames/HungerGames.sol\":1459:1553  return (personToReturn._id, personToReturn._name, personToReturn._weight, personToReturn._bet) */\n      swap5\n      pop\n      swap5\n      pop\n      swap5\n      pop\n      swap5\n      pop\n      pop\n        /* \"ETH-Remix/HungerGames/HungerGames.sol\":1306:1564  function getPerson(uint _index) public view returns (uint, string memory, uint, uint) {... */\n      swap2\n      swap4\n      pop\n      swap2\n      swap4\n      jump\t// out\n        /* \"ETH-Remix/HungerGames/HungerGames.sol\":553:583  uint256 public peopleCount = 0 */\n    tag_19:\n      sload(0x02)\n      dup2\n      jump\t// out\n        /* \"ETH-Remix/HungerGames/Ownable.sol\":92:112  address public owner */\n    tag_23:\n      0x00\n      dup1\n      sload\n      swap1\n      0x0100\n      exp\n      swap1\n      div\n      0xffffffffffffffffffffffffffffffffffffffff\n      and\n      dup2\n      jump\t// out\n        /* \"ETH-Remix/HungerGames/HungerGames.sol\":592:629  mapping(uint => Person) public people */\n    tag_28:\n      mstore(0x20, 0x03)\n      dup1\n      0x00\n      mstore\n      keccak256(0x00, 0x40)\n      0x00\n      swap2\n      pop\n      swap1\n      pop\n      dup1\n      0x00\n      add\n      sload\n      swap1\n      dup1\n      0x01\n      add\n      dup1\n      sload\n      tag_47\n      swap1\n      tag_42\n      jump\t// in\n    tag_47:\n      dup1\n      0x1f\n      add\n      0x20\n      dup1\n      swap2\n      div\n      mul\n      0x20\n      add\n      mload(0x40)\n      swap1\n      dup2\n      add\n      0x40\n      mstore\n      dup1\n      swap3\n      swap2\n      swap1\n      dup2\n      dup2\n      mstore\n      0x20\n      add\n      dup3\n      dup1\n      sload\n      tag_48\n      swap1\n      tag_42\n      jump\t// in\n    tag_48:\n      dup1\n      iszero\n      tag_49\n      jumpi\n      dup1\n      0x1f\n      lt\n      tag_50\n      jumpi\n      0x0100\n      dup1\n      dup4\n      sload\n      div\n      mul\n      dup4\n      mstore\n      swap2\n      0x20\n      add\n      swap2\n      jump(tag_49)\n    tag_50:\n      dup3\n      add\n      swap2\n      swap1\n      0x00\n      mstore\n      keccak256(0x00, 0x20)\n      swap1\n    tag_51:\n      dup2\n      sload\n      dup2\n      mstore\n      swap1\n      0x01\n      add\n      swap1\n      0x20\n      add\n      dup1\n      dup4\n      gt\n      tag_51\n      jumpi\n      dup3\n      swap1\n      sub\n      0x1f\n      and\n      dup3\n      add\n      swap2\n    tag_49:\n      pop\n      pop\n      pop\n      pop\n      pop\n      swap1\n      dup1\n      0x02\n      add\n      sload\n      swap1\n      dup1\n      0x03\n      add\n      sload\n      swap1\n      dup1\n      0x04\n      add\n      0x00\n      swap1\n      sload\n      swap1\n      0x0100\n      exp\n      swap1\n      div\n      0xffffffffffffffffffffffffffffffffffffffff\n      and\n      swap1\n      pop\n      dup6\n      jump\t// out\n        /* \"ETH-Remix/HungerGames/HungerGames.sol\":1228:1298  function incrementCount() internal {... */\n    tag_37:\n        /* \"ETH-Remix/HungerGames/HungerGames.sol\":1289:1290  1 */\n      0x01\n        /* \"ETH-Remix/HungerGames/HungerGames.sol\":1274:1285  peopleCount */\n      0x02\n      0x00\n        /* \"ETH-Remix/HungerGames/HungerGames.sol\":1274:1290  peopleCount += 1 */\n      dup3\n      dup3\n      sload\n      tag_53\n      swap2\n      swap1\n      tag_54\n      jump\t// in\n    tag_53:\n      swap3\n      pop\n      pop\n      dup2\n      swap1\n      sstore\n      pop\n        /* \"ETH-Remix/HungerGames/HungerGames.sol\":1228:1298  function incrementCount() internal {... */\n      jump\t// out\n    tag_39:\n      dup3\n      dup1\n      sload\n      tag_55\n      swap1\n      tag_42\n      jump\t// in\n    tag_55:\n      swap1\n      0x00\n      mstore\n      keccak256(0x00, 0x20)\n      swap1\n      0x1f\n      add\n      0x20\n      swap1\n      div\n      dup2\n      add\n      swap3\n      dup3\n      tag_57\n      jumpi\n      0x00\n      dup6\n      sstore\n      jump(tag_56)\n    tag_57:\n      dup3\n      0x1f\n      lt\n      tag_58\n      jumpi\n      dup1\n      mload\n      not(0xff)\n      and\n      dup4\n      dup1\n      add\n      or\n      dup6\n      sstore\n      jump(tag_56)\n    tag_58:\n      dup3\n      dup1\n      add\n      0x01\n      add\n      dup6\n      sstore\n      dup3\n      iszero\n      tag_56\n      jumpi\n      swap2\n      dup3\n      add\n    tag_59:\n      dup3\n      dup2\n      gt\n      iszero\n      tag_60\n      jumpi\n      dup3\n      mload\n      dup3\n      sstore\n      swap2\n      0x20\n      add\n      swap2\n      swap1\n      0x01\n      add\n      swap1\n      jump(tag_59)\n    tag_60:\n    tag_56:\n      pop\n      swap1\n      pop\n      tag_61\n      swap2\n      swap1\n      tag_62\n      jump\t// in\n    tag_61:\n      pop\n      swap1\n      jump\t// out\n    tag_62:\n    tag_63:\n      dup1\n      dup3\n      gt\n      iszero\n      tag_64\n      jumpi\n      0x00\n      dup2\n      0x00\n      swap1\n      sstore\n      pop\n      0x01\n      add\n      jump(tag_63)\n    tag_64:\n      pop\n      swap1\n      jump\t// out\n        /* \"#utility.yul\":7:82   */\n    tag_65:\n        /* \"#utility.yul\":40:46   */\n      0x00\n        /* \"#utility.yul\":73:75   */\n      0x40\n        /* \"#utility.yul\":67:76   */\n      mload\n        /* \"#utility.yul\":57:76   */\n      swap1\n      pop\n        /* \"#utility.yul\":7:82   */\n      swap1\n      jump\t// out\n        /* \"#utility.yul\":88:205   */\n    tag_66:\n        /* \"#utility.yul\":197:198   */\n      0x00\n        /* \"#utility.yul\":194:195   */\n      dup1\n        /* \"#utility.yul\":187:199   */\n      revert\n        /* \"#utility.yul\":211:328   */\n    tag_67:\n        /* \"#utility.yul\":320:321   */\n      0x00\n        /* \"#utility.yul\":317:318   */\n      dup1\n        /* \"#utility.yul\":310:322   */\n      revert\n        /* \"#utility.yul\":334:411   */\n    tag_68:\n        /* \"#utility.yul\":371:378   */\n      0x00\n        /* \"#utility.yul\":400:405   */\n      dup2\n        /* \"#utility.yul\":389:405   */\n      swap1\n      pop\n        /* \"#utility.yul\":334:411   */\n      swap2\n      swap1\n      pop\n      jump\t// out\n        /* \"#utility.yul\":417:539   */\n    tag_69:\n        /* \"#utility.yul\":490:514   */\n      tag_101\n        /* \"#utility.yul\":508:513   */\n      dup2\n        /* \"#utility.yul\":490:514   */\n      tag_68\n      jump\t// in\n    tag_101:\n        /* \"#utility.yul\":483:488   */\n      dup2\n        /* \"#utility.yul\":480:515   */\n      eq\n        /* \"#utility.yul\":470:533   */\n      tag_102\n      jumpi\n        /* \"#utility.yul\":529:530   */\n      0x00\n        /* \"#utility.yul\":526:527   */\n      dup1\n        /* \"#utility.yul\":519:531   */\n      revert\n        /* \"#utility.yul\":470:533   */\n    tag_102:\n        /* \"#utility.yul\":417:539   */\n      pop\n      jump\t// out\n        /* \"#utility.yul\":545:684   */\n    tag_70:\n        /* \"#utility.yul\":591:596   */\n      0x00\n        /* \"#utility.yul\":629:635   */\n      dup2\n        /* \"#utility.yul\":616:636   */\n      calldataload\n        /* \"#utility.yul\":607:636   */\n      swap1\n      pop\n        /* \"#utility.yul\":645:678   */\n      tag_104\n        /* \"#utility.yul\":672:677   */\n      dup2\n        /* \"#utility.yul\":645:678   */\n      tag_69\n      jump\t// in\n    tag_104:\n        /* \"#utility.yul\":545:684   */\n      swap3\n      swap2\n      pop\n      pop\n      jump\t// out\n        /* \"#utility.yul\":690:807   */\n    tag_71:\n        /* \"#utility.yul\":799:800   */\n      0x00\n        /* \"#utility.yul\":796:797   */\n      dup1\n        /* \"#utility.yul\":789:801   */\n      revert\n        /* \"#utility.yul\":813:930   */\n    tag_72:\n        /* \"#utility.yul\":922:923   */\n      0x00\n        /* \"#utility.yul\":919:920   */\n      dup1\n        /* \"#utility.yul\":912:924   */\n      revert\n        /* \"#utility.yul\":936:1038   */\n    tag_73:\n        /* \"#utility.yul\":977:983   */\n      0x00\n        /* \"#utility.yul\":1028:1030   */\n      0x1f\n        /* \"#utility.yul\":1024:1031   */\n      not\n        /* \"#utility.yul\":1019:1021   */\n      0x1f\n        /* \"#utility.yul\":1012:1017   */\n      dup4\n        /* \"#utility.yul\":1008:1022   */\n      add\n        /* \"#utility.yul\":1004:1032   */\n      and\n        /* \"#utility.yul\":994:1032   */\n      swap1\n      pop\n        /* \"#utility.yul\":936:1038   */\n      swap2\n      swap1\n      pop\n      jump\t// out\n        /* \"#utility.yul\":1044:1224   */\n    tag_74:\n        /* \"#utility.yul\":1092:1169   */\n      0x4e487b7100000000000000000000000000000000000000000000000000000000\n        /* \"#utility.yul\":1089:1090   */\n      0x00\n        /* \"#utility.yul\":1082:1170   */\n      mstore\n        /* \"#utility.yul\":1189:1193   */\n      0x41\n        /* \"#utility.yul\":1186:1187   */\n      0x04\n        /* \"#utility.yul\":1179:1194   */\n      mstore\n        /* \"#utility.yul\":1213:1217   */\n      0x24\n        /* \"#utility.yul\":1210:1211   */\n      0x00\n        /* \"#utility.yul\":1203:1218   */\n      revert\n        /* \"#utility.yul\":1230:1511   */\n    tag_75:\n        /* \"#utility.yul\":1313:1340   */\n      tag_110\n        /* \"#utility.yul\":1335:1339   */\n      dup3\n        /* \"#utility.yul\":1313:1340   */\n      tag_73\n      jump\t// in\n    tag_110:\n        /* \"#utility.yul\":1305:1311   */\n      dup2\n        /* \"#utility.yul\":1301:1341   */\n      add\n        /* \"#utility.yul\":1443:1449   */\n      dup2\n        /* \"#utility.yul\":1431:1441   */\n      dup2\n        /* \"#utility.yul\":1428:1450   */\n      lt\n        /* \"#utility.yul\":1407:1425   */\n      0xffffffffffffffff\n        /* \"#utility.yul\":1395:1405   */\n      dup3\n        /* \"#utility.yul\":1392:1426   */\n      gt\n        /* \"#utility.yul\":1389:1451   */\n      or\n        /* \"#utility.yul\":1386:1474   */\n      iszero\n      tag_111\n      jumpi\n        /* \"#utility.yul\":1454:1472   */\n      tag_112\n      tag_74\n      jump\t// in\n    tag_112:\n        /* \"#utility.yul\":1386:1474   */\n    tag_111:\n        /* \"#utility.yul\":1494:1504   */\n      dup1\n        /* \"#utility.yul\":1490:1492   */\n      0x40\n        /* \"#utility.yul\":1483:1505   */\n      mstore\n        /* \"#utility.yul\":1273:1511   */\n      pop\n        /* \"#utility.yul\":1230:1511   */\n      pop\n      pop\n      jump\t// out\n        /* \"#utility.yul\":1517:1646   */\n    tag_76:\n        /* \"#utility.yul\":1551:1557   */\n      0x00\n        /* \"#utility.yul\":1578:1598   */\n      tag_114\n      tag_65\n      jump\t// in\n    tag_114:\n        /* \"#utility.yul\":1568:1598   */\n      swap1\n      pop\n        /* \"#utility.yul\":1607:1640   */\n      tag_115\n        /* \"#utility.yul\":1635:1639   */\n      dup3\n        /* \"#utility.yul\":1627:1633   */\n      dup3\n        /* \"#utility.yul\":1607:1640   */\n      tag_75\n      jump\t// in\n    tag_115:\n        /* \"#utility.yul\":1517:1646   */\n      swap2\n      swap1\n      pop\n      jump\t// out\n        /* \"#utility.yul\":1652:1960   */\n    tag_77:\n        /* \"#utility.yul\":1714:1718   */\n      0x00\n        /* \"#utility.yul\":1804:1822   */\n      0xffffffffffffffff\n        /* \"#utility.yul\":1796:1802   */\n      dup3\n        /* \"#utility.yul\":1793:1823   */\n      gt\n        /* \"#utility.yul\":1790:1846   */\n      iszero\n      tag_117\n      jumpi\n        /* \"#utility.yul\":1826:1844   */\n      tag_118\n      tag_74\n      jump\t// in\n    tag_118:\n        /* \"#utility.yul\":1790:1846   */\n    tag_117:\n        /* \"#utility.yul\":1864:1893   */\n      tag_119\n        /* \"#utility.yul\":1886:1892   */\n      dup3\n        /* \"#utility.yul\":1864:1893   */\n      tag_73\n      jump\t// in\n    tag_119:\n        /* \"#utility.yul\":1856:1893   */\n      swap1\n      pop\n        /* \"#utility.yul\":1948:1952   */\n      0x20\n        /* \"#utility.yul\":1942:1946   */\n      dup2\n        /* \"#utility.yul\":1938:1953   */\n      add\n        /* \"#utility.yul\":1930:1953   */\n      swap1\n      pop\n        /* \"#utility.yul\":1652:1960   */\n      swap2\n      swap1\n      pop\n      jump\t// out\n        /* \"#utility.yul\":1966:2120   */\n    tag_78:\n        /* \"#utility.yul\":2050:2056   */\n      dup3\n        /* \"#utility.yul\":2045:2048   */\n      dup2\n        /* \"#utility.yul\":2040:2043   */\n      dup4\n        /* \"#utility.yul\":2027:2057   */\n      calldatacopy\n        /* \"#utility.yul\":2112:2113   */\n      0x00\n        /* \"#utility.yul\":2103:2109   */\n      dup4\n        /* \"#utility.yul\":2098:2101   */\n      dup4\n        /* \"#utility.yul\":2094:2110   */\n      add\n        /* \"#utility.yul\":2087:2114   */\n      mstore\n        /* \"#utility.yul\":1966:2120   */\n      pop\n      pop\n      pop\n      jump\t// out\n        /* \"#utility.yul\":2126:2538   */\n    tag_79:\n        /* \"#utility.yul\":2204:2209   */\n      0x00\n        /* \"#utility.yul\":2229:2295   */\n      tag_122\n        /* \"#utility.yul\":2245:2294   */\n      tag_123\n        /* \"#utility.yul\":2287:2293   */\n      dup5\n        /* \"#utility.yul\":2245:2294   */\n      tag_77\n      jump\t// in\n    tag_123:\n        /* \"#utility.yul\":2229:2295   */\n      tag_76\n      jump\t// in\n    tag_122:\n        /* \"#utility.yul\":2220:2295   */\n      swap1\n      pop\n        /* \"#utility.yul\":2318:2324   */\n      dup3\n        /* \"#utility.yul\":2311:2316   */\n      dup2\n        /* \"#utility.yul\":2304:2325   */\n      mstore\n        /* \"#utility.yul\":2356:2360   */\n      0x20\n        /* \"#utility.yul\":2349:2354   */\n      dup2\n        /* \"#utility.yul\":2345:2361   */\n      add\n        /* \"#utility.yul\":2394:2397   */\n      dup5\n        /* \"#utility.yul\":2385:2391   */\n      dup5\n        /* \"#utility.yul\":2380:2383   */\n      dup5\n        /* \"#utility.yul\":2376:2392   */\n      add\n        /* \"#utility.yul\":2373:2398   */\n      gt\n        /* \"#utility.yul\":2370:2482   */\n      iszero\n      tag_124\n      jumpi\n        /* \"#utility.yul\":2401:2480   */\n      tag_125\n      tag_72\n      jump\t// in\n    tag_125:\n        /* \"#utility.yul\":2370:2482   */\n    tag_124:\n        /* \"#utility.yul\":2491:2532   */\n      tag_126\n        /* \"#utility.yul\":2525:2531   */\n      dup5\n        /* \"#utility.yul\":2520:2523   */\n      dup3\n        /* \"#utility.yul\":2515:2518   */\n      dup6\n        /* \"#utility.yul\":2491:2532   */\n      tag_78\n      jump\t// in\n    tag_126:\n        /* \"#utility.yul\":2210:2538   */\n      pop\n        /* \"#utility.yul\":2126:2538   */\n      swap4\n      swap3\n      pop\n      pop\n      pop\n      jump\t// out\n        /* \"#utility.yul\":2558:2898   */\n    tag_80:\n        /* \"#utility.yul\":2614:2619   */\n      0x00\n        /* \"#utility.yul\":2663:2666   */\n      dup3\n        /* \"#utility.yul\":2656:2660   */\n      0x1f\n        /* \"#utility.yul\":2648:2654   */\n      dup4\n        /* \"#utility.yul\":2644:2661   */\n      add\n        /* \"#utility.yul\":2640:2667   */\n      slt\n        /* \"#utility.yul\":2630:2752   */\n      tag_128\n      jumpi\n        /* \"#utility.yul\":2671:2750   */\n      tag_129\n      tag_71\n      jump\t// in\n    tag_129:\n        /* \"#utility.yul\":2630:2752   */\n    tag_128:\n        /* \"#utility.yul\":2788:2794   */\n      dup2\n        /* \"#utility.yul\":2775:2795   */\n      calldataload\n        /* \"#utility.yul\":2813:2892   */\n      tag_130\n        /* \"#utility.yul\":2888:2891   */\n      dup5\n        /* \"#utility.yul\":2880:2886   */\n      dup3\n        /* \"#utility.yul\":2873:2877   */\n      0x20\n        /* \"#utility.yul\":2865:2871   */\n      dup7\n        /* \"#utility.yul\":2861:2878   */\n      add\n        /* \"#utility.yul\":2813:2892   */\n      tag_79\n      jump\t// in\n    tag_130:\n        /* \"#utility.yul\":2804:2892   */\n      swap2\n      pop\n        /* \"#utility.yul\":2620:2898   */\n      pop\n        /* \"#utility.yul\":2558:2898   */\n      swap3\n      swap2\n      pop\n      pop\n      jump\t// out\n        /* \"#utility.yul\":2904:3030   */\n    tag_81:\n        /* \"#utility.yul\":2941:2948   */\n      0x00\n        /* \"#utility.yul\":2981:3023   */\n      0xffffffffffffffffffffffffffffffffffffffff\n        /* \"#utility.yul\":2974:2979   */\n      dup3\n        /* \"#utility.yul\":2970:3024   */\n      and\n        /* \"#utility.yul\":2959:3024   */\n      swap1\n      pop\n        /* \"#utility.yul\":2904:3030   */\n      swap2\n      swap1\n      pop\n      jump\t// out\n        /* \"#utility.yul\":3036:3140   */\n    tag_82:\n        /* \"#utility.yul\":3081:3088   */\n      0x00\n        /* \"#utility.yul\":3110:3134   */\n      tag_133\n        /* \"#utility.yul\":3128:3133   */\n      dup3\n        /* \"#utility.yul\":3110:3134   */\n      tag_81\n      jump\t// in\n    tag_133:\n        /* \"#utility.yul\":3099:3134   */\n      swap1\n      pop\n        /* \"#utility.yul\":3036:3140   */\n      swap2\n      swap1\n      pop\n      jump\t// out\n        /* \"#utility.yul\":3146:3284   */\n    tag_83:\n        /* \"#utility.yul\":3227:3259   */\n      tag_135\n        /* \"#utility.yul\":3253:3258   */\n      dup2\n        /* \"#utility.yul\":3227:3259   */\n      tag_82\n      jump\t// in\n    tag_135:\n        /* \"#utility.yul\":3220:3225   */\n      dup2\n        /* \"#utility.yul\":3217:3260   */\n      eq\n        /* \"#utility.yul\":3207:3278   */\n      tag_136\n      jumpi\n        /* \"#utility.yul\":3274:3275   */\n      0x00\n        /* \"#utility.yul\":3271:3272   */\n      dup1\n        /* \"#utility.yul\":3264:3276   */\n      revert\n        /* \"#utility.yul\":3207:3278   */\n    tag_136:\n        /* \"#utility.yul\":3146:3284   */\n      pop\n      jump\t// out\n        /* \"#utility.yul\":3290:3445   */\n    tag_84:\n        /* \"#utility.yul\":3344:3349   */\n      0x00\n        /* \"#utility.yul\":3382:3388   */\n      dup2\n        /* \"#utility.yul\":3369:3389   */\n      calldataload\n        /* \"#utility.yul\":3360:3389   */\n      swap1\n      pop\n        /* \"#utility.yul\":3398:3439   */\n      tag_138\n        /* \"#utility.yul\":3433:3438   */\n      dup2\n        /* \"#utility.yul\":3398:3439   */\n      tag_83\n      jump\t// in\n    tag_138:\n        /* \"#utility.yul\":3290:3445   */\n      swap3\n      swap2\n      pop\n      pop\n      jump\t// out\n        /* \"#utility.yul\":3451:4558   */\n    tag_10:\n        /* \"#utility.yul\":3564:3570   */\n      0x00\n        /* \"#utility.yul\":3572:3578   */\n      dup1\n        /* \"#utility.yul\":3580:3586   */\n      0x00\n        /* \"#utility.yul\":3588:3594   */\n      dup1\n        /* \"#utility.yul\":3596:3602   */\n      0x00\n        /* \"#utility.yul\":3645:3648   */\n      0xa0\n        /* \"#utility.yul\":3633:3642   */\n      dup7\n        /* \"#utility.yul\":3624:3631   */\n      dup9\n        /* \"#utility.yul\":3620:3643   */\n      sub\n        /* \"#utility.yul\":3616:3649   */\n      slt\n        /* \"#utility.yul\":3613:3733   */\n      iszero\n      tag_140\n      jumpi\n        /* \"#utility.yul\":3652:3731   */\n      tag_141\n      tag_66\n      jump\t// in\n    tag_141:\n        /* \"#utility.yul\":3613:3733   */\n    tag_140:\n        /* \"#utility.yul\":3772:3773   */\n      0x00\n        /* \"#utility.yul\":3797:3850   */\n      tag_142\n        /* \"#utility.yul\":3842:3849   */\n      dup9\n        /* \"#utility.yul\":3833:3839   */\n      dup3\n        /* \"#utility.yul\":3822:3831   */\n      dup10\n        /* \"#utility.yul\":3818:3840   */\n      add\n        /* \"#utility.yul\":3797:3850   */\n      tag_70\n      jump\t// in\n    tag_142:\n        /* \"#utility.yul\":3787:3850   */\n      swap6\n      pop\n        /* \"#utility.yul\":3743:3860   */\n      pop\n        /* \"#utility.yul\":3927:3929   */\n      0x20\n        /* \"#utility.yul\":3916:3925   */\n      dup7\n        /* \"#utility.yul\":3912:3930   */\n      add\n        /* \"#utility.yul\":3899:3931   */\n      calldataload\n        /* \"#utility.yul\":3958:3976   */\n      0xffffffffffffffff\n        /* \"#utility.yul\":3950:3956   */\n      dup2\n        /* \"#utility.yul\":3947:3977   */\n      gt\n        /* \"#utility.yul\":3944:4061   */\n      iszero\n      tag_143\n      jumpi\n        /* \"#utility.yul\":3980:4059   */\n      tag_144\n      tag_67\n      jump\t// in\n    tag_144:\n        /* \"#utility.yul\":3944:4061   */\n    tag_143:\n        /* \"#utility.yul\":4085:4148   */\n      tag_145\n        /* \"#utility.yul\":4140:4147   */\n      dup9\n        /* \"#utility.yul\":4131:4137   */\n      dup3\n        /* \"#utility.yul\":4120:4129   */\n      dup10\n        /* \"#utility.yul\":4116:4138   */\n      add\n        /* \"#utility.yul\":4085:4148   */\n      tag_80\n      jump\t// in\n    tag_145:\n        /* \"#utility.yul\":4075:4148   */\n      swap5\n      pop\n        /* \"#utility.yul\":3870:4158   */\n      pop\n        /* \"#utility.yul\":4197:4199   */\n      0x40\n        /* \"#utility.yul\":4223:4276   */\n      tag_146\n        /* \"#utility.yul\":4268:4275   */\n      dup9\n        /* \"#utility.yul\":4259:4265   */\n      dup3\n        /* \"#utility.yul\":4248:4257   */\n      dup10\n        /* \"#utility.yul\":4244:4266   */\n      add\n        /* \"#utility.yul\":4223:4276   */\n      tag_70\n      jump\t// in\n    tag_146:\n        /* \"#utility.yul\":4213:4276   */\n      swap4\n      pop\n        /* \"#utility.yul\":4168:4286   */\n      pop\n        /* \"#utility.yul\":4325:4327   */\n      0x60\n        /* \"#utility.yul\":4351:4404   */\n      tag_147\n        /* \"#utility.yul\":4396:4403   */\n      dup9\n        /* \"#utility.yul\":4387:4393   */\n      dup3\n        /* \"#utility.yul\":4376:4385   */\n      dup10\n        /* \"#utility.yul\":4372:4394   */\n      add\n        /* \"#utility.yul\":4351:4404   */\n      tag_70\n      jump\t// in\n    tag_147:\n        /* \"#utility.yul\":4341:4404   */\n      swap3\n      pop\n        /* \"#utility.yul\":4296:4414   */\n      pop\n        /* \"#utility.yul\":4453:4456   */\n      0x80\n        /* \"#utility.yul\":4480:4541   */\n      tag_148\n        /* \"#utility.yul\":4533:4540   */\n      dup9\n        /* \"#utility.yul\":4524:4530   */\n      dup3\n        /* \"#utility.yul\":4513:4522   */\n      dup10\n        /* \"#utility.yul\":4509:4531   */\n      add\n        /* \"#utility.yul\":4480:4541   */\n      tag_84\n      jump\t// in\n    tag_148:\n        /* \"#utility.yul\":4470:4541   */\n      swap2\n      pop\n        /* \"#utility.yul\":4424:4551   */\n      pop\n        /* \"#utility.yul\":3451:4558   */\n      swap3\n      swap6\n      pop\n      swap3\n      swap6\n      swap1\n      swap4\n      pop\n      jump\t// out\n        /* \"#utility.yul\":4564:4893   */\n    tag_14:\n        /* \"#utility.yul\":4623:4629   */\n      0x00\n        /* \"#utility.yul\":4672:4674   */\n      0x20\n        /* \"#utility.yul\":4660:4669   */\n      dup3\n        /* \"#utility.yul\":4651:4658   */\n      dup5\n        /* \"#utility.yul\":4647:4670   */\n      sub\n        /* \"#utility.yul\":4643:4675   */\n      slt\n        /* \"#utility.yul\":4640:4759   */\n      iszero\n      tag_150\n      jumpi\n        /* \"#utility.yul\":4678:4757   */\n      tag_151\n      tag_66\n      jump\t// in\n    tag_151:\n        /* \"#utility.yul\":4640:4759   */\n    tag_150:\n        /* \"#utility.yul\":4798:4799   */\n      0x00\n        /* \"#utility.yul\":4823:4876   */\n      tag_152\n        /* \"#utility.yul\":4868:4875   */\n      dup5\n        /* \"#utility.yul\":4859:4865   */\n      dup3\n        /* \"#utility.yul\":4848:4857   */\n      dup6\n        /* \"#utility.yul\":4844:4866   */\n      add\n        /* \"#utility.yul\":4823:4876   */\n      tag_70\n      jump\t// in\n    tag_152:\n        /* \"#utility.yul\":4813:4876   */\n      swap2\n      pop\n        /* \"#utility.yul\":4769:4886   */\n      pop\n        /* \"#utility.yul\":4564:4893   */\n      swap3\n      swap2\n      pop\n      pop\n      jump\t// out\n        /* \"#utility.yul\":4899:5017   */\n    tag_85:\n        /* \"#utility.yul\":4986:5010   */\n      tag_154\n        /* \"#utility.yul\":5004:5009   */\n      dup2\n        /* \"#utility.yul\":4986:5010   */\n      tag_68\n      jump\t// in\n    tag_154:\n        /* \"#utility.yul\":4981:4984   */\n      dup3\n        /* \"#utility.yul\":4974:5011   */\n      mstore\n        /* \"#utility.yul\":4899:5017   */\n      pop\n      pop\n      jump\t// out\n        /* \"#utility.yul\":5023:5122   */\n    tag_86:\n        /* \"#utility.yul\":5075:5081   */\n      0x00\n        /* \"#utility.yul\":5109:5114   */\n      dup2\n        /* \"#utility.yul\":5103:5115   */\n      mload\n        /* \"#utility.yul\":5093:5115   */\n      swap1\n      pop\n        /* \"#utility.yul\":5023:5122   */\n      swap2\n      swap1\n      pop\n      jump\t// out\n        /* \"#utility.yul\":5128:5297   */\n    tag_87:\n        /* \"#utility.yul\":5212:5223   */\n      0x00\n        /* \"#utility.yul\":5246:5252   */\n      dup3\n        /* \"#utility.yul\":5241:5244   */\n      dup3\n        /* \"#utility.yul\":5234:5253   */\n      mstore\n        /* \"#utility.yul\":5286:5290   */\n      0x20\n        /* \"#utility.yul\":5281:5284   */\n      dup3\n        /* \"#utility.yul\":5277:5291   */\n      add\n        /* \"#utility.yul\":5262:5291   */\n      swap1\n      pop\n        /* \"#utility.yul\":5128:5297   */\n      swap3\n      swap2\n      pop\n      pop\n      jump\t// out\n        /* \"#utility.yul\":5303:5610   */\n    tag_88:\n        /* \"#utility.yul\":5371:5372   */\n      0x00\n        /* \"#utility.yul\":5381:5494   */\n    tag_158:\n        /* \"#utility.yul\":5395:5401   */\n      dup4\n        /* \"#utility.yul\":5392:5393   */\n      dup2\n        /* \"#utility.yul\":5389:5402   */\n      lt\n        /* \"#utility.yul\":5381:5494   */\n      iszero\n      tag_160\n      jumpi\n        /* \"#utility.yul\":5480:5481   */\n      dup1\n        /* \"#utility.yul\":5475:5478   */\n      dup3\n        /* \"#utility.yul\":5471:5482   */\n      add\n        /* \"#utility.yul\":5465:5483   */\n      mload\n        /* \"#utility.yul\":5461:5462   */\n      dup2\n        /* \"#utility.yul\":5456:5459   */\n      dup5\n        /* \"#utility.yul\":5452:5463   */\n      add\n        /* \"#utility.yul\":5445:5484   */\n      mstore\n        /* \"#utility.yul\":5417:5419   */\n      0x20\n        /* \"#utility.yul\":5414:5415   */\n      dup2\n        /* \"#utility.yul\":5410:5420   */\n      add\n        /* \"#utility.yul\":5405:5420   */\n      swap1\n      pop\n        /* \"#utility.yul\":5381:5494   */\n      jump(tag_158)\n    tag_160:\n        /* \"#utility.yul\":5512:5518   */\n      dup4\n        /* \"#utility.yul\":5509:5510   */\n      dup2\n        /* \"#utility.yul\":5506:5519   */\n      gt\n        /* \"#utility.yul\":5503:5604   */\n      iszero\n      tag_161\n      jumpi\n        /* \"#utility.yul\":5592:5593   */\n      0x00\n        /* \"#utility.yul\":5583:5589   */\n      dup5\n        /* \"#utility.yul\":5578:5581   */\n      dup5\n        /* \"#utility.yul\":5574:5590   */\n      add\n        /* \"#utility.yul\":5567:5594   */\n      mstore\n        /* \"#utility.yul\":5503:5604   */\n    tag_161:\n        /* \"#utility.yul\":5352:5610   */\n      pop\n        /* \"#utility.yul\":5303:5610   */\n      pop\n      pop\n      pop\n      jump\t// out\n        /* \"#utility.yul\":5616:5980   */\n    tag_89:\n        /* \"#utility.yul\":5704:5707   */\n      0x00\n        /* \"#utility.yul\":5732:5771   */\n      tag_163\n        /* \"#utility.yul\":5765:5770   */\n      dup3\n        /* \"#utility.yul\":5732:5771   */\n      tag_86\n      jump\t// in\n    tag_163:\n        /* \"#utility.yul\":5787:5858   */\n      tag_164\n        /* \"#utility.yul\":5851:5857   */\n      dup2\n        /* \"#utility.yul\":5846:5849   */\n      dup6\n        /* \"#utility.yul\":5787:5858   */\n      tag_87\n      jump\t// in\n    tag_164:\n        /* \"#utility.yul\":5780:5858   */\n      swap4\n      pop\n        /* \"#utility.yul\":5867:5919   */\n      tag_165\n        /* \"#utility.yul\":5912:5918   */\n      dup2\n        /* \"#utility.yul\":5907:5910   */\n      dup6\n        /* \"#utility.yul\":5900:5904   */\n      0x20\n        /* \"#utility.yul\":5893:5898   */\n      dup7\n        /* \"#utility.yul\":5889:5905   */\n      add\n        /* \"#utility.yul\":5867:5919   */\n      tag_88\n      jump\t// in\n    tag_165:\n        /* \"#utility.yul\":5944:5973   */\n      tag_166\n        /* \"#utility.yul\":5966:5972   */\n      dup2\n        /* \"#utility.yul\":5944:5973   */\n      tag_73\n      jump\t// in\n    tag_166:\n        /* \"#utility.yul\":5939:5942   */\n      dup5\n        /* \"#utility.yul\":5935:5974   */\n      add\n        /* \"#utility.yul\":5928:5974   */\n      swap2\n      pop\n        /* \"#utility.yul\":5708:5980   */\n      pop\n        /* \"#utility.yul\":5616:5980   */\n      swap3\n      swap2\n      pop\n      pop\n      jump\t// out\n        /* \"#utility.yul\":5986:6630   */\n    tag_17:\n        /* \"#utility.yul\":6183:6187   */\n      0x00\n        /* \"#utility.yul\":6221:6224   */\n      0x80\n        /* \"#utility.yul\":6210:6219   */\n      dup3\n        /* \"#utility.yul\":6206:6225   */\n      add\n        /* \"#utility.yul\":6198:6225   */\n      swap1\n      pop\n        /* \"#utility.yul\":6235:6306   */\n      tag_168\n        /* \"#utility.yul\":6303:6304   */\n      0x00\n        /* \"#utility.yul\":6292:6301   */\n      dup4\n        /* \"#utility.yul\":6288:6305   */\n      add\n        /* \"#utility.yul\":6279:6285   */\n      dup8\n        /* \"#utility.yul\":6235:6306   */\n      tag_85\n      jump\t// in\n    tag_168:\n        /* \"#utility.yul\":6353:6362   */\n      dup2\n        /* \"#utility.yul\":6347:6351   */\n      dup2\n        /* \"#utility.yul\":6343:6363   */\n      sub\n        /* \"#utility.yul\":6338:6340   */\n      0x20\n        /* \"#utility.yul\":6327:6336   */\n      dup4\n        /* \"#utility.yul\":6323:6341   */\n      add\n        /* \"#utility.yul\":6316:6364   */\n      mstore\n        /* \"#utility.yul\":6381:6459   */\n      tag_169\n        /* \"#utility.yul\":6454:6458   */\n      dup2\n        /* \"#utility.yul\":6445:6451   */\n      dup7\n        /* \"#utility.yul\":6381:6459   */\n      tag_89\n      jump\t// in\n    tag_169:\n        /* \"#utility.yul\":6373:6459   */\n      swap1\n      pop\n        /* \"#utility.yul\":6469:6541   */\n      tag_170\n        /* \"#utility.yul\":6537:6539   */\n      0x40\n        /* \"#utility.yul\":6526:6535   */\n      dup4\n        /* \"#utility.yul\":6522:6540   */\n      add\n        /* \"#utility.yul\":6513:6519   */\n      dup6\n        /* \"#utility.yul\":6469:6541   */\n      tag_85\n      jump\t// in\n    tag_170:\n        /* \"#utility.yul\":6551:6623   */\n      tag_171\n        /* \"#utility.yul\":6619:6621   */\n      0x60\n        /* \"#utility.yul\":6608:6617   */\n      dup4\n        /* \"#utility.yul\":6604:6622   */\n      add\n        /* \"#utility.yul\":6595:6601   */\n      dup5\n        /* \"#utility.yul\":6551:6623   */\n      tag_85\n      jump\t// in\n    tag_171:\n        /* \"#utility.yul\":5986:6630   */\n      swap6\n      swap5\n      pop\n      pop\n      pop\n      pop\n      pop\n      jump\t// out\n        /* \"#utility.yul\":6636:6858   */\n    tag_21:\n        /* \"#utility.yul\":6729:6733   */\n      0x00\n        /* \"#utility.yul\":6767:6769   */\n      0x20\n        /* \"#utility.yul\":6756:6765   */\n      dup3\n        /* \"#utility.yul\":6752:6770   */\n      add\n        /* \"#utility.yul\":6744:6770   */\n      swap1\n      pop\n        /* \"#utility.yul\":6780:6851   */\n      tag_173\n        /* \"#utility.yul\":6848:6849   */\n      0x00\n        /* \"#utility.yul\":6837:6846   */\n      dup4\n        /* \"#utility.yul\":6833:6850   */\n      add\n        /* \"#utility.yul\":6824:6830   */\n      dup5\n        /* \"#utility.yul\":6780:6851   */\n      tag_85\n      jump\t// in\n    tag_173:\n        /* \"#utility.yul\":6636:6858   */\n      swap3\n      swap2\n      pop\n      pop\n      jump\t// out\n        /* \"#utility.yul\":6864:6960   */\n    tag_90:\n        /* \"#utility.yul\":6901:6908   */\n      0x00\n        /* \"#utility.yul\":6930:6954   */\n      tag_175\n        /* \"#utility.yul\":6948:6953   */\n      dup3\n        /* \"#utility.yul\":6930:6954   */\n      tag_81\n      jump\t// in\n    tag_175:\n        /* \"#utility.yul\":6919:6954   */\n      swap1\n      pop\n        /* \"#utility.yul\":6864:6960   */\n      swap2\n      swap1\n      pop\n      jump\t// out\n        /* \"#utility.yul\":6966:7084   */\n    tag_91:\n        /* \"#utility.yul\":7053:7077   */\n      tag_177\n        /* \"#utility.yul\":7071:7076   */\n      dup2\n        /* \"#utility.yul\":7053:7077   */\n      tag_90\n      jump\t// in\n    tag_177:\n        /* \"#utility.yul\":7048:7051   */\n      dup3\n        /* \"#utility.yul\":7041:7078   */\n      mstore\n        /* \"#utility.yul\":6966:7084   */\n      pop\n      pop\n      jump\t// out\n        /* \"#utility.yul\":7090:7312   */\n    tag_25:\n        /* \"#utility.yul\":7183:7187   */\n      0x00\n        /* \"#utility.yul\":7221:7223   */\n      0x20\n        /* \"#utility.yul\":7210:7219   */\n      dup3\n        /* \"#utility.yul\":7206:7224   */\n      add\n        /* \"#utility.yul\":7198:7224   */\n      swap1\n      pop\n        /* \"#utility.yul\":7234:7305   */\n      tag_179\n        /* \"#utility.yul\":7302:7303   */\n      0x00\n        /* \"#utility.yul\":7291:7300   */\n      dup4\n        /* \"#utility.yul\":7287:7304   */\n      add\n        /* \"#utility.yul\":7278:7284   */\n      dup5\n        /* \"#utility.yul\":7234:7305   */\n      tag_91\n      jump\t// in\n    tag_179:\n        /* \"#utility.yul\":7090:7312   */\n      swap3\n      swap2\n      pop\n      pop\n      jump\t// out\n        /* \"#utility.yul\":7318:7460   */\n    tag_92:\n        /* \"#utility.yul\":7421:7453   */\n      tag_181\n        /* \"#utility.yul\":7447:7452   */\n      dup2\n        /* \"#utility.yul\":7421:7453   */\n      tag_82\n      jump\t// in\n    tag_181:\n        /* \"#utility.yul\":7416:7419   */\n      dup3\n        /* \"#utility.yul\":7409:7454   */\n      mstore\n        /* \"#utility.yul\":7318:7460   */\n      pop\n      pop\n      jump\t// out\n        /* \"#utility.yul\":7466:8253   */\n    tag_30:\n        /* \"#utility.yul\":7707:7711   */\n      0x00\n        /* \"#utility.yul\":7745:7748   */\n      0xa0\n        /* \"#utility.yul\":7734:7743   */\n      dup3\n        /* \"#utility.yul\":7730:7749   */\n      add\n        /* \"#utility.yul\":7722:7749   */\n      swap1\n      pop\n        /* \"#utility.yul\":7759:7830   */\n      tag_183\n        /* \"#utility.yul\":7827:7828   */\n      0x00\n        /* \"#utility.yul\":7816:7825   */\n      dup4\n        /* \"#utility.yul\":7812:7829   */\n      add\n        /* \"#utility.yul\":7803:7809   */\n      dup9\n        /* \"#utility.yul\":7759:7830   */\n      tag_85\n      jump\t// in\n    tag_183:\n        /* \"#utility.yul\":7877:7886   */\n      dup2\n        /* \"#utility.yul\":7871:7875   */\n      dup2\n        /* \"#utility.yul\":7867:7887   */\n      sub\n        /* \"#utility.yul\":7862:7864   */\n      0x20\n        /* \"#utility.yul\":7851:7860   */\n      dup4\n        /* \"#utility.yul\":7847:7865   */\n      add\n        /* \"#utility.yul\":7840:7888   */\n      mstore\n        /* \"#utility.yul\":7905:7983   */\n      tag_184\n        /* \"#utility.yul\":7978:7982   */\n      dup2\n        /* \"#utility.yul\":7969:7975   */\n      dup8\n        /* \"#utility.yul\":7905:7983   */\n      tag_89\n      jump\t// in\n    tag_184:\n        /* \"#utility.yul\":7897:7983   */\n      swap1\n      pop\n        /* \"#utility.yul\":7993:8065   */\n      tag_185\n        /* \"#utility.yul\":8061:8063   */\n      0x40\n        /* \"#utility.yul\":8050:8059   */\n      dup4\n        /* \"#utility.yul\":8046:8064   */\n      add\n        /* \"#utility.yul\":8037:8043   */\n      dup7\n        /* \"#utility.yul\":7993:8065   */\n      tag_85\n      jump\t// in\n    tag_185:\n        /* \"#utility.yul\":8075:8147   */\n      tag_186\n        /* \"#utility.yul\":8143:8145   */\n      0x60\n        /* \"#utility.yul\":8132:8141   */\n      dup4\n        /* \"#utility.yul\":8128:8146   */\n      add\n        /* \"#utility.yul\":8119:8125   */\n      dup6\n        /* \"#utility.yul\":8075:8147   */\n      tag_85\n      jump\t// in\n    tag_186:\n        /* \"#utility.yul\":8157:8246   */\n      tag_187\n        /* \"#utility.yul\":8241:8244   */\n      0x80\n        /* \"#utility.yul\":8230:8239   */\n      dup4\n        /* \"#utility.yul\":8226:8245   */\n      add\n        /* \"#utility.yul\":8217:8223   */\n      dup5\n        /* \"#utility.yul\":8157:8246   */\n      tag_92\n      jump\t// in\n    tag_187:\n        /* \"#utility.yul\":7466:8253   */\n      swap7\n      swap6\n      pop\n      pop\n      pop\n      pop\n      pop\n      pop\n      jump\t// out\n        /* \"#utility.yul\":8259:8439   */\n    tag_93:\n        /* \"#utility.yul\":8307:8384   */\n      0x4e487b7100000000000000000000000000000000000000000000000000000000\n        /* \"#utility.yul\":8304:8305   */\n      0x00\n        /* \"#utility.yul\":8297:8385   */\n      mstore\n        /* \"#utility.yul\":8404:8408   */\n      0x22\n        /* \"#utility.yul\":8401:8402   */\n      0x04\n        /* \"#utility.yul\":8394:8409   */\n      mstore\n        /* \"#utility.yul\":8428:8432   */\n      0x24\n        /* \"#utility.yul\":8425:8426   */\n      0x00\n        /* \"#utility.yul\":8418:8433   */\n      revert\n        /* \"#utility.yul\":8445:8765   */\n    tag_42:\n        /* \"#utility.yul\":8489:8495   */\n      0x00\n        /* \"#utility.yul\":8526:8527   */\n      0x02\n        /* \"#utility.yul\":8520:8524   */\n      dup3\n        /* \"#utility.yul\":8516:8528   */\n      div\n        /* \"#utility.yul\":8506:8528   */\n      swap1\n      pop\n        /* \"#utility.yul\":8573:8574   */\n      0x01\n        /* \"#utility.yul\":8567:8571   */\n      dup3\n        /* \"#utility.yul\":8563:8575   */\n      and\n        /* \"#utility.yul\":8594:8612   */\n      dup1\n        /* \"#utility.yul\":8584:8665   */\n      tag_190\n      jumpi\n        /* \"#utility.yul\":8650:8654   */\n      0x7f\n        /* \"#utility.yul\":8642:8648   */\n      dup3\n        /* \"#utility.yul\":8638:8655   */\n      and\n        /* \"#utility.yul\":8628:8655   */\n      swap2\n      pop\n        /* \"#utility.yul\":8584:8665   */\n    tag_190:\n        /* \"#utility.yul\":8712:8714   */\n      0x20\n        /* \"#utility.yul\":8704:8710   */\n      dup3\n        /* \"#utility.yul\":8701:8715   */\n      lt\n        /* \"#utility.yul\":8681:8699   */\n      dup2\n        /* \"#utility.yul\":8678:8716   */\n      sub\n        /* \"#utility.yul\":8675:8759   */\n      tag_191\n      jumpi\n        /* \"#utility.yul\":8731:8749   */\n      tag_192\n      tag_93\n      jump\t// in\n    tag_192:\n        /* \"#utility.yul\":8675:8759   */\n    tag_191:\n        /* \"#utility.yul\":8496:8765   */\n      pop\n        /* \"#utility.yul\":8445:8765   */\n      swap2\n      swap1\n      pop\n      jump\t// out\n        /* \"#utility.yul\":8771:8951   */\n    tag_94:\n        /* \"#utility.yul\":8819:8896   */\n      0x4e487b7100000000000000000000000000000000000000000000000000000000\n        /* \"#utility.yul\":8816:8817   */\n      0x00\n        /* \"#utility.yul\":8809:8897   */\n      mstore\n        /* \"#utility.yul\":8916:8920   */\n      0x11\n        /* \"#utility.yul\":8913:8914   */\n      0x04\n        /* \"#utility.yul\":8906:8921   */\n      mstore\n        /* \"#utility.yul\":8940:8944   */\n      0x24\n        /* \"#utility.yul\":8937:8938   */\n      0x00\n        /* \"#utility.yul\":8930:8945   */\n      revert\n        /* \"#utility.yul\":8957:9262   */\n    tag_54:\n        /* \"#utility.yul\":8997:9000   */\n      0x00\n        /* \"#utility.yul\":9016:9036   */\n      tag_195\n        /* \"#utility.yul\":9034:9035   */\n      dup3\n        /* \"#utility.yul\":9016:9036   */\n      tag_68\n      jump\t// in\n    tag_195:\n        /* \"#utility.yul\":9011:9036   */\n      swap2\n      pop\n        /* \"#utility.yul\":9050:9070   */\n      tag_196\n        /* \"#utility.yul\":9068:9069   */\n      dup4\n        /* \"#utility.yul\":9050:9070   */\n      tag_68\n      jump\t// in\n    tag_196:\n        /* \"#utility.yul\":9045:9070   */\n      swap3\n      pop\n        /* \"#utility.yul\":9204:9205   */\n      dup3\n        /* \"#utility.yul\":9136:9202   */\n      0xffffffffffffffffffffffffffffffffffffffffffffffffffffffffffffffff\n        /* \"#utility.yul\":9132:9206   */\n      sub\n        /* \"#utility.yul\":9129:9130   */\n      dup3\n        /* \"#utility.yul\":9126:9207   */\n      gt\n        /* \"#utility.yul\":9123:9230   */\n      iszero\n      tag_197\n      jumpi\n        /* \"#utility.yul\":9210:9228   */\n      tag_198\n      tag_94\n      jump\t// in\n    tag_198:\n        /* \"#utility.yul\":9123:9230   */\n    tag_197:\n        /* \"#utility.yul\":9254:9255   */\n      dup3\n        /* \"#utility.yul\":9251:9252   */\n      dup3\n        /* \"#utility.yul\":9247:9256   */\n      add\n        /* \"#utility.yul\":9240:9256   */\n      swap1\n      pop\n        /* \"#utility.yul\":8957:9262   */\n      swap3\n      swap2\n      pop\n      pop\n      jump\t// out\n\n    auxdata: 0xa26469706673582212207506f46263c60d2961518104d9ab1f7eb92d85aa324c8c96aa8bd5e4bbcc6a9064736f6c634300080d0033\n}\n",
				"bytecode": {
					"linkReferences": {},
					"object": "608060405263624124b1600155600060025534801561001d57600080fd5b50336000806101000a81548173ffffffffffffffffffffffffffffffffffffffff021916908373ffffffffffffffffffffffffffffffffffffffff160217905550610af28061006d6000396000f3fe608060405234801561001057600080fd5b50600436106100575760003560e01c806318d875df1461005c578063246982c414610078578063267c68e0146100ab5780638da5cb5b146100c95780639e7a13ad146100e7575b600080fd5b61007660048036038101906100719190610770565b61011b565b005b610092600480360381019061008d9190610807565b610268565b6040516100a294939291906108cb565b60405180910390f35b6100b36103bb565b6040516100c09190610917565b60405180910390f35b6100d16103c1565b6040516100de9190610953565b60405180910390f35b61010160048036038101906100fc9190610807565b6103e5565b60405161011295949392919061097d565b60405180910390f35b60008054906101000a900473ffffffffffffffffffffffffffffffffffffffff1673ffffffffffffffffffffffffffffffffffffffff163373ffffffffffffffffffffffffffffffffffffffff161461017357600080fd5b60015442101561018257600080fd5b61018a6104c3565b6040518060a001604052808681526020018581526020018481526020018381526020018273ffffffffffffffffffffffffffffffffffffffff168152506003600060025481526020019081526020016000206000820151816000015560208201518160010190805190602001906102029291906104df565b50604082015181600201556060820151816003015560808201518160040160006101000a81548173ffffffffffffffffffffffffffffffffffffffff021916908373ffffffffffffffffffffffffffffffffffffffff1602179055509050505050505050565b600060606000806000600360008781526020019081526020016000206040518060a0016040529081600082015481526020016001820180546102a990610a06565b80601f01602080910402602001604051908101604052809291908181526020018280546102d590610a06565b80156103225780601f106102f757610100808354040283529160200191610322565b820191906000526020600020905b81548152906001019060200180831161030557829003601f168201915b5050505050815260200160028201548152602001600382015481526020016004820160009054906101000a900473ffffffffffffffffffffffffffffffffffffffff1673ffffffffffffffffffffffffffffffffffffffff1673ffffffffffffffffffffffffffffffffffffffff1681525050905080600001518160200151826040015183606001519450945094509450509193509193565b60025481565b60008054906101000a900473ffffffffffffffffffffffffffffffffffffffff1681565b600360205280600052604060002060009150905080600001549080600101805461040e90610a06565b80601f016020809104026020016040519081016040528092919081815260200182805461043a90610a06565b80156104875780601f1061045c57610100808354040283529160200191610487565b820191906000526020600020905b81548152906001019060200180831161046a57829003601f168201915b5050505050908060020154908060030154908060040160009054906101000a900473ffffffffffffffffffffffffffffffffffffffff16905085565b6001600260008282546104d69190610a66565b92505081905550565b8280546104eb90610a06565b90600052602060002090601f01602090048101928261050d5760008555610554565b82601f1061052657805160ff1916838001178555610554565b82800160010185558215610554579182015b82811115610553578251825591602001919060010190610538565b5b5090506105619190610565565b5090565b5b8082111561057e576000816000905550600101610566565b5090565b6000604051905090565b600080fd5b600080fd5b6000819050919050565b6105a981610596565b81146105b457600080fd5b50565b6000813590506105c6816105a0565b92915050565b600080fd5b600080fd5b6000601f19601f8301169050919050565b7f4e487b7100000000000000000000000000000000000000000000000000000000600052604160045260246000fd5b61061f826105d6565b810181811067ffffffffffffffff8211171561063e5761063d6105e7565b5b80604052505050565b6000610651610582565b905061065d8282610616565b919050565b600067ffffffffffffffff82111561067d5761067c6105e7565b5b610686826105d6565b9050602081019050919050565b82818337600083830152505050565b60006106b56106b084610662565b610647565b9050828152602081018484840111156106d1576106d06105d1565b5b6106dc848285610693565b509392505050565b600082601f8301126106f9576106f86105cc565b5b81356107098482602086016106a2565b91505092915050565b600073ffffffffffffffffffffffffffffffffffffffff82169050919050565b600061073d82610712565b9050919050565b61074d81610732565b811461075857600080fd5b50565b60008135905061076a81610744565b92915050565b600080600080600060a0868803121561078c5761078b61058c565b5b600061079a888289016105b7565b955050602086013567ffffffffffffffff8111156107bb576107ba610591565b5b6107c7888289016106e4565b94505060406107d8888289016105b7565b93505060606107e9888289016105b7565b92505060806107fa8882890161075b565b9150509295509295909350565b60006020828403121561081d5761081c61058c565b5b600061082b848285016105b7565b91505092915050565b61083d81610596565b82525050565b600081519050919050565b600082825260208201905092915050565b60005b8381101561087d578082015181840152602081019050610862565b8381111561088c576000848401525b50505050565b600061089d82610843565b6108a7818561084e565b93506108b781856020860161085f565b6108c0816105d6565b840191505092915050565b60006080820190506108e06000830187610834565b81810360208301526108f28186610892565b90506109016040830185610834565b61090e6060830184610834565b95945050505050565b600060208201905061092c6000830184610834565b92915050565b600061093d82610712565b9050919050565b61094d81610932565b82525050565b60006020820190506109686000830184610944565b92915050565b61097781610732565b82525050565b600060a0820190506109926000830188610834565b81810360208301526109a48187610892565b90506109b36040830186610834565b6109c06060830185610834565b6109cd608083018461096e565b9695505050505050565b7f4e487b7100000000000000000000000000000000000000000000000000000000600052602260045260246000fd5b60006002820490506001821680610a1e57607f821691505b602082108103610a3157610a306109d7565b5b50919050565b7f4e487b7100000000000000000000000000000000000000000000000000000000600052601160045260246000fd5b6000610a7182610596565b9150610a7c83610596565b9250827fffffffffffffffffffffffffffffffffffffffffffffffffffffffffffffffff03821115610ab157610ab0610a37565b5b82820190509291505056fea26469706673582212207506f46263c60d2961518104d9ab1f7eb92d85aa324c8c96aa8bd5e4bbcc6a9064736f6c634300080d0033",
					"opcodes": "PUSH1 0x80 PUSH1 0x40 MSTORE PUSH4 0x624124B1 PUSH1 0x1 SSTORE PUSH1 0x0 PUSH1 0x2 SSTORE CALLVALUE DUP1 ISZERO PUSH2 0x1D JUMPI PUSH1 0x0 DUP1 REVERT JUMPDEST POP CALLER PUSH1 0x0 DUP1 PUSH2 0x100 EXP DUP2 SLOAD DUP2 PUSH20 0xFFFFFFFFFFFFFFFFFFFFFFFFFFFFFFFFFFFFFFFF MUL NOT AND SWAP1 DUP4 PUSH20 0xFFFFFFFFFFFFFFFFFFFFFFFFFFFFFFFFFFFFFFFF AND MUL OR SWAP1 SSTORE POP PUSH2 0xAF2 DUP1 PUSH2 0x6D PUSH1 0x0 CODECOPY PUSH1 0x0 RETURN INVALID PUSH1 0x80 PUSH1 0x40 MSTORE CALLVALUE DUP1 ISZERO PUSH2 0x10 JUMPI PUSH1 0x0 DUP1 REVERT JUMPDEST POP PUSH1 0x4 CALLDATASIZE LT PUSH2 0x57 JUMPI PUSH1 0x0 CALLDATALOAD PUSH1 0xE0 SHR DUP1 PUSH4 0x18D875DF EQ PUSH2 0x5C JUMPI DUP1 PUSH4 0x246982C4 EQ PUSH2 0x78 JUMPI DUP1 PUSH4 0x267C68E0 EQ PUSH2 0xAB JUMPI DUP1 PUSH4 0x8DA5CB5B EQ PUSH2 0xC9 JUMPI DUP1 PUSH4 0x9E7A13AD EQ PUSH2 0xE7 JUMPI JUMPDEST PUSH1 0x0 DUP1 REVERT JUMPDEST PUSH2 0x76 PUSH1 0x4 DUP1 CALLDATASIZE SUB DUP2 ADD SWAP1 PUSH2 0x71 SWAP2 SWAP1 PUSH2 0x770 JUMP JUMPDEST PUSH2 0x11B JUMP JUMPDEST STOP JUMPDEST PUSH2 0x92 PUSH1 0x4 DUP1 CALLDATASIZE SUB DUP2 ADD SWAP1 PUSH2 0x8D SWAP2 SWAP1 PUSH2 0x807 JUMP JUMPDEST PUSH2 0x268 JUMP JUMPDEST PUSH1 0x40 MLOAD PUSH2 0xA2 SWAP5 SWAP4 SWAP3 SWAP2 SWAP1 PUSH2 0x8CB JUMP JUMPDEST PUSH1 0x40 MLOAD DUP1 SWAP2 SUB SWAP1 RETURN JUMPDEST PUSH2 0xB3 PUSH2 0x3BB JUMP JUMPDEST PUSH1 0x40 MLOAD PUSH2 0xC0 SWAP2 SWAP1 PUSH2 0x917 JUMP JUMPDEST PUSH1 0x40 MLOAD DUP1 SWAP2 SUB SWAP1 RETURN JUMPDEST PUSH2 0xD1 PUSH2 0x3C1 JUMP JUMPDEST PUSH1 0x40 MLOAD PUSH2 0xDE SWAP2 SWAP1 PUSH2 0x953 JUMP JUMPDEST PUSH1 0x40 MLOAD DUP1 SWAP2 SUB SWAP1 RETURN JUMPDEST PUSH2 0x101 PUSH1 0x4 DUP1 CALLDATASIZE SUB DUP2 ADD SWAP1 PUSH2 0xFC SWAP2 SWAP1 PUSH2 0x807 JUMP JUMPDEST PUSH2 0x3E5 JUMP JUMPDEST PUSH1 0x40 MLOAD PUSH2 0x112 SWAP6 SWAP5 SWAP4 SWAP3 SWAP2 SWAP1 PUSH2 0x97D JUMP JUMPDEST PUSH1 0x40 MLOAD DUP1 SWAP2 SUB SWAP1 RETURN JUMPDEST PUSH1 0x0 DUP1 SLOAD SWAP1 PUSH2 0x100 EXP SWAP1 DIV PUSH20 0xFFFFFFFFFFFFFFFFFFFFFFFFFFFFFFFFFFFFFFFF AND PUSH20 0xFFFFFFFFFFFFFFFFFFFFFFFFFFFFFFFFFFFFFFFF AND CALLER PUSH20 0xFFFFFFFFFFFFFFFFFFFFFFFFFFFFFFFFFFFFFFFF AND EQ PUSH2 0x173 JUMPI PUSH1 0x0 DUP1 REVERT JUMPDEST PUSH1 0x1 SLOAD TIMESTAMP LT ISZERO PUSH2 0x182 JUMPI PUSH1 0x0 DUP1 REVERT JUMPDEST PUSH2 0x18A PUSH2 0x4C3 JUMP JUMPDEST PUSH1 0x40 MLOAD DUP1 PUSH1 0xA0 ADD PUSH1 0x40 MSTORE DUP1 DUP7 DUP2 MSTORE PUSH1 0x20 ADD DUP6 DUP2 MSTORE PUSH1 0x20 ADD DUP5 DUP2 MSTORE PUSH1 0x20 ADD DUP4 DUP2 MSTORE PUSH1 0x20 ADD DUP3 PUSH20 0xFFFFFFFFFFFFFFFFFFFFFFFFFFFFFFFFFFFFFFFF AND DUP2 MSTORE POP PUSH1 0x3 PUSH1 0x0 PUSH1 0x2 SLOAD DUP2 MSTORE PUSH1 0x20 ADD SWAP1 DUP2 MSTORE PUSH1 0x20 ADD PUSH1 0x0 KECCAK256 PUSH1 0x0 DUP3 ADD MLOAD DUP2 PUSH1 0x0 ADD SSTORE PUSH1 0x20 DUP3 ADD MLOAD DUP2 PUSH1 0x1 ADD SWAP1 DUP1 MLOAD SWAP1 PUSH1 0x20 ADD SWAP1 PUSH2 0x202 SWAP3 SWAP2 SWAP1 PUSH2 0x4DF JUMP JUMPDEST POP PUSH1 0x40 DUP3 ADD MLOAD DUP2 PUSH1 0x2 ADD SSTORE PUSH1 0x60 DUP3 ADD MLOAD DUP2 PUSH1 0x3 ADD SSTORE PUSH1 0x80 DUP3 ADD MLOAD DUP2 PUSH1 0x4 ADD PUSH1 0x0 PUSH2 0x100 EXP DUP2 SLOAD DUP2 PUSH20 0xFFFFFFFFFFFFFFFFFFFFFFFFFFFFFFFFFFFFFFFF MUL NOT AND SWAP1 DUP4 PUSH20 0xFFFFFFFFFFFFFFFFFFFFFFFFFFFFFFFFFFFFFFFF AND MUL OR SWAP1 SSTORE POP SWAP1 POP POP POP POP POP POP POP JUMP JUMPDEST PUSH1 0x0 PUSH1 0x60 PUSH1 0x0 DUP1 PUSH1 0x0 PUSH1 0x3 PUSH1 0x0 DUP8 DUP2 MSTORE PUSH1 0x20 ADD SWAP1 DUP2 MSTORE PUSH1 0x20 ADD PUSH1 0x0 KECCAK256 PUSH1 0x40 MLOAD DUP1 PUSH1 0xA0 ADD PUSH1 0x40 MSTORE SWAP1 DUP2 PUSH1 0x0 DUP3 ADD SLOAD DUP2 MSTORE PUSH1 0x20 ADD PUSH1 0x1 DUP3 ADD DUP1 SLOAD PUSH2 0x2A9 SWAP1 PUSH2 0xA06 JUMP JUMPDEST DUP1 PUSH1 0x1F ADD PUSH1 0x20 DUP1 SWAP2 DIV MUL PUSH1 0x20 ADD PUSH1 0x40 MLOAD SWAP1 DUP2 ADD PUSH1 0x40 MSTORE DUP1 SWAP3 SWAP2 SWAP1 DUP2 DUP2 MSTORE PUSH1 0x20 ADD DUP3 DUP1 SLOAD PUSH2 0x2D5 SWAP1 PUSH2 0xA06 JUMP JUMPDEST DUP1 ISZERO PUSH2 0x322 JUMPI DUP1 PUSH1 0x1F LT PUSH2 0x2F7 JUMPI PUSH2 0x100 DUP1 DUP4 SLOAD DIV MUL DUP4 MSTORE SWAP2 PUSH1 0x20 ADD SWAP2 PUSH2 0x322 JUMP JUMPDEST DUP3 ADD SWAP2 SWAP1 PUSH1 0x0 MSTORE PUSH1 0x20 PUSH1 0x0 KECCAK256 SWAP1 JUMPDEST DUP2 SLOAD DUP2 MSTORE SWAP1 PUSH1 0x1 ADD SWAP1 PUSH1 0x20 ADD DUP1 DUP4 GT PUSH2 0x305 JUMPI DUP3 SWAP1 SUB PUSH1 0x1F AND DUP3 ADD SWAP2 JUMPDEST POP POP POP POP POP DUP2 MSTORE PUSH1 0x20 ADD PUSH1 0x2 DUP3 ADD SLOAD DUP2 MSTORE PUSH1 0x20 ADD PUSH1 0x3 DUP3 ADD SLOAD DUP2 MSTORE PUSH1 0x20 ADD PUSH1 0x4 DUP3 ADD PUSH1 0x0 SWAP1 SLOAD SWAP1 PUSH2 0x100 EXP SWAP1 DIV PUSH20 0xFFFFFFFFFFFFFFFFFFFFFFFFFFFFFFFFFFFFFFFF AND PUSH20 0xFFFFFFFFFFFFFFFFFFFFFFFFFFFFFFFFFFFFFFFF AND PUSH20 0xFFFFFFFFFFFFFFFFFFFFFFFFFFFFFFFFFFFFFFFF AND DUP2 MSTORE POP POP SWAP1 POP DUP1 PUSH1 0x0 ADD MLOAD DUP2 PUSH1 0x20 ADD MLOAD DUP3 PUSH1 0x40 ADD MLOAD DUP4 PUSH1 0x60 ADD MLOAD SWAP5 POP SWAP5 POP SWAP5 POP SWAP5 POP POP SWAP2 SWAP4 POP SWAP2 SWAP4 JUMP JUMPDEST PUSH1 0x2 SLOAD DUP2 JUMP JUMPDEST PUSH1 0x0 DUP1 SLOAD SWAP1 PUSH2 0x100 EXP SWAP1 DIV PUSH20 0xFFFFFFFFFFFFFFFFFFFFFFFFFFFFFFFFFFFFFFFF AND DUP2 JUMP JUMPDEST PUSH1 0x3 PUSH1 0x20 MSTORE DUP1 PUSH1 0x0 MSTORE PUSH1 0x40 PUSH1 0x0 KECCAK256 PUSH1 0x0 SWAP2 POP SWAP1 POP DUP1 PUSH1 0x0 ADD SLOAD SWAP1 DUP1 PUSH1 0x1 ADD DUP1 SLOAD PUSH2 0x40E SWAP1 PUSH2 0xA06 JUMP JUMPDEST DUP1 PUSH1 0x1F ADD PUSH1 0x20 DUP1 SWAP2 DIV MUL PUSH1 0x20 ADD PUSH1 0x40 MLOAD SWAP1 DUP2 ADD PUSH1 0x40 MSTORE DUP1 SWAP3 SWAP2 SWAP1 DUP2 DUP2 MSTORE PUSH1 0x20 ADD DUP3 DUP1 SLOAD PUSH2 0x43A SWAP1 PUSH2 0xA06 JUMP JUMPDEST DUP1 ISZERO PUSH2 0x487 JUMPI DUP1 PUSH1 0x1F LT PUSH2 0x45C JUMPI PUSH2 0x100 DUP1 DUP4 SLOAD DIV MUL DUP4 MSTORE SWAP2 PUSH1 0x20 ADD SWAP2 PUSH2 0x487 JUMP JUMPDEST DUP3 ADD SWAP2 SWAP1 PUSH1 0x0 MSTORE PUSH1 0x20 PUSH1 0x0 KECCAK256 SWAP1 JUMPDEST DUP2 SLOAD DUP2 MSTORE SWAP1 PUSH1 0x1 ADD SWAP1 PUSH1 0x20 ADD DUP1 DUP4 GT PUSH2 0x46A JUMPI DUP3 SWAP1 SUB PUSH1 0x1F AND DUP3 ADD SWAP2 JUMPDEST POP POP POP POP POP SWAP1 DUP1 PUSH1 0x2 ADD SLOAD SWAP1 DUP1 PUSH1 0x3 ADD SLOAD SWAP1 DUP1 PUSH1 0x4 ADD PUSH1 0x0 SWAP1 SLOAD SWAP1 PUSH2 0x100 EXP SWAP1 DIV PUSH20 0xFFFFFFFFFFFFFFFFFFFFFFFFFFFFFFFFFFFFFFFF AND SWAP1 POP DUP6 JUMP JUMPDEST PUSH1 0x1 PUSH1 0x2 PUSH1 0x0 DUP3 DUP3 SLOAD PUSH2 0x4D6 SWAP2 SWAP1 PUSH2 0xA66 JUMP JUMPDEST SWAP3 POP POP DUP2 SWAP1 SSTORE POP JUMP JUMPDEST DUP3 DUP1 SLOAD PUSH2 0x4EB SWAP1 PUSH2 0xA06 JUMP JUMPDEST SWAP1 PUSH1 0x0 MSTORE PUSH1 0x20 PUSH1 0x0 KECCAK256 SWAP1 PUSH1 0x1F ADD PUSH1 0x20 SWAP1 DIV DUP2 ADD SWAP3 DUP3 PUSH2 0x50D JUMPI PUSH1 0x0 DUP6 SSTORE PUSH2 0x554 JUMP JUMPDEST DUP3 PUSH1 0x1F LT PUSH2 0x526 JUMPI DUP1 MLOAD PUSH1 0xFF NOT AND DUP4 DUP1 ADD OR DUP6 SSTORE PUSH2 0x554 JUMP JUMPDEST DUP3 DUP1 ADD PUSH1 0x1 ADD DUP6 SSTORE DUP3 ISZERO PUSH2 0x554 JUMPI SWAP2 DUP3 ADD JUMPDEST DUP3 DUP2 GT ISZERO PUSH2 0x553 JUMPI DUP3 MLOAD DUP3 SSTORE SWAP2 PUSH1 0x20 ADD SWAP2 SWAP1 PUSH1 0x1 ADD SWAP1 PUSH2 0x538 JUMP JUMPDEST JUMPDEST POP SWAP1 POP PUSH2 0x561 SWAP2 SWAP1 PUSH2 0x565 JUMP JUMPDEST POP SWAP1 JUMP JUMPDEST JUMPDEST DUP1 DUP3 GT ISZERO PUSH2 0x57E JUMPI PUSH1 0x0 DUP2 PUSH1 0x0 SWAP1 SSTORE POP PUSH1 0x1 ADD PUSH2 0x566 JUMP JUMPDEST POP SWAP1 JUMP JUMPDEST PUSH1 0x0 PUSH1 0x40 MLOAD SWAP1 POP SWAP1 JUMP JUMPDEST PUSH1 0x0 DUP1 REVERT JUMPDEST PUSH1 0x0 DUP1 REVERT JUMPDEST PUSH1 0x0 DUP2 SWAP1 POP SWAP2 SWAP1 POP JUMP JUMPDEST PUSH2 0x5A9 DUP2 PUSH2 0x596 JUMP JUMPDEST DUP2 EQ PUSH2 0x5B4 JUMPI PUSH1 0x0 DUP1 REVERT JUMPDEST POP JUMP JUMPDEST PUSH1 0x0 DUP2 CALLDATALOAD SWAP1 POP PUSH2 0x5C6 DUP2 PUSH2 0x5A0 JUMP JUMPDEST SWAP3 SWAP2 POP POP JUMP JUMPDEST PUSH1 0x0 DUP1 REVERT JUMPDEST PUSH1 0x0 DUP1 REVERT JUMPDEST PUSH1 0x0 PUSH1 0x1F NOT PUSH1 0x1F DUP4 ADD AND SWAP1 POP SWAP2 SWAP1 POP JUMP JUMPDEST PUSH32 0x4E487B7100000000000000000000000000000000000000000000000000000000 PUSH1 0x0 MSTORE PUSH1 0x41 PUSH1 0x4 MSTORE PUSH1 0x24 PUSH1 0x0 REVERT JUMPDEST PUSH2 0x61F DUP3 PUSH2 0x5D6 JUMP JUMPDEST DUP2 ADD DUP2 DUP2 LT PUSH8 0xFFFFFFFFFFFFFFFF DUP3 GT OR ISZERO PUSH2 0x63E JUMPI PUSH2 0x63D PUSH2 0x5E7 JUMP JUMPDEST JUMPDEST DUP1 PUSH1 0x40 MSTORE POP POP POP JUMP JUMPDEST PUSH1 0x0 PUSH2 0x651 PUSH2 0x582 JUMP JUMPDEST SWAP1 POP PUSH2 0x65D DUP3 DUP3 PUSH2 0x616 JUMP JUMPDEST SWAP2 SWAP1 POP JUMP JUMPDEST PUSH1 0x0 PUSH8 0xFFFFFFFFFFFFFFFF DUP3 GT ISZERO PUSH2 0x67D JUMPI PUSH2 0x67C PUSH2 0x5E7 JUMP JUMPDEST JUMPDEST PUSH2 0x686 DUP3 PUSH2 0x5D6 JUMP JUMPDEST SWAP1 POP PUSH1 0x20 DUP2 ADD SWAP1 POP SWAP2 SWAP1 POP JUMP JUMPDEST DUP3 DUP2 DUP4 CALLDATACOPY PUSH1 0x0 DUP4 DUP4 ADD MSTORE POP POP POP JUMP JUMPDEST PUSH1 0x0 PUSH2 0x6B5 PUSH2 0x6B0 DUP5 PUSH2 0x662 JUMP JUMPDEST PUSH2 0x647 JUMP JUMPDEST SWAP1 POP DUP3 DUP2 MSTORE PUSH1 0x20 DUP2 ADD DUP5 DUP5 DUP5 ADD GT ISZERO PUSH2 0x6D1 JUMPI PUSH2 0x6D0 PUSH2 0x5D1 JUMP JUMPDEST JUMPDEST PUSH2 0x6DC DUP5 DUP3 DUP6 PUSH2 0x693 JUMP JUMPDEST POP SWAP4 SWAP3 POP POP POP JUMP JUMPDEST PUSH1 0x0 DUP3 PUSH1 0x1F DUP4 ADD SLT PUSH2 0x6F9 JUMPI PUSH2 0x6F8 PUSH2 0x5CC JUMP JUMPDEST JUMPDEST DUP2 CALLDATALOAD PUSH2 0x709 DUP5 DUP3 PUSH1 0x20 DUP7 ADD PUSH2 0x6A2 JUMP JUMPDEST SWAP2 POP POP SWAP3 SWAP2 POP POP JUMP JUMPDEST PUSH1 0x0 PUSH20 0xFFFFFFFFFFFFFFFFFFFFFFFFFFFFFFFFFFFFFFFF DUP3 AND SWAP1 POP SWAP2 SWAP1 POP JUMP JUMPDEST PUSH1 0x0 PUSH2 0x73D DUP3 PUSH2 0x712 JUMP JUMPDEST SWAP1 POP SWAP2 SWAP1 POP JUMP JUMPDEST PUSH2 0x74D DUP2 PUSH2 0x732 JUMP JUMPDEST DUP2 EQ PUSH2 0x758 JUMPI PUSH1 0x0 DUP1 REVERT JUMPDEST POP JUMP JUMPDEST PUSH1 0x0 DUP2 CALLDATALOAD SWAP1 POP PUSH2 0x76A DUP2 PUSH2 0x744 JUMP JUMPDEST SWAP3 SWAP2 POP POP JUMP JUMPDEST PUSH1 0x0 DUP1 PUSH1 0x0 DUP1 PUSH1 0x0 PUSH1 0xA0 DUP7 DUP9 SUB SLT ISZERO PUSH2 0x78C JUMPI PUSH2 0x78B PUSH2 0x58C JUMP JUMPDEST JUMPDEST PUSH1 0x0 PUSH2 0x79A DUP9 DUP3 DUP10 ADD PUSH2 0x5B7 JUMP JUMPDEST SWAP6 POP POP PUSH1 0x20 DUP7 ADD CALLDATALOAD PUSH8 0xFFFFFFFFFFFFFFFF DUP2 GT ISZERO PUSH2 0x7BB JUMPI PUSH2 0x7BA PUSH2 0x591 JUMP JUMPDEST JUMPDEST PUSH2 0x7C7 DUP9 DUP3 DUP10 ADD PUSH2 0x6E4 JUMP JUMPDEST SWAP5 POP POP PUSH1 0x40 PUSH2 0x7D8 DUP9 DUP3 DUP10 ADD PUSH2 0x5B7 JUMP JUMPDEST SWAP4 POP POP PUSH1 0x60 PUSH2 0x7E9 DUP9 DUP3 DUP10 ADD PUSH2 0x5B7 JUMP JUMPDEST SWAP3 POP POP PUSH1 0x80 PUSH2 0x7FA DUP9 DUP3 DUP10 ADD PUSH2 0x75B JUMP JUMPDEST SWAP2 POP POP SWAP3 SWAP6 POP SWAP3 SWAP6 SWAP1 SWAP4 POP JUMP JUMPDEST PUSH1 0x0 PUSH1 0x20 DUP3 DUP5 SUB SLT ISZERO PUSH2 0x81D JUMPI PUSH2 0x81C PUSH2 0x58C JUMP JUMPDEST JUMPDEST PUSH1 0x0 PUSH2 0x82B DUP5 DUP3 DUP6 ADD PUSH2 0x5B7 JUMP JUMPDEST SWAP2 POP POP SWAP3 SWAP2 POP POP JUMP JUMPDEST PUSH2 0x83D DUP2 PUSH2 0x596 JUMP JUMPDEST DUP3 MSTORE POP POP JUMP JUMPDEST PUSH1 0x0 DUP2 MLOAD SWAP1 POP SWAP2 SWAP1 POP JUMP JUMPDEST PUSH1 0x0 DUP3 DUP3 MSTORE PUSH1 0x20 DUP3 ADD SWAP1 POP SWAP3 SWAP2 POP POP JUMP JUMPDEST PUSH1 0x0 JUMPDEST DUP4 DUP2 LT ISZERO PUSH2 0x87D JUMPI DUP1 DUP3 ADD MLOAD DUP2 DUP5 ADD MSTORE PUSH1 0x20 DUP2 ADD SWAP1 POP PUSH2 0x862 JUMP JUMPDEST DUP4 DUP2 GT ISZERO PUSH2 0x88C JUMPI PUSH1 0x0 DUP5 DUP5 ADD MSTORE JUMPDEST POP POP POP POP JUMP JUMPDEST PUSH1 0x0 PUSH2 0x89D DUP3 PUSH2 0x843 JUMP JUMPDEST PUSH2 0x8A7 DUP2 DUP6 PUSH2 0x84E JUMP JUMPDEST SWAP4 POP PUSH2 0x8B7 DUP2 DUP6 PUSH1 0x20 DUP7 ADD PUSH2 0x85F JUMP JUMPDEST PUSH2 0x8C0 DUP2 PUSH2 0x5D6 JUMP JUMPDEST DUP5 ADD SWAP2 POP POP SWAP3 SWAP2 POP POP JUMP JUMPDEST PUSH1 0x0 PUSH1 0x80 DUP3 ADD SWAP1 POP PUSH2 0x8E0 PUSH1 0x0 DUP4 ADD DUP8 PUSH2 0x834 JUMP JUMPDEST DUP2 DUP2 SUB PUSH1 0x20 DUP4 ADD MSTORE PUSH2 0x8F2 DUP2 DUP7 PUSH2 0x892 JUMP JUMPDEST SWAP1 POP PUSH2 0x901 PUSH1 0x40 DUP4 ADD DUP6 PUSH2 0x834 JUMP JUMPDEST PUSH2 0x90E PUSH1 0x60 DUP4 ADD DUP5 PUSH2 0x834 JUMP JUMPDEST SWAP6 SWAP5 POP POP POP POP POP JUMP JUMPDEST PUSH1 0x0 PUSH1 0x20 DUP3 ADD SWAP1 POP PUSH2 0x92C PUSH1 0x0 DUP4 ADD DUP5 PUSH2 0x834 JUMP JUMPDEST SWAP3 SWAP2 POP POP JUMP JUMPDEST PUSH1 0x0 PUSH2 0x93D DUP3 PUSH2 0x712 JUMP JUMPDEST SWAP1 POP SWAP2 SWAP1 POP JUMP JUMPDEST PUSH2 0x94D DUP2 PUSH2 0x932 JUMP JUMPDEST DUP3 MSTORE POP POP JUMP JUMPDEST PUSH1 0x0 PUSH1 0x20 DUP3 ADD SWAP1 POP PUSH2 0x968 PUSH1 0x0 DUP4 ADD DUP5 PUSH2 0x944 JUMP JUMPDEST SWAP3 SWAP2 POP POP JUMP JUMPDEST PUSH2 0x977 DUP2 PUSH2 0x732 JUMP JUMPDEST DUP3 MSTORE POP POP JUMP JUMPDEST PUSH1 0x0 PUSH1 0xA0 DUP3 ADD SWAP1 POP PUSH2 0x992 PUSH1 0x0 DUP4 ADD DUP9 PUSH2 0x834 JUMP JUMPDEST DUP2 DUP2 SUB PUSH1 0x20 DUP4 ADD MSTORE PUSH2 0x9A4 DUP2 DUP8 PUSH2 0x892 JUMP JUMPDEST SWAP1 POP PUSH2 0x9B3 PUSH1 0x40 DUP4 ADD DUP7 PUSH2 0x834 JUMP JUMPDEST PUSH2 0x9C0 PUSH1 0x60 DUP4 ADD DUP6 PUSH2 0x834 JUMP JUMPDEST PUSH2 0x9CD PUSH1 0x80 DUP4 ADD DUP5 PUSH2 0x96E JUMP JUMPDEST SWAP7 SWAP6 POP POP POP POP POP POP JUMP JUMPDEST PUSH32 0x4E487B7100000000000000000000000000000000000000000000000000000000 PUSH1 0x0 MSTORE PUSH1 0x22 PUSH1 0x4 MSTORE PUSH1 0x24 PUSH1 0x0 REVERT JUMPDEST PUSH1 0x0 PUSH1 0x2 DUP3 DIV SWAP1 POP PUSH1 0x1 DUP3 AND DUP1 PUSH2 0xA1E JUMPI PUSH1 0x7F DUP3 AND SWAP2 POP JUMPDEST PUSH1 0x20 DUP3 LT DUP2 SUB PUSH2 0xA31 JUMPI PUSH2 0xA30 PUSH2 0x9D7 JUMP JUMPDEST JUMPDEST POP SWAP2 SWAP1 POP JUMP JUMPDEST PUSH32 0x4E487B7100000000000000000000000000000000000000000000000000000000 PUSH1 0x0 MSTORE PUSH1 0x11 PUSH1 0x4 MSTORE PUSH1 0x24 PUSH1 0x0 REVERT JUMPDEST PUSH1 0x0 PUSH2 0xA71 DUP3 PUSH2 0x596 JUMP JUMPDEST SWAP2 POP PUSH2 0xA7C DUP4 PUSH2 0x596 JUMP JUMPDEST SWAP3 POP DUP3 PUSH32 0xFFFFFFFFFFFFFFFFFFFFFFFFFFFFFFFFFFFFFFFFFFFFFFFFFFFFFFFFFFFFFFFF SUB DUP3 GT ISZERO PUSH2 0xAB1 JUMPI PUSH2 0xAB0 PUSH2 0xA37 JUMP JUMPDEST JUMPDEST DUP3 DUP3 ADD SWAP1 POP SWAP3 SWAP2 POP POP JUMP INVALID LOG2 PUSH5 0x6970667358 0x22 SLT KECCAK256 PUSH22 0x6F46263C60D2961518104D9AB1F7EB92D85AA324C8C SWAP7 0xAA DUP12 0xD5 0xE4 0xBB 0xCC PUSH11 0x9064736F6C634300080D00 CALLER "
				},
				"gasEstimates": {
					"creation": {
						"codeDepositCost": "560400",
						"executionCost": "51972",
						"totalCost": "612372"
					},
					"external": {
						"addPerson(uint256,string,uint256,uint256,address)": "infinite",
						"getPerson(uint256)": "infinite",
						"owner()": "2555",
						"people(uint256)": "infinite",
						"peopleCount()": "2451"
					},
					"internal": {
						"incrementCount()": "infinite"
					}
				},
				"methodIdentifiers": {
					"addPerson(uint256,string,uint256,uint256,address)": "18d875df",
					"getPerson(uint256)": "246982c4",
					"owner()": "8da5cb5b",
					"people(uint256)": "9e7a13ad",
					"peopleCount()": "267c68e0"
				}
			},
			"userdoc": {
				"kind": "user",
				"methods": {},
				"version": 1
			}
		}
	}
}