{
	"ETH-Remix/HungerGames/HungerGames.sol": {
		"HungerGames": {
			"abi": [
				{
					"inputs": [
						{
							"internalType": "uint256",
							"name": "_id",
							"type": "uint256"
						},
						{
							"internalType": "string",
							"name": "_name",
							"type": "string"
						},
						{
							"internalType": "uint256",
							"name": "_weight",
							"type": "uint256"
						},
						{
							"internalType": "uint256",
							"name": "_bet",
							"type": "uint256"
						},
						{
							"internalType": "address payable",
							"name": "_receiver",
							"type": "address"
						}
					],
					"name": "addPerson",
					"outputs": [],
					"stateMutability": "nonpayable",
					"type": "function"
				},
				{
					"inputs": [
						{
							"internalType": "address",
							"name": "winner",
							"type": "address"
						}
					],
					"name": "depositBet",
					"outputs": [],
					"stateMutability": "payable",
					"type": "function"
				},
				{
					"inputs": [
						{
							"internalType": "address",
							"name": "",
							"type": "address"
						}
					],
					"name": "deposits",
					"outputs": [
						{
							"internalType": "uint256",
							"name": "",
							"type": "uint256"
						}
					],
					"stateMutability": "view",
					"type": "function"
				},
				{
					"inputs": [
						{
							"internalType": "uint256",
							"name": "_index",
							"type": "uint256"
						}
					],
					"name": "getPerson",
					"outputs": [
						{
							"internalType": "uint256",
							"name": "",
							"type": "uint256"
						},
						{
							"internalType": "string",
							"name": "",
							"type": "string"
						},
						{
							"internalType": "uint256",
							"name": "",
							"type": "uint256"
						},
						{
							"internalType": "uint256",
							"name": "",
							"type": "uint256"
						},
						{
							"internalType": "address payable",
							"name": "",
							"type": "address"
						}
					],
					"stateMutability": "view",
					"type": "function"
				},
				{
					"inputs": [],
					"name": "owner",
					"outputs": [
						{
							"internalType": "address",
							"name": "",
							"type": "address"
						}
					],
					"stateMutability": "view",
					"type": "function"
				},
				{
					"inputs": [
						{
							"internalType": "uint256",
							"name": "",
							"type": "uint256"
						}
					],
					"name": "people",
					"outputs": [
						{
							"internalType": "uint256",
							"name": "_id",
							"type": "uint256"
						},
						{
							"internalType": "string",
							"name": "_name",
							"type": "string"
						},
						{
							"internalType": "uint256",
							"name": "_weight",
							"type": "uint256"
						},
						{
							"internalType": "uint256",
							"name": "_bet",
							"type": "uint256"
						},
						{
							"internalType": "address payable",
							"name": "_receiver",
							"type": "address"
						}
					],
					"stateMutability": "view",
					"type": "function"
				},
				{
					"inputs": [],
					"name": "peopleCount",
					"outputs": [
						{
							"internalType": "uint256",
							"name": "",
							"type": "uint256"
						}
					],
					"stateMutability": "view",
					"type": "function"
				}
			],
			"devdoc": {
				"kind": "dev",
				"methods": {},
				"version": 1
			},
			"evm": {
				"assembly": "    /* \"ETH-Remix/HungerGames/HungerGames.sol\":479:1837  contract HungerGames is Ownable, Timeable {... */\n  mstore(0x40, 0x80)\n    /* \"ETH-Remix/HungerGames/TimeoftheGames.sol\":114:124  1648436401 */\n  0x624124b1\n    /* \"ETH-Remix/HungerGames/TimeoftheGames.sol\":95:124  uint openingTime = 1648436401 */\n  0x01\n  sstore\n    /* \"ETH-Remix/HungerGames/HungerGames.sol\":582:583  0 */\n  0x00\n    /* \"ETH-Remix/HungerGames/HungerGames.sol\":553:583  uint256 public peopleCount = 0 */\n  0x02\n  sstore\n    /* \"ETH-Remix/HungerGames/HungerGames.sol\":479:1837  contract HungerGames is Ownable, Timeable {... */\n  callvalue\n  dup1\n  iszero\n  tag_1\n  jumpi\n  0x00\n  dup1\n  revert\ntag_1:\n  pop\n    /* \"ETH-Remix/HungerGames/Ownable.sol\":262:272  msg.sender */\n  caller\n    /* \"ETH-Remix/HungerGames/Ownable.sol\":254:259  owner */\n  0x00\n  dup1\n    /* \"ETH-Remix/HungerGames/Ownable.sol\":254:272  owner = msg.sender */\n  0x0100\n  exp\n  dup2\n  sload\n  dup2\n  0xffffffffffffffffffffffffffffffffffffffff\n  mul\n  not\n  and\n  swap1\n  dup4\n  0xffffffffffffffffffffffffffffffffffffffff\n  and\n  mul\n  or\n  swap1\n  sstore\n  pop\n    /* \"ETH-Remix/HungerGames/HungerGames.sol\":479:1837  contract HungerGames is Ownable, Timeable {... */\n  dataSize(sub_0)\n  dup1\n  dataOffset(sub_0)\n  0x00\n  codecopy\n  0x00\n  return\nstop\n\nsub_0: assembly {\n        /* \"ETH-Remix/HungerGames/HungerGames.sol\":479:1837  contract HungerGames is Ownable, Timeable {... */\n      mstore(0x40, 0x80)\n      jumpi(tag_1, lt(calldatasize, 0x04))\n      shr(0xe0, calldataload(0x00))\n      dup1\n      0x267c68e0\n      gt\n      tag_9\n      jumpi\n      dup1\n      0x267c68e0\n      eq\n      tag_5\n      jumpi\n      dup1\n      0x8da5cb5b\n      eq\n      tag_6\n      jumpi\n      dup1\n      0x9e7a13ad\n      eq\n      tag_7\n      jumpi\n      dup1\n      0xfc7e286d\n      eq\n      tag_8\n      jumpi\n      jump(tag_1)\n    tag_9:\n      dup1\n      0x152c3363\n      eq\n      tag_2\n      jumpi\n      dup1\n      0x18d875df\n      eq\n      tag_3\n      jumpi\n      dup1\n      0x246982c4\n      eq\n      tag_4\n      jumpi\n    tag_1:\n      0x00\n      dup1\n      revert\n        /* \"ETH-Remix/HungerGames/HungerGames.sol\":1674:1822  function depositBet(address winner) public payable {... */\n    tag_2:\n      tag_10\n      0x04\n      dup1\n      calldatasize\n      sub\n      dup2\n      add\n      swap1\n      tag_11\n      swap2\n      swap1\n      tag_12\n      jump\t// in\n    tag_11:\n      tag_13\n      jump\t// in\n    tag_10:\n      stop\n        /* \"ETH-Remix/HungerGames/HungerGames.sol\":969:1221  function addPerson(uint _id, string memory _name, uint _weight, uint _bet, address payable _receiver)... */\n    tag_3:\n      callvalue\n      dup1\n      iszero\n      tag_14\n      jumpi\n      0x00\n      dup1\n      revert\n    tag_14:\n      pop\n      tag_15\n      0x04\n      dup1\n      calldatasize\n      sub\n      dup2\n      add\n      swap1\n      tag_16\n      swap2\n      swap1\n      tag_17\n      jump\t// in\n    tag_16:\n      tag_18\n      jump\t// in\n    tag_15:\n      stop\n        /* \"ETH-Remix/HungerGames/HungerGames.sol\":1307:1617  function getPerson(uint _index) public view returns (uint, string memory, uint, uint, address payable) {... */\n    tag_4:\n      callvalue\n      dup1\n      iszero\n      tag_19\n      jumpi\n      0x00\n      dup1\n      revert\n    tag_19:\n      pop\n      tag_20\n      0x04\n      dup1\n      calldatasize\n      sub\n      dup2\n      add\n      swap1\n      tag_21\n      swap2\n      swap1\n      tag_22\n      jump\t// in\n    tag_21:\n      tag_23\n      jump\t// in\n    tag_20:\n      mload(0x40)\n      tag_24\n      swap6\n      swap5\n      swap4\n      swap3\n      swap2\n      swap1\n      tag_25\n      jump\t// in\n    tag_24:\n      mload(0x40)\n      dup1\n      swap2\n      sub\n      swap1\n      return\n        /* \"ETH-Remix/HungerGames/HungerGames.sol\":553:583  uint256 public peopleCount = 0 */\n    tag_5:\n      callvalue\n      dup1\n      iszero\n      tag_26\n      jumpi\n      0x00\n      dup1\n      revert\n    tag_26:\n      pop\n      tag_27\n      tag_28\n      jump\t// in\n    tag_27:\n      mload(0x40)\n      tag_29\n      swap2\n      swap1\n      tag_30\n      jump\t// in\n    tag_29:\n      mload(0x40)\n      dup1\n      swap2\n      sub\n      swap1\n      return\n        /* \"ETH-Remix/HungerGames/Ownable.sol\":92:112  address public owner */\n    tag_6:\n      callvalue\n      dup1\n      iszero\n      tag_31\n      jumpi\n      0x00\n      dup1\n      revert\n    tag_31:\n      pop\n      tag_32\n      tag_33\n      jump\t// in\n    tag_32:\n      mload(0x40)\n      tag_34\n      swap2\n      swap1\n      tag_35\n      jump\t// in\n    tag_34:\n      mload(0x40)\n      dup1\n      swap2\n      sub\n      swap1\n      return\n        /* \"ETH-Remix/HungerGames/HungerGames.sol\":592:629  mapping(uint => Person) public people */\n    tag_7:\n      callvalue\n      dup1\n      iszero\n      tag_36\n      jumpi\n      0x00\n      dup1\n      revert\n    tag_36:\n      pop\n      tag_37\n      0x04\n      dup1\n      calldatasize\n      sub\n      dup2\n      add\n      swap1\n      tag_38\n      swap2\n      swap1\n      tag_22\n      jump\t// in\n    tag_38:\n      tag_39\n      jump\t// in\n    tag_37:\n      mload(0x40)\n      tag_40\n      swap6\n      swap5\n      swap4\n      swap3\n      swap2\n      swap1\n      tag_25\n      jump\t// in\n    tag_40:\n      mload(0x40)\n      dup1\n      swap2\n      sub\n      swap1\n      return\n        /* \"ETH-Remix/HungerGames/HungerGames.sol\":1625:1665  mapping(address => uint) public deposits */\n    tag_8:\n      callvalue\n      dup1\n      iszero\n      tag_41\n      jumpi\n      0x00\n      dup1\n      revert\n    tag_41:\n      pop\n      tag_42\n      0x04\n      dup1\n      calldatasize\n      sub\n      dup2\n      add\n      swap1\n      tag_43\n      swap2\n      swap1\n      tag_12\n      jump\t// in\n    tag_43:\n      tag_44\n      jump\t// in\n    tag_42:\n      mload(0x40)\n      tag_45\n      swap2\n      swap1\n      tag_30\n      jump\t// in\n    tag_45:\n      mload(0x40)\n      dup1\n      swap2\n      sub\n      swap1\n      return\n        /* \"ETH-Remix/HungerGames/HungerGames.sol\":1674:1822  function depositBet(address winner) public payable {... */\n    tag_13:\n        /* \"ETH-Remix/HungerGames/HungerGames.sol\":1736:1747  uint amount */\n      0x00\n        /* \"ETH-Remix/HungerGames/HungerGames.sol\":1750:1759  msg.value */\n      callvalue\n        /* \"ETH-Remix/HungerGames/HungerGames.sol\":1736:1759  uint amount = msg.value */\n      swap1\n      pop\n        /* \"ETH-Remix/HungerGames/HungerGames.sol\":1808:1814  amount */\n      dup1\n        /* \"ETH-Remix/HungerGames/HungerGames.sol\":1789:1797  deposits */\n      0x04\n        /* \"ETH-Remix/HungerGames/HungerGames.sol\":1789:1805  deposits[winner] */\n      0x00\n        /* \"ETH-Remix/HungerGames/HungerGames.sol\":1798:1804  winner */\n      dup5\n        /* \"ETH-Remix/HungerGames/HungerGames.sol\":1789:1805  deposits[winner] */\n      0xffffffffffffffffffffffffffffffffffffffff\n      and\n      0xffffffffffffffffffffffffffffffffffffffff\n      and\n      dup2\n      mstore\n      0x20\n      add\n      swap1\n      dup2\n      mstore\n      0x20\n      add\n      0x00\n      keccak256\n      sload\n        /* \"ETH-Remix/HungerGames/HungerGames.sol\":1789:1814  deposits[winner] + amount */\n      tag_47\n      swap2\n      swap1\n      tag_48\n      jump\t// in\n    tag_47:\n        /* \"ETH-Remix/HungerGames/HungerGames.sol\":1770:1778  deposits */\n      0x04\n        /* \"ETH-Remix/HungerGames/HungerGames.sol\":1770:1786  deposits[winner] */\n      0x00\n        /* \"ETH-Remix/HungerGames/HungerGames.sol\":1779:1785  winner */\n      dup5\n        /* \"ETH-Remix/HungerGames/HungerGames.sol\":1770:1786  deposits[winner] */\n      0xffffffffffffffffffffffffffffffffffffffff\n      and\n      0xffffffffffffffffffffffffffffffffffffffff\n      and\n      dup2\n      mstore\n      0x20\n      add\n      swap1\n      dup2\n      mstore\n      0x20\n      add\n      0x00\n      keccak256\n        /* \"ETH-Remix/HungerGames/HungerGames.sol\":1770:1814  deposits[winner] = deposits[winner] + amount */\n      dup2\n      swap1\n      sstore\n      pop\n        /* \"ETH-Remix/HungerGames/HungerGames.sol\":1725:1822  {... */\n      pop\n        /* \"ETH-Remix/HungerGames/HungerGames.sol\":1674:1822  function depositBet(address winner) public payable {... */\n      pop\n      jump\t// out\n        /* \"ETH-Remix/HungerGames/HungerGames.sol\":969:1221  function addPerson(uint _id, string memory _name, uint _weight, uint _bet, address payable _receiver)... */\n    tag_18:\n        /* \"ETH-Remix/HungerGames/Ownable.sol\":173:178  owner */\n      0x00\n      dup1\n      sload\n      swap1\n      0x0100\n      exp\n      swap1\n      div\n      0xffffffffffffffffffffffffffffffffffffffff\n      and\n        /* \"ETH-Remix/HungerGames/Ownable.sol\":159:178  msg.sender == owner */\n      0xffffffffffffffffffffffffffffffffffffffff\n      and\n        /* \"ETH-Remix/HungerGames/Ownable.sol\":159:169  msg.sender */\n      caller\n        /* \"ETH-Remix/HungerGames/Ownable.sol\":159:178  msg.sender == owner */\n      0xffffffffffffffffffffffffffffffffffffffff\n      and\n      eq\n        /* \"ETH-Remix/HungerGames/Ownable.sol\":151:179  require(msg.sender == owner) */\n      tag_50\n      jumpi\n      0x00\n      dup1\n      revert\n    tag_50:\n        /* \"ETH-Remix/HungerGames/TimeoftheGames.sol\":194:205  openingTime */\n      sload(0x01)\n        /* \"ETH-Remix/HungerGames/TimeoftheGames.sol\":175:190  block.timestamp */\n      timestamp\n        /* \"ETH-Remix/HungerGames/TimeoftheGames.sol\":175:205  block.timestamp >= openingTime */\n      lt\n      iszero\n        /* \"ETH-Remix/HungerGames/TimeoftheGames.sol\":167:206  require(block.timestamp >= openingTime) */\n      tag_52\n      jumpi\n      0x00\n      dup1\n      revert\n    tag_52:\n        /* \"ETH-Remix/HungerGames/HungerGames.sol\":1119:1135  incrementCount() */\n      tag_54\n        /* \"ETH-Remix/HungerGames/HungerGames.sol\":1119:1133  incrementCount */\n      tag_55\n        /* \"ETH-Remix/HungerGames/HungerGames.sol\":1119:1135  incrementCount() */\n      jump\t// in\n    tag_54:\n        /* \"ETH-Remix/HungerGames/HungerGames.sol\":1168:1213  Person(_id , _name, _weight, _bet, _receiver) */\n      mload(0x40)\n      dup1\n      0xa0\n      add\n      0x40\n      mstore\n      dup1\n        /* \"ETH-Remix/HungerGames/HungerGames.sol\":1175:1178  _id */\n      dup7\n        /* \"ETH-Remix/HungerGames/HungerGames.sol\":1168:1213  Person(_id , _name, _weight, _bet, _receiver) */\n      dup2\n      mstore\n      0x20\n      add\n        /* \"ETH-Remix/HungerGames/HungerGames.sol\":1181:1186  _name */\n      dup6\n        /* \"ETH-Remix/HungerGames/HungerGames.sol\":1168:1213  Person(_id , _name, _weight, _bet, _receiver) */\n      dup2\n      mstore\n      0x20\n      add\n        /* \"ETH-Remix/HungerGames/HungerGames.sol\":1188:1195  _weight */\n      dup5\n        /* \"ETH-Remix/HungerGames/HungerGames.sol\":1168:1213  Person(_id , _name, _weight, _bet, _receiver) */\n      dup2\n      mstore\n      0x20\n      add\n        /* \"ETH-Remix/HungerGames/HungerGames.sol\":1197:1201  _bet */\n      dup4\n        /* \"ETH-Remix/HungerGames/HungerGames.sol\":1168:1213  Person(_id , _name, _weight, _bet, _receiver) */\n      dup2\n      mstore\n      0x20\n      add\n        /* \"ETH-Remix/HungerGames/HungerGames.sol\":1203:1212  _receiver */\n      dup3\n        /* \"ETH-Remix/HungerGames/HungerGames.sol\":1168:1213  Person(_id , _name, _weight, _bet, _receiver) */\n      0xffffffffffffffffffffffffffffffffffffffff\n      and\n      dup2\n      mstore\n      pop\n        /* \"ETH-Remix/HungerGames/HungerGames.sol\":1146:1152  people */\n      0x03\n        /* \"ETH-Remix/HungerGames/HungerGames.sol\":1146:1165  people[peopleCount] */\n      0x00\n        /* \"ETH-Remix/HungerGames/HungerGames.sol\":1153:1164  peopleCount */\n      sload(0x02)\n        /* \"ETH-Remix/HungerGames/HungerGames.sol\":1146:1165  people[peopleCount] */\n      dup2\n      mstore\n      0x20\n      add\n      swap1\n      dup2\n      mstore\n      0x20\n      add\n      0x00\n      keccak256\n        /* \"ETH-Remix/HungerGames/HungerGames.sol\":1146:1213  people[peopleCount] = Person(_id , _name, _weight, _bet, _receiver) */\n      0x00\n      dup3\n      add\n      mload\n      dup2\n      0x00\n      add\n      sstore\n      0x20\n      dup3\n      add\n      mload\n      dup2\n      0x01\n      add\n      swap1\n      dup1\n      mload\n      swap1\n      0x20\n      add\n      swap1\n      tag_56\n      swap3\n      swap2\n      swap1\n      tag_57\n      jump\t// in\n    tag_56:\n      pop\n      0x40\n      dup3\n      add\n      mload\n      dup2\n      0x02\n      add\n      sstore\n      0x60\n      dup3\n      add\n      mload\n      dup2\n      0x03\n      add\n      sstore\n      0x80\n      dup3\n      add\n      mload\n      dup2\n      0x04\n      add\n      exp(0x0100, 0x00)\n      dup2\n      sload\n      dup2\n      0xffffffffffffffffffffffffffffffffffffffff\n      mul\n      not\n      and\n      swap1\n      dup4\n      0xffffffffffffffffffffffffffffffffffffffff\n      and\n      mul\n      or\n      swap1\n      sstore\n      pop\n      swap1\n      pop\n      pop\n        /* \"ETH-Remix/HungerGames/HungerGames.sol\":969:1221  function addPerson(uint _id, string memory _name, uint _weight, uint _bet, address payable _receiver)... */\n      pop\n      pop\n      pop\n      pop\n      pop\n      jump\t// out\n        /* \"ETH-Remix/HungerGames/HungerGames.sol\":1307:1617  function getPerson(uint _index) public view returns (uint, string memory, uint, uint, address payable) {... */\n    tag_23:\n        /* \"ETH-Remix/HungerGames/HungerGames.sol\":1360:1364  uint */\n      0x00\n        /* \"ETH-Remix/HungerGames/HungerGames.sol\":1366:1379  string memory */\n      0x60\n        /* \"ETH-Remix/HungerGames/HungerGames.sol\":1381:1385  uint */\n      0x00\n        /* \"ETH-Remix/HungerGames/HungerGames.sol\":1387:1391  uint */\n      dup1\n        /* \"ETH-Remix/HungerGames/HungerGames.sol\":1393:1408  address payable */\n      0x00\n        /* \"ETH-Remix/HungerGames/HungerGames.sol\":1421:1449  Person memory personToReturn */\n      dup1\n        /* \"ETH-Remix/HungerGames/HungerGames.sol\":1452:1458  people */\n      0x03\n        /* \"ETH-Remix/HungerGames/HungerGames.sol\":1452:1466  people[_index] */\n      0x00\n        /* \"ETH-Remix/HungerGames/HungerGames.sol\":1459:1465  _index */\n      dup9\n        /* \"ETH-Remix/HungerGames/HungerGames.sol\":1452:1466  people[_index] */\n      dup2\n      mstore\n      0x20\n      add\n      swap1\n      dup2\n      mstore\n      0x20\n      add\n      0x00\n      keccak256\n        /* \"ETH-Remix/HungerGames/HungerGames.sol\":1421:1466  Person memory personToReturn = people[_index] */\n      mload(0x40)\n      dup1\n      0xa0\n      add\n      0x40\n      mstore\n      swap1\n      dup2\n      0x00\n      dup3\n      add\n      sload\n      dup2\n      mstore\n      0x20\n      add\n      0x01\n      dup3\n      add\n      dup1\n      sload\n      tag_59\n      swap1\n      tag_60\n      jump\t// in\n    tag_59:\n      dup1\n      0x1f\n      add\n      0x20\n      dup1\n      swap2\n      div\n      mul\n      0x20\n      add\n      mload(0x40)\n      swap1\n      dup2\n      add\n      0x40\n      mstore\n      dup1\n      swap3\n      swap2\n      swap1\n      dup2\n      dup2\n      mstore\n      0x20\n      add\n      dup3\n      dup1\n      sload\n      tag_61\n      swap1\n      tag_60\n      jump\t// in\n    tag_61:\n      dup1\n      iszero\n      tag_62\n      jumpi\n      dup1\n      0x1f\n      lt\n      tag_63\n      jumpi\n      0x0100\n      dup1\n      dup4\n      sload\n      div\n      mul\n      dup4\n      mstore\n      swap2\n      0x20\n      add\n      swap2\n      jump(tag_62)\n    tag_63:\n      dup3\n      add\n      swap2\n      swap1\n      0x00\n      mstore\n      keccak256(0x00, 0x20)\n      swap1\n    tag_64:\n      dup2\n      sload\n      dup2\n      mstore\n      swap1\n      0x01\n      add\n      swap1\n      0x20\n      add\n      dup1\n      dup4\n      gt\n      tag_64\n      jumpi\n      dup3\n      swap1\n      sub\n      0x1f\n      and\n      dup3\n      add\n      swap2\n    tag_62:\n      pop\n      pop\n      pop\n      pop\n      pop\n      dup2\n      mstore\n      0x20\n      add\n      0x02\n      dup3\n      add\n      sload\n      dup2\n      mstore\n      0x20\n      add\n      0x03\n      dup3\n      add\n      sload\n      dup2\n      mstore\n      0x20\n      add\n      0x04\n      dup3\n      add\n      0x00\n      swap1\n      sload\n      swap1\n      0x0100\n      exp\n      swap1\n      div\n      0xffffffffffffffffffffffffffffffffffffffff\n      and\n      0xffffffffffffffffffffffffffffffffffffffff\n      and\n      0xffffffffffffffffffffffffffffffffffffffff\n      and\n      dup2\n      mstore\n      pop\n      pop\n      swap1\n      pop\n        /* \"ETH-Remix/HungerGames/HungerGames.sol\":1485:1499  personToReturn */\n      dup1\n        /* \"ETH-Remix/HungerGames/HungerGames.sol\":1485:1503  personToReturn._id */\n      0x00\n      add\n      mload\n        /* \"ETH-Remix/HungerGames/HungerGames.sol\":1505:1519  personToReturn */\n      dup2\n        /* \"ETH-Remix/HungerGames/HungerGames.sol\":1505:1525  personToReturn._name */\n      0x20\n      add\n      mload\n        /* \"ETH-Remix/HungerGames/HungerGames.sol\":1527:1541  personToReturn */\n      dup3\n        /* \"ETH-Remix/HungerGames/HungerGames.sol\":1527:1549  personToReturn._weight */\n      0x40\n      add\n      mload\n        /* \"ETH-Remix/HungerGames/HungerGames.sol\":1551:1565  personToReturn */\n      dup4\n        /* \"ETH-Remix/HungerGames/HungerGames.sol\":1551:1570  personToReturn._bet */\n      0x60\n      add\n      mload\n        /* \"ETH-Remix/HungerGames/HungerGames.sol\":1581:1595  personToReturn */\n      dup5\n        /* \"ETH-Remix/HungerGames/HungerGames.sol\":1581:1605  personToReturn._receiver */\n      0x80\n      add\n      mload\n        /* \"ETH-Remix/HungerGames/HungerGames.sol\":1477:1606  return (personToReturn._id, personToReturn._name, personToReturn._weight, personToReturn._bet,... */\n      swap6\n      pop\n      swap6\n      pop\n      swap6\n      pop\n      swap6\n      pop\n      swap6\n      pop\n      pop\n        /* \"ETH-Remix/HungerGames/HungerGames.sol\":1307:1617  function getPerson(uint _index) public view returns (uint, string memory, uint, uint, address payable) {... */\n      swap2\n      swap4\n      swap6\n      swap1\n      swap3\n      swap5\n      pop\n      jump\t// out\n        /* \"ETH-Remix/HungerGames/HungerGames.sol\":553:583  uint256 public peopleCount = 0 */\n    tag_28:\n      sload(0x02)\n      dup2\n      jump\t// out\n        /* \"ETH-Remix/HungerGames/Ownable.sol\":92:112  address public owner */\n    tag_33:\n      0x00\n      dup1\n      sload\n      swap1\n      0x0100\n      exp\n      swap1\n      div\n      0xffffffffffffffffffffffffffffffffffffffff\n      and\n      dup2\n      jump\t// out\n        /* \"ETH-Remix/HungerGames/HungerGames.sol\":592:629  mapping(uint => Person) public people */\n    tag_39:\n      mstore(0x20, 0x03)\n      dup1\n      0x00\n      mstore\n      keccak256(0x00, 0x40)\n      0x00\n      swap2\n      pop\n      swap1\n      pop\n      dup1\n      0x00\n      add\n      sload\n      swap1\n      dup1\n      0x01\n      add\n      dup1\n      sload\n      tag_65\n      swap1\n      tag_60\n      jump\t// in\n    tag_65:\n      dup1\n      0x1f\n      add\n      0x20\n      dup1\n      swap2\n      div\n      mul\n      0x20\n      add\n      mload(0x40)\n      swap1\n      dup2\n      add\n      0x40\n      mstore\n      dup1\n      swap3\n      swap2\n      swap1\n      dup2\n      dup2\n      mstore\n      0x20\n      add\n      dup3\n      dup1\n      sload\n      tag_66\n      swap1\n      tag_60\n      jump\t// in\n    tag_66:\n      dup1\n      iszero\n      tag_67\n      jumpi\n      dup1\n      0x1f\n      lt\n      tag_68\n      jumpi\n      0x0100\n      dup1\n      dup4\n      sload\n      div\n      mul\n      dup4\n      mstore\n      swap2\n      0x20\n      add\n      swap2\n      jump(tag_67)\n    tag_68:\n      dup3\n      add\n      swap2\n      swap1\n      0x00\n      mstore\n      keccak256(0x00, 0x20)\n      swap1\n    tag_69:\n      dup2\n      sload\n      dup2\n      mstore\n      swap1\n      0x01\n      add\n      swap1\n      0x20\n      add\n      dup1\n      dup4\n      gt\n      tag_69\n      jumpi\n      dup3\n      swap1\n      sub\n      0x1f\n      and\n      dup3\n      add\n      swap2\n    tag_67:\n      pop\n      pop\n      pop\n      pop\n      pop\n      swap1\n      dup1\n      0x02\n      add\n      sload\n      swap1\n      dup1\n      0x03\n      add\n      sload\n      swap1\n      dup1\n      0x04\n      add\n      0x00\n      swap1\n      sload\n      swap1\n      0x0100\n      exp\n      swap1\n      div\n      0xffffffffffffffffffffffffffffffffffffffff\n      and\n      swap1\n      pop\n      dup6\n      jump\t// out\n        /* \"ETH-Remix/HungerGames/HungerGames.sol\":1625:1665  mapping(address => uint) public deposits */\n    tag_44:\n      mstore(0x20, 0x04)\n      dup1\n      0x00\n      mstore\n      keccak256(0x00, 0x40)\n      0x00\n      swap2\n      pop\n      swap1\n      pop\n      sload\n      dup2\n      jump\t// out\n        /* \"ETH-Remix/HungerGames/HungerGames.sol\":1229:1299  function incrementCount() internal {... */\n    tag_55:\n        /* \"ETH-Remix/HungerGames/HungerGames.sol\":1290:1291  1 */\n      0x01\n        /* \"ETH-Remix/HungerGames/HungerGames.sol\":1275:1286  peopleCount */\n      0x02\n      0x00\n        /* \"ETH-Remix/HungerGames/HungerGames.sol\":1275:1291  peopleCount += 1 */\n      dup3\n      dup3\n      sload\n      tag_71\n      swap2\n      swap1\n      tag_48\n      jump\t// in\n    tag_71:\n      swap3\n      pop\n      pop\n      dup2\n      swap1\n      sstore\n      pop\n        /* \"ETH-Remix/HungerGames/HungerGames.sol\":1229:1299  function incrementCount() internal {... */\n      jump\t// out\n    tag_57:\n      dup3\n      dup1\n      sload\n      tag_72\n      swap1\n      tag_60\n      jump\t// in\n    tag_72:\n      swap1\n      0x00\n      mstore\n      keccak256(0x00, 0x20)\n      swap1\n      0x1f\n      add\n      0x20\n      swap1\n      div\n      dup2\n      add\n      swap3\n      dup3\n      tag_74\n      jumpi\n      0x00\n      dup6\n      sstore\n      jump(tag_73)\n    tag_74:\n      dup3\n      0x1f\n      lt\n      tag_75\n      jumpi\n      dup1\n      mload\n      not(0xff)\n      and\n      dup4\n      dup1\n      add\n      or\n      dup6\n      sstore\n      jump(tag_73)\n    tag_75:\n      dup3\n      dup1\n      add\n      0x01\n      add\n      dup6\n      sstore\n      dup3\n      iszero\n      tag_73\n      jumpi\n      swap2\n      dup3\n      add\n    tag_76:\n      dup3\n      dup2\n      gt\n      iszero\n      tag_77\n      jumpi\n      dup3\n      mload\n      dup3\n      sstore\n      swap2\n      0x20\n      add\n      swap2\n      swap1\n      0x01\n      add\n      swap1\n      jump(tag_76)\n    tag_77:\n    tag_73:\n      pop\n      swap1\n      pop\n      tag_78\n      swap2\n      swap1\n      tag_79\n      jump\t// in\n    tag_78:\n      pop\n      swap1\n      jump\t// out\n    tag_79:\n    tag_80:\n      dup1\n      dup3\n      gt\n      iszero\n      tag_81\n      jumpi\n      0x00\n      dup2\n      0x00\n      swap1\n      sstore\n      pop\n      0x01\n      add\n      jump(tag_80)\n    tag_81:\n      pop\n      swap1\n      jump\t// out\n        /* \"#utility.yul\":7:82   */\n    tag_82:\n        /* \"#utility.yul\":40:46   */\n      0x00\n        /* \"#utility.yul\":73:75   */\n      0x40\n        /* \"#utility.yul\":67:76   */\n      mload\n        /* \"#utility.yul\":57:76   */\n      swap1\n      pop\n        /* \"#utility.yul\":7:82   */\n      swap1\n      jump\t// out\n        /* \"#utility.yul\":88:205   */\n    tag_83:\n        /* \"#utility.yul\":197:198   */\n      0x00\n        /* \"#utility.yul\":194:195   */\n      dup1\n        /* \"#utility.yul\":187:199   */\n      revert\n        /* \"#utility.yul\":211:328   */\n    tag_84:\n        /* \"#utility.yul\":320:321   */\n      0x00\n        /* \"#utility.yul\":317:318   */\n      dup1\n        /* \"#utility.yul\":310:322   */\n      revert\n        /* \"#utility.yul\":334:460   */\n    tag_85:\n        /* \"#utility.yul\":371:378   */\n      0x00\n        /* \"#utility.yul\":411:453   */\n      0xffffffffffffffffffffffffffffffffffffffff\n        /* \"#utility.yul\":404:409   */\n      dup3\n        /* \"#utility.yul\":400:454   */\n      and\n        /* \"#utility.yul\":389:454   */\n      swap1\n      pop\n        /* \"#utility.yul\":334:460   */\n      swap2\n      swap1\n      pop\n      jump\t// out\n        /* \"#utility.yul\":466:562   */\n    tag_86:\n        /* \"#utility.yul\":503:510   */\n      0x00\n        /* \"#utility.yul\":532:556   */\n      tag_120\n        /* \"#utility.yul\":550:555   */\n      dup3\n        /* \"#utility.yul\":532:556   */\n      tag_85\n      jump\t// in\n    tag_120:\n        /* \"#utility.yul\":521:556   */\n      swap1\n      pop\n        /* \"#utility.yul\":466:562   */\n      swap2\n      swap1\n      pop\n      jump\t// out\n        /* \"#utility.yul\":568:690   */\n    tag_87:\n        /* \"#utility.yul\":641:665   */\n      tag_122\n        /* \"#utility.yul\":659:664   */\n      dup2\n        /* \"#utility.yul\":641:665   */\n      tag_86\n      jump\t// in\n    tag_122:\n        /* \"#utility.yul\":634:639   */\n      dup2\n        /* \"#utility.yul\":631:666   */\n      eq\n        /* \"#utility.yul\":621:684   */\n      tag_123\n      jumpi\n        /* \"#utility.yul\":680:681   */\n      0x00\n        /* \"#utility.yul\":677:678   */\n      dup1\n        /* \"#utility.yul\":670:682   */\n      revert\n        /* \"#utility.yul\":621:684   */\n    tag_123:\n        /* \"#utility.yul\":568:690   */\n      pop\n      jump\t// out\n        /* \"#utility.yul\":696:835   */\n    tag_88:\n        /* \"#utility.yul\":742:747   */\n      0x00\n        /* \"#utility.yul\":780:786   */\n      dup2\n        /* \"#utility.yul\":767:787   */\n      calldataload\n        /* \"#utility.yul\":758:787   */\n      swap1\n      pop\n        /* \"#utility.yul\":796:829   */\n      tag_125\n        /* \"#utility.yul\":823:828   */\n      dup2\n        /* \"#utility.yul\":796:829   */\n      tag_87\n      jump\t// in\n    tag_125:\n        /* \"#utility.yul\":696:835   */\n      swap3\n      swap2\n      pop\n      pop\n      jump\t// out\n        /* \"#utility.yul\":841:1170   */\n    tag_12:\n        /* \"#utility.yul\":900:906   */\n      0x00\n        /* \"#utility.yul\":949:951   */\n      0x20\n        /* \"#utility.yul\":937:946   */\n      dup3\n        /* \"#utility.yul\":928:935   */\n      dup5\n        /* \"#utility.yul\":924:947   */\n      sub\n        /* \"#utility.yul\":920:952   */\n      slt\n        /* \"#utility.yul\":917:1036   */\n      iszero\n      tag_127\n      jumpi\n        /* \"#utility.yul\":955:1034   */\n      tag_128\n      tag_83\n      jump\t// in\n    tag_128:\n        /* \"#utility.yul\":917:1036   */\n    tag_127:\n        /* \"#utility.yul\":1075:1076   */\n      0x00\n        /* \"#utility.yul\":1100:1153   */\n      tag_129\n        /* \"#utility.yul\":1145:1152   */\n      dup5\n        /* \"#utility.yul\":1136:1142   */\n      dup3\n        /* \"#utility.yul\":1125:1134   */\n      dup6\n        /* \"#utility.yul\":1121:1143   */\n      add\n        /* \"#utility.yul\":1100:1153   */\n      tag_88\n      jump\t// in\n    tag_129:\n        /* \"#utility.yul\":1090:1153   */\n      swap2\n      pop\n        /* \"#utility.yul\":1046:1163   */\n      pop\n        /* \"#utility.yul\":841:1170   */\n      swap3\n      swap2\n      pop\n      pop\n      jump\t// out\n        /* \"#utility.yul\":1176:1253   */\n    tag_89:\n        /* \"#utility.yul\":1213:1220   */\n      0x00\n        /* \"#utility.yul\":1242:1247   */\n      dup2\n        /* \"#utility.yul\":1231:1247   */\n      swap1\n      pop\n        /* \"#utility.yul\":1176:1253   */\n      swap2\n      swap1\n      pop\n      jump\t// out\n        /* \"#utility.yul\":1259:1381   */\n    tag_90:\n        /* \"#utility.yul\":1332:1356   */\n      tag_132\n        /* \"#utility.yul\":1350:1355   */\n      dup2\n        /* \"#utility.yul\":1332:1356   */\n      tag_89\n      jump\t// in\n    tag_132:\n        /* \"#utility.yul\":1325:1330   */\n      dup2\n        /* \"#utility.yul\":1322:1357   */\n      eq\n        /* \"#utility.yul\":1312:1375   */\n      tag_133\n      jumpi\n        /* \"#utility.yul\":1371:1372   */\n      0x00\n        /* \"#utility.yul\":1368:1369   */\n      dup1\n        /* \"#utility.yul\":1361:1373   */\n      revert\n        /* \"#utility.yul\":1312:1375   */\n    tag_133:\n        /* \"#utility.yul\":1259:1381   */\n      pop\n      jump\t// out\n        /* \"#utility.yul\":1387:1526   */\n    tag_91:\n        /* \"#utility.yul\":1433:1438   */\n      0x00\n        /* \"#utility.yul\":1471:1477   */\n      dup2\n        /* \"#utility.yul\":1458:1478   */\n      calldataload\n        /* \"#utility.yul\":1449:1478   */\n      swap1\n      pop\n        /* \"#utility.yul\":1487:1520   */\n      tag_135\n        /* \"#utility.yul\":1514:1519   */\n      dup2\n        /* \"#utility.yul\":1487:1520   */\n      tag_90\n      jump\t// in\n    tag_135:\n        /* \"#utility.yul\":1387:1526   */\n      swap3\n      swap2\n      pop\n      pop\n      jump\t// out\n        /* \"#utility.yul\":1532:1649   */\n    tag_92:\n        /* \"#utility.yul\":1641:1642   */\n      0x00\n        /* \"#utility.yul\":1638:1639   */\n      dup1\n        /* \"#utility.yul\":1631:1643   */\n      revert\n        /* \"#utility.yul\":1655:1772   */\n    tag_93:\n        /* \"#utility.yul\":1764:1765   */\n      0x00\n        /* \"#utility.yul\":1761:1762   */\n      dup1\n        /* \"#utility.yul\":1754:1766   */\n      revert\n        /* \"#utility.yul\":1778:1880   */\n    tag_94:\n        /* \"#utility.yul\":1819:1825   */\n      0x00\n        /* \"#utility.yul\":1870:1872   */\n      0x1f\n        /* \"#utility.yul\":1866:1873   */\n      not\n        /* \"#utility.yul\":1861:1863   */\n      0x1f\n        /* \"#utility.yul\":1854:1859   */\n      dup4\n        /* \"#utility.yul\":1850:1864   */\n      add\n        /* \"#utility.yul\":1846:1874   */\n      and\n        /* \"#utility.yul\":1836:1874   */\n      swap1\n      pop\n        /* \"#utility.yul\":1778:1880   */\n      swap2\n      swap1\n      pop\n      jump\t// out\n        /* \"#utility.yul\":1886:2066   */\n    tag_95:\n        /* \"#utility.yul\":1934:2011   */\n      0x4e487b7100000000000000000000000000000000000000000000000000000000\n        /* \"#utility.yul\":1931:1932   */\n      0x00\n        /* \"#utility.yul\":1924:2012   */\n      mstore\n        /* \"#utility.yul\":2031:2035   */\n      0x41\n        /* \"#utility.yul\":2028:2029   */\n      0x04\n        /* \"#utility.yul\":2021:2036   */\n      mstore\n        /* \"#utility.yul\":2055:2059   */\n      0x24\n        /* \"#utility.yul\":2052:2053   */\n      0x00\n        /* \"#utility.yul\":2045:2060   */\n      revert\n        /* \"#utility.yul\":2072:2353   */\n    tag_96:\n        /* \"#utility.yul\":2155:2182   */\n      tag_141\n        /* \"#utility.yul\":2177:2181   */\n      dup3\n        /* \"#utility.yul\":2155:2182   */\n      tag_94\n      jump\t// in\n    tag_141:\n        /* \"#utility.yul\":2147:2153   */\n      dup2\n        /* \"#utility.yul\":2143:2183   */\n      add\n        /* \"#utility.yul\":2285:2291   */\n      dup2\n        /* \"#utility.yul\":2273:2283   */\n      dup2\n        /* \"#utility.yul\":2270:2292   */\n      lt\n        /* \"#utility.yul\":2249:2267   */\n      0xffffffffffffffff\n        /* \"#utility.yul\":2237:2247   */\n      dup3\n        /* \"#utility.yul\":2234:2268   */\n      gt\n        /* \"#utility.yul\":2231:2293   */\n      or\n        /* \"#utility.yul\":2228:2316   */\n      iszero\n      tag_142\n      jumpi\n        /* \"#utility.yul\":2296:2314   */\n      tag_143\n      tag_95\n      jump\t// in\n    tag_143:\n        /* \"#utility.yul\":2228:2316   */\n    tag_142:\n        /* \"#utility.yul\":2336:2346   */\n      dup1\n        /* \"#utility.yul\":2332:2334   */\n      0x40\n        /* \"#utility.yul\":2325:2347   */\n      mstore\n        /* \"#utility.yul\":2115:2353   */\n      pop\n        /* \"#utility.yul\":2072:2353   */\n      pop\n      pop\n      jump\t// out\n        /* \"#utility.yul\":2359:2488   */\n    tag_97:\n        /* \"#utility.yul\":2393:2399   */\n      0x00\n        /* \"#utility.yul\":2420:2440   */\n      tag_145\n      tag_82\n      jump\t// in\n    tag_145:\n        /* \"#utility.yul\":2410:2440   */\n      swap1\n      pop\n        /* \"#utility.yul\":2449:2482   */\n      tag_146\n        /* \"#utility.yul\":2477:2481   */\n      dup3\n        /* \"#utility.yul\":2469:2475   */\n      dup3\n        /* \"#utility.yul\":2449:2482   */\n      tag_96\n      jump\t// in\n    tag_146:\n        /* \"#utility.yul\":2359:2488   */\n      swap2\n      swap1\n      pop\n      jump\t// out\n        /* \"#utility.yul\":2494:2802   */\n    tag_98:\n        /* \"#utility.yul\":2556:2560   */\n      0x00\n        /* \"#utility.yul\":2646:2664   */\n      0xffffffffffffffff\n        /* \"#utility.yul\":2638:2644   */\n      dup3\n        /* \"#utility.yul\":2635:2665   */\n      gt\n        /* \"#utility.yul\":2632:2688   */\n      iszero\n      tag_148\n      jumpi\n        /* \"#utility.yul\":2668:2686   */\n      tag_149\n      tag_95\n      jump\t// in\n    tag_149:\n        /* \"#utility.yul\":2632:2688   */\n    tag_148:\n        /* \"#utility.yul\":2706:2735   */\n      tag_150\n        /* \"#utility.yul\":2728:2734   */\n      dup3\n        /* \"#utility.yul\":2706:2735   */\n      tag_94\n      jump\t// in\n    tag_150:\n        /* \"#utility.yul\":2698:2735   */\n      swap1\n      pop\n        /* \"#utility.yul\":2790:2794   */\n      0x20\n        /* \"#utility.yul\":2784:2788   */\n      dup2\n        /* \"#utility.yul\":2780:2795   */\n      add\n        /* \"#utility.yul\":2772:2795   */\n      swap1\n      pop\n        /* \"#utility.yul\":2494:2802   */\n      swap2\n      swap1\n      pop\n      jump\t// out\n        /* \"#utility.yul\":2808:2962   */\n    tag_99:\n        /* \"#utility.yul\":2892:2898   */\n      dup3\n        /* \"#utility.yul\":2887:2890   */\n      dup2\n        /* \"#utility.yul\":2882:2885   */\n      dup4\n        /* \"#utility.yul\":2869:2899   */\n      calldatacopy\n        /* \"#utility.yul\":2954:2955   */\n      0x00\n        /* \"#utility.yul\":2945:2951   */\n      dup4\n        /* \"#utility.yul\":2940:2943   */\n      dup4\n        /* \"#utility.yul\":2936:2952   */\n      add\n        /* \"#utility.yul\":2929:2956   */\n      mstore\n        /* \"#utility.yul\":2808:2962   */\n      pop\n      pop\n      pop\n      jump\t// out\n        /* \"#utility.yul\":2968:3380   */\n    tag_100:\n        /* \"#utility.yul\":3046:3051   */\n      0x00\n        /* \"#utility.yul\":3071:3137   */\n      tag_153\n        /* \"#utility.yul\":3087:3136   */\n      tag_154\n        /* \"#utility.yul\":3129:3135   */\n      dup5\n        /* \"#utility.yul\":3087:3136   */\n      tag_98\n      jump\t// in\n    tag_154:\n        /* \"#utility.yul\":3071:3137   */\n      tag_97\n      jump\t// in\n    tag_153:\n        /* \"#utility.yul\":3062:3137   */\n      swap1\n      pop\n        /* \"#utility.yul\":3160:3166   */\n      dup3\n        /* \"#utility.yul\":3153:3158   */\n      dup2\n        /* \"#utility.yul\":3146:3167   */\n      mstore\n        /* \"#utility.yul\":3198:3202   */\n      0x20\n        /* \"#utility.yul\":3191:3196   */\n      dup2\n        /* \"#utility.yul\":3187:3203   */\n      add\n        /* \"#utility.yul\":3236:3239   */\n      dup5\n        /* \"#utility.yul\":3227:3233   */\n      dup5\n        /* \"#utility.yul\":3222:3225   */\n      dup5\n        /* \"#utility.yul\":3218:3234   */\n      add\n        /* \"#utility.yul\":3215:3240   */\n      gt\n        /* \"#utility.yul\":3212:3324   */\n      iszero\n      tag_155\n      jumpi\n        /* \"#utility.yul\":3243:3322   */\n      tag_156\n      tag_93\n      jump\t// in\n    tag_156:\n        /* \"#utility.yul\":3212:3324   */\n    tag_155:\n        /* \"#utility.yul\":3333:3374   */\n      tag_157\n        /* \"#utility.yul\":3367:3373   */\n      dup5\n        /* \"#utility.yul\":3362:3365   */\n      dup3\n        /* \"#utility.yul\":3357:3360   */\n      dup6\n        /* \"#utility.yul\":3333:3374   */\n      tag_99\n      jump\t// in\n    tag_157:\n        /* \"#utility.yul\":3052:3380   */\n      pop\n        /* \"#utility.yul\":2968:3380   */\n      swap4\n      swap3\n      pop\n      pop\n      pop\n      jump\t// out\n        /* \"#utility.yul\":3400:3740   */\n    tag_101:\n        /* \"#utility.yul\":3456:3461   */\n      0x00\n        /* \"#utility.yul\":3505:3508   */\n      dup3\n        /* \"#utility.yul\":3498:3502   */\n      0x1f\n        /* \"#utility.yul\":3490:3496   */\n      dup4\n        /* \"#utility.yul\":3486:3503   */\n      add\n        /* \"#utility.yul\":3482:3509   */\n      slt\n        /* \"#utility.yul\":3472:3594   */\n      tag_159\n      jumpi\n        /* \"#utility.yul\":3513:3592   */\n      tag_160\n      tag_92\n      jump\t// in\n    tag_160:\n        /* \"#utility.yul\":3472:3594   */\n    tag_159:\n        /* \"#utility.yul\":3630:3636   */\n      dup2\n        /* \"#utility.yul\":3617:3637   */\n      calldataload\n        /* \"#utility.yul\":3655:3734   */\n      tag_161\n        /* \"#utility.yul\":3730:3733   */\n      dup5\n        /* \"#utility.yul\":3722:3728   */\n      dup3\n        /* \"#utility.yul\":3715:3719   */\n      0x20\n        /* \"#utility.yul\":3707:3713   */\n      dup7\n        /* \"#utility.yul\":3703:3720   */\n      add\n        /* \"#utility.yul\":3655:3734   */\n      tag_100\n      jump\t// in\n    tag_161:\n        /* \"#utility.yul\":3646:3734   */\n      swap2\n      pop\n        /* \"#utility.yul\":3462:3740   */\n      pop\n        /* \"#utility.yul\":3400:3740   */\n      swap3\n      swap2\n      pop\n      pop\n      jump\t// out\n        /* \"#utility.yul\":3746:3850   */\n    tag_102:\n        /* \"#utility.yul\":3791:3798   */\n      0x00\n        /* \"#utility.yul\":3820:3844   */\n      tag_163\n        /* \"#utility.yul\":3838:3843   */\n      dup3\n        /* \"#utility.yul\":3820:3844   */\n      tag_85\n      jump\t// in\n    tag_163:\n        /* \"#utility.yul\":3809:3844   */\n      swap1\n      pop\n        /* \"#utility.yul\":3746:3850   */\n      swap2\n      swap1\n      pop\n      jump\t// out\n        /* \"#utility.yul\":3856:3994   */\n    tag_103:\n        /* \"#utility.yul\":3937:3969   */\n      tag_165\n        /* \"#utility.yul\":3963:3968   */\n      dup2\n        /* \"#utility.yul\":3937:3969   */\n      tag_102\n      jump\t// in\n    tag_165:\n        /* \"#utility.yul\":3930:3935   */\n      dup2\n        /* \"#utility.yul\":3927:3970   */\n      eq\n        /* \"#utility.yul\":3917:3988   */\n      tag_166\n      jumpi\n        /* \"#utility.yul\":3984:3985   */\n      0x00\n        /* \"#utility.yul\":3981:3982   */\n      dup1\n        /* \"#utility.yul\":3974:3986   */\n      revert\n        /* \"#utility.yul\":3917:3988   */\n    tag_166:\n        /* \"#utility.yul\":3856:3994   */\n      pop\n      jump\t// out\n        /* \"#utility.yul\":4000:4155   */\n    tag_104:\n        /* \"#utility.yul\":4054:4059   */\n      0x00\n        /* \"#utility.yul\":4092:4098   */\n      dup2\n        /* \"#utility.yul\":4079:4099   */\n      calldataload\n        /* \"#utility.yul\":4070:4099   */\n      swap1\n      pop\n        /* \"#utility.yul\":4108:4149   */\n      tag_168\n        /* \"#utility.yul\":4143:4148   */\n      dup2\n        /* \"#utility.yul\":4108:4149   */\n      tag_103\n      jump\t// in\n    tag_168:\n        /* \"#utility.yul\":4000:4155   */\n      swap3\n      swap2\n      pop\n      pop\n      jump\t// out\n        /* \"#utility.yul\":4161:5268   */\n    tag_17:\n        /* \"#utility.yul\":4274:4280   */\n      0x00\n        /* \"#utility.yul\":4282:4288   */\n      dup1\n        /* \"#utility.yul\":4290:4296   */\n      0x00\n        /* \"#utility.yul\":4298:4304   */\n      dup1\n        /* \"#utility.yul\":4306:4312   */\n      0x00\n        /* \"#utility.yul\":4355:4358   */\n      0xa0\n        /* \"#utility.yul\":4343:4352   */\n      dup7\n        /* \"#utility.yul\":4334:4341   */\n      dup9\n        /* \"#utility.yul\":4330:4353   */\n      sub\n        /* \"#utility.yul\":4326:4359   */\n      slt\n        /* \"#utility.yul\":4323:4443   */\n      iszero\n      tag_170\n      jumpi\n        /* \"#utility.yul\":4362:4441   */\n      tag_171\n      tag_83\n      jump\t// in\n    tag_171:\n        /* \"#utility.yul\":4323:4443   */\n    tag_170:\n        /* \"#utility.yul\":4482:4483   */\n      0x00\n        /* \"#utility.yul\":4507:4560   */\n      tag_172\n        /* \"#utility.yul\":4552:4559   */\n      dup9\n        /* \"#utility.yul\":4543:4549   */\n      dup3\n        /* \"#utility.yul\":4532:4541   */\n      dup10\n        /* \"#utility.yul\":4528:4550   */\n      add\n        /* \"#utility.yul\":4507:4560   */\n      tag_91\n      jump\t// in\n    tag_172:\n        /* \"#utility.yul\":4497:4560   */\n      swap6\n      pop\n        /* \"#utility.yul\":4453:4570   */\n      pop\n        /* \"#utility.yul\":4637:4639   */\n      0x20\n        /* \"#utility.yul\":4626:4635   */\n      dup7\n        /* \"#utility.yul\":4622:4640   */\n      add\n        /* \"#utility.yul\":4609:4641   */\n      calldataload\n        /* \"#utility.yul\":4668:4686   */\n      0xffffffffffffffff\n        /* \"#utility.yul\":4660:4666   */\n      dup2\n        /* \"#utility.yul\":4657:4687   */\n      gt\n        /* \"#utility.yul\":4654:4771   */\n      iszero\n      tag_173\n      jumpi\n        /* \"#utility.yul\":4690:4769   */\n      tag_174\n      tag_84\n      jump\t// in\n    tag_174:\n        /* \"#utility.yul\":4654:4771   */\n    tag_173:\n        /* \"#utility.yul\":4795:4858   */\n      tag_175\n        /* \"#utility.yul\":4850:4857   */\n      dup9\n        /* \"#utility.yul\":4841:4847   */\n      dup3\n        /* \"#utility.yul\":4830:4839   */\n      dup10\n        /* \"#utility.yul\":4826:4848   */\n      add\n        /* \"#utility.yul\":4795:4858   */\n      tag_101\n      jump\t// in\n    tag_175:\n        /* \"#utility.yul\":4785:4858   */\n      swap5\n      pop\n        /* \"#utility.yul\":4580:4868   */\n      pop\n        /* \"#utility.yul\":4907:4909   */\n      0x40\n        /* \"#utility.yul\":4933:4986   */\n      tag_176\n        /* \"#utility.yul\":4978:4985   */\n      dup9\n        /* \"#utility.yul\":4969:4975   */\n      dup3\n        /* \"#utility.yul\":4958:4967   */\n      dup10\n        /* \"#utility.yul\":4954:4976   */\n      add\n        /* \"#utility.yul\":4933:4986   */\n      tag_91\n      jump\t// in\n    tag_176:\n        /* \"#utility.yul\":4923:4986   */\n      swap4\n      pop\n        /* \"#utility.yul\":4878:4996   */\n      pop\n        /* \"#utility.yul\":5035:5037   */\n      0x60\n        /* \"#utility.yul\":5061:5114   */\n      tag_177\n        /* \"#utility.yul\":5106:5113   */\n      dup9\n        /* \"#utility.yul\":5097:5103   */\n      dup3\n        /* \"#utility.yul\":5086:5095   */\n      dup10\n        /* \"#utility.yul\":5082:5104   */\n      add\n        /* \"#utility.yul\":5061:5114   */\n      tag_91\n      jump\t// in\n    tag_177:\n        /* \"#utility.yul\":5051:5114   */\n      swap3\n      pop\n        /* \"#utility.yul\":5006:5124   */\n      pop\n        /* \"#utility.yul\":5163:5166   */\n      0x80\n        /* \"#utility.yul\":5190:5251   */\n      tag_178\n        /* \"#utility.yul\":5243:5250   */\n      dup9\n        /* \"#utility.yul\":5234:5240   */\n      dup3\n        /* \"#utility.yul\":5223:5232   */\n      dup10\n        /* \"#utility.yul\":5219:5241   */\n      add\n        /* \"#utility.yul\":5190:5251   */\n      tag_104\n      jump\t// in\n    tag_178:\n        /* \"#utility.yul\":5180:5251   */\n      swap2\n      pop\n        /* \"#utility.yul\":5134:5261   */\n      pop\n        /* \"#utility.yul\":4161:5268   */\n      swap3\n      swap6\n      pop\n      swap3\n      swap6\n      swap1\n      swap4\n      pop\n      jump\t// out\n        /* \"#utility.yul\":5274:5603   */\n    tag_22:\n        /* \"#utility.yul\":5333:5339   */\n      0x00\n        /* \"#utility.yul\":5382:5384   */\n      0x20\n        /* \"#utility.yul\":5370:5379   */\n      dup3\n        /* \"#utility.yul\":5361:5368   */\n      dup5\n        /* \"#utility.yul\":5357:5380   */\n      sub\n        /* \"#utility.yul\":5353:5385   */\n      slt\n        /* \"#utility.yul\":5350:5469   */\n      iszero\n      tag_180\n      jumpi\n        /* \"#utility.yul\":5388:5467   */\n      tag_181\n      tag_83\n      jump\t// in\n    tag_181:\n        /* \"#utility.yul\":5350:5469   */\n    tag_180:\n        /* \"#utility.yul\":5508:5509   */\n      0x00\n        /* \"#utility.yul\":5533:5586   */\n      tag_182\n        /* \"#utility.yul\":5578:5585   */\n      dup5\n        /* \"#utility.yul\":5569:5575   */\n      dup3\n        /* \"#utility.yul\":5558:5567   */\n      dup6\n        /* \"#utility.yul\":5554:5576   */\n      add\n        /* \"#utility.yul\":5533:5586   */\n      tag_91\n      jump\t// in\n    tag_182:\n        /* \"#utility.yul\":5523:5586   */\n      swap2\n      pop\n        /* \"#utility.yul\":5479:5596   */\n      pop\n        /* \"#utility.yul\":5274:5603   */\n      swap3\n      swap2\n      pop\n      pop\n      jump\t// out\n        /* \"#utility.yul\":5609:5727   */\n    tag_105:\n        /* \"#utility.yul\":5696:5720   */\n      tag_184\n        /* \"#utility.yul\":5714:5719   */\n      dup2\n        /* \"#utility.yul\":5696:5720   */\n      tag_89\n      jump\t// in\n    tag_184:\n        /* \"#utility.yul\":5691:5694   */\n      dup3\n        /* \"#utility.yul\":5684:5721   */\n      mstore\n        /* \"#utility.yul\":5609:5727   */\n      pop\n      pop\n      jump\t// out\n        /* \"#utility.yul\":5733:5832   */\n    tag_106:\n        /* \"#utility.yul\":5785:5791   */\n      0x00\n        /* \"#utility.yul\":5819:5824   */\n      dup2\n        /* \"#utility.yul\":5813:5825   */\n      mload\n        /* \"#utility.yul\":5803:5825   */\n      swap1\n      pop\n        /* \"#utility.yul\":5733:5832   */\n      swap2\n      swap1\n      pop\n      jump\t// out\n        /* \"#utility.yul\":5838:6007   */\n    tag_107:\n        /* \"#utility.yul\":5922:5933   */\n      0x00\n        /* \"#utility.yul\":5956:5962   */\n      dup3\n        /* \"#utility.yul\":5951:5954   */\n      dup3\n        /* \"#utility.yul\":5944:5963   */\n      mstore\n        /* \"#utility.yul\":5996:6000   */\n      0x20\n        /* \"#utility.yul\":5991:5994   */\n      dup3\n        /* \"#utility.yul\":5987:6001   */\n      add\n        /* \"#utility.yul\":5972:6001   */\n      swap1\n      pop\n        /* \"#utility.yul\":5838:6007   */\n      swap3\n      swap2\n      pop\n      pop\n      jump\t// out\n        /* \"#utility.yul\":6013:6320   */\n    tag_108:\n        /* \"#utility.yul\":6081:6082   */\n      0x00\n        /* \"#utility.yul\":6091:6204   */\n    tag_188:\n        /* \"#utility.yul\":6105:6111   */\n      dup4\n        /* \"#utility.yul\":6102:6103   */\n      dup2\n        /* \"#utility.yul\":6099:6112   */\n      lt\n        /* \"#utility.yul\":6091:6204   */\n      iszero\n      tag_190\n      jumpi\n        /* \"#utility.yul\":6190:6191   */\n      dup1\n        /* \"#utility.yul\":6185:6188   */\n      dup3\n        /* \"#utility.yul\":6181:6192   */\n      add\n        /* \"#utility.yul\":6175:6193   */\n      mload\n        /* \"#utility.yul\":6171:6172   */\n      dup2\n        /* \"#utility.yul\":6166:6169   */\n      dup5\n        /* \"#utility.yul\":6162:6173   */\n      add\n        /* \"#utility.yul\":6155:6194   */\n      mstore\n        /* \"#utility.yul\":6127:6129   */\n      0x20\n        /* \"#utility.yul\":6124:6125   */\n      dup2\n        /* \"#utility.yul\":6120:6130   */\n      add\n        /* \"#utility.yul\":6115:6130   */\n      swap1\n      pop\n        /* \"#utility.yul\":6091:6204   */\n      jump(tag_188)\n    tag_190:\n        /* \"#utility.yul\":6222:6228   */\n      dup4\n        /* \"#utility.yul\":6219:6220   */\n      dup2\n        /* \"#utility.yul\":6216:6229   */\n      gt\n        /* \"#utility.yul\":6213:6314   */\n      iszero\n      tag_191\n      jumpi\n        /* \"#utility.yul\":6302:6303   */\n      0x00\n        /* \"#utility.yul\":6293:6299   */\n      dup5\n        /* \"#utility.yul\":6288:6291   */\n      dup5\n        /* \"#utility.yul\":6284:6300   */\n      add\n        /* \"#utility.yul\":6277:6304   */\n      mstore\n        /* \"#utility.yul\":6213:6314   */\n    tag_191:\n        /* \"#utility.yul\":6062:6320   */\n      pop\n        /* \"#utility.yul\":6013:6320   */\n      pop\n      pop\n      pop\n      jump\t// out\n        /* \"#utility.yul\":6326:6690   */\n    tag_109:\n        /* \"#utility.yul\":6414:6417   */\n      0x00\n        /* \"#utility.yul\":6442:6481   */\n      tag_193\n        /* \"#utility.yul\":6475:6480   */\n      dup3\n        /* \"#utility.yul\":6442:6481   */\n      tag_106\n      jump\t// in\n    tag_193:\n        /* \"#utility.yul\":6497:6568   */\n      tag_194\n        /* \"#utility.yul\":6561:6567   */\n      dup2\n        /* \"#utility.yul\":6556:6559   */\n      dup6\n        /* \"#utility.yul\":6497:6568   */\n      tag_107\n      jump\t// in\n    tag_194:\n        /* \"#utility.yul\":6490:6568   */\n      swap4\n      pop\n        /* \"#utility.yul\":6577:6629   */\n      tag_195\n        /* \"#utility.yul\":6622:6628   */\n      dup2\n        /* \"#utility.yul\":6617:6620   */\n      dup6\n        /* \"#utility.yul\":6610:6614   */\n      0x20\n        /* \"#utility.yul\":6603:6608   */\n      dup7\n        /* \"#utility.yul\":6599:6615   */\n      add\n        /* \"#utility.yul\":6577:6629   */\n      tag_108\n      jump\t// in\n    tag_195:\n        /* \"#utility.yul\":6654:6683   */\n      tag_196\n        /* \"#utility.yul\":6676:6682   */\n      dup2\n        /* \"#utility.yul\":6654:6683   */\n      tag_94\n      jump\t// in\n    tag_196:\n        /* \"#utility.yul\":6649:6652   */\n      dup5\n        /* \"#utility.yul\":6645:6684   */\n      add\n        /* \"#utility.yul\":6638:6684   */\n      swap2\n      pop\n        /* \"#utility.yul\":6418:6690   */\n      pop\n        /* \"#utility.yul\":6326:6690   */\n      swap3\n      swap2\n      pop\n      pop\n      jump\t// out\n        /* \"#utility.yul\":6696:6838   */\n    tag_110:\n        /* \"#utility.yul\":6799:6831   */\n      tag_198\n        /* \"#utility.yul\":6825:6830   */\n      dup2\n        /* \"#utility.yul\":6799:6831   */\n      tag_102\n      jump\t// in\n    tag_198:\n        /* \"#utility.yul\":6794:6797   */\n      dup3\n        /* \"#utility.yul\":6787:6832   */\n      mstore\n        /* \"#utility.yul\":6696:6838   */\n      pop\n      pop\n      jump\t// out\n        /* \"#utility.yul\":6844:7631   */\n    tag_25:\n        /* \"#utility.yul\":7085:7089   */\n      0x00\n        /* \"#utility.yul\":7123:7126   */\n      0xa0\n        /* \"#utility.yul\":7112:7121   */\n      dup3\n        /* \"#utility.yul\":7108:7127   */\n      add\n        /* \"#utility.yul\":7100:7127   */\n      swap1\n      pop\n        /* \"#utility.yul\":7137:7208   */\n      tag_200\n        /* \"#utility.yul\":7205:7206   */\n      0x00\n        /* \"#utility.yul\":7194:7203   */\n      dup4\n        /* \"#utility.yul\":7190:7207   */\n      add\n        /* \"#utility.yul\":7181:7187   */\n      dup9\n        /* \"#utility.yul\":7137:7208   */\n      tag_105\n      jump\t// in\n    tag_200:\n        /* \"#utility.yul\":7255:7264   */\n      dup2\n        /* \"#utility.yul\":7249:7253   */\n      dup2\n        /* \"#utility.yul\":7245:7265   */\n      sub\n        /* \"#utility.yul\":7240:7242   */\n      0x20\n        /* \"#utility.yul\":7229:7238   */\n      dup4\n        /* \"#utility.yul\":7225:7243   */\n      add\n        /* \"#utility.yul\":7218:7266   */\n      mstore\n        /* \"#utility.yul\":7283:7361   */\n      tag_201\n        /* \"#utility.yul\":7356:7360   */\n      dup2\n        /* \"#utility.yul\":7347:7353   */\n      dup8\n        /* \"#utility.yul\":7283:7361   */\n      tag_109\n      jump\t// in\n    tag_201:\n        /* \"#utility.yul\":7275:7361   */\n      swap1\n      pop\n        /* \"#utility.yul\":7371:7443   */\n      tag_202\n        /* \"#utility.yul\":7439:7441   */\n      0x40\n        /* \"#utility.yul\":7428:7437   */\n      dup4\n        /* \"#utility.yul\":7424:7442   */\n      add\n        /* \"#utility.yul\":7415:7421   */\n      dup7\n        /* \"#utility.yul\":7371:7443   */\n      tag_105\n      jump\t// in\n    tag_202:\n        /* \"#utility.yul\":7453:7525   */\n      tag_203\n        /* \"#utility.yul\":7521:7523   */\n      0x60\n        /* \"#utility.yul\":7510:7519   */\n      dup4\n        /* \"#utility.yul\":7506:7524   */\n      add\n        /* \"#utility.yul\":7497:7503   */\n      dup6\n        /* \"#utility.yul\":7453:7525   */\n      tag_105\n      jump\t// in\n    tag_203:\n        /* \"#utility.yul\":7535:7624   */\n      tag_204\n        /* \"#utility.yul\":7619:7622   */\n      0x80\n        /* \"#utility.yul\":7608:7617   */\n      dup4\n        /* \"#utility.yul\":7604:7623   */\n      add\n        /* \"#utility.yul\":7595:7601   */\n      dup5\n        /* \"#utility.yul\":7535:7624   */\n      tag_110\n      jump\t// in\n    tag_204:\n        /* \"#utility.yul\":6844:7631   */\n      swap7\n      swap6\n      pop\n      pop\n      pop\n      pop\n      pop\n      pop\n      jump\t// out\n        /* \"#utility.yul\":7637:7859   */\n    tag_30:\n        /* \"#utility.yul\":7730:7734   */\n      0x00\n        /* \"#utility.yul\":7768:7770   */\n      0x20\n        /* \"#utility.yul\":7757:7766   */\n      dup3\n        /* \"#utility.yul\":7753:7771   */\n      add\n        /* \"#utility.yul\":7745:7771   */\n      swap1\n      pop\n        /* \"#utility.yul\":7781:7852   */\n      tag_206\n        /* \"#utility.yul\":7849:7850   */\n      0x00\n        /* \"#utility.yul\":7838:7847   */\n      dup4\n        /* \"#utility.yul\":7834:7851   */\n      add\n        /* \"#utility.yul\":7825:7831   */\n      dup5\n        /* \"#utility.yul\":7781:7852   */\n      tag_105\n      jump\t// in\n    tag_206:\n        /* \"#utility.yul\":7637:7859   */\n      swap3\n      swap2\n      pop\n      pop\n      jump\t// out\n        /* \"#utility.yul\":7865:7983   */\n    tag_111:\n        /* \"#utility.yul\":7952:7976   */\n      tag_208\n        /* \"#utility.yul\":7970:7975   */\n      dup2\n        /* \"#utility.yul\":7952:7976   */\n      tag_86\n      jump\t// in\n    tag_208:\n        /* \"#utility.yul\":7947:7950   */\n      dup3\n        /* \"#utility.yul\":7940:7977   */\n      mstore\n        /* \"#utility.yul\":7865:7983   */\n      pop\n      pop\n      jump\t// out\n        /* \"#utility.yul\":7989:8211   */\n    tag_35:\n        /* \"#utility.yul\":8082:8086   */\n      0x00\n        /* \"#utility.yul\":8120:8122   */\n      0x20\n        /* \"#utility.yul\":8109:8118   */\n      dup3\n        /* \"#utility.yul\":8105:8123   */\n      add\n        /* \"#utility.yul\":8097:8123   */\n      swap1\n      pop\n        /* \"#utility.yul\":8133:8204   */\n      tag_210\n        /* \"#utility.yul\":8201:8202   */\n      0x00\n        /* \"#utility.yul\":8190:8199   */\n      dup4\n        /* \"#utility.yul\":8186:8203   */\n      add\n        /* \"#utility.yul\":8177:8183   */\n      dup5\n        /* \"#utility.yul\":8133:8204   */\n      tag_111\n      jump\t// in\n    tag_210:\n        /* \"#utility.yul\":7989:8211   */\n      swap3\n      swap2\n      pop\n      pop\n      jump\t// out\n        /* \"#utility.yul\":8217:8397   */\n    tag_112:\n        /* \"#utility.yul\":8265:8342   */\n      0x4e487b7100000000000000000000000000000000000000000000000000000000\n        /* \"#utility.yul\":8262:8263   */\n      0x00\n        /* \"#utility.yul\":8255:8343   */\n      mstore\n        /* \"#utility.yul\":8362:8366   */\n      0x11\n        /* \"#utility.yul\":8359:8360   */\n      0x04\n        /* \"#utility.yul\":8352:8367   */\n      mstore\n        /* \"#utility.yul\":8386:8390   */\n      0x24\n        /* \"#utility.yul\":8383:8384   */\n      0x00\n        /* \"#utility.yul\":8376:8391   */\n      revert\n        /* \"#utility.yul\":8403:8708   */\n    tag_48:\n        /* \"#utility.yul\":8443:8446   */\n      0x00\n        /* \"#utility.yul\":8462:8482   */\n      tag_213\n        /* \"#utility.yul\":8480:8481   */\n      dup3\n        /* \"#utility.yul\":8462:8482   */\n      tag_89\n      jump\t// in\n    tag_213:\n        /* \"#utility.yul\":8457:8482   */\n      swap2\n      pop\n        /* \"#utility.yul\":8496:8516   */\n      tag_214\n        /* \"#utility.yul\":8514:8515   */\n      dup4\n        /* \"#utility.yul\":8496:8516   */\n      tag_89\n      jump\t// in\n    tag_214:\n        /* \"#utility.yul\":8491:8516   */\n      swap3\n      pop\n        /* \"#utility.yul\":8650:8651   */\n      dup3\n        /* \"#utility.yul\":8582:8648   */\n      0xffffffffffffffffffffffffffffffffffffffffffffffffffffffffffffffff\n        /* \"#utility.yul\":8578:8652   */\n      sub\n        /* \"#utility.yul\":8575:8576   */\n      dup3\n        /* \"#utility.yul\":8572:8653   */\n      gt\n        /* \"#utility.yul\":8569:8676   */\n      iszero\n      tag_215\n      jumpi\n        /* \"#utility.yul\":8656:8674   */\n      tag_216\n      tag_112\n      jump\t// in\n    tag_216:\n        /* \"#utility.yul\":8569:8676   */\n    tag_215:\n        /* \"#utility.yul\":8700:8701   */\n      dup3\n        /* \"#utility.yul\":8697:8698   */\n      dup3\n        /* \"#utility.yul\":8693:8702   */\n      add\n        /* \"#utility.yul\":8686:8702   */\n      swap1\n      pop\n        /* \"#utility.yul\":8403:8708   */\n      swap3\n      swap2\n      pop\n      pop\n      jump\t// out\n        /* \"#utility.yul\":8714:8894   */\n    tag_113:\n        /* \"#utility.yul\":8762:8839   */\n      0x4e487b7100000000000000000000000000000000000000000000000000000000\n        /* \"#utility.yul\":8759:8760   */\n      0x00\n        /* \"#utility.yul\":8752:8840   */\n      mstore\n        /* \"#utility.yul\":8859:8863   */\n      0x22\n        /* \"#utility.yul\":8856:8857   */\n      0x04\n        /* \"#utility.yul\":8849:8864   */\n      mstore\n        /* \"#utility.yul\":8883:8887   */\n      0x24\n        /* \"#utility.yul\":8880:8881   */\n      0x00\n        /* \"#utility.yul\":8873:8888   */\n      revert\n        /* \"#utility.yul\":8900:9220   */\n    tag_60:\n        /* \"#utility.yul\":8944:8950   */\n      0x00\n        /* \"#utility.yul\":8981:8982   */\n      0x02\n        /* \"#utility.yul\":8975:8979   */\n      dup3\n        /* \"#utility.yul\":8971:8983   */\n      div\n        /* \"#utility.yul\":8961:8983   */\n      swap1\n      pop\n        /* \"#utility.yul\":9028:9029   */\n      0x01\n        /* \"#utility.yul\":9022:9026   */\n      dup3\n        /* \"#utility.yul\":9018:9030   */\n      and\n        /* \"#utility.yul\":9049:9067   */\n      dup1\n        /* \"#utility.yul\":9039:9120   */\n      tag_219\n      jumpi\n        /* \"#utility.yul\":9105:9109   */\n      0x7f\n        /* \"#utility.yul\":9097:9103   */\n      dup3\n        /* \"#utility.yul\":9093:9110   */\n      and\n        /* \"#utility.yul\":9083:9110   */\n      swap2\n      pop\n        /* \"#utility.yul\":9039:9120   */\n    tag_219:\n        /* \"#utility.yul\":9167:9169   */\n      0x20\n        /* \"#utility.yul\":9159:9165   */\n      dup3\n        /* \"#utility.yul\":9156:9170   */\n      lt\n        /* \"#utility.yul\":9136:9154   */\n      dup2\n        /* \"#utility.yul\":9133:9171   */\n      sub\n        /* \"#utility.yul\":9130:9214   */\n      tag_220\n      jumpi\n        /* \"#utility.yul\":9186:9204   */\n      tag_221\n      tag_113\n      jump\t// in\n    tag_221:\n        /* \"#utility.yul\":9130:9214   */\n    tag_220:\n        /* \"#utility.yul\":8951:9220   */\n      pop\n        /* \"#utility.yul\":8900:9220   */\n      swap2\n      swap1\n      pop\n      jump\t// out\n\n    auxdata: 0xa264697066735822122011351ade97226ec335419675108e6d7faa088972973c8cdf318678c2b33c3d9464736f6c634300080d0033\n}\n",
				"bytecode": {
					"linkReferences": {},
					"object": "608060405263624124b1600155600060025534801561001d57600080fd5b50336000806101000a81548173ffffffffffffffffffffffffffffffffffffffff021916908373ffffffffffffffffffffffffffffffffffffffff160217905550610c6c8061006d6000396000f3fe6080604052600436106100705760003560e01c8063267c68e01161004e578063267c68e0146100fb5780638da5cb5b146101265780639e7a13ad14610151578063fc7e286d1461019257610070565b8063152c33631461007557806318d875df14610091578063246982c4146100ba575b600080fd5b61008f600480360381019061008a9190610761565b6101cf565b005b34801561009d57600080fd5b506100b860048036038101906100b39190610948565b610266565b005b3480156100c657600080fd5b506100e160048036038101906100dc91906109df565b6103b3565b6040516100f2959493929190610ab2565b60405180910390f35b34801561010757600080fd5b50610110610510565b60405161011d9190610b0c565b60405180910390f35b34801561013257600080fd5b5061013b610516565b6040516101489190610b36565b60405180910390f35b34801561015d57600080fd5b50610178600480360381019061017391906109df565b61053a565b604051610189959493929190610ab2565b60405180910390f35b34801561019e57600080fd5b506101b960048036038101906101b49190610761565b610618565b6040516101c69190610b0c565b60405180910390f35b600034905080600460008473ffffffffffffffffffffffffffffffffffffffff1673ffffffffffffffffffffffffffffffffffffffff1681526020019081526020016000205461021f9190610b80565b600460008473ffffffffffffffffffffffffffffffffffffffff1673ffffffffffffffffffffffffffffffffffffffff168152602001908152602001600020819055505050565b60008054906101000a900473ffffffffffffffffffffffffffffffffffffffff1673ffffffffffffffffffffffffffffffffffffffff163373ffffffffffffffffffffffffffffffffffffffff16146102be57600080fd5b6001544210156102cd57600080fd5b6102d5610630565b6040518060a001604052808681526020018581526020018481526020018381526020018273ffffffffffffffffffffffffffffffffffffffff1681525060036000600254815260200190815260200160002060008201518160000155602082015181600101908051906020019061034d92919061064c565b50604082015181600201556060820151816003015560808201518160040160006101000a81548173ffffffffffffffffffffffffffffffffffffffff021916908373ffffffffffffffffffffffffffffffffffffffff1602179055509050505050505050565b60006060600080600080600360008881526020019081526020016000206040518060a0016040529081600082015481526020016001820180546103f590610c05565b80601f016020809104026020016040519081016040528092919081815260200182805461042190610c05565b801561046e5780601f106104435761010080835404028352916020019161046e565b820191906000526020600020905b81548152906001019060200180831161045157829003601f168201915b5050505050815260200160028201548152602001600382015481526020016004820160009054906101000a900473ffffffffffffffffffffffffffffffffffffffff1673ffffffffffffffffffffffffffffffffffffffff1673ffffffffffffffffffffffffffffffffffffffff1681525050905080600001518160200151826040015183606001518460800151955095509550955095505091939590929450565b60025481565b60008054906101000a900473ffffffffffffffffffffffffffffffffffffffff1681565b600360205280600052604060002060009150905080600001549080600101805461056390610c05565b80601f016020809104026020016040519081016040528092919081815260200182805461058f90610c05565b80156105dc5780601f106105b1576101008083540402835291602001916105dc565b820191906000526020600020905b8154815290600101906020018083116105bf57829003601f168201915b5050505050908060020154908060030154908060040160009054906101000a900473ffffffffffffffffffffffffffffffffffffffff16905085565b60046020528060005260406000206000915090505481565b6001600260008282546106439190610b80565b92505081905550565b82805461065890610c05565b90600052602060002090601f01602090048101928261067a57600085556106c1565b82601f1061069357805160ff19168380011785556106c1565b828001600101855582156106c1579182015b828111156106c05782518255916020019190600101906106a5565b5b5090506106ce91906106d2565b5090565b5b808211156106eb5760008160009055506001016106d3565b5090565b6000604051905090565b600080fd5b600080fd5b600073ffffffffffffffffffffffffffffffffffffffff82169050919050565b600061072e82610703565b9050919050565b61073e81610723565b811461074957600080fd5b50565b60008135905061075b81610735565b92915050565b600060208284031215610777576107766106f9565b5b60006107858482850161074c565b91505092915050565b6000819050919050565b6107a18161078e565b81146107ac57600080fd5b50565b6000813590506107be81610798565b92915050565b600080fd5b600080fd5b6000601f19601f8301169050919050565b7f4e487b7100000000000000000000000000000000000000000000000000000000600052604160045260246000fd5b610817826107ce565b810181811067ffffffffffffffff82111715610836576108356107df565b5b80604052505050565b60006108496106ef565b9050610855828261080e565b919050565b600067ffffffffffffffff821115610875576108746107df565b5b61087e826107ce565b9050602081019050919050565b82818337600083830152505050565b60006108ad6108a88461085a565b61083f565b9050828152602081018484840111156108c9576108c86107c9565b5b6108d484828561088b565b509392505050565b600082601f8301126108f1576108f06107c4565b5b813561090184826020860161089a565b91505092915050565b600061091582610703565b9050919050565b6109258161090a565b811461093057600080fd5b50565b6000813590506109428161091c565b92915050565b600080600080600060a08688031215610964576109636106f9565b5b6000610972888289016107af565b955050602086013567ffffffffffffffff811115610993576109926106fe565b5b61099f888289016108dc565b94505060406109b0888289016107af565b93505060606109c1888289016107af565b92505060806109d288828901610933565b9150509295509295909350565b6000602082840312156109f5576109f46106f9565b5b6000610a03848285016107af565b91505092915050565b610a158161078e565b82525050565b600081519050919050565b600082825260208201905092915050565b60005b83811015610a55578082015181840152602081019050610a3a565b83811115610a64576000848401525b50505050565b6000610a7582610a1b565b610a7f8185610a26565b9350610a8f818560208601610a37565b610a98816107ce565b840191505092915050565b610aac8161090a565b82525050565b600060a082019050610ac76000830188610a0c565b8181036020830152610ad98187610a6a565b9050610ae86040830186610a0c565b610af56060830185610a0c565b610b026080830184610aa3565b9695505050505050565b6000602082019050610b216000830184610a0c565b92915050565b610b3081610723565b82525050565b6000602082019050610b4b6000830184610b27565b92915050565b7f4e487b7100000000000000000000000000000000000000000000000000000000600052601160045260246000fd5b6000610b8b8261078e565b9150610b968361078e565b9250827fffffffffffffffffffffffffffffffffffffffffffffffffffffffffffffffff03821115610bcb57610bca610b51565b5b828201905092915050565b7f4e487b7100000000000000000000000000000000000000000000000000000000600052602260045260246000fd5b60006002820490506001821680610c1d57607f821691505b602082108103610c3057610c2f610bd6565b5b5091905056fea264697066735822122011351ade97226ec335419675108e6d7faa088972973c8cdf318678c2b33c3d9464736f6c634300080d0033",
					"opcodes": "PUSH1 0x80 PUSH1 0x40 MSTORE PUSH4 0x624124B1 PUSH1 0x1 SSTORE PUSH1 0x0 PUSH1 0x2 SSTORE CALLVALUE DUP1 ISZERO PUSH2 0x1D JUMPI PUSH1 0x0 DUP1 REVERT JUMPDEST POP CALLER PUSH1 0x0 DUP1 PUSH2 0x100 EXP DUP2 SLOAD DUP2 PUSH20 0xFFFFFFFFFFFFFFFFFFFFFFFFFFFFFFFFFFFFFFFF MUL NOT AND SWAP1 DUP4 PUSH20 0xFFFFFFFFFFFFFFFFFFFFFFFFFFFFFFFFFFFFFFFF AND MUL OR SWAP1 SSTORE POP PUSH2 0xC6C DUP1 PUSH2 0x6D PUSH1 0x0 CODECOPY PUSH1 0x0 RETURN INVALID PUSH1 0x80 PUSH1 0x40 MSTORE PUSH1 0x4 CALLDATASIZE LT PUSH2 0x70 JUMPI PUSH1 0x0 CALLDATALOAD PUSH1 0xE0 SHR DUP1 PUSH4 0x267C68E0 GT PUSH2 0x4E JUMPI DUP1 PUSH4 0x267C68E0 EQ PUSH2 0xFB JUMPI DUP1 PUSH4 0x8DA5CB5B EQ PUSH2 0x126 JUMPI DUP1 PUSH4 0x9E7A13AD EQ PUSH2 0x151 JUMPI DUP1 PUSH4 0xFC7E286D EQ PUSH2 0x192 JUMPI PUSH2 0x70 JUMP JUMPDEST DUP1 PUSH4 0x152C3363 EQ PUSH2 0x75 JUMPI DUP1 PUSH4 0x18D875DF EQ PUSH2 0x91 JUMPI DUP1 PUSH4 0x246982C4 EQ PUSH2 0xBA JUMPI JUMPDEST PUSH1 0x0 DUP1 REVERT JUMPDEST PUSH2 0x8F PUSH1 0x4 DUP1 CALLDATASIZE SUB DUP2 ADD SWAP1 PUSH2 0x8A SWAP2 SWAP1 PUSH2 0x761 JUMP JUMPDEST PUSH2 0x1CF JUMP JUMPDEST STOP JUMPDEST CALLVALUE DUP1 ISZERO PUSH2 0x9D JUMPI PUSH1 0x0 DUP1 REVERT JUMPDEST POP PUSH2 0xB8 PUSH1 0x4 DUP1 CALLDATASIZE SUB DUP2 ADD SWAP1 PUSH2 0xB3 SWAP2 SWAP1 PUSH2 0x948 JUMP JUMPDEST PUSH2 0x266 JUMP JUMPDEST STOP JUMPDEST CALLVALUE DUP1 ISZERO PUSH2 0xC6 JUMPI PUSH1 0x0 DUP1 REVERT JUMPDEST POP PUSH2 0xE1 PUSH1 0x4 DUP1 CALLDATASIZE SUB DUP2 ADD SWAP1 PUSH2 0xDC SWAP2 SWAP1 PUSH2 0x9DF JUMP JUMPDEST PUSH2 0x3B3 JUMP JUMPDEST PUSH1 0x40 MLOAD PUSH2 0xF2 SWAP6 SWAP5 SWAP4 SWAP3 SWAP2 SWAP1 PUSH2 0xAB2 JUMP JUMPDEST PUSH1 0x40 MLOAD DUP1 SWAP2 SUB SWAP1 RETURN JUMPDEST CALLVALUE DUP1 ISZERO PUSH2 0x107 JUMPI PUSH1 0x0 DUP1 REVERT JUMPDEST POP PUSH2 0x110 PUSH2 0x510 JUMP JUMPDEST PUSH1 0x40 MLOAD PUSH2 0x11D SWAP2 SWAP1 PUSH2 0xB0C JUMP JUMPDEST PUSH1 0x40 MLOAD DUP1 SWAP2 SUB SWAP1 RETURN JUMPDEST CALLVALUE DUP1 ISZERO PUSH2 0x132 JUMPI PUSH1 0x0 DUP1 REVERT JUMPDEST POP PUSH2 0x13B PUSH2 0x516 JUMP JUMPDEST PUSH1 0x40 MLOAD PUSH2 0x148 SWAP2 SWAP1 PUSH2 0xB36 JUMP JUMPDEST PUSH1 0x40 MLOAD DUP1 SWAP2 SUB SWAP1 RETURN JUMPDEST CALLVALUE DUP1 ISZERO PUSH2 0x15D JUMPI PUSH1 0x0 DUP1 REVERT JUMPDEST POP PUSH2 0x178 PUSH1 0x4 DUP1 CALLDATASIZE SUB DUP2 ADD SWAP1 PUSH2 0x173 SWAP2 SWAP1 PUSH2 0x9DF JUMP JUMPDEST PUSH2 0x53A JUMP JUMPDEST PUSH1 0x40 MLOAD PUSH2 0x189 SWAP6 SWAP5 SWAP4 SWAP3 SWAP2 SWAP1 PUSH2 0xAB2 JUMP JUMPDEST PUSH1 0x40 MLOAD DUP1 SWAP2 SUB SWAP1 RETURN JUMPDEST CALLVALUE DUP1 ISZERO PUSH2 0x19E JUMPI PUSH1 0x0 DUP1 REVERT JUMPDEST POP PUSH2 0x1B9 PUSH1 0x4 DUP1 CALLDATASIZE SUB DUP2 ADD SWAP1 PUSH2 0x1B4 SWAP2 SWAP1 PUSH2 0x761 JUMP JUMPDEST PUSH2 0x618 JUMP JUMPDEST PUSH1 0x40 MLOAD PUSH2 0x1C6 SWAP2 SWAP1 PUSH2 0xB0C JUMP JUMPDEST PUSH1 0x40 MLOAD DUP1 SWAP2 SUB SWAP1 RETURN JUMPDEST PUSH1 0x0 CALLVALUE SWAP1 POP DUP1 PUSH1 0x4 PUSH1 0x0 DUP5 PUSH20 0xFFFFFFFFFFFFFFFFFFFFFFFFFFFFFFFFFFFFFFFF AND PUSH20 0xFFFFFFFFFFFFFFFFFFFFFFFFFFFFFFFFFFFFFFFF AND DUP2 MSTORE PUSH1 0x20 ADD SWAP1 DUP2 MSTORE PUSH1 0x20 ADD PUSH1 0x0 KECCAK256 SLOAD PUSH2 0x21F SWAP2 SWAP1 PUSH2 0xB80 JUMP JUMPDEST PUSH1 0x4 PUSH1 0x0 DUP5 PUSH20 0xFFFFFFFFFFFFFFFFFFFFFFFFFFFFFFFFFFFFFFFF AND PUSH20 0xFFFFFFFFFFFFFFFFFFFFFFFFFFFFFFFFFFFFFFFF AND DUP2 MSTORE PUSH1 0x20 ADD SWAP1 DUP2 MSTORE PUSH1 0x20 ADD PUSH1 0x0 KECCAK256 DUP2 SWAP1 SSTORE POP POP POP JUMP JUMPDEST PUSH1 0x0 DUP1 SLOAD SWAP1 PUSH2 0x100 EXP SWAP1 DIV PUSH20 0xFFFFFFFFFFFFFFFFFFFFFFFFFFFFFFFFFFFFFFFF AND PUSH20 0xFFFFFFFFFFFFFFFFFFFFFFFFFFFFFFFFFFFFFFFF AND CALLER PUSH20 0xFFFFFFFFFFFFFFFFFFFFFFFFFFFFFFFFFFFFFFFF AND EQ PUSH2 0x2BE JUMPI PUSH1 0x0 DUP1 REVERT JUMPDEST PUSH1 0x1 SLOAD TIMESTAMP LT ISZERO PUSH2 0x2CD JUMPI PUSH1 0x0 DUP1 REVERT JUMPDEST PUSH2 0x2D5 PUSH2 0x630 JUMP JUMPDEST PUSH1 0x40 MLOAD DUP1 PUSH1 0xA0 ADD PUSH1 0x40 MSTORE DUP1 DUP7 DUP2 MSTORE PUSH1 0x20 ADD DUP6 DUP2 MSTORE PUSH1 0x20 ADD DUP5 DUP2 MSTORE PUSH1 0x20 ADD DUP4 DUP2 MSTORE PUSH1 0x20 ADD DUP3 PUSH20 0xFFFFFFFFFFFFFFFFFFFFFFFFFFFFFFFFFFFFFFFF AND DUP2 MSTORE POP PUSH1 0x3 PUSH1 0x0 PUSH1 0x2 SLOAD DUP2 MSTORE PUSH1 0x20 ADD SWAP1 DUP2 MSTORE PUSH1 0x20 ADD PUSH1 0x0 KECCAK256 PUSH1 0x0 DUP3 ADD MLOAD DUP2 PUSH1 0x0 ADD SSTORE PUSH1 0x20 DUP3 ADD MLOAD DUP2 PUSH1 0x1 ADD SWAP1 DUP1 MLOAD SWAP1 PUSH1 0x20 ADD SWAP1 PUSH2 0x34D SWAP3 SWAP2 SWAP1 PUSH2 0x64C JUMP JUMPDEST POP PUSH1 0x40 DUP3 ADD MLOAD DUP2 PUSH1 0x2 ADD SSTORE PUSH1 0x60 DUP3 ADD MLOAD DUP2 PUSH1 0x3 ADD SSTORE PUSH1 0x80 DUP3 ADD MLOAD DUP2 PUSH1 0x4 ADD PUSH1 0x0 PUSH2 0x100 EXP DUP2 SLOAD DUP2 PUSH20 0xFFFFFFFFFFFFFFFFFFFFFFFFFFFFFFFFFFFFFFFF MUL NOT AND SWAP1 DUP4 PUSH20 0xFFFFFFFFFFFFFFFFFFFFFFFFFFFFFFFFFFFFFFFF AND MUL OR SWAP1 SSTORE POP SWAP1 POP POP POP POP POP POP POP JUMP JUMPDEST PUSH1 0x0 PUSH1 0x60 PUSH1 0x0 DUP1 PUSH1 0x0 DUP1 PUSH1 0x3 PUSH1 0x0 DUP9 DUP2 MSTORE PUSH1 0x20 ADD SWAP1 DUP2 MSTORE PUSH1 0x20 ADD PUSH1 0x0 KECCAK256 PUSH1 0x40 MLOAD DUP1 PUSH1 0xA0 ADD PUSH1 0x40 MSTORE SWAP1 DUP2 PUSH1 0x0 DUP3 ADD SLOAD DUP2 MSTORE PUSH1 0x20 ADD PUSH1 0x1 DUP3 ADD DUP1 SLOAD PUSH2 0x3F5 SWAP1 PUSH2 0xC05 JUMP JUMPDEST DUP1 PUSH1 0x1F ADD PUSH1 0x20 DUP1 SWAP2 DIV MUL PUSH1 0x20 ADD PUSH1 0x40 MLOAD SWAP1 DUP2 ADD PUSH1 0x40 MSTORE DUP1 SWAP3 SWAP2 SWAP1 DUP2 DUP2 MSTORE PUSH1 0x20 ADD DUP3 DUP1 SLOAD PUSH2 0x421 SWAP1 PUSH2 0xC05 JUMP JUMPDEST DUP1 ISZERO PUSH2 0x46E JUMPI DUP1 PUSH1 0x1F LT PUSH2 0x443 JUMPI PUSH2 0x100 DUP1 DUP4 SLOAD DIV MUL DUP4 MSTORE SWAP2 PUSH1 0x20 ADD SWAP2 PUSH2 0x46E JUMP JUMPDEST DUP3 ADD SWAP2 SWAP1 PUSH1 0x0 MSTORE PUSH1 0x20 PUSH1 0x0 KECCAK256 SWAP1 JUMPDEST DUP2 SLOAD DUP2 MSTORE SWAP1 PUSH1 0x1 ADD SWAP1 PUSH1 0x20 ADD DUP1 DUP4 GT PUSH2 0x451 JUMPI DUP3 SWAP1 SUB PUSH1 0x1F AND DUP3 ADD SWAP2 JUMPDEST POP POP POP POP POP DUP2 MSTORE PUSH1 0x20 ADD PUSH1 0x2 DUP3 ADD SLOAD DUP2 MSTORE PUSH1 0x20 ADD PUSH1 0x3 DUP3 ADD SLOAD DUP2 MSTORE PUSH1 0x20 ADD PUSH1 0x4 DUP3 ADD PUSH1 0x0 SWAP1 SLOAD SWAP1 PUSH2 0x100 EXP SWAP1 DIV PUSH20 0xFFFFFFFFFFFFFFFFFFFFFFFFFFFFFFFFFFFFFFFF AND PUSH20 0xFFFFFFFFFFFFFFFFFFFFFFFFFFFFFFFFFFFFFFFF AND PUSH20 0xFFFFFFFFFFFFFFFFFFFFFFFFFFFFFFFFFFFFFFFF AND DUP2 MSTORE POP POP SWAP1 POP DUP1 PUSH1 0x0 ADD MLOAD DUP2 PUSH1 0x20 ADD MLOAD DUP3 PUSH1 0x40 ADD MLOAD DUP4 PUSH1 0x60 ADD MLOAD DUP5 PUSH1 0x80 ADD MLOAD SWAP6 POP SWAP6 POP SWAP6 POP SWAP6 POP SWAP6 POP POP SWAP2 SWAP4 SWAP6 SWAP1 SWAP3 SWAP5 POP JUMP JUMPDEST PUSH1 0x2 SLOAD DUP2 JUMP JUMPDEST PUSH1 0x0 DUP1 SLOAD SWAP1 PUSH2 0x100 EXP SWAP1 DIV PUSH20 0xFFFFFFFFFFFFFFFFFFFFFFFFFFFFFFFFFFFFFFFF AND DUP2 JUMP JUMPDEST PUSH1 0x3 PUSH1 0x20 MSTORE DUP1 PUSH1 0x0 MSTORE PUSH1 0x40 PUSH1 0x0 KECCAK256 PUSH1 0x0 SWAP2 POP SWAP1 POP DUP1 PUSH1 0x0 ADD SLOAD SWAP1 DUP1 PUSH1 0x1 ADD DUP1 SLOAD PUSH2 0x563 SWAP1 PUSH2 0xC05 JUMP JUMPDEST DUP1 PUSH1 0x1F ADD PUSH1 0x20 DUP1 SWAP2 DIV MUL PUSH1 0x20 ADD PUSH1 0x40 MLOAD SWAP1 DUP2 ADD PUSH1 0x40 MSTORE DUP1 SWAP3 SWAP2 SWAP1 DUP2 DUP2 MSTORE PUSH1 0x20 ADD DUP3 DUP1 SLOAD PUSH2 0x58F SWAP1 PUSH2 0xC05 JUMP JUMPDEST DUP1 ISZERO PUSH2 0x5DC JUMPI DUP1 PUSH1 0x1F LT PUSH2 0x5B1 JUMPI PUSH2 0x100 DUP1 DUP4 SLOAD DIV MUL DUP4 MSTORE SWAP2 PUSH1 0x20 ADD SWAP2 PUSH2 0x5DC JUMP JUMPDEST DUP3 ADD SWAP2 SWAP1 PUSH1 0x0 MSTORE PUSH1 0x20 PUSH1 0x0 KECCAK256 SWAP1 JUMPDEST DUP2 SLOAD DUP2 MSTORE SWAP1 PUSH1 0x1 ADD SWAP1 PUSH1 0x20 ADD DUP1 DUP4 GT PUSH2 0x5BF JUMPI DUP3 SWAP1 SUB PUSH1 0x1F AND DUP3 ADD SWAP2 JUMPDEST POP POP POP POP POP SWAP1 DUP1 PUSH1 0x2 ADD SLOAD SWAP1 DUP1 PUSH1 0x3 ADD SLOAD SWAP1 DUP1 PUSH1 0x4 ADD PUSH1 0x0 SWAP1 SLOAD SWAP1 PUSH2 0x100 EXP SWAP1 DIV PUSH20 0xFFFFFFFFFFFFFFFFFFFFFFFFFFFFFFFFFFFFFFFF AND SWAP1 POP DUP6 JUMP JUMPDEST PUSH1 0x4 PUSH1 0x20 MSTORE DUP1 PUSH1 0x0 MSTORE PUSH1 0x40 PUSH1 0x0 KECCAK256 PUSH1 0x0 SWAP2 POP SWAP1 POP SLOAD DUP2 JUMP JUMPDEST PUSH1 0x1 PUSH1 0x2 PUSH1 0x0 DUP3 DUP3 SLOAD PUSH2 0x643 SWAP2 SWAP1 PUSH2 0xB80 JUMP JUMPDEST SWAP3 POP POP DUP2 SWAP1 SSTORE POP JUMP JUMPDEST DUP3 DUP1 SLOAD PUSH2 0x658 SWAP1 PUSH2 0xC05 JUMP JUMPDEST SWAP1 PUSH1 0x0 MSTORE PUSH1 0x20 PUSH1 0x0 KECCAK256 SWAP1 PUSH1 0x1F ADD PUSH1 0x20 SWAP1 DIV DUP2 ADD SWAP3 DUP3 PUSH2 0x67A JUMPI PUSH1 0x0 DUP6 SSTORE PUSH2 0x6C1 JUMP JUMPDEST DUP3 PUSH1 0x1F LT PUSH2 0x693 JUMPI DUP1 MLOAD PUSH1 0xFF NOT AND DUP4 DUP1 ADD OR DUP6 SSTORE PUSH2 0x6C1 JUMP JUMPDEST DUP3 DUP1 ADD PUSH1 0x1 ADD DUP6 SSTORE DUP3 ISZERO PUSH2 0x6C1 JUMPI SWAP2 DUP3 ADD JUMPDEST DUP3 DUP2 GT ISZERO PUSH2 0x6C0 JUMPI DUP3 MLOAD DUP3 SSTORE SWAP2 PUSH1 0x20 ADD SWAP2 SWAP1 PUSH1 0x1 ADD SWAP1 PUSH2 0x6A5 JUMP JUMPDEST JUMPDEST POP SWAP1 POP PUSH2 0x6CE SWAP2 SWAP1 PUSH2 0x6D2 JUMP JUMPDEST POP SWAP1 JUMP JUMPDEST JUMPDEST DUP1 DUP3 GT ISZERO PUSH2 0x6EB JUMPI PUSH1 0x0 DUP2 PUSH1 0x0 SWAP1 SSTORE POP PUSH1 0x1 ADD PUSH2 0x6D3 JUMP JUMPDEST POP SWAP1 JUMP JUMPDEST PUSH1 0x0 PUSH1 0x40 MLOAD SWAP1 POP SWAP1 JUMP JUMPDEST PUSH1 0x0 DUP1 REVERT JUMPDEST PUSH1 0x0 DUP1 REVERT JUMPDEST PUSH1 0x0 PUSH20 0xFFFFFFFFFFFFFFFFFFFFFFFFFFFFFFFFFFFFFFFF DUP3 AND SWAP1 POP SWAP2 SWAP1 POP JUMP JUMPDEST PUSH1 0x0 PUSH2 0x72E DUP3 PUSH2 0x703 JUMP JUMPDEST SWAP1 POP SWAP2 SWAP1 POP JUMP JUMPDEST PUSH2 0x73E DUP2 PUSH2 0x723 JUMP JUMPDEST DUP2 EQ PUSH2 0x749 JUMPI PUSH1 0x0 DUP1 REVERT JUMPDEST POP JUMP JUMPDEST PUSH1 0x0 DUP2 CALLDATALOAD SWAP1 POP PUSH2 0x75B DUP2 PUSH2 0x735 JUMP JUMPDEST SWAP3 SWAP2 POP POP JUMP JUMPDEST PUSH1 0x0 PUSH1 0x20 DUP3 DUP5 SUB SLT ISZERO PUSH2 0x777 JUMPI PUSH2 0x776 PUSH2 0x6F9 JUMP JUMPDEST JUMPDEST PUSH1 0x0 PUSH2 0x785 DUP5 DUP3 DUP6 ADD PUSH2 0x74C JUMP JUMPDEST SWAP2 POP POP SWAP3 SWAP2 POP POP JUMP JUMPDEST PUSH1 0x0 DUP2 SWAP1 POP SWAP2 SWAP1 POP JUMP JUMPDEST PUSH2 0x7A1 DUP2 PUSH2 0x78E JUMP JUMPDEST DUP2 EQ PUSH2 0x7AC JUMPI PUSH1 0x0 DUP1 REVERT JUMPDEST POP JUMP JUMPDEST PUSH1 0x0 DUP2 CALLDATALOAD SWAP1 POP PUSH2 0x7BE DUP2 PUSH2 0x798 JUMP JUMPDEST SWAP3 SWAP2 POP POP JUMP JUMPDEST PUSH1 0x0 DUP1 REVERT JUMPDEST PUSH1 0x0 DUP1 REVERT JUMPDEST PUSH1 0x0 PUSH1 0x1F NOT PUSH1 0x1F DUP4 ADD AND SWAP1 POP SWAP2 SWAP1 POP JUMP JUMPDEST PUSH32 0x4E487B7100000000000000000000000000000000000000000000000000000000 PUSH1 0x0 MSTORE PUSH1 0x41 PUSH1 0x4 MSTORE PUSH1 0x24 PUSH1 0x0 REVERT JUMPDEST PUSH2 0x817 DUP3 PUSH2 0x7CE JUMP JUMPDEST DUP2 ADD DUP2 DUP2 LT PUSH8 0xFFFFFFFFFFFFFFFF DUP3 GT OR ISZERO PUSH2 0x836 JUMPI PUSH2 0x835 PUSH2 0x7DF JUMP JUMPDEST JUMPDEST DUP1 PUSH1 0x40 MSTORE POP POP POP JUMP JUMPDEST PUSH1 0x0 PUSH2 0x849 PUSH2 0x6EF JUMP JUMPDEST SWAP1 POP PUSH2 0x855 DUP3 DUP3 PUSH2 0x80E JUMP JUMPDEST SWAP2 SWAP1 POP JUMP JUMPDEST PUSH1 0x0 PUSH8 0xFFFFFFFFFFFFFFFF DUP3 GT ISZERO PUSH2 0x875 JUMPI PUSH2 0x874 PUSH2 0x7DF JUMP JUMPDEST JUMPDEST PUSH2 0x87E DUP3 PUSH2 0x7CE JUMP JUMPDEST SWAP1 POP PUSH1 0x20 DUP2 ADD SWAP1 POP SWAP2 SWAP1 POP JUMP JUMPDEST DUP3 DUP2 DUP4 CALLDATACOPY PUSH1 0x0 DUP4 DUP4 ADD MSTORE POP POP POP JUMP JUMPDEST PUSH1 0x0 PUSH2 0x8AD PUSH2 0x8A8 DUP5 PUSH2 0x85A JUMP JUMPDEST PUSH2 0x83F JUMP JUMPDEST SWAP1 POP DUP3 DUP2 MSTORE PUSH1 0x20 DUP2 ADD DUP5 DUP5 DUP5 ADD GT ISZERO PUSH2 0x8C9 JUMPI PUSH2 0x8C8 PUSH2 0x7C9 JUMP JUMPDEST JUMPDEST PUSH2 0x8D4 DUP5 DUP3 DUP6 PUSH2 0x88B JUMP JUMPDEST POP SWAP4 SWAP3 POP POP POP JUMP JUMPDEST PUSH1 0x0 DUP3 PUSH1 0x1F DUP4 ADD SLT PUSH2 0x8F1 JUMPI PUSH2 0x8F0 PUSH2 0x7C4 JUMP JUMPDEST JUMPDEST DUP2 CALLDATALOAD PUSH2 0x901 DUP5 DUP3 PUSH1 0x20 DUP7 ADD PUSH2 0x89A JUMP JUMPDEST SWAP2 POP POP SWAP3 SWAP2 POP POP JUMP JUMPDEST PUSH1 0x0 PUSH2 0x915 DUP3 PUSH2 0x703 JUMP JUMPDEST SWAP1 POP SWAP2 SWAP1 POP JUMP JUMPDEST PUSH2 0x925 DUP2 PUSH2 0x90A JUMP JUMPDEST DUP2 EQ PUSH2 0x930 JUMPI PUSH1 0x0 DUP1 REVERT JUMPDEST POP JUMP JUMPDEST PUSH1 0x0 DUP2 CALLDATALOAD SWAP1 POP PUSH2 0x942 DUP2 PUSH2 0x91C JUMP JUMPDEST SWAP3 SWAP2 POP POP JUMP JUMPDEST PUSH1 0x0 DUP1 PUSH1 0x0 DUP1 PUSH1 0x0 PUSH1 0xA0 DUP7 DUP9 SUB SLT ISZERO PUSH2 0x964 JUMPI PUSH2 0x963 PUSH2 0x6F9 JUMP JUMPDEST JUMPDEST PUSH1 0x0 PUSH2 0x972 DUP9 DUP3 DUP10 ADD PUSH2 0x7AF JUMP JUMPDEST SWAP6 POP POP PUSH1 0x20 DUP7 ADD CALLDATALOAD PUSH8 0xFFFFFFFFFFFFFFFF DUP2 GT ISZERO PUSH2 0x993 JUMPI PUSH2 0x992 PUSH2 0x6FE JUMP JUMPDEST JUMPDEST PUSH2 0x99F DUP9 DUP3 DUP10 ADD PUSH2 0x8DC JUMP JUMPDEST SWAP5 POP POP PUSH1 0x40 PUSH2 0x9B0 DUP9 DUP3 DUP10 ADD PUSH2 0x7AF JUMP JUMPDEST SWAP4 POP POP PUSH1 0x60 PUSH2 0x9C1 DUP9 DUP3 DUP10 ADD PUSH2 0x7AF JUMP JUMPDEST SWAP3 POP POP PUSH1 0x80 PUSH2 0x9D2 DUP9 DUP3 DUP10 ADD PUSH2 0x933 JUMP JUMPDEST SWAP2 POP POP SWAP3 SWAP6 POP SWAP3 SWAP6 SWAP1 SWAP4 POP JUMP JUMPDEST PUSH1 0x0 PUSH1 0x20 DUP3 DUP5 SUB SLT ISZERO PUSH2 0x9F5 JUMPI PUSH2 0x9F4 PUSH2 0x6F9 JUMP JUMPDEST JUMPDEST PUSH1 0x0 PUSH2 0xA03 DUP5 DUP3 DUP6 ADD PUSH2 0x7AF JUMP JUMPDEST SWAP2 POP POP SWAP3 SWAP2 POP POP JUMP JUMPDEST PUSH2 0xA15 DUP2 PUSH2 0x78E JUMP JUMPDEST DUP3 MSTORE POP POP JUMP JUMPDEST PUSH1 0x0 DUP2 MLOAD SWAP1 POP SWAP2 SWAP1 POP JUMP JUMPDEST PUSH1 0x0 DUP3 DUP3 MSTORE PUSH1 0x20 DUP3 ADD SWAP1 POP SWAP3 SWAP2 POP POP JUMP JUMPDEST PUSH1 0x0 JUMPDEST DUP4 DUP2 LT ISZERO PUSH2 0xA55 JUMPI DUP1 DUP3 ADD MLOAD DUP2 DUP5 ADD MSTORE PUSH1 0x20 DUP2 ADD SWAP1 POP PUSH2 0xA3A JUMP JUMPDEST DUP4 DUP2 GT ISZERO PUSH2 0xA64 JUMPI PUSH1 0x0 DUP5 DUP5 ADD MSTORE JUMPDEST POP POP POP POP JUMP JUMPDEST PUSH1 0x0 PUSH2 0xA75 DUP3 PUSH2 0xA1B JUMP JUMPDEST PUSH2 0xA7F DUP2 DUP6 PUSH2 0xA26 JUMP JUMPDEST SWAP4 POP PUSH2 0xA8F DUP2 DUP6 PUSH1 0x20 DUP7 ADD PUSH2 0xA37 JUMP JUMPDEST PUSH2 0xA98 DUP2 PUSH2 0x7CE JUMP JUMPDEST DUP5 ADD SWAP2 POP POP SWAP3 SWAP2 POP POP JUMP JUMPDEST PUSH2 0xAAC DUP2 PUSH2 0x90A JUMP JUMPDEST DUP3 MSTORE POP POP JUMP JUMPDEST PUSH1 0x0 PUSH1 0xA0 DUP3 ADD SWAP1 POP PUSH2 0xAC7 PUSH1 0x0 DUP4 ADD DUP9 PUSH2 0xA0C JUMP JUMPDEST DUP2 DUP2 SUB PUSH1 0x20 DUP4 ADD MSTORE PUSH2 0xAD9 DUP2 DUP8 PUSH2 0xA6A JUMP JUMPDEST SWAP1 POP PUSH2 0xAE8 PUSH1 0x40 DUP4 ADD DUP7 PUSH2 0xA0C JUMP JUMPDEST PUSH2 0xAF5 PUSH1 0x60 DUP4 ADD DUP6 PUSH2 0xA0C JUMP JUMPDEST PUSH2 0xB02 PUSH1 0x80 DUP4 ADD DUP5 PUSH2 0xAA3 JUMP JUMPDEST SWAP7 SWAP6 POP POP POP POP POP POP JUMP JUMPDEST PUSH1 0x0 PUSH1 0x20 DUP3 ADD SWAP1 POP PUSH2 0xB21 PUSH1 0x0 DUP4 ADD DUP5 PUSH2 0xA0C JUMP JUMPDEST SWAP3 SWAP2 POP POP JUMP JUMPDEST PUSH2 0xB30 DUP2 PUSH2 0x723 JUMP JUMPDEST DUP3 MSTORE POP POP JUMP JUMPDEST PUSH1 0x0 PUSH1 0x20 DUP3 ADD SWAP1 POP PUSH2 0xB4B PUSH1 0x0 DUP4 ADD DUP5 PUSH2 0xB27 JUMP JUMPDEST SWAP3 SWAP2 POP POP JUMP JUMPDEST PUSH32 0x4E487B7100000000000000000000000000000000000000000000000000000000 PUSH1 0x0 MSTORE PUSH1 0x11 PUSH1 0x4 MSTORE PUSH1 0x24 PUSH1 0x0 REVERT JUMPDEST PUSH1 0x0 PUSH2 0xB8B DUP3 PUSH2 0x78E JUMP JUMPDEST SWAP2 POP PUSH2 0xB96 DUP4 PUSH2 0x78E JUMP JUMPDEST SWAP3 POP DUP3 PUSH32 0xFFFFFFFFFFFFFFFFFFFFFFFFFFFFFFFFFFFFFFFFFFFFFFFFFFFFFFFFFFFFFFFF SUB DUP3 GT ISZERO PUSH2 0xBCB JUMPI PUSH2 0xBCA PUSH2 0xB51 JUMP JUMPDEST JUMPDEST DUP3 DUP3 ADD SWAP1 POP SWAP3 SWAP2 POP POP JUMP JUMPDEST PUSH32 0x4E487B7100000000000000000000000000000000000000000000000000000000 PUSH1 0x0 MSTORE PUSH1 0x22 PUSH1 0x4 MSTORE PUSH1 0x24 PUSH1 0x0 REVERT JUMPDEST PUSH1 0x0 PUSH1 0x2 DUP3 DIV SWAP1 POP PUSH1 0x1 DUP3 AND DUP1 PUSH2 0xC1D JUMPI PUSH1 0x7F DUP3 AND SWAP2 POP JUMPDEST PUSH1 0x20 DUP3 LT DUP2 SUB PUSH2 0xC30 JUMPI PUSH2 0xC2F PUSH2 0xBD6 JUMP JUMPDEST JUMPDEST POP SWAP2 SWAP1 POP JUMP INVALID LOG2 PUSH5 0x6970667358 0x22 SLT KECCAK256 GT CALLDATALOAD BYTE 0xDE SWAP8 0x22 PUSH15 0xC335419675108E6D7FAA088972973C DUP13 0xDF BALANCE DUP7 PUSH25 0xC2B33C3D9464736F6C634300080D0033000000000000000000 "
				},
				"gasEstimates": {
					"creation": {
						"codeDepositCost": "636000",
						"executionCost": "52048",
						"totalCost": "688048"
					},
					"external": {
						"addPerson(uint256,string,uint256,uint256,address)": "infinite",
						"depositBet(address)": "infinite",
						"deposits(address)": "2880",
						"getPerson(uint256)": "infinite",
						"owner()": "2533",
						"people(uint256)": "infinite",
						"peopleCount()": "2429"
					},
					"internal": {
						"incrementCount()": "infinite"
					}
				},
				"methodIdentifiers": {
					"addPerson(uint256,string,uint256,uint256,address)": "18d875df",
					"depositBet(address)": "152c3363",
					"deposits(address)": "fc7e286d",
					"getPerson(uint256)": "246982c4",
					"owner()": "8da5cb5b",
					"people(uint256)": "9e7a13ad",
					"peopleCount()": "267c68e0"
				}
			},
			"userdoc": {
				"kind": "user",
				"methods": {},
				"version": 1
			}
		}
	}
}