{
	"ETH-Remix/HungerGames/HungerGames.sol": {
		"HungerGames": {
			"abi": [
				{
					"inputs": [
						{
							"internalType": "uint256",
							"name": "_id",
							"type": "uint256"
						},
						{
							"internalType": "uint256",
							"name": "_age",
							"type": "uint256"
						},
						{
							"internalType": "string",
							"name": "_name",
							"type": "string"
						},
						{
							"internalType": "uint256",
							"name": "_weight",
							"type": "uint256"
						},
						{
							"internalType": "uint256",
							"name": "_month",
							"type": "uint256"
						},
						{
							"internalType": "uint256",
							"name": "_investedmoney",
							"type": "uint256"
						}
					],
					"name": "addPerson",
					"outputs": [],
					"stateMutability": "nonpayable",
					"type": "function"
				},
				{
					"inputs": [
						{
							"internalType": "int256",
							"name": "number",
							"type": "int256"
						}
					],
					"name": "count",
					"outputs": [
						{
							"internalType": "int256",
							"name": "",
							"type": "int256"
						}
					],
					"stateMutability": "pure",
					"type": "function"
				},
				{
					"inputs": [
						{
							"internalType": "uint256",
							"name": "_index",
							"type": "uint256"
						}
					],
					"name": "getPerson",
					"outputs": [
						{
							"internalType": "uint256",
							"name": "",
							"type": "uint256"
						},
						{
							"internalType": "uint256",
							"name": "",
							"type": "uint256"
						},
						{
							"internalType": "string",
							"name": "",
							"type": "string"
						},
						{
							"internalType": "uint256",
							"name": "",
							"type": "uint256"
						},
						{
							"internalType": "uint256",
							"name": "",
							"type": "uint256"
						},
						{
							"internalType": "uint256",
							"name": "",
							"type": "uint256"
						}
					],
					"stateMutability": "view",
					"type": "function"
				},
				{
					"inputs": [
						{
							"internalType": "uint256",
							"name": "",
							"type": "uint256"
						}
					],
					"name": "people",
					"outputs": [
						{
							"internalType": "uint256",
							"name": "_id",
							"type": "uint256"
						},
						{
							"internalType": "uint256",
							"name": "_age",
							"type": "uint256"
						},
						{
							"internalType": "string",
							"name": "_name",
							"type": "string"
						},
						{
							"internalType": "uint256",
							"name": "_weight",
							"type": "uint256"
						},
						{
							"internalType": "uint256",
							"name": "_month",
							"type": "uint256"
						},
						{
							"internalType": "uint256",
							"name": "_investedmoney",
							"type": "uint256"
						}
					],
					"stateMutability": "view",
					"type": "function"
				},
				{
					"inputs": [],
					"name": "peopleCount",
					"outputs": [
						{
							"internalType": "uint256",
							"name": "",
							"type": "uint256"
						}
					],
					"stateMutability": "view",
					"type": "function"
				}
			],
			"devdoc": {
				"kind": "dev",
				"methods": {},
				"version": 1
			},
			"evm": {
				"assembly": "    /* \"ETH-Remix/HungerGames/HungerGames.sol\":66:1365  contract HungerGames {... */\n  mstore(0x40, 0x80)\n    /* \"ETH-Remix/HungerGames/HungerGames.sol\":146:147  0 */\n  0x00\n    /* \"ETH-Remix/HungerGames/HungerGames.sol\":117:147  uint256 public peopleCount = 0 */\n  dup1\n  sstore\n    /* \"ETH-Remix/HungerGames/HungerGames.sol\":66:1365  contract HungerGames {... */\n  callvalue\n  dup1\n  iszero\n  tag_1\n  jumpi\n  0x00\n  dup1\n  revert\ntag_1:\n  pop\n  dataSize(sub_0)\n  dup1\n  dataOffset(sub_0)\n  0x00\n  codecopy\n  0x00\n  return\nstop\n\nsub_0: assembly {\n        /* \"ETH-Remix/HungerGames/HungerGames.sol\":66:1365  contract HungerGames {... */\n      mstore(0x40, 0x80)\n      callvalue\n      dup1\n      iszero\n      tag_1\n      jumpi\n      0x00\n      dup1\n      revert\n    tag_1:\n      pop\n      jumpi(tag_2, lt(calldatasize, 0x04))\n      shr(0xe0, calldataload(0x00))\n      dup1\n      0x0400c2e7\n      eq\n      tag_3\n      jumpi\n      dup1\n      0x246982c4\n      eq\n      tag_4\n      jumpi\n      dup1\n      0x267c68e0\n      eq\n      tag_5\n      jumpi\n      dup1\n      0x2d74e28a\n      eq\n      tag_6\n      jumpi\n      dup1\n      0x9e7a13ad\n      eq\n      tag_7\n      jumpi\n    tag_2:\n      0x00\n      dup1\n      revert\n        /* \"ETH-Remix/HungerGames/HungerGames.sol\":1208:1358  function count (int number) public pure returns(int){... */\n    tag_3:\n      tag_8\n      0x04\n      dup1\n      calldatasize\n      sub\n      dup2\n      add\n      swap1\n      tag_9\n      swap2\n      swap1\n      tag_10\n      jump\t// in\n    tag_9:\n      tag_11\n      jump\t// in\n    tag_8:\n      mload(0x40)\n      tag_12\n      swap2\n      swap1\n      tag_13\n      jump\t// in\n    tag_12:\n      mload(0x40)\n      dup1\n      swap2\n      sub\n      swap1\n      return\n        /* \"ETH-Remix/HungerGames/HungerGames.sol\":857:1198  function getPerson(uint _index) public view returns (uint, uint, string memory, uint, uint, uint) {... */\n    tag_4:\n      tag_14\n      0x04\n      dup1\n      calldatasize\n      sub\n      dup2\n      add\n      swap1\n      tag_15\n      swap2\n      swap1\n      tag_16\n      jump\t// in\n    tag_15:\n      tag_17\n      jump\t// in\n    tag_14:\n      mload(0x40)\n      tag_18\n      swap7\n      swap6\n      swap5\n      swap4\n      swap3\n      swap2\n      swap1\n      tag_19\n      jump\t// in\n    tag_18:\n      mload(0x40)\n      dup1\n      swap2\n      sub\n      swap1\n      return\n        /* \"ETH-Remix/HungerGames/HungerGames.sol\":117:147  uint256 public peopleCount = 0 */\n    tag_5:\n      tag_20\n      tag_21\n      jump\t// in\n    tag_20:\n      mload(0x40)\n      tag_22\n      swap2\n      swap1\n      tag_23\n      jump\t// in\n    tag_22:\n      mload(0x40)\n      dup1\n      swap2\n      sub\n      swap1\n      return\n        /* \"ETH-Remix/HungerGames/HungerGames.sol\":523:771  function addPerson(uint _id, uint _age, string memory _name, uint _weight, uint _month, uint _investedmoney)... */\n    tag_6:\n      tag_24\n      0x04\n      dup1\n      calldatasize\n      sub\n      dup2\n      add\n      swap1\n      tag_25\n      swap2\n      swap1\n      tag_26\n      jump\t// in\n    tag_25:\n      tag_27\n      jump\t// in\n    tag_24:\n      stop\n        /* \"ETH-Remix/HungerGames/HungerGames.sol\":154:191  mapping(uint => Person) public people */\n    tag_7:\n      tag_28\n      0x04\n      dup1\n      calldatasize\n      sub\n      dup2\n      add\n      swap1\n      tag_29\n      swap2\n      swap1\n      tag_16\n      jump\t// in\n    tag_29:\n      tag_30\n      jump\t// in\n    tag_28:\n      mload(0x40)\n      tag_31\n      swap7\n      swap6\n      swap5\n      swap4\n      swap3\n      swap2\n      swap1\n      tag_19\n      jump\t// in\n    tag_31:\n      mload(0x40)\n      dup1\n      swap2\n      sub\n      swap1\n      return\n        /* \"ETH-Remix/HungerGames/HungerGames.sol\":1208:1358  function count (int number) public pure returns(int){... */\n    tag_11:\n        /* \"ETH-Remix/HungerGames/HungerGames.sol\":1256:1259  int */\n      0x00\n        /* \"ETH-Remix/HungerGames/HungerGames.sol\":1275:1280  int i */\n      dup1\n        /* \"ETH-Remix/HungerGames/HungerGames.sol\":1281:1282  0 */\n      0x00\n        /* \"ETH-Remix/HungerGames/HungerGames.sol\":1275:1282  int i=0 */\n      swap1\n      pop\n        /* \"ETH-Remix/HungerGames/HungerGames.sol\":1271:1327  for(int i=0;i<10;i++){... */\n    tag_33:\n        /* \"ETH-Remix/HungerGames/HungerGames.sol\":1285:1287  10 */\n      0x0a\n        /* \"ETH-Remix/HungerGames/HungerGames.sol\":1283:1284  i */\n      dup2\n        /* \"ETH-Remix/HungerGames/HungerGames.sol\":1283:1287  i<10 */\n      slt\n        /* \"ETH-Remix/HungerGames/HungerGames.sol\":1271:1327  for(int i=0;i<10;i++){... */\n      iszero\n      tag_34\n      jumpi\n        /* \"ETH-Remix/HungerGames/HungerGames.sol\":1307:1315  number++ */\n      dup3\n      dup1\n      tag_36\n      swap1\n      tag_37\n      jump\t// in\n    tag_36:\n      swap4\n      pop\n      pop\n        /* \"ETH-Remix/HungerGames/HungerGames.sol\":1288:1291  i++ */\n      dup1\n      dup1\n      tag_38\n      swap1\n      tag_37\n      jump\t// in\n    tag_38:\n      swap2\n      pop\n      pop\n        /* \"ETH-Remix/HungerGames/HungerGames.sol\":1271:1327  for(int i=0;i<10;i++){... */\n      jump(tag_33)\n    tag_34:\n      pop\n        /* \"ETH-Remix/HungerGames/HungerGames.sol\":1344:1350  number */\n      dup2\n        /* \"ETH-Remix/HungerGames/HungerGames.sol\":1337:1350  return number */\n      swap1\n      pop\n        /* \"ETH-Remix/HungerGames/HungerGames.sol\":1208:1358  function count (int number) public pure returns(int){... */\n      swap2\n      swap1\n      pop\n      jump\t// out\n        /* \"ETH-Remix/HungerGames/HungerGames.sol\":857:1198  function getPerson(uint _index) public view returns (uint, uint, string memory, uint, uint, uint) {... */\n    tag_17:\n        /* \"ETH-Remix/HungerGames/HungerGames.sol\":910:914  uint */\n      0x00\n        /* \"ETH-Remix/HungerGames/HungerGames.sol\":916:920  uint */\n      dup1\n        /* \"ETH-Remix/HungerGames/HungerGames.sol\":922:935  string memory */\n      0x60\n        /* \"ETH-Remix/HungerGames/HungerGames.sol\":937:941  uint */\n      0x00\n        /* \"ETH-Remix/HungerGames/HungerGames.sol\":943:947  uint */\n      dup1\n        /* \"ETH-Remix/HungerGames/HungerGames.sol\":949:953  uint */\n      0x00\n        /* \"ETH-Remix/HungerGames/HungerGames.sol\":966:994  Person memory personToReturn */\n      dup1\n        /* \"ETH-Remix/HungerGames/HungerGames.sol\":997:1003  people */\n      0x01\n        /* \"ETH-Remix/HungerGames/HungerGames.sol\":997:1011  people[_index] */\n      0x00\n        /* \"ETH-Remix/HungerGames/HungerGames.sol\":1004:1010  _index */\n      dup10\n        /* \"ETH-Remix/HungerGames/HungerGames.sol\":997:1011  people[_index] */\n      dup2\n      mstore\n      0x20\n      add\n      swap1\n      dup2\n      mstore\n      0x20\n      add\n      0x00\n      keccak256\n        /* \"ETH-Remix/HungerGames/HungerGames.sol\":966:1011  Person memory personToReturn = people[_index] */\n      mload(0x40)\n      dup1\n      0xc0\n      add\n      0x40\n      mstore\n      swap1\n      dup2\n      0x00\n      dup3\n      add\n      sload\n      dup2\n      mstore\n      0x20\n      add\n      0x01\n      dup3\n      add\n      sload\n      dup2\n      mstore\n      0x20\n      add\n      0x02\n      dup3\n      add\n      dup1\n      sload\n      tag_40\n      swap1\n      tag_41\n      jump\t// in\n    tag_40:\n      dup1\n      0x1f\n      add\n      0x20\n      dup1\n      swap2\n      div\n      mul\n      0x20\n      add\n      mload(0x40)\n      swap1\n      dup2\n      add\n      0x40\n      mstore\n      dup1\n      swap3\n      swap2\n      swap1\n      dup2\n      dup2\n      mstore\n      0x20\n      add\n      dup3\n      dup1\n      sload\n      tag_42\n      swap1\n      tag_41\n      jump\t// in\n    tag_42:\n      dup1\n      iszero\n      tag_43\n      jumpi\n      dup1\n      0x1f\n      lt\n      tag_44\n      jumpi\n      0x0100\n      dup1\n      dup4\n      sload\n      div\n      mul\n      dup4\n      mstore\n      swap2\n      0x20\n      add\n      swap2\n      jump(tag_43)\n    tag_44:\n      dup3\n      add\n      swap2\n      swap1\n      0x00\n      mstore\n      keccak256(0x00, 0x20)\n      swap1\n    tag_45:\n      dup2\n      sload\n      dup2\n      mstore\n      swap1\n      0x01\n      add\n      swap1\n      0x20\n      add\n      dup1\n      dup4\n      gt\n      tag_45\n      jumpi\n      dup3\n      swap1\n      sub\n      0x1f\n      and\n      dup3\n      add\n      swap2\n    tag_43:\n      pop\n      pop\n      pop\n      pop\n      pop\n      dup2\n      mstore\n      0x20\n      add\n      0x03\n      dup3\n      add\n      sload\n      dup2\n      mstore\n      0x20\n      add\n      0x04\n      dup3\n      add\n      sload\n      dup2\n      mstore\n      0x20\n      add\n      0x05\n      dup3\n      add\n      sload\n      dup2\n      mstore\n      pop\n      pop\n      swap1\n      pop\n        /* \"ETH-Remix/HungerGames/HungerGames.sol\":1030:1044  personToReturn */\n      dup1\n        /* \"ETH-Remix/HungerGames/HungerGames.sol\":1030:1048  personToReturn._id */\n      0x00\n      add\n      mload\n        /* \"ETH-Remix/HungerGames/HungerGames.sol\":1050:1064  personToReturn */\n      dup2\n        /* \"ETH-Remix/HungerGames/HungerGames.sol\":1050:1069  personToReturn._age */\n      0x20\n      add\n      mload\n        /* \"ETH-Remix/HungerGames/HungerGames.sol\":1071:1085  personToReturn */\n      dup3\n        /* \"ETH-Remix/HungerGames/HungerGames.sol\":1071:1091  personToReturn._name */\n      0x40\n      add\n      mload\n        /* \"ETH-Remix/HungerGames/HungerGames.sol\":1093:1107  personToReturn */\n      dup4\n        /* \"ETH-Remix/HungerGames/HungerGames.sol\":1093:1115  personToReturn._weight */\n      0x60\n      add\n      mload\n        /* \"ETH-Remix/HungerGames/HungerGames.sol\":1127:1141  personToReturn */\n      dup5\n        /* \"ETH-Remix/HungerGames/HungerGames.sol\":1127:1148  personToReturn._month */\n      0x80\n      add\n      mload\n        /* \"ETH-Remix/HungerGames/HungerGames.sol\":1150:1164  personToReturn */\n      dup6\n        /* \"ETH-Remix/HungerGames/HungerGames.sol\":1150:1179  personToReturn._investedmoney */\n      0xa0\n      add\n      mload\n        /* \"ETH-Remix/HungerGames/HungerGames.sol\":1022:1180  return (personToReturn._id, personToReturn._age, personToReturn._name, personToReturn._weight, ... */\n      swap7\n      pop\n      swap7\n      pop\n      swap7\n      pop\n      swap7\n      pop\n      swap7\n      pop\n      swap7\n      pop\n      pop\n        /* \"ETH-Remix/HungerGames/HungerGames.sol\":857:1198  function getPerson(uint _index) public view returns (uint, uint, string memory, uint, uint, uint) {... */\n      swap2\n      swap4\n      swap6\n      pop\n      swap2\n      swap4\n      swap6\n      jump\t// out\n        /* \"ETH-Remix/HungerGames/HungerGames.sol\":117:147  uint256 public peopleCount = 0 */\n    tag_21:\n      sload(0x00)\n      dup2\n      jump\t// out\n        /* \"ETH-Remix/HungerGames/HungerGames.sol\":523:771  function addPerson(uint _id, uint _age, string memory _name, uint _weight, uint _month, uint _investedmoney)... */\n    tag_27:\n        /* \"ETH-Remix/HungerGames/HungerGames.sol\":656:672  incrementCount() */\n      tag_47\n        /* \"ETH-Remix/HungerGames/HungerGames.sol\":656:670  incrementCount */\n      tag_48\n        /* \"ETH-Remix/HungerGames/HungerGames.sol\":656:672  incrementCount() */\n      jump\t// in\n    tag_47:\n        /* \"ETH-Remix/HungerGames/HungerGames.sol\":705:763  Person(_id , _age, _name, _weight, _month, _investedmoney) */\n      mload(0x40)\n      dup1\n      0xc0\n      add\n      0x40\n      mstore\n      dup1\n        /* \"ETH-Remix/HungerGames/HungerGames.sol\":712:715  _id */\n      dup8\n        /* \"ETH-Remix/HungerGames/HungerGames.sol\":705:763  Person(_id , _age, _name, _weight, _month, _investedmoney) */\n      dup2\n      mstore\n      0x20\n      add\n        /* \"ETH-Remix/HungerGames/HungerGames.sol\":718:722  _age */\n      dup7\n        /* \"ETH-Remix/HungerGames/HungerGames.sol\":705:763  Person(_id , _age, _name, _weight, _month, _investedmoney) */\n      dup2\n      mstore\n      0x20\n      add\n        /* \"ETH-Remix/HungerGames/HungerGames.sol\":724:729  _name */\n      dup6\n        /* \"ETH-Remix/HungerGames/HungerGames.sol\":705:763  Person(_id , _age, _name, _weight, _month, _investedmoney) */\n      dup2\n      mstore\n      0x20\n      add\n        /* \"ETH-Remix/HungerGames/HungerGames.sol\":731:738  _weight */\n      dup5\n        /* \"ETH-Remix/HungerGames/HungerGames.sol\":705:763  Person(_id , _age, _name, _weight, _month, _investedmoney) */\n      dup2\n      mstore\n      0x20\n      add\n        /* \"ETH-Remix/HungerGames/HungerGames.sol\":740:746  _month */\n      dup4\n        /* \"ETH-Remix/HungerGames/HungerGames.sol\":705:763  Person(_id , _age, _name, _weight, _month, _investedmoney) */\n      dup2\n      mstore\n      0x20\n      add\n        /* \"ETH-Remix/HungerGames/HungerGames.sol\":748:762  _investedmoney */\n      dup3\n        /* \"ETH-Remix/HungerGames/HungerGames.sol\":705:763  Person(_id , _age, _name, _weight, _month, _investedmoney) */\n      dup2\n      mstore\n      pop\n        /* \"ETH-Remix/HungerGames/HungerGames.sol\":683:689  people */\n      0x01\n        /* \"ETH-Remix/HungerGames/HungerGames.sol\":683:702  people[peopleCount] */\n      0x00\n        /* \"ETH-Remix/HungerGames/HungerGames.sol\":690:701  peopleCount */\n      dup1\n      sload\n        /* \"ETH-Remix/HungerGames/HungerGames.sol\":683:702  people[peopleCount] */\n      dup2\n      mstore\n      0x20\n      add\n      swap1\n      dup2\n      mstore\n      0x20\n      add\n      0x00\n      keccak256\n        /* \"ETH-Remix/HungerGames/HungerGames.sol\":683:763  people[peopleCount] = Person(_id , _age, _name, _weight, _month, _investedmoney) */\n      0x00\n      dup3\n      add\n      mload\n      dup2\n      0x00\n      add\n      sstore\n      0x20\n      dup3\n      add\n      mload\n      dup2\n      0x01\n      add\n      sstore\n      0x40\n      dup3\n      add\n      mload\n      dup2\n      0x02\n      add\n      swap1\n      dup1\n      mload\n      swap1\n      0x20\n      add\n      swap1\n      tag_49\n      swap3\n      swap2\n      swap1\n      tag_50\n      jump\t// in\n    tag_49:\n      pop\n      0x60\n      dup3\n      add\n      mload\n      dup2\n      0x03\n      add\n      sstore\n      0x80\n      dup3\n      add\n      mload\n      dup2\n      0x04\n      add\n      sstore\n      0xa0\n      dup3\n      add\n      mload\n      dup2\n      0x05\n      add\n      sstore\n      swap1\n      pop\n      pop\n        /* \"ETH-Remix/HungerGames/HungerGames.sol\":523:771  function addPerson(uint _id, uint _age, string memory _name, uint _weight, uint _month, uint _investedmoney)... */\n      pop\n      pop\n      pop\n      pop\n      pop\n      pop\n      jump\t// out\n        /* \"ETH-Remix/HungerGames/HungerGames.sol\":154:191  mapping(uint => Person) public people */\n    tag_30:\n      mstore(0x20, 0x01)\n      dup1\n      0x00\n      mstore\n      keccak256(0x00, 0x40)\n      0x00\n      swap2\n      pop\n      swap1\n      pop\n      dup1\n      0x00\n      add\n      sload\n      swap1\n      dup1\n      0x01\n      add\n      sload\n      swap1\n      dup1\n      0x02\n      add\n      dup1\n      sload\n      tag_51\n      swap1\n      tag_41\n      jump\t// in\n    tag_51:\n      dup1\n      0x1f\n      add\n      0x20\n      dup1\n      swap2\n      div\n      mul\n      0x20\n      add\n      mload(0x40)\n      swap1\n      dup2\n      add\n      0x40\n      mstore\n      dup1\n      swap3\n      swap2\n      swap1\n      dup2\n      dup2\n      mstore\n      0x20\n      add\n      dup3\n      dup1\n      sload\n      tag_52\n      swap1\n      tag_41\n      jump\t// in\n    tag_52:\n      dup1\n      iszero\n      tag_53\n      jumpi\n      dup1\n      0x1f\n      lt\n      tag_54\n      jumpi\n      0x0100\n      dup1\n      dup4\n      sload\n      div\n      mul\n      dup4\n      mstore\n      swap2\n      0x20\n      add\n      swap2\n      jump(tag_53)\n    tag_54:\n      dup3\n      add\n      swap2\n      swap1\n      0x00\n      mstore\n      keccak256(0x00, 0x20)\n      swap1\n    tag_55:\n      dup2\n      sload\n      dup2\n      mstore\n      swap1\n      0x01\n      add\n      swap1\n      0x20\n      add\n      dup1\n      dup4\n      gt\n      tag_55\n      jumpi\n      dup3\n      swap1\n      sub\n      0x1f\n      and\n      dup3\n      add\n      swap2\n    tag_53:\n      pop\n      pop\n      pop\n      pop\n      pop\n      swap1\n      dup1\n      0x03\n      add\n      sload\n      swap1\n      dup1\n      0x04\n      add\n      sload\n      swap1\n      dup1\n      0x05\n      add\n      sload\n      swap1\n      pop\n      dup7\n      jump\t// out\n        /* \"ETH-Remix/HungerGames/HungerGames.sol\":779:849  function incrementCount() internal {... */\n    tag_48:\n        /* \"ETH-Remix/HungerGames/HungerGames.sol\":840:841  1 */\n      0x01\n        /* \"ETH-Remix/HungerGames/HungerGames.sol\":825:836  peopleCount */\n      0x00\n      dup1\n        /* \"ETH-Remix/HungerGames/HungerGames.sol\":825:841  peopleCount += 1 */\n      dup3\n      dup3\n      sload\n      tag_57\n      swap2\n      swap1\n      tag_58\n      jump\t// in\n    tag_57:\n      swap3\n      pop\n      pop\n      dup2\n      swap1\n      sstore\n      pop\n        /* \"ETH-Remix/HungerGames/HungerGames.sol\":779:849  function incrementCount() internal {... */\n      jump\t// out\n    tag_50:\n      dup3\n      dup1\n      sload\n      tag_59\n      swap1\n      tag_41\n      jump\t// in\n    tag_59:\n      swap1\n      0x00\n      mstore\n      keccak256(0x00, 0x20)\n      swap1\n      0x1f\n      add\n      0x20\n      swap1\n      div\n      dup2\n      add\n      swap3\n      dup3\n      tag_61\n      jumpi\n      0x00\n      dup6\n      sstore\n      jump(tag_60)\n    tag_61:\n      dup3\n      0x1f\n      lt\n      tag_62\n      jumpi\n      dup1\n      mload\n      not(0xff)\n      and\n      dup4\n      dup1\n      add\n      or\n      dup6\n      sstore\n      jump(tag_60)\n    tag_62:\n      dup3\n      dup1\n      add\n      0x01\n      add\n      dup6\n      sstore\n      dup3\n      iszero\n      tag_60\n      jumpi\n      swap2\n      dup3\n      add\n    tag_63:\n      dup3\n      dup2\n      gt\n      iszero\n      tag_64\n      jumpi\n      dup3\n      mload\n      dup3\n      sstore\n      swap2\n      0x20\n      add\n      swap2\n      swap1\n      0x01\n      add\n      swap1\n      jump(tag_63)\n    tag_64:\n    tag_60:\n      pop\n      swap1\n      pop\n      tag_65\n      swap2\n      swap1\n      tag_66\n      jump\t// in\n    tag_65:\n      pop\n      swap1\n      jump\t// out\n    tag_66:\n    tag_67:\n      dup1\n      dup3\n      gt\n      iszero\n      tag_68\n      jumpi\n      0x00\n      dup2\n      0x00\n      swap1\n      sstore\n      pop\n      0x01\n      add\n      jump(tag_67)\n    tag_68:\n      pop\n      swap1\n      jump\t// out\n        /* \"#utility.yul\":7:82   */\n    tag_69:\n        /* \"#utility.yul\":40:46   */\n      0x00\n        /* \"#utility.yul\":73:75   */\n      0x40\n        /* \"#utility.yul\":67:76   */\n      mload\n        /* \"#utility.yul\":57:76   */\n      swap1\n      pop\n        /* \"#utility.yul\":7:82   */\n      swap1\n      jump\t// out\n        /* \"#utility.yul\":88:205   */\n    tag_70:\n        /* \"#utility.yul\":197:198   */\n      0x00\n        /* \"#utility.yul\":194:195   */\n      dup1\n        /* \"#utility.yul\":187:199   */\n      revert\n        /* \"#utility.yul\":211:328   */\n    tag_71:\n        /* \"#utility.yul\":320:321   */\n      0x00\n        /* \"#utility.yul\":317:318   */\n      dup1\n        /* \"#utility.yul\":310:322   */\n      revert\n        /* \"#utility.yul\":334:410   */\n    tag_72:\n        /* \"#utility.yul\":370:377   */\n      0x00\n        /* \"#utility.yul\":399:404   */\n      dup2\n        /* \"#utility.yul\":388:404   */\n      swap1\n      pop\n        /* \"#utility.yul\":334:410   */\n      swap2\n      swap1\n      pop\n      jump\t// out\n        /* \"#utility.yul\":416:536   */\n    tag_73:\n        /* \"#utility.yul\":488:511   */\n      tag_102\n        /* \"#utility.yul\":505:510   */\n      dup2\n        /* \"#utility.yul\":488:511   */\n      tag_72\n      jump\t// in\n    tag_102:\n        /* \"#utility.yul\":481:486   */\n      dup2\n        /* \"#utility.yul\":478:512   */\n      eq\n        /* \"#utility.yul\":468:530   */\n      tag_103\n      jumpi\n        /* \"#utility.yul\":526:527   */\n      0x00\n        /* \"#utility.yul\":523:524   */\n      dup1\n        /* \"#utility.yul\":516:528   */\n      revert\n        /* \"#utility.yul\":468:530   */\n    tag_103:\n        /* \"#utility.yul\":416:536   */\n      pop\n      jump\t// out\n        /* \"#utility.yul\":542:679   */\n    tag_74:\n        /* \"#utility.yul\":587:592   */\n      0x00\n        /* \"#utility.yul\":625:631   */\n      dup2\n        /* \"#utility.yul\":612:632   */\n      calldataload\n        /* \"#utility.yul\":603:632   */\n      swap1\n      pop\n        /* \"#utility.yul\":641:673   */\n      tag_105\n        /* \"#utility.yul\":667:672   */\n      dup2\n        /* \"#utility.yul\":641:673   */\n      tag_73\n      jump\t// in\n    tag_105:\n        /* \"#utility.yul\":542:679   */\n      swap3\n      swap2\n      pop\n      pop\n      jump\t// out\n        /* \"#utility.yul\":685:1012   */\n    tag_10:\n        /* \"#utility.yul\":743:749   */\n      0x00\n        /* \"#utility.yul\":792:794   */\n      0x20\n        /* \"#utility.yul\":780:789   */\n      dup3\n        /* \"#utility.yul\":771:778   */\n      dup5\n        /* \"#utility.yul\":767:790   */\n      sub\n        /* \"#utility.yul\":763:795   */\n      slt\n        /* \"#utility.yul\":760:879   */\n      iszero\n      tag_107\n      jumpi\n        /* \"#utility.yul\":798:877   */\n      tag_108\n      tag_70\n      jump\t// in\n    tag_108:\n        /* \"#utility.yul\":760:879   */\n    tag_107:\n        /* \"#utility.yul\":918:919   */\n      0x00\n        /* \"#utility.yul\":943:995   */\n      tag_109\n        /* \"#utility.yul\":987:994   */\n      dup5\n        /* \"#utility.yul\":978:984   */\n      dup3\n        /* \"#utility.yul\":967:976   */\n      dup6\n        /* \"#utility.yul\":963:985   */\n      add\n        /* \"#utility.yul\":943:995   */\n      tag_74\n      jump\t// in\n    tag_109:\n        /* \"#utility.yul\":933:995   */\n      swap2\n      pop\n        /* \"#utility.yul\":889:1005   */\n      pop\n        /* \"#utility.yul\":685:1012   */\n      swap3\n      swap2\n      pop\n      pop\n      jump\t// out\n        /* \"#utility.yul\":1018:1133   */\n    tag_75:\n        /* \"#utility.yul\":1103:1126   */\n      tag_111\n        /* \"#utility.yul\":1120:1125   */\n      dup2\n        /* \"#utility.yul\":1103:1126   */\n      tag_72\n      jump\t// in\n    tag_111:\n        /* \"#utility.yul\":1098:1101   */\n      dup3\n        /* \"#utility.yul\":1091:1127   */\n      mstore\n        /* \"#utility.yul\":1018:1133   */\n      pop\n      pop\n      jump\t// out\n        /* \"#utility.yul\":1139:1357   */\n    tag_13:\n        /* \"#utility.yul\":1230:1234   */\n      0x00\n        /* \"#utility.yul\":1268:1270   */\n      0x20\n        /* \"#utility.yul\":1257:1266   */\n      dup3\n        /* \"#utility.yul\":1253:1271   */\n      add\n        /* \"#utility.yul\":1245:1271   */\n      swap1\n      pop\n        /* \"#utility.yul\":1281:1350   */\n      tag_113\n        /* \"#utility.yul\":1347:1348   */\n      0x00\n        /* \"#utility.yul\":1336:1345   */\n      dup4\n        /* \"#utility.yul\":1332:1349   */\n      add\n        /* \"#utility.yul\":1323:1329   */\n      dup5\n        /* \"#utility.yul\":1281:1350   */\n      tag_75\n      jump\t// in\n    tag_113:\n        /* \"#utility.yul\":1139:1357   */\n      swap3\n      swap2\n      pop\n      pop\n      jump\t// out\n        /* \"#utility.yul\":1363:1440   */\n    tag_76:\n        /* \"#utility.yul\":1400:1407   */\n      0x00\n        /* \"#utility.yul\":1429:1434   */\n      dup2\n        /* \"#utility.yul\":1418:1434   */\n      swap1\n      pop\n        /* \"#utility.yul\":1363:1440   */\n      swap2\n      swap1\n      pop\n      jump\t// out\n        /* \"#utility.yul\":1446:1568   */\n    tag_77:\n        /* \"#utility.yul\":1519:1543   */\n      tag_116\n        /* \"#utility.yul\":1537:1542   */\n      dup2\n        /* \"#utility.yul\":1519:1543   */\n      tag_76\n      jump\t// in\n    tag_116:\n        /* \"#utility.yul\":1512:1517   */\n      dup2\n        /* \"#utility.yul\":1509:1544   */\n      eq\n        /* \"#utility.yul\":1499:1562   */\n      tag_117\n      jumpi\n        /* \"#utility.yul\":1558:1559   */\n      0x00\n        /* \"#utility.yul\":1555:1556   */\n      dup1\n        /* \"#utility.yul\":1548:1560   */\n      revert\n        /* \"#utility.yul\":1499:1562   */\n    tag_117:\n        /* \"#utility.yul\":1446:1568   */\n      pop\n      jump\t// out\n        /* \"#utility.yul\":1574:1713   */\n    tag_78:\n        /* \"#utility.yul\":1620:1625   */\n      0x00\n        /* \"#utility.yul\":1658:1664   */\n      dup2\n        /* \"#utility.yul\":1645:1665   */\n      calldataload\n        /* \"#utility.yul\":1636:1665   */\n      swap1\n      pop\n        /* \"#utility.yul\":1674:1707   */\n      tag_119\n        /* \"#utility.yul\":1701:1706   */\n      dup2\n        /* \"#utility.yul\":1674:1707   */\n      tag_77\n      jump\t// in\n    tag_119:\n        /* \"#utility.yul\":1574:1713   */\n      swap3\n      swap2\n      pop\n      pop\n      jump\t// out\n        /* \"#utility.yul\":1719:2048   */\n    tag_16:\n        /* \"#utility.yul\":1778:1784   */\n      0x00\n        /* \"#utility.yul\":1827:1829   */\n      0x20\n        /* \"#utility.yul\":1815:1824   */\n      dup3\n        /* \"#utility.yul\":1806:1813   */\n      dup5\n        /* \"#utility.yul\":1802:1825   */\n      sub\n        /* \"#utility.yul\":1798:1830   */\n      slt\n        /* \"#utility.yul\":1795:1914   */\n      iszero\n      tag_121\n      jumpi\n        /* \"#utility.yul\":1833:1912   */\n      tag_122\n      tag_70\n      jump\t// in\n    tag_122:\n        /* \"#utility.yul\":1795:1914   */\n    tag_121:\n        /* \"#utility.yul\":1953:1954   */\n      0x00\n        /* \"#utility.yul\":1978:2031   */\n      tag_123\n        /* \"#utility.yul\":2023:2030   */\n      dup5\n        /* \"#utility.yul\":2014:2020   */\n      dup3\n        /* \"#utility.yul\":2003:2012   */\n      dup6\n        /* \"#utility.yul\":1999:2021   */\n      add\n        /* \"#utility.yul\":1978:2031   */\n      tag_78\n      jump\t// in\n    tag_123:\n        /* \"#utility.yul\":1968:2031   */\n      swap2\n      pop\n        /* \"#utility.yul\":1924:2041   */\n      pop\n        /* \"#utility.yul\":1719:2048   */\n      swap3\n      swap2\n      pop\n      pop\n      jump\t// out\n        /* \"#utility.yul\":2054:2172   */\n    tag_79:\n        /* \"#utility.yul\":2141:2165   */\n      tag_125\n        /* \"#utility.yul\":2159:2164   */\n      dup2\n        /* \"#utility.yul\":2141:2165   */\n      tag_76\n      jump\t// in\n    tag_125:\n        /* \"#utility.yul\":2136:2139   */\n      dup3\n        /* \"#utility.yul\":2129:2166   */\n      mstore\n        /* \"#utility.yul\":2054:2172   */\n      pop\n      pop\n      jump\t// out\n        /* \"#utility.yul\":2178:2277   */\n    tag_80:\n        /* \"#utility.yul\":2230:2236   */\n      0x00\n        /* \"#utility.yul\":2264:2269   */\n      dup2\n        /* \"#utility.yul\":2258:2270   */\n      mload\n        /* \"#utility.yul\":2248:2270   */\n      swap1\n      pop\n        /* \"#utility.yul\":2178:2277   */\n      swap2\n      swap1\n      pop\n      jump\t// out\n        /* \"#utility.yul\":2283:2452   */\n    tag_81:\n        /* \"#utility.yul\":2367:2378   */\n      0x00\n        /* \"#utility.yul\":2401:2407   */\n      dup3\n        /* \"#utility.yul\":2396:2399   */\n      dup3\n        /* \"#utility.yul\":2389:2408   */\n      mstore\n        /* \"#utility.yul\":2441:2445   */\n      0x20\n        /* \"#utility.yul\":2436:2439   */\n      dup3\n        /* \"#utility.yul\":2432:2446   */\n      add\n        /* \"#utility.yul\":2417:2446   */\n      swap1\n      pop\n        /* \"#utility.yul\":2283:2452   */\n      swap3\n      swap2\n      pop\n      pop\n      jump\t// out\n        /* \"#utility.yul\":2458:2765   */\n    tag_82:\n        /* \"#utility.yul\":2526:2527   */\n      0x00\n        /* \"#utility.yul\":2536:2649   */\n    tag_129:\n        /* \"#utility.yul\":2550:2556   */\n      dup4\n        /* \"#utility.yul\":2547:2548   */\n      dup2\n        /* \"#utility.yul\":2544:2557   */\n      lt\n        /* \"#utility.yul\":2536:2649   */\n      iszero\n      tag_131\n      jumpi\n        /* \"#utility.yul\":2635:2636   */\n      dup1\n        /* \"#utility.yul\":2630:2633   */\n      dup3\n        /* \"#utility.yul\":2626:2637   */\n      add\n        /* \"#utility.yul\":2620:2638   */\n      mload\n        /* \"#utility.yul\":2616:2617   */\n      dup2\n        /* \"#utility.yul\":2611:2614   */\n      dup5\n        /* \"#utility.yul\":2607:2618   */\n      add\n        /* \"#utility.yul\":2600:2639   */\n      mstore\n        /* \"#utility.yul\":2572:2574   */\n      0x20\n        /* \"#utility.yul\":2569:2570   */\n      dup2\n        /* \"#utility.yul\":2565:2575   */\n      add\n        /* \"#utility.yul\":2560:2575   */\n      swap1\n      pop\n        /* \"#utility.yul\":2536:2649   */\n      jump(tag_129)\n    tag_131:\n        /* \"#utility.yul\":2667:2673   */\n      dup4\n        /* \"#utility.yul\":2664:2665   */\n      dup2\n        /* \"#utility.yul\":2661:2674   */\n      gt\n        /* \"#utility.yul\":2658:2759   */\n      iszero\n      tag_132\n      jumpi\n        /* \"#utility.yul\":2747:2748   */\n      0x00\n        /* \"#utility.yul\":2738:2744   */\n      dup5\n        /* \"#utility.yul\":2733:2736   */\n      dup5\n        /* \"#utility.yul\":2729:2745   */\n      add\n        /* \"#utility.yul\":2722:2749   */\n      mstore\n        /* \"#utility.yul\":2658:2759   */\n    tag_132:\n        /* \"#utility.yul\":2507:2765   */\n      pop\n        /* \"#utility.yul\":2458:2765   */\n      pop\n      pop\n      pop\n      jump\t// out\n        /* \"#utility.yul\":2771:2873   */\n    tag_83:\n        /* \"#utility.yul\":2812:2818   */\n      0x00\n        /* \"#utility.yul\":2863:2865   */\n      0x1f\n        /* \"#utility.yul\":2859:2866   */\n      not\n        /* \"#utility.yul\":2854:2856   */\n      0x1f\n        /* \"#utility.yul\":2847:2852   */\n      dup4\n        /* \"#utility.yul\":2843:2857   */\n      add\n        /* \"#utility.yul\":2839:2867   */\n      and\n        /* \"#utility.yul\":2829:2867   */\n      swap1\n      pop\n        /* \"#utility.yul\":2771:2873   */\n      swap2\n      swap1\n      pop\n      jump\t// out\n        /* \"#utility.yul\":2879:3243   */\n    tag_84:\n        /* \"#utility.yul\":2967:2970   */\n      0x00\n        /* \"#utility.yul\":2995:3034   */\n      tag_135\n        /* \"#utility.yul\":3028:3033   */\n      dup3\n        /* \"#utility.yul\":2995:3034   */\n      tag_80\n      jump\t// in\n    tag_135:\n        /* \"#utility.yul\":3050:3121   */\n      tag_136\n        /* \"#utility.yul\":3114:3120   */\n      dup2\n        /* \"#utility.yul\":3109:3112   */\n      dup6\n        /* \"#utility.yul\":3050:3121   */\n      tag_81\n      jump\t// in\n    tag_136:\n        /* \"#utility.yul\":3043:3121   */\n      swap4\n      pop\n        /* \"#utility.yul\":3130:3182   */\n      tag_137\n        /* \"#utility.yul\":3175:3181   */\n      dup2\n        /* \"#utility.yul\":3170:3173   */\n      dup6\n        /* \"#utility.yul\":3163:3167   */\n      0x20\n        /* \"#utility.yul\":3156:3161   */\n      dup7\n        /* \"#utility.yul\":3152:3168   */\n      add\n        /* \"#utility.yul\":3130:3182   */\n      tag_82\n      jump\t// in\n    tag_137:\n        /* \"#utility.yul\":3207:3236   */\n      tag_138\n        /* \"#utility.yul\":3229:3235   */\n      dup2\n        /* \"#utility.yul\":3207:3236   */\n      tag_83\n      jump\t// in\n    tag_138:\n        /* \"#utility.yul\":3202:3205   */\n      dup5\n        /* \"#utility.yul\":3198:3237   */\n      add\n        /* \"#utility.yul\":3191:3237   */\n      swap2\n      pop\n        /* \"#utility.yul\":2971:3243   */\n      pop\n        /* \"#utility.yul\":2879:3243   */\n      swap3\n      swap2\n      pop\n      pop\n      jump\t// out\n        /* \"#utility.yul\":3249:4115   */\n    tag_19:\n        /* \"#utility.yul\":3502:3506   */\n      0x00\n        /* \"#utility.yul\":3540:3543   */\n      0xc0\n        /* \"#utility.yul\":3529:3538   */\n      dup3\n        /* \"#utility.yul\":3525:3544   */\n      add\n        /* \"#utility.yul\":3517:3544   */\n      swap1\n      pop\n        /* \"#utility.yul\":3554:3625   */\n      tag_140\n        /* \"#utility.yul\":3622:3623   */\n      0x00\n        /* \"#utility.yul\":3611:3620   */\n      dup4\n        /* \"#utility.yul\":3607:3624   */\n      add\n        /* \"#utility.yul\":3598:3604   */\n      dup10\n        /* \"#utility.yul\":3554:3625   */\n      tag_79\n      jump\t// in\n    tag_140:\n        /* \"#utility.yul\":3635:3707   */\n      tag_141\n        /* \"#utility.yul\":3703:3705   */\n      0x20\n        /* \"#utility.yul\":3692:3701   */\n      dup4\n        /* \"#utility.yul\":3688:3706   */\n      add\n        /* \"#utility.yul\":3679:3685   */\n      dup9\n        /* \"#utility.yul\":3635:3707   */\n      tag_79\n      jump\t// in\n    tag_141:\n        /* \"#utility.yul\":3754:3763   */\n      dup2\n        /* \"#utility.yul\":3748:3752   */\n      dup2\n        /* \"#utility.yul\":3744:3764   */\n      sub\n        /* \"#utility.yul\":3739:3741   */\n      0x40\n        /* \"#utility.yul\":3728:3737   */\n      dup4\n        /* \"#utility.yul\":3724:3742   */\n      add\n        /* \"#utility.yul\":3717:3765   */\n      mstore\n        /* \"#utility.yul\":3782:3860   */\n      tag_142\n        /* \"#utility.yul\":3855:3859   */\n      dup2\n        /* \"#utility.yul\":3846:3852   */\n      dup8\n        /* \"#utility.yul\":3782:3860   */\n      tag_84\n      jump\t// in\n    tag_142:\n        /* \"#utility.yul\":3774:3860   */\n      swap1\n      pop\n        /* \"#utility.yul\":3870:3942   */\n      tag_143\n        /* \"#utility.yul\":3938:3940   */\n      0x60\n        /* \"#utility.yul\":3927:3936   */\n      dup4\n        /* \"#utility.yul\":3923:3941   */\n      add\n        /* \"#utility.yul\":3914:3920   */\n      dup7\n        /* \"#utility.yul\":3870:3942   */\n      tag_79\n      jump\t// in\n    tag_143:\n        /* \"#utility.yul\":3952:4025   */\n      tag_144\n        /* \"#utility.yul\":4020:4023   */\n      0x80\n        /* \"#utility.yul\":4009:4018   */\n      dup4\n        /* \"#utility.yul\":4005:4024   */\n      add\n        /* \"#utility.yul\":3996:4002   */\n      dup6\n        /* \"#utility.yul\":3952:4025   */\n      tag_79\n      jump\t// in\n    tag_144:\n        /* \"#utility.yul\":4035:4108   */\n      tag_145\n        /* \"#utility.yul\":4103:4106   */\n      0xa0\n        /* \"#utility.yul\":4092:4101   */\n      dup4\n        /* \"#utility.yul\":4088:4107   */\n      add\n        /* \"#utility.yul\":4079:4085   */\n      dup5\n        /* \"#utility.yul\":4035:4108   */\n      tag_79\n      jump\t// in\n    tag_145:\n        /* \"#utility.yul\":3249:4115   */\n      swap8\n      swap7\n      pop\n      pop\n      pop\n      pop\n      pop\n      pop\n      pop\n      jump\t// out\n        /* \"#utility.yul\":4121:4343   */\n    tag_23:\n        /* \"#utility.yul\":4214:4218   */\n      0x00\n        /* \"#utility.yul\":4252:4254   */\n      0x20\n        /* \"#utility.yul\":4241:4250   */\n      dup3\n        /* \"#utility.yul\":4237:4255   */\n      add\n        /* \"#utility.yul\":4229:4255   */\n      swap1\n      pop\n        /* \"#utility.yul\":4265:4336   */\n      tag_147\n        /* \"#utility.yul\":4333:4334   */\n      0x00\n        /* \"#utility.yul\":4322:4331   */\n      dup4\n        /* \"#utility.yul\":4318:4335   */\n      add\n        /* \"#utility.yul\":4309:4315   */\n      dup5\n        /* \"#utility.yul\":4265:4336   */\n      tag_79\n      jump\t// in\n    tag_147:\n        /* \"#utility.yul\":4121:4343   */\n      swap3\n      swap2\n      pop\n      pop\n      jump\t// out\n        /* \"#utility.yul\":4349:4466   */\n    tag_85:\n        /* \"#utility.yul\":4458:4459   */\n      0x00\n        /* \"#utility.yul\":4455:4456   */\n      dup1\n        /* \"#utility.yul\":4448:4460   */\n      revert\n        /* \"#utility.yul\":4472:4589   */\n    tag_86:\n        /* \"#utility.yul\":4581:4582   */\n      0x00\n        /* \"#utility.yul\":4578:4579   */\n      dup1\n        /* \"#utility.yul\":4571:4583   */\n      revert\n        /* \"#utility.yul\":4595:4775   */\n    tag_87:\n        /* \"#utility.yul\":4643:4720   */\n      0x4e487b7100000000000000000000000000000000000000000000000000000000\n        /* \"#utility.yul\":4640:4641   */\n      0x00\n        /* \"#utility.yul\":4633:4721   */\n      mstore\n        /* \"#utility.yul\":4740:4744   */\n      0x41\n        /* \"#utility.yul\":4737:4738   */\n      0x04\n        /* \"#utility.yul\":4730:4745   */\n      mstore\n        /* \"#utility.yul\":4764:4768   */\n      0x24\n        /* \"#utility.yul\":4761:4762   */\n      0x00\n        /* \"#utility.yul\":4754:4769   */\n      revert\n        /* \"#utility.yul\":4781:5062   */\n    tag_88:\n        /* \"#utility.yul\":4864:4891   */\n      tag_152\n        /* \"#utility.yul\":4886:4890   */\n      dup3\n        /* \"#utility.yul\":4864:4891   */\n      tag_83\n      jump\t// in\n    tag_152:\n        /* \"#utility.yul\":4856:4862   */\n      dup2\n        /* \"#utility.yul\":4852:4892   */\n      add\n        /* \"#utility.yul\":4994:5000   */\n      dup2\n        /* \"#utility.yul\":4982:4992   */\n      dup2\n        /* \"#utility.yul\":4979:5001   */\n      lt\n        /* \"#utility.yul\":4958:4976   */\n      0xffffffffffffffff\n        /* \"#utility.yul\":4946:4956   */\n      dup3\n        /* \"#utility.yul\":4943:4977   */\n      gt\n        /* \"#utility.yul\":4940:5002   */\n      or\n        /* \"#utility.yul\":4937:5025   */\n      iszero\n      tag_153\n      jumpi\n        /* \"#utility.yul\":5005:5023   */\n      tag_154\n      tag_87\n      jump\t// in\n    tag_154:\n        /* \"#utility.yul\":4937:5025   */\n    tag_153:\n        /* \"#utility.yul\":5045:5055   */\n      dup1\n        /* \"#utility.yul\":5041:5043   */\n      0x40\n        /* \"#utility.yul\":5034:5056   */\n      mstore\n        /* \"#utility.yul\":4824:5062   */\n      pop\n        /* \"#utility.yul\":4781:5062   */\n      pop\n      pop\n      jump\t// out\n        /* \"#utility.yul\":5068:5197   */\n    tag_89:\n        /* \"#utility.yul\":5102:5108   */\n      0x00\n        /* \"#utility.yul\":5129:5149   */\n      tag_156\n      tag_69\n      jump\t// in\n    tag_156:\n        /* \"#utility.yul\":5119:5149   */\n      swap1\n      pop\n        /* \"#utility.yul\":5158:5191   */\n      tag_157\n        /* \"#utility.yul\":5186:5190   */\n      dup3\n        /* \"#utility.yul\":5178:5184   */\n      dup3\n        /* \"#utility.yul\":5158:5191   */\n      tag_88\n      jump\t// in\n    tag_157:\n        /* \"#utility.yul\":5068:5197   */\n      swap2\n      swap1\n      pop\n      jump\t// out\n        /* \"#utility.yul\":5203:5511   */\n    tag_90:\n        /* \"#utility.yul\":5265:5269   */\n      0x00\n        /* \"#utility.yul\":5355:5373   */\n      0xffffffffffffffff\n        /* \"#utility.yul\":5347:5353   */\n      dup3\n        /* \"#utility.yul\":5344:5374   */\n      gt\n        /* \"#utility.yul\":5341:5397   */\n      iszero\n      tag_159\n      jumpi\n        /* \"#utility.yul\":5377:5395   */\n      tag_160\n      tag_87\n      jump\t// in\n    tag_160:\n        /* \"#utility.yul\":5341:5397   */\n    tag_159:\n        /* \"#utility.yul\":5415:5444   */\n      tag_161\n        /* \"#utility.yul\":5437:5443   */\n      dup3\n        /* \"#utility.yul\":5415:5444   */\n      tag_83\n      jump\t// in\n    tag_161:\n        /* \"#utility.yul\":5407:5444   */\n      swap1\n      pop\n        /* \"#utility.yul\":5499:5503   */\n      0x20\n        /* \"#utility.yul\":5493:5497   */\n      dup2\n        /* \"#utility.yul\":5489:5504   */\n      add\n        /* \"#utility.yul\":5481:5504   */\n      swap1\n      pop\n        /* \"#utility.yul\":5203:5511   */\n      swap2\n      swap1\n      pop\n      jump\t// out\n        /* \"#utility.yul\":5517:5671   */\n    tag_91:\n        /* \"#utility.yul\":5601:5607   */\n      dup3\n        /* \"#utility.yul\":5596:5599   */\n      dup2\n        /* \"#utility.yul\":5591:5594   */\n      dup4\n        /* \"#utility.yul\":5578:5608   */\n      calldatacopy\n        /* \"#utility.yul\":5663:5664   */\n      0x00\n        /* \"#utility.yul\":5654:5660   */\n      dup4\n        /* \"#utility.yul\":5649:5652   */\n      dup4\n        /* \"#utility.yul\":5645:5661   */\n      add\n        /* \"#utility.yul\":5638:5665   */\n      mstore\n        /* \"#utility.yul\":5517:5671   */\n      pop\n      pop\n      pop\n      jump\t// out\n        /* \"#utility.yul\":5677:6089   */\n    tag_92:\n        /* \"#utility.yul\":5755:5760   */\n      0x00\n        /* \"#utility.yul\":5780:5846   */\n      tag_164\n        /* \"#utility.yul\":5796:5845   */\n      tag_165\n        /* \"#utility.yul\":5838:5844   */\n      dup5\n        /* \"#utility.yul\":5796:5845   */\n      tag_90\n      jump\t// in\n    tag_165:\n        /* \"#utility.yul\":5780:5846   */\n      tag_89\n      jump\t// in\n    tag_164:\n        /* \"#utility.yul\":5771:5846   */\n      swap1\n      pop\n        /* \"#utility.yul\":5869:5875   */\n      dup3\n        /* \"#utility.yul\":5862:5867   */\n      dup2\n        /* \"#utility.yul\":5855:5876   */\n      mstore\n        /* \"#utility.yul\":5907:5911   */\n      0x20\n        /* \"#utility.yul\":5900:5905   */\n      dup2\n        /* \"#utility.yul\":5896:5912   */\n      add\n        /* \"#utility.yul\":5945:5948   */\n      dup5\n        /* \"#utility.yul\":5936:5942   */\n      dup5\n        /* \"#utility.yul\":5931:5934   */\n      dup5\n        /* \"#utility.yul\":5927:5943   */\n      add\n        /* \"#utility.yul\":5924:5949   */\n      gt\n        /* \"#utility.yul\":5921:6033   */\n      iszero\n      tag_166\n      jumpi\n        /* \"#utility.yul\":5952:6031   */\n      tag_167\n      tag_86\n      jump\t// in\n    tag_167:\n        /* \"#utility.yul\":5921:6033   */\n    tag_166:\n        /* \"#utility.yul\":6042:6083   */\n      tag_168\n        /* \"#utility.yul\":6076:6082   */\n      dup5\n        /* \"#utility.yul\":6071:6074   */\n      dup3\n        /* \"#utility.yul\":6066:6069   */\n      dup6\n        /* \"#utility.yul\":6042:6083   */\n      tag_91\n      jump\t// in\n    tag_168:\n        /* \"#utility.yul\":5761:6089   */\n      pop\n        /* \"#utility.yul\":5677:6089   */\n      swap4\n      swap3\n      pop\n      pop\n      pop\n      jump\t// out\n        /* \"#utility.yul\":6109:6449   */\n    tag_93:\n        /* \"#utility.yul\":6165:6170   */\n      0x00\n        /* \"#utility.yul\":6214:6217   */\n      dup3\n        /* \"#utility.yul\":6207:6211   */\n      0x1f\n        /* \"#utility.yul\":6199:6205   */\n      dup4\n        /* \"#utility.yul\":6195:6212   */\n      add\n        /* \"#utility.yul\":6191:6218   */\n      slt\n        /* \"#utility.yul\":6181:6303   */\n      tag_170\n      jumpi\n        /* \"#utility.yul\":6222:6301   */\n      tag_171\n      tag_85\n      jump\t// in\n    tag_171:\n        /* \"#utility.yul\":6181:6303   */\n    tag_170:\n        /* \"#utility.yul\":6339:6345   */\n      dup2\n        /* \"#utility.yul\":6326:6346   */\n      calldataload\n        /* \"#utility.yul\":6364:6443   */\n      tag_172\n        /* \"#utility.yul\":6439:6442   */\n      dup5\n        /* \"#utility.yul\":6431:6437   */\n      dup3\n        /* \"#utility.yul\":6424:6428   */\n      0x20\n        /* \"#utility.yul\":6416:6422   */\n      dup7\n        /* \"#utility.yul\":6412:6429   */\n      add\n        /* \"#utility.yul\":6364:6443   */\n      tag_92\n      jump\t// in\n    tag_172:\n        /* \"#utility.yul\":6355:6443   */\n      swap2\n      pop\n        /* \"#utility.yul\":6171:6449   */\n      pop\n        /* \"#utility.yul\":6109:6449   */\n      swap3\n      swap2\n      pop\n      pop\n      jump\t// out\n        /* \"#utility.yul\":6455:7692   */\n    tag_26:\n        /* \"#utility.yul\":6569:6575   */\n      0x00\n        /* \"#utility.yul\":6577:6583   */\n      dup1\n        /* \"#utility.yul\":6585:6591   */\n      0x00\n        /* \"#utility.yul\":6593:6599   */\n      dup1\n        /* \"#utility.yul\":6601:6607   */\n      0x00\n        /* \"#utility.yul\":6609:6615   */\n      dup1\n        /* \"#utility.yul\":6658:6661   */\n      0xc0\n        /* \"#utility.yul\":6646:6655   */\n      dup8\n        /* \"#utility.yul\":6637:6644   */\n      dup10\n        /* \"#utility.yul\":6633:6656   */\n      sub\n        /* \"#utility.yul\":6629:6662   */\n      slt\n        /* \"#utility.yul\":6626:6746   */\n      iszero\n      tag_174\n      jumpi\n        /* \"#utility.yul\":6665:6744   */\n      tag_175\n      tag_70\n      jump\t// in\n    tag_175:\n        /* \"#utility.yul\":6626:6746   */\n    tag_174:\n        /* \"#utility.yul\":6785:6786   */\n      0x00\n        /* \"#utility.yul\":6810:6863   */\n      tag_176\n        /* \"#utility.yul\":6855:6862   */\n      dup10\n        /* \"#utility.yul\":6846:6852   */\n      dup3\n        /* \"#utility.yul\":6835:6844   */\n      dup11\n        /* \"#utility.yul\":6831:6853   */\n      add\n        /* \"#utility.yul\":6810:6863   */\n      tag_78\n      jump\t// in\n    tag_176:\n        /* \"#utility.yul\":6800:6863   */\n      swap7\n      pop\n        /* \"#utility.yul\":6756:6873   */\n      pop\n        /* \"#utility.yul\":6912:6914   */\n      0x20\n        /* \"#utility.yul\":6938:6991   */\n      tag_177\n        /* \"#utility.yul\":6983:6990   */\n      dup10\n        /* \"#utility.yul\":6974:6980   */\n      dup3\n        /* \"#utility.yul\":6963:6972   */\n      dup11\n        /* \"#utility.yul\":6959:6981   */\n      add\n        /* \"#utility.yul\":6938:6991   */\n      tag_78\n      jump\t// in\n    tag_177:\n        /* \"#utility.yul\":6928:6991   */\n      swap6\n      pop\n        /* \"#utility.yul\":6883:7001   */\n      pop\n        /* \"#utility.yul\":7068:7070   */\n      0x40\n        /* \"#utility.yul\":7057:7066   */\n      dup8\n        /* \"#utility.yul\":7053:7071   */\n      add\n        /* \"#utility.yul\":7040:7072   */\n      calldataload\n        /* \"#utility.yul\":7099:7117   */\n      0xffffffffffffffff\n        /* \"#utility.yul\":7091:7097   */\n      dup2\n        /* \"#utility.yul\":7088:7118   */\n      gt\n        /* \"#utility.yul\":7085:7202   */\n      iszero\n      tag_178\n      jumpi\n        /* \"#utility.yul\":7121:7200   */\n      tag_179\n      tag_71\n      jump\t// in\n    tag_179:\n        /* \"#utility.yul\":7085:7202   */\n    tag_178:\n        /* \"#utility.yul\":7226:7289   */\n      tag_180\n        /* \"#utility.yul\":7281:7288   */\n      dup10\n        /* \"#utility.yul\":7272:7278   */\n      dup3\n        /* \"#utility.yul\":7261:7270   */\n      dup11\n        /* \"#utility.yul\":7257:7279   */\n      add\n        /* \"#utility.yul\":7226:7289   */\n      tag_93\n      jump\t// in\n    tag_180:\n        /* \"#utility.yul\":7216:7289   */\n      swap5\n      pop\n        /* \"#utility.yul\":7011:7299   */\n      pop\n        /* \"#utility.yul\":7338:7340   */\n      0x60\n        /* \"#utility.yul\":7364:7417   */\n      tag_181\n        /* \"#utility.yul\":7409:7416   */\n      dup10\n        /* \"#utility.yul\":7400:7406   */\n      dup3\n        /* \"#utility.yul\":7389:7398   */\n      dup11\n        /* \"#utility.yul\":7385:7407   */\n      add\n        /* \"#utility.yul\":7364:7417   */\n      tag_78\n      jump\t// in\n    tag_181:\n        /* \"#utility.yul\":7354:7417   */\n      swap4\n      pop\n        /* \"#utility.yul\":7309:7427   */\n      pop\n        /* \"#utility.yul\":7466:7469   */\n      0x80\n        /* \"#utility.yul\":7493:7546   */\n      tag_182\n        /* \"#utility.yul\":7538:7545   */\n      dup10\n        /* \"#utility.yul\":7529:7535   */\n      dup3\n        /* \"#utility.yul\":7518:7527   */\n      dup11\n        /* \"#utility.yul\":7514:7536   */\n      add\n        /* \"#utility.yul\":7493:7546   */\n      tag_78\n      jump\t// in\n    tag_182:\n        /* \"#utility.yul\":7483:7546   */\n      swap3\n      pop\n        /* \"#utility.yul\":7437:7556   */\n      pop\n        /* \"#utility.yul\":7595:7598   */\n      0xa0\n        /* \"#utility.yul\":7622:7675   */\n      tag_183\n        /* \"#utility.yul\":7667:7674   */\n      dup10\n        /* \"#utility.yul\":7658:7664   */\n      dup3\n        /* \"#utility.yul\":7647:7656   */\n      dup11\n        /* \"#utility.yul\":7643:7665   */\n      add\n        /* \"#utility.yul\":7622:7675   */\n      tag_78\n      jump\t// in\n    tag_183:\n        /* \"#utility.yul\":7612:7675   */\n      swap2\n      pop\n        /* \"#utility.yul\":7566:7685   */\n      pop\n        /* \"#utility.yul\":6455:7692   */\n      swap3\n      swap6\n      pop\n      swap3\n      swap6\n      pop\n      swap3\n      swap6\n      jump\t// out\n        /* \"#utility.yul\":7698:7878   */\n    tag_94:\n        /* \"#utility.yul\":7746:7823   */\n      0x4e487b7100000000000000000000000000000000000000000000000000000000\n        /* \"#utility.yul\":7743:7744   */\n      0x00\n        /* \"#utility.yul\":7736:7824   */\n      mstore\n        /* \"#utility.yul\":7843:7847   */\n      0x11\n        /* \"#utility.yul\":7840:7841   */\n      0x04\n        /* \"#utility.yul\":7833:7848   */\n      mstore\n        /* \"#utility.yul\":7867:7871   */\n      0x24\n        /* \"#utility.yul\":7864:7865   */\n      0x00\n        /* \"#utility.yul\":7857:7872   */\n      revert\n        /* \"#utility.yul\":7884:8115   */\n    tag_37:\n        /* \"#utility.yul\":7922:7925   */\n      0x00\n        /* \"#utility.yul\":7945:7968   */\n      tag_186\n        /* \"#utility.yul\":7962:7967   */\n      dup3\n        /* \"#utility.yul\":7945:7968   */\n      tag_72\n      jump\t// in\n    tag_186:\n        /* \"#utility.yul\":7936:7968   */\n      swap2\n      pop\n        /* \"#utility.yul\":7990:8056   */\n      0x7fffffffffffffffffffffffffffffffffffffffffffffffffffffffffffffff\n        /* \"#utility.yul\":7983:7988   */\n      dup3\n        /* \"#utility.yul\":7980:8057   */\n      sub\n        /* \"#utility.yul\":7977:8080   */\n      tag_187\n      jumpi\n        /* \"#utility.yul\":8060:8078   */\n      tag_188\n      tag_94\n      jump\t// in\n    tag_188:\n        /* \"#utility.yul\":7977:8080   */\n    tag_187:\n        /* \"#utility.yul\":8107:8108   */\n      0x01\n        /* \"#utility.yul\":8100:8105   */\n      dup3\n        /* \"#utility.yul\":8096:8109   */\n      add\n        /* \"#utility.yul\":8089:8109   */\n      swap1\n      pop\n        /* \"#utility.yul\":7884:8115   */\n      swap2\n      swap1\n      pop\n      jump\t// out\n        /* \"#utility.yul\":8121:8301   */\n    tag_95:\n        /* \"#utility.yul\":8169:8246   */\n      0x4e487b7100000000000000000000000000000000000000000000000000000000\n        /* \"#utility.yul\":8166:8167   */\n      0x00\n        /* \"#utility.yul\":8159:8247   */\n      mstore\n        /* \"#utility.yul\":8266:8270   */\n      0x22\n        /* \"#utility.yul\":8263:8264   */\n      0x04\n        /* \"#utility.yul\":8256:8271   */\n      mstore\n        /* \"#utility.yul\":8290:8294   */\n      0x24\n        /* \"#utility.yul\":8287:8288   */\n      0x00\n        /* \"#utility.yul\":8280:8295   */\n      revert\n        /* \"#utility.yul\":8307:8627   */\n    tag_41:\n        /* \"#utility.yul\":8351:8357   */\n      0x00\n        /* \"#utility.yul\":8388:8389   */\n      0x02\n        /* \"#utility.yul\":8382:8386   */\n      dup3\n        /* \"#utility.yul\":8378:8390   */\n      div\n        /* \"#utility.yul\":8368:8390   */\n      swap1\n      pop\n        /* \"#utility.yul\":8435:8436   */\n      0x01\n        /* \"#utility.yul\":8429:8433   */\n      dup3\n        /* \"#utility.yul\":8425:8437   */\n      and\n        /* \"#utility.yul\":8456:8474   */\n      dup1\n        /* \"#utility.yul\":8446:8527   */\n      tag_191\n      jumpi\n        /* \"#utility.yul\":8512:8516   */\n      0x7f\n        /* \"#utility.yul\":8504:8510   */\n      dup3\n        /* \"#utility.yul\":8500:8517   */\n      and\n        /* \"#utility.yul\":8490:8517   */\n      swap2\n      pop\n        /* \"#utility.yul\":8446:8527   */\n    tag_191:\n        /* \"#utility.yul\":8574:8576   */\n      0x20\n        /* \"#utility.yul\":8566:8572   */\n      dup3\n        /* \"#utility.yul\":8563:8577   */\n      lt\n        /* \"#utility.yul\":8543:8561   */\n      dup2\n        /* \"#utility.yul\":8540:8578   */\n      sub\n        /* \"#utility.yul\":8537:8621   */\n      tag_192\n      jumpi\n        /* \"#utility.yul\":8593:8611   */\n      tag_193\n      tag_95\n      jump\t// in\n    tag_193:\n        /* \"#utility.yul\":8537:8621   */\n    tag_192:\n        /* \"#utility.yul\":8358:8627   */\n      pop\n        /* \"#utility.yul\":8307:8627   */\n      swap2\n      swap1\n      pop\n      jump\t// out\n        /* \"#utility.yul\":8633:8938   */\n    tag_58:\n        /* \"#utility.yul\":8673:8676   */\n      0x00\n        /* \"#utility.yul\":8692:8712   */\n      tag_195\n        /* \"#utility.yul\":8710:8711   */\n      dup3\n        /* \"#utility.yul\":8692:8712   */\n      tag_76\n      jump\t// in\n    tag_195:\n        /* \"#utility.yul\":8687:8712   */\n      swap2\n      pop\n        /* \"#utility.yul\":8726:8746   */\n      tag_196\n        /* \"#utility.yul\":8744:8745   */\n      dup4\n        /* \"#utility.yul\":8726:8746   */\n      tag_76\n      jump\t// in\n    tag_196:\n        /* \"#utility.yul\":8721:8746   */\n      swap3\n      pop\n        /* \"#utility.yul\":8880:8881   */\n      dup3\n        /* \"#utility.yul\":8812:8878   */\n      0xffffffffffffffffffffffffffffffffffffffffffffffffffffffffffffffff\n        /* \"#utility.yul\":8808:8882   */\n      sub\n        /* \"#utility.yul\":8805:8806   */\n      dup3\n        /* \"#utility.yul\":8802:8883   */\n      gt\n        /* \"#utility.yul\":8799:8906   */\n      iszero\n      tag_197\n      jumpi\n        /* \"#utility.yul\":8886:8904   */\n      tag_198\n      tag_94\n      jump\t// in\n    tag_198:\n        /* \"#utility.yul\":8799:8906   */\n    tag_197:\n        /* \"#utility.yul\":8930:8931   */\n      dup3\n        /* \"#utility.yul\":8927:8928   */\n      dup3\n        /* \"#utility.yul\":8923:8932   */\n      add\n        /* \"#utility.yul\":8916:8932   */\n      swap1\n      pop\n        /* \"#utility.yul\":8633:8938   */\n      swap3\n      swap2\n      pop\n      pop\n      jump\t// out\n\n    auxdata: 0xa2646970667358221220e401a627cc329a12eb17fa572d5fc32694fc56d570d0fcabe6f10433c9a6564a64736f6c634300080d0033\n}\n",
				"bytecode": {
					"linkReferences": {},
					"object": "60806040526000805534801561001457600080fd5b50610a29806100246000396000f3fe608060405234801561001057600080fd5b50600436106100575760003560e01c80630400c2e71461005c578063246982c41461008c578063267c68e0146100c15780632d74e28a146100df5780639e7a13ad146100fb575b600080fd5b61007660048036038101906100719190610503565b610130565b604051610083919061053f565b60405180910390f35b6100a660048036038101906100a19190610590565b61016b565b6040516100b896959493929190610665565b60405180910390f35b6100c961028e565b6040516100d691906106cd565b60405180910390f35b6100f960048036038101906100f4919061081d565b610294565b005b61011560048036038101906101109190610590565b610337565b60405161012796959493929190610665565b60405180910390f35b600080600090505b600a81121561016257828061014c906108f5565b935050808061015a906108f5565b915050610138565b50819050919050565b6000806060600080600080600160008981526020019081526020016000206040518060c001604052908160008201548152602001600182015481526020016002820180546101b89061096c565b80601f01602080910402602001604051908101604052809291908181526020018280546101e49061096c565b80156102315780601f1061020657610100808354040283529160200191610231565b820191906000526020600020905b81548152906001019060200180831161021457829003601f168201915b5050505050815260200160038201548152602001600482015481526020016005820154815250509050806000015181602001518260400151836060015184608001518560a001519650965096509650965096505091939550919395565b60005481565b61029c6103fb565b6040518060c001604052808781526020018681526020018581526020018481526020018381526020018281525060016000805481526020019081526020016000206000820151816000015560208201518160010155604082015181600201908051906020019061030d929190610416565b50606082015181600301556080820151816004015560a08201518160050155905050505050505050565b60016020528060005260406000206000915090508060000154908060010154908060020180546103669061096c565b80601f01602080910402602001604051908101604052809291908181526020018280546103929061096c565b80156103df5780601f106103b4576101008083540402835291602001916103df565b820191906000526020600020905b8154815290600101906020018083116103c257829003601f168201915b5050505050908060030154908060040154908060050154905086565b600160008082825461040d919061099d565b92505081905550565b8280546104229061096c565b90600052602060002090601f016020900481019282610444576000855561048b565b82601f1061045d57805160ff191683800117855561048b565b8280016001018555821561048b579182015b8281111561048a57825182559160200191906001019061046f565b5b509050610498919061049c565b5090565b5b808211156104b557600081600090555060010161049d565b5090565b6000604051905090565b600080fd5b600080fd5b6000819050919050565b6104e0816104cd565b81146104eb57600080fd5b50565b6000813590506104fd816104d7565b92915050565b600060208284031215610519576105186104c3565b5b6000610527848285016104ee565b91505092915050565b610539816104cd565b82525050565b60006020820190506105546000830184610530565b92915050565b6000819050919050565b61056d8161055a565b811461057857600080fd5b50565b60008135905061058a81610564565b92915050565b6000602082840312156105a6576105a56104c3565b5b60006105b48482850161057b565b91505092915050565b6105c68161055a565b82525050565b600081519050919050565b600082825260208201905092915050565b60005b838110156106065780820151818401526020810190506105eb565b83811115610615576000848401525b50505050565b6000601f19601f8301169050919050565b6000610637826105cc565b61064181856105d7565b93506106518185602086016105e8565b61065a8161061b565b840191505092915050565b600060c08201905061067a60008301896105bd565b61068760208301886105bd565b8181036040830152610699818761062c565b90506106a860608301866105bd565b6106b560808301856105bd565b6106c260a08301846105bd565b979650505050505050565b60006020820190506106e260008301846105bd565b92915050565b600080fd5b600080fd5b7f4e487b7100000000000000000000000000000000000000000000000000000000600052604160045260246000fd5b61072a8261061b565b810181811067ffffffffffffffff82111715610749576107486106f2565b5b80604052505050565b600061075c6104b9565b90506107688282610721565b919050565b600067ffffffffffffffff821115610788576107876106f2565b5b6107918261061b565b9050602081019050919050565b82818337600083830152505050565b60006107c06107bb8461076d565b610752565b9050828152602081018484840111156107dc576107db6106ed565b5b6107e784828561079e565b509392505050565b600082601f830112610804576108036106e8565b5b81356108148482602086016107ad565b91505092915050565b60008060008060008060c0878903121561083a576108396104c3565b5b600061084889828a0161057b565b965050602061085989828a0161057b565b955050604087013567ffffffffffffffff81111561087a576108796104c8565b5b61088689828a016107ef565b945050606061089789828a0161057b565b93505060806108a889828a0161057b565b92505060a06108b989828a0161057b565b9150509295509295509295565b7f4e487b7100000000000000000000000000000000000000000000000000000000600052601160045260246000fd5b6000610900826104cd565b91507f7fffffffffffffffffffffffffffffffffffffffffffffffffffffffffffffff8203610932576109316108c6565b5b600182019050919050565b7f4e487b7100000000000000000000000000000000000000000000000000000000600052602260045260246000fd5b6000600282049050600182168061098457607f821691505b6020821081036109975761099661093d565b5b50919050565b60006109a88261055a565b91506109b38361055a565b9250827fffffffffffffffffffffffffffffffffffffffffffffffffffffffffffffffff038211156109e8576109e76108c6565b5b82820190509291505056fea2646970667358221220e401a627cc329a12eb17fa572d5fc32694fc56d570d0fcabe6f10433c9a6564a64736f6c634300080d0033",
					"opcodes": "PUSH1 0x80 PUSH1 0x40 MSTORE PUSH1 0x0 DUP1 SSTORE CALLVALUE DUP1 ISZERO PUSH2 0x14 JUMPI PUSH1 0x0 DUP1 REVERT JUMPDEST POP PUSH2 0xA29 DUP1 PUSH2 0x24 PUSH1 0x0 CODECOPY PUSH1 0x0 RETURN INVALID PUSH1 0x80 PUSH1 0x40 MSTORE CALLVALUE DUP1 ISZERO PUSH2 0x10 JUMPI PUSH1 0x0 DUP1 REVERT JUMPDEST POP PUSH1 0x4 CALLDATASIZE LT PUSH2 0x57 JUMPI PUSH1 0x0 CALLDATALOAD PUSH1 0xE0 SHR DUP1 PUSH4 0x400C2E7 EQ PUSH2 0x5C JUMPI DUP1 PUSH4 0x246982C4 EQ PUSH2 0x8C JUMPI DUP1 PUSH4 0x267C68E0 EQ PUSH2 0xC1 JUMPI DUP1 PUSH4 0x2D74E28A EQ PUSH2 0xDF JUMPI DUP1 PUSH4 0x9E7A13AD EQ PUSH2 0xFB JUMPI JUMPDEST PUSH1 0x0 DUP1 REVERT JUMPDEST PUSH2 0x76 PUSH1 0x4 DUP1 CALLDATASIZE SUB DUP2 ADD SWAP1 PUSH2 0x71 SWAP2 SWAP1 PUSH2 0x503 JUMP JUMPDEST PUSH2 0x130 JUMP JUMPDEST PUSH1 0x40 MLOAD PUSH2 0x83 SWAP2 SWAP1 PUSH2 0x53F JUMP JUMPDEST PUSH1 0x40 MLOAD DUP1 SWAP2 SUB SWAP1 RETURN JUMPDEST PUSH2 0xA6 PUSH1 0x4 DUP1 CALLDATASIZE SUB DUP2 ADD SWAP1 PUSH2 0xA1 SWAP2 SWAP1 PUSH2 0x590 JUMP JUMPDEST PUSH2 0x16B JUMP JUMPDEST PUSH1 0x40 MLOAD PUSH2 0xB8 SWAP7 SWAP6 SWAP5 SWAP4 SWAP3 SWAP2 SWAP1 PUSH2 0x665 JUMP JUMPDEST PUSH1 0x40 MLOAD DUP1 SWAP2 SUB SWAP1 RETURN JUMPDEST PUSH2 0xC9 PUSH2 0x28E JUMP JUMPDEST PUSH1 0x40 MLOAD PUSH2 0xD6 SWAP2 SWAP1 PUSH2 0x6CD JUMP JUMPDEST PUSH1 0x40 MLOAD DUP1 SWAP2 SUB SWAP1 RETURN JUMPDEST PUSH2 0xF9 PUSH1 0x4 DUP1 CALLDATASIZE SUB DUP2 ADD SWAP1 PUSH2 0xF4 SWAP2 SWAP1 PUSH2 0x81D JUMP JUMPDEST PUSH2 0x294 JUMP JUMPDEST STOP JUMPDEST PUSH2 0x115 PUSH1 0x4 DUP1 CALLDATASIZE SUB DUP2 ADD SWAP1 PUSH2 0x110 SWAP2 SWAP1 PUSH2 0x590 JUMP JUMPDEST PUSH2 0x337 JUMP JUMPDEST PUSH1 0x40 MLOAD PUSH2 0x127 SWAP7 SWAP6 SWAP5 SWAP4 SWAP3 SWAP2 SWAP1 PUSH2 0x665 JUMP JUMPDEST PUSH1 0x40 MLOAD DUP1 SWAP2 SUB SWAP1 RETURN JUMPDEST PUSH1 0x0 DUP1 PUSH1 0x0 SWAP1 POP JUMPDEST PUSH1 0xA DUP2 SLT ISZERO PUSH2 0x162 JUMPI DUP3 DUP1 PUSH2 0x14C SWAP1 PUSH2 0x8F5 JUMP JUMPDEST SWAP4 POP POP DUP1 DUP1 PUSH2 0x15A SWAP1 PUSH2 0x8F5 JUMP JUMPDEST SWAP2 POP POP PUSH2 0x138 JUMP JUMPDEST POP DUP2 SWAP1 POP SWAP2 SWAP1 POP JUMP JUMPDEST PUSH1 0x0 DUP1 PUSH1 0x60 PUSH1 0x0 DUP1 PUSH1 0x0 DUP1 PUSH1 0x1 PUSH1 0x0 DUP10 DUP2 MSTORE PUSH1 0x20 ADD SWAP1 DUP2 MSTORE PUSH1 0x20 ADD PUSH1 0x0 KECCAK256 PUSH1 0x40 MLOAD DUP1 PUSH1 0xC0 ADD PUSH1 0x40 MSTORE SWAP1 DUP2 PUSH1 0x0 DUP3 ADD SLOAD DUP2 MSTORE PUSH1 0x20 ADD PUSH1 0x1 DUP3 ADD SLOAD DUP2 MSTORE PUSH1 0x20 ADD PUSH1 0x2 DUP3 ADD DUP1 SLOAD PUSH2 0x1B8 SWAP1 PUSH2 0x96C JUMP JUMPDEST DUP1 PUSH1 0x1F ADD PUSH1 0x20 DUP1 SWAP2 DIV MUL PUSH1 0x20 ADD PUSH1 0x40 MLOAD SWAP1 DUP2 ADD PUSH1 0x40 MSTORE DUP1 SWAP3 SWAP2 SWAP1 DUP2 DUP2 MSTORE PUSH1 0x20 ADD DUP3 DUP1 SLOAD PUSH2 0x1E4 SWAP1 PUSH2 0x96C JUMP JUMPDEST DUP1 ISZERO PUSH2 0x231 JUMPI DUP1 PUSH1 0x1F LT PUSH2 0x206 JUMPI PUSH2 0x100 DUP1 DUP4 SLOAD DIV MUL DUP4 MSTORE SWAP2 PUSH1 0x20 ADD SWAP2 PUSH2 0x231 JUMP JUMPDEST DUP3 ADD SWAP2 SWAP1 PUSH1 0x0 MSTORE PUSH1 0x20 PUSH1 0x0 KECCAK256 SWAP1 JUMPDEST DUP2 SLOAD DUP2 MSTORE SWAP1 PUSH1 0x1 ADD SWAP1 PUSH1 0x20 ADD DUP1 DUP4 GT PUSH2 0x214 JUMPI DUP3 SWAP1 SUB PUSH1 0x1F AND DUP3 ADD SWAP2 JUMPDEST POP POP POP POP POP DUP2 MSTORE PUSH1 0x20 ADD PUSH1 0x3 DUP3 ADD SLOAD DUP2 MSTORE PUSH1 0x20 ADD PUSH1 0x4 DUP3 ADD SLOAD DUP2 MSTORE PUSH1 0x20 ADD PUSH1 0x5 DUP3 ADD SLOAD DUP2 MSTORE POP POP SWAP1 POP DUP1 PUSH1 0x0 ADD MLOAD DUP2 PUSH1 0x20 ADD MLOAD DUP3 PUSH1 0x40 ADD MLOAD DUP4 PUSH1 0x60 ADD MLOAD DUP5 PUSH1 0x80 ADD MLOAD DUP6 PUSH1 0xA0 ADD MLOAD SWAP7 POP SWAP7 POP SWAP7 POP SWAP7 POP SWAP7 POP SWAP7 POP POP SWAP2 SWAP4 SWAP6 POP SWAP2 SWAP4 SWAP6 JUMP JUMPDEST PUSH1 0x0 SLOAD DUP2 JUMP JUMPDEST PUSH2 0x29C PUSH2 0x3FB JUMP JUMPDEST PUSH1 0x40 MLOAD DUP1 PUSH1 0xC0 ADD PUSH1 0x40 MSTORE DUP1 DUP8 DUP2 MSTORE PUSH1 0x20 ADD DUP7 DUP2 MSTORE PUSH1 0x20 ADD DUP6 DUP2 MSTORE PUSH1 0x20 ADD DUP5 DUP2 MSTORE PUSH1 0x20 ADD DUP4 DUP2 MSTORE PUSH1 0x20 ADD DUP3 DUP2 MSTORE POP PUSH1 0x1 PUSH1 0x0 DUP1 SLOAD DUP2 MSTORE PUSH1 0x20 ADD SWAP1 DUP2 MSTORE PUSH1 0x20 ADD PUSH1 0x0 KECCAK256 PUSH1 0x0 DUP3 ADD MLOAD DUP2 PUSH1 0x0 ADD SSTORE PUSH1 0x20 DUP3 ADD MLOAD DUP2 PUSH1 0x1 ADD SSTORE PUSH1 0x40 DUP3 ADD MLOAD DUP2 PUSH1 0x2 ADD SWAP1 DUP1 MLOAD SWAP1 PUSH1 0x20 ADD SWAP1 PUSH2 0x30D SWAP3 SWAP2 SWAP1 PUSH2 0x416 JUMP JUMPDEST POP PUSH1 0x60 DUP3 ADD MLOAD DUP2 PUSH1 0x3 ADD SSTORE PUSH1 0x80 DUP3 ADD MLOAD DUP2 PUSH1 0x4 ADD SSTORE PUSH1 0xA0 DUP3 ADD MLOAD DUP2 PUSH1 0x5 ADD SSTORE SWAP1 POP POP POP POP POP POP POP POP JUMP JUMPDEST PUSH1 0x1 PUSH1 0x20 MSTORE DUP1 PUSH1 0x0 MSTORE PUSH1 0x40 PUSH1 0x0 KECCAK256 PUSH1 0x0 SWAP2 POP SWAP1 POP DUP1 PUSH1 0x0 ADD SLOAD SWAP1 DUP1 PUSH1 0x1 ADD SLOAD SWAP1 DUP1 PUSH1 0x2 ADD DUP1 SLOAD PUSH2 0x366 SWAP1 PUSH2 0x96C JUMP JUMPDEST DUP1 PUSH1 0x1F ADD PUSH1 0x20 DUP1 SWAP2 DIV MUL PUSH1 0x20 ADD PUSH1 0x40 MLOAD SWAP1 DUP2 ADD PUSH1 0x40 MSTORE DUP1 SWAP3 SWAP2 SWAP1 DUP2 DUP2 MSTORE PUSH1 0x20 ADD DUP3 DUP1 SLOAD PUSH2 0x392 SWAP1 PUSH2 0x96C JUMP JUMPDEST DUP1 ISZERO PUSH2 0x3DF JUMPI DUP1 PUSH1 0x1F LT PUSH2 0x3B4 JUMPI PUSH2 0x100 DUP1 DUP4 SLOAD DIV MUL DUP4 MSTORE SWAP2 PUSH1 0x20 ADD SWAP2 PUSH2 0x3DF JUMP JUMPDEST DUP3 ADD SWAP2 SWAP1 PUSH1 0x0 MSTORE PUSH1 0x20 PUSH1 0x0 KECCAK256 SWAP1 JUMPDEST DUP2 SLOAD DUP2 MSTORE SWAP1 PUSH1 0x1 ADD SWAP1 PUSH1 0x20 ADD DUP1 DUP4 GT PUSH2 0x3C2 JUMPI DUP3 SWAP1 SUB PUSH1 0x1F AND DUP3 ADD SWAP2 JUMPDEST POP POP POP POP POP SWAP1 DUP1 PUSH1 0x3 ADD SLOAD SWAP1 DUP1 PUSH1 0x4 ADD SLOAD SWAP1 DUP1 PUSH1 0x5 ADD SLOAD SWAP1 POP DUP7 JUMP JUMPDEST PUSH1 0x1 PUSH1 0x0 DUP1 DUP3 DUP3 SLOAD PUSH2 0x40D SWAP2 SWAP1 PUSH2 0x99D JUMP JUMPDEST SWAP3 POP POP DUP2 SWAP1 SSTORE POP JUMP JUMPDEST DUP3 DUP1 SLOAD PUSH2 0x422 SWAP1 PUSH2 0x96C JUMP JUMPDEST SWAP1 PUSH1 0x0 MSTORE PUSH1 0x20 PUSH1 0x0 KECCAK256 SWAP1 PUSH1 0x1F ADD PUSH1 0x20 SWAP1 DIV DUP2 ADD SWAP3 DUP3 PUSH2 0x444 JUMPI PUSH1 0x0 DUP6 SSTORE PUSH2 0x48B JUMP JUMPDEST DUP3 PUSH1 0x1F LT PUSH2 0x45D JUMPI DUP1 MLOAD PUSH1 0xFF NOT AND DUP4 DUP1 ADD OR DUP6 SSTORE PUSH2 0x48B JUMP JUMPDEST DUP3 DUP1 ADD PUSH1 0x1 ADD DUP6 SSTORE DUP3 ISZERO PUSH2 0x48B JUMPI SWAP2 DUP3 ADD JUMPDEST DUP3 DUP2 GT ISZERO PUSH2 0x48A JUMPI DUP3 MLOAD DUP3 SSTORE SWAP2 PUSH1 0x20 ADD SWAP2 SWAP1 PUSH1 0x1 ADD SWAP1 PUSH2 0x46F JUMP JUMPDEST JUMPDEST POP SWAP1 POP PUSH2 0x498 SWAP2 SWAP1 PUSH2 0x49C JUMP JUMPDEST POP SWAP1 JUMP JUMPDEST JUMPDEST DUP1 DUP3 GT ISZERO PUSH2 0x4B5 JUMPI PUSH1 0x0 DUP2 PUSH1 0x0 SWAP1 SSTORE POP PUSH1 0x1 ADD PUSH2 0x49D JUMP JUMPDEST POP SWAP1 JUMP JUMPDEST PUSH1 0x0 PUSH1 0x40 MLOAD SWAP1 POP SWAP1 JUMP JUMPDEST PUSH1 0x0 DUP1 REVERT JUMPDEST PUSH1 0x0 DUP1 REVERT JUMPDEST PUSH1 0x0 DUP2 SWAP1 POP SWAP2 SWAP1 POP JUMP JUMPDEST PUSH2 0x4E0 DUP2 PUSH2 0x4CD JUMP JUMPDEST DUP2 EQ PUSH2 0x4EB JUMPI PUSH1 0x0 DUP1 REVERT JUMPDEST POP JUMP JUMPDEST PUSH1 0x0 DUP2 CALLDATALOAD SWAP1 POP PUSH2 0x4FD DUP2 PUSH2 0x4D7 JUMP JUMPDEST SWAP3 SWAP2 POP POP JUMP JUMPDEST PUSH1 0x0 PUSH1 0x20 DUP3 DUP5 SUB SLT ISZERO PUSH2 0x519 JUMPI PUSH2 0x518 PUSH2 0x4C3 JUMP JUMPDEST JUMPDEST PUSH1 0x0 PUSH2 0x527 DUP5 DUP3 DUP6 ADD PUSH2 0x4EE JUMP JUMPDEST SWAP2 POP POP SWAP3 SWAP2 POP POP JUMP JUMPDEST PUSH2 0x539 DUP2 PUSH2 0x4CD JUMP JUMPDEST DUP3 MSTORE POP POP JUMP JUMPDEST PUSH1 0x0 PUSH1 0x20 DUP3 ADD SWAP1 POP PUSH2 0x554 PUSH1 0x0 DUP4 ADD DUP5 PUSH2 0x530 JUMP JUMPDEST SWAP3 SWAP2 POP POP JUMP JUMPDEST PUSH1 0x0 DUP2 SWAP1 POP SWAP2 SWAP1 POP JUMP JUMPDEST PUSH2 0x56D DUP2 PUSH2 0x55A JUMP JUMPDEST DUP2 EQ PUSH2 0x578 JUMPI PUSH1 0x0 DUP1 REVERT JUMPDEST POP JUMP JUMPDEST PUSH1 0x0 DUP2 CALLDATALOAD SWAP1 POP PUSH2 0x58A DUP2 PUSH2 0x564 JUMP JUMPDEST SWAP3 SWAP2 POP POP JUMP JUMPDEST PUSH1 0x0 PUSH1 0x20 DUP3 DUP5 SUB SLT ISZERO PUSH2 0x5A6 JUMPI PUSH2 0x5A5 PUSH2 0x4C3 JUMP JUMPDEST JUMPDEST PUSH1 0x0 PUSH2 0x5B4 DUP5 DUP3 DUP6 ADD PUSH2 0x57B JUMP JUMPDEST SWAP2 POP POP SWAP3 SWAP2 POP POP JUMP JUMPDEST PUSH2 0x5C6 DUP2 PUSH2 0x55A JUMP JUMPDEST DUP3 MSTORE POP POP JUMP JUMPDEST PUSH1 0x0 DUP2 MLOAD SWAP1 POP SWAP2 SWAP1 POP JUMP JUMPDEST PUSH1 0x0 DUP3 DUP3 MSTORE PUSH1 0x20 DUP3 ADD SWAP1 POP SWAP3 SWAP2 POP POP JUMP JUMPDEST PUSH1 0x0 JUMPDEST DUP4 DUP2 LT ISZERO PUSH2 0x606 JUMPI DUP1 DUP3 ADD MLOAD DUP2 DUP5 ADD MSTORE PUSH1 0x20 DUP2 ADD SWAP1 POP PUSH2 0x5EB JUMP JUMPDEST DUP4 DUP2 GT ISZERO PUSH2 0x615 JUMPI PUSH1 0x0 DUP5 DUP5 ADD MSTORE JUMPDEST POP POP POP POP JUMP JUMPDEST PUSH1 0x0 PUSH1 0x1F NOT PUSH1 0x1F DUP4 ADD AND SWAP1 POP SWAP2 SWAP1 POP JUMP JUMPDEST PUSH1 0x0 PUSH2 0x637 DUP3 PUSH2 0x5CC JUMP JUMPDEST PUSH2 0x641 DUP2 DUP6 PUSH2 0x5D7 JUMP JUMPDEST SWAP4 POP PUSH2 0x651 DUP2 DUP6 PUSH1 0x20 DUP7 ADD PUSH2 0x5E8 JUMP JUMPDEST PUSH2 0x65A DUP2 PUSH2 0x61B JUMP JUMPDEST DUP5 ADD SWAP2 POP POP SWAP3 SWAP2 POP POP JUMP JUMPDEST PUSH1 0x0 PUSH1 0xC0 DUP3 ADD SWAP1 POP PUSH2 0x67A PUSH1 0x0 DUP4 ADD DUP10 PUSH2 0x5BD JUMP JUMPDEST PUSH2 0x687 PUSH1 0x20 DUP4 ADD DUP9 PUSH2 0x5BD JUMP JUMPDEST DUP2 DUP2 SUB PUSH1 0x40 DUP4 ADD MSTORE PUSH2 0x699 DUP2 DUP8 PUSH2 0x62C JUMP JUMPDEST SWAP1 POP PUSH2 0x6A8 PUSH1 0x60 DUP4 ADD DUP7 PUSH2 0x5BD JUMP JUMPDEST PUSH2 0x6B5 PUSH1 0x80 DUP4 ADD DUP6 PUSH2 0x5BD JUMP JUMPDEST PUSH2 0x6C2 PUSH1 0xA0 DUP4 ADD DUP5 PUSH2 0x5BD JUMP JUMPDEST SWAP8 SWAP7 POP POP POP POP POP POP POP JUMP JUMPDEST PUSH1 0x0 PUSH1 0x20 DUP3 ADD SWAP1 POP PUSH2 0x6E2 PUSH1 0x0 DUP4 ADD DUP5 PUSH2 0x5BD JUMP JUMPDEST SWAP3 SWAP2 POP POP JUMP JUMPDEST PUSH1 0x0 DUP1 REVERT JUMPDEST PUSH1 0x0 DUP1 REVERT JUMPDEST PUSH32 0x4E487B7100000000000000000000000000000000000000000000000000000000 PUSH1 0x0 MSTORE PUSH1 0x41 PUSH1 0x4 MSTORE PUSH1 0x24 PUSH1 0x0 REVERT JUMPDEST PUSH2 0x72A DUP3 PUSH2 0x61B JUMP JUMPDEST DUP2 ADD DUP2 DUP2 LT PUSH8 0xFFFFFFFFFFFFFFFF DUP3 GT OR ISZERO PUSH2 0x749 JUMPI PUSH2 0x748 PUSH2 0x6F2 JUMP JUMPDEST JUMPDEST DUP1 PUSH1 0x40 MSTORE POP POP POP JUMP JUMPDEST PUSH1 0x0 PUSH2 0x75C PUSH2 0x4B9 JUMP JUMPDEST SWAP1 POP PUSH2 0x768 DUP3 DUP3 PUSH2 0x721 JUMP JUMPDEST SWAP2 SWAP1 POP JUMP JUMPDEST PUSH1 0x0 PUSH8 0xFFFFFFFFFFFFFFFF DUP3 GT ISZERO PUSH2 0x788 JUMPI PUSH2 0x787 PUSH2 0x6F2 JUMP JUMPDEST JUMPDEST PUSH2 0x791 DUP3 PUSH2 0x61B JUMP JUMPDEST SWAP1 POP PUSH1 0x20 DUP2 ADD SWAP1 POP SWAP2 SWAP1 POP JUMP JUMPDEST DUP3 DUP2 DUP4 CALLDATACOPY PUSH1 0x0 DUP4 DUP4 ADD MSTORE POP POP POP JUMP JUMPDEST PUSH1 0x0 PUSH2 0x7C0 PUSH2 0x7BB DUP5 PUSH2 0x76D JUMP JUMPDEST PUSH2 0x752 JUMP JUMPDEST SWAP1 POP DUP3 DUP2 MSTORE PUSH1 0x20 DUP2 ADD DUP5 DUP5 DUP5 ADD GT ISZERO PUSH2 0x7DC JUMPI PUSH2 0x7DB PUSH2 0x6ED JUMP JUMPDEST JUMPDEST PUSH2 0x7E7 DUP5 DUP3 DUP6 PUSH2 0x79E JUMP JUMPDEST POP SWAP4 SWAP3 POP POP POP JUMP JUMPDEST PUSH1 0x0 DUP3 PUSH1 0x1F DUP4 ADD SLT PUSH2 0x804 JUMPI PUSH2 0x803 PUSH2 0x6E8 JUMP JUMPDEST JUMPDEST DUP2 CALLDATALOAD PUSH2 0x814 DUP5 DUP3 PUSH1 0x20 DUP7 ADD PUSH2 0x7AD JUMP JUMPDEST SWAP2 POP POP SWAP3 SWAP2 POP POP JUMP JUMPDEST PUSH1 0x0 DUP1 PUSH1 0x0 DUP1 PUSH1 0x0 DUP1 PUSH1 0xC0 DUP8 DUP10 SUB SLT ISZERO PUSH2 0x83A JUMPI PUSH2 0x839 PUSH2 0x4C3 JUMP JUMPDEST JUMPDEST PUSH1 0x0 PUSH2 0x848 DUP10 DUP3 DUP11 ADD PUSH2 0x57B JUMP JUMPDEST SWAP7 POP POP PUSH1 0x20 PUSH2 0x859 DUP10 DUP3 DUP11 ADD PUSH2 0x57B JUMP JUMPDEST SWAP6 POP POP PUSH1 0x40 DUP8 ADD CALLDATALOAD PUSH8 0xFFFFFFFFFFFFFFFF DUP2 GT ISZERO PUSH2 0x87A JUMPI PUSH2 0x879 PUSH2 0x4C8 JUMP JUMPDEST JUMPDEST PUSH2 0x886 DUP10 DUP3 DUP11 ADD PUSH2 0x7EF JUMP JUMPDEST SWAP5 POP POP PUSH1 0x60 PUSH2 0x897 DUP10 DUP3 DUP11 ADD PUSH2 0x57B JUMP JUMPDEST SWAP4 POP POP PUSH1 0x80 PUSH2 0x8A8 DUP10 DUP3 DUP11 ADD PUSH2 0x57B JUMP JUMPDEST SWAP3 POP POP PUSH1 0xA0 PUSH2 0x8B9 DUP10 DUP3 DUP11 ADD PUSH2 0x57B JUMP JUMPDEST SWAP2 POP POP SWAP3 SWAP6 POP SWAP3 SWAP6 POP SWAP3 SWAP6 JUMP JUMPDEST PUSH32 0x4E487B7100000000000000000000000000000000000000000000000000000000 PUSH1 0x0 MSTORE PUSH1 0x11 PUSH1 0x4 MSTORE PUSH1 0x24 PUSH1 0x0 REVERT JUMPDEST PUSH1 0x0 PUSH2 0x900 DUP3 PUSH2 0x4CD JUMP JUMPDEST SWAP2 POP PUSH32 0x7FFFFFFFFFFFFFFFFFFFFFFFFFFFFFFFFFFFFFFFFFFFFFFFFFFFFFFFFFFFFFFF DUP3 SUB PUSH2 0x932 JUMPI PUSH2 0x931 PUSH2 0x8C6 JUMP JUMPDEST JUMPDEST PUSH1 0x1 DUP3 ADD SWAP1 POP SWAP2 SWAP1 POP JUMP JUMPDEST PUSH32 0x4E487B7100000000000000000000000000000000000000000000000000000000 PUSH1 0x0 MSTORE PUSH1 0x22 PUSH1 0x4 MSTORE PUSH1 0x24 PUSH1 0x0 REVERT JUMPDEST PUSH1 0x0 PUSH1 0x2 DUP3 DIV SWAP1 POP PUSH1 0x1 DUP3 AND DUP1 PUSH2 0x984 JUMPI PUSH1 0x7F DUP3 AND SWAP2 POP JUMPDEST PUSH1 0x20 DUP3 LT DUP2 SUB PUSH2 0x997 JUMPI PUSH2 0x996 PUSH2 0x93D JUMP JUMPDEST JUMPDEST POP SWAP2 SWAP1 POP JUMP JUMPDEST PUSH1 0x0 PUSH2 0x9A8 DUP3 PUSH2 0x55A JUMP JUMPDEST SWAP2 POP PUSH2 0x9B3 DUP4 PUSH2 0x55A JUMP JUMPDEST SWAP3 POP DUP3 PUSH32 0xFFFFFFFFFFFFFFFFFFFFFFFFFFFFFFFFFFFFFFFFFFFFFFFFFFFFFFFFFFFFFFFF SUB DUP3 GT ISZERO PUSH2 0x9E8 JUMPI PUSH2 0x9E7 PUSH2 0x8C6 JUMP JUMPDEST JUMPDEST DUP3 DUP3 ADD SWAP1 POP SWAP3 SWAP2 POP POP JUMP INVALID LOG2 PUSH5 0x6970667358 0x22 SLT KECCAK256 0xE4 ADD 0xA6 0x27 0xCC ORIGIN SWAP11 SLT 0xEB OR STATICCALL JUMPI 0x2D 0x5F 0xC3 0x26 SWAP5 0xFC JUMP 0xD5 PUSH17 0xD0FCABE6F10433C9A6564A64736F6C6343 STOP ADDMOD 0xD STOP CALLER "
				},
				"gasEstimates": {
					"creation": {
						"codeDepositCost": "520200",
						"executionCost": "5562",
						"totalCost": "525762"
					},
					"external": {
						"addPerson(uint256,uint256,string,uint256,uint256,uint256)": "infinite",
						"count(int256)": "infinite",
						"getPerson(uint256)": "infinite",
						"people(uint256)": "infinite",
						"peopleCount()": "2451"
					},
					"internal": {
						"incrementCount()": "infinite"
					}
				},
				"methodIdentifiers": {
					"addPerson(uint256,uint256,string,uint256,uint256,uint256)": "2d74e28a",
					"count(int256)": "0400c2e7",
					"getPerson(uint256)": "246982c4",
					"people(uint256)": "9e7a13ad",
					"peopleCount()": "267c68e0"
				}
			},
			"userdoc": {
				"kind": "user",
				"methods": {},
				"version": 1
			}
		}
	}
}