{
	"ETH-Remix/HungerGames/HungerGames.sol": {
		"HungerGames": {
			"abi": [
				{
					"inputs": [
						{
							"internalType": "uint256",
							"name": "_id",
							"type": "uint256"
						},
						{
							"internalType": "string",
							"name": "_name",
							"type": "string"
						},
						{
							"internalType": "uint256",
							"name": "_weight",
							"type": "uint256"
						},
						{
							"internalType": "uint256",
							"name": "_bet",
							"type": "uint256"
						},
						{
							"internalType": "address payable",
							"name": "_receiver",
							"type": "address"
						}
					],
					"name": "addPerson",
					"outputs": [],
					"stateMutability": "nonpayable",
					"type": "function"
				},
				{
					"inputs": [
						{
							"internalType": "address payable",
							"name": "winner",
							"type": "address"
						}
					],
					"name": "collectPrize",
					"outputs": [],
					"stateMutability": "nonpayable",
					"type": "function"
				},
				{
					"inputs": [
						{
							"internalType": "address",
							"name": "winner",
							"type": "address"
						}
					],
					"name": "depositBet",
					"outputs": [],
					"stateMutability": "payable",
					"type": "function"
				},
				{
					"inputs": [
						{
							"internalType": "address",
							"name": "",
							"type": "address"
						}
					],
					"name": "deposits",
					"outputs": [
						{
							"internalType": "uint256",
							"name": "",
							"type": "uint256"
						}
					],
					"stateMutability": "view",
					"type": "function"
				},
				{
					"inputs": [
						{
							"internalType": "uint256",
							"name": "_index",
							"type": "uint256"
						}
					],
					"name": "getPerson",
					"outputs": [
						{
							"internalType": "uint256",
							"name": "",
							"type": "uint256"
						},
						{
							"internalType": "string",
							"name": "",
							"type": "string"
						},
						{
							"internalType": "uint256",
							"name": "",
							"type": "uint256"
						},
						{
							"internalType": "uint256",
							"name": "",
							"type": "uint256"
						},
						{
							"internalType": "address payable",
							"name": "",
							"type": "address"
						}
					],
					"stateMutability": "view",
					"type": "function"
				},
				{
					"inputs": [],
					"name": "owner",
					"outputs": [
						{
							"internalType": "address",
							"name": "",
							"type": "address"
						}
					],
					"stateMutability": "view",
					"type": "function"
				},
				{
					"inputs": [
						{
							"internalType": "uint256",
							"name": "",
							"type": "uint256"
						}
					],
					"name": "people",
					"outputs": [
						{
							"internalType": "uint256",
							"name": "_id",
							"type": "uint256"
						},
						{
							"internalType": "string",
							"name": "_name",
							"type": "string"
						},
						{
							"internalType": "uint256",
							"name": "_weight",
							"type": "uint256"
						},
						{
							"internalType": "uint256",
							"name": "_bet",
							"type": "uint256"
						},
						{
							"internalType": "address payable",
							"name": "_receiver",
							"type": "address"
						}
					],
					"stateMutability": "view",
					"type": "function"
				},
				{
					"inputs": [],
					"name": "peopleCount",
					"outputs": [
						{
							"internalType": "uint256",
							"name": "",
							"type": "uint256"
						}
					],
					"stateMutability": "view",
					"type": "function"
				}
			],
			"devdoc": {
				"kind": "dev",
				"methods": {},
				"version": 1
			},
			"evm": {
				"assembly": "    /* \"ETH-Remix/HungerGames/HungerGames.sol\":479:1978  contract HungerGames is Ownable, Timeable {... */\n  mstore(0x40, 0x80)\n    /* \"ETH-Remix/HungerGames/TimeoftheGames.sol\":114:124  1648436401 */\n  0x624124b1\n    /* \"ETH-Remix/HungerGames/TimeoftheGames.sol\":95:124  uint openingTime = 1648436401 */\n  0x01\n  sstore\n    /* \"ETH-Remix/HungerGames/HungerGames.sol\":582:583  0 */\n  0x00\n    /* \"ETH-Remix/HungerGames/HungerGames.sol\":553:583  uint256 public peopleCount = 0 */\n  0x02\n  sstore\n    /* \"ETH-Remix/HungerGames/HungerGames.sol\":479:1978  contract HungerGames is Ownable, Timeable {... */\n  callvalue\n  dup1\n  iszero\n  tag_1\n  jumpi\n  0x00\n  dup1\n  revert\ntag_1:\n  pop\n    /* \"ETH-Remix/HungerGames/Ownable.sol\":262:272  msg.sender */\n  caller\n    /* \"ETH-Remix/HungerGames/Ownable.sol\":254:259  owner */\n  0x00\n  dup1\n    /* \"ETH-Remix/HungerGames/Ownable.sol\":254:272  owner = msg.sender */\n  0x0100\n  exp\n  dup2\n  sload\n  dup2\n  0xffffffffffffffffffffffffffffffffffffffff\n  mul\n  not\n  and\n  swap1\n  dup4\n  0xffffffffffffffffffffffffffffffffffffffff\n  and\n  mul\n  or\n  swap1\n  sstore\n  pop\n    /* \"ETH-Remix/HungerGames/HungerGames.sol\":479:1978  contract HungerGames is Ownable, Timeable {... */\n  dataSize(sub_0)\n  dup1\n  dataOffset(sub_0)\n  0x00\n  codecopy\n  0x00\n  return\nstop\n\nsub_0: assembly {\n        /* \"ETH-Remix/HungerGames/HungerGames.sol\":479:1978  contract HungerGames is Ownable, Timeable {... */\n      mstore(0x40, 0x80)\n      jumpi(tag_1, lt(calldatasize, 0x04))\n      shr(0xe0, calldataload(0x00))\n      dup1\n      0x8954a294\n      gt\n      tag_10\n      jumpi\n      dup1\n      0x8954a294\n      eq\n      tag_6\n      jumpi\n      dup1\n      0x8da5cb5b\n      eq\n      tag_7\n      jumpi\n      dup1\n      0x9e7a13ad\n      eq\n      tag_8\n      jumpi\n      dup1\n      0xfc7e286d\n      eq\n      tag_9\n      jumpi\n      jump(tag_1)\n    tag_10:\n      dup1\n      0x152c3363\n      eq\n      tag_2\n      jumpi\n      dup1\n      0x18d875df\n      eq\n      tag_3\n      jumpi\n      dup1\n      0x246982c4\n      eq\n      tag_4\n      jumpi\n      dup1\n      0x267c68e0\n      eq\n      tag_5\n      jumpi\n    tag_1:\n      0x00\n      dup1\n      revert\n        /* \"ETH-Remix/HungerGames/HungerGames.sol\":1674:1822  function depositBet(address winner) public payable {... */\n    tag_2:\n      tag_11\n      0x04\n      dup1\n      calldatasize\n      sub\n      dup2\n      add\n      swap1\n      tag_12\n      swap2\n      swap1\n      tag_13\n      jump\t// in\n    tag_12:\n      tag_14\n      jump\t// in\n    tag_11:\n      stop\n        /* \"ETH-Remix/HungerGames/HungerGames.sol\":969:1221  function addPerson(uint _id, string memory _name, uint _weight, uint _bet, address payable _receiver)... */\n    tag_3:\n      callvalue\n      dup1\n      iszero\n      tag_15\n      jumpi\n      0x00\n      dup1\n      revert\n    tag_15:\n      pop\n      tag_16\n      0x04\n      dup1\n      calldatasize\n      sub\n      dup2\n      add\n      swap1\n      tag_17\n      swap2\n      swap1\n      tag_18\n      jump\t// in\n    tag_17:\n      tag_19\n      jump\t// in\n    tag_16:\n      stop\n        /* \"ETH-Remix/HungerGames/HungerGames.sol\":1307:1617  function getPerson(uint _index) public view returns (uint, string memory, uint, uint, address payable) {... */\n    tag_4:\n      callvalue\n      dup1\n      iszero\n      tag_20\n      jumpi\n      0x00\n      dup1\n      revert\n    tag_20:\n      pop\n      tag_21\n      0x04\n      dup1\n      calldatasize\n      sub\n      dup2\n      add\n      swap1\n      tag_22\n      swap2\n      swap1\n      tag_23\n      jump\t// in\n    tag_22:\n      tag_24\n      jump\t// in\n    tag_21:\n      mload(0x40)\n      tag_25\n      swap6\n      swap5\n      swap4\n      swap3\n      swap2\n      swap1\n      tag_26\n      jump\t// in\n    tag_25:\n      mload(0x40)\n      dup1\n      swap2\n      sub\n      swap1\n      return\n        /* \"ETH-Remix/HungerGames/HungerGames.sol\":553:583  uint256 public peopleCount = 0 */\n    tag_5:\n      callvalue\n      dup1\n      iszero\n      tag_27\n      jumpi\n      0x00\n      dup1\n      revert\n    tag_27:\n      pop\n      tag_28\n      tag_29\n      jump\t// in\n    tag_28:\n      mload(0x40)\n      tag_30\n      swap2\n      swap1\n      tag_31\n      jump\t// in\n    tag_30:\n      mload(0x40)\n      dup1\n      swap2\n      sub\n      swap1\n      return\n        /* \"ETH-Remix/HungerGames/HungerGames.sol\":1830:1971  function collectPrize(address payable winner) public{... */\n    tag_6:\n      callvalue\n      dup1\n      iszero\n      tag_32\n      jumpi\n      0x00\n      dup1\n      revert\n    tag_32:\n      pop\n      tag_33\n      0x04\n      dup1\n      calldatasize\n      sub\n      dup2\n      add\n      swap1\n      tag_34\n      swap2\n      swap1\n      tag_35\n      jump\t// in\n    tag_34:\n      tag_36\n      jump\t// in\n    tag_33:\n      stop\n        /* \"ETH-Remix/HungerGames/Ownable.sol\":92:112  address public owner */\n    tag_7:\n      callvalue\n      dup1\n      iszero\n      tag_37\n      jumpi\n      0x00\n      dup1\n      revert\n    tag_37:\n      pop\n      tag_38\n      tag_39\n      jump\t// in\n    tag_38:\n      mload(0x40)\n      tag_40\n      swap2\n      swap1\n      tag_41\n      jump\t// in\n    tag_40:\n      mload(0x40)\n      dup1\n      swap2\n      sub\n      swap1\n      return\n        /* \"ETH-Remix/HungerGames/HungerGames.sol\":592:629  mapping(uint => Person) public people */\n    tag_8:\n      callvalue\n      dup1\n      iszero\n      tag_42\n      jumpi\n      0x00\n      dup1\n      revert\n    tag_42:\n      pop\n      tag_43\n      0x04\n      dup1\n      calldatasize\n      sub\n      dup2\n      add\n      swap1\n      tag_44\n      swap2\n      swap1\n      tag_23\n      jump\t// in\n    tag_44:\n      tag_45\n      jump\t// in\n    tag_43:\n      mload(0x40)\n      tag_46\n      swap6\n      swap5\n      swap4\n      swap3\n      swap2\n      swap1\n      tag_26\n      jump\t// in\n    tag_46:\n      mload(0x40)\n      dup1\n      swap2\n      sub\n      swap1\n      return\n        /* \"ETH-Remix/HungerGames/HungerGames.sol\":1625:1665  mapping(address => uint) public deposits */\n    tag_9:\n      callvalue\n      dup1\n      iszero\n      tag_47\n      jumpi\n      0x00\n      dup1\n      revert\n    tag_47:\n      pop\n      tag_48\n      0x04\n      dup1\n      calldatasize\n      sub\n      dup2\n      add\n      swap1\n      tag_49\n      swap2\n      swap1\n      tag_13\n      jump\t// in\n    tag_49:\n      tag_50\n      jump\t// in\n    tag_48:\n      mload(0x40)\n      tag_51\n      swap2\n      swap1\n      tag_31\n      jump\t// in\n    tag_51:\n      mload(0x40)\n      dup1\n      swap2\n      sub\n      swap1\n      return\n        /* \"ETH-Remix/HungerGames/HungerGames.sol\":1674:1822  function depositBet(address winner) public payable {... */\n    tag_14:\n        /* \"ETH-Remix/HungerGames/HungerGames.sol\":1736:1747  uint amount */\n      0x00\n        /* \"ETH-Remix/HungerGames/HungerGames.sol\":1750:1759  msg.value */\n      callvalue\n        /* \"ETH-Remix/HungerGames/HungerGames.sol\":1736:1759  uint amount = msg.value */\n      swap1\n      pop\n        /* \"ETH-Remix/HungerGames/HungerGames.sol\":1808:1814  amount */\n      dup1\n        /* \"ETH-Remix/HungerGames/HungerGames.sol\":1789:1797  deposits */\n      0x04\n        /* \"ETH-Remix/HungerGames/HungerGames.sol\":1789:1805  deposits[winner] */\n      0x00\n        /* \"ETH-Remix/HungerGames/HungerGames.sol\":1798:1804  winner */\n      dup5\n        /* \"ETH-Remix/HungerGames/HungerGames.sol\":1789:1805  deposits[winner] */\n      0xffffffffffffffffffffffffffffffffffffffff\n      and\n      0xffffffffffffffffffffffffffffffffffffffff\n      and\n      dup2\n      mstore\n      0x20\n      add\n      swap1\n      dup2\n      mstore\n      0x20\n      add\n      0x00\n      keccak256\n      sload\n        /* \"ETH-Remix/HungerGames/HungerGames.sol\":1789:1814  deposits[winner] + amount */\n      tag_53\n      swap2\n      swap1\n      tag_54\n      jump\t// in\n    tag_53:\n        /* \"ETH-Remix/HungerGames/HungerGames.sol\":1770:1778  deposits */\n      0x04\n        /* \"ETH-Remix/HungerGames/HungerGames.sol\":1770:1786  deposits[winner] */\n      0x00\n        /* \"ETH-Remix/HungerGames/HungerGames.sol\":1779:1785  winner */\n      dup5\n        /* \"ETH-Remix/HungerGames/HungerGames.sol\":1770:1786  deposits[winner] */\n      0xffffffffffffffffffffffffffffffffffffffff\n      and\n      0xffffffffffffffffffffffffffffffffffffffff\n      and\n      dup2\n      mstore\n      0x20\n      add\n      swap1\n      dup2\n      mstore\n      0x20\n      add\n      0x00\n      keccak256\n        /* \"ETH-Remix/HungerGames/HungerGames.sol\":1770:1814  deposits[winner] = deposits[winner] + amount */\n      dup2\n      swap1\n      sstore\n      pop\n        /* \"ETH-Remix/HungerGames/HungerGames.sol\":1725:1822  {... */\n      pop\n        /* \"ETH-Remix/HungerGames/HungerGames.sol\":1674:1822  function depositBet(address winner) public payable {... */\n      pop\n      jump\t// out\n        /* \"ETH-Remix/HungerGames/HungerGames.sol\":969:1221  function addPerson(uint _id, string memory _name, uint _weight, uint _bet, address payable _receiver)... */\n    tag_19:\n        /* \"ETH-Remix/HungerGames/Ownable.sol\":173:178  owner */\n      0x00\n      dup1\n      sload\n      swap1\n      0x0100\n      exp\n      swap1\n      div\n      0xffffffffffffffffffffffffffffffffffffffff\n      and\n        /* \"ETH-Remix/HungerGames/Ownable.sol\":159:178  msg.sender == owner */\n      0xffffffffffffffffffffffffffffffffffffffff\n      and\n        /* \"ETH-Remix/HungerGames/Ownable.sol\":159:169  msg.sender */\n      caller\n        /* \"ETH-Remix/HungerGames/Ownable.sol\":159:178  msg.sender == owner */\n      0xffffffffffffffffffffffffffffffffffffffff\n      and\n      eq\n        /* \"ETH-Remix/HungerGames/Ownable.sol\":151:179  require(msg.sender == owner) */\n      tag_56\n      jumpi\n      0x00\n      dup1\n      revert\n    tag_56:\n        /* \"ETH-Remix/HungerGames/TimeoftheGames.sol\":194:205  openingTime */\n      sload(0x01)\n        /* \"ETH-Remix/HungerGames/TimeoftheGames.sol\":175:190  block.timestamp */\n      timestamp\n        /* \"ETH-Remix/HungerGames/TimeoftheGames.sol\":175:205  block.timestamp >= openingTime */\n      lt\n      iszero\n        /* \"ETH-Remix/HungerGames/TimeoftheGames.sol\":167:206  require(block.timestamp >= openingTime) */\n      tag_58\n      jumpi\n      0x00\n      dup1\n      revert\n    tag_58:\n        /* \"ETH-Remix/HungerGames/HungerGames.sol\":1119:1135  incrementCount() */\n      tag_60\n        /* \"ETH-Remix/HungerGames/HungerGames.sol\":1119:1133  incrementCount */\n      tag_61\n        /* \"ETH-Remix/HungerGames/HungerGames.sol\":1119:1135  incrementCount() */\n      jump\t// in\n    tag_60:\n        /* \"ETH-Remix/HungerGames/HungerGames.sol\":1168:1213  Person(_id , _name, _weight, _bet, _receiver) */\n      mload(0x40)\n      dup1\n      0xa0\n      add\n      0x40\n      mstore\n      dup1\n        /* \"ETH-Remix/HungerGames/HungerGames.sol\":1175:1178  _id */\n      dup7\n        /* \"ETH-Remix/HungerGames/HungerGames.sol\":1168:1213  Person(_id , _name, _weight, _bet, _receiver) */\n      dup2\n      mstore\n      0x20\n      add\n        /* \"ETH-Remix/HungerGames/HungerGames.sol\":1181:1186  _name */\n      dup6\n        /* \"ETH-Remix/HungerGames/HungerGames.sol\":1168:1213  Person(_id , _name, _weight, _bet, _receiver) */\n      dup2\n      mstore\n      0x20\n      add\n        /* \"ETH-Remix/HungerGames/HungerGames.sol\":1188:1195  _weight */\n      dup5\n        /* \"ETH-Remix/HungerGames/HungerGames.sol\":1168:1213  Person(_id , _name, _weight, _bet, _receiver) */\n      dup2\n      mstore\n      0x20\n      add\n        /* \"ETH-Remix/HungerGames/HungerGames.sol\":1197:1201  _bet */\n      dup4\n        /* \"ETH-Remix/HungerGames/HungerGames.sol\":1168:1213  Person(_id , _name, _weight, _bet, _receiver) */\n      dup2\n      mstore\n      0x20\n      add\n        /* \"ETH-Remix/HungerGames/HungerGames.sol\":1203:1212  _receiver */\n      dup3\n        /* \"ETH-Remix/HungerGames/HungerGames.sol\":1168:1213  Person(_id , _name, _weight, _bet, _receiver) */\n      0xffffffffffffffffffffffffffffffffffffffff\n      and\n      dup2\n      mstore\n      pop\n        /* \"ETH-Remix/HungerGames/HungerGames.sol\":1146:1152  people */\n      0x03\n        /* \"ETH-Remix/HungerGames/HungerGames.sol\":1146:1165  people[peopleCount] */\n      0x00\n        /* \"ETH-Remix/HungerGames/HungerGames.sol\":1153:1164  peopleCount */\n      sload(0x02)\n        /* \"ETH-Remix/HungerGames/HungerGames.sol\":1146:1165  people[peopleCount] */\n      dup2\n      mstore\n      0x20\n      add\n      swap1\n      dup2\n      mstore\n      0x20\n      add\n      0x00\n      keccak256\n        /* \"ETH-Remix/HungerGames/HungerGames.sol\":1146:1213  people[peopleCount] = Person(_id , _name, _weight, _bet, _receiver) */\n      0x00\n      dup3\n      add\n      mload\n      dup2\n      0x00\n      add\n      sstore\n      0x20\n      dup3\n      add\n      mload\n      dup2\n      0x01\n      add\n      swap1\n      dup1\n      mload\n      swap1\n      0x20\n      add\n      swap1\n      tag_62\n      swap3\n      swap2\n      swap1\n      tag_63\n      jump\t// in\n    tag_62:\n      pop\n      0x40\n      dup3\n      add\n      mload\n      dup2\n      0x02\n      add\n      sstore\n      0x60\n      dup3\n      add\n      mload\n      dup2\n      0x03\n      add\n      sstore\n      0x80\n      dup3\n      add\n      mload\n      dup2\n      0x04\n      add\n      exp(0x0100, 0x00)\n      dup2\n      sload\n      dup2\n      0xffffffffffffffffffffffffffffffffffffffff\n      mul\n      not\n      and\n      swap1\n      dup4\n      0xffffffffffffffffffffffffffffffffffffffff\n      and\n      mul\n      or\n      swap1\n      sstore\n      pop\n      swap1\n      pop\n      pop\n        /* \"ETH-Remix/HungerGames/HungerGames.sol\":969:1221  function addPerson(uint _id, string memory _name, uint _weight, uint _bet, address payable _receiver)... */\n      pop\n      pop\n      pop\n      pop\n      pop\n      jump\t// out\n        /* \"ETH-Remix/HungerGames/HungerGames.sol\":1307:1617  function getPerson(uint _index) public view returns (uint, string memory, uint, uint, address payable) {... */\n    tag_24:\n        /* \"ETH-Remix/HungerGames/HungerGames.sol\":1360:1364  uint */\n      0x00\n        /* \"ETH-Remix/HungerGames/HungerGames.sol\":1366:1379  string memory */\n      0x60\n        /* \"ETH-Remix/HungerGames/HungerGames.sol\":1381:1385  uint */\n      0x00\n        /* \"ETH-Remix/HungerGames/HungerGames.sol\":1387:1391  uint */\n      dup1\n        /* \"ETH-Remix/HungerGames/HungerGames.sol\":1393:1408  address payable */\n      0x00\n        /* \"ETH-Remix/HungerGames/HungerGames.sol\":1421:1449  Person memory personToReturn */\n      dup1\n        /* \"ETH-Remix/HungerGames/HungerGames.sol\":1452:1458  people */\n      0x03\n        /* \"ETH-Remix/HungerGames/HungerGames.sol\":1452:1466  people[_index] */\n      0x00\n        /* \"ETH-Remix/HungerGames/HungerGames.sol\":1459:1465  _index */\n      dup9\n        /* \"ETH-Remix/HungerGames/HungerGames.sol\":1452:1466  people[_index] */\n      dup2\n      mstore\n      0x20\n      add\n      swap1\n      dup2\n      mstore\n      0x20\n      add\n      0x00\n      keccak256\n        /* \"ETH-Remix/HungerGames/HungerGames.sol\":1421:1466  Person memory personToReturn = people[_index] */\n      mload(0x40)\n      dup1\n      0xa0\n      add\n      0x40\n      mstore\n      swap1\n      dup2\n      0x00\n      dup3\n      add\n      sload\n      dup2\n      mstore\n      0x20\n      add\n      0x01\n      dup3\n      add\n      dup1\n      sload\n      tag_65\n      swap1\n      tag_66\n      jump\t// in\n    tag_65:\n      dup1\n      0x1f\n      add\n      0x20\n      dup1\n      swap2\n      div\n      mul\n      0x20\n      add\n      mload(0x40)\n      swap1\n      dup2\n      add\n      0x40\n      mstore\n      dup1\n      swap3\n      swap2\n      swap1\n      dup2\n      dup2\n      mstore\n      0x20\n      add\n      dup3\n      dup1\n      sload\n      tag_67\n      swap1\n      tag_66\n      jump\t// in\n    tag_67:\n      dup1\n      iszero\n      tag_68\n      jumpi\n      dup1\n      0x1f\n      lt\n      tag_69\n      jumpi\n      0x0100\n      dup1\n      dup4\n      sload\n      div\n      mul\n      dup4\n      mstore\n      swap2\n      0x20\n      add\n      swap2\n      jump(tag_68)\n    tag_69:\n      dup3\n      add\n      swap2\n      swap1\n      0x00\n      mstore\n      keccak256(0x00, 0x20)\n      swap1\n    tag_70:\n      dup2\n      sload\n      dup2\n      mstore\n      swap1\n      0x01\n      add\n      swap1\n      0x20\n      add\n      dup1\n      dup4\n      gt\n      tag_70\n      jumpi\n      dup3\n      swap1\n      sub\n      0x1f\n      and\n      dup3\n      add\n      swap2\n    tag_68:\n      pop\n      pop\n      pop\n      pop\n      pop\n      dup2\n      mstore\n      0x20\n      add\n      0x02\n      dup3\n      add\n      sload\n      dup2\n      mstore\n      0x20\n      add\n      0x03\n      dup3\n      add\n      sload\n      dup2\n      mstore\n      0x20\n      add\n      0x04\n      dup3\n      add\n      0x00\n      swap1\n      sload\n      swap1\n      0x0100\n      exp\n      swap1\n      div\n      0xffffffffffffffffffffffffffffffffffffffff\n      and\n      0xffffffffffffffffffffffffffffffffffffffff\n      and\n      0xffffffffffffffffffffffffffffffffffffffff\n      and\n      dup2\n      mstore\n      pop\n      pop\n      swap1\n      pop\n        /* \"ETH-Remix/HungerGames/HungerGames.sol\":1485:1499  personToReturn */\n      dup1\n        /* \"ETH-Remix/HungerGames/HungerGames.sol\":1485:1503  personToReturn._id */\n      0x00\n      add\n      mload\n        /* \"ETH-Remix/HungerGames/HungerGames.sol\":1505:1519  personToReturn */\n      dup2\n        /* \"ETH-Remix/HungerGames/HungerGames.sol\":1505:1525  personToReturn._name */\n      0x20\n      add\n      mload\n        /* \"ETH-Remix/HungerGames/HungerGames.sol\":1527:1541  personToReturn */\n      dup3\n        /* \"ETH-Remix/HungerGames/HungerGames.sol\":1527:1549  personToReturn._weight */\n      0x40\n      add\n      mload\n        /* \"ETH-Remix/HungerGames/HungerGames.sol\":1551:1565  personToReturn */\n      dup4\n        /* \"ETH-Remix/HungerGames/HungerGames.sol\":1551:1570  personToReturn._bet */\n      0x60\n      add\n      mload\n        /* \"ETH-Remix/HungerGames/HungerGames.sol\":1581:1595  personToReturn */\n      dup5\n        /* \"ETH-Remix/HungerGames/HungerGames.sol\":1581:1605  personToReturn._receiver */\n      0x80\n      add\n      mload\n        /* \"ETH-Remix/HungerGames/HungerGames.sol\":1477:1606  return (personToReturn._id, personToReturn._name, personToReturn._weight, personToReturn._bet,... */\n      swap6\n      pop\n      swap6\n      pop\n      swap6\n      pop\n      swap6\n      pop\n      swap6\n      pop\n      pop\n        /* \"ETH-Remix/HungerGames/HungerGames.sol\":1307:1617  function getPerson(uint _index) public view returns (uint, string memory, uint, uint, address payable) {... */\n      swap2\n      swap4\n      swap6\n      swap1\n      swap3\n      swap5\n      pop\n      jump\t// out\n        /* \"ETH-Remix/HungerGames/HungerGames.sol\":553:583  uint256 public peopleCount = 0 */\n    tag_29:\n      sload(0x02)\n      dup2\n      jump\t// out\n        /* \"ETH-Remix/HungerGames/HungerGames.sol\":1830:1971  function collectPrize(address payable winner) public{... */\n    tag_36:\n        /* \"ETH-Remix/HungerGames/HungerGames.sol\":1893:1903  uint Prize */\n      0x00\n        /* \"ETH-Remix/HungerGames/HungerGames.sol\":1906:1914  deposits */\n      0x04\n        /* \"ETH-Remix/HungerGames/HungerGames.sol\":1906:1922  deposits[winner] */\n      0x00\n        /* \"ETH-Remix/HungerGames/HungerGames.sol\":1915:1921  winner */\n      dup4\n        /* \"ETH-Remix/HungerGames/HungerGames.sol\":1906:1922  deposits[winner] */\n      0xffffffffffffffffffffffffffffffffffffffff\n      and\n      0xffffffffffffffffffffffffffffffffffffffff\n      and\n      dup2\n      mstore\n      0x20\n      add\n      swap1\n      dup2\n      mstore\n      0x20\n      add\n      0x00\n      keccak256\n      sload\n        /* \"ETH-Remix/HungerGames/HungerGames.sol\":1893:1922  uint Prize = deposits[winner] */\n      swap1\n      pop\n        /* \"ETH-Remix/HungerGames/HungerGames.sol\":1952:1953  0 */\n      0x00\n        /* \"ETH-Remix/HungerGames/HungerGames.sol\":1933:1941  deposits */\n      0x04\n        /* \"ETH-Remix/HungerGames/HungerGames.sol\":1933:1949  deposits[winner] */\n      0x00\n        /* \"ETH-Remix/HungerGames/HungerGames.sol\":1942:1948  winner */\n      dup5\n        /* \"ETH-Remix/HungerGames/HungerGames.sol\":1933:1949  deposits[winner] */\n      0xffffffffffffffffffffffffffffffffffffffff\n      and\n      0xffffffffffffffffffffffffffffffffffffffff\n      and\n      dup2\n      mstore\n      0x20\n      add\n      swap1\n      dup2\n      mstore\n      0x20\n      add\n      0x00\n      keccak256\n        /* \"ETH-Remix/HungerGames/HungerGames.sol\":1933:1953  deposits[winner] = 0 */\n      dup2\n      swap1\n      sstore\n      pop\n        /* \"ETH-Remix/HungerGames/HungerGames.sol\":1882:1971  {... */\n      pop\n        /* \"ETH-Remix/HungerGames/HungerGames.sol\":1830:1971  function collectPrize(address payable winner) public{... */\n      pop\n      jump\t// out\n        /* \"ETH-Remix/HungerGames/Ownable.sol\":92:112  address public owner */\n    tag_39:\n      0x00\n      dup1\n      sload\n      swap1\n      0x0100\n      exp\n      swap1\n      div\n      0xffffffffffffffffffffffffffffffffffffffff\n      and\n      dup2\n      jump\t// out\n        /* \"ETH-Remix/HungerGames/HungerGames.sol\":592:629  mapping(uint => Person) public people */\n    tag_45:\n      mstore(0x20, 0x03)\n      dup1\n      0x00\n      mstore\n      keccak256(0x00, 0x40)\n      0x00\n      swap2\n      pop\n      swap1\n      pop\n      dup1\n      0x00\n      add\n      sload\n      swap1\n      dup1\n      0x01\n      add\n      dup1\n      sload\n      tag_72\n      swap1\n      tag_66\n      jump\t// in\n    tag_72:\n      dup1\n      0x1f\n      add\n      0x20\n      dup1\n      swap2\n      div\n      mul\n      0x20\n      add\n      mload(0x40)\n      swap1\n      dup2\n      add\n      0x40\n      mstore\n      dup1\n      swap3\n      swap2\n      swap1\n      dup2\n      dup2\n      mstore\n      0x20\n      add\n      dup3\n      dup1\n      sload\n      tag_73\n      swap1\n      tag_66\n      jump\t// in\n    tag_73:\n      dup1\n      iszero\n      tag_74\n      jumpi\n      dup1\n      0x1f\n      lt\n      tag_75\n      jumpi\n      0x0100\n      dup1\n      dup4\n      sload\n      div\n      mul\n      dup4\n      mstore\n      swap2\n      0x20\n      add\n      swap2\n      jump(tag_74)\n    tag_75:\n      dup3\n      add\n      swap2\n      swap1\n      0x00\n      mstore\n      keccak256(0x00, 0x20)\n      swap1\n    tag_76:\n      dup2\n      sload\n      dup2\n      mstore\n      swap1\n      0x01\n      add\n      swap1\n      0x20\n      add\n      dup1\n      dup4\n      gt\n      tag_76\n      jumpi\n      dup3\n      swap1\n      sub\n      0x1f\n      and\n      dup3\n      add\n      swap2\n    tag_74:\n      pop\n      pop\n      pop\n      pop\n      pop\n      swap1\n      dup1\n      0x02\n      add\n      sload\n      swap1\n      dup1\n      0x03\n      add\n      sload\n      swap1\n      dup1\n      0x04\n      add\n      0x00\n      swap1\n      sload\n      swap1\n      0x0100\n      exp\n      swap1\n      div\n      0xffffffffffffffffffffffffffffffffffffffff\n      and\n      swap1\n      pop\n      dup6\n      jump\t// out\n        /* \"ETH-Remix/HungerGames/HungerGames.sol\":1625:1665  mapping(address => uint) public deposits */\n    tag_50:\n      mstore(0x20, 0x04)\n      dup1\n      0x00\n      mstore\n      keccak256(0x00, 0x40)\n      0x00\n      swap2\n      pop\n      swap1\n      pop\n      sload\n      dup2\n      jump\t// out\n        /* \"ETH-Remix/HungerGames/HungerGames.sol\":1229:1299  function incrementCount() internal {... */\n    tag_61:\n        /* \"ETH-Remix/HungerGames/HungerGames.sol\":1290:1291  1 */\n      0x01\n        /* \"ETH-Remix/HungerGames/HungerGames.sol\":1275:1286  peopleCount */\n      0x02\n      0x00\n        /* \"ETH-Remix/HungerGames/HungerGames.sol\":1275:1291  peopleCount += 1 */\n      dup3\n      dup3\n      sload\n      tag_78\n      swap2\n      swap1\n      tag_54\n      jump\t// in\n    tag_78:\n      swap3\n      pop\n      pop\n      dup2\n      swap1\n      sstore\n      pop\n        /* \"ETH-Remix/HungerGames/HungerGames.sol\":1229:1299  function incrementCount() internal {... */\n      jump\t// out\n    tag_63:\n      dup3\n      dup1\n      sload\n      tag_79\n      swap1\n      tag_66\n      jump\t// in\n    tag_79:\n      swap1\n      0x00\n      mstore\n      keccak256(0x00, 0x20)\n      swap1\n      0x1f\n      add\n      0x20\n      swap1\n      div\n      dup2\n      add\n      swap3\n      dup3\n      tag_81\n      jumpi\n      0x00\n      dup6\n      sstore\n      jump(tag_80)\n    tag_81:\n      dup3\n      0x1f\n      lt\n      tag_82\n      jumpi\n      dup1\n      mload\n      not(0xff)\n      and\n      dup4\n      dup1\n      add\n      or\n      dup6\n      sstore\n      jump(tag_80)\n    tag_82:\n      dup3\n      dup1\n      add\n      0x01\n      add\n      dup6\n      sstore\n      dup3\n      iszero\n      tag_80\n      jumpi\n      swap2\n      dup3\n      add\n    tag_83:\n      dup3\n      dup2\n      gt\n      iszero\n      tag_84\n      jumpi\n      dup3\n      mload\n      dup3\n      sstore\n      swap2\n      0x20\n      add\n      swap2\n      swap1\n      0x01\n      add\n      swap1\n      jump(tag_83)\n    tag_84:\n    tag_80:\n      pop\n      swap1\n      pop\n      tag_85\n      swap2\n      swap1\n      tag_86\n      jump\t// in\n    tag_85:\n      pop\n      swap1\n      jump\t// out\n    tag_86:\n    tag_87:\n      dup1\n      dup3\n      gt\n      iszero\n      tag_88\n      jumpi\n      0x00\n      dup2\n      0x00\n      swap1\n      sstore\n      pop\n      0x01\n      add\n      jump(tag_87)\n    tag_88:\n      pop\n      swap1\n      jump\t// out\n        /* \"#utility.yul\":7:82   */\n    tag_89:\n        /* \"#utility.yul\":40:46   */\n      0x00\n        /* \"#utility.yul\":73:75   */\n      0x40\n        /* \"#utility.yul\":67:76   */\n      mload\n        /* \"#utility.yul\":57:76   */\n      swap1\n      pop\n        /* \"#utility.yul\":7:82   */\n      swap1\n      jump\t// out\n        /* \"#utility.yul\":88:205   */\n    tag_90:\n        /* \"#utility.yul\":197:198   */\n      0x00\n        /* \"#utility.yul\":194:195   */\n      dup1\n        /* \"#utility.yul\":187:199   */\n      revert\n        /* \"#utility.yul\":211:328   */\n    tag_91:\n        /* \"#utility.yul\":320:321   */\n      0x00\n        /* \"#utility.yul\":317:318   */\n      dup1\n        /* \"#utility.yul\":310:322   */\n      revert\n        /* \"#utility.yul\":334:460   */\n    tag_92:\n        /* \"#utility.yul\":371:378   */\n      0x00\n        /* \"#utility.yul\":411:453   */\n      0xffffffffffffffffffffffffffffffffffffffff\n        /* \"#utility.yul\":404:409   */\n      dup3\n        /* \"#utility.yul\":400:454   */\n      and\n        /* \"#utility.yul\":389:454   */\n      swap1\n      pop\n        /* \"#utility.yul\":334:460   */\n      swap2\n      swap1\n      pop\n      jump\t// out\n        /* \"#utility.yul\":466:562   */\n    tag_93:\n        /* \"#utility.yul\":503:510   */\n      0x00\n        /* \"#utility.yul\":532:556   */\n      tag_127\n        /* \"#utility.yul\":550:555   */\n      dup3\n        /* \"#utility.yul\":532:556   */\n      tag_92\n      jump\t// in\n    tag_127:\n        /* \"#utility.yul\":521:556   */\n      swap1\n      pop\n        /* \"#utility.yul\":466:562   */\n      swap2\n      swap1\n      pop\n      jump\t// out\n        /* \"#utility.yul\":568:690   */\n    tag_94:\n        /* \"#utility.yul\":641:665   */\n      tag_129\n        /* \"#utility.yul\":659:664   */\n      dup2\n        /* \"#utility.yul\":641:665   */\n      tag_93\n      jump\t// in\n    tag_129:\n        /* \"#utility.yul\":634:639   */\n      dup2\n        /* \"#utility.yul\":631:666   */\n      eq\n        /* \"#utility.yul\":621:684   */\n      tag_130\n      jumpi\n        /* \"#utility.yul\":680:681   */\n      0x00\n        /* \"#utility.yul\":677:678   */\n      dup1\n        /* \"#utility.yul\":670:682   */\n      revert\n        /* \"#utility.yul\":621:684   */\n    tag_130:\n        /* \"#utility.yul\":568:690   */\n      pop\n      jump\t// out\n        /* \"#utility.yul\":696:835   */\n    tag_95:\n        /* \"#utility.yul\":742:747   */\n      0x00\n        /* \"#utility.yul\":780:786   */\n      dup2\n        /* \"#utility.yul\":767:787   */\n      calldataload\n        /* \"#utility.yul\":758:787   */\n      swap1\n      pop\n        /* \"#utility.yul\":796:829   */\n      tag_132\n        /* \"#utility.yul\":823:828   */\n      dup2\n        /* \"#utility.yul\":796:829   */\n      tag_94\n      jump\t// in\n    tag_132:\n        /* \"#utility.yul\":696:835   */\n      swap3\n      swap2\n      pop\n      pop\n      jump\t// out\n        /* \"#utility.yul\":841:1170   */\n    tag_13:\n        /* \"#utility.yul\":900:906   */\n      0x00\n        /* \"#utility.yul\":949:951   */\n      0x20\n        /* \"#utility.yul\":937:946   */\n      dup3\n        /* \"#utility.yul\":928:935   */\n      dup5\n        /* \"#utility.yul\":924:947   */\n      sub\n        /* \"#utility.yul\":920:952   */\n      slt\n        /* \"#utility.yul\":917:1036   */\n      iszero\n      tag_134\n      jumpi\n        /* \"#utility.yul\":955:1034   */\n      tag_135\n      tag_90\n      jump\t// in\n    tag_135:\n        /* \"#utility.yul\":917:1036   */\n    tag_134:\n        /* \"#utility.yul\":1075:1076   */\n      0x00\n        /* \"#utility.yul\":1100:1153   */\n      tag_136\n        /* \"#utility.yul\":1145:1152   */\n      dup5\n        /* \"#utility.yul\":1136:1142   */\n      dup3\n        /* \"#utility.yul\":1125:1134   */\n      dup6\n        /* \"#utility.yul\":1121:1143   */\n      add\n        /* \"#utility.yul\":1100:1153   */\n      tag_95\n      jump\t// in\n    tag_136:\n        /* \"#utility.yul\":1090:1153   */\n      swap2\n      pop\n        /* \"#utility.yul\":1046:1163   */\n      pop\n        /* \"#utility.yul\":841:1170   */\n      swap3\n      swap2\n      pop\n      pop\n      jump\t// out\n        /* \"#utility.yul\":1176:1253   */\n    tag_96:\n        /* \"#utility.yul\":1213:1220   */\n      0x00\n        /* \"#utility.yul\":1242:1247   */\n      dup2\n        /* \"#utility.yul\":1231:1247   */\n      swap1\n      pop\n        /* \"#utility.yul\":1176:1253   */\n      swap2\n      swap1\n      pop\n      jump\t// out\n        /* \"#utility.yul\":1259:1381   */\n    tag_97:\n        /* \"#utility.yul\":1332:1356   */\n      tag_139\n        /* \"#utility.yul\":1350:1355   */\n      dup2\n        /* \"#utility.yul\":1332:1356   */\n      tag_96\n      jump\t// in\n    tag_139:\n        /* \"#utility.yul\":1325:1330   */\n      dup2\n        /* \"#utility.yul\":1322:1357   */\n      eq\n        /* \"#utility.yul\":1312:1375   */\n      tag_140\n      jumpi\n        /* \"#utility.yul\":1371:1372   */\n      0x00\n        /* \"#utility.yul\":1368:1369   */\n      dup1\n        /* \"#utility.yul\":1361:1373   */\n      revert\n        /* \"#utility.yul\":1312:1375   */\n    tag_140:\n        /* \"#utility.yul\":1259:1381   */\n      pop\n      jump\t// out\n        /* \"#utility.yul\":1387:1526   */\n    tag_98:\n        /* \"#utility.yul\":1433:1438   */\n      0x00\n        /* \"#utility.yul\":1471:1477   */\n      dup2\n        /* \"#utility.yul\":1458:1478   */\n      calldataload\n        /* \"#utility.yul\":1449:1478   */\n      swap1\n      pop\n        /* \"#utility.yul\":1487:1520   */\n      tag_142\n        /* \"#utility.yul\":1514:1519   */\n      dup2\n        /* \"#utility.yul\":1487:1520   */\n      tag_97\n      jump\t// in\n    tag_142:\n        /* \"#utility.yul\":1387:1526   */\n      swap3\n      swap2\n      pop\n      pop\n      jump\t// out\n        /* \"#utility.yul\":1532:1649   */\n    tag_99:\n        /* \"#utility.yul\":1641:1642   */\n      0x00\n        /* \"#utility.yul\":1638:1639   */\n      dup1\n        /* \"#utility.yul\":1631:1643   */\n      revert\n        /* \"#utility.yul\":1655:1772   */\n    tag_100:\n        /* \"#utility.yul\":1764:1765   */\n      0x00\n        /* \"#utility.yul\":1761:1762   */\n      dup1\n        /* \"#utility.yul\":1754:1766   */\n      revert\n        /* \"#utility.yul\":1778:1880   */\n    tag_101:\n        /* \"#utility.yul\":1819:1825   */\n      0x00\n        /* \"#utility.yul\":1870:1872   */\n      0x1f\n        /* \"#utility.yul\":1866:1873   */\n      not\n        /* \"#utility.yul\":1861:1863   */\n      0x1f\n        /* \"#utility.yul\":1854:1859   */\n      dup4\n        /* \"#utility.yul\":1850:1864   */\n      add\n        /* \"#utility.yul\":1846:1874   */\n      and\n        /* \"#utility.yul\":1836:1874   */\n      swap1\n      pop\n        /* \"#utility.yul\":1778:1880   */\n      swap2\n      swap1\n      pop\n      jump\t// out\n        /* \"#utility.yul\":1886:2066   */\n    tag_102:\n        /* \"#utility.yul\":1934:2011   */\n      0x4e487b7100000000000000000000000000000000000000000000000000000000\n        /* \"#utility.yul\":1931:1932   */\n      0x00\n        /* \"#utility.yul\":1924:2012   */\n      mstore\n        /* \"#utility.yul\":2031:2035   */\n      0x41\n        /* \"#utility.yul\":2028:2029   */\n      0x04\n        /* \"#utility.yul\":2021:2036   */\n      mstore\n        /* \"#utility.yul\":2055:2059   */\n      0x24\n        /* \"#utility.yul\":2052:2053   */\n      0x00\n        /* \"#utility.yul\":2045:2060   */\n      revert\n        /* \"#utility.yul\":2072:2353   */\n    tag_103:\n        /* \"#utility.yul\":2155:2182   */\n      tag_148\n        /* \"#utility.yul\":2177:2181   */\n      dup3\n        /* \"#utility.yul\":2155:2182   */\n      tag_101\n      jump\t// in\n    tag_148:\n        /* \"#utility.yul\":2147:2153   */\n      dup2\n        /* \"#utility.yul\":2143:2183   */\n      add\n        /* \"#utility.yul\":2285:2291   */\n      dup2\n        /* \"#utility.yul\":2273:2283   */\n      dup2\n        /* \"#utility.yul\":2270:2292   */\n      lt\n        /* \"#utility.yul\":2249:2267   */\n      0xffffffffffffffff\n        /* \"#utility.yul\":2237:2247   */\n      dup3\n        /* \"#utility.yul\":2234:2268   */\n      gt\n        /* \"#utility.yul\":2231:2293   */\n      or\n        /* \"#utility.yul\":2228:2316   */\n      iszero\n      tag_149\n      jumpi\n        /* \"#utility.yul\":2296:2314   */\n      tag_150\n      tag_102\n      jump\t// in\n    tag_150:\n        /* \"#utility.yul\":2228:2316   */\n    tag_149:\n        /* \"#utility.yul\":2336:2346   */\n      dup1\n        /* \"#utility.yul\":2332:2334   */\n      0x40\n        /* \"#utility.yul\":2325:2347   */\n      mstore\n        /* \"#utility.yul\":2115:2353   */\n      pop\n        /* \"#utility.yul\":2072:2353   */\n      pop\n      pop\n      jump\t// out\n        /* \"#utility.yul\":2359:2488   */\n    tag_104:\n        /* \"#utility.yul\":2393:2399   */\n      0x00\n        /* \"#utility.yul\":2420:2440   */\n      tag_152\n      tag_89\n      jump\t// in\n    tag_152:\n        /* \"#utility.yul\":2410:2440   */\n      swap1\n      pop\n        /* \"#utility.yul\":2449:2482   */\n      tag_153\n        /* \"#utility.yul\":2477:2481   */\n      dup3\n        /* \"#utility.yul\":2469:2475   */\n      dup3\n        /* \"#utility.yul\":2449:2482   */\n      tag_103\n      jump\t// in\n    tag_153:\n        /* \"#utility.yul\":2359:2488   */\n      swap2\n      swap1\n      pop\n      jump\t// out\n        /* \"#utility.yul\":2494:2802   */\n    tag_105:\n        /* \"#utility.yul\":2556:2560   */\n      0x00\n        /* \"#utility.yul\":2646:2664   */\n      0xffffffffffffffff\n        /* \"#utility.yul\":2638:2644   */\n      dup3\n        /* \"#utility.yul\":2635:2665   */\n      gt\n        /* \"#utility.yul\":2632:2688   */\n      iszero\n      tag_155\n      jumpi\n        /* \"#utility.yul\":2668:2686   */\n      tag_156\n      tag_102\n      jump\t// in\n    tag_156:\n        /* \"#utility.yul\":2632:2688   */\n    tag_155:\n        /* \"#utility.yul\":2706:2735   */\n      tag_157\n        /* \"#utility.yul\":2728:2734   */\n      dup3\n        /* \"#utility.yul\":2706:2735   */\n      tag_101\n      jump\t// in\n    tag_157:\n        /* \"#utility.yul\":2698:2735   */\n      swap1\n      pop\n        /* \"#utility.yul\":2790:2794   */\n      0x20\n        /* \"#utility.yul\":2784:2788   */\n      dup2\n        /* \"#utility.yul\":2780:2795   */\n      add\n        /* \"#utility.yul\":2772:2795   */\n      swap1\n      pop\n        /* \"#utility.yul\":2494:2802   */\n      swap2\n      swap1\n      pop\n      jump\t// out\n        /* \"#utility.yul\":2808:2962   */\n    tag_106:\n        /* \"#utility.yul\":2892:2898   */\n      dup3\n        /* \"#utility.yul\":2887:2890   */\n      dup2\n        /* \"#utility.yul\":2882:2885   */\n      dup4\n        /* \"#utility.yul\":2869:2899   */\n      calldatacopy\n        /* \"#utility.yul\":2954:2955   */\n      0x00\n        /* \"#utility.yul\":2945:2951   */\n      dup4\n        /* \"#utility.yul\":2940:2943   */\n      dup4\n        /* \"#utility.yul\":2936:2952   */\n      add\n        /* \"#utility.yul\":2929:2956   */\n      mstore\n        /* \"#utility.yul\":2808:2962   */\n      pop\n      pop\n      pop\n      jump\t// out\n        /* \"#utility.yul\":2968:3380   */\n    tag_107:\n        /* \"#utility.yul\":3046:3051   */\n      0x00\n        /* \"#utility.yul\":3071:3137   */\n      tag_160\n        /* \"#utility.yul\":3087:3136   */\n      tag_161\n        /* \"#utility.yul\":3129:3135   */\n      dup5\n        /* \"#utility.yul\":3087:3136   */\n      tag_105\n      jump\t// in\n    tag_161:\n        /* \"#utility.yul\":3071:3137   */\n      tag_104\n      jump\t// in\n    tag_160:\n        /* \"#utility.yul\":3062:3137   */\n      swap1\n      pop\n        /* \"#utility.yul\":3160:3166   */\n      dup3\n        /* \"#utility.yul\":3153:3158   */\n      dup2\n        /* \"#utility.yul\":3146:3167   */\n      mstore\n        /* \"#utility.yul\":3198:3202   */\n      0x20\n        /* \"#utility.yul\":3191:3196   */\n      dup2\n        /* \"#utility.yul\":3187:3203   */\n      add\n        /* \"#utility.yul\":3236:3239   */\n      dup5\n        /* \"#utility.yul\":3227:3233   */\n      dup5\n        /* \"#utility.yul\":3222:3225   */\n      dup5\n        /* \"#utility.yul\":3218:3234   */\n      add\n        /* \"#utility.yul\":3215:3240   */\n      gt\n        /* \"#utility.yul\":3212:3324   */\n      iszero\n      tag_162\n      jumpi\n        /* \"#utility.yul\":3243:3322   */\n      tag_163\n      tag_100\n      jump\t// in\n    tag_163:\n        /* \"#utility.yul\":3212:3324   */\n    tag_162:\n        /* \"#utility.yul\":3333:3374   */\n      tag_164\n        /* \"#utility.yul\":3367:3373   */\n      dup5\n        /* \"#utility.yul\":3362:3365   */\n      dup3\n        /* \"#utility.yul\":3357:3360   */\n      dup6\n        /* \"#utility.yul\":3333:3374   */\n      tag_106\n      jump\t// in\n    tag_164:\n        /* \"#utility.yul\":3052:3380   */\n      pop\n        /* \"#utility.yul\":2968:3380   */\n      swap4\n      swap3\n      pop\n      pop\n      pop\n      jump\t// out\n        /* \"#utility.yul\":3400:3740   */\n    tag_108:\n        /* \"#utility.yul\":3456:3461   */\n      0x00\n        /* \"#utility.yul\":3505:3508   */\n      dup3\n        /* \"#utility.yul\":3498:3502   */\n      0x1f\n        /* \"#utility.yul\":3490:3496   */\n      dup4\n        /* \"#utility.yul\":3486:3503   */\n      add\n        /* \"#utility.yul\":3482:3509   */\n      slt\n        /* \"#utility.yul\":3472:3594   */\n      tag_166\n      jumpi\n        /* \"#utility.yul\":3513:3592   */\n      tag_167\n      tag_99\n      jump\t// in\n    tag_167:\n        /* \"#utility.yul\":3472:3594   */\n    tag_166:\n        /* \"#utility.yul\":3630:3636   */\n      dup2\n        /* \"#utility.yul\":3617:3637   */\n      calldataload\n        /* \"#utility.yul\":3655:3734   */\n      tag_168\n        /* \"#utility.yul\":3730:3733   */\n      dup5\n        /* \"#utility.yul\":3722:3728   */\n      dup3\n        /* \"#utility.yul\":3715:3719   */\n      0x20\n        /* \"#utility.yul\":3707:3713   */\n      dup7\n        /* \"#utility.yul\":3703:3720   */\n      add\n        /* \"#utility.yul\":3655:3734   */\n      tag_107\n      jump\t// in\n    tag_168:\n        /* \"#utility.yul\":3646:3734   */\n      swap2\n      pop\n        /* \"#utility.yul\":3462:3740   */\n      pop\n        /* \"#utility.yul\":3400:3740   */\n      swap3\n      swap2\n      pop\n      pop\n      jump\t// out\n        /* \"#utility.yul\":3746:3850   */\n    tag_109:\n        /* \"#utility.yul\":3791:3798   */\n      0x00\n        /* \"#utility.yul\":3820:3844   */\n      tag_170\n        /* \"#utility.yul\":3838:3843   */\n      dup3\n        /* \"#utility.yul\":3820:3844   */\n      tag_92\n      jump\t// in\n    tag_170:\n        /* \"#utility.yul\":3809:3844   */\n      swap1\n      pop\n        /* \"#utility.yul\":3746:3850   */\n      swap2\n      swap1\n      pop\n      jump\t// out\n        /* \"#utility.yul\":3856:3994   */\n    tag_110:\n        /* \"#utility.yul\":3937:3969   */\n      tag_172\n        /* \"#utility.yul\":3963:3968   */\n      dup2\n        /* \"#utility.yul\":3937:3969   */\n      tag_109\n      jump\t// in\n    tag_172:\n        /* \"#utility.yul\":3930:3935   */\n      dup2\n        /* \"#utility.yul\":3927:3970   */\n      eq\n        /* \"#utility.yul\":3917:3988   */\n      tag_173\n      jumpi\n        /* \"#utility.yul\":3984:3985   */\n      0x00\n        /* \"#utility.yul\":3981:3982   */\n      dup1\n        /* \"#utility.yul\":3974:3986   */\n      revert\n        /* \"#utility.yul\":3917:3988   */\n    tag_173:\n        /* \"#utility.yul\":3856:3994   */\n      pop\n      jump\t// out\n        /* \"#utility.yul\":4000:4155   */\n    tag_111:\n        /* \"#utility.yul\":4054:4059   */\n      0x00\n        /* \"#utility.yul\":4092:4098   */\n      dup2\n        /* \"#utility.yul\":4079:4099   */\n      calldataload\n        /* \"#utility.yul\":4070:4099   */\n      swap1\n      pop\n        /* \"#utility.yul\":4108:4149   */\n      tag_175\n        /* \"#utility.yul\":4143:4148   */\n      dup2\n        /* \"#utility.yul\":4108:4149   */\n      tag_110\n      jump\t// in\n    tag_175:\n        /* \"#utility.yul\":4000:4155   */\n      swap3\n      swap2\n      pop\n      pop\n      jump\t// out\n        /* \"#utility.yul\":4161:5268   */\n    tag_18:\n        /* \"#utility.yul\":4274:4280   */\n      0x00\n        /* \"#utility.yul\":4282:4288   */\n      dup1\n        /* \"#utility.yul\":4290:4296   */\n      0x00\n        /* \"#utility.yul\":4298:4304   */\n      dup1\n        /* \"#utility.yul\":4306:4312   */\n      0x00\n        /* \"#utility.yul\":4355:4358   */\n      0xa0\n        /* \"#utility.yul\":4343:4352   */\n      dup7\n        /* \"#utility.yul\":4334:4341   */\n      dup9\n        /* \"#utility.yul\":4330:4353   */\n      sub\n        /* \"#utility.yul\":4326:4359   */\n      slt\n        /* \"#utility.yul\":4323:4443   */\n      iszero\n      tag_177\n      jumpi\n        /* \"#utility.yul\":4362:4441   */\n      tag_178\n      tag_90\n      jump\t// in\n    tag_178:\n        /* \"#utility.yul\":4323:4443   */\n    tag_177:\n        /* \"#utility.yul\":4482:4483   */\n      0x00\n        /* \"#utility.yul\":4507:4560   */\n      tag_179\n        /* \"#utility.yul\":4552:4559   */\n      dup9\n        /* \"#utility.yul\":4543:4549   */\n      dup3\n        /* \"#utility.yul\":4532:4541   */\n      dup10\n        /* \"#utility.yul\":4528:4550   */\n      add\n        /* \"#utility.yul\":4507:4560   */\n      tag_98\n      jump\t// in\n    tag_179:\n        /* \"#utility.yul\":4497:4560   */\n      swap6\n      pop\n        /* \"#utility.yul\":4453:4570   */\n      pop\n        /* \"#utility.yul\":4637:4639   */\n      0x20\n        /* \"#utility.yul\":4626:4635   */\n      dup7\n        /* \"#utility.yul\":4622:4640   */\n      add\n        /* \"#utility.yul\":4609:4641   */\n      calldataload\n        /* \"#utility.yul\":4668:4686   */\n      0xffffffffffffffff\n        /* \"#utility.yul\":4660:4666   */\n      dup2\n        /* \"#utility.yul\":4657:4687   */\n      gt\n        /* \"#utility.yul\":4654:4771   */\n      iszero\n      tag_180\n      jumpi\n        /* \"#utility.yul\":4690:4769   */\n      tag_181\n      tag_91\n      jump\t// in\n    tag_181:\n        /* \"#utility.yul\":4654:4771   */\n    tag_180:\n        /* \"#utility.yul\":4795:4858   */\n      tag_182\n        /* \"#utility.yul\":4850:4857   */\n      dup9\n        /* \"#utility.yul\":4841:4847   */\n      dup3\n        /* \"#utility.yul\":4830:4839   */\n      dup10\n        /* \"#utility.yul\":4826:4848   */\n      add\n        /* \"#utility.yul\":4795:4858   */\n      tag_108\n      jump\t// in\n    tag_182:\n        /* \"#utility.yul\":4785:4858   */\n      swap5\n      pop\n        /* \"#utility.yul\":4580:4868   */\n      pop\n        /* \"#utility.yul\":4907:4909   */\n      0x40\n        /* \"#utility.yul\":4933:4986   */\n      tag_183\n        /* \"#utility.yul\":4978:4985   */\n      dup9\n        /* \"#utility.yul\":4969:4975   */\n      dup3\n        /* \"#utility.yul\":4958:4967   */\n      dup10\n        /* \"#utility.yul\":4954:4976   */\n      add\n        /* \"#utility.yul\":4933:4986   */\n      tag_98\n      jump\t// in\n    tag_183:\n        /* \"#utility.yul\":4923:4986   */\n      swap4\n      pop\n        /* \"#utility.yul\":4878:4996   */\n      pop\n        /* \"#utility.yul\":5035:5037   */\n      0x60\n        /* \"#utility.yul\":5061:5114   */\n      tag_184\n        /* \"#utility.yul\":5106:5113   */\n      dup9\n        /* \"#utility.yul\":5097:5103   */\n      dup3\n        /* \"#utility.yul\":5086:5095   */\n      dup10\n        /* \"#utility.yul\":5082:5104   */\n      add\n        /* \"#utility.yul\":5061:5114   */\n      tag_98\n      jump\t// in\n    tag_184:\n        /* \"#utility.yul\":5051:5114   */\n      swap3\n      pop\n        /* \"#utility.yul\":5006:5124   */\n      pop\n        /* \"#utility.yul\":5163:5166   */\n      0x80\n        /* \"#utility.yul\":5190:5251   */\n      tag_185\n        /* \"#utility.yul\":5243:5250   */\n      dup9\n        /* \"#utility.yul\":5234:5240   */\n      dup3\n        /* \"#utility.yul\":5223:5232   */\n      dup10\n        /* \"#utility.yul\":5219:5241   */\n      add\n        /* \"#utility.yul\":5190:5251   */\n      tag_111\n      jump\t// in\n    tag_185:\n        /* \"#utility.yul\":5180:5251   */\n      swap2\n      pop\n        /* \"#utility.yul\":5134:5261   */\n      pop\n        /* \"#utility.yul\":4161:5268   */\n      swap3\n      swap6\n      pop\n      swap3\n      swap6\n      swap1\n      swap4\n      pop\n      jump\t// out\n        /* \"#utility.yul\":5274:5603   */\n    tag_23:\n        /* \"#utility.yul\":5333:5339   */\n      0x00\n        /* \"#utility.yul\":5382:5384   */\n      0x20\n        /* \"#utility.yul\":5370:5379   */\n      dup3\n        /* \"#utility.yul\":5361:5368   */\n      dup5\n        /* \"#utility.yul\":5357:5380   */\n      sub\n        /* \"#utility.yul\":5353:5385   */\n      slt\n        /* \"#utility.yul\":5350:5469   */\n      iszero\n      tag_187\n      jumpi\n        /* \"#utility.yul\":5388:5467   */\n      tag_188\n      tag_90\n      jump\t// in\n    tag_188:\n        /* \"#utility.yul\":5350:5469   */\n    tag_187:\n        /* \"#utility.yul\":5508:5509   */\n      0x00\n        /* \"#utility.yul\":5533:5586   */\n      tag_189\n        /* \"#utility.yul\":5578:5585   */\n      dup5\n        /* \"#utility.yul\":5569:5575   */\n      dup3\n        /* \"#utility.yul\":5558:5567   */\n      dup6\n        /* \"#utility.yul\":5554:5576   */\n      add\n        /* \"#utility.yul\":5533:5586   */\n      tag_98\n      jump\t// in\n    tag_189:\n        /* \"#utility.yul\":5523:5586   */\n      swap2\n      pop\n        /* \"#utility.yul\":5479:5596   */\n      pop\n        /* \"#utility.yul\":5274:5603   */\n      swap3\n      swap2\n      pop\n      pop\n      jump\t// out\n        /* \"#utility.yul\":5609:5727   */\n    tag_112:\n        /* \"#utility.yul\":5696:5720   */\n      tag_191\n        /* \"#utility.yul\":5714:5719   */\n      dup2\n        /* \"#utility.yul\":5696:5720   */\n      tag_96\n      jump\t// in\n    tag_191:\n        /* \"#utility.yul\":5691:5694   */\n      dup3\n        /* \"#utility.yul\":5684:5721   */\n      mstore\n        /* \"#utility.yul\":5609:5727   */\n      pop\n      pop\n      jump\t// out\n        /* \"#utility.yul\":5733:5832   */\n    tag_113:\n        /* \"#utility.yul\":5785:5791   */\n      0x00\n        /* \"#utility.yul\":5819:5824   */\n      dup2\n        /* \"#utility.yul\":5813:5825   */\n      mload\n        /* \"#utility.yul\":5803:5825   */\n      swap1\n      pop\n        /* \"#utility.yul\":5733:5832   */\n      swap2\n      swap1\n      pop\n      jump\t// out\n        /* \"#utility.yul\":5838:6007   */\n    tag_114:\n        /* \"#utility.yul\":5922:5933   */\n      0x00\n        /* \"#utility.yul\":5956:5962   */\n      dup3\n        /* \"#utility.yul\":5951:5954   */\n      dup3\n        /* \"#utility.yul\":5944:5963   */\n      mstore\n        /* \"#utility.yul\":5996:6000   */\n      0x20\n        /* \"#utility.yul\":5991:5994   */\n      dup3\n        /* \"#utility.yul\":5987:6001   */\n      add\n        /* \"#utility.yul\":5972:6001   */\n      swap1\n      pop\n        /* \"#utility.yul\":5838:6007   */\n      swap3\n      swap2\n      pop\n      pop\n      jump\t// out\n        /* \"#utility.yul\":6013:6320   */\n    tag_115:\n        /* \"#utility.yul\":6081:6082   */\n      0x00\n        /* \"#utility.yul\":6091:6204   */\n    tag_195:\n        /* \"#utility.yul\":6105:6111   */\n      dup4\n        /* \"#utility.yul\":6102:6103   */\n      dup2\n        /* \"#utility.yul\":6099:6112   */\n      lt\n        /* \"#utility.yul\":6091:6204   */\n      iszero\n      tag_197\n      jumpi\n        /* \"#utility.yul\":6190:6191   */\n      dup1\n        /* \"#utility.yul\":6185:6188   */\n      dup3\n        /* \"#utility.yul\":6181:6192   */\n      add\n        /* \"#utility.yul\":6175:6193   */\n      mload\n        /* \"#utility.yul\":6171:6172   */\n      dup2\n        /* \"#utility.yul\":6166:6169   */\n      dup5\n        /* \"#utility.yul\":6162:6173   */\n      add\n        /* \"#utility.yul\":6155:6194   */\n      mstore\n        /* \"#utility.yul\":6127:6129   */\n      0x20\n        /* \"#utility.yul\":6124:6125   */\n      dup2\n        /* \"#utility.yul\":6120:6130   */\n      add\n        /* \"#utility.yul\":6115:6130   */\n      swap1\n      pop\n        /* \"#utility.yul\":6091:6204   */\n      jump(tag_195)\n    tag_197:\n        /* \"#utility.yul\":6222:6228   */\n      dup4\n        /* \"#utility.yul\":6219:6220   */\n      dup2\n        /* \"#utility.yul\":6216:6229   */\n      gt\n        /* \"#utility.yul\":6213:6314   */\n      iszero\n      tag_198\n      jumpi\n        /* \"#utility.yul\":6302:6303   */\n      0x00\n        /* \"#utility.yul\":6293:6299   */\n      dup5\n        /* \"#utility.yul\":6288:6291   */\n      dup5\n        /* \"#utility.yul\":6284:6300   */\n      add\n        /* \"#utility.yul\":6277:6304   */\n      mstore\n        /* \"#utility.yul\":6213:6314   */\n    tag_198:\n        /* \"#utility.yul\":6062:6320   */\n      pop\n        /* \"#utility.yul\":6013:6320   */\n      pop\n      pop\n      pop\n      jump\t// out\n        /* \"#utility.yul\":6326:6690   */\n    tag_116:\n        /* \"#utility.yul\":6414:6417   */\n      0x00\n        /* \"#utility.yul\":6442:6481   */\n      tag_200\n        /* \"#utility.yul\":6475:6480   */\n      dup3\n        /* \"#utility.yul\":6442:6481   */\n      tag_113\n      jump\t// in\n    tag_200:\n        /* \"#utility.yul\":6497:6568   */\n      tag_201\n        /* \"#utility.yul\":6561:6567   */\n      dup2\n        /* \"#utility.yul\":6556:6559   */\n      dup6\n        /* \"#utility.yul\":6497:6568   */\n      tag_114\n      jump\t// in\n    tag_201:\n        /* \"#utility.yul\":6490:6568   */\n      swap4\n      pop\n        /* \"#utility.yul\":6577:6629   */\n      tag_202\n        /* \"#utility.yul\":6622:6628   */\n      dup2\n        /* \"#utility.yul\":6617:6620   */\n      dup6\n        /* \"#utility.yul\":6610:6614   */\n      0x20\n        /* \"#utility.yul\":6603:6608   */\n      dup7\n        /* \"#utility.yul\":6599:6615   */\n      add\n        /* \"#utility.yul\":6577:6629   */\n      tag_115\n      jump\t// in\n    tag_202:\n        /* \"#utility.yul\":6654:6683   */\n      tag_203\n        /* \"#utility.yul\":6676:6682   */\n      dup2\n        /* \"#utility.yul\":6654:6683   */\n      tag_101\n      jump\t// in\n    tag_203:\n        /* \"#utility.yul\":6649:6652   */\n      dup5\n        /* \"#utility.yul\":6645:6684   */\n      add\n        /* \"#utility.yul\":6638:6684   */\n      swap2\n      pop\n        /* \"#utility.yul\":6418:6690   */\n      pop\n        /* \"#utility.yul\":6326:6690   */\n      swap3\n      swap2\n      pop\n      pop\n      jump\t// out\n        /* \"#utility.yul\":6696:6838   */\n    tag_117:\n        /* \"#utility.yul\":6799:6831   */\n      tag_205\n        /* \"#utility.yul\":6825:6830   */\n      dup2\n        /* \"#utility.yul\":6799:6831   */\n      tag_109\n      jump\t// in\n    tag_205:\n        /* \"#utility.yul\":6794:6797   */\n      dup3\n        /* \"#utility.yul\":6787:6832   */\n      mstore\n        /* \"#utility.yul\":6696:6838   */\n      pop\n      pop\n      jump\t// out\n        /* \"#utility.yul\":6844:7631   */\n    tag_26:\n        /* \"#utility.yul\":7085:7089   */\n      0x00\n        /* \"#utility.yul\":7123:7126   */\n      0xa0\n        /* \"#utility.yul\":7112:7121   */\n      dup3\n        /* \"#utility.yul\":7108:7127   */\n      add\n        /* \"#utility.yul\":7100:7127   */\n      swap1\n      pop\n        /* \"#utility.yul\":7137:7208   */\n      tag_207\n        /* \"#utility.yul\":7205:7206   */\n      0x00\n        /* \"#utility.yul\":7194:7203   */\n      dup4\n        /* \"#utility.yul\":7190:7207   */\n      add\n        /* \"#utility.yul\":7181:7187   */\n      dup9\n        /* \"#utility.yul\":7137:7208   */\n      tag_112\n      jump\t// in\n    tag_207:\n        /* \"#utility.yul\":7255:7264   */\n      dup2\n        /* \"#utility.yul\":7249:7253   */\n      dup2\n        /* \"#utility.yul\":7245:7265   */\n      sub\n        /* \"#utility.yul\":7240:7242   */\n      0x20\n        /* \"#utility.yul\":7229:7238   */\n      dup4\n        /* \"#utility.yul\":7225:7243   */\n      add\n        /* \"#utility.yul\":7218:7266   */\n      mstore\n        /* \"#utility.yul\":7283:7361   */\n      tag_208\n        /* \"#utility.yul\":7356:7360   */\n      dup2\n        /* \"#utility.yul\":7347:7353   */\n      dup8\n        /* \"#utility.yul\":7283:7361   */\n      tag_116\n      jump\t// in\n    tag_208:\n        /* \"#utility.yul\":7275:7361   */\n      swap1\n      pop\n        /* \"#utility.yul\":7371:7443   */\n      tag_209\n        /* \"#utility.yul\":7439:7441   */\n      0x40\n        /* \"#utility.yul\":7428:7437   */\n      dup4\n        /* \"#utility.yul\":7424:7442   */\n      add\n        /* \"#utility.yul\":7415:7421   */\n      dup7\n        /* \"#utility.yul\":7371:7443   */\n      tag_112\n      jump\t// in\n    tag_209:\n        /* \"#utility.yul\":7453:7525   */\n      tag_210\n        /* \"#utility.yul\":7521:7523   */\n      0x60\n        /* \"#utility.yul\":7510:7519   */\n      dup4\n        /* \"#utility.yul\":7506:7524   */\n      add\n        /* \"#utility.yul\":7497:7503   */\n      dup6\n        /* \"#utility.yul\":7453:7525   */\n      tag_112\n      jump\t// in\n    tag_210:\n        /* \"#utility.yul\":7535:7624   */\n      tag_211\n        /* \"#utility.yul\":7619:7622   */\n      0x80\n        /* \"#utility.yul\":7608:7617   */\n      dup4\n        /* \"#utility.yul\":7604:7623   */\n      add\n        /* \"#utility.yul\":7595:7601   */\n      dup5\n        /* \"#utility.yul\":7535:7624   */\n      tag_117\n      jump\t// in\n    tag_211:\n        /* \"#utility.yul\":6844:7631   */\n      swap7\n      swap6\n      pop\n      pop\n      pop\n      pop\n      pop\n      pop\n      jump\t// out\n        /* \"#utility.yul\":7637:7859   */\n    tag_31:\n        /* \"#utility.yul\":7730:7734   */\n      0x00\n        /* \"#utility.yul\":7768:7770   */\n      0x20\n        /* \"#utility.yul\":7757:7766   */\n      dup3\n        /* \"#utility.yul\":7753:7771   */\n      add\n        /* \"#utility.yul\":7745:7771   */\n      swap1\n      pop\n        /* \"#utility.yul\":7781:7852   */\n      tag_213\n        /* \"#utility.yul\":7849:7850   */\n      0x00\n        /* \"#utility.yul\":7838:7847   */\n      dup4\n        /* \"#utility.yul\":7834:7851   */\n      add\n        /* \"#utility.yul\":7825:7831   */\n      dup5\n        /* \"#utility.yul\":7781:7852   */\n      tag_112\n      jump\t// in\n    tag_213:\n        /* \"#utility.yul\":7637:7859   */\n      swap3\n      swap2\n      pop\n      pop\n      jump\t// out\n        /* \"#utility.yul\":7865:8210   */\n    tag_35:\n        /* \"#utility.yul\":7932:7938   */\n      0x00\n        /* \"#utility.yul\":7981:7983   */\n      0x20\n        /* \"#utility.yul\":7969:7978   */\n      dup3\n        /* \"#utility.yul\":7960:7967   */\n      dup5\n        /* \"#utility.yul\":7956:7979   */\n      sub\n        /* \"#utility.yul\":7952:7984   */\n      slt\n        /* \"#utility.yul\":7949:8068   */\n      iszero\n      tag_215\n      jumpi\n        /* \"#utility.yul\":7987:8066   */\n      tag_216\n      tag_90\n      jump\t// in\n    tag_216:\n        /* \"#utility.yul\":7949:8068   */\n    tag_215:\n        /* \"#utility.yul\":8107:8108   */\n      0x00\n        /* \"#utility.yul\":8132:8193   */\n      tag_217\n        /* \"#utility.yul\":8185:8192   */\n      dup5\n        /* \"#utility.yul\":8176:8182   */\n      dup3\n        /* \"#utility.yul\":8165:8174   */\n      dup6\n        /* \"#utility.yul\":8161:8183   */\n      add\n        /* \"#utility.yul\":8132:8193   */\n      tag_111\n      jump\t// in\n    tag_217:\n        /* \"#utility.yul\":8122:8193   */\n      swap2\n      pop\n        /* \"#utility.yul\":8078:8203   */\n      pop\n        /* \"#utility.yul\":7865:8210   */\n      swap3\n      swap2\n      pop\n      pop\n      jump\t// out\n        /* \"#utility.yul\":8216:8334   */\n    tag_118:\n        /* \"#utility.yul\":8303:8327   */\n      tag_219\n        /* \"#utility.yul\":8321:8326   */\n      dup2\n        /* \"#utility.yul\":8303:8327   */\n      tag_93\n      jump\t// in\n    tag_219:\n        /* \"#utility.yul\":8298:8301   */\n      dup3\n        /* \"#utility.yul\":8291:8328   */\n      mstore\n        /* \"#utility.yul\":8216:8334   */\n      pop\n      pop\n      jump\t// out\n        /* \"#utility.yul\":8340:8562   */\n    tag_41:\n        /* \"#utility.yul\":8433:8437   */\n      0x00\n        /* \"#utility.yul\":8471:8473   */\n      0x20\n        /* \"#utility.yul\":8460:8469   */\n      dup3\n        /* \"#utility.yul\":8456:8474   */\n      add\n        /* \"#utility.yul\":8448:8474   */\n      swap1\n      pop\n        /* \"#utility.yul\":8484:8555   */\n      tag_221\n        /* \"#utility.yul\":8552:8553   */\n      0x00\n        /* \"#utility.yul\":8541:8550   */\n      dup4\n        /* \"#utility.yul\":8537:8554   */\n      add\n        /* \"#utility.yul\":8528:8534   */\n      dup5\n        /* \"#utility.yul\":8484:8555   */\n      tag_118\n      jump\t// in\n    tag_221:\n        /* \"#utility.yul\":8340:8562   */\n      swap3\n      swap2\n      pop\n      pop\n      jump\t// out\n        /* \"#utility.yul\":8568:8748   */\n    tag_119:\n        /* \"#utility.yul\":8616:8693   */\n      0x4e487b7100000000000000000000000000000000000000000000000000000000\n        /* \"#utility.yul\":8613:8614   */\n      0x00\n        /* \"#utility.yul\":8606:8694   */\n      mstore\n        /* \"#utility.yul\":8713:8717   */\n      0x11\n        /* \"#utility.yul\":8710:8711   */\n      0x04\n        /* \"#utility.yul\":8703:8718   */\n      mstore\n        /* \"#utility.yul\":8737:8741   */\n      0x24\n        /* \"#utility.yul\":8734:8735   */\n      0x00\n        /* \"#utility.yul\":8727:8742   */\n      revert\n        /* \"#utility.yul\":8754:9059   */\n    tag_54:\n        /* \"#utility.yul\":8794:8797   */\n      0x00\n        /* \"#utility.yul\":8813:8833   */\n      tag_224\n        /* \"#utility.yul\":8831:8832   */\n      dup3\n        /* \"#utility.yul\":8813:8833   */\n      tag_96\n      jump\t// in\n    tag_224:\n        /* \"#utility.yul\":8808:8833   */\n      swap2\n      pop\n        /* \"#utility.yul\":8847:8867   */\n      tag_225\n        /* \"#utility.yul\":8865:8866   */\n      dup4\n        /* \"#utility.yul\":8847:8867   */\n      tag_96\n      jump\t// in\n    tag_225:\n        /* \"#utility.yul\":8842:8867   */\n      swap3\n      pop\n        /* \"#utility.yul\":9001:9002   */\n      dup3\n        /* \"#utility.yul\":8933:8999   */\n      0xffffffffffffffffffffffffffffffffffffffffffffffffffffffffffffffff\n        /* \"#utility.yul\":8929:9003   */\n      sub\n        /* \"#utility.yul\":8926:8927   */\n      dup3\n        /* \"#utility.yul\":8923:9004   */\n      gt\n        /* \"#utility.yul\":8920:9027   */\n      iszero\n      tag_226\n      jumpi\n        /* \"#utility.yul\":9007:9025   */\n      tag_227\n      tag_119\n      jump\t// in\n    tag_227:\n        /* \"#utility.yul\":8920:9027   */\n    tag_226:\n        /* \"#utility.yul\":9051:9052   */\n      dup3\n        /* \"#utility.yul\":9048:9049   */\n      dup3\n        /* \"#utility.yul\":9044:9053   */\n      add\n        /* \"#utility.yul\":9037:9053   */\n      swap1\n      pop\n        /* \"#utility.yul\":8754:9059   */\n      swap3\n      swap2\n      pop\n      pop\n      jump\t// out\n        /* \"#utility.yul\":9065:9245   */\n    tag_120:\n        /* \"#utility.yul\":9113:9190   */\n      0x4e487b7100000000000000000000000000000000000000000000000000000000\n        /* \"#utility.yul\":9110:9111   */\n      0x00\n        /* \"#utility.yul\":9103:9191   */\n      mstore\n        /* \"#utility.yul\":9210:9214   */\n      0x22\n        /* \"#utility.yul\":9207:9208   */\n      0x04\n        /* \"#utility.yul\":9200:9215   */\n      mstore\n        /* \"#utility.yul\":9234:9238   */\n      0x24\n        /* \"#utility.yul\":9231:9232   */\n      0x00\n        /* \"#utility.yul\":9224:9239   */\n      revert\n        /* \"#utility.yul\":9251:9571   */\n    tag_66:\n        /* \"#utility.yul\":9295:9301   */\n      0x00\n        /* \"#utility.yul\":9332:9333   */\n      0x02\n        /* \"#utility.yul\":9326:9330   */\n      dup3\n        /* \"#utility.yul\":9322:9334   */\n      div\n        /* \"#utility.yul\":9312:9334   */\n      swap1\n      pop\n        /* \"#utility.yul\":9379:9380   */\n      0x01\n        /* \"#utility.yul\":9373:9377   */\n      dup3\n        /* \"#utility.yul\":9369:9381   */\n      and\n        /* \"#utility.yul\":9400:9418   */\n      dup1\n        /* \"#utility.yul\":9390:9471   */\n      tag_230\n      jumpi\n        /* \"#utility.yul\":9456:9460   */\n      0x7f\n        /* \"#utility.yul\":9448:9454   */\n      dup3\n        /* \"#utility.yul\":9444:9461   */\n      and\n        /* \"#utility.yul\":9434:9461   */\n      swap2\n      pop\n        /* \"#utility.yul\":9390:9471   */\n    tag_230:\n        /* \"#utility.yul\":9518:9520   */\n      0x20\n        /* \"#utility.yul\":9510:9516   */\n      dup3\n        /* \"#utility.yul\":9507:9521   */\n      lt\n        /* \"#utility.yul\":9487:9505   */\n      dup2\n        /* \"#utility.yul\":9484:9522   */\n      sub\n        /* \"#utility.yul\":9481:9565   */\n      tag_231\n      jumpi\n        /* \"#utility.yul\":9537:9555   */\n      tag_232\n      tag_120\n      jump\t// in\n    tag_232:\n        /* \"#utility.yul\":9481:9565   */\n    tag_231:\n        /* \"#utility.yul\":9302:9571   */\n      pop\n        /* \"#utility.yul\":9251:9571   */\n      swap2\n      swap1\n      pop\n      jump\t// out\n\n    auxdata: 0xa2646970667358221220908274a859db19c700378b101f9b8f744da35bc25ba906102f70e28cbaeb7bcb64736f6c634300080d0033\n}\n",
				"bytecode": {
					"linkReferences": {},
					"object": "608060405263624124b1600155600060025534801561001d57600080fd5b50336000806101000a81548173ffffffffffffffffffffffffffffffffffffffff021916908373ffffffffffffffffffffffffffffffffffffffff160217905550610d5a8061006d6000396000f3fe60806040526004361061007b5760003560e01c80638954a2941161004e5780638954a294146101315780638da5cb5b1461015a5780639e7a13ad14610185578063fc7e286d146101c65761007b565b8063152c33631461008057806318d875df1461009c578063246982c4146100c5578063267c68e014610106575b600080fd5b61009a60048036038101906100959190610822565b610203565b005b3480156100a857600080fd5b506100c360048036038101906100be9190610a09565b61029a565b005b3480156100d157600080fd5b506100ec60048036038101906100e79190610aa0565b6103e7565b6040516100fd959493929190610b73565b60405180910390f35b34801561011257600080fd5b5061011b610544565b6040516101289190610bcd565b60405180910390f35b34801561013d57600080fd5b5061015860048036038101906101539190610be8565b61054a565b005b34801561016657600080fd5b5061016f6105d7565b60405161017c9190610c24565b60405180910390f35b34801561019157600080fd5b506101ac60048036038101906101a79190610aa0565b6105fb565b6040516101bd959493929190610b73565b60405180910390f35b3480156101d257600080fd5b506101ed60048036038101906101e89190610822565b6106d9565b6040516101fa9190610bcd565b60405180910390f35b600034905080600460008473ffffffffffffffffffffffffffffffffffffffff1673ffffffffffffffffffffffffffffffffffffffff168152602001908152602001600020546102539190610c6e565b600460008473ffffffffffffffffffffffffffffffffffffffff1673ffffffffffffffffffffffffffffffffffffffff168152602001908152602001600020819055505050565b60008054906101000a900473ffffffffffffffffffffffffffffffffffffffff1673ffffffffffffffffffffffffffffffffffffffff163373ffffffffffffffffffffffffffffffffffffffff16146102f257600080fd5b60015442101561030157600080fd5b6103096106f1565b6040518060a001604052808681526020018581526020018481526020018381526020018273ffffffffffffffffffffffffffffffffffffffff1681525060036000600254815260200190815260200160002060008201518160000155602082015181600101908051906020019061038192919061070d565b50604082015181600201556060820151816003015560808201518160040160006101000a81548173ffffffffffffffffffffffffffffffffffffffff021916908373ffffffffffffffffffffffffffffffffffffffff1602179055509050505050505050565b60006060600080600080600360008881526020019081526020016000206040518060a00160405290816000820154815260200160018201805461042990610cf3565b80601f016020809104026020016040519081016040528092919081815260200182805461045590610cf3565b80156104a25780601f10610477576101008083540402835291602001916104a2565b820191906000526020600020905b81548152906001019060200180831161048557829003601f168201915b5050505050815260200160028201548152602001600382015481526020016004820160009054906101000a900473ffffffffffffffffffffffffffffffffffffffff1673ffffffffffffffffffffffffffffffffffffffff1673ffffffffffffffffffffffffffffffffffffffff1681525050905080600001518160200151826040015183606001518460800151955095509550955095505091939590929450565b60025481565b6000600460008373ffffffffffffffffffffffffffffffffffffffff1673ffffffffffffffffffffffffffffffffffffffff1681526020019081526020016000205490506000600460008473ffffffffffffffffffffffffffffffffffffffff1673ffffffffffffffffffffffffffffffffffffffff168152602001908152602001600020819055505050565b60008054906101000a900473ffffffffffffffffffffffffffffffffffffffff1681565b600360205280600052604060002060009150905080600001549080600101805461062490610cf3565b80601f016020809104026020016040519081016040528092919081815260200182805461065090610cf3565b801561069d5780601f106106725761010080835404028352916020019161069d565b820191906000526020600020905b81548152906001019060200180831161068057829003601f168201915b5050505050908060020154908060030154908060040160009054906101000a900473ffffffffffffffffffffffffffffffffffffffff16905085565b60046020528060005260406000206000915090505481565b6001600260008282546107049190610c6e565b92505081905550565b82805461071990610cf3565b90600052602060002090601f01602090048101928261073b5760008555610782565b82601f1061075457805160ff1916838001178555610782565b82800160010185558215610782579182015b82811115610781578251825591602001919060010190610766565b5b50905061078f9190610793565b5090565b5b808211156107ac576000816000905550600101610794565b5090565b6000604051905090565b600080fd5b600080fd5b600073ffffffffffffffffffffffffffffffffffffffff82169050919050565b60006107ef826107c4565b9050919050565b6107ff816107e4565b811461080a57600080fd5b50565b60008135905061081c816107f6565b92915050565b600060208284031215610838576108376107ba565b5b60006108468482850161080d565b91505092915050565b6000819050919050565b6108628161084f565b811461086d57600080fd5b50565b60008135905061087f81610859565b92915050565b600080fd5b600080fd5b6000601f19601f8301169050919050565b7f4e487b7100000000000000000000000000000000000000000000000000000000600052604160045260246000fd5b6108d88261088f565b810181811067ffffffffffffffff821117156108f7576108f66108a0565b5b80604052505050565b600061090a6107b0565b905061091682826108cf565b919050565b600067ffffffffffffffff821115610936576109356108a0565b5b61093f8261088f565b9050602081019050919050565b82818337600083830152505050565b600061096e6109698461091b565b610900565b90508281526020810184848401111561098a5761098961088a565b5b61099584828561094c565b509392505050565b600082601f8301126109b2576109b1610885565b5b81356109c284826020860161095b565b91505092915050565b60006109d6826107c4565b9050919050565b6109e6816109cb565b81146109f157600080fd5b50565b600081359050610a03816109dd565b92915050565b600080600080600060a08688031215610a2557610a246107ba565b5b6000610a3388828901610870565b955050602086013567ffffffffffffffff811115610a5457610a536107bf565b5b610a608882890161099d565b9450506040610a7188828901610870565b9350506060610a8288828901610870565b9250506080610a93888289016109f4565b9150509295509295909350565b600060208284031215610ab657610ab56107ba565b5b6000610ac484828501610870565b91505092915050565b610ad68161084f565b82525050565b600081519050919050565b600082825260208201905092915050565b60005b83811015610b16578082015181840152602081019050610afb565b83811115610b25576000848401525b50505050565b6000610b3682610adc565b610b408185610ae7565b9350610b50818560208601610af8565b610b598161088f565b840191505092915050565b610b6d816109cb565b82525050565b600060a082019050610b886000830188610acd565b8181036020830152610b9a8187610b2b565b9050610ba96040830186610acd565b610bb66060830185610acd565b610bc36080830184610b64565b9695505050505050565b6000602082019050610be26000830184610acd565b92915050565b600060208284031215610bfe57610bfd6107ba565b5b6000610c0c848285016109f4565b91505092915050565b610c1e816107e4565b82525050565b6000602082019050610c396000830184610c15565b92915050565b7f4e487b7100000000000000000000000000000000000000000000000000000000600052601160045260246000fd5b6000610c798261084f565b9150610c848361084f565b9250827fffffffffffffffffffffffffffffffffffffffffffffffffffffffffffffffff03821115610cb957610cb8610c3f565b5b828201905092915050565b7f4e487b7100000000000000000000000000000000000000000000000000000000600052602260045260246000fd5b60006002820490506001821680610d0b57607f821691505b602082108103610d1e57610d1d610cc4565b5b5091905056fea2646970667358221220908274a859db19c700378b101f9b8f744da35bc25ba906102f70e28cbaeb7bcb64736f6c634300080d0033",
					"opcodes": "PUSH1 0x80 PUSH1 0x40 MSTORE PUSH4 0x624124B1 PUSH1 0x1 SSTORE PUSH1 0x0 PUSH1 0x2 SSTORE CALLVALUE DUP1 ISZERO PUSH2 0x1D JUMPI PUSH1 0x0 DUP1 REVERT JUMPDEST POP CALLER PUSH1 0x0 DUP1 PUSH2 0x100 EXP DUP2 SLOAD DUP2 PUSH20 0xFFFFFFFFFFFFFFFFFFFFFFFFFFFFFFFFFFFFFFFF MUL NOT AND SWAP1 DUP4 PUSH20 0xFFFFFFFFFFFFFFFFFFFFFFFFFFFFFFFFFFFFFFFF AND MUL OR SWAP1 SSTORE POP PUSH2 0xD5A DUP1 PUSH2 0x6D PUSH1 0x0 CODECOPY PUSH1 0x0 RETURN INVALID PUSH1 0x80 PUSH1 0x40 MSTORE PUSH1 0x4 CALLDATASIZE LT PUSH2 0x7B JUMPI PUSH1 0x0 CALLDATALOAD PUSH1 0xE0 SHR DUP1 PUSH4 0x8954A294 GT PUSH2 0x4E JUMPI DUP1 PUSH4 0x8954A294 EQ PUSH2 0x131 JUMPI DUP1 PUSH4 0x8DA5CB5B EQ PUSH2 0x15A JUMPI DUP1 PUSH4 0x9E7A13AD EQ PUSH2 0x185 JUMPI DUP1 PUSH4 0xFC7E286D EQ PUSH2 0x1C6 JUMPI PUSH2 0x7B JUMP JUMPDEST DUP1 PUSH4 0x152C3363 EQ PUSH2 0x80 JUMPI DUP1 PUSH4 0x18D875DF EQ PUSH2 0x9C JUMPI DUP1 PUSH4 0x246982C4 EQ PUSH2 0xC5 JUMPI DUP1 PUSH4 0x267C68E0 EQ PUSH2 0x106 JUMPI JUMPDEST PUSH1 0x0 DUP1 REVERT JUMPDEST PUSH2 0x9A PUSH1 0x4 DUP1 CALLDATASIZE SUB DUP2 ADD SWAP1 PUSH2 0x95 SWAP2 SWAP1 PUSH2 0x822 JUMP JUMPDEST PUSH2 0x203 JUMP JUMPDEST STOP JUMPDEST CALLVALUE DUP1 ISZERO PUSH2 0xA8 JUMPI PUSH1 0x0 DUP1 REVERT JUMPDEST POP PUSH2 0xC3 PUSH1 0x4 DUP1 CALLDATASIZE SUB DUP2 ADD SWAP1 PUSH2 0xBE SWAP2 SWAP1 PUSH2 0xA09 JUMP JUMPDEST PUSH2 0x29A JUMP JUMPDEST STOP JUMPDEST CALLVALUE DUP1 ISZERO PUSH2 0xD1 JUMPI PUSH1 0x0 DUP1 REVERT JUMPDEST POP PUSH2 0xEC PUSH1 0x4 DUP1 CALLDATASIZE SUB DUP2 ADD SWAP1 PUSH2 0xE7 SWAP2 SWAP1 PUSH2 0xAA0 JUMP JUMPDEST PUSH2 0x3E7 JUMP JUMPDEST PUSH1 0x40 MLOAD PUSH2 0xFD SWAP6 SWAP5 SWAP4 SWAP3 SWAP2 SWAP1 PUSH2 0xB73 JUMP JUMPDEST PUSH1 0x40 MLOAD DUP1 SWAP2 SUB SWAP1 RETURN JUMPDEST CALLVALUE DUP1 ISZERO PUSH2 0x112 JUMPI PUSH1 0x0 DUP1 REVERT JUMPDEST POP PUSH2 0x11B PUSH2 0x544 JUMP JUMPDEST PUSH1 0x40 MLOAD PUSH2 0x128 SWAP2 SWAP1 PUSH2 0xBCD JUMP JUMPDEST PUSH1 0x40 MLOAD DUP1 SWAP2 SUB SWAP1 RETURN JUMPDEST CALLVALUE DUP1 ISZERO PUSH2 0x13D JUMPI PUSH1 0x0 DUP1 REVERT JUMPDEST POP PUSH2 0x158 PUSH1 0x4 DUP1 CALLDATASIZE SUB DUP2 ADD SWAP1 PUSH2 0x153 SWAP2 SWAP1 PUSH2 0xBE8 JUMP JUMPDEST PUSH2 0x54A JUMP JUMPDEST STOP JUMPDEST CALLVALUE DUP1 ISZERO PUSH2 0x166 JUMPI PUSH1 0x0 DUP1 REVERT JUMPDEST POP PUSH2 0x16F PUSH2 0x5D7 JUMP JUMPDEST PUSH1 0x40 MLOAD PUSH2 0x17C SWAP2 SWAP1 PUSH2 0xC24 JUMP JUMPDEST PUSH1 0x40 MLOAD DUP1 SWAP2 SUB SWAP1 RETURN JUMPDEST CALLVALUE DUP1 ISZERO PUSH2 0x191 JUMPI PUSH1 0x0 DUP1 REVERT JUMPDEST POP PUSH2 0x1AC PUSH1 0x4 DUP1 CALLDATASIZE SUB DUP2 ADD SWAP1 PUSH2 0x1A7 SWAP2 SWAP1 PUSH2 0xAA0 JUMP JUMPDEST PUSH2 0x5FB JUMP JUMPDEST PUSH1 0x40 MLOAD PUSH2 0x1BD SWAP6 SWAP5 SWAP4 SWAP3 SWAP2 SWAP1 PUSH2 0xB73 JUMP JUMPDEST PUSH1 0x40 MLOAD DUP1 SWAP2 SUB SWAP1 RETURN JUMPDEST CALLVALUE DUP1 ISZERO PUSH2 0x1D2 JUMPI PUSH1 0x0 DUP1 REVERT JUMPDEST POP PUSH2 0x1ED PUSH1 0x4 DUP1 CALLDATASIZE SUB DUP2 ADD SWAP1 PUSH2 0x1E8 SWAP2 SWAP1 PUSH2 0x822 JUMP JUMPDEST PUSH2 0x6D9 JUMP JUMPDEST PUSH1 0x40 MLOAD PUSH2 0x1FA SWAP2 SWAP1 PUSH2 0xBCD JUMP JUMPDEST PUSH1 0x40 MLOAD DUP1 SWAP2 SUB SWAP1 RETURN JUMPDEST PUSH1 0x0 CALLVALUE SWAP1 POP DUP1 PUSH1 0x4 PUSH1 0x0 DUP5 PUSH20 0xFFFFFFFFFFFFFFFFFFFFFFFFFFFFFFFFFFFFFFFF AND PUSH20 0xFFFFFFFFFFFFFFFFFFFFFFFFFFFFFFFFFFFFFFFF AND DUP2 MSTORE PUSH1 0x20 ADD SWAP1 DUP2 MSTORE PUSH1 0x20 ADD PUSH1 0x0 KECCAK256 SLOAD PUSH2 0x253 SWAP2 SWAP1 PUSH2 0xC6E JUMP JUMPDEST PUSH1 0x4 PUSH1 0x0 DUP5 PUSH20 0xFFFFFFFFFFFFFFFFFFFFFFFFFFFFFFFFFFFFFFFF AND PUSH20 0xFFFFFFFFFFFFFFFFFFFFFFFFFFFFFFFFFFFFFFFF AND DUP2 MSTORE PUSH1 0x20 ADD SWAP1 DUP2 MSTORE PUSH1 0x20 ADD PUSH1 0x0 KECCAK256 DUP2 SWAP1 SSTORE POP POP POP JUMP JUMPDEST PUSH1 0x0 DUP1 SLOAD SWAP1 PUSH2 0x100 EXP SWAP1 DIV PUSH20 0xFFFFFFFFFFFFFFFFFFFFFFFFFFFFFFFFFFFFFFFF AND PUSH20 0xFFFFFFFFFFFFFFFFFFFFFFFFFFFFFFFFFFFFFFFF AND CALLER PUSH20 0xFFFFFFFFFFFFFFFFFFFFFFFFFFFFFFFFFFFFFFFF AND EQ PUSH2 0x2F2 JUMPI PUSH1 0x0 DUP1 REVERT JUMPDEST PUSH1 0x1 SLOAD TIMESTAMP LT ISZERO PUSH2 0x301 JUMPI PUSH1 0x0 DUP1 REVERT JUMPDEST PUSH2 0x309 PUSH2 0x6F1 JUMP JUMPDEST PUSH1 0x40 MLOAD DUP1 PUSH1 0xA0 ADD PUSH1 0x40 MSTORE DUP1 DUP7 DUP2 MSTORE PUSH1 0x20 ADD DUP6 DUP2 MSTORE PUSH1 0x20 ADD DUP5 DUP2 MSTORE PUSH1 0x20 ADD DUP4 DUP2 MSTORE PUSH1 0x20 ADD DUP3 PUSH20 0xFFFFFFFFFFFFFFFFFFFFFFFFFFFFFFFFFFFFFFFF AND DUP2 MSTORE POP PUSH1 0x3 PUSH1 0x0 PUSH1 0x2 SLOAD DUP2 MSTORE PUSH1 0x20 ADD SWAP1 DUP2 MSTORE PUSH1 0x20 ADD PUSH1 0x0 KECCAK256 PUSH1 0x0 DUP3 ADD MLOAD DUP2 PUSH1 0x0 ADD SSTORE PUSH1 0x20 DUP3 ADD MLOAD DUP2 PUSH1 0x1 ADD SWAP1 DUP1 MLOAD SWAP1 PUSH1 0x20 ADD SWAP1 PUSH2 0x381 SWAP3 SWAP2 SWAP1 PUSH2 0x70D JUMP JUMPDEST POP PUSH1 0x40 DUP3 ADD MLOAD DUP2 PUSH1 0x2 ADD SSTORE PUSH1 0x60 DUP3 ADD MLOAD DUP2 PUSH1 0x3 ADD SSTORE PUSH1 0x80 DUP3 ADD MLOAD DUP2 PUSH1 0x4 ADD PUSH1 0x0 PUSH2 0x100 EXP DUP2 SLOAD DUP2 PUSH20 0xFFFFFFFFFFFFFFFFFFFFFFFFFFFFFFFFFFFFFFFF MUL NOT AND SWAP1 DUP4 PUSH20 0xFFFFFFFFFFFFFFFFFFFFFFFFFFFFFFFFFFFFFFFF AND MUL OR SWAP1 SSTORE POP SWAP1 POP POP POP POP POP POP POP JUMP JUMPDEST PUSH1 0x0 PUSH1 0x60 PUSH1 0x0 DUP1 PUSH1 0x0 DUP1 PUSH1 0x3 PUSH1 0x0 DUP9 DUP2 MSTORE PUSH1 0x20 ADD SWAP1 DUP2 MSTORE PUSH1 0x20 ADD PUSH1 0x0 KECCAK256 PUSH1 0x40 MLOAD DUP1 PUSH1 0xA0 ADD PUSH1 0x40 MSTORE SWAP1 DUP2 PUSH1 0x0 DUP3 ADD SLOAD DUP2 MSTORE PUSH1 0x20 ADD PUSH1 0x1 DUP3 ADD DUP1 SLOAD PUSH2 0x429 SWAP1 PUSH2 0xCF3 JUMP JUMPDEST DUP1 PUSH1 0x1F ADD PUSH1 0x20 DUP1 SWAP2 DIV MUL PUSH1 0x20 ADD PUSH1 0x40 MLOAD SWAP1 DUP2 ADD PUSH1 0x40 MSTORE DUP1 SWAP3 SWAP2 SWAP1 DUP2 DUP2 MSTORE PUSH1 0x20 ADD DUP3 DUP1 SLOAD PUSH2 0x455 SWAP1 PUSH2 0xCF3 JUMP JUMPDEST DUP1 ISZERO PUSH2 0x4A2 JUMPI DUP1 PUSH1 0x1F LT PUSH2 0x477 JUMPI PUSH2 0x100 DUP1 DUP4 SLOAD DIV MUL DUP4 MSTORE SWAP2 PUSH1 0x20 ADD SWAP2 PUSH2 0x4A2 JUMP JUMPDEST DUP3 ADD SWAP2 SWAP1 PUSH1 0x0 MSTORE PUSH1 0x20 PUSH1 0x0 KECCAK256 SWAP1 JUMPDEST DUP2 SLOAD DUP2 MSTORE SWAP1 PUSH1 0x1 ADD SWAP1 PUSH1 0x20 ADD DUP1 DUP4 GT PUSH2 0x485 JUMPI DUP3 SWAP1 SUB PUSH1 0x1F AND DUP3 ADD SWAP2 JUMPDEST POP POP POP POP POP DUP2 MSTORE PUSH1 0x20 ADD PUSH1 0x2 DUP3 ADD SLOAD DUP2 MSTORE PUSH1 0x20 ADD PUSH1 0x3 DUP3 ADD SLOAD DUP2 MSTORE PUSH1 0x20 ADD PUSH1 0x4 DUP3 ADD PUSH1 0x0 SWAP1 SLOAD SWAP1 PUSH2 0x100 EXP SWAP1 DIV PUSH20 0xFFFFFFFFFFFFFFFFFFFFFFFFFFFFFFFFFFFFFFFF AND PUSH20 0xFFFFFFFFFFFFFFFFFFFFFFFFFFFFFFFFFFFFFFFF AND PUSH20 0xFFFFFFFFFFFFFFFFFFFFFFFFFFFFFFFFFFFFFFFF AND DUP2 MSTORE POP POP SWAP1 POP DUP1 PUSH1 0x0 ADD MLOAD DUP2 PUSH1 0x20 ADD MLOAD DUP3 PUSH1 0x40 ADD MLOAD DUP4 PUSH1 0x60 ADD MLOAD DUP5 PUSH1 0x80 ADD MLOAD SWAP6 POP SWAP6 POP SWAP6 POP SWAP6 POP SWAP6 POP POP SWAP2 SWAP4 SWAP6 SWAP1 SWAP3 SWAP5 POP JUMP JUMPDEST PUSH1 0x2 SLOAD DUP2 JUMP JUMPDEST PUSH1 0x0 PUSH1 0x4 PUSH1 0x0 DUP4 PUSH20 0xFFFFFFFFFFFFFFFFFFFFFFFFFFFFFFFFFFFFFFFF AND PUSH20 0xFFFFFFFFFFFFFFFFFFFFFFFFFFFFFFFFFFFFFFFF AND DUP2 MSTORE PUSH1 0x20 ADD SWAP1 DUP2 MSTORE PUSH1 0x20 ADD PUSH1 0x0 KECCAK256 SLOAD SWAP1 POP PUSH1 0x0 PUSH1 0x4 PUSH1 0x0 DUP5 PUSH20 0xFFFFFFFFFFFFFFFFFFFFFFFFFFFFFFFFFFFFFFFF AND PUSH20 0xFFFFFFFFFFFFFFFFFFFFFFFFFFFFFFFFFFFFFFFF AND DUP2 MSTORE PUSH1 0x20 ADD SWAP1 DUP2 MSTORE PUSH1 0x20 ADD PUSH1 0x0 KECCAK256 DUP2 SWAP1 SSTORE POP POP POP JUMP JUMPDEST PUSH1 0x0 DUP1 SLOAD SWAP1 PUSH2 0x100 EXP SWAP1 DIV PUSH20 0xFFFFFFFFFFFFFFFFFFFFFFFFFFFFFFFFFFFFFFFF AND DUP2 JUMP JUMPDEST PUSH1 0x3 PUSH1 0x20 MSTORE DUP1 PUSH1 0x0 MSTORE PUSH1 0x40 PUSH1 0x0 KECCAK256 PUSH1 0x0 SWAP2 POP SWAP1 POP DUP1 PUSH1 0x0 ADD SLOAD SWAP1 DUP1 PUSH1 0x1 ADD DUP1 SLOAD PUSH2 0x624 SWAP1 PUSH2 0xCF3 JUMP JUMPDEST DUP1 PUSH1 0x1F ADD PUSH1 0x20 DUP1 SWAP2 DIV MUL PUSH1 0x20 ADD PUSH1 0x40 MLOAD SWAP1 DUP2 ADD PUSH1 0x40 MSTORE DUP1 SWAP3 SWAP2 SWAP1 DUP2 DUP2 MSTORE PUSH1 0x20 ADD DUP3 DUP1 SLOAD PUSH2 0x650 SWAP1 PUSH2 0xCF3 JUMP JUMPDEST DUP1 ISZERO PUSH2 0x69D JUMPI DUP1 PUSH1 0x1F LT PUSH2 0x672 JUMPI PUSH2 0x100 DUP1 DUP4 SLOAD DIV MUL DUP4 MSTORE SWAP2 PUSH1 0x20 ADD SWAP2 PUSH2 0x69D JUMP JUMPDEST DUP3 ADD SWAP2 SWAP1 PUSH1 0x0 MSTORE PUSH1 0x20 PUSH1 0x0 KECCAK256 SWAP1 JUMPDEST DUP2 SLOAD DUP2 MSTORE SWAP1 PUSH1 0x1 ADD SWAP1 PUSH1 0x20 ADD DUP1 DUP4 GT PUSH2 0x680 JUMPI DUP3 SWAP1 SUB PUSH1 0x1F AND DUP3 ADD SWAP2 JUMPDEST POP POP POP POP POP SWAP1 DUP1 PUSH1 0x2 ADD SLOAD SWAP1 DUP1 PUSH1 0x3 ADD SLOAD SWAP1 DUP1 PUSH1 0x4 ADD PUSH1 0x0 SWAP1 SLOAD SWAP1 PUSH2 0x100 EXP SWAP1 DIV PUSH20 0xFFFFFFFFFFFFFFFFFFFFFFFFFFFFFFFFFFFFFFFF AND SWAP1 POP DUP6 JUMP JUMPDEST PUSH1 0x4 PUSH1 0x20 MSTORE DUP1 PUSH1 0x0 MSTORE PUSH1 0x40 PUSH1 0x0 KECCAK256 PUSH1 0x0 SWAP2 POP SWAP1 POP SLOAD DUP2 JUMP JUMPDEST PUSH1 0x1 PUSH1 0x2 PUSH1 0x0 DUP3 DUP3 SLOAD PUSH2 0x704 SWAP2 SWAP1 PUSH2 0xC6E JUMP JUMPDEST SWAP3 POP POP DUP2 SWAP1 SSTORE POP JUMP JUMPDEST DUP3 DUP1 SLOAD PUSH2 0x719 SWAP1 PUSH2 0xCF3 JUMP JUMPDEST SWAP1 PUSH1 0x0 MSTORE PUSH1 0x20 PUSH1 0x0 KECCAK256 SWAP1 PUSH1 0x1F ADD PUSH1 0x20 SWAP1 DIV DUP2 ADD SWAP3 DUP3 PUSH2 0x73B JUMPI PUSH1 0x0 DUP6 SSTORE PUSH2 0x782 JUMP JUMPDEST DUP3 PUSH1 0x1F LT PUSH2 0x754 JUMPI DUP1 MLOAD PUSH1 0xFF NOT AND DUP4 DUP1 ADD OR DUP6 SSTORE PUSH2 0x782 JUMP JUMPDEST DUP3 DUP1 ADD PUSH1 0x1 ADD DUP6 SSTORE DUP3 ISZERO PUSH2 0x782 JUMPI SWAP2 DUP3 ADD JUMPDEST DUP3 DUP2 GT ISZERO PUSH2 0x781 JUMPI DUP3 MLOAD DUP3 SSTORE SWAP2 PUSH1 0x20 ADD SWAP2 SWAP1 PUSH1 0x1 ADD SWAP1 PUSH2 0x766 JUMP JUMPDEST JUMPDEST POP SWAP1 POP PUSH2 0x78F SWAP2 SWAP1 PUSH2 0x793 JUMP JUMPDEST POP SWAP1 JUMP JUMPDEST JUMPDEST DUP1 DUP3 GT ISZERO PUSH2 0x7AC JUMPI PUSH1 0x0 DUP2 PUSH1 0x0 SWAP1 SSTORE POP PUSH1 0x1 ADD PUSH2 0x794 JUMP JUMPDEST POP SWAP1 JUMP JUMPDEST PUSH1 0x0 PUSH1 0x40 MLOAD SWAP1 POP SWAP1 JUMP JUMPDEST PUSH1 0x0 DUP1 REVERT JUMPDEST PUSH1 0x0 DUP1 REVERT JUMPDEST PUSH1 0x0 PUSH20 0xFFFFFFFFFFFFFFFFFFFFFFFFFFFFFFFFFFFFFFFF DUP3 AND SWAP1 POP SWAP2 SWAP1 POP JUMP JUMPDEST PUSH1 0x0 PUSH2 0x7EF DUP3 PUSH2 0x7C4 JUMP JUMPDEST SWAP1 POP SWAP2 SWAP1 POP JUMP JUMPDEST PUSH2 0x7FF DUP2 PUSH2 0x7E4 JUMP JUMPDEST DUP2 EQ PUSH2 0x80A JUMPI PUSH1 0x0 DUP1 REVERT JUMPDEST POP JUMP JUMPDEST PUSH1 0x0 DUP2 CALLDATALOAD SWAP1 POP PUSH2 0x81C DUP2 PUSH2 0x7F6 JUMP JUMPDEST SWAP3 SWAP2 POP POP JUMP JUMPDEST PUSH1 0x0 PUSH1 0x20 DUP3 DUP5 SUB SLT ISZERO PUSH2 0x838 JUMPI PUSH2 0x837 PUSH2 0x7BA JUMP JUMPDEST JUMPDEST PUSH1 0x0 PUSH2 0x846 DUP5 DUP3 DUP6 ADD PUSH2 0x80D JUMP JUMPDEST SWAP2 POP POP SWAP3 SWAP2 POP POP JUMP JUMPDEST PUSH1 0x0 DUP2 SWAP1 POP SWAP2 SWAP1 POP JUMP JUMPDEST PUSH2 0x862 DUP2 PUSH2 0x84F JUMP JUMPDEST DUP2 EQ PUSH2 0x86D JUMPI PUSH1 0x0 DUP1 REVERT JUMPDEST POP JUMP JUMPDEST PUSH1 0x0 DUP2 CALLDATALOAD SWAP1 POP PUSH2 0x87F DUP2 PUSH2 0x859 JUMP JUMPDEST SWAP3 SWAP2 POP POP JUMP JUMPDEST PUSH1 0x0 DUP1 REVERT JUMPDEST PUSH1 0x0 DUP1 REVERT JUMPDEST PUSH1 0x0 PUSH1 0x1F NOT PUSH1 0x1F DUP4 ADD AND SWAP1 POP SWAP2 SWAP1 POP JUMP JUMPDEST PUSH32 0x4E487B7100000000000000000000000000000000000000000000000000000000 PUSH1 0x0 MSTORE PUSH1 0x41 PUSH1 0x4 MSTORE PUSH1 0x24 PUSH1 0x0 REVERT JUMPDEST PUSH2 0x8D8 DUP3 PUSH2 0x88F JUMP JUMPDEST DUP2 ADD DUP2 DUP2 LT PUSH8 0xFFFFFFFFFFFFFFFF DUP3 GT OR ISZERO PUSH2 0x8F7 JUMPI PUSH2 0x8F6 PUSH2 0x8A0 JUMP JUMPDEST JUMPDEST DUP1 PUSH1 0x40 MSTORE POP POP POP JUMP JUMPDEST PUSH1 0x0 PUSH2 0x90A PUSH2 0x7B0 JUMP JUMPDEST SWAP1 POP PUSH2 0x916 DUP3 DUP3 PUSH2 0x8CF JUMP JUMPDEST SWAP2 SWAP1 POP JUMP JUMPDEST PUSH1 0x0 PUSH8 0xFFFFFFFFFFFFFFFF DUP3 GT ISZERO PUSH2 0x936 JUMPI PUSH2 0x935 PUSH2 0x8A0 JUMP JUMPDEST JUMPDEST PUSH2 0x93F DUP3 PUSH2 0x88F JUMP JUMPDEST SWAP1 POP PUSH1 0x20 DUP2 ADD SWAP1 POP SWAP2 SWAP1 POP JUMP JUMPDEST DUP3 DUP2 DUP4 CALLDATACOPY PUSH1 0x0 DUP4 DUP4 ADD MSTORE POP POP POP JUMP JUMPDEST PUSH1 0x0 PUSH2 0x96E PUSH2 0x969 DUP5 PUSH2 0x91B JUMP JUMPDEST PUSH2 0x900 JUMP JUMPDEST SWAP1 POP DUP3 DUP2 MSTORE PUSH1 0x20 DUP2 ADD DUP5 DUP5 DUP5 ADD GT ISZERO PUSH2 0x98A JUMPI PUSH2 0x989 PUSH2 0x88A JUMP JUMPDEST JUMPDEST PUSH2 0x995 DUP5 DUP3 DUP6 PUSH2 0x94C JUMP JUMPDEST POP SWAP4 SWAP3 POP POP POP JUMP JUMPDEST PUSH1 0x0 DUP3 PUSH1 0x1F DUP4 ADD SLT PUSH2 0x9B2 JUMPI PUSH2 0x9B1 PUSH2 0x885 JUMP JUMPDEST JUMPDEST DUP2 CALLDATALOAD PUSH2 0x9C2 DUP5 DUP3 PUSH1 0x20 DUP7 ADD PUSH2 0x95B JUMP JUMPDEST SWAP2 POP POP SWAP3 SWAP2 POP POP JUMP JUMPDEST PUSH1 0x0 PUSH2 0x9D6 DUP3 PUSH2 0x7C4 JUMP JUMPDEST SWAP1 POP SWAP2 SWAP1 POP JUMP JUMPDEST PUSH2 0x9E6 DUP2 PUSH2 0x9CB JUMP JUMPDEST DUP2 EQ PUSH2 0x9F1 JUMPI PUSH1 0x0 DUP1 REVERT JUMPDEST POP JUMP JUMPDEST PUSH1 0x0 DUP2 CALLDATALOAD SWAP1 POP PUSH2 0xA03 DUP2 PUSH2 0x9DD JUMP JUMPDEST SWAP3 SWAP2 POP POP JUMP JUMPDEST PUSH1 0x0 DUP1 PUSH1 0x0 DUP1 PUSH1 0x0 PUSH1 0xA0 DUP7 DUP9 SUB SLT ISZERO PUSH2 0xA25 JUMPI PUSH2 0xA24 PUSH2 0x7BA JUMP JUMPDEST JUMPDEST PUSH1 0x0 PUSH2 0xA33 DUP9 DUP3 DUP10 ADD PUSH2 0x870 JUMP JUMPDEST SWAP6 POP POP PUSH1 0x20 DUP7 ADD CALLDATALOAD PUSH8 0xFFFFFFFFFFFFFFFF DUP2 GT ISZERO PUSH2 0xA54 JUMPI PUSH2 0xA53 PUSH2 0x7BF JUMP JUMPDEST JUMPDEST PUSH2 0xA60 DUP9 DUP3 DUP10 ADD PUSH2 0x99D JUMP JUMPDEST SWAP5 POP POP PUSH1 0x40 PUSH2 0xA71 DUP9 DUP3 DUP10 ADD PUSH2 0x870 JUMP JUMPDEST SWAP4 POP POP PUSH1 0x60 PUSH2 0xA82 DUP9 DUP3 DUP10 ADD PUSH2 0x870 JUMP JUMPDEST SWAP3 POP POP PUSH1 0x80 PUSH2 0xA93 DUP9 DUP3 DUP10 ADD PUSH2 0x9F4 JUMP JUMPDEST SWAP2 POP POP SWAP3 SWAP6 POP SWAP3 SWAP6 SWAP1 SWAP4 POP JUMP JUMPDEST PUSH1 0x0 PUSH1 0x20 DUP3 DUP5 SUB SLT ISZERO PUSH2 0xAB6 JUMPI PUSH2 0xAB5 PUSH2 0x7BA JUMP JUMPDEST JUMPDEST PUSH1 0x0 PUSH2 0xAC4 DUP5 DUP3 DUP6 ADD PUSH2 0x870 JUMP JUMPDEST SWAP2 POP POP SWAP3 SWAP2 POP POP JUMP JUMPDEST PUSH2 0xAD6 DUP2 PUSH2 0x84F JUMP JUMPDEST DUP3 MSTORE POP POP JUMP JUMPDEST PUSH1 0x0 DUP2 MLOAD SWAP1 POP SWAP2 SWAP1 POP JUMP JUMPDEST PUSH1 0x0 DUP3 DUP3 MSTORE PUSH1 0x20 DUP3 ADD SWAP1 POP SWAP3 SWAP2 POP POP JUMP JUMPDEST PUSH1 0x0 JUMPDEST DUP4 DUP2 LT ISZERO PUSH2 0xB16 JUMPI DUP1 DUP3 ADD MLOAD DUP2 DUP5 ADD MSTORE PUSH1 0x20 DUP2 ADD SWAP1 POP PUSH2 0xAFB JUMP JUMPDEST DUP4 DUP2 GT ISZERO PUSH2 0xB25 JUMPI PUSH1 0x0 DUP5 DUP5 ADD MSTORE JUMPDEST POP POP POP POP JUMP JUMPDEST PUSH1 0x0 PUSH2 0xB36 DUP3 PUSH2 0xADC JUMP JUMPDEST PUSH2 0xB40 DUP2 DUP6 PUSH2 0xAE7 JUMP JUMPDEST SWAP4 POP PUSH2 0xB50 DUP2 DUP6 PUSH1 0x20 DUP7 ADD PUSH2 0xAF8 JUMP JUMPDEST PUSH2 0xB59 DUP2 PUSH2 0x88F JUMP JUMPDEST DUP5 ADD SWAP2 POP POP SWAP3 SWAP2 POP POP JUMP JUMPDEST PUSH2 0xB6D DUP2 PUSH2 0x9CB JUMP JUMPDEST DUP3 MSTORE POP POP JUMP JUMPDEST PUSH1 0x0 PUSH1 0xA0 DUP3 ADD SWAP1 POP PUSH2 0xB88 PUSH1 0x0 DUP4 ADD DUP9 PUSH2 0xACD JUMP JUMPDEST DUP2 DUP2 SUB PUSH1 0x20 DUP4 ADD MSTORE PUSH2 0xB9A DUP2 DUP8 PUSH2 0xB2B JUMP JUMPDEST SWAP1 POP PUSH2 0xBA9 PUSH1 0x40 DUP4 ADD DUP7 PUSH2 0xACD JUMP JUMPDEST PUSH2 0xBB6 PUSH1 0x60 DUP4 ADD DUP6 PUSH2 0xACD JUMP JUMPDEST PUSH2 0xBC3 PUSH1 0x80 DUP4 ADD DUP5 PUSH2 0xB64 JUMP JUMPDEST SWAP7 SWAP6 POP POP POP POP POP POP JUMP JUMPDEST PUSH1 0x0 PUSH1 0x20 DUP3 ADD SWAP1 POP PUSH2 0xBE2 PUSH1 0x0 DUP4 ADD DUP5 PUSH2 0xACD JUMP JUMPDEST SWAP3 SWAP2 POP POP JUMP JUMPDEST PUSH1 0x0 PUSH1 0x20 DUP3 DUP5 SUB SLT ISZERO PUSH2 0xBFE JUMPI PUSH2 0xBFD PUSH2 0x7BA JUMP JUMPDEST JUMPDEST PUSH1 0x0 PUSH2 0xC0C DUP5 DUP3 DUP6 ADD PUSH2 0x9F4 JUMP JUMPDEST SWAP2 POP POP SWAP3 SWAP2 POP POP JUMP JUMPDEST PUSH2 0xC1E DUP2 PUSH2 0x7E4 JUMP JUMPDEST DUP3 MSTORE POP POP JUMP JUMPDEST PUSH1 0x0 PUSH1 0x20 DUP3 ADD SWAP1 POP PUSH2 0xC39 PUSH1 0x0 DUP4 ADD DUP5 PUSH2 0xC15 JUMP JUMPDEST SWAP3 SWAP2 POP POP JUMP JUMPDEST PUSH32 0x4E487B7100000000000000000000000000000000000000000000000000000000 PUSH1 0x0 MSTORE PUSH1 0x11 PUSH1 0x4 MSTORE PUSH1 0x24 PUSH1 0x0 REVERT JUMPDEST PUSH1 0x0 PUSH2 0xC79 DUP3 PUSH2 0x84F JUMP JUMPDEST SWAP2 POP PUSH2 0xC84 DUP4 PUSH2 0x84F JUMP JUMPDEST SWAP3 POP DUP3 PUSH32 0xFFFFFFFFFFFFFFFFFFFFFFFFFFFFFFFFFFFFFFFFFFFFFFFFFFFFFFFFFFFFFFFF SUB DUP3 GT ISZERO PUSH2 0xCB9 JUMPI PUSH2 0xCB8 PUSH2 0xC3F JUMP JUMPDEST JUMPDEST DUP3 DUP3 ADD SWAP1 POP SWAP3 SWAP2 POP POP JUMP JUMPDEST PUSH32 0x4E487B7100000000000000000000000000000000000000000000000000000000 PUSH1 0x0 MSTORE PUSH1 0x22 PUSH1 0x4 MSTORE PUSH1 0x24 PUSH1 0x0 REVERT JUMPDEST PUSH1 0x0 PUSH1 0x2 DUP3 DIV SWAP1 POP PUSH1 0x1 DUP3 AND DUP1 PUSH2 0xD0B JUMPI PUSH1 0x7F DUP3 AND SWAP2 POP JUMPDEST PUSH1 0x20 DUP3 LT DUP2 SUB PUSH2 0xD1E JUMPI PUSH2 0xD1D PUSH2 0xCC4 JUMP JUMPDEST JUMPDEST POP SWAP2 SWAP1 POP JUMP INVALID LOG2 PUSH5 0x6970667358 0x22 SLT KECCAK256 SWAP1 DUP3 PUSH21 0xA859DB19C700378B101F9B8F744DA35BC25BA90610 0x2F PUSH17 0xE28CBAEB7BCB64736F6C634300080D0033 "
				},
				"gasEstimates": {
					"creation": {
						"codeDepositCost": "683600",
						"executionCost": "52093",
						"totalCost": "735693"
					},
					"external": {
						"addPerson(uint256,string,uint256,uint256,address)": "infinite",
						"collectPrize(address)": "7762",
						"depositBet(address)": "infinite",
						"deposits(address)": "2880",
						"getPerson(uint256)": "infinite",
						"owner()": "2533",
						"people(uint256)": "infinite",
						"peopleCount()": "2496"
					},
					"internal": {
						"incrementCount()": "infinite"
					}
				},
				"methodIdentifiers": {
					"addPerson(uint256,string,uint256,uint256,address)": "18d875df",
					"collectPrize(address)": "8954a294",
					"depositBet(address)": "152c3363",
					"deposits(address)": "fc7e286d",
					"getPerson(uint256)": "246982c4",
					"owner()": "8da5cb5b",
					"people(uint256)": "9e7a13ad",
					"peopleCount()": "267c68e0"
				}
			},
			"userdoc": {
				"kind": "user",
				"methods": {},
				"version": 1
			}
		}
	}
}