{
	"ETH-Remix/HungerGames/HungerGames.sol": {
		"HungerGames": {
			"abi": [
				{
					"inputs": [
						{
							"internalType": "uint256",
							"name": "_id",
							"type": "uint256"
						},
						{
							"internalType": "uint256",
							"name": "_age",
							"type": "uint256"
						},
						{
							"internalType": "string",
							"name": "_name",
							"type": "string"
						},
						{
							"internalType": "uint256",
							"name": "_weight",
							"type": "uint256"
						},
						{
							"internalType": "uint256",
							"name": "_bet",
							"type": "uint256"
						}
					],
					"name": "addPerson",
					"outputs": [],
					"stateMutability": "nonpayable",
					"type": "function"
				},
				{
					"inputs": [
						{
							"internalType": "uint256",
							"name": "_index",
							"type": "uint256"
						}
					],
					"name": "getPerson",
					"outputs": [
						{
							"internalType": "uint256",
							"name": "",
							"type": "uint256"
						},
						{
							"internalType": "uint256",
							"name": "",
							"type": "uint256"
						},
						{
							"internalType": "string",
							"name": "",
							"type": "string"
						},
						{
							"internalType": "uint256",
							"name": "",
							"type": "uint256"
						},
						{
							"internalType": "uint256",
							"name": "",
							"type": "uint256"
						}
					],
					"stateMutability": "view",
					"type": "function"
				},
				{
					"inputs": [],
					"name": "owner",
					"outputs": [
						{
							"internalType": "address",
							"name": "",
							"type": "address"
						}
					],
					"stateMutability": "view",
					"type": "function"
				},
				{
					"inputs": [
						{
							"internalType": "uint256",
							"name": "",
							"type": "uint256"
						}
					],
					"name": "people",
					"outputs": [
						{
							"internalType": "uint256",
							"name": "_id",
							"type": "uint256"
						},
						{
							"internalType": "uint256",
							"name": "_age",
							"type": "uint256"
						},
						{
							"internalType": "string",
							"name": "_name",
							"type": "string"
						},
						{
							"internalType": "uint256",
							"name": "_weight",
							"type": "uint256"
						},
						{
							"internalType": "uint256",
							"name": "_bet",
							"type": "uint256"
						}
					],
					"stateMutability": "view",
					"type": "function"
				},
				{
					"inputs": [],
					"name": "peopleCount",
					"outputs": [
						{
							"internalType": "uint256",
							"name": "",
							"type": "uint256"
						}
					],
					"stateMutability": "view",
					"type": "function"
				}
			],
			"devdoc": {
				"kind": "dev",
				"methods": {},
				"version": 1
			},
			"evm": {
				"assembly": "    /* \"ETH-Remix/HungerGames/HungerGames.sol\":479:1576  contract HungerGames is Ownable, Timeable {... */\n  mstore(0x40, 0x80)\n    /* \"ETH-Remix/HungerGames/TimeoftheGames.sol\":114:124  1648436401 */\n  0x624124b1\n    /* \"ETH-Remix/HungerGames/TimeoftheGames.sol\":95:124  uint openingTime = 1648436401 */\n  0x01\n  sstore\n    /* \"ETH-Remix/HungerGames/HungerGames.sol\":582:583  0 */\n  0x00\n    /* \"ETH-Remix/HungerGames/HungerGames.sol\":553:583  uint256 public peopleCount = 0 */\n  0x02\n  sstore\n    /* \"ETH-Remix/HungerGames/HungerGames.sol\":479:1576  contract HungerGames is Ownable, Timeable {... */\n  callvalue\n  dup1\n  iszero\n  tag_1\n  jumpi\n  0x00\n  dup1\n  revert\ntag_1:\n  pop\n    /* \"ETH-Remix/HungerGames/Ownable.sol\":262:272  msg.sender */\n  caller\n    /* \"ETH-Remix/HungerGames/Ownable.sol\":254:259  owner */\n  0x00\n  dup1\n    /* \"ETH-Remix/HungerGames/Ownable.sol\":254:272  owner = msg.sender */\n  0x0100\n  exp\n  dup2\n  sload\n  dup2\n  0xffffffffffffffffffffffffffffffffffffffff\n  mul\n  not\n  and\n  swap1\n  dup4\n  0xffffffffffffffffffffffffffffffffffffffff\n  and\n  mul\n  or\n  swap1\n  sstore\n  pop\n    /* \"ETH-Remix/HungerGames/HungerGames.sol\":479:1576  contract HungerGames is Ownable, Timeable {... */\n  dataSize(sub_0)\n  dup1\n  dataOffset(sub_0)\n  0x00\n  codecopy\n  0x00\n  return\nstop\n\nsub_0: assembly {\n        /* \"ETH-Remix/HungerGames/HungerGames.sol\":479:1576  contract HungerGames is Ownable, Timeable {... */\n      mstore(0x40, 0x80)\n      callvalue\n      dup1\n      iszero\n      tag_1\n      jumpi\n      0x00\n      dup1\n      revert\n    tag_1:\n      pop\n      jumpi(tag_2, lt(calldatasize, 0x04))\n      shr(0xe0, calldataload(0x00))\n      dup1\n      0x246982c4\n      eq\n      tag_3\n      jumpi\n      dup1\n      0x267c68e0\n      eq\n      tag_4\n      jumpi\n      dup1\n      0x69249829\n      eq\n      tag_5\n      jumpi\n      dup1\n      0x8da5cb5b\n      eq\n      tag_6\n      jumpi\n      dup1\n      0x9e7a13ad\n      eq\n      tag_7\n      jumpi\n    tag_2:\n      0x00\n      dup1\n      revert\n        /* \"ETH-Remix/HungerGames/HungerGames.sol\":1267:1569  function getPerson(uint _index) public view returns (uint, uint, string memory, uint, uint) {... */\n    tag_3:\n      tag_8\n      0x04\n      dup1\n      calldatasize\n      sub\n      dup2\n      add\n      swap1\n      tag_9\n      swap2\n      swap1\n      tag_10\n      jump\t// in\n    tag_9:\n      tag_11\n      jump\t// in\n    tag_8:\n      mload(0x40)\n      tag_12\n      swap6\n      swap5\n      swap4\n      swap3\n      swap2\n      swap1\n      tag_13\n      jump\t// in\n    tag_12:\n      mload(0x40)\n      dup1\n      swap2\n      sub\n      swap1\n      return\n        /* \"ETH-Remix/HungerGames/HungerGames.sol\":553:583  uint256 public peopleCount = 0 */\n    tag_4:\n      tag_14\n      tag_15\n      jump\t// in\n    tag_14:\n      mload(0x40)\n      tag_16\n      swap2\n      swap1\n      tag_17\n      jump\t// in\n    tag_16:\n      mload(0x40)\n      dup1\n      swap2\n      sub\n      swap1\n      return\n        /* \"ETH-Remix/HungerGames/HungerGames.sol\":950:1181  function addPerson(uint _id, uint _age, string memory _name, uint _weight, uint _bet)... */\n    tag_5:\n      tag_18\n      0x04\n      dup1\n      calldatasize\n      sub\n      dup2\n      add\n      swap1\n      tag_19\n      swap2\n      swap1\n      tag_20\n      jump\t// in\n    tag_19:\n      tag_21\n      jump\t// in\n    tag_18:\n      stop\n        /* \"ETH-Remix/HungerGames/Ownable.sol\":92:112  address public owner */\n    tag_6:\n      tag_22\n      tag_23\n      jump\t// in\n    tag_22:\n      mload(0x40)\n      tag_24\n      swap2\n      swap1\n      tag_25\n      jump\t// in\n    tag_24:\n      mload(0x40)\n      dup1\n      swap2\n      sub\n      swap1\n      return\n        /* \"ETH-Remix/HungerGames/HungerGames.sol\":592:629  mapping(uint => Person) public people */\n    tag_7:\n      tag_26\n      0x04\n      dup1\n      calldatasize\n      sub\n      dup2\n      add\n      swap1\n      tag_27\n      swap2\n      swap1\n      tag_10\n      jump\t// in\n    tag_27:\n      tag_28\n      jump\t// in\n    tag_26:\n      mload(0x40)\n      tag_29\n      swap6\n      swap5\n      swap4\n      swap3\n      swap2\n      swap1\n      tag_13\n      jump\t// in\n    tag_29:\n      mload(0x40)\n      dup1\n      swap2\n      sub\n      swap1\n      return\n        /* \"ETH-Remix/HungerGames/HungerGames.sol\":1267:1569  function getPerson(uint _index) public view returns (uint, uint, string memory, uint, uint) {... */\n    tag_11:\n        /* \"ETH-Remix/HungerGames/HungerGames.sol\":1320:1324  uint */\n      0x00\n        /* \"ETH-Remix/HungerGames/HungerGames.sol\":1326:1330  uint */\n      dup1\n        /* \"ETH-Remix/HungerGames/HungerGames.sol\":1332:1345  string memory */\n      0x60\n        /* \"ETH-Remix/HungerGames/HungerGames.sol\":1347:1351  uint */\n      0x00\n        /* \"ETH-Remix/HungerGames/HungerGames.sol\":1353:1357  uint */\n      dup1\n        /* \"ETH-Remix/HungerGames/HungerGames.sol\":1370:1398  Person memory personToReturn */\n      0x00\n        /* \"ETH-Remix/HungerGames/HungerGames.sol\":1401:1407  people */\n      0x03\n        /* \"ETH-Remix/HungerGames/HungerGames.sol\":1401:1415  people[_index] */\n      0x00\n        /* \"ETH-Remix/HungerGames/HungerGames.sol\":1408:1414  _index */\n      dup9\n        /* \"ETH-Remix/HungerGames/HungerGames.sol\":1401:1415  people[_index] */\n      dup2\n      mstore\n      0x20\n      add\n      swap1\n      dup2\n      mstore\n      0x20\n      add\n      0x00\n      keccak256\n        /* \"ETH-Remix/HungerGames/HungerGames.sol\":1370:1415  Person memory personToReturn = people[_index] */\n      mload(0x40)\n      dup1\n      0xa0\n      add\n      0x40\n      mstore\n      swap1\n      dup2\n      0x00\n      dup3\n      add\n      sload\n      dup2\n      mstore\n      0x20\n      add\n      0x01\n      dup3\n      add\n      sload\n      dup2\n      mstore\n      0x20\n      add\n      0x02\n      dup3\n      add\n      dup1\n      sload\n      tag_31\n      swap1\n      tag_32\n      jump\t// in\n    tag_31:\n      dup1\n      0x1f\n      add\n      0x20\n      dup1\n      swap2\n      div\n      mul\n      0x20\n      add\n      mload(0x40)\n      swap1\n      dup2\n      add\n      0x40\n      mstore\n      dup1\n      swap3\n      swap2\n      swap1\n      dup2\n      dup2\n      mstore\n      0x20\n      add\n      dup3\n      dup1\n      sload\n      tag_33\n      swap1\n      tag_32\n      jump\t// in\n    tag_33:\n      dup1\n      iszero\n      tag_34\n      jumpi\n      dup1\n      0x1f\n      lt\n      tag_35\n      jumpi\n      0x0100\n      dup1\n      dup4\n      sload\n      div\n      mul\n      dup4\n      mstore\n      swap2\n      0x20\n      add\n      swap2\n      jump(tag_34)\n    tag_35:\n      dup3\n      add\n      swap2\n      swap1\n      0x00\n      mstore\n      keccak256(0x00, 0x20)\n      swap1\n    tag_36:\n      dup2\n      sload\n      dup2\n      mstore\n      swap1\n      0x01\n      add\n      swap1\n      0x20\n      add\n      dup1\n      dup4\n      gt\n      tag_36\n      jumpi\n      dup3\n      swap1\n      sub\n      0x1f\n      and\n      dup3\n      add\n      swap2\n    tag_34:\n      pop\n      pop\n      pop\n      pop\n      pop\n      dup2\n      mstore\n      0x20\n      add\n      0x03\n      dup3\n      add\n      sload\n      dup2\n      mstore\n      0x20\n      add\n      0x04\n      dup3\n      add\n      sload\n      dup2\n      mstore\n      pop\n      pop\n      swap1\n      pop\n        /* \"ETH-Remix/HungerGames/HungerGames.sol\":1434:1448  personToReturn */\n      dup1\n        /* \"ETH-Remix/HungerGames/HungerGames.sol\":1434:1452  personToReturn._id */\n      0x00\n      add\n      mload\n        /* \"ETH-Remix/HungerGames/HungerGames.sol\":1454:1468  personToReturn */\n      dup2\n        /* \"ETH-Remix/HungerGames/HungerGames.sol\":1454:1473  personToReturn._age */\n      0x20\n      add\n      mload\n        /* \"ETH-Remix/HungerGames/HungerGames.sol\":1475:1489  personToReturn */\n      dup3\n        /* \"ETH-Remix/HungerGames/HungerGames.sol\":1475:1495  personToReturn._name */\n      0x40\n      add\n      mload\n        /* \"ETH-Remix/HungerGames/HungerGames.sol\":1497:1511  personToReturn */\n      dup4\n        /* \"ETH-Remix/HungerGames/HungerGames.sol\":1497:1519  personToReturn._weight */\n      0x60\n      add\n      mload\n        /* \"ETH-Remix/HungerGames/HungerGames.sol\":1531:1545  personToReturn */\n      dup5\n        /* \"ETH-Remix/HungerGames/HungerGames.sol\":1531:1550  personToReturn._bet */\n      0x80\n      add\n      mload\n        /* \"ETH-Remix/HungerGames/HungerGames.sol\":1426:1551  return (personToReturn._id, personToReturn._age, personToReturn._name, personToReturn._weight, ... */\n      swap6\n      pop\n      swap6\n      pop\n      swap6\n      pop\n      swap6\n      pop\n      swap6\n      pop\n      pop\n        /* \"ETH-Remix/HungerGames/HungerGames.sol\":1267:1569  function getPerson(uint _index) public view returns (uint, uint, string memory, uint, uint) {... */\n      swap2\n      swap4\n      swap6\n      swap1\n      swap3\n      swap5\n      pop\n      jump\t// out\n        /* \"ETH-Remix/HungerGames/HungerGames.sol\":553:583  uint256 public peopleCount = 0 */\n    tag_15:\n      sload(0x02)\n      dup2\n      jump\t// out\n        /* \"ETH-Remix/HungerGames/HungerGames.sol\":950:1181  function addPerson(uint _id, uint _age, string memory _name, uint _weight, uint _bet)... */\n    tag_21:\n        /* \"ETH-Remix/HungerGames/Ownable.sol\":173:178  owner */\n      0x00\n      dup1\n      sload\n      swap1\n      0x0100\n      exp\n      swap1\n      div\n      0xffffffffffffffffffffffffffffffffffffffff\n      and\n        /* \"ETH-Remix/HungerGames/Ownable.sol\":159:178  msg.sender == owner */\n      0xffffffffffffffffffffffffffffffffffffffff\n      and\n        /* \"ETH-Remix/HungerGames/Ownable.sol\":159:169  msg.sender */\n      caller\n        /* \"ETH-Remix/HungerGames/Ownable.sol\":159:178  msg.sender == owner */\n      0xffffffffffffffffffffffffffffffffffffffff\n      and\n      eq\n        /* \"ETH-Remix/HungerGames/Ownable.sol\":151:179  require(msg.sender == owner) */\n      tag_38\n      jumpi\n      0x00\n      dup1\n      revert\n    tag_38:\n        /* \"ETH-Remix/HungerGames/TimeoftheGames.sol\":194:205  openingTime */\n      sload(0x01)\n        /* \"ETH-Remix/HungerGames/TimeoftheGames.sol\":175:190  block.timestamp */\n      timestamp\n        /* \"ETH-Remix/HungerGames/TimeoftheGames.sol\":175:205  block.timestamp >= openingTime */\n      lt\n      iszero\n        /* \"ETH-Remix/HungerGames/TimeoftheGames.sol\":167:206  require(block.timestamp >= openingTime) */\n      tag_40\n      jumpi\n      0x00\n      dup1\n      revert\n    tag_40:\n        /* \"ETH-Remix/HungerGames/HungerGames.sol\":1084:1100  incrementCount() */\n      tag_42\n        /* \"ETH-Remix/HungerGames/HungerGames.sol\":1084:1098  incrementCount */\n      tag_43\n        /* \"ETH-Remix/HungerGames/HungerGames.sol\":1084:1100  incrementCount() */\n      jump\t// in\n    tag_42:\n        /* \"ETH-Remix/HungerGames/HungerGames.sol\":1133:1173  Person(_id , _age, _name, _weight, _bet) */\n      mload(0x40)\n      dup1\n      0xa0\n      add\n      0x40\n      mstore\n      dup1\n        /* \"ETH-Remix/HungerGames/HungerGames.sol\":1140:1143  _id */\n      dup7\n        /* \"ETH-Remix/HungerGames/HungerGames.sol\":1133:1173  Person(_id , _age, _name, _weight, _bet) */\n      dup2\n      mstore\n      0x20\n      add\n        /* \"ETH-Remix/HungerGames/HungerGames.sol\":1146:1150  _age */\n      dup6\n        /* \"ETH-Remix/HungerGames/HungerGames.sol\":1133:1173  Person(_id , _age, _name, _weight, _bet) */\n      dup2\n      mstore\n      0x20\n      add\n        /* \"ETH-Remix/HungerGames/HungerGames.sol\":1152:1157  _name */\n      dup5\n        /* \"ETH-Remix/HungerGames/HungerGames.sol\":1133:1173  Person(_id , _age, _name, _weight, _bet) */\n      dup2\n      mstore\n      0x20\n      add\n        /* \"ETH-Remix/HungerGames/HungerGames.sol\":1159:1166  _weight */\n      dup4\n        /* \"ETH-Remix/HungerGames/HungerGames.sol\":1133:1173  Person(_id , _age, _name, _weight, _bet) */\n      dup2\n      mstore\n      0x20\n      add\n        /* \"ETH-Remix/HungerGames/HungerGames.sol\":1168:1172  _bet */\n      dup3\n        /* \"ETH-Remix/HungerGames/HungerGames.sol\":1133:1173  Person(_id , _age, _name, _weight, _bet) */\n      dup2\n      mstore\n      pop\n        /* \"ETH-Remix/HungerGames/HungerGames.sol\":1111:1117  people */\n      0x03\n        /* \"ETH-Remix/HungerGames/HungerGames.sol\":1111:1130  people[peopleCount] */\n      0x00\n        /* \"ETH-Remix/HungerGames/HungerGames.sol\":1118:1129  peopleCount */\n      sload(0x02)\n        /* \"ETH-Remix/HungerGames/HungerGames.sol\":1111:1130  people[peopleCount] */\n      dup2\n      mstore\n      0x20\n      add\n      swap1\n      dup2\n      mstore\n      0x20\n      add\n      0x00\n      keccak256\n        /* \"ETH-Remix/HungerGames/HungerGames.sol\":1111:1173  people[peopleCount] = Person(_id , _age, _name, _weight, _bet) */\n      0x00\n      dup3\n      add\n      mload\n      dup2\n      0x00\n      add\n      sstore\n      0x20\n      dup3\n      add\n      mload\n      dup2\n      0x01\n      add\n      sstore\n      0x40\n      dup3\n      add\n      mload\n      dup2\n      0x02\n      add\n      swap1\n      dup1\n      mload\n      swap1\n      0x20\n      add\n      swap1\n      tag_44\n      swap3\n      swap2\n      swap1\n      tag_45\n      jump\t// in\n    tag_44:\n      pop\n      0x60\n      dup3\n      add\n      mload\n      dup2\n      0x03\n      add\n      sstore\n      0x80\n      dup3\n      add\n      mload\n      dup2\n      0x04\n      add\n      sstore\n      swap1\n      pop\n      pop\n        /* \"ETH-Remix/HungerGames/HungerGames.sol\":950:1181  function addPerson(uint _id, uint _age, string memory _name, uint _weight, uint _bet)... */\n      pop\n      pop\n      pop\n      pop\n      pop\n      jump\t// out\n        /* \"ETH-Remix/HungerGames/Ownable.sol\":92:112  address public owner */\n    tag_23:\n      0x00\n      dup1\n      sload\n      swap1\n      0x0100\n      exp\n      swap1\n      div\n      0xffffffffffffffffffffffffffffffffffffffff\n      and\n      dup2\n      jump\t// out\n        /* \"ETH-Remix/HungerGames/HungerGames.sol\":592:629  mapping(uint => Person) public people */\n    tag_28:\n      mstore(0x20, 0x03)\n      dup1\n      0x00\n      mstore\n      keccak256(0x00, 0x40)\n      0x00\n      swap2\n      pop\n      swap1\n      pop\n      dup1\n      0x00\n      add\n      sload\n      swap1\n      dup1\n      0x01\n      add\n      sload\n      swap1\n      dup1\n      0x02\n      add\n      dup1\n      sload\n      tag_46\n      swap1\n      tag_32\n      jump\t// in\n    tag_46:\n      dup1\n      0x1f\n      add\n      0x20\n      dup1\n      swap2\n      div\n      mul\n      0x20\n      add\n      mload(0x40)\n      swap1\n      dup2\n      add\n      0x40\n      mstore\n      dup1\n      swap3\n      swap2\n      swap1\n      dup2\n      dup2\n      mstore\n      0x20\n      add\n      dup3\n      dup1\n      sload\n      tag_47\n      swap1\n      tag_32\n      jump\t// in\n    tag_47:\n      dup1\n      iszero\n      tag_48\n      jumpi\n      dup1\n      0x1f\n      lt\n      tag_49\n      jumpi\n      0x0100\n      dup1\n      dup4\n      sload\n      div\n      mul\n      dup4\n      mstore\n      swap2\n      0x20\n      add\n      swap2\n      jump(tag_48)\n    tag_49:\n      dup3\n      add\n      swap2\n      swap1\n      0x00\n      mstore\n      keccak256(0x00, 0x20)\n      swap1\n    tag_50:\n      dup2\n      sload\n      dup2\n      mstore\n      swap1\n      0x01\n      add\n      swap1\n      0x20\n      add\n      dup1\n      dup4\n      gt\n      tag_50\n      jumpi\n      dup3\n      swap1\n      sub\n      0x1f\n      and\n      dup3\n      add\n      swap2\n    tag_48:\n      pop\n      pop\n      pop\n      pop\n      pop\n      swap1\n      dup1\n      0x03\n      add\n      sload\n      swap1\n      dup1\n      0x04\n      add\n      sload\n      swap1\n      pop\n      dup6\n      jump\t// out\n        /* \"ETH-Remix/HungerGames/HungerGames.sol\":1189:1259  function incrementCount() internal {... */\n    tag_43:\n        /* \"ETH-Remix/HungerGames/HungerGames.sol\":1250:1251  1 */\n      0x01\n        /* \"ETH-Remix/HungerGames/HungerGames.sol\":1235:1246  peopleCount */\n      0x02\n      0x00\n        /* \"ETH-Remix/HungerGames/HungerGames.sol\":1235:1251  peopleCount += 1 */\n      dup3\n      dup3\n      sload\n      tag_52\n      swap2\n      swap1\n      tag_53\n      jump\t// in\n    tag_52:\n      swap3\n      pop\n      pop\n      dup2\n      swap1\n      sstore\n      pop\n        /* \"ETH-Remix/HungerGames/HungerGames.sol\":1189:1259  function incrementCount() internal {... */\n      jump\t// out\n    tag_45:\n      dup3\n      dup1\n      sload\n      tag_54\n      swap1\n      tag_32\n      jump\t// in\n    tag_54:\n      swap1\n      0x00\n      mstore\n      keccak256(0x00, 0x20)\n      swap1\n      0x1f\n      add\n      0x20\n      swap1\n      div\n      dup2\n      add\n      swap3\n      dup3\n      tag_56\n      jumpi\n      0x00\n      dup6\n      sstore\n      jump(tag_55)\n    tag_56:\n      dup3\n      0x1f\n      lt\n      tag_57\n      jumpi\n      dup1\n      mload\n      not(0xff)\n      and\n      dup4\n      dup1\n      add\n      or\n      dup6\n      sstore\n      jump(tag_55)\n    tag_57:\n      dup3\n      dup1\n      add\n      0x01\n      add\n      dup6\n      sstore\n      dup3\n      iszero\n      tag_55\n      jumpi\n      swap2\n      dup3\n      add\n    tag_58:\n      dup3\n      dup2\n      gt\n      iszero\n      tag_59\n      jumpi\n      dup3\n      mload\n      dup3\n      sstore\n      swap2\n      0x20\n      add\n      swap2\n      swap1\n      0x01\n      add\n      swap1\n      jump(tag_58)\n    tag_59:\n    tag_55:\n      pop\n      swap1\n      pop\n      tag_60\n      swap2\n      swap1\n      tag_61\n      jump\t// in\n    tag_60:\n      pop\n      swap1\n      jump\t// out\n    tag_61:\n    tag_62:\n      dup1\n      dup3\n      gt\n      iszero\n      tag_63\n      jumpi\n      0x00\n      dup2\n      0x00\n      swap1\n      sstore\n      pop\n      0x01\n      add\n      jump(tag_62)\n    tag_63:\n      pop\n      swap1\n      jump\t// out\n        /* \"#utility.yul\":7:82   */\n    tag_64:\n        /* \"#utility.yul\":40:46   */\n      0x00\n        /* \"#utility.yul\":73:75   */\n      0x40\n        /* \"#utility.yul\":67:76   */\n      mload\n        /* \"#utility.yul\":57:76   */\n      swap1\n      pop\n        /* \"#utility.yul\":7:82   */\n      swap1\n      jump\t// out\n        /* \"#utility.yul\":88:205   */\n    tag_65:\n        /* \"#utility.yul\":197:198   */\n      0x00\n        /* \"#utility.yul\":194:195   */\n      dup1\n        /* \"#utility.yul\":187:199   */\n      revert\n        /* \"#utility.yul\":211:328   */\n    tag_66:\n        /* \"#utility.yul\":320:321   */\n      0x00\n        /* \"#utility.yul\":317:318   */\n      dup1\n        /* \"#utility.yul\":310:322   */\n      revert\n        /* \"#utility.yul\":334:411   */\n    tag_67:\n        /* \"#utility.yul\":371:378   */\n      0x00\n        /* \"#utility.yul\":400:405   */\n      dup2\n        /* \"#utility.yul\":389:405   */\n      swap1\n      pop\n        /* \"#utility.yul\":334:411   */\n      swap2\n      swap1\n      pop\n      jump\t// out\n        /* \"#utility.yul\":417:539   */\n    tag_68:\n        /* \"#utility.yul\":490:514   */\n      tag_96\n        /* \"#utility.yul\":508:513   */\n      dup2\n        /* \"#utility.yul\":490:514   */\n      tag_67\n      jump\t// in\n    tag_96:\n        /* \"#utility.yul\":483:488   */\n      dup2\n        /* \"#utility.yul\":480:515   */\n      eq\n        /* \"#utility.yul\":470:533   */\n      tag_97\n      jumpi\n        /* \"#utility.yul\":529:530   */\n      0x00\n        /* \"#utility.yul\":526:527   */\n      dup1\n        /* \"#utility.yul\":519:531   */\n      revert\n        /* \"#utility.yul\":470:533   */\n    tag_97:\n        /* \"#utility.yul\":417:539   */\n      pop\n      jump\t// out\n        /* \"#utility.yul\":545:684   */\n    tag_69:\n        /* \"#utility.yul\":591:596   */\n      0x00\n        /* \"#utility.yul\":629:635   */\n      dup2\n        /* \"#utility.yul\":616:636   */\n      calldataload\n        /* \"#utility.yul\":607:636   */\n      swap1\n      pop\n        /* \"#utility.yul\":645:678   */\n      tag_99\n        /* \"#utility.yul\":672:677   */\n      dup2\n        /* \"#utility.yul\":645:678   */\n      tag_68\n      jump\t// in\n    tag_99:\n        /* \"#utility.yul\":545:684   */\n      swap3\n      swap2\n      pop\n      pop\n      jump\t// out\n        /* \"#utility.yul\":690:1019   */\n    tag_10:\n        /* \"#utility.yul\":749:755   */\n      0x00\n        /* \"#utility.yul\":798:800   */\n      0x20\n        /* \"#utility.yul\":786:795   */\n      dup3\n        /* \"#utility.yul\":777:784   */\n      dup5\n        /* \"#utility.yul\":773:796   */\n      sub\n        /* \"#utility.yul\":769:801   */\n      slt\n        /* \"#utility.yul\":766:885   */\n      iszero\n      tag_101\n      jumpi\n        /* \"#utility.yul\":804:883   */\n      tag_102\n      tag_65\n      jump\t// in\n    tag_102:\n        /* \"#utility.yul\":766:885   */\n    tag_101:\n        /* \"#utility.yul\":924:925   */\n      0x00\n        /* \"#utility.yul\":949:1002   */\n      tag_103\n        /* \"#utility.yul\":994:1001   */\n      dup5\n        /* \"#utility.yul\":985:991   */\n      dup3\n        /* \"#utility.yul\":974:983   */\n      dup6\n        /* \"#utility.yul\":970:992   */\n      add\n        /* \"#utility.yul\":949:1002   */\n      tag_69\n      jump\t// in\n    tag_103:\n        /* \"#utility.yul\":939:1002   */\n      swap2\n      pop\n        /* \"#utility.yul\":895:1012   */\n      pop\n        /* \"#utility.yul\":690:1019   */\n      swap3\n      swap2\n      pop\n      pop\n      jump\t// out\n        /* \"#utility.yul\":1025:1143   */\n    tag_70:\n        /* \"#utility.yul\":1112:1136   */\n      tag_105\n        /* \"#utility.yul\":1130:1135   */\n      dup2\n        /* \"#utility.yul\":1112:1136   */\n      tag_67\n      jump\t// in\n    tag_105:\n        /* \"#utility.yul\":1107:1110   */\n      dup3\n        /* \"#utility.yul\":1100:1137   */\n      mstore\n        /* \"#utility.yul\":1025:1143   */\n      pop\n      pop\n      jump\t// out\n        /* \"#utility.yul\":1149:1248   */\n    tag_71:\n        /* \"#utility.yul\":1201:1207   */\n      0x00\n        /* \"#utility.yul\":1235:1240   */\n      dup2\n        /* \"#utility.yul\":1229:1241   */\n      mload\n        /* \"#utility.yul\":1219:1241   */\n      swap1\n      pop\n        /* \"#utility.yul\":1149:1248   */\n      swap2\n      swap1\n      pop\n      jump\t// out\n        /* \"#utility.yul\":1254:1423   */\n    tag_72:\n        /* \"#utility.yul\":1338:1349   */\n      0x00\n        /* \"#utility.yul\":1372:1378   */\n      dup3\n        /* \"#utility.yul\":1367:1370   */\n      dup3\n        /* \"#utility.yul\":1360:1379   */\n      mstore\n        /* \"#utility.yul\":1412:1416   */\n      0x20\n        /* \"#utility.yul\":1407:1410   */\n      dup3\n        /* \"#utility.yul\":1403:1417   */\n      add\n        /* \"#utility.yul\":1388:1417   */\n      swap1\n      pop\n        /* \"#utility.yul\":1254:1423   */\n      swap3\n      swap2\n      pop\n      pop\n      jump\t// out\n        /* \"#utility.yul\":1429:1736   */\n    tag_73:\n        /* \"#utility.yul\":1497:1498   */\n      0x00\n        /* \"#utility.yul\":1507:1620   */\n    tag_109:\n        /* \"#utility.yul\":1521:1527   */\n      dup4\n        /* \"#utility.yul\":1518:1519   */\n      dup2\n        /* \"#utility.yul\":1515:1528   */\n      lt\n        /* \"#utility.yul\":1507:1620   */\n      iszero\n      tag_111\n      jumpi\n        /* \"#utility.yul\":1606:1607   */\n      dup1\n        /* \"#utility.yul\":1601:1604   */\n      dup3\n        /* \"#utility.yul\":1597:1608   */\n      add\n        /* \"#utility.yul\":1591:1609   */\n      mload\n        /* \"#utility.yul\":1587:1588   */\n      dup2\n        /* \"#utility.yul\":1582:1585   */\n      dup5\n        /* \"#utility.yul\":1578:1589   */\n      add\n        /* \"#utility.yul\":1571:1610   */\n      mstore\n        /* \"#utility.yul\":1543:1545   */\n      0x20\n        /* \"#utility.yul\":1540:1541   */\n      dup2\n        /* \"#utility.yul\":1536:1546   */\n      add\n        /* \"#utility.yul\":1531:1546   */\n      swap1\n      pop\n        /* \"#utility.yul\":1507:1620   */\n      jump(tag_109)\n    tag_111:\n        /* \"#utility.yul\":1638:1644   */\n      dup4\n        /* \"#utility.yul\":1635:1636   */\n      dup2\n        /* \"#utility.yul\":1632:1645   */\n      gt\n        /* \"#utility.yul\":1629:1730   */\n      iszero\n      tag_112\n      jumpi\n        /* \"#utility.yul\":1718:1719   */\n      0x00\n        /* \"#utility.yul\":1709:1715   */\n      dup5\n        /* \"#utility.yul\":1704:1707   */\n      dup5\n        /* \"#utility.yul\":1700:1716   */\n      add\n        /* \"#utility.yul\":1693:1720   */\n      mstore\n        /* \"#utility.yul\":1629:1730   */\n    tag_112:\n        /* \"#utility.yul\":1478:1736   */\n      pop\n        /* \"#utility.yul\":1429:1736   */\n      pop\n      pop\n      pop\n      jump\t// out\n        /* \"#utility.yul\":1742:1844   */\n    tag_74:\n        /* \"#utility.yul\":1783:1789   */\n      0x00\n        /* \"#utility.yul\":1834:1836   */\n      0x1f\n        /* \"#utility.yul\":1830:1837   */\n      not\n        /* \"#utility.yul\":1825:1827   */\n      0x1f\n        /* \"#utility.yul\":1818:1823   */\n      dup4\n        /* \"#utility.yul\":1814:1828   */\n      add\n        /* \"#utility.yul\":1810:1838   */\n      and\n        /* \"#utility.yul\":1800:1838   */\n      swap1\n      pop\n        /* \"#utility.yul\":1742:1844   */\n      swap2\n      swap1\n      pop\n      jump\t// out\n        /* \"#utility.yul\":1850:2214   */\n    tag_75:\n        /* \"#utility.yul\":1938:1941   */\n      0x00\n        /* \"#utility.yul\":1966:2005   */\n      tag_115\n        /* \"#utility.yul\":1999:2004   */\n      dup3\n        /* \"#utility.yul\":1966:2005   */\n      tag_71\n      jump\t// in\n    tag_115:\n        /* \"#utility.yul\":2021:2092   */\n      tag_116\n        /* \"#utility.yul\":2085:2091   */\n      dup2\n        /* \"#utility.yul\":2080:2083   */\n      dup6\n        /* \"#utility.yul\":2021:2092   */\n      tag_72\n      jump\t// in\n    tag_116:\n        /* \"#utility.yul\":2014:2092   */\n      swap4\n      pop\n        /* \"#utility.yul\":2101:2153   */\n      tag_117\n        /* \"#utility.yul\":2146:2152   */\n      dup2\n        /* \"#utility.yul\":2141:2144   */\n      dup6\n        /* \"#utility.yul\":2134:2138   */\n      0x20\n        /* \"#utility.yul\":2127:2132   */\n      dup7\n        /* \"#utility.yul\":2123:2139   */\n      add\n        /* \"#utility.yul\":2101:2153   */\n      tag_73\n      jump\t// in\n    tag_117:\n        /* \"#utility.yul\":2178:2207   */\n      tag_118\n        /* \"#utility.yul\":2200:2206   */\n      dup2\n        /* \"#utility.yul\":2178:2207   */\n      tag_74\n      jump\t// in\n    tag_118:\n        /* \"#utility.yul\":2173:2176   */\n      dup5\n        /* \"#utility.yul\":2169:2208   */\n      add\n        /* \"#utility.yul\":2162:2208   */\n      swap2\n      pop\n        /* \"#utility.yul\":1942:2214   */\n      pop\n        /* \"#utility.yul\":1850:2214   */\n      swap3\n      swap2\n      pop\n      pop\n      jump\t// out\n        /* \"#utility.yul\":2220:2975   */\n    tag_13:\n        /* \"#utility.yul\":2445:2449   */\n      0x00\n        /* \"#utility.yul\":2483:2486   */\n      0xa0\n        /* \"#utility.yul\":2472:2481   */\n      dup3\n        /* \"#utility.yul\":2468:2487   */\n      add\n        /* \"#utility.yul\":2460:2487   */\n      swap1\n      pop\n        /* \"#utility.yul\":2497:2568   */\n      tag_120\n        /* \"#utility.yul\":2565:2566   */\n      0x00\n        /* \"#utility.yul\":2554:2563   */\n      dup4\n        /* \"#utility.yul\":2550:2567   */\n      add\n        /* \"#utility.yul\":2541:2547   */\n      dup9\n        /* \"#utility.yul\":2497:2568   */\n      tag_70\n      jump\t// in\n    tag_120:\n        /* \"#utility.yul\":2578:2650   */\n      tag_121\n        /* \"#utility.yul\":2646:2648   */\n      0x20\n        /* \"#utility.yul\":2635:2644   */\n      dup4\n        /* \"#utility.yul\":2631:2649   */\n      add\n        /* \"#utility.yul\":2622:2628   */\n      dup8\n        /* \"#utility.yul\":2578:2650   */\n      tag_70\n      jump\t// in\n    tag_121:\n        /* \"#utility.yul\":2697:2706   */\n      dup2\n        /* \"#utility.yul\":2691:2695   */\n      dup2\n        /* \"#utility.yul\":2687:2707   */\n      sub\n        /* \"#utility.yul\":2682:2684   */\n      0x40\n        /* \"#utility.yul\":2671:2680   */\n      dup4\n        /* \"#utility.yul\":2667:2685   */\n      add\n        /* \"#utility.yul\":2660:2708   */\n      mstore\n        /* \"#utility.yul\":2725:2803   */\n      tag_122\n        /* \"#utility.yul\":2798:2802   */\n      dup2\n        /* \"#utility.yul\":2789:2795   */\n      dup7\n        /* \"#utility.yul\":2725:2803   */\n      tag_75\n      jump\t// in\n    tag_122:\n        /* \"#utility.yul\":2717:2803   */\n      swap1\n      pop\n        /* \"#utility.yul\":2813:2885   */\n      tag_123\n        /* \"#utility.yul\":2881:2883   */\n      0x60\n        /* \"#utility.yul\":2870:2879   */\n      dup4\n        /* \"#utility.yul\":2866:2884   */\n      add\n        /* \"#utility.yul\":2857:2863   */\n      dup6\n        /* \"#utility.yul\":2813:2885   */\n      tag_70\n      jump\t// in\n    tag_123:\n        /* \"#utility.yul\":2895:2968   */\n      tag_124\n        /* \"#utility.yul\":2963:2966   */\n      0x80\n        /* \"#utility.yul\":2952:2961   */\n      dup4\n        /* \"#utility.yul\":2948:2967   */\n      add\n        /* \"#utility.yul\":2939:2945   */\n      dup5\n        /* \"#utility.yul\":2895:2968   */\n      tag_70\n      jump\t// in\n    tag_124:\n        /* \"#utility.yul\":2220:2975   */\n      swap7\n      swap6\n      pop\n      pop\n      pop\n      pop\n      pop\n      pop\n      jump\t// out\n        /* \"#utility.yul\":2981:3203   */\n    tag_17:\n        /* \"#utility.yul\":3074:3078   */\n      0x00\n        /* \"#utility.yul\":3112:3114   */\n      0x20\n        /* \"#utility.yul\":3101:3110   */\n      dup3\n        /* \"#utility.yul\":3097:3115   */\n      add\n        /* \"#utility.yul\":3089:3115   */\n      swap1\n      pop\n        /* \"#utility.yul\":3125:3196   */\n      tag_126\n        /* \"#utility.yul\":3193:3194   */\n      0x00\n        /* \"#utility.yul\":3182:3191   */\n      dup4\n        /* \"#utility.yul\":3178:3195   */\n      add\n        /* \"#utility.yul\":3169:3175   */\n      dup5\n        /* \"#utility.yul\":3125:3196   */\n      tag_70\n      jump\t// in\n    tag_126:\n        /* \"#utility.yul\":2981:3203   */\n      swap3\n      swap2\n      pop\n      pop\n      jump\t// out\n        /* \"#utility.yul\":3209:3326   */\n    tag_76:\n        /* \"#utility.yul\":3318:3319   */\n      0x00\n        /* \"#utility.yul\":3315:3316   */\n      dup1\n        /* \"#utility.yul\":3308:3320   */\n      revert\n        /* \"#utility.yul\":3332:3449   */\n    tag_77:\n        /* \"#utility.yul\":3441:3442   */\n      0x00\n        /* \"#utility.yul\":3438:3439   */\n      dup1\n        /* \"#utility.yul\":3431:3443   */\n      revert\n        /* \"#utility.yul\":3455:3635   */\n    tag_78:\n        /* \"#utility.yul\":3503:3580   */\n      0x4e487b7100000000000000000000000000000000000000000000000000000000\n        /* \"#utility.yul\":3500:3501   */\n      0x00\n        /* \"#utility.yul\":3493:3581   */\n      mstore\n        /* \"#utility.yul\":3600:3604   */\n      0x41\n        /* \"#utility.yul\":3597:3598   */\n      0x04\n        /* \"#utility.yul\":3590:3605   */\n      mstore\n        /* \"#utility.yul\":3624:3628   */\n      0x24\n        /* \"#utility.yul\":3621:3622   */\n      0x00\n        /* \"#utility.yul\":3614:3629   */\n      revert\n        /* \"#utility.yul\":3641:3922   */\n    tag_79:\n        /* \"#utility.yul\":3724:3751   */\n      tag_131\n        /* \"#utility.yul\":3746:3750   */\n      dup3\n        /* \"#utility.yul\":3724:3751   */\n      tag_74\n      jump\t// in\n    tag_131:\n        /* \"#utility.yul\":3716:3722   */\n      dup2\n        /* \"#utility.yul\":3712:3752   */\n      add\n        /* \"#utility.yul\":3854:3860   */\n      dup2\n        /* \"#utility.yul\":3842:3852   */\n      dup2\n        /* \"#utility.yul\":3839:3861   */\n      lt\n        /* \"#utility.yul\":3818:3836   */\n      0xffffffffffffffff\n        /* \"#utility.yul\":3806:3816   */\n      dup3\n        /* \"#utility.yul\":3803:3837   */\n      gt\n        /* \"#utility.yul\":3800:3862   */\n      or\n        /* \"#utility.yul\":3797:3885   */\n      iszero\n      tag_132\n      jumpi\n        /* \"#utility.yul\":3865:3883   */\n      tag_133\n      tag_78\n      jump\t// in\n    tag_133:\n        /* \"#utility.yul\":3797:3885   */\n    tag_132:\n        /* \"#utility.yul\":3905:3915   */\n      dup1\n        /* \"#utility.yul\":3901:3903   */\n      0x40\n        /* \"#utility.yul\":3894:3916   */\n      mstore\n        /* \"#utility.yul\":3684:3922   */\n      pop\n        /* \"#utility.yul\":3641:3922   */\n      pop\n      pop\n      jump\t// out\n        /* \"#utility.yul\":3928:4057   */\n    tag_80:\n        /* \"#utility.yul\":3962:3968   */\n      0x00\n        /* \"#utility.yul\":3989:4009   */\n      tag_135\n      tag_64\n      jump\t// in\n    tag_135:\n        /* \"#utility.yul\":3979:4009   */\n      swap1\n      pop\n        /* \"#utility.yul\":4018:4051   */\n      tag_136\n        /* \"#utility.yul\":4046:4050   */\n      dup3\n        /* \"#utility.yul\":4038:4044   */\n      dup3\n        /* \"#utility.yul\":4018:4051   */\n      tag_79\n      jump\t// in\n    tag_136:\n        /* \"#utility.yul\":3928:4057   */\n      swap2\n      swap1\n      pop\n      jump\t// out\n        /* \"#utility.yul\":4063:4371   */\n    tag_81:\n        /* \"#utility.yul\":4125:4129   */\n      0x00\n        /* \"#utility.yul\":4215:4233   */\n      0xffffffffffffffff\n        /* \"#utility.yul\":4207:4213   */\n      dup3\n        /* \"#utility.yul\":4204:4234   */\n      gt\n        /* \"#utility.yul\":4201:4257   */\n      iszero\n      tag_138\n      jumpi\n        /* \"#utility.yul\":4237:4255   */\n      tag_139\n      tag_78\n      jump\t// in\n    tag_139:\n        /* \"#utility.yul\":4201:4257   */\n    tag_138:\n        /* \"#utility.yul\":4275:4304   */\n      tag_140\n        /* \"#utility.yul\":4297:4303   */\n      dup3\n        /* \"#utility.yul\":4275:4304   */\n      tag_74\n      jump\t// in\n    tag_140:\n        /* \"#utility.yul\":4267:4304   */\n      swap1\n      pop\n        /* \"#utility.yul\":4359:4363   */\n      0x20\n        /* \"#utility.yul\":4353:4357   */\n      dup2\n        /* \"#utility.yul\":4349:4364   */\n      add\n        /* \"#utility.yul\":4341:4364   */\n      swap1\n      pop\n        /* \"#utility.yul\":4063:4371   */\n      swap2\n      swap1\n      pop\n      jump\t// out\n        /* \"#utility.yul\":4377:4531   */\n    tag_82:\n        /* \"#utility.yul\":4461:4467   */\n      dup3\n        /* \"#utility.yul\":4456:4459   */\n      dup2\n        /* \"#utility.yul\":4451:4454   */\n      dup4\n        /* \"#utility.yul\":4438:4468   */\n      calldatacopy\n        /* \"#utility.yul\":4523:4524   */\n      0x00\n        /* \"#utility.yul\":4514:4520   */\n      dup4\n        /* \"#utility.yul\":4509:4512   */\n      dup4\n        /* \"#utility.yul\":4505:4521   */\n      add\n        /* \"#utility.yul\":4498:4525   */\n      mstore\n        /* \"#utility.yul\":4377:4531   */\n      pop\n      pop\n      pop\n      jump\t// out\n        /* \"#utility.yul\":4537:4949   */\n    tag_83:\n        /* \"#utility.yul\":4615:4620   */\n      0x00\n        /* \"#utility.yul\":4640:4706   */\n      tag_143\n        /* \"#utility.yul\":4656:4705   */\n      tag_144\n        /* \"#utility.yul\":4698:4704   */\n      dup5\n        /* \"#utility.yul\":4656:4705   */\n      tag_81\n      jump\t// in\n    tag_144:\n        /* \"#utility.yul\":4640:4706   */\n      tag_80\n      jump\t// in\n    tag_143:\n        /* \"#utility.yul\":4631:4706   */\n      swap1\n      pop\n        /* \"#utility.yul\":4729:4735   */\n      dup3\n        /* \"#utility.yul\":4722:4727   */\n      dup2\n        /* \"#utility.yul\":4715:4736   */\n      mstore\n        /* \"#utility.yul\":4767:4771   */\n      0x20\n        /* \"#utility.yul\":4760:4765   */\n      dup2\n        /* \"#utility.yul\":4756:4772   */\n      add\n        /* \"#utility.yul\":4805:4808   */\n      dup5\n        /* \"#utility.yul\":4796:4802   */\n      dup5\n        /* \"#utility.yul\":4791:4794   */\n      dup5\n        /* \"#utility.yul\":4787:4803   */\n      add\n        /* \"#utility.yul\":4784:4809   */\n      gt\n        /* \"#utility.yul\":4781:4893   */\n      iszero\n      tag_145\n      jumpi\n        /* \"#utility.yul\":4812:4891   */\n      tag_146\n      tag_77\n      jump\t// in\n    tag_146:\n        /* \"#utility.yul\":4781:4893   */\n    tag_145:\n        /* \"#utility.yul\":4902:4943   */\n      tag_147\n        /* \"#utility.yul\":4936:4942   */\n      dup5\n        /* \"#utility.yul\":4931:4934   */\n      dup3\n        /* \"#utility.yul\":4926:4929   */\n      dup6\n        /* \"#utility.yul\":4902:4943   */\n      tag_82\n      jump\t// in\n    tag_147:\n        /* \"#utility.yul\":4621:4949   */\n      pop\n        /* \"#utility.yul\":4537:4949   */\n      swap4\n      swap3\n      pop\n      pop\n      pop\n      jump\t// out\n        /* \"#utility.yul\":4969:5309   */\n    tag_84:\n        /* \"#utility.yul\":5025:5030   */\n      0x00\n        /* \"#utility.yul\":5074:5077   */\n      dup3\n        /* \"#utility.yul\":5067:5071   */\n      0x1f\n        /* \"#utility.yul\":5059:5065   */\n      dup4\n        /* \"#utility.yul\":5055:5072   */\n      add\n        /* \"#utility.yul\":5051:5078   */\n      slt\n        /* \"#utility.yul\":5041:5163   */\n      tag_149\n      jumpi\n        /* \"#utility.yul\":5082:5161   */\n      tag_150\n      tag_76\n      jump\t// in\n    tag_150:\n        /* \"#utility.yul\":5041:5163   */\n    tag_149:\n        /* \"#utility.yul\":5199:5205   */\n      dup2\n        /* \"#utility.yul\":5186:5206   */\n      calldataload\n        /* \"#utility.yul\":5224:5303   */\n      tag_151\n        /* \"#utility.yul\":5299:5302   */\n      dup5\n        /* \"#utility.yul\":5291:5297   */\n      dup3\n        /* \"#utility.yul\":5284:5288   */\n      0x20\n        /* \"#utility.yul\":5276:5282   */\n      dup7\n        /* \"#utility.yul\":5272:5289   */\n      add\n        /* \"#utility.yul\":5224:5303   */\n      tag_83\n      jump\t// in\n    tag_151:\n        /* \"#utility.yul\":5215:5303   */\n      swap2\n      pop\n        /* \"#utility.yul\":5031:5309   */\n      pop\n        /* \"#utility.yul\":4969:5309   */\n      swap3\n      swap2\n      pop\n      pop\n      jump\t// out\n        /* \"#utility.yul\":5315:6406   */\n    tag_20:\n        /* \"#utility.yul\":5420:5426   */\n      0x00\n        /* \"#utility.yul\":5428:5434   */\n      dup1\n        /* \"#utility.yul\":5436:5442   */\n      0x00\n        /* \"#utility.yul\":5444:5450   */\n      dup1\n        /* \"#utility.yul\":5452:5458   */\n      0x00\n        /* \"#utility.yul\":5501:5504   */\n      0xa0\n        /* \"#utility.yul\":5489:5498   */\n      dup7\n        /* \"#utility.yul\":5480:5487   */\n      dup9\n        /* \"#utility.yul\":5476:5499   */\n      sub\n        /* \"#utility.yul\":5472:5505   */\n      slt\n        /* \"#utility.yul\":5469:5589   */\n      iszero\n      tag_153\n      jumpi\n        /* \"#utility.yul\":5508:5587   */\n      tag_154\n      tag_65\n      jump\t// in\n    tag_154:\n        /* \"#utility.yul\":5469:5589   */\n    tag_153:\n        /* \"#utility.yul\":5628:5629   */\n      0x00\n        /* \"#utility.yul\":5653:5706   */\n      tag_155\n        /* \"#utility.yul\":5698:5705   */\n      dup9\n        /* \"#utility.yul\":5689:5695   */\n      dup3\n        /* \"#utility.yul\":5678:5687   */\n      dup10\n        /* \"#utility.yul\":5674:5696   */\n      add\n        /* \"#utility.yul\":5653:5706   */\n      tag_69\n      jump\t// in\n    tag_155:\n        /* \"#utility.yul\":5643:5706   */\n      swap6\n      pop\n        /* \"#utility.yul\":5599:5716   */\n      pop\n        /* \"#utility.yul\":5755:5757   */\n      0x20\n        /* \"#utility.yul\":5781:5834   */\n      tag_156\n        /* \"#utility.yul\":5826:5833   */\n      dup9\n        /* \"#utility.yul\":5817:5823   */\n      dup3\n        /* \"#utility.yul\":5806:5815   */\n      dup10\n        /* \"#utility.yul\":5802:5824   */\n      add\n        /* \"#utility.yul\":5781:5834   */\n      tag_69\n      jump\t// in\n    tag_156:\n        /* \"#utility.yul\":5771:5834   */\n      swap5\n      pop\n        /* \"#utility.yul\":5726:5844   */\n      pop\n        /* \"#utility.yul\":5911:5913   */\n      0x40\n        /* \"#utility.yul\":5900:5909   */\n      dup7\n        /* \"#utility.yul\":5896:5914   */\n      add\n        /* \"#utility.yul\":5883:5915   */\n      calldataload\n        /* \"#utility.yul\":5942:5960   */\n      0xffffffffffffffff\n        /* \"#utility.yul\":5934:5940   */\n      dup2\n        /* \"#utility.yul\":5931:5961   */\n      gt\n        /* \"#utility.yul\":5928:6045   */\n      iszero\n      tag_157\n      jumpi\n        /* \"#utility.yul\":5964:6043   */\n      tag_158\n      tag_66\n      jump\t// in\n    tag_158:\n        /* \"#utility.yul\":5928:6045   */\n    tag_157:\n        /* \"#utility.yul\":6069:6132   */\n      tag_159\n        /* \"#utility.yul\":6124:6131   */\n      dup9\n        /* \"#utility.yul\":6115:6121   */\n      dup3\n        /* \"#utility.yul\":6104:6113   */\n      dup10\n        /* \"#utility.yul\":6100:6122   */\n      add\n        /* \"#utility.yul\":6069:6132   */\n      tag_84\n      jump\t// in\n    tag_159:\n        /* \"#utility.yul\":6059:6132   */\n      swap4\n      pop\n        /* \"#utility.yul\":5854:6142   */\n      pop\n        /* \"#utility.yul\":6181:6183   */\n      0x60\n        /* \"#utility.yul\":6207:6260   */\n      tag_160\n        /* \"#utility.yul\":6252:6259   */\n      dup9\n        /* \"#utility.yul\":6243:6249   */\n      dup3\n        /* \"#utility.yul\":6232:6241   */\n      dup10\n        /* \"#utility.yul\":6228:6250   */\n      add\n        /* \"#utility.yul\":6207:6260   */\n      tag_69\n      jump\t// in\n    tag_160:\n        /* \"#utility.yul\":6197:6260   */\n      swap3\n      pop\n        /* \"#utility.yul\":6152:6270   */\n      pop\n        /* \"#utility.yul\":6309:6312   */\n      0x80\n        /* \"#utility.yul\":6336:6389   */\n      tag_161\n        /* \"#utility.yul\":6381:6388   */\n      dup9\n        /* \"#utility.yul\":6372:6378   */\n      dup3\n        /* \"#utility.yul\":6361:6370   */\n      dup10\n        /* \"#utility.yul\":6357:6379   */\n      add\n        /* \"#utility.yul\":6336:6389   */\n      tag_69\n      jump\t// in\n    tag_161:\n        /* \"#utility.yul\":6326:6389   */\n      swap2\n      pop\n        /* \"#utility.yul\":6280:6399   */\n      pop\n        /* \"#utility.yul\":5315:6406   */\n      swap3\n      swap6\n      pop\n      swap3\n      swap6\n      swap1\n      swap4\n      pop\n      jump\t// out\n        /* \"#utility.yul\":6412:6538   */\n    tag_85:\n        /* \"#utility.yul\":6449:6456   */\n      0x00\n        /* \"#utility.yul\":6489:6531   */\n      0xffffffffffffffffffffffffffffffffffffffff\n        /* \"#utility.yul\":6482:6487   */\n      dup3\n        /* \"#utility.yul\":6478:6532   */\n      and\n        /* \"#utility.yul\":6467:6532   */\n      swap1\n      pop\n        /* \"#utility.yul\":6412:6538   */\n      swap2\n      swap1\n      pop\n      jump\t// out\n        /* \"#utility.yul\":6544:6640   */\n    tag_86:\n        /* \"#utility.yul\":6581:6588   */\n      0x00\n        /* \"#utility.yul\":6610:6634   */\n      tag_164\n        /* \"#utility.yul\":6628:6633   */\n      dup3\n        /* \"#utility.yul\":6610:6634   */\n      tag_85\n      jump\t// in\n    tag_164:\n        /* \"#utility.yul\":6599:6634   */\n      swap1\n      pop\n        /* \"#utility.yul\":6544:6640   */\n      swap2\n      swap1\n      pop\n      jump\t// out\n        /* \"#utility.yul\":6646:6764   */\n    tag_87:\n        /* \"#utility.yul\":6733:6757   */\n      tag_166\n        /* \"#utility.yul\":6751:6756   */\n      dup2\n        /* \"#utility.yul\":6733:6757   */\n      tag_86\n      jump\t// in\n    tag_166:\n        /* \"#utility.yul\":6728:6731   */\n      dup3\n        /* \"#utility.yul\":6721:6758   */\n      mstore\n        /* \"#utility.yul\":6646:6764   */\n      pop\n      pop\n      jump\t// out\n        /* \"#utility.yul\":6770:6992   */\n    tag_25:\n        /* \"#utility.yul\":6863:6867   */\n      0x00\n        /* \"#utility.yul\":6901:6903   */\n      0x20\n        /* \"#utility.yul\":6890:6899   */\n      dup3\n        /* \"#utility.yul\":6886:6904   */\n      add\n        /* \"#utility.yul\":6878:6904   */\n      swap1\n      pop\n        /* \"#utility.yul\":6914:6985   */\n      tag_168\n        /* \"#utility.yul\":6982:6983   */\n      0x00\n        /* \"#utility.yul\":6971:6980   */\n      dup4\n        /* \"#utility.yul\":6967:6984   */\n      add\n        /* \"#utility.yul\":6958:6964   */\n      dup5\n        /* \"#utility.yul\":6914:6985   */\n      tag_87\n      jump\t// in\n    tag_168:\n        /* \"#utility.yul\":6770:6992   */\n      swap3\n      swap2\n      pop\n      pop\n      jump\t// out\n        /* \"#utility.yul\":6998:7178   */\n    tag_88:\n        /* \"#utility.yul\":7046:7123   */\n      0x4e487b7100000000000000000000000000000000000000000000000000000000\n        /* \"#utility.yul\":7043:7044   */\n      0x00\n        /* \"#utility.yul\":7036:7124   */\n      mstore\n        /* \"#utility.yul\":7143:7147   */\n      0x22\n        /* \"#utility.yul\":7140:7141   */\n      0x04\n        /* \"#utility.yul\":7133:7148   */\n      mstore\n        /* \"#utility.yul\":7167:7171   */\n      0x24\n        /* \"#utility.yul\":7164:7165   */\n      0x00\n        /* \"#utility.yul\":7157:7172   */\n      revert\n        /* \"#utility.yul\":7184:7504   */\n    tag_32:\n        /* \"#utility.yul\":7228:7234   */\n      0x00\n        /* \"#utility.yul\":7265:7266   */\n      0x02\n        /* \"#utility.yul\":7259:7263   */\n      dup3\n        /* \"#utility.yul\":7255:7267   */\n      div\n        /* \"#utility.yul\":7245:7267   */\n      swap1\n      pop\n        /* \"#utility.yul\":7312:7313   */\n      0x01\n        /* \"#utility.yul\":7306:7310   */\n      dup3\n        /* \"#utility.yul\":7302:7314   */\n      and\n        /* \"#utility.yul\":7333:7351   */\n      dup1\n        /* \"#utility.yul\":7323:7404   */\n      tag_171\n      jumpi\n        /* \"#utility.yul\":7389:7393   */\n      0x7f\n        /* \"#utility.yul\":7381:7387   */\n      dup3\n        /* \"#utility.yul\":7377:7394   */\n      and\n        /* \"#utility.yul\":7367:7394   */\n      swap2\n      pop\n        /* \"#utility.yul\":7323:7404   */\n    tag_171:\n        /* \"#utility.yul\":7451:7453   */\n      0x20\n        /* \"#utility.yul\":7443:7449   */\n      dup3\n        /* \"#utility.yul\":7440:7454   */\n      lt\n        /* \"#utility.yul\":7420:7438   */\n      dup2\n        /* \"#utility.yul\":7417:7455   */\n      sub\n        /* \"#utility.yul\":7414:7498   */\n      tag_172\n      jumpi\n        /* \"#utility.yul\":7470:7488   */\n      tag_173\n      tag_88\n      jump\t// in\n    tag_173:\n        /* \"#utility.yul\":7414:7498   */\n    tag_172:\n        /* \"#utility.yul\":7235:7504   */\n      pop\n        /* \"#utility.yul\":7184:7504   */\n      swap2\n      swap1\n      pop\n      jump\t// out\n        /* \"#utility.yul\":7510:7690   */\n    tag_89:\n        /* \"#utility.yul\":7558:7635   */\n      0x4e487b7100000000000000000000000000000000000000000000000000000000\n        /* \"#utility.yul\":7555:7556   */\n      0x00\n        /* \"#utility.yul\":7548:7636   */\n      mstore\n        /* \"#utility.yul\":7655:7659   */\n      0x11\n        /* \"#utility.yul\":7652:7653   */\n      0x04\n        /* \"#utility.yul\":7645:7660   */\n      mstore\n        /* \"#utility.yul\":7679:7683   */\n      0x24\n        /* \"#utility.yul\":7676:7677   */\n      0x00\n        /* \"#utility.yul\":7669:7684   */\n      revert\n        /* \"#utility.yul\":7696:8001   */\n    tag_53:\n        /* \"#utility.yul\":7736:7739   */\n      0x00\n        /* \"#utility.yul\":7755:7775   */\n      tag_176\n        /* \"#utility.yul\":7773:7774   */\n      dup3\n        /* \"#utility.yul\":7755:7775   */\n      tag_67\n      jump\t// in\n    tag_176:\n        /* \"#utility.yul\":7750:7775   */\n      swap2\n      pop\n        /* \"#utility.yul\":7789:7809   */\n      tag_177\n        /* \"#utility.yul\":7807:7808   */\n      dup4\n        /* \"#utility.yul\":7789:7809   */\n      tag_67\n      jump\t// in\n    tag_177:\n        /* \"#utility.yul\":7784:7809   */\n      swap3\n      pop\n        /* \"#utility.yul\":7943:7944   */\n      dup3\n        /* \"#utility.yul\":7875:7941   */\n      0xffffffffffffffffffffffffffffffffffffffffffffffffffffffffffffffff\n        /* \"#utility.yul\":7871:7945   */\n      sub\n        /* \"#utility.yul\":7868:7869   */\n      dup3\n        /* \"#utility.yul\":7865:7946   */\n      gt\n        /* \"#utility.yul\":7862:7969   */\n      iszero\n      tag_178\n      jumpi\n        /* \"#utility.yul\":7949:7967   */\n      tag_179\n      tag_89\n      jump\t// in\n    tag_179:\n        /* \"#utility.yul\":7862:7969   */\n    tag_178:\n        /* \"#utility.yul\":7993:7994   */\n      dup3\n        /* \"#utility.yul\":7990:7991   */\n      dup3\n        /* \"#utility.yul\":7986:7995   */\n      add\n        /* \"#utility.yul\":7979:7995   */\n      swap1\n      pop\n        /* \"#utility.yul\":7696:8001   */\n      swap3\n      swap2\n      pop\n      pop\n      jump\t// out\n\n    auxdata: 0xa2646970667358221220db1ffc7895bd8a0ed3eb9733c4c2d02ca7b24f5440787fdf94f4d24b61beca8c64736f6c634300080d0033\n}\n",
				"bytecode": {
					"linkReferences": {},
					"object": "608060405263624124b1600155600060025534801561001d57600080fd5b50336000806101000a81548173ffffffffffffffffffffffffffffffffffffffff021916908373ffffffffffffffffffffffffffffffffffffffff1602179055506109a58061006d6000396000f3fe608060405234801561001057600080fd5b50600436106100575760003560e01c8063246982c41461005c578063267c68e01461009057806369249829146100ae5780638da5cb5b146100ca5780639e7a13ad146100e8575b600080fd5b61007660048036038101906100719190610518565b61011c565b6040516100879594939291906105ed565b60405180910390f35b61009861022d565b6040516100a59190610647565b60405180910390f35b6100c860048036038101906100c39190610797565b610233565b005b6100d261032d565b6040516100df919061086f565b60405180910390f35b61010260048036038101906100fd9190610518565b610351565b6040516101139594939291906105ed565b60405180910390f35b60008060606000806000600360008881526020019081526020016000206040518060a00160405290816000820154815260200160018201548152602001600282018054610168906108b9565b80601f0160208091040260200160405190810160405280929190818152602001828054610194906108b9565b80156101e15780601f106101b6576101008083540402835291602001916101e1565b820191906000526020600020905b8154815290600101906020018083116101c457829003601f168201915b5050505050815260200160038201548152602001600482015481525050905080600001518160200151826040015183606001518460800151955095509550955095505091939590929450565b60025481565b60008054906101000a900473ffffffffffffffffffffffffffffffffffffffff1673ffffffffffffffffffffffffffffffffffffffff163373ffffffffffffffffffffffffffffffffffffffff161461028b57600080fd5b60015442101561029a57600080fd5b6102a261040f565b6040518060a00160405280868152602001858152602001848152602001838152602001828152506003600060025481526020019081526020016000206000820151816000015560208201518160010155604082015181600201908051906020019061030e92919061042b565b5060608201518160030155608082015181600401559050505050505050565b60008054906101000a900473ffffffffffffffffffffffffffffffffffffffff1681565b6003602052806000526040600020600091509050806000015490806001015490806002018054610380906108b9565b80601f01602080910402602001604051908101604052809291908181526020018280546103ac906108b9565b80156103f95780601f106103ce576101008083540402835291602001916103f9565b820191906000526020600020905b8154815290600101906020018083116103dc57829003601f168201915b5050505050908060030154908060040154905085565b6001600260008282546104229190610919565b92505081905550565b828054610437906108b9565b90600052602060002090601f01602090048101928261045957600085556104a0565b82601f1061047257805160ff19168380011785556104a0565b828001600101855582156104a0579182015b8281111561049f578251825591602001919060010190610484565b5b5090506104ad91906104b1565b5090565b5b808211156104ca5760008160009055506001016104b2565b5090565b6000604051905090565b600080fd5b600080fd5b6000819050919050565b6104f5816104e2565b811461050057600080fd5b50565b600081359050610512816104ec565b92915050565b60006020828403121561052e5761052d6104d8565b5b600061053c84828501610503565b91505092915050565b61054e816104e2565b82525050565b600081519050919050565b600082825260208201905092915050565b60005b8381101561058e578082015181840152602081019050610573565b8381111561059d576000848401525b50505050565b6000601f19601f8301169050919050565b60006105bf82610554565b6105c9818561055f565b93506105d9818560208601610570565b6105e2816105a3565b840191505092915050565b600060a0820190506106026000830188610545565b61060f6020830187610545565b818103604083015261062181866105b4565b90506106306060830185610545565b61063d6080830184610545565b9695505050505050565b600060208201905061065c6000830184610545565b92915050565b600080fd5b600080fd5b7f4e487b7100000000000000000000000000000000000000000000000000000000600052604160045260246000fd5b6106a4826105a3565b810181811067ffffffffffffffff821117156106c3576106c261066c565b5b80604052505050565b60006106d66104ce565b90506106e2828261069b565b919050565b600067ffffffffffffffff8211156107025761070161066c565b5b61070b826105a3565b9050602081019050919050565b82818337600083830152505050565b600061073a610735846106e7565b6106cc565b90508281526020810184848401111561075657610755610667565b5b610761848285610718565b509392505050565b600082601f83011261077e5761077d610662565b5b813561078e848260208601610727565b91505092915050565b600080600080600060a086880312156107b3576107b26104d8565b5b60006107c188828901610503565b95505060206107d288828901610503565b945050604086013567ffffffffffffffff8111156107f3576107f26104dd565b5b6107ff88828901610769565b935050606061081088828901610503565b925050608061082188828901610503565b9150509295509295909350565b600073ffffffffffffffffffffffffffffffffffffffff82169050919050565b60006108598261082e565b9050919050565b6108698161084e565b82525050565b60006020820190506108846000830184610860565b92915050565b7f4e487b7100000000000000000000000000000000000000000000000000000000600052602260045260246000fd5b600060028204905060018216806108d157607f821691505b6020821081036108e4576108e361088a565b5b50919050565b7f4e487b7100000000000000000000000000000000000000000000000000000000600052601160045260246000fd5b6000610924826104e2565b915061092f836104e2565b9250827fffffffffffffffffffffffffffffffffffffffffffffffffffffffffffffffff03821115610964576109636108ea565b5b82820190509291505056fea2646970667358221220db1ffc7895bd8a0ed3eb9733c4c2d02ca7b24f5440787fdf94f4d24b61beca8c64736f6c634300080d0033",
					"opcodes": "PUSH1 0x80 PUSH1 0x40 MSTORE PUSH4 0x624124B1 PUSH1 0x1 SSTORE PUSH1 0x0 PUSH1 0x2 SSTORE CALLVALUE DUP1 ISZERO PUSH2 0x1D JUMPI PUSH1 0x0 DUP1 REVERT JUMPDEST POP CALLER PUSH1 0x0 DUP1 PUSH2 0x100 EXP DUP2 SLOAD DUP2 PUSH20 0xFFFFFFFFFFFFFFFFFFFFFFFFFFFFFFFFFFFFFFFF MUL NOT AND SWAP1 DUP4 PUSH20 0xFFFFFFFFFFFFFFFFFFFFFFFFFFFFFFFFFFFFFFFF AND MUL OR SWAP1 SSTORE POP PUSH2 0x9A5 DUP1 PUSH2 0x6D PUSH1 0x0 CODECOPY PUSH1 0x0 RETURN INVALID PUSH1 0x80 PUSH1 0x40 MSTORE CALLVALUE DUP1 ISZERO PUSH2 0x10 JUMPI PUSH1 0x0 DUP1 REVERT JUMPDEST POP PUSH1 0x4 CALLDATASIZE LT PUSH2 0x57 JUMPI PUSH1 0x0 CALLDATALOAD PUSH1 0xE0 SHR DUP1 PUSH4 0x246982C4 EQ PUSH2 0x5C JUMPI DUP1 PUSH4 0x267C68E0 EQ PUSH2 0x90 JUMPI DUP1 PUSH4 0x69249829 EQ PUSH2 0xAE JUMPI DUP1 PUSH4 0x8DA5CB5B EQ PUSH2 0xCA JUMPI DUP1 PUSH4 0x9E7A13AD EQ PUSH2 0xE8 JUMPI JUMPDEST PUSH1 0x0 DUP1 REVERT JUMPDEST PUSH2 0x76 PUSH1 0x4 DUP1 CALLDATASIZE SUB DUP2 ADD SWAP1 PUSH2 0x71 SWAP2 SWAP1 PUSH2 0x518 JUMP JUMPDEST PUSH2 0x11C JUMP JUMPDEST PUSH1 0x40 MLOAD PUSH2 0x87 SWAP6 SWAP5 SWAP4 SWAP3 SWAP2 SWAP1 PUSH2 0x5ED JUMP JUMPDEST PUSH1 0x40 MLOAD DUP1 SWAP2 SUB SWAP1 RETURN JUMPDEST PUSH2 0x98 PUSH2 0x22D JUMP JUMPDEST PUSH1 0x40 MLOAD PUSH2 0xA5 SWAP2 SWAP1 PUSH2 0x647 JUMP JUMPDEST PUSH1 0x40 MLOAD DUP1 SWAP2 SUB SWAP1 RETURN JUMPDEST PUSH2 0xC8 PUSH1 0x4 DUP1 CALLDATASIZE SUB DUP2 ADD SWAP1 PUSH2 0xC3 SWAP2 SWAP1 PUSH2 0x797 JUMP JUMPDEST PUSH2 0x233 JUMP JUMPDEST STOP JUMPDEST PUSH2 0xD2 PUSH2 0x32D JUMP JUMPDEST PUSH1 0x40 MLOAD PUSH2 0xDF SWAP2 SWAP1 PUSH2 0x86F JUMP JUMPDEST PUSH1 0x40 MLOAD DUP1 SWAP2 SUB SWAP1 RETURN JUMPDEST PUSH2 0x102 PUSH1 0x4 DUP1 CALLDATASIZE SUB DUP2 ADD SWAP1 PUSH2 0xFD SWAP2 SWAP1 PUSH2 0x518 JUMP JUMPDEST PUSH2 0x351 JUMP JUMPDEST PUSH1 0x40 MLOAD PUSH2 0x113 SWAP6 SWAP5 SWAP4 SWAP3 SWAP2 SWAP1 PUSH2 0x5ED JUMP JUMPDEST PUSH1 0x40 MLOAD DUP1 SWAP2 SUB SWAP1 RETURN JUMPDEST PUSH1 0x0 DUP1 PUSH1 0x60 PUSH1 0x0 DUP1 PUSH1 0x0 PUSH1 0x3 PUSH1 0x0 DUP9 DUP2 MSTORE PUSH1 0x20 ADD SWAP1 DUP2 MSTORE PUSH1 0x20 ADD PUSH1 0x0 KECCAK256 PUSH1 0x40 MLOAD DUP1 PUSH1 0xA0 ADD PUSH1 0x40 MSTORE SWAP1 DUP2 PUSH1 0x0 DUP3 ADD SLOAD DUP2 MSTORE PUSH1 0x20 ADD PUSH1 0x1 DUP3 ADD SLOAD DUP2 MSTORE PUSH1 0x20 ADD PUSH1 0x2 DUP3 ADD DUP1 SLOAD PUSH2 0x168 SWAP1 PUSH2 0x8B9 JUMP JUMPDEST DUP1 PUSH1 0x1F ADD PUSH1 0x20 DUP1 SWAP2 DIV MUL PUSH1 0x20 ADD PUSH1 0x40 MLOAD SWAP1 DUP2 ADD PUSH1 0x40 MSTORE DUP1 SWAP3 SWAP2 SWAP1 DUP2 DUP2 MSTORE PUSH1 0x20 ADD DUP3 DUP1 SLOAD PUSH2 0x194 SWAP1 PUSH2 0x8B9 JUMP JUMPDEST DUP1 ISZERO PUSH2 0x1E1 JUMPI DUP1 PUSH1 0x1F LT PUSH2 0x1B6 JUMPI PUSH2 0x100 DUP1 DUP4 SLOAD DIV MUL DUP4 MSTORE SWAP2 PUSH1 0x20 ADD SWAP2 PUSH2 0x1E1 JUMP JUMPDEST DUP3 ADD SWAP2 SWAP1 PUSH1 0x0 MSTORE PUSH1 0x20 PUSH1 0x0 KECCAK256 SWAP1 JUMPDEST DUP2 SLOAD DUP2 MSTORE SWAP1 PUSH1 0x1 ADD SWAP1 PUSH1 0x20 ADD DUP1 DUP4 GT PUSH2 0x1C4 JUMPI DUP3 SWAP1 SUB PUSH1 0x1F AND DUP3 ADD SWAP2 JUMPDEST POP POP POP POP POP DUP2 MSTORE PUSH1 0x20 ADD PUSH1 0x3 DUP3 ADD SLOAD DUP2 MSTORE PUSH1 0x20 ADD PUSH1 0x4 DUP3 ADD SLOAD DUP2 MSTORE POP POP SWAP1 POP DUP1 PUSH1 0x0 ADD MLOAD DUP2 PUSH1 0x20 ADD MLOAD DUP3 PUSH1 0x40 ADD MLOAD DUP4 PUSH1 0x60 ADD MLOAD DUP5 PUSH1 0x80 ADD MLOAD SWAP6 POP SWAP6 POP SWAP6 POP SWAP6 POP SWAP6 POP POP SWAP2 SWAP4 SWAP6 SWAP1 SWAP3 SWAP5 POP JUMP JUMPDEST PUSH1 0x2 SLOAD DUP2 JUMP JUMPDEST PUSH1 0x0 DUP1 SLOAD SWAP1 PUSH2 0x100 EXP SWAP1 DIV PUSH20 0xFFFFFFFFFFFFFFFFFFFFFFFFFFFFFFFFFFFFFFFF AND PUSH20 0xFFFFFFFFFFFFFFFFFFFFFFFFFFFFFFFFFFFFFFFF AND CALLER PUSH20 0xFFFFFFFFFFFFFFFFFFFFFFFFFFFFFFFFFFFFFFFF AND EQ PUSH2 0x28B JUMPI PUSH1 0x0 DUP1 REVERT JUMPDEST PUSH1 0x1 SLOAD TIMESTAMP LT ISZERO PUSH2 0x29A JUMPI PUSH1 0x0 DUP1 REVERT JUMPDEST PUSH2 0x2A2 PUSH2 0x40F JUMP JUMPDEST PUSH1 0x40 MLOAD DUP1 PUSH1 0xA0 ADD PUSH1 0x40 MSTORE DUP1 DUP7 DUP2 MSTORE PUSH1 0x20 ADD DUP6 DUP2 MSTORE PUSH1 0x20 ADD DUP5 DUP2 MSTORE PUSH1 0x20 ADD DUP4 DUP2 MSTORE PUSH1 0x20 ADD DUP3 DUP2 MSTORE POP PUSH1 0x3 PUSH1 0x0 PUSH1 0x2 SLOAD DUP2 MSTORE PUSH1 0x20 ADD SWAP1 DUP2 MSTORE PUSH1 0x20 ADD PUSH1 0x0 KECCAK256 PUSH1 0x0 DUP3 ADD MLOAD DUP2 PUSH1 0x0 ADD SSTORE PUSH1 0x20 DUP3 ADD MLOAD DUP2 PUSH1 0x1 ADD SSTORE PUSH1 0x40 DUP3 ADD MLOAD DUP2 PUSH1 0x2 ADD SWAP1 DUP1 MLOAD SWAP1 PUSH1 0x20 ADD SWAP1 PUSH2 0x30E SWAP3 SWAP2 SWAP1 PUSH2 0x42B JUMP JUMPDEST POP PUSH1 0x60 DUP3 ADD MLOAD DUP2 PUSH1 0x3 ADD SSTORE PUSH1 0x80 DUP3 ADD MLOAD DUP2 PUSH1 0x4 ADD SSTORE SWAP1 POP POP POP POP POP POP POP JUMP JUMPDEST PUSH1 0x0 DUP1 SLOAD SWAP1 PUSH2 0x100 EXP SWAP1 DIV PUSH20 0xFFFFFFFFFFFFFFFFFFFFFFFFFFFFFFFFFFFFFFFF AND DUP2 JUMP JUMPDEST PUSH1 0x3 PUSH1 0x20 MSTORE DUP1 PUSH1 0x0 MSTORE PUSH1 0x40 PUSH1 0x0 KECCAK256 PUSH1 0x0 SWAP2 POP SWAP1 POP DUP1 PUSH1 0x0 ADD SLOAD SWAP1 DUP1 PUSH1 0x1 ADD SLOAD SWAP1 DUP1 PUSH1 0x2 ADD DUP1 SLOAD PUSH2 0x380 SWAP1 PUSH2 0x8B9 JUMP JUMPDEST DUP1 PUSH1 0x1F ADD PUSH1 0x20 DUP1 SWAP2 DIV MUL PUSH1 0x20 ADD PUSH1 0x40 MLOAD SWAP1 DUP2 ADD PUSH1 0x40 MSTORE DUP1 SWAP3 SWAP2 SWAP1 DUP2 DUP2 MSTORE PUSH1 0x20 ADD DUP3 DUP1 SLOAD PUSH2 0x3AC SWAP1 PUSH2 0x8B9 JUMP JUMPDEST DUP1 ISZERO PUSH2 0x3F9 JUMPI DUP1 PUSH1 0x1F LT PUSH2 0x3CE JUMPI PUSH2 0x100 DUP1 DUP4 SLOAD DIV MUL DUP4 MSTORE SWAP2 PUSH1 0x20 ADD SWAP2 PUSH2 0x3F9 JUMP JUMPDEST DUP3 ADD SWAP2 SWAP1 PUSH1 0x0 MSTORE PUSH1 0x20 PUSH1 0x0 KECCAK256 SWAP1 JUMPDEST DUP2 SLOAD DUP2 MSTORE SWAP1 PUSH1 0x1 ADD SWAP1 PUSH1 0x20 ADD DUP1 DUP4 GT PUSH2 0x3DC JUMPI DUP3 SWAP1 SUB PUSH1 0x1F AND DUP3 ADD SWAP2 JUMPDEST POP POP POP POP POP SWAP1 DUP1 PUSH1 0x3 ADD SLOAD SWAP1 DUP1 PUSH1 0x4 ADD SLOAD SWAP1 POP DUP6 JUMP JUMPDEST PUSH1 0x1 PUSH1 0x2 PUSH1 0x0 DUP3 DUP3 SLOAD PUSH2 0x422 SWAP2 SWAP1 PUSH2 0x919 JUMP JUMPDEST SWAP3 POP POP DUP2 SWAP1 SSTORE POP JUMP JUMPDEST DUP3 DUP1 SLOAD PUSH2 0x437 SWAP1 PUSH2 0x8B9 JUMP JUMPDEST SWAP1 PUSH1 0x0 MSTORE PUSH1 0x20 PUSH1 0x0 KECCAK256 SWAP1 PUSH1 0x1F ADD PUSH1 0x20 SWAP1 DIV DUP2 ADD SWAP3 DUP3 PUSH2 0x459 JUMPI PUSH1 0x0 DUP6 SSTORE PUSH2 0x4A0 JUMP JUMPDEST DUP3 PUSH1 0x1F LT PUSH2 0x472 JUMPI DUP1 MLOAD PUSH1 0xFF NOT AND DUP4 DUP1 ADD OR DUP6 SSTORE PUSH2 0x4A0 JUMP JUMPDEST DUP3 DUP1 ADD PUSH1 0x1 ADD DUP6 SSTORE DUP3 ISZERO PUSH2 0x4A0 JUMPI SWAP2 DUP3 ADD JUMPDEST DUP3 DUP2 GT ISZERO PUSH2 0x49F JUMPI DUP3 MLOAD DUP3 SSTORE SWAP2 PUSH1 0x20 ADD SWAP2 SWAP1 PUSH1 0x1 ADD SWAP1 PUSH2 0x484 JUMP JUMPDEST JUMPDEST POP SWAP1 POP PUSH2 0x4AD SWAP2 SWAP1 PUSH2 0x4B1 JUMP JUMPDEST POP SWAP1 JUMP JUMPDEST JUMPDEST DUP1 DUP3 GT ISZERO PUSH2 0x4CA JUMPI PUSH1 0x0 DUP2 PUSH1 0x0 SWAP1 SSTORE POP PUSH1 0x1 ADD PUSH2 0x4B2 JUMP JUMPDEST POP SWAP1 JUMP JUMPDEST PUSH1 0x0 PUSH1 0x40 MLOAD SWAP1 POP SWAP1 JUMP JUMPDEST PUSH1 0x0 DUP1 REVERT JUMPDEST PUSH1 0x0 DUP1 REVERT JUMPDEST PUSH1 0x0 DUP2 SWAP1 POP SWAP2 SWAP1 POP JUMP JUMPDEST PUSH2 0x4F5 DUP2 PUSH2 0x4E2 JUMP JUMPDEST DUP2 EQ PUSH2 0x500 JUMPI PUSH1 0x0 DUP1 REVERT JUMPDEST POP JUMP JUMPDEST PUSH1 0x0 DUP2 CALLDATALOAD SWAP1 POP PUSH2 0x512 DUP2 PUSH2 0x4EC JUMP JUMPDEST SWAP3 SWAP2 POP POP JUMP JUMPDEST PUSH1 0x0 PUSH1 0x20 DUP3 DUP5 SUB SLT ISZERO PUSH2 0x52E JUMPI PUSH2 0x52D PUSH2 0x4D8 JUMP JUMPDEST JUMPDEST PUSH1 0x0 PUSH2 0x53C DUP5 DUP3 DUP6 ADD PUSH2 0x503 JUMP JUMPDEST SWAP2 POP POP SWAP3 SWAP2 POP POP JUMP JUMPDEST PUSH2 0x54E DUP2 PUSH2 0x4E2 JUMP JUMPDEST DUP3 MSTORE POP POP JUMP JUMPDEST PUSH1 0x0 DUP2 MLOAD SWAP1 POP SWAP2 SWAP1 POP JUMP JUMPDEST PUSH1 0x0 DUP3 DUP3 MSTORE PUSH1 0x20 DUP3 ADD SWAP1 POP SWAP3 SWAP2 POP POP JUMP JUMPDEST PUSH1 0x0 JUMPDEST DUP4 DUP2 LT ISZERO PUSH2 0x58E JUMPI DUP1 DUP3 ADD MLOAD DUP2 DUP5 ADD MSTORE PUSH1 0x20 DUP2 ADD SWAP1 POP PUSH2 0x573 JUMP JUMPDEST DUP4 DUP2 GT ISZERO PUSH2 0x59D JUMPI PUSH1 0x0 DUP5 DUP5 ADD MSTORE JUMPDEST POP POP POP POP JUMP JUMPDEST PUSH1 0x0 PUSH1 0x1F NOT PUSH1 0x1F DUP4 ADD AND SWAP1 POP SWAP2 SWAP1 POP JUMP JUMPDEST PUSH1 0x0 PUSH2 0x5BF DUP3 PUSH2 0x554 JUMP JUMPDEST PUSH2 0x5C9 DUP2 DUP6 PUSH2 0x55F JUMP JUMPDEST SWAP4 POP PUSH2 0x5D9 DUP2 DUP6 PUSH1 0x20 DUP7 ADD PUSH2 0x570 JUMP JUMPDEST PUSH2 0x5E2 DUP2 PUSH2 0x5A3 JUMP JUMPDEST DUP5 ADD SWAP2 POP POP SWAP3 SWAP2 POP POP JUMP JUMPDEST PUSH1 0x0 PUSH1 0xA0 DUP3 ADD SWAP1 POP PUSH2 0x602 PUSH1 0x0 DUP4 ADD DUP9 PUSH2 0x545 JUMP JUMPDEST PUSH2 0x60F PUSH1 0x20 DUP4 ADD DUP8 PUSH2 0x545 JUMP JUMPDEST DUP2 DUP2 SUB PUSH1 0x40 DUP4 ADD MSTORE PUSH2 0x621 DUP2 DUP7 PUSH2 0x5B4 JUMP JUMPDEST SWAP1 POP PUSH2 0x630 PUSH1 0x60 DUP4 ADD DUP6 PUSH2 0x545 JUMP JUMPDEST PUSH2 0x63D PUSH1 0x80 DUP4 ADD DUP5 PUSH2 0x545 JUMP JUMPDEST SWAP7 SWAP6 POP POP POP POP POP POP JUMP JUMPDEST PUSH1 0x0 PUSH1 0x20 DUP3 ADD SWAP1 POP PUSH2 0x65C PUSH1 0x0 DUP4 ADD DUP5 PUSH2 0x545 JUMP JUMPDEST SWAP3 SWAP2 POP POP JUMP JUMPDEST PUSH1 0x0 DUP1 REVERT JUMPDEST PUSH1 0x0 DUP1 REVERT JUMPDEST PUSH32 0x4E487B7100000000000000000000000000000000000000000000000000000000 PUSH1 0x0 MSTORE PUSH1 0x41 PUSH1 0x4 MSTORE PUSH1 0x24 PUSH1 0x0 REVERT JUMPDEST PUSH2 0x6A4 DUP3 PUSH2 0x5A3 JUMP JUMPDEST DUP2 ADD DUP2 DUP2 LT PUSH8 0xFFFFFFFFFFFFFFFF DUP3 GT OR ISZERO PUSH2 0x6C3 JUMPI PUSH2 0x6C2 PUSH2 0x66C JUMP JUMPDEST JUMPDEST DUP1 PUSH1 0x40 MSTORE POP POP POP JUMP JUMPDEST PUSH1 0x0 PUSH2 0x6D6 PUSH2 0x4CE JUMP JUMPDEST SWAP1 POP PUSH2 0x6E2 DUP3 DUP3 PUSH2 0x69B JUMP JUMPDEST SWAP2 SWAP1 POP JUMP JUMPDEST PUSH1 0x0 PUSH8 0xFFFFFFFFFFFFFFFF DUP3 GT ISZERO PUSH2 0x702 JUMPI PUSH2 0x701 PUSH2 0x66C JUMP JUMPDEST JUMPDEST PUSH2 0x70B DUP3 PUSH2 0x5A3 JUMP JUMPDEST SWAP1 POP PUSH1 0x20 DUP2 ADD SWAP1 POP SWAP2 SWAP1 POP JUMP JUMPDEST DUP3 DUP2 DUP4 CALLDATACOPY PUSH1 0x0 DUP4 DUP4 ADD MSTORE POP POP POP JUMP JUMPDEST PUSH1 0x0 PUSH2 0x73A PUSH2 0x735 DUP5 PUSH2 0x6E7 JUMP JUMPDEST PUSH2 0x6CC JUMP JUMPDEST SWAP1 POP DUP3 DUP2 MSTORE PUSH1 0x20 DUP2 ADD DUP5 DUP5 DUP5 ADD GT ISZERO PUSH2 0x756 JUMPI PUSH2 0x755 PUSH2 0x667 JUMP JUMPDEST JUMPDEST PUSH2 0x761 DUP5 DUP3 DUP6 PUSH2 0x718 JUMP JUMPDEST POP SWAP4 SWAP3 POP POP POP JUMP JUMPDEST PUSH1 0x0 DUP3 PUSH1 0x1F DUP4 ADD SLT PUSH2 0x77E JUMPI PUSH2 0x77D PUSH2 0x662 JUMP JUMPDEST JUMPDEST DUP2 CALLDATALOAD PUSH2 0x78E DUP5 DUP3 PUSH1 0x20 DUP7 ADD PUSH2 0x727 JUMP JUMPDEST SWAP2 POP POP SWAP3 SWAP2 POP POP JUMP JUMPDEST PUSH1 0x0 DUP1 PUSH1 0x0 DUP1 PUSH1 0x0 PUSH1 0xA0 DUP7 DUP9 SUB SLT ISZERO PUSH2 0x7B3 JUMPI PUSH2 0x7B2 PUSH2 0x4D8 JUMP JUMPDEST JUMPDEST PUSH1 0x0 PUSH2 0x7C1 DUP9 DUP3 DUP10 ADD PUSH2 0x503 JUMP JUMPDEST SWAP6 POP POP PUSH1 0x20 PUSH2 0x7D2 DUP9 DUP3 DUP10 ADD PUSH2 0x503 JUMP JUMPDEST SWAP5 POP POP PUSH1 0x40 DUP7 ADD CALLDATALOAD PUSH8 0xFFFFFFFFFFFFFFFF DUP2 GT ISZERO PUSH2 0x7F3 JUMPI PUSH2 0x7F2 PUSH2 0x4DD JUMP JUMPDEST JUMPDEST PUSH2 0x7FF DUP9 DUP3 DUP10 ADD PUSH2 0x769 JUMP JUMPDEST SWAP4 POP POP PUSH1 0x60 PUSH2 0x810 DUP9 DUP3 DUP10 ADD PUSH2 0x503 JUMP JUMPDEST SWAP3 POP POP PUSH1 0x80 PUSH2 0x821 DUP9 DUP3 DUP10 ADD PUSH2 0x503 JUMP JUMPDEST SWAP2 POP POP SWAP3 SWAP6 POP SWAP3 SWAP6 SWAP1 SWAP4 POP JUMP JUMPDEST PUSH1 0x0 PUSH20 0xFFFFFFFFFFFFFFFFFFFFFFFFFFFFFFFFFFFFFFFF DUP3 AND SWAP1 POP SWAP2 SWAP1 POP JUMP JUMPDEST PUSH1 0x0 PUSH2 0x859 DUP3 PUSH2 0x82E JUMP JUMPDEST SWAP1 POP SWAP2 SWAP1 POP JUMP JUMPDEST PUSH2 0x869 DUP2 PUSH2 0x84E JUMP JUMPDEST DUP3 MSTORE POP POP JUMP JUMPDEST PUSH1 0x0 PUSH1 0x20 DUP3 ADD SWAP1 POP PUSH2 0x884 PUSH1 0x0 DUP4 ADD DUP5 PUSH2 0x860 JUMP JUMPDEST SWAP3 SWAP2 POP POP JUMP JUMPDEST PUSH32 0x4E487B7100000000000000000000000000000000000000000000000000000000 PUSH1 0x0 MSTORE PUSH1 0x22 PUSH1 0x4 MSTORE PUSH1 0x24 PUSH1 0x0 REVERT JUMPDEST PUSH1 0x0 PUSH1 0x2 DUP3 DIV SWAP1 POP PUSH1 0x1 DUP3 AND DUP1 PUSH2 0x8D1 JUMPI PUSH1 0x7F DUP3 AND SWAP2 POP JUMPDEST PUSH1 0x20 DUP3 LT DUP2 SUB PUSH2 0x8E4 JUMPI PUSH2 0x8E3 PUSH2 0x88A JUMP JUMPDEST JUMPDEST POP SWAP2 SWAP1 POP JUMP JUMPDEST PUSH32 0x4E487B7100000000000000000000000000000000000000000000000000000000 PUSH1 0x0 MSTORE PUSH1 0x11 PUSH1 0x4 MSTORE PUSH1 0x24 PUSH1 0x0 REVERT JUMPDEST PUSH1 0x0 PUSH2 0x924 DUP3 PUSH2 0x4E2 JUMP JUMPDEST SWAP2 POP PUSH2 0x92F DUP4 PUSH2 0x4E2 JUMP JUMPDEST SWAP3 POP DUP3 PUSH32 0xFFFFFFFFFFFFFFFFFFFFFFFFFFFFFFFFFFFFFFFFFFFFFFFFFFFFFFFFFFFFFFFF SUB DUP3 GT ISZERO PUSH2 0x964 JUMPI PUSH2 0x963 PUSH2 0x8EA JUMP JUMPDEST JUMPDEST DUP3 DUP3 ADD SWAP1 POP SWAP3 SWAP2 POP POP JUMP INVALID LOG2 PUSH5 0x6970667358 0x22 SLT KECCAK256 0xDB 0x1F 0xFC PUSH25 0x95BD8A0ED3EB9733C4C2D02CA7B24F5440787FDF94F4D24B61 0xBE 0xCA DUP13 PUSH5 0x736F6C6343 STOP ADDMOD 0xD STOP CALLER "
				},
				"gasEstimates": {
					"creation": {
						"codeDepositCost": "493800",
						"executionCost": "51908",
						"totalCost": "545708"
					},
					"external": {
						"addPerson(uint256,uint256,string,uint256,uint256)": "infinite",
						"getPerson(uint256)": "infinite",
						"owner()": "2555",
						"people(uint256)": "infinite",
						"peopleCount()": "2429"
					},
					"internal": {
						"incrementCount()": "infinite"
					}
				},
				"methodIdentifiers": {
					"addPerson(uint256,uint256,string,uint256,uint256)": "69249829",
					"getPerson(uint256)": "246982c4",
					"owner()": "8da5cb5b",
					"people(uint256)": "9e7a13ad",
					"peopleCount()": "267c68e0"
				}
			},
			"userdoc": {
				"kind": "user",
				"methods": {},
				"version": 1
			}
		}
	}
}