{
	"ETH-Remix/freeCodeCamp.org/Lesson 4/FundMe.sol": {
		"FundMe": {
			"abi": [
				{
					"inputs": [],
					"stateMutability": "nonpayable",
					"type": "constructor"
				},
				{
					"inputs": [
						{
							"internalType": "address",
							"name": "",
							"type": "address"
						}
					],
					"name": "addressToAmountFunded",
					"outputs": [
						{
							"internalType": "uint256",
							"name": "",
							"type": "uint256"
						}
					],
					"stateMutability": "view",
					"type": "function"
				},
				{
					"inputs": [],
					"name": "fund",
					"outputs": [],
					"stateMutability": "payable",
					"type": "function"
				},
				{
					"inputs": [
						{
							"internalType": "uint256",
							"name": "",
							"type": "uint256"
						}
					],
					"name": "funders",
					"outputs": [
						{
							"internalType": "address",
							"name": "",
							"type": "address"
						}
					],
					"stateMutability": "view",
					"type": "function"
				},
				{
					"inputs": [],
					"name": "minimumUsd",
					"outputs": [
						{
							"internalType": "uint256",
							"name": "",
							"type": "uint256"
						}
					],
					"stateMutability": "view",
					"type": "function"
				},
				{
					"inputs": [],
					"name": "owner",
					"outputs": [
						{
							"internalType": "address",
							"name": "",
							"type": "address"
						}
					],
					"stateMutability": "view",
					"type": "function"
				},
				{
					"inputs": [],
					"name": "withdraw",
					"outputs": [],
					"stateMutability": "nonpayable",
					"type": "function"
				}
			],
			"devdoc": {
				"kind": "dev",
				"methods": {},
				"version": 1
			},
			"evm": {
				"assembly": "    /* \"ETH-Remix/freeCodeCamp.org/Lesson 4/FundMe.sol\":99:1978  contract FundMe {... */\n  mstore(0x40, 0x80)\n    /* \"ETH-Remix/freeCodeCamp.org/Lesson 4/FundMe.sol\":191:193  50 */\n  0x32\n    /* \"ETH-Remix/freeCodeCamp.org/Lesson 4/FundMe.sol\":163:193  uint256 public minimumUsd = 50 */\n  0x00\n  sstore\n    /* \"ETH-Remix/freeCodeCamp.org/Lesson 4/FundMe.sol\":327:419  constructor(){... */\n  callvalue\n  dup1\n  iszero\n  tag_1\n  jumpi\n  0x00\n  dup1\n  revert\ntag_1:\n  pop\n    /* \"ETH-Remix/freeCodeCamp.org/Lesson 4/FundMe.sol\":359:369  msg.sender */\n  caller\n    /* \"ETH-Remix/freeCodeCamp.org/Lesson 4/FundMe.sol\":351:356  owner */\n  0x03\n  0x00\n    /* \"ETH-Remix/freeCodeCamp.org/Lesson 4/FundMe.sol\":351:369  owner = msg.sender */\n  0x0100\n  exp\n  dup2\n  sload\n  dup2\n  0xffffffffffffffffffffffffffffffffffffffff\n  mul\n  not\n  and\n  swap1\n  dup4\n  0xffffffffffffffffffffffffffffffffffffffff\n  and\n  mul\n  or\n  swap1\n  sstore\n  pop\n    /* \"ETH-Remix/freeCodeCamp.org/Lesson 4/FundMe.sol\":99:1978  contract FundMe {... */\n  dataSize(sub_0)\n  dup1\n  dataOffset(sub_0)\n  0x00\n  codecopy\n  0x00\n  return\nstop\n\nsub_0: assembly {\n        /* \"ETH-Remix/freeCodeCamp.org/Lesson 4/FundMe.sol\":99:1978  contract FundMe {... */\n      mstore(0x40, 0x80)\n      jumpi(tag_1, lt(calldatasize, 0x04))\n      shr(0xe0, calldataload(0x00))\n      dup1\n      0x098de820\n      eq\n      tag_2\n      jumpi\n      dup1\n      0x3ccfd60b\n      eq\n      tag_3\n      jumpi\n      dup1\n      0x3e47d6f3\n      eq\n      tag_4\n      jumpi\n      dup1\n      0x8da5cb5b\n      eq\n      tag_5\n      jumpi\n      dup1\n      0xb60d4288\n      eq\n      tag_6\n      jumpi\n      dup1\n      0xdc0d3dff\n      eq\n      tag_7\n      jumpi\n    tag_1:\n      0x00\n      dup1\n      revert\n        /* \"ETH-Remix/freeCodeCamp.org/Lesson 4/FundMe.sol\":163:193  uint256 public minimumUsd = 50 */\n    tag_2:\n      callvalue\n      dup1\n      iszero\n      tag_8\n      jumpi\n      0x00\n      dup1\n      revert\n    tag_8:\n      pop\n      tag_9\n      tag_10\n      jump\t// in\n    tag_9:\n      mload(0x40)\n      tag_11\n      swap2\n      swap1\n      tag_12\n      jump\t// in\n    tag_11:\n      mload(0x40)\n      dup1\n      swap2\n      sub\n      swap1\n      return\n        /* \"ETH-Remix/freeCodeCamp.org/Lesson 4/FundMe.sol\":914:1859  function withdraw () public onlyOwner{... */\n    tag_3:\n      callvalue\n      dup1\n      iszero\n      tag_13\n      jumpi\n      0x00\n      dup1\n      revert\n    tag_13:\n      pop\n      tag_14\n      tag_15\n      jump\t// in\n    tag_14:\n      stop\n        /* \"ETH-Remix/freeCodeCamp.org/Lesson 4/FundMe.sol\":233:289  mapping(address => uint256) public addressToAmountFunded */\n    tag_4:\n      callvalue\n      dup1\n      iszero\n      tag_16\n      jumpi\n      0x00\n      dup1\n      revert\n    tag_16:\n      pop\n      tag_17\n      0x04\n      dup1\n      calldatasize\n      sub\n      dup2\n      add\n      swap1\n      tag_18\n      swap2\n      swap1\n      tag_19\n      jump\t// in\n    tag_18:\n      tag_20\n      jump\t// in\n    tag_17:\n      mload(0x40)\n      tag_21\n      swap2\n      swap1\n      tag_12\n      jump\t// in\n    tag_21:\n      mload(0x40)\n      dup1\n      swap2\n      sub\n      swap1\n      return\n        /* \"ETH-Remix/freeCodeCamp.org/Lesson 4/FundMe.sol\":298:318  address public owner */\n    tag_5:\n      callvalue\n      dup1\n      iszero\n      tag_22\n      jumpi\n      0x00\n      dup1\n      revert\n    tag_22:\n      pop\n      tag_23\n      tag_24\n      jump\t// in\n    tag_23:\n      mload(0x40)\n      tag_25\n      swap2\n      swap1\n      tag_26\n      jump\t// in\n    tag_25:\n      mload(0x40)\n      dup1\n      swap2\n      sub\n      swap1\n      return\n        /* \"ETH-Remix/freeCodeCamp.org/Lesson 4/FundMe.sol\":427:874  function fund() public payable{... */\n    tag_6:\n      tag_27\n      tag_28\n      jump\t// in\n    tag_27:\n      stop\n        /* \"ETH-Remix/freeCodeCamp.org/Lesson 4/FundMe.sol\":202:226  address[] public funders */\n    tag_7:\n      callvalue\n      dup1\n      iszero\n      tag_29\n      jumpi\n      0x00\n      dup1\n      revert\n    tag_29:\n      pop\n      tag_30\n      0x04\n      dup1\n      calldatasize\n      sub\n      dup2\n      add\n      swap1\n      tag_31\n      swap2\n      swap1\n      tag_32\n      jump\t// in\n    tag_31:\n      tag_33\n      jump\t// in\n    tag_30:\n      mload(0x40)\n      tag_34\n      swap2\n      swap1\n      tag_26\n      jump\t// in\n    tag_34:\n      mload(0x40)\n      dup1\n      swap2\n      sub\n      swap1\n      return\n        /* \"ETH-Remix/freeCodeCamp.org/Lesson 4/FundMe.sol\":163:193  uint256 public minimumUsd = 50 */\n    tag_10:\n      sload(0x00)\n      dup2\n      jump\t// out\n        /* \"ETH-Remix/freeCodeCamp.org/Lesson 4/FundMe.sol\":914:1859  function withdraw () public onlyOwner{... */\n    tag_15:\n        /* \"ETH-Remix/freeCodeCamp.org/Lesson 4/FundMe.sol\":1919:1924  owner */\n      0x03\n      0x00\n      swap1\n      sload\n      swap1\n      0x0100\n      exp\n      swap1\n      div\n      0xffffffffffffffffffffffffffffffffffffffff\n      and\n        /* \"ETH-Remix/freeCodeCamp.org/Lesson 4/FundMe.sol\":1905:1924  msg.sender == owner */\n      0xffffffffffffffffffffffffffffffffffffffff\n      and\n        /* \"ETH-Remix/freeCodeCamp.org/Lesson 4/FundMe.sol\":1905:1915  msg.sender */\n      caller\n        /* \"ETH-Remix/freeCodeCamp.org/Lesson 4/FundMe.sol\":1905:1924  msg.sender == owner */\n      0xffffffffffffffffffffffffffffffffffffffff\n      and\n      eq\n        /* \"ETH-Remix/freeCodeCamp.org/Lesson 4/FundMe.sol\":1897:1949  require(msg.sender == owner, \"Sender is not owner!\") */\n      tag_36\n      jumpi\n      mload(0x40)\n      0x08c379a000000000000000000000000000000000000000000000000000000000\n      dup2\n      mstore\n      0x04\n      add\n      tag_37\n      swap1\n      tag_38\n      jump\t// in\n    tag_37:\n      mload(0x40)\n      dup1\n      swap2\n      sub\n      swap1\n      revert\n    tag_36:\n        /* \"ETH-Remix/freeCodeCamp.org/Lesson 4/FundMe.sol\":1163:1182  uint256 funderIndex */\n      0x00\n        /* \"ETH-Remix/freeCodeCamp.org/Lesson 4/FundMe.sol\":1158:1353  for (uint256 funderIndex = 0; funderIndex > funders.length; funderIndex++){... */\n    tag_40:\n        /* \"ETH-Remix/freeCodeCamp.org/Lesson 4/FundMe.sol\":1202:1209  funders */\n      0x01\n        /* \"ETH-Remix/freeCodeCamp.org/Lesson 4/FundMe.sol\":1202:1216  funders.length */\n      dup1\n      sload\n      swap1\n      pop\n        /* \"ETH-Remix/freeCodeCamp.org/Lesson 4/FundMe.sol\":1188:1199  funderIndex */\n      dup2\n        /* \"ETH-Remix/freeCodeCamp.org/Lesson 4/FundMe.sol\":1188:1216  funderIndex > funders.length */\n      gt\n        /* \"ETH-Remix/freeCodeCamp.org/Lesson 4/FundMe.sol\":1158:1353  for (uint256 funderIndex = 0; funderIndex > funders.length; funderIndex++){... */\n      iszero\n      tag_41\n      jumpi\n        /* \"ETH-Remix/freeCodeCamp.org/Lesson 4/FundMe.sol\":1247:1261  address funder */\n      0x00\n        /* \"ETH-Remix/freeCodeCamp.org/Lesson 4/FundMe.sol\":1264:1271  funders */\n      0x01\n        /* \"ETH-Remix/freeCodeCamp.org/Lesson 4/FundMe.sol\":1273:1284  funderIndex */\n      dup3\n        /* \"ETH-Remix/freeCodeCamp.org/Lesson 4/FundMe.sol\":1264:1285  funders [funderIndex] */\n      dup2\n      sload\n      dup2\n      lt\n      tag_43\n      jumpi\n      tag_44\n      tag_45\n      jump\t// in\n    tag_44:\n    tag_43:\n      swap1\n      0x00\n      mstore\n      keccak256(0x00, 0x20)\n      add\n      0x00\n      swap1\n      sload\n      swap1\n      0x0100\n      exp\n      swap1\n      div\n      0xffffffffffffffffffffffffffffffffffffffff\n      and\n        /* \"ETH-Remix/freeCodeCamp.org/Lesson 4/FundMe.sol\":1247:1285  address funder = funders [funderIndex] */\n      swap1\n      pop\n        /* \"ETH-Remix/freeCodeCamp.org/Lesson 4/FundMe.sol\":1332:1333  0 */\n      0x00\n        /* \"ETH-Remix/freeCodeCamp.org/Lesson 4/FundMe.sol\":1300:1321  addressToAmountFunded */\n      0x02\n        /* \"ETH-Remix/freeCodeCamp.org/Lesson 4/FundMe.sol\":1300:1329  addressToAmountFunded[funder] */\n      0x00\n        /* \"ETH-Remix/freeCodeCamp.org/Lesson 4/FundMe.sol\":1322:1328  funder */\n      dup4\n        /* \"ETH-Remix/freeCodeCamp.org/Lesson 4/FundMe.sol\":1300:1329  addressToAmountFunded[funder] */\n      0xffffffffffffffffffffffffffffffffffffffff\n      and\n      0xffffffffffffffffffffffffffffffffffffffff\n      and\n      dup2\n      mstore\n      0x20\n      add\n      swap1\n      dup2\n      mstore\n      0x20\n      add\n      0x00\n      keccak256\n        /* \"ETH-Remix/freeCodeCamp.org/Lesson 4/FundMe.sol\":1300:1333  addressToAmountFunded[funder] = 0 */\n      dup2\n      swap1\n      sstore\n      pop\n        /* \"ETH-Remix/freeCodeCamp.org/Lesson 4/FundMe.sol\":1232:1353  {... */\n      pop\n        /* \"ETH-Remix/freeCodeCamp.org/Lesson 4/FundMe.sol\":1218:1231  funderIndex++ */\n      dup1\n      dup1\n      tag_47\n      swap1\n      tag_48\n      jump\t// in\n    tag_47:\n      swap2\n      pop\n      pop\n        /* \"ETH-Remix/freeCodeCamp.org/Lesson 4/FundMe.sol\":1158:1353  for (uint256 funderIndex = 0; funderIndex > funders.length; funderIndex++){... */\n      jump(tag_40)\n    tag_41:\n      pop\n        /* \"ETH-Remix/freeCodeCamp.org/Lesson 4/FundMe.sol\":1424:1425  0 */\n      0x00\n        /* \"ETH-Remix/freeCodeCamp.org/Lesson 4/FundMe.sol\":1410:1426  new address[](0) */\n      0xffffffffffffffff\n      dup2\n      gt\n      iszero\n      tag_49\n      jumpi\n      tag_50\n      tag_51\n      jump\t// in\n    tag_50:\n    tag_49:\n      mload(0x40)\n      swap1\n      dup1\n      dup3\n      mstore\n      dup1\n      0x20\n      mul\n      0x20\n      add\n      dup3\n      add\n      0x40\n      mstore\n      dup1\n      iszero\n      tag_52\n      jumpi\n      dup2\n      0x20\n      add\n      0x20\n      dup3\n      mul\n      dup1\n      calldatasize\n      dup4\n      calldatacopy\n      dup1\n      dup3\n      add\n      swap2\n      pop\n      pop\n      swap1\n      pop\n    tag_52:\n      pop\n        /* \"ETH-Remix/freeCodeCamp.org/Lesson 4/FundMe.sol\":1400:1407  funders */\n      0x01\n        /* \"ETH-Remix/freeCodeCamp.org/Lesson 4/FundMe.sol\":1400:1426  funders = new address[](0) */\n      swap1\n      dup1\n      mload\n      swap1\n      0x20\n      add\n      swap1\n      tag_53\n      swap3\n      swap2\n      swap1\n      tag_54\n      jump\t// in\n    tag_53:\n      pop\n        /* \"ETH-Remix/freeCodeCamp.org/Lesson 4/FundMe.sol\":1502:1512  msg.sender */\n      caller\n        /* \"ETH-Remix/freeCodeCamp.org/Lesson 4/FundMe.sol\":1494:1522  payable(msg.sender).transfer */\n      0xffffffffffffffffffffffffffffffffffffffff\n      and\n        /* \"ETH-Remix/freeCodeCamp.org/Lesson 4/FundMe.sol\":1494:1545  payable(msg.sender).transfer(address(this).balance) */\n      0x08fc\n        /* \"ETH-Remix/freeCodeCamp.org/Lesson 4/FundMe.sol\":1523:1544  address(this).balance */\n      selfbalance\n        /* \"ETH-Remix/freeCodeCamp.org/Lesson 4/FundMe.sol\":1494:1545  payable(msg.sender).transfer(address(this).balance) */\n      swap1\n      dup2\n      iszero\n      mul\n      swap1\n      mload(0x40)\n      0x00\n      mload(0x40)\n      dup1\n      dup4\n      sub\n      dup2\n      dup6\n      dup9\n      dup9\n      call\n      swap4\n      pop\n      pop\n      pop\n      pop\n      iszero\n      dup1\n      iszero\n      tag_56\n      jumpi\n      returndatasize\n      0x00\n      dup1\n      returndatacopy\n      revert(0x00, returndatasize)\n    tag_56:\n      pop\n        /* \"ETH-Remix/freeCodeCamp.org/Lesson 4/FundMe.sol\":1573:1589  bool sendSuccess */\n      0x00\n        /* \"ETH-Remix/freeCodeCamp.org/Lesson 4/FundMe.sol\":1600:1610  msg.sender */\n      caller\n        /* \"ETH-Remix/freeCodeCamp.org/Lesson 4/FundMe.sol\":1592:1616  payable(msg.sender).send */\n      0xffffffffffffffffffffffffffffffffffffffff\n      and\n        /* \"ETH-Remix/freeCodeCamp.org/Lesson 4/FundMe.sol\":1592:1639  payable(msg.sender).send(address(this).balance) */\n      0x08fc\n        /* \"ETH-Remix/freeCodeCamp.org/Lesson 4/FundMe.sol\":1617:1638  address(this).balance */\n      selfbalance\n        /* \"ETH-Remix/freeCodeCamp.org/Lesson 4/FundMe.sol\":1592:1639  payable(msg.sender).send(address(this).balance) */\n      swap1\n      dup2\n      iszero\n      mul\n      swap1\n      mload(0x40)\n      0x00\n      mload(0x40)\n      dup1\n      dup4\n      sub\n      dup2\n      dup6\n      dup9\n      dup9\n      call\n      swap4\n      pop\n      pop\n      pop\n      pop\n        /* \"ETH-Remix/freeCodeCamp.org/Lesson 4/FundMe.sol\":1573:1639  bool sendSuccess = payable(msg.sender).send(address(this).balance) */\n      swap1\n      pop\n        /* \"ETH-Remix/freeCodeCamp.org/Lesson 4/FundMe.sol\":1658:1669  sendSuccess */\n      dup1\n        /* \"ETH-Remix/freeCodeCamp.org/Lesson 4/FundMe.sol\":1650:1685  require(sendSuccess, \"Send failed\") */\n      tag_58\n      jumpi\n      mload(0x40)\n      0x08c379a000000000000000000000000000000000000000000000000000000000\n      dup2\n      mstore\n      0x04\n      add\n      tag_59\n      swap1\n      tag_60\n      jump\t// in\n    tag_59:\n      mload(0x40)\n      dup1\n      swap2\n      sub\n      swap1\n      revert\n    tag_58:\n        /* \"ETH-Remix/freeCodeCamp.org/Lesson 4/FundMe.sol\":1714:1730  bool callSuccess */\n      0x00\n        /* \"ETH-Remix/freeCodeCamp.org/Lesson 4/FundMe.sol\":1753:1763  msg.sender */\n      caller\n        /* \"ETH-Remix/freeCodeCamp.org/Lesson 4/FundMe.sol\":1745:1769  payable(msg.sender).call */\n      0xffffffffffffffffffffffffffffffffffffffff\n      and\n        /* \"ETH-Remix/freeCodeCamp.org/Lesson 4/FundMe.sol\":1777:1798  address(this).balance */\n      selfbalance\n        /* \"ETH-Remix/freeCodeCamp.org/Lesson 4/FundMe.sol\":1745:1803  payable(msg.sender).call{value: address(this).balance}(\"\") */\n      mload(0x40)\n      tag_61\n      swap1\n      tag_62\n      jump\t// in\n    tag_61:\n      0x00\n      mload(0x40)\n      dup1\n      dup4\n      sub\n      dup2\n      dup6\n      dup8\n      gas\n      call\n      swap3\n      pop\n      pop\n      pop\n      returndatasize\n      dup1\n      0x00\n      dup2\n      eq\n      tag_65\n      jumpi\n      mload(0x40)\n      swap2\n      pop\n      and(add(returndatasize, 0x3f), not(0x1f))\n      dup3\n      add\n      0x40\n      mstore\n      returndatasize\n      dup3\n      mstore\n      returndatasize\n      0x00\n      0x20\n      dup5\n      add\n      returndatacopy\n      jump(tag_64)\n    tag_65:\n      0x60\n      swap2\n      pop\n    tag_64:\n      pop\n        /* \"ETH-Remix/freeCodeCamp.org/Lesson 4/FundMe.sol\":1713:1803  (bool callSuccess, ) =... */\n      pop\n      swap1\n      pop\n        /* \"ETH-Remix/freeCodeCamp.org/Lesson 4/FundMe.sol\":1822:1833  callSuccess */\n      dup1\n        /* \"ETH-Remix/freeCodeCamp.org/Lesson 4/FundMe.sol\":1814:1849  require(callSuccess, \"Call failed\") */\n      tag_66\n      jumpi\n      mload(0x40)\n      0x08c379a000000000000000000000000000000000000000000000000000000000\n      dup2\n      mstore\n      0x04\n      add\n      tag_67\n      swap1\n      tag_68\n      jump\t// in\n    tag_67:\n      mload(0x40)\n      dup1\n      swap2\n      sub\n      swap1\n      revert\n    tag_66:\n        /* \"ETH-Remix/freeCodeCamp.org/Lesson 4/FundMe.sol\":951:1859  {... */\n      pop\n      pop\n        /* \"ETH-Remix/freeCodeCamp.org/Lesson 4/FundMe.sol\":914:1859  function withdraw () public onlyOwner{... */\n      jump\t// out\n        /* \"ETH-Remix/freeCodeCamp.org/Lesson 4/FundMe.sol\":233:289  mapping(address => uint256) public addressToAmountFunded */\n    tag_20:\n      mstore(0x20, 0x02)\n      dup1\n      0x00\n      mstore\n      keccak256(0x00, 0x40)\n      0x00\n      swap2\n      pop\n      swap1\n      pop\n      sload\n      dup2\n      jump\t// out\n        /* \"ETH-Remix/freeCodeCamp.org/Lesson 4/FundMe.sol\":298:318  address public owner */\n    tag_24:\n      0x03\n      0x00\n      swap1\n      sload\n      swap1\n      0x0100\n      exp\n      swap1\n      div\n      0xffffffffffffffffffffffffffffffffffffffff\n      and\n      dup2\n      jump\t// out\n        /* \"ETH-Remix/freeCodeCamp.org/Lesson 4/FundMe.sol\":427:874  function fund() public payable{... */\n    tag_28:\n        /* \"ETH-Remix/freeCodeCamp.org/Lesson 4/FundMe.sol\":605:615  minimumUsd */\n      sload(0x00)\n        /* \"ETH-Remix/freeCodeCamp.org/Lesson 4/FundMe.sol\":592:601  msg.value */\n      callvalue\n        /* \"ETH-Remix/freeCodeCamp.org/Lesson 4/FundMe.sol\":592:615  msg.value >= minimumUsd */\n      lt\n      iszero\n        /* \"ETH-Remix/freeCodeCamp.org/Lesson 4/FundMe.sol\":584:640  require(msg.value >= minimumUsd, \"Didn't send enought!\") */\n      tag_70\n      jumpi\n      mload(0x40)\n      0x08c379a000000000000000000000000000000000000000000000000000000000\n      dup2\n      mstore\n      0x04\n      add\n      tag_71\n      swap1\n      tag_72\n      jump\t// in\n    tag_71:\n      mload(0x40)\n      dup1\n      swap2\n      sub\n      swap1\n      revert\n    tag_70:\n        /* \"ETH-Remix/freeCodeCamp.org/Lesson 4/FundMe.sol\":784:791  funders */\n      0x01\n        /* \"ETH-Remix/freeCodeCamp.org/Lesson 4/FundMe.sol\":797:807  msg.sender */\n      caller\n        /* \"ETH-Remix/freeCodeCamp.org/Lesson 4/FundMe.sol\":784:808  funders.push(msg.sender) */\n      swap1\n      dup1\n      0x01\n      dup2\n      sload\n      add\n      dup1\n      dup3\n      sstore\n      dup1\n      swap2\n      pop\n      pop\n      0x01\n      swap1\n      sub\n      swap1\n      0x00\n      mstore\n      keccak256(0x00, 0x20)\n      add\n      0x00\n      swap1\n      swap2\n      swap1\n      swap2\n      swap1\n      swap2\n      0x0100\n      exp\n      dup2\n      sload\n      dup2\n      0xffffffffffffffffffffffffffffffffffffffff\n      mul\n      not\n      and\n      swap1\n      dup4\n      0xffffffffffffffffffffffffffffffffffffffff\n      and\n      mul\n      or\n      swap1\n      sstore\n      pop\n        /* \"ETH-Remix/freeCodeCamp.org/Lesson 4/FundMe.sol\":855:864  msg.value */\n      callvalue\n        /* \"ETH-Remix/freeCodeCamp.org/Lesson 4/FundMe.sol\":819:840  addressToAmountFunded */\n      0x02\n        /* \"ETH-Remix/freeCodeCamp.org/Lesson 4/FundMe.sol\":819:852  addressToAmountFunded[msg.sender] */\n      0x00\n        /* \"ETH-Remix/freeCodeCamp.org/Lesson 4/FundMe.sol\":841:851  msg.sender */\n      caller\n        /* \"ETH-Remix/freeCodeCamp.org/Lesson 4/FundMe.sol\":819:852  addressToAmountFunded[msg.sender] */\n      0xffffffffffffffffffffffffffffffffffffffff\n      and\n      0xffffffffffffffffffffffffffffffffffffffff\n      and\n      dup2\n      mstore\n      0x20\n      add\n      swap1\n      dup2\n      mstore\n      0x20\n      add\n      0x00\n      keccak256\n        /* \"ETH-Remix/freeCodeCamp.org/Lesson 4/FundMe.sol\":819:864  addressToAmountFunded[msg.sender] = msg.value */\n      dup2\n      swap1\n      sstore\n      pop\n        /* \"ETH-Remix/freeCodeCamp.org/Lesson 4/FundMe.sol\":427:874  function fund() public payable{... */\n      jump\t// out\n        /* \"ETH-Remix/freeCodeCamp.org/Lesson 4/FundMe.sol\":202:226  address[] public funders */\n    tag_33:\n      0x01\n      dup2\n      dup2\n      sload\n      dup2\n      lt\n      tag_74\n      jumpi\n      0x00\n      dup1\n      revert\n    tag_74:\n      swap1\n      0x00\n      mstore\n      keccak256(0x00, 0x20)\n      add\n      0x00\n      swap2\n      pop\n      sload\n      swap1\n      0x0100\n      exp\n      swap1\n      div\n      0xffffffffffffffffffffffffffffffffffffffff\n      and\n      dup2\n      jump\t// out\n    tag_54:\n      dup3\n      dup1\n      sload\n      dup3\n      dup3\n      sstore\n      swap1\n      0x00\n      mstore\n      keccak256(0x00, 0x20)\n      swap1\n      dup2\n      add\n      swap3\n      dup3\n      iszero\n      tag_76\n      jumpi\n      swap2\n      0x20\n      mul\n      dup3\n      add\n    tag_77:\n      dup3\n      dup2\n      gt\n      iszero\n      tag_78\n      jumpi\n      dup3\n      mload\n      dup3\n      exp(0x0100, 0x00)\n      dup2\n      sload\n      dup2\n      0xffffffffffffffffffffffffffffffffffffffff\n      mul\n      not\n      and\n      swap1\n      dup4\n      0xffffffffffffffffffffffffffffffffffffffff\n      and\n      mul\n      or\n      swap1\n      sstore\n      pop\n      swap2\n      0x20\n      add\n      swap2\n      swap1\n      0x01\n      add\n      swap1\n      jump(tag_77)\n    tag_78:\n    tag_76:\n      pop\n      swap1\n      pop\n      tag_79\n      swap2\n      swap1\n      tag_80\n      jump\t// in\n    tag_79:\n      pop\n      swap1\n      jump\t// out\n    tag_80:\n    tag_81:\n      dup1\n      dup3\n      gt\n      iszero\n      tag_82\n      jumpi\n      0x00\n      dup2\n      0x00\n      swap1\n      sstore\n      pop\n      0x01\n      add\n      jump(tag_81)\n    tag_82:\n      pop\n      swap1\n      jump\t// out\n        /* \"#utility.yul\":7:84   */\n    tag_83:\n        /* \"#utility.yul\":44:51   */\n      0x00\n        /* \"#utility.yul\":73:78   */\n      dup2\n        /* \"#utility.yul\":62:78   */\n      swap1\n      pop\n        /* \"#utility.yul\":7:84   */\n      swap2\n      swap1\n      pop\n      jump\t// out\n        /* \"#utility.yul\":90:208   */\n    tag_84:\n        /* \"#utility.yul\":177:201   */\n      tag_111\n        /* \"#utility.yul\":195:200   */\n      dup2\n        /* \"#utility.yul\":177:201   */\n      tag_83\n      jump\t// in\n    tag_111:\n        /* \"#utility.yul\":172:175   */\n      dup3\n        /* \"#utility.yul\":165:202   */\n      mstore\n        /* \"#utility.yul\":90:208   */\n      pop\n      pop\n      jump\t// out\n        /* \"#utility.yul\":214:436   */\n    tag_12:\n        /* \"#utility.yul\":307:311   */\n      0x00\n        /* \"#utility.yul\":345:347   */\n      0x20\n        /* \"#utility.yul\":334:343   */\n      dup3\n        /* \"#utility.yul\":330:348   */\n      add\n        /* \"#utility.yul\":322:348   */\n      swap1\n      pop\n        /* \"#utility.yul\":358:429   */\n      tag_113\n        /* \"#utility.yul\":426:427   */\n      0x00\n        /* \"#utility.yul\":415:424   */\n      dup4\n        /* \"#utility.yul\":411:428   */\n      add\n        /* \"#utility.yul\":402:408   */\n      dup5\n        /* \"#utility.yul\":358:429   */\n      tag_84\n      jump\t// in\n    tag_113:\n        /* \"#utility.yul\":214:436   */\n      swap3\n      swap2\n      pop\n      pop\n      jump\t// out\n        /* \"#utility.yul\":523:640   */\n    tag_86:\n        /* \"#utility.yul\":632:633   */\n      0x00\n        /* \"#utility.yul\":629:630   */\n      dup1\n        /* \"#utility.yul\":622:634   */\n      revert\n        /* \"#utility.yul\":769:895   */\n    tag_88:\n        /* \"#utility.yul\":806:813   */\n      0x00\n        /* \"#utility.yul\":846:888   */\n      0xffffffffffffffffffffffffffffffffffffffff\n        /* \"#utility.yul\":839:844   */\n      dup3\n        /* \"#utility.yul\":835:889   */\n      and\n        /* \"#utility.yul\":824:889   */\n      swap1\n      pop\n        /* \"#utility.yul\":769:895   */\n      swap2\n      swap1\n      pop\n      jump\t// out\n        /* \"#utility.yul\":901:997   */\n    tag_89:\n        /* \"#utility.yul\":938:945   */\n      0x00\n        /* \"#utility.yul\":967:991   */\n      tag_119\n        /* \"#utility.yul\":985:990   */\n      dup3\n        /* \"#utility.yul\":967:991   */\n      tag_88\n      jump\t// in\n    tag_119:\n        /* \"#utility.yul\":956:991   */\n      swap1\n      pop\n        /* \"#utility.yul\":901:997   */\n      swap2\n      swap1\n      pop\n      jump\t// out\n        /* \"#utility.yul\":1003:1125   */\n    tag_90:\n        /* \"#utility.yul\":1076:1100   */\n      tag_121\n        /* \"#utility.yul\":1094:1099   */\n      dup2\n        /* \"#utility.yul\":1076:1100   */\n      tag_89\n      jump\t// in\n    tag_121:\n        /* \"#utility.yul\":1069:1074   */\n      dup2\n        /* \"#utility.yul\":1066:1101   */\n      eq\n        /* \"#utility.yul\":1056:1119   */\n      tag_122\n      jumpi\n        /* \"#utility.yul\":1115:1116   */\n      0x00\n        /* \"#utility.yul\":1112:1113   */\n      dup1\n        /* \"#utility.yul\":1105:1117   */\n      revert\n        /* \"#utility.yul\":1056:1119   */\n    tag_122:\n        /* \"#utility.yul\":1003:1125   */\n      pop\n      jump\t// out\n        /* \"#utility.yul\":1131:1270   */\n    tag_91:\n        /* \"#utility.yul\":1177:1182   */\n      0x00\n        /* \"#utility.yul\":1215:1221   */\n      dup2\n        /* \"#utility.yul\":1202:1222   */\n      calldataload\n        /* \"#utility.yul\":1193:1222   */\n      swap1\n      pop\n        /* \"#utility.yul\":1231:1264   */\n      tag_124\n        /* \"#utility.yul\":1258:1263   */\n      dup2\n        /* \"#utility.yul\":1231:1264   */\n      tag_90\n      jump\t// in\n    tag_124:\n        /* \"#utility.yul\":1131:1270   */\n      swap3\n      swap2\n      pop\n      pop\n      jump\t// out\n        /* \"#utility.yul\":1276:1605   */\n    tag_19:\n        /* \"#utility.yul\":1335:1341   */\n      0x00\n        /* \"#utility.yul\":1384:1386   */\n      0x20\n        /* \"#utility.yul\":1372:1381   */\n      dup3\n        /* \"#utility.yul\":1363:1370   */\n      dup5\n        /* \"#utility.yul\":1359:1382   */\n      sub\n        /* \"#utility.yul\":1355:1387   */\n      slt\n        /* \"#utility.yul\":1352:1471   */\n      iszero\n      tag_126\n      jumpi\n        /* \"#utility.yul\":1390:1469   */\n      tag_127\n      tag_86\n      jump\t// in\n    tag_127:\n        /* \"#utility.yul\":1352:1471   */\n    tag_126:\n        /* \"#utility.yul\":1510:1511   */\n      0x00\n        /* \"#utility.yul\":1535:1588   */\n      tag_128\n        /* \"#utility.yul\":1580:1587   */\n      dup5\n        /* \"#utility.yul\":1571:1577   */\n      dup3\n        /* \"#utility.yul\":1560:1569   */\n      dup6\n        /* \"#utility.yul\":1556:1578   */\n      add\n        /* \"#utility.yul\":1535:1588   */\n      tag_91\n      jump\t// in\n    tag_128:\n        /* \"#utility.yul\":1525:1588   */\n      swap2\n      pop\n        /* \"#utility.yul\":1481:1598   */\n      pop\n        /* \"#utility.yul\":1276:1605   */\n      swap3\n      swap2\n      pop\n      pop\n      jump\t// out\n        /* \"#utility.yul\":1611:1729   */\n    tag_92:\n        /* \"#utility.yul\":1698:1722   */\n      tag_130\n        /* \"#utility.yul\":1716:1721   */\n      dup2\n        /* \"#utility.yul\":1698:1722   */\n      tag_89\n      jump\t// in\n    tag_130:\n        /* \"#utility.yul\":1693:1696   */\n      dup3\n        /* \"#utility.yul\":1686:1723   */\n      mstore\n        /* \"#utility.yul\":1611:1729   */\n      pop\n      pop\n      jump\t// out\n        /* \"#utility.yul\":1735:1957   */\n    tag_26:\n        /* \"#utility.yul\":1828:1832   */\n      0x00\n        /* \"#utility.yul\":1866:1868   */\n      0x20\n        /* \"#utility.yul\":1855:1864   */\n      dup3\n        /* \"#utility.yul\":1851:1869   */\n      add\n        /* \"#utility.yul\":1843:1869   */\n      swap1\n      pop\n        /* \"#utility.yul\":1879:1950   */\n      tag_132\n        /* \"#utility.yul\":1947:1948   */\n      0x00\n        /* \"#utility.yul\":1936:1945   */\n      dup4\n        /* \"#utility.yul\":1932:1949   */\n      add\n        /* \"#utility.yul\":1923:1929   */\n      dup5\n        /* \"#utility.yul\":1879:1950   */\n      tag_92\n      jump\t// in\n    tag_132:\n        /* \"#utility.yul\":1735:1957   */\n      swap3\n      swap2\n      pop\n      pop\n      jump\t// out\n        /* \"#utility.yul\":1963:2085   */\n    tag_93:\n        /* \"#utility.yul\":2036:2060   */\n      tag_134\n        /* \"#utility.yul\":2054:2059   */\n      dup2\n        /* \"#utility.yul\":2036:2060   */\n      tag_83\n      jump\t// in\n    tag_134:\n        /* \"#utility.yul\":2029:2034   */\n      dup2\n        /* \"#utility.yul\":2026:2061   */\n      eq\n        /* \"#utility.yul\":2016:2079   */\n      tag_135\n      jumpi\n        /* \"#utility.yul\":2075:2076   */\n      0x00\n        /* \"#utility.yul\":2072:2073   */\n      dup1\n        /* \"#utility.yul\":2065:2077   */\n      revert\n        /* \"#utility.yul\":2016:2079   */\n    tag_135:\n        /* \"#utility.yul\":1963:2085   */\n      pop\n      jump\t// out\n        /* \"#utility.yul\":2091:2230   */\n    tag_94:\n        /* \"#utility.yul\":2137:2142   */\n      0x00\n        /* \"#utility.yul\":2175:2181   */\n      dup2\n        /* \"#utility.yul\":2162:2182   */\n      calldataload\n        /* \"#utility.yul\":2153:2182   */\n      swap1\n      pop\n        /* \"#utility.yul\":2191:2224   */\n      tag_137\n        /* \"#utility.yul\":2218:2223   */\n      dup2\n        /* \"#utility.yul\":2191:2224   */\n      tag_93\n      jump\t// in\n    tag_137:\n        /* \"#utility.yul\":2091:2230   */\n      swap3\n      swap2\n      pop\n      pop\n      jump\t// out\n        /* \"#utility.yul\":2236:2565   */\n    tag_32:\n        /* \"#utility.yul\":2295:2301   */\n      0x00\n        /* \"#utility.yul\":2344:2346   */\n      0x20\n        /* \"#utility.yul\":2332:2341   */\n      dup3\n        /* \"#utility.yul\":2323:2330   */\n      dup5\n        /* \"#utility.yul\":2319:2342   */\n      sub\n        /* \"#utility.yul\":2315:2347   */\n      slt\n        /* \"#utility.yul\":2312:2431   */\n      iszero\n      tag_139\n      jumpi\n        /* \"#utility.yul\":2350:2429   */\n      tag_140\n      tag_86\n      jump\t// in\n    tag_140:\n        /* \"#utility.yul\":2312:2431   */\n    tag_139:\n        /* \"#utility.yul\":2470:2471   */\n      0x00\n        /* \"#utility.yul\":2495:2548   */\n      tag_141\n        /* \"#utility.yul\":2540:2547   */\n      dup5\n        /* \"#utility.yul\":2531:2537   */\n      dup3\n        /* \"#utility.yul\":2520:2529   */\n      dup6\n        /* \"#utility.yul\":2516:2538   */\n      add\n        /* \"#utility.yul\":2495:2548   */\n      tag_94\n      jump\t// in\n    tag_141:\n        /* \"#utility.yul\":2485:2548   */\n      swap2\n      pop\n        /* \"#utility.yul\":2441:2558   */\n      pop\n        /* \"#utility.yul\":2236:2565   */\n      swap3\n      swap2\n      pop\n      pop\n      jump\t// out\n        /* \"#utility.yul\":2571:2740   */\n    tag_95:\n        /* \"#utility.yul\":2655:2666   */\n      0x00\n        /* \"#utility.yul\":2689:2695   */\n      dup3\n        /* \"#utility.yul\":2684:2687   */\n      dup3\n        /* \"#utility.yul\":2677:2696   */\n      mstore\n        /* \"#utility.yul\":2729:2733   */\n      0x20\n        /* \"#utility.yul\":2724:2727   */\n      dup3\n        /* \"#utility.yul\":2720:2734   */\n      add\n        /* \"#utility.yul\":2705:2734   */\n      swap1\n      pop\n        /* \"#utility.yul\":2571:2740   */\n      swap3\n      swap2\n      pop\n      pop\n      jump\t// out\n        /* \"#utility.yul\":2746:2916   */\n    tag_96:\n        /* \"#utility.yul\":2886:2908   */\n      0x53656e646572206973206e6f74206f776e657221000000000000000000000000\n        /* \"#utility.yul\":2882:2883   */\n      0x00\n        /* \"#utility.yul\":2874:2880   */\n      dup3\n        /* \"#utility.yul\":2870:2884   */\n      add\n        /* \"#utility.yul\":2863:2909   */\n      mstore\n        /* \"#utility.yul\":2746:2916   */\n      pop\n      jump\t// out\n        /* \"#utility.yul\":2922:3288   */\n    tag_97:\n        /* \"#utility.yul\":3064:3067   */\n      0x00\n        /* \"#utility.yul\":3085:3152   */\n      tag_145\n        /* \"#utility.yul\":3149:3151   */\n      0x14\n        /* \"#utility.yul\":3144:3147   */\n      dup4\n        /* \"#utility.yul\":3085:3152   */\n      tag_95\n      jump\t// in\n    tag_145:\n        /* \"#utility.yul\":3078:3152   */\n      swap2\n      pop\n        /* \"#utility.yul\":3161:3254   */\n      tag_146\n        /* \"#utility.yul\":3250:3253   */\n      dup3\n        /* \"#utility.yul\":3161:3254   */\n      tag_96\n      jump\t// in\n    tag_146:\n        /* \"#utility.yul\":3279:3281   */\n      0x20\n        /* \"#utility.yul\":3274:3277   */\n      dup3\n        /* \"#utility.yul\":3270:3282   */\n      add\n        /* \"#utility.yul\":3263:3282   */\n      swap1\n      pop\n        /* \"#utility.yul\":2922:3288   */\n      swap2\n      swap1\n      pop\n      jump\t// out\n        /* \"#utility.yul\":3294:3713   */\n    tag_38:\n        /* \"#utility.yul\":3460:3464   */\n      0x00\n        /* \"#utility.yul\":3498:3500   */\n      0x20\n        /* \"#utility.yul\":3487:3496   */\n      dup3\n        /* \"#utility.yul\":3483:3501   */\n      add\n        /* \"#utility.yul\":3475:3501   */\n      swap1\n      pop\n        /* \"#utility.yul\":3547:3556   */\n      dup2\n        /* \"#utility.yul\":3541:3545   */\n      dup2\n        /* \"#utility.yul\":3537:3557   */\n      sub\n        /* \"#utility.yul\":3533:3534   */\n      0x00\n        /* \"#utility.yul\":3522:3531   */\n      dup4\n        /* \"#utility.yul\":3518:3535   */\n      add\n        /* \"#utility.yul\":3511:3558   */\n      mstore\n        /* \"#utility.yul\":3575:3706   */\n      tag_148\n        /* \"#utility.yul\":3701:3705   */\n      dup2\n        /* \"#utility.yul\":3575:3706   */\n      tag_97\n      jump\t// in\n    tag_148:\n        /* \"#utility.yul\":3567:3706   */\n      swap1\n      pop\n        /* \"#utility.yul\":3294:3713   */\n      swap2\n      swap1\n      pop\n      jump\t// out\n        /* \"#utility.yul\":3719:3899   */\n    tag_45:\n        /* \"#utility.yul\":3767:3844   */\n      0x4e487b7100000000000000000000000000000000000000000000000000000000\n        /* \"#utility.yul\":3764:3765   */\n      0x00\n        /* \"#utility.yul\":3757:3845   */\n      mstore\n        /* \"#utility.yul\":3864:3868   */\n      0x32\n        /* \"#utility.yul\":3861:3862   */\n      0x04\n        /* \"#utility.yul\":3854:3869   */\n      mstore\n        /* \"#utility.yul\":3888:3892   */\n      0x24\n        /* \"#utility.yul\":3885:3886   */\n      0x00\n        /* \"#utility.yul\":3878:3893   */\n      revert\n        /* \"#utility.yul\":3905:4085   */\n    tag_98:\n        /* \"#utility.yul\":3953:4030   */\n      0x4e487b7100000000000000000000000000000000000000000000000000000000\n        /* \"#utility.yul\":3950:3951   */\n      0x00\n        /* \"#utility.yul\":3943:4031   */\n      mstore\n        /* \"#utility.yul\":4050:4054   */\n      0x11\n        /* \"#utility.yul\":4047:4048   */\n      0x04\n        /* \"#utility.yul\":4040:4055   */\n      mstore\n        /* \"#utility.yul\":4074:4078   */\n      0x24\n        /* \"#utility.yul\":4071:4072   */\n      0x00\n        /* \"#utility.yul\":4064:4079   */\n      revert\n        /* \"#utility.yul\":4091:4324   */\n    tag_48:\n        /* \"#utility.yul\":4130:4133   */\n      0x00\n        /* \"#utility.yul\":4153:4177   */\n      tag_152\n        /* \"#utility.yul\":4171:4176   */\n      dup3\n        /* \"#utility.yul\":4153:4177   */\n      tag_83\n      jump\t// in\n    tag_152:\n        /* \"#utility.yul\":4144:4177   */\n      swap2\n      pop\n        /* \"#utility.yul\":4199:4265   */\n      0xffffffffffffffffffffffffffffffffffffffffffffffffffffffffffffffff\n        /* \"#utility.yul\":4192:4197   */\n      dup3\n        /* \"#utility.yul\":4189:4266   */\n      eq\n        /* \"#utility.yul\":4186:4289   */\n      iszero\n      tag_153\n      jumpi\n        /* \"#utility.yul\":4269:4287   */\n      tag_154\n      tag_98\n      jump\t// in\n    tag_154:\n        /* \"#utility.yul\":4186:4289   */\n    tag_153:\n        /* \"#utility.yul\":4316:4317   */\n      0x01\n        /* \"#utility.yul\":4309:4314   */\n      dup3\n        /* \"#utility.yul\":4305:4318   */\n      add\n        /* \"#utility.yul\":4298:4318   */\n      swap1\n      pop\n        /* \"#utility.yul\":4091:4324   */\n      swap2\n      swap1\n      pop\n      jump\t// out\n        /* \"#utility.yul\":4330:4510   */\n    tag_51:\n        /* \"#utility.yul\":4378:4455   */\n      0x4e487b7100000000000000000000000000000000000000000000000000000000\n        /* \"#utility.yul\":4375:4376   */\n      0x00\n        /* \"#utility.yul\":4368:4456   */\n      mstore\n        /* \"#utility.yul\":4475:4479   */\n      0x41\n        /* \"#utility.yul\":4472:4473   */\n      0x04\n        /* \"#utility.yul\":4465:4480   */\n      mstore\n        /* \"#utility.yul\":4499:4503   */\n      0x24\n        /* \"#utility.yul\":4496:4497   */\n      0x00\n        /* \"#utility.yul\":4489:4504   */\n      revert\n        /* \"#utility.yul\":4516:4677   */\n    tag_99:\n        /* \"#utility.yul\":4656:4669   */\n      0x53656e64206661696c6564000000000000000000000000000000000000000000\n        /* \"#utility.yul\":4652:4653   */\n      0x00\n        /* \"#utility.yul\":4644:4650   */\n      dup3\n        /* \"#utility.yul\":4640:4654   */\n      add\n        /* \"#utility.yul\":4633:4670   */\n      mstore\n        /* \"#utility.yul\":4516:4677   */\n      pop\n      jump\t// out\n        /* \"#utility.yul\":4683:5049   */\n    tag_100:\n        /* \"#utility.yul\":4825:4828   */\n      0x00\n        /* \"#utility.yul\":4846:4913   */\n      tag_158\n        /* \"#utility.yul\":4910:4912   */\n      0x0b\n        /* \"#utility.yul\":4905:4908   */\n      dup4\n        /* \"#utility.yul\":4846:4913   */\n      tag_95\n      jump\t// in\n    tag_158:\n        /* \"#utility.yul\":4839:4913   */\n      swap2\n      pop\n        /* \"#utility.yul\":4922:5015   */\n      tag_159\n        /* \"#utility.yul\":5011:5014   */\n      dup3\n        /* \"#utility.yul\":4922:5015   */\n      tag_99\n      jump\t// in\n    tag_159:\n        /* \"#utility.yul\":5040:5042   */\n      0x20\n        /* \"#utility.yul\":5035:5038   */\n      dup3\n        /* \"#utility.yul\":5031:5043   */\n      add\n        /* \"#utility.yul\":5024:5043   */\n      swap1\n      pop\n        /* \"#utility.yul\":4683:5049   */\n      swap2\n      swap1\n      pop\n      jump\t// out\n        /* \"#utility.yul\":5055:5474   */\n    tag_60:\n        /* \"#utility.yul\":5221:5225   */\n      0x00\n        /* \"#utility.yul\":5259:5261   */\n      0x20\n        /* \"#utility.yul\":5248:5257   */\n      dup3\n        /* \"#utility.yul\":5244:5262   */\n      add\n        /* \"#utility.yul\":5236:5262   */\n      swap1\n      pop\n        /* \"#utility.yul\":5308:5317   */\n      dup2\n        /* \"#utility.yul\":5302:5306   */\n      dup2\n        /* \"#utility.yul\":5298:5318   */\n      sub\n        /* \"#utility.yul\":5294:5295   */\n      0x00\n        /* \"#utility.yul\":5283:5292   */\n      dup4\n        /* \"#utility.yul\":5279:5296   */\n      add\n        /* \"#utility.yul\":5272:5319   */\n      mstore\n        /* \"#utility.yul\":5336:5467   */\n      tag_161\n        /* \"#utility.yul\":5462:5466   */\n      dup2\n        /* \"#utility.yul\":5336:5467   */\n      tag_100\n      jump\t// in\n    tag_161:\n        /* \"#utility.yul\":5328:5467   */\n      swap1\n      pop\n        /* \"#utility.yul\":5055:5474   */\n      swap2\n      swap1\n      pop\n      jump\t// out\n        /* \"#utility.yul\":5480:5627   */\n    tag_101:\n        /* \"#utility.yul\":5581:5592   */\n      0x00\n        /* \"#utility.yul\":5618:5621   */\n      dup2\n        /* \"#utility.yul\":5603:5621   */\n      swap1\n      pop\n        /* \"#utility.yul\":5480:5627   */\n      swap3\n      swap2\n      pop\n      pop\n      jump\t// out\n        /* \"#utility.yul\":5633:5747   */\n    tag_102:\n      pop\n      jump\t// out\n        /* \"#utility.yul\":5753:6151   */\n    tag_103:\n        /* \"#utility.yul\":5912:5915   */\n      0x00\n        /* \"#utility.yul\":5933:6016   */\n      tag_165\n        /* \"#utility.yul\":6014:6015   */\n      0x00\n        /* \"#utility.yul\":6009:6012   */\n      dup4\n        /* \"#utility.yul\":5933:6016   */\n      tag_101\n      jump\t// in\n    tag_165:\n        /* \"#utility.yul\":5926:6016   */\n      swap2\n      pop\n        /* \"#utility.yul\":6025:6118   */\n      tag_166\n        /* \"#utility.yul\":6114:6117   */\n      dup3\n        /* \"#utility.yul\":6025:6118   */\n      tag_102\n      jump\t// in\n    tag_166:\n        /* \"#utility.yul\":6143:6144   */\n      0x00\n        /* \"#utility.yul\":6138:6141   */\n      dup3\n        /* \"#utility.yul\":6134:6145   */\n      add\n        /* \"#utility.yul\":6127:6145   */\n      swap1\n      pop\n        /* \"#utility.yul\":5753:6151   */\n      swap2\n      swap1\n      pop\n      jump\t// out\n        /* \"#utility.yul\":6157:6536   */\n    tag_62:\n        /* \"#utility.yul\":6341:6344   */\n      0x00\n        /* \"#utility.yul\":6363:6510   */\n      tag_168\n        /* \"#utility.yul\":6506:6509   */\n      dup3\n        /* \"#utility.yul\":6363:6510   */\n      tag_103\n      jump\t// in\n    tag_168:\n        /* \"#utility.yul\":6356:6510   */\n      swap2\n      pop\n        /* \"#utility.yul\":6527:6530   */\n      dup2\n        /* \"#utility.yul\":6520:6530   */\n      swap1\n      pop\n        /* \"#utility.yul\":6157:6536   */\n      swap2\n      swap1\n      pop\n      jump\t// out\n        /* \"#utility.yul\":6542:6703   */\n    tag_104:\n        /* \"#utility.yul\":6682:6695   */\n      0x43616c6c206661696c6564000000000000000000000000000000000000000000\n        /* \"#utility.yul\":6678:6679   */\n      0x00\n        /* \"#utility.yul\":6670:6676   */\n      dup3\n        /* \"#utility.yul\":6666:6680   */\n      add\n        /* \"#utility.yul\":6659:6696   */\n      mstore\n        /* \"#utility.yul\":6542:6703   */\n      pop\n      jump\t// out\n        /* \"#utility.yul\":6709:7075   */\n    tag_105:\n        /* \"#utility.yul\":6851:6854   */\n      0x00\n        /* \"#utility.yul\":6872:6939   */\n      tag_171\n        /* \"#utility.yul\":6936:6938   */\n      0x0b\n        /* \"#utility.yul\":6931:6934   */\n      dup4\n        /* \"#utility.yul\":6872:6939   */\n      tag_95\n      jump\t// in\n    tag_171:\n        /* \"#utility.yul\":6865:6939   */\n      swap2\n      pop\n        /* \"#utility.yul\":6948:7041   */\n      tag_172\n        /* \"#utility.yul\":7037:7040   */\n      dup3\n        /* \"#utility.yul\":6948:7041   */\n      tag_104\n      jump\t// in\n    tag_172:\n        /* \"#utility.yul\":7066:7068   */\n      0x20\n        /* \"#utility.yul\":7061:7064   */\n      dup3\n        /* \"#utility.yul\":7057:7069   */\n      add\n        /* \"#utility.yul\":7050:7069   */\n      swap1\n      pop\n        /* \"#utility.yul\":6709:7075   */\n      swap2\n      swap1\n      pop\n      jump\t// out\n        /* \"#utility.yul\":7081:7500   */\n    tag_68:\n        /* \"#utility.yul\":7247:7251   */\n      0x00\n        /* \"#utility.yul\":7285:7287   */\n      0x20\n        /* \"#utility.yul\":7274:7283   */\n      dup3\n        /* \"#utility.yul\":7270:7288   */\n      add\n        /* \"#utility.yul\":7262:7288   */\n      swap1\n      pop\n        /* \"#utility.yul\":7334:7343   */\n      dup2\n        /* \"#utility.yul\":7328:7332   */\n      dup2\n        /* \"#utility.yul\":7324:7344   */\n      sub\n        /* \"#utility.yul\":7320:7321   */\n      0x00\n        /* \"#utility.yul\":7309:7318   */\n      dup4\n        /* \"#utility.yul\":7305:7322   */\n      add\n        /* \"#utility.yul\":7298:7345   */\n      mstore\n        /* \"#utility.yul\":7362:7493   */\n      tag_174\n        /* \"#utility.yul\":7488:7492   */\n      dup2\n        /* \"#utility.yul\":7362:7493   */\n      tag_105\n      jump\t// in\n    tag_174:\n        /* \"#utility.yul\":7354:7493   */\n      swap1\n      pop\n        /* \"#utility.yul\":7081:7500   */\n      swap2\n      swap1\n      pop\n      jump\t// out\n        /* \"#utility.yul\":7506:7676   */\n    tag_106:\n        /* \"#utility.yul\":7646:7668   */\n      0x4469646e27742073656e6420656e6f7567687421000000000000000000000000\n        /* \"#utility.yul\":7642:7643   */\n      0x00\n        /* \"#utility.yul\":7634:7640   */\n      dup3\n        /* \"#utility.yul\":7630:7644   */\n      add\n        /* \"#utility.yul\":7623:7669   */\n      mstore\n        /* \"#utility.yul\":7506:7676   */\n      pop\n      jump\t// out\n        /* \"#utility.yul\":7682:8048   */\n    tag_107:\n        /* \"#utility.yul\":7824:7827   */\n      0x00\n        /* \"#utility.yul\":7845:7912   */\n      tag_177\n        /* \"#utility.yul\":7909:7911   */\n      0x14\n        /* \"#utility.yul\":7904:7907   */\n      dup4\n        /* \"#utility.yul\":7845:7912   */\n      tag_95\n      jump\t// in\n    tag_177:\n        /* \"#utility.yul\":7838:7912   */\n      swap2\n      pop\n        /* \"#utility.yul\":7921:8014   */\n      tag_178\n        /* \"#utility.yul\":8010:8013   */\n      dup3\n        /* \"#utility.yul\":7921:8014   */\n      tag_106\n      jump\t// in\n    tag_178:\n        /* \"#utility.yul\":8039:8041   */\n      0x20\n        /* \"#utility.yul\":8034:8037   */\n      dup3\n        /* \"#utility.yul\":8030:8042   */\n      add\n        /* \"#utility.yul\":8023:8042   */\n      swap1\n      pop\n        /* \"#utility.yul\":7682:8048   */\n      swap2\n      swap1\n      pop\n      jump\t// out\n        /* \"#utility.yul\":8054:8473   */\n    tag_72:\n        /* \"#utility.yul\":8220:8224   */\n      0x00\n        /* \"#utility.yul\":8258:8260   */\n      0x20\n        /* \"#utility.yul\":8247:8256   */\n      dup3\n        /* \"#utility.yul\":8243:8261   */\n      add\n        /* \"#utility.yul\":8235:8261   */\n      swap1\n      pop\n        /* \"#utility.yul\":8307:8316   */\n      dup2\n        /* \"#utility.yul\":8301:8305   */\n      dup2\n        /* \"#utility.yul\":8297:8317   */\n      sub\n        /* \"#utility.yul\":8293:8294   */\n      0x00\n        /* \"#utility.yul\":8282:8291   */\n      dup4\n        /* \"#utility.yul\":8278:8295   */\n      add\n        /* \"#utility.yul\":8271:8318   */\n      mstore\n        /* \"#utility.yul\":8335:8466   */\n      tag_180\n        /* \"#utility.yul\":8461:8465   */\n      dup2\n        /* \"#utility.yul\":8335:8466   */\n      tag_107\n      jump\t// in\n    tag_180:\n        /* \"#utility.yul\":8327:8466   */\n      swap1\n      pop\n        /* \"#utility.yul\":8054:8473   */\n      swap2\n      swap1\n      pop\n      jump\t// out\n\n    auxdata: 0xa264697066735822122070c3debca1cb4bbcc6d2b2f6f8883c9e9e3f56424e6a10aaa59f3a1019ec9c4564736f6c63430008080033\n}\n",
				"bytecode": {
					"linkReferences": {},
					"object": "6080604052603260005534801561001557600080fd5b5033600360006101000a81548173ffffffffffffffffffffffffffffffffffffffff021916908373ffffffffffffffffffffffffffffffffffffffff160217905550610aca806100666000396000f3fe6080604052600436106100555760003560e01c8063098de8201461005a5780633ccfd60b146100855780633e47d6f31461009c5780638da5cb5b146100d9578063b60d428814610104578063dc0d3dff1461010e575b600080fd5b34801561006657600080fd5b5061006f61014b565b60405161007c9190610689565b60405180910390f35b34801561009157600080fd5b5061009a610151565b005b3480156100a857600080fd5b506100c360048036038101906100be9190610707565b61045e565b6040516100d09190610689565b60405180910390f35b3480156100e557600080fd5b506100ee610476565b6040516100fb9190610743565b60405180910390f35b61010c61049c565b005b34801561011a57600080fd5b506101356004803603810190610130919061078a565b61058a565b6040516101429190610743565b60405180910390f35b60005481565b600360009054906101000a900473ffffffffffffffffffffffffffffffffffffffff1673ffffffffffffffffffffffffffffffffffffffff163373ffffffffffffffffffffffffffffffffffffffff16146101e1576040517f08c379a00000000000000000000000000000000000000000000000000000000081526004016101d890610814565b60405180910390fd5b60005b60018054905081111561028d5760006001828154811061020757610206610834565b5b9060005260206000200160009054906101000a900473ffffffffffffffffffffffffffffffffffffffff1690506000600260008373ffffffffffffffffffffffffffffffffffffffff1673ffffffffffffffffffffffffffffffffffffffff1681526020019081526020016000208190555050808061028590610892565b9150506101e4565b50600067ffffffffffffffff8111156102a9576102a86108db565b5b6040519080825280602002602001820160405280156102d75781602001602082028036833780820191505090505b50600190805190602001906102ed9291906105c9565b503373ffffffffffffffffffffffffffffffffffffffff166108fc479081150290604051600060405180830381858888f19350505050158015610334573d6000803e3d6000fd5b5060003373ffffffffffffffffffffffffffffffffffffffff166108fc479081150290604051600060405180830381858888f193505050509050806103ae576040517f08c379a00000000000000000000000000000000000000000000000000000000081526004016103a590610956565b60405180910390fd5b60003373ffffffffffffffffffffffffffffffffffffffff16476040516103d4906109a7565b60006040518083038185875af1925050503d8060008114610411576040519150601f19603f3d011682016040523d82523d6000602084013e610416565b606091505b505090508061045a576040517f08c379a000000000000000000000000000000000000000000000000000000000815260040161045190610a08565b60405180910390fd5b5050565b60026020528060005260406000206000915090505481565b600360009054906101000a900473ffffffffffffffffffffffffffffffffffffffff1681565b6000543410156104e1576040517f08c379a00000000000000000000000000000000000000000000000000000000081526004016104d890610a74565b60405180910390fd5b6001339080600181540180825580915050600190039060005260206000200160009091909190916101000a81548173ffffffffffffffffffffffffffffffffffffffff021916908373ffffffffffffffffffffffffffffffffffffffff16021790555034600260003373ffffffffffffffffffffffffffffffffffffffff1673ffffffffffffffffffffffffffffffffffffffff16815260200190815260200160002081905550565b6001818154811061059a57600080fd5b906000526020600020016000915054906101000a900473ffffffffffffffffffffffffffffffffffffffff1681565b828054828255906000526020600020908101928215610642579160200282015b828111156106415782518260006101000a81548173ffffffffffffffffffffffffffffffffffffffff021916908373ffffffffffffffffffffffffffffffffffffffff160217905550916020019190600101906105e9565b5b50905061064f9190610653565b5090565b5b8082111561066c576000816000905550600101610654565b5090565b6000819050919050565b61068381610670565b82525050565b600060208201905061069e600083018461067a565b92915050565b600080fd5b600073ffffffffffffffffffffffffffffffffffffffff82169050919050565b60006106d4826106a9565b9050919050565b6106e4816106c9565b81146106ef57600080fd5b50565b600081359050610701816106db565b92915050565b60006020828403121561071d5761071c6106a4565b5b600061072b848285016106f2565b91505092915050565b61073d816106c9565b82525050565b60006020820190506107586000830184610734565b92915050565b61076781610670565b811461077257600080fd5b50565b6000813590506107848161075e565b92915050565b6000602082840312156107a05761079f6106a4565b5b60006107ae84828501610775565b91505092915050565b600082825260208201905092915050565b7f53656e646572206973206e6f74206f776e657221000000000000000000000000600082015250565b60006107fe6014836107b7565b9150610809826107c8565b602082019050919050565b6000602082019050818103600083015261082d816107f1565b9050919050565b7f4e487b7100000000000000000000000000000000000000000000000000000000600052603260045260246000fd5b7f4e487b7100000000000000000000000000000000000000000000000000000000600052601160045260246000fd5b600061089d82610670565b91507fffffffffffffffffffffffffffffffffffffffffffffffffffffffffffffffff8214156108d0576108cf610863565b5b600182019050919050565b7f4e487b7100000000000000000000000000000000000000000000000000000000600052604160045260246000fd5b7f53656e64206661696c6564000000000000000000000000000000000000000000600082015250565b6000610940600b836107b7565b915061094b8261090a565b602082019050919050565b6000602082019050818103600083015261096f81610933565b9050919050565b600081905092915050565b50565b6000610991600083610976565b915061099c82610981565b600082019050919050565b60006109b282610984565b9150819050919050565b7f43616c6c206661696c6564000000000000000000000000000000000000000000600082015250565b60006109f2600b836107b7565b91506109fd826109bc565b602082019050919050565b60006020820190508181036000830152610a21816109e5565b9050919050565b7f4469646e27742073656e6420656e6f7567687421000000000000000000000000600082015250565b6000610a5e6014836107b7565b9150610a6982610a28565b602082019050919050565b60006020820190508181036000830152610a8d81610a51565b905091905056fea264697066735822122070c3debca1cb4bbcc6d2b2f6f8883c9e9e3f56424e6a10aaa59f3a1019ec9c4564736f6c63430008080033",
					"opcodes": "PUSH1 0x80 PUSH1 0x40 MSTORE PUSH1 0x32 PUSH1 0x0 SSTORE CALLVALUE DUP1 ISZERO PUSH2 0x15 JUMPI PUSH1 0x0 DUP1 REVERT JUMPDEST POP CALLER PUSH1 0x3 PUSH1 0x0 PUSH2 0x100 EXP DUP2 SLOAD DUP2 PUSH20 0xFFFFFFFFFFFFFFFFFFFFFFFFFFFFFFFFFFFFFFFF MUL NOT AND SWAP1 DUP4 PUSH20 0xFFFFFFFFFFFFFFFFFFFFFFFFFFFFFFFFFFFFFFFF AND MUL OR SWAP1 SSTORE POP PUSH2 0xACA DUP1 PUSH2 0x66 PUSH1 0x0 CODECOPY PUSH1 0x0 RETURN INVALID PUSH1 0x80 PUSH1 0x40 MSTORE PUSH1 0x4 CALLDATASIZE LT PUSH2 0x55 JUMPI PUSH1 0x0 CALLDATALOAD PUSH1 0xE0 SHR DUP1 PUSH4 0x98DE820 EQ PUSH2 0x5A JUMPI DUP1 PUSH4 0x3CCFD60B EQ PUSH2 0x85 JUMPI DUP1 PUSH4 0x3E47D6F3 EQ PUSH2 0x9C JUMPI DUP1 PUSH4 0x8DA5CB5B EQ PUSH2 0xD9 JUMPI DUP1 PUSH4 0xB60D4288 EQ PUSH2 0x104 JUMPI DUP1 PUSH4 0xDC0D3DFF EQ PUSH2 0x10E JUMPI JUMPDEST PUSH1 0x0 DUP1 REVERT JUMPDEST CALLVALUE DUP1 ISZERO PUSH2 0x66 JUMPI PUSH1 0x0 DUP1 REVERT JUMPDEST POP PUSH2 0x6F PUSH2 0x14B JUMP JUMPDEST PUSH1 0x40 MLOAD PUSH2 0x7C SWAP2 SWAP1 PUSH2 0x689 JUMP JUMPDEST PUSH1 0x40 MLOAD DUP1 SWAP2 SUB SWAP1 RETURN JUMPDEST CALLVALUE DUP1 ISZERO PUSH2 0x91 JUMPI PUSH1 0x0 DUP1 REVERT JUMPDEST POP PUSH2 0x9A PUSH2 0x151 JUMP JUMPDEST STOP JUMPDEST CALLVALUE DUP1 ISZERO PUSH2 0xA8 JUMPI PUSH1 0x0 DUP1 REVERT JUMPDEST POP PUSH2 0xC3 PUSH1 0x4 DUP1 CALLDATASIZE SUB DUP2 ADD SWAP1 PUSH2 0xBE SWAP2 SWAP1 PUSH2 0x707 JUMP JUMPDEST PUSH2 0x45E JUMP JUMPDEST PUSH1 0x40 MLOAD PUSH2 0xD0 SWAP2 SWAP1 PUSH2 0x689 JUMP JUMPDEST PUSH1 0x40 MLOAD DUP1 SWAP2 SUB SWAP1 RETURN JUMPDEST CALLVALUE DUP1 ISZERO PUSH2 0xE5 JUMPI PUSH1 0x0 DUP1 REVERT JUMPDEST POP PUSH2 0xEE PUSH2 0x476 JUMP JUMPDEST PUSH1 0x40 MLOAD PUSH2 0xFB SWAP2 SWAP1 PUSH2 0x743 JUMP JUMPDEST PUSH1 0x40 MLOAD DUP1 SWAP2 SUB SWAP1 RETURN JUMPDEST PUSH2 0x10C PUSH2 0x49C JUMP JUMPDEST STOP JUMPDEST CALLVALUE DUP1 ISZERO PUSH2 0x11A JUMPI PUSH1 0x0 DUP1 REVERT JUMPDEST POP PUSH2 0x135 PUSH1 0x4 DUP1 CALLDATASIZE SUB DUP2 ADD SWAP1 PUSH2 0x130 SWAP2 SWAP1 PUSH2 0x78A JUMP JUMPDEST PUSH2 0x58A JUMP JUMPDEST PUSH1 0x40 MLOAD PUSH2 0x142 SWAP2 SWAP1 PUSH2 0x743 JUMP JUMPDEST PUSH1 0x40 MLOAD DUP1 SWAP2 SUB SWAP1 RETURN JUMPDEST PUSH1 0x0 SLOAD DUP2 JUMP JUMPDEST PUSH1 0x3 PUSH1 0x0 SWAP1 SLOAD SWAP1 PUSH2 0x100 EXP SWAP1 DIV PUSH20 0xFFFFFFFFFFFFFFFFFFFFFFFFFFFFFFFFFFFFFFFF AND PUSH20 0xFFFFFFFFFFFFFFFFFFFFFFFFFFFFFFFFFFFFFFFF AND CALLER PUSH20 0xFFFFFFFFFFFFFFFFFFFFFFFFFFFFFFFFFFFFFFFF AND EQ PUSH2 0x1E1 JUMPI PUSH1 0x40 MLOAD PUSH32 0x8C379A000000000000000000000000000000000000000000000000000000000 DUP2 MSTORE PUSH1 0x4 ADD PUSH2 0x1D8 SWAP1 PUSH2 0x814 JUMP JUMPDEST PUSH1 0x40 MLOAD DUP1 SWAP2 SUB SWAP1 REVERT JUMPDEST PUSH1 0x0 JUMPDEST PUSH1 0x1 DUP1 SLOAD SWAP1 POP DUP2 GT ISZERO PUSH2 0x28D JUMPI PUSH1 0x0 PUSH1 0x1 DUP3 DUP2 SLOAD DUP2 LT PUSH2 0x207 JUMPI PUSH2 0x206 PUSH2 0x834 JUMP JUMPDEST JUMPDEST SWAP1 PUSH1 0x0 MSTORE PUSH1 0x20 PUSH1 0x0 KECCAK256 ADD PUSH1 0x0 SWAP1 SLOAD SWAP1 PUSH2 0x100 EXP SWAP1 DIV PUSH20 0xFFFFFFFFFFFFFFFFFFFFFFFFFFFFFFFFFFFFFFFF AND SWAP1 POP PUSH1 0x0 PUSH1 0x2 PUSH1 0x0 DUP4 PUSH20 0xFFFFFFFFFFFFFFFFFFFFFFFFFFFFFFFFFFFFFFFF AND PUSH20 0xFFFFFFFFFFFFFFFFFFFFFFFFFFFFFFFFFFFFFFFF AND DUP2 MSTORE PUSH1 0x20 ADD SWAP1 DUP2 MSTORE PUSH1 0x20 ADD PUSH1 0x0 KECCAK256 DUP2 SWAP1 SSTORE POP POP DUP1 DUP1 PUSH2 0x285 SWAP1 PUSH2 0x892 JUMP JUMPDEST SWAP2 POP POP PUSH2 0x1E4 JUMP JUMPDEST POP PUSH1 0x0 PUSH8 0xFFFFFFFFFFFFFFFF DUP2 GT ISZERO PUSH2 0x2A9 JUMPI PUSH2 0x2A8 PUSH2 0x8DB JUMP JUMPDEST JUMPDEST PUSH1 0x40 MLOAD SWAP1 DUP1 DUP3 MSTORE DUP1 PUSH1 0x20 MUL PUSH1 0x20 ADD DUP3 ADD PUSH1 0x40 MSTORE DUP1 ISZERO PUSH2 0x2D7 JUMPI DUP2 PUSH1 0x20 ADD PUSH1 0x20 DUP3 MUL DUP1 CALLDATASIZE DUP4 CALLDATACOPY DUP1 DUP3 ADD SWAP2 POP POP SWAP1 POP JUMPDEST POP PUSH1 0x1 SWAP1 DUP1 MLOAD SWAP1 PUSH1 0x20 ADD SWAP1 PUSH2 0x2ED SWAP3 SWAP2 SWAP1 PUSH2 0x5C9 JUMP JUMPDEST POP CALLER PUSH20 0xFFFFFFFFFFFFFFFFFFFFFFFFFFFFFFFFFFFFFFFF AND PUSH2 0x8FC SELFBALANCE SWAP1 DUP2 ISZERO MUL SWAP1 PUSH1 0x40 MLOAD PUSH1 0x0 PUSH1 0x40 MLOAD DUP1 DUP4 SUB DUP2 DUP6 DUP9 DUP9 CALL SWAP4 POP POP POP POP ISZERO DUP1 ISZERO PUSH2 0x334 JUMPI RETURNDATASIZE PUSH1 0x0 DUP1 RETURNDATACOPY RETURNDATASIZE PUSH1 0x0 REVERT JUMPDEST POP PUSH1 0x0 CALLER PUSH20 0xFFFFFFFFFFFFFFFFFFFFFFFFFFFFFFFFFFFFFFFF AND PUSH2 0x8FC SELFBALANCE SWAP1 DUP2 ISZERO MUL SWAP1 PUSH1 0x40 MLOAD PUSH1 0x0 PUSH1 0x40 MLOAD DUP1 DUP4 SUB DUP2 DUP6 DUP9 DUP9 CALL SWAP4 POP POP POP POP SWAP1 POP DUP1 PUSH2 0x3AE JUMPI PUSH1 0x40 MLOAD PUSH32 0x8C379A000000000000000000000000000000000000000000000000000000000 DUP2 MSTORE PUSH1 0x4 ADD PUSH2 0x3A5 SWAP1 PUSH2 0x956 JUMP JUMPDEST PUSH1 0x40 MLOAD DUP1 SWAP2 SUB SWAP1 REVERT JUMPDEST PUSH1 0x0 CALLER PUSH20 0xFFFFFFFFFFFFFFFFFFFFFFFFFFFFFFFFFFFFFFFF AND SELFBALANCE PUSH1 0x40 MLOAD PUSH2 0x3D4 SWAP1 PUSH2 0x9A7 JUMP JUMPDEST PUSH1 0x0 PUSH1 0x40 MLOAD DUP1 DUP4 SUB DUP2 DUP6 DUP8 GAS CALL SWAP3 POP POP POP RETURNDATASIZE DUP1 PUSH1 0x0 DUP2 EQ PUSH2 0x411 JUMPI PUSH1 0x40 MLOAD SWAP2 POP PUSH1 0x1F NOT PUSH1 0x3F RETURNDATASIZE ADD AND DUP3 ADD PUSH1 0x40 MSTORE RETURNDATASIZE DUP3 MSTORE RETURNDATASIZE PUSH1 0x0 PUSH1 0x20 DUP5 ADD RETURNDATACOPY PUSH2 0x416 JUMP JUMPDEST PUSH1 0x60 SWAP2 POP JUMPDEST POP POP SWAP1 POP DUP1 PUSH2 0x45A JUMPI PUSH1 0x40 MLOAD PUSH32 0x8C379A000000000000000000000000000000000000000000000000000000000 DUP2 MSTORE PUSH1 0x4 ADD PUSH2 0x451 SWAP1 PUSH2 0xA08 JUMP JUMPDEST PUSH1 0x40 MLOAD DUP1 SWAP2 SUB SWAP1 REVERT JUMPDEST POP POP JUMP JUMPDEST PUSH1 0x2 PUSH1 0x20 MSTORE DUP1 PUSH1 0x0 MSTORE PUSH1 0x40 PUSH1 0x0 KECCAK256 PUSH1 0x0 SWAP2 POP SWAP1 POP SLOAD DUP2 JUMP JUMPDEST PUSH1 0x3 PUSH1 0x0 SWAP1 SLOAD SWAP1 PUSH2 0x100 EXP SWAP1 DIV PUSH20 0xFFFFFFFFFFFFFFFFFFFFFFFFFFFFFFFFFFFFFFFF AND DUP2 JUMP JUMPDEST PUSH1 0x0 SLOAD CALLVALUE LT ISZERO PUSH2 0x4E1 JUMPI PUSH1 0x40 MLOAD PUSH32 0x8C379A000000000000000000000000000000000000000000000000000000000 DUP2 MSTORE PUSH1 0x4 ADD PUSH2 0x4D8 SWAP1 PUSH2 0xA74 JUMP JUMPDEST PUSH1 0x40 MLOAD DUP1 SWAP2 SUB SWAP1 REVERT JUMPDEST PUSH1 0x1 CALLER SWAP1 DUP1 PUSH1 0x1 DUP2 SLOAD ADD DUP1 DUP3 SSTORE DUP1 SWAP2 POP POP PUSH1 0x1 SWAP1 SUB SWAP1 PUSH1 0x0 MSTORE PUSH1 0x20 PUSH1 0x0 KECCAK256 ADD PUSH1 0x0 SWAP1 SWAP2 SWAP1 SWAP2 SWAP1 SWAP2 PUSH2 0x100 EXP DUP2 SLOAD DUP2 PUSH20 0xFFFFFFFFFFFFFFFFFFFFFFFFFFFFFFFFFFFFFFFF MUL NOT AND SWAP1 DUP4 PUSH20 0xFFFFFFFFFFFFFFFFFFFFFFFFFFFFFFFFFFFFFFFF AND MUL OR SWAP1 SSTORE POP CALLVALUE PUSH1 0x2 PUSH1 0x0 CALLER PUSH20 0xFFFFFFFFFFFFFFFFFFFFFFFFFFFFFFFFFFFFFFFF AND PUSH20 0xFFFFFFFFFFFFFFFFFFFFFFFFFFFFFFFFFFFFFFFF AND DUP2 MSTORE PUSH1 0x20 ADD SWAP1 DUP2 MSTORE PUSH1 0x20 ADD PUSH1 0x0 KECCAK256 DUP2 SWAP1 SSTORE POP JUMP JUMPDEST PUSH1 0x1 DUP2 DUP2 SLOAD DUP2 LT PUSH2 0x59A JUMPI PUSH1 0x0 DUP1 REVERT JUMPDEST SWAP1 PUSH1 0x0 MSTORE PUSH1 0x20 PUSH1 0x0 KECCAK256 ADD PUSH1 0x0 SWAP2 POP SLOAD SWAP1 PUSH2 0x100 EXP SWAP1 DIV PUSH20 0xFFFFFFFFFFFFFFFFFFFFFFFFFFFFFFFFFFFFFFFF AND DUP2 JUMP JUMPDEST DUP3 DUP1 SLOAD DUP3 DUP3 SSTORE SWAP1 PUSH1 0x0 MSTORE PUSH1 0x20 PUSH1 0x0 KECCAK256 SWAP1 DUP2 ADD SWAP3 DUP3 ISZERO PUSH2 0x642 JUMPI SWAP2 PUSH1 0x20 MUL DUP3 ADD JUMPDEST DUP3 DUP2 GT ISZERO PUSH2 0x641 JUMPI DUP3 MLOAD DUP3 PUSH1 0x0 PUSH2 0x100 EXP DUP2 SLOAD DUP2 PUSH20 0xFFFFFFFFFFFFFFFFFFFFFFFFFFFFFFFFFFFFFFFF MUL NOT AND SWAP1 DUP4 PUSH20 0xFFFFFFFFFFFFFFFFFFFFFFFFFFFFFFFFFFFFFFFF AND MUL OR SWAP1 SSTORE POP SWAP2 PUSH1 0x20 ADD SWAP2 SWAP1 PUSH1 0x1 ADD SWAP1 PUSH2 0x5E9 JUMP JUMPDEST JUMPDEST POP SWAP1 POP PUSH2 0x64F SWAP2 SWAP1 PUSH2 0x653 JUMP JUMPDEST POP SWAP1 JUMP JUMPDEST JUMPDEST DUP1 DUP3 GT ISZERO PUSH2 0x66C JUMPI PUSH1 0x0 DUP2 PUSH1 0x0 SWAP1 SSTORE POP PUSH1 0x1 ADD PUSH2 0x654 JUMP JUMPDEST POP SWAP1 JUMP JUMPDEST PUSH1 0x0 DUP2 SWAP1 POP SWAP2 SWAP1 POP JUMP JUMPDEST PUSH2 0x683 DUP2 PUSH2 0x670 JUMP JUMPDEST DUP3 MSTORE POP POP JUMP JUMPDEST PUSH1 0x0 PUSH1 0x20 DUP3 ADD SWAP1 POP PUSH2 0x69E PUSH1 0x0 DUP4 ADD DUP5 PUSH2 0x67A JUMP JUMPDEST SWAP3 SWAP2 POP POP JUMP JUMPDEST PUSH1 0x0 DUP1 REVERT JUMPDEST PUSH1 0x0 PUSH20 0xFFFFFFFFFFFFFFFFFFFFFFFFFFFFFFFFFFFFFFFF DUP3 AND SWAP1 POP SWAP2 SWAP1 POP JUMP JUMPDEST PUSH1 0x0 PUSH2 0x6D4 DUP3 PUSH2 0x6A9 JUMP JUMPDEST SWAP1 POP SWAP2 SWAP1 POP JUMP JUMPDEST PUSH2 0x6E4 DUP2 PUSH2 0x6C9 JUMP JUMPDEST DUP2 EQ PUSH2 0x6EF JUMPI PUSH1 0x0 DUP1 REVERT JUMPDEST POP JUMP JUMPDEST PUSH1 0x0 DUP2 CALLDATALOAD SWAP1 POP PUSH2 0x701 DUP2 PUSH2 0x6DB JUMP JUMPDEST SWAP3 SWAP2 POP POP JUMP JUMPDEST PUSH1 0x0 PUSH1 0x20 DUP3 DUP5 SUB SLT ISZERO PUSH2 0x71D JUMPI PUSH2 0x71C PUSH2 0x6A4 JUMP JUMPDEST JUMPDEST PUSH1 0x0 PUSH2 0x72B DUP5 DUP3 DUP6 ADD PUSH2 0x6F2 JUMP JUMPDEST SWAP2 POP POP SWAP3 SWAP2 POP POP JUMP JUMPDEST PUSH2 0x73D DUP2 PUSH2 0x6C9 JUMP JUMPDEST DUP3 MSTORE POP POP JUMP JUMPDEST PUSH1 0x0 PUSH1 0x20 DUP3 ADD SWAP1 POP PUSH2 0x758 PUSH1 0x0 DUP4 ADD DUP5 PUSH2 0x734 JUMP JUMPDEST SWAP3 SWAP2 POP POP JUMP JUMPDEST PUSH2 0x767 DUP2 PUSH2 0x670 JUMP JUMPDEST DUP2 EQ PUSH2 0x772 JUMPI PUSH1 0x0 DUP1 REVERT JUMPDEST POP JUMP JUMPDEST PUSH1 0x0 DUP2 CALLDATALOAD SWAP1 POP PUSH2 0x784 DUP2 PUSH2 0x75E JUMP JUMPDEST SWAP3 SWAP2 POP POP JUMP JUMPDEST PUSH1 0x0 PUSH1 0x20 DUP3 DUP5 SUB SLT ISZERO PUSH2 0x7A0 JUMPI PUSH2 0x79F PUSH2 0x6A4 JUMP JUMPDEST JUMPDEST PUSH1 0x0 PUSH2 0x7AE DUP5 DUP3 DUP6 ADD PUSH2 0x775 JUMP JUMPDEST SWAP2 POP POP SWAP3 SWAP2 POP POP JUMP JUMPDEST PUSH1 0x0 DUP3 DUP3 MSTORE PUSH1 0x20 DUP3 ADD SWAP1 POP SWAP3 SWAP2 POP POP JUMP JUMPDEST PUSH32 0x53656E646572206973206E6F74206F776E657221000000000000000000000000 PUSH1 0x0 DUP3 ADD MSTORE POP JUMP JUMPDEST PUSH1 0x0 PUSH2 0x7FE PUSH1 0x14 DUP4 PUSH2 0x7B7 JUMP JUMPDEST SWAP2 POP PUSH2 0x809 DUP3 PUSH2 0x7C8 JUMP JUMPDEST PUSH1 0x20 DUP3 ADD SWAP1 POP SWAP2 SWAP1 POP JUMP JUMPDEST PUSH1 0x0 PUSH1 0x20 DUP3 ADD SWAP1 POP DUP2 DUP2 SUB PUSH1 0x0 DUP4 ADD MSTORE PUSH2 0x82D DUP2 PUSH2 0x7F1 JUMP JUMPDEST SWAP1 POP SWAP2 SWAP1 POP JUMP JUMPDEST PUSH32 0x4E487B7100000000000000000000000000000000000000000000000000000000 PUSH1 0x0 MSTORE PUSH1 0x32 PUSH1 0x4 MSTORE PUSH1 0x24 PUSH1 0x0 REVERT JUMPDEST PUSH32 0x4E487B7100000000000000000000000000000000000000000000000000000000 PUSH1 0x0 MSTORE PUSH1 0x11 PUSH1 0x4 MSTORE PUSH1 0x24 PUSH1 0x0 REVERT JUMPDEST PUSH1 0x0 PUSH2 0x89D DUP3 PUSH2 0x670 JUMP JUMPDEST SWAP2 POP PUSH32 0xFFFFFFFFFFFFFFFFFFFFFFFFFFFFFFFFFFFFFFFFFFFFFFFFFFFFFFFFFFFFFFFF DUP3 EQ ISZERO PUSH2 0x8D0 JUMPI PUSH2 0x8CF PUSH2 0x863 JUMP JUMPDEST JUMPDEST PUSH1 0x1 DUP3 ADD SWAP1 POP SWAP2 SWAP1 POP JUMP JUMPDEST PUSH32 0x4E487B7100000000000000000000000000000000000000000000000000000000 PUSH1 0x0 MSTORE PUSH1 0x41 PUSH1 0x4 MSTORE PUSH1 0x24 PUSH1 0x0 REVERT JUMPDEST PUSH32 0x53656E64206661696C6564000000000000000000000000000000000000000000 PUSH1 0x0 DUP3 ADD MSTORE POP JUMP JUMPDEST PUSH1 0x0 PUSH2 0x940 PUSH1 0xB DUP4 PUSH2 0x7B7 JUMP JUMPDEST SWAP2 POP PUSH2 0x94B DUP3 PUSH2 0x90A JUMP JUMPDEST PUSH1 0x20 DUP3 ADD SWAP1 POP SWAP2 SWAP1 POP JUMP JUMPDEST PUSH1 0x0 PUSH1 0x20 DUP3 ADD SWAP1 POP DUP2 DUP2 SUB PUSH1 0x0 DUP4 ADD MSTORE PUSH2 0x96F DUP2 PUSH2 0x933 JUMP JUMPDEST SWAP1 POP SWAP2 SWAP1 POP JUMP JUMPDEST PUSH1 0x0 DUP2 SWAP1 POP SWAP3 SWAP2 POP POP JUMP JUMPDEST POP JUMP JUMPDEST PUSH1 0x0 PUSH2 0x991 PUSH1 0x0 DUP4 PUSH2 0x976 JUMP JUMPDEST SWAP2 POP PUSH2 0x99C DUP3 PUSH2 0x981 JUMP JUMPDEST PUSH1 0x0 DUP3 ADD SWAP1 POP SWAP2 SWAP1 POP JUMP JUMPDEST PUSH1 0x0 PUSH2 0x9B2 DUP3 PUSH2 0x984 JUMP JUMPDEST SWAP2 POP DUP2 SWAP1 POP SWAP2 SWAP1 POP JUMP JUMPDEST PUSH32 0x43616C6C206661696C6564000000000000000000000000000000000000000000 PUSH1 0x0 DUP3 ADD MSTORE POP JUMP JUMPDEST PUSH1 0x0 PUSH2 0x9F2 PUSH1 0xB DUP4 PUSH2 0x7B7 JUMP JUMPDEST SWAP2 POP PUSH2 0x9FD DUP3 PUSH2 0x9BC JUMP JUMPDEST PUSH1 0x20 DUP3 ADD SWAP1 POP SWAP2 SWAP1 POP JUMP JUMPDEST PUSH1 0x0 PUSH1 0x20 DUP3 ADD SWAP1 POP DUP2 DUP2 SUB PUSH1 0x0 DUP4 ADD MSTORE PUSH2 0xA21 DUP2 PUSH2 0x9E5 JUMP JUMPDEST SWAP1 POP SWAP2 SWAP1 POP JUMP JUMPDEST PUSH32 0x4469646E27742073656E6420656E6F7567687421000000000000000000000000 PUSH1 0x0 DUP3 ADD MSTORE POP JUMP JUMPDEST PUSH1 0x0 PUSH2 0xA5E PUSH1 0x14 DUP4 PUSH2 0x7B7 JUMP JUMPDEST SWAP2 POP PUSH2 0xA69 DUP3 PUSH2 0xA28 JUMP JUMPDEST PUSH1 0x20 DUP3 ADD SWAP1 POP SWAP2 SWAP1 POP JUMP JUMPDEST PUSH1 0x0 PUSH1 0x20 DUP3 ADD SWAP1 POP DUP2 DUP2 SUB PUSH1 0x0 DUP4 ADD MSTORE PUSH2 0xA8D DUP2 PUSH2 0xA51 JUMP JUMPDEST SWAP1 POP SWAP2 SWAP1 POP JUMP INVALID LOG2 PUSH5 0x6970667358 0x22 SLT KECCAK256 PUSH17 0xC3DEBCA1CB4BBCC6D2B2F6F8883C9E9E3F JUMP TIMESTAMP 0x4E PUSH11 0x10AAA59F3A1019EC9C4564 PUSH20 0x6F6C634300080800330000000000000000000000 "
				},
				"gasEstimates": {
					"creation": {
						"codeDepositCost": "552400",
						"executionCost": "46959",
						"totalCost": "599359"
					},
					"external": {
						"addressToAmountFunded(address)": "2836",
						"fund()": "73091",
						"funders(uint256)": "5044",
						"minimumUsd()": "2407",
						"owner()": "2558",
						"withdraw()": "infinite"
					}
				},
				"methodIdentifiers": {
					"addressToAmountFunded(address)": "3e47d6f3",
					"fund()": "b60d4288",
					"funders(uint256)": "dc0d3dff",
					"minimumUsd()": "098de820",
					"owner()": "8da5cb5b",
					"withdraw()": "3ccfd60b"
				}
			},
			"storageLayout": {
				"storage": [
					{
						"astId": 54,
						"contract": "ETH-Remix/freeCodeCamp.org/Lesson 4/FundMe.sol:FundMe",
						"label": "minimumUsd",
						"offset": 0,
						"slot": "0",
						"type": "t_uint256"
					},
					{
						"astId": 57,
						"contract": "ETH-Remix/freeCodeCamp.org/Lesson 4/FundMe.sol:FundMe",
						"label": "funders",
						"offset": 0,
						"slot": "1",
						"type": "t_array(t_address)dyn_storage"
					},
					{
						"astId": 61,
						"contract": "ETH-Remix/freeCodeCamp.org/Lesson 4/FundMe.sol:FundMe",
						"label": "addressToAmountFunded",
						"offset": 0,
						"slot": "2",
						"type": "t_mapping(t_address,t_uint256)"
					},
					{
						"astId": 63,
						"contract": "ETH-Remix/freeCodeCamp.org/Lesson 4/FundMe.sol:FundMe",
						"label": "owner",
						"offset": 0,
						"slot": "3",
						"type": "t_address"
					}
				],
				"types": {
					"t_address": {
						"encoding": "inplace",
						"label": "address",
						"numberOfBytes": "20"
					},
					"t_array(t_address)dyn_storage": {
						"base": "t_address",
						"encoding": "dynamic_array",
						"label": "address[]",
						"numberOfBytes": "32"
					},
					"t_mapping(t_address,t_uint256)": {
						"encoding": "mapping",
						"key": "t_address",
						"label": "mapping(address => uint256)",
						"numberOfBytes": "32",
						"value": "t_uint256"
					},
					"t_uint256": {
						"encoding": "inplace",
						"label": "uint256",
						"numberOfBytes": "32"
					}
				}
			},
			"userdoc": {
				"kind": "user",
				"methods": {},
				"version": 1
			}
		}
	}
}